S01D00006D61696E5F706572696F646963616C5F75706C696E6B2E733337C5
S315080060000804002045AB010873A4020873A402081B
S3150800601073A4020873A4020873A4020873A40208EE
S3150800602073A4020873A4020873A40208A100030853
S3150800603073A40208F88E03084500030873050308CD
S3150800604073A4020873A4020873A4020873A40208BE
S3150800605073A4020873A4020873A4020873A40208AE
S3150800606073A4020873A4020873A402084966000808
S315080060703966000873A4020873A4020873A4020808
S3150800608073A4020873A40208053A020873A4020856
S3150800609073A4020873A4020805BE010873A40208C3
S315080060A073A4020873A40208A9B9010881B90108F2
S315080060B073A4020873A4020873A4020873A402084E
S315080060C073A4020873A4020873A4020873A402083E
S315080060D073A4020873A4020873A4020873A402082E
S315080060E073A4020873A4020873A4020873A402081E
S315080060F073A40208CDB9020873A4020873A402089F
S3150800610073A4020873A4020873A4020873A40208FD
S3150800611073A4020873A4020873A4020873A40208ED
S3150800612073A4020873A4020873A4020873A40208DD
S3150800613073A4020873A4020873A4020873A40208CD
S3150800614073A4020873A4020873A40208610E020865
S3150800615073A4020873A4020873A4020873A40208AD
S3150800616073A4020873A4020873A4020873A402089D
S3110800617073A4020873A4020873A40208B2
S3150800617C194A5AB3194BDB6913F0040F29D110B419
S3150800618C0AE003EA00048C4210D0013AB2B1134B70
S3150800619CDB6913F0040F14D110F0010FF1D1104C78
S315080061AC1C40002CEDD06FF001000CE00C4A1A4094
S315080061BC0AB9002007E06FF0010004E06FF0020056
S315080061CC01E04FF0FF305DF8044B70476FF00200AA
S315080061DC70474FF0FF3070478096980000000350C8
S315080061EC020001000D4BDB6913F4803F12D170B528
S315080061FC0A4B03F580560124F46003F500552C640C
S3150800620C4FF480721A6100212046FFF7B1FF3464FF
S3150800621CEC6070BD6FF00100704700BF00000350C2
S3150800622C38B50446C0F30C03FBB9154B4FF4803252
S3150800623C9A6603F51C33DD69154041F67132DA634B
S3150800624C03F580520121D1605C6102221A6100219A
S3150800625C2120FFF78DFF70B10A4B0122DA601DB1C0
S3150800626CA3F500530022DA6338BD40F21A2106481A
S3150800627C00F096F8D9E700212120FFF779FFEBE724
S3150800628C00900050002003504C93030838B51A4B65
S3150800629C5861DB6913F0040F2AD10C4654F8041B19
S315080062AC154B9961151F06E0214651F8042B124B24
S315080062BC9A61043D0C465DB108210846FFF758FF64
S315080062CC03460028F0D00C4A04211161184638BD43
S315080062DC094B04221A6100212120FFF749FF0346C6
S315080062EC0028F3D100212120FFF742FF0346EDE7F2
S315080062FC4FF0FF33EAE700BF000003502DE9F041E9
S3150800630C0F461646054610F0030F14D116F0030F68
S3150800631C17D1204B4FF480329A6603F51C33DA6991
S3150800632C02F4803841F67132DA6303F580530122A0
S3150800633CDA6000230EE040F26621174800F030F8C8
S3150800634CE4E74FF41A71144800F02AF8E1E72544FB
S3150800635C2744361B8EB105F5005424F4FF5424F05B
S3150800636C1F04641BB44228BF3446224639462846C5
S3150800637CFFF78CFF03460028E9D0084A0121D160B3
S3150800638CB8F1000F03D0A2F500520021D1631846CC
S3150800639CBDE8F081009000504C9303080020035090
S30D080063AC5FF800F071A6020873
S315080063C0013800D0FCE770470348044B834202D0EB
S315080063D0034B03B1184770474C8100204C810020BD
S315080063E000000000064B0749C91A891048BF013149
S315080063F0491003D0044B0BB101481847704700BF3A
S315080064004C8100204C8100200000000010B5064C8D
S31508006410237843B9FFF7D8FF044B13B10448AFF309
S3150800642000800123237010BDA87A00200000000018
S31508006430E0A2030808B5054B1BB105490548AFF3AB
S315080064400080BDE80840FFF7CDBF00BF0000000090
S3150800645070040020E0A20308A3F5803A704700BF45
S31508006460174B002B08BF134B9D46FFF7F5FF00217E
S315080064708B460F461348144A121A25F027FF0E4B6F
S31508006480002B00D098470D4B002B00D098470020D2
S31508006490002104000D000D48002802D00C48AFF377
S315080064A000801EF077F92000290025F02BFD1DF04D
S315080064B06FFF00BF00000800000000000000000099
S315080064C00804002008040020D87A002000000000F4
S315080064D0000000000023062073B1704754B224B9A7
S315080064E0013353B15DF8044B70470228F8D00868A9
S315080064F00A4908601046F3E710B4094A52F823100F
S315080065000A7A022AEAD9032AEAD1441EE4B2012CFD
S31508006510E6D90868014908601046E1E788040020C2
S31508006520087E002010B5A2B00DF1680C284C0FCCDF
S31508006530ACE80F0094E80F008CE80F0000211591D5
S3150800654016911791189119914FF480131593214BB1
S315080065501993109111911291139114911E4B109346
S315080065601E4B14933C2201A825F0B0FE01AC0DF198
S31508006570540CBCE80F000FC4DCF80030236006ACEE
S315080065800DF1400CBCE80F000FC4DCF800302360A6
S31508006590134B0B9320230C9301238DF835308DF87C
S315080065A03630104B0F93104B1AAA01A90F481BF04F
S315080065B01FFB044638B900214FF4E13023F047FFAA
S315080065C0204622B010BDBA21094824F051F8F2E756
S315080065D0A01103083C00015B010010004400015BA8
S315080065E08C0400201C7E0020AC0400203406002009
S315080065F06811030808B531B9084B1868036823B150
S315080066001CF040FB01E0012900D908BD034B1868BE
S315080066100368002BF9D025F039FBF6E7307E002019
S3150800662008B5034903481CF085FFFFF77BFF08BD43
S31508006630347E00206006002008B502481BF008FCDE
S3150800664008BD00BF3406002008B502481BF000FC50
S3150800665008BD00BF3406002008B5034824F02FF80B
S31508006660024824F02CF808BDD8110308C011030805
S3150800667008B50349034B186816F07AFC08BD00BF35
S31508006680447E0020647E00202DE9F04389B005464B
S3150800669016468DF81F10CBB2002B6AD19DF81F0045
S315080066A04FF4C47100FB01F101F5A161344C4FF4BC
S315080066B0A1670DF11F030193009600232A46214482
S315080066C007FB004008F012FB9DF81F10C42001FBD1
S315080066D000F000F50260204400F104080BF0ACFA63
S315080066E09DF81F1001EB411C4FEA8C0C0CF5D26C7F
S315080066F00CEB040004960390224B0293CB1DDBB2ED
S31508006700019300950423424607FB01410AF0E2FC87
S315080067109DF81F104FF0980909FB01F000F5F1608C
S31508006720204404960390184B02930B1DDBB2019389
S3150800673000950423424607FB014109F089FE9DF8AE
S315080067401F2009FB02F101F5F161742002FB00F03C
S3150800675000F5E26020440196531CDBB200932B46F9
S3150800676007FB02422144043009F0E8F909B0BDE804
S31508006770F083064A6921064811F092F98EE700BFB0
S31508006780EC06002061110108F1040108F011030864
S31508006790CC18030810B5044638B94FF4A160064B67
S315080067A000FB04301FF0B1FA10BD044A8B210448DF
S315080067B011F076F9F1E700BFEC060020F0110308A6
S315080067C0B418030830B583B004460D46C9B9214646
S315080067D04FF4A1601C4B00FB05301FF099FA0546E3
S315080067E060BB012C25D000242CBB4FF4A16304FB0D
S315080067F003F3154AD05820F0F7FA10BB0134E4B277
S31508006800F2E7124A9221124811F04AF9DFE7114BD2
S3150800681003EBC4025268009253F834300E4A32F839
S315080068201420E1B206200AF06DFD0134052CEEDDD8
S31508006830D9E70024FAE702200AF092FD284603B0B9
S3150800684030BD0120F8E700BFEC060020F011030870
S315080068509C180308E0180308101903082DE9F041ED
S3150800686084B004460D4616461F469DF83080B8F19A
S31508006870000F12D10B9B02939DF8283001930097C5
S3150800688033462A4621464FF4A164074804FB08000C
S3150800689007F0DCFE04B0BDE8F081044AC3210448D1
S315080068A011F0FEF8E6E700BFEC060020F011030839
S315080068B080180308F8B504460D4616461F4653B910
S315080068C033462A4621464FF4A164064804FB0700CE
S315080068D01FF0A8F8F8BD044AD421044811F0E0F8DE
S315080068E0EEE700BFEC060020F01103086018030865
S315080068F038B504460D4641B921464FF4A160064B0A
S3150800690000FB053007F050FE38BD044ADA2104487A
S3150800691011F0C6F8F0E700BFEC060020F0110308F6
S315080069204C18030810B5044638B94FF4A160064B55
S3150800693000FB04301FF073F810BD044AE021044838
S3150800694011F0AEF8F1E700BFEC060020F0110308DD
S315080069503418030810B5044638B94FF4A160064B3D
S3150800696000FB04301FF0CFFA10BD044AE6210448A4
S3150800697011F096F8F1E700BFEC060020F0110308C5
S315080069801418030838B504460D4641B921464FF494
S31508006990A160064B00FB05301FF0C6F838BD044A57
S315080069A0EC21044811F07CF8F0E700BFEC06002063
S315080069B0F0110308F817030838B505460C4649B917
S315080069C04FF4A16303FB04F42946054B185920F03C
S315080069D03CF838BD034AF821034811F061F8EFE79F
S315080069E0EC060020F0110308DC17030810B504466E
S315080069F038B94FF4A160064B00FB043007F072FF6C
S31508006A0010BD044A4FF48571034811F049F8F0E7C0
S31508006A10EC060020F0110308C817030810B5044651
S31508006A2038B94FF4A160064B00FB04301FF064F937
S31508006A3010BD044A4FF48E71034811F031F8F0E79F
S31508006A40EC060020F0110308A817030838B5044619
S31508006A500D4641B921464FF4A160064B00FB0530AF
S31508006A601FF04DF938BD044A4FF49171034811F0EF
S31508006A7017F8EFE7EC060020F0110308881703085B
S31508006A8010B5044638B94FF4A160064B00FB043034
S31508006A901FF026F910BD044A4FF49471034810F00C
S31508006AA0FFFFF0E7EC060020F01103086017030863
S31508006AB038B504460D4629B92946204610F0A6FFE2
S31508006AC038B938BD044A4FF4A371044810F0E8FFFA
S31508006AD0F2E74FF0FF30F4E7F01103084817030810
S31508006AE038B504460D4629B92946204610F0A6FFB2
S31508006AF038B938BD044A40F25D11044810F0D0FF99
S31508006B00F2E74FF0FF30F4E7F011030830170308F7
S31508006B1038B504460D4631B92A462146002022F0EA
S31508006B2077FA38B938BD054A4FF4B471044810F0FD
S31508006B30B7FFF1E74FF0FF30F4E700BFF0110308A5
S31508006B401817030838B504460D4631B92A462146B2
S31508006B50012022F05DFA38B938BD054A40F27311B2
S31508006B60044810F09DFFF1E74FF0FF30F4E700BF4F
S31508006B70F01103080017030810B5044640B94FF48E
S31508006B80A16303FB04F4064B185920F04DF810BD19
S31508006B90044A4FF4CE71044810F082FFEFE700BFB5
S31508006BA0EC060020F0110308CC16030810B50446BD
S31508006BB038B94FF4A160064B00FB04301FF0A2F869
S31508006BC010BD044A4FF4DA71034810F069FFF0E784
S31508006BD0EC060020F0110308A416030810B50446B5
S31508006BE038B94FF4A160064B00FB04301EF0E8FEEE
S31508006BF010BD044A4FF4E071034810F051FFF0E766
S31508006C00EC060020F01103087416030870B5064652
S31508006C100D4681B905EB4514A40004F5D2640B4B67
S31508006C201C44314620461FF013FE2846FFF77AFE1D
S31508006C30022807D070BD064A40F2CD11054810F06B
S31508006C402FFFE7E720461FF048FDF3E7EC06002094
S31508006C50F01103085816030870B505460E46144683
S31508006C605AB9C42303FB04F404F5026432462946E0
S31508006C70054820441FF063FE70BD044A40F2F9112E
S31508006C80034810F00DFFECE7EC060020F0110308AE
S31508006C9030160308F8B505460E4617461C4663B96E
S31508006CA0C42303FB04F404F502643B463246294632
S31508006CB0054820441FF05FFEF8BD044A40F2112142
S31508006CC0034810F0EDFEEBE7EC060020F011030890
S31508006CD00416030870B505460E4614465AB9C42369
S31508006CE003FB04F404F502643246294605482044A9
S31508006CF00AF0CCFF70BD044A40F22A21034810F07E
S31508006D00CFFEECE7EC060020F0110308DC150308BB
S31508006D10F8B505460E4617461C4601460B4810F0C0
S31508006D2019FF64B904EB4414A40004F5D2643B4685
S31508006D3032462946064820441FF0D6FCF8BD054AC7
S31508006D4040F24F21044810F0ABFEEBE70C120308A3
S31508006D50EC060020F0110308B415030838B50546FB
S31508006D600C4601460A4810F0F5FE54B904EB4414E3
S31508006D70A40004F5D2642946064820441FF014FDF1
S31508006D8038BD054A40F25B21044810F089FEEDE75C
S31508006D9040120308EC060020F01103088C150308BE
S31508006DA02DE9F04182B005460E46174698469DF8ED
S31508006DB0204084B9982303FB04F404F5F164CDF864
S31508006DC000803B4632462946064820441FF0ABFB66
S31508006DD002B0BDE8F081044A40F27F21034810F072
S31508006DE05FFEE7E7EC060020F011030864150308C8
S31508006DF038B505460C4651B9982303FB04F404F547
S31508006E00F1642946054820441FF0D8FB38BD044ADA
S31508006E1040F28A21034810F043FEEDE7EC06002015
S31508006E20F01103083C15030810B5044638B94FF4A9
S31508006E30A160064B00FB04301EF080FF10BD044A1B
S31508006E404FF42C71034810F02BFEF0E7EC060020F7
S31508006E50F01103080815030808B54FF4A162034B9F
S31508006E6002FB00301EF06EFF08BD00BFEC060020D6
S31508006E7038B504460D4641B921464FF4A160064B84
S31508006E8000FB05301EF061FF38BD044A40F2D221EE
S31508006E90034810F005FEEFE7EC060020F0110308A2
S31508006EA0E414030810B5044638B94FF4A160064B3C
S31508006EB000FB04301EF054FF10BD044A4FF436712F
S31508006EC0034810F0EDFDF0E7EC060020F01103088A
S31508006ED0B814030810B5044628B94FF4A160054B49
S31508006EE000FB043010BD044A40F2E921034810F0C3
S31508006EF0D7FDF2E7EC060020F01103089C140308FE
S31508006F0010B582B00446D0B94FF4A1600F4B00FB10
S31508006F10043007F099FF019000209DF8043063F3D0
S31508006F2007009DF8053063F30F209DF8063063F3DC
S31508006F3017409DF8073063F31F6002B010BD044A7E
S31508006F4040F21631034810F0ABFDDDE7EC060020F1
S31508006F50F01103087C14030800B583B0B0B90BF030
S31508006F6023FF019000209DF8043063F307009DF885
S31508006F70053063F30F209DF8063063F317409DF83C
S31508006F80073063F31F6003B05DF804FB034A4FF450
S31508006F904771034810F084FDE1E700BFF0110308CC
S31508006FA050140308F8B504460D4616461F4653B94D
S31508006FB033462A4621464FF4A164064804FB0700D7
S31508006FC007F05CFFF8BD044A40F22331034810F08D
S31508006FD067FDEDE7EC060020F0110308241403080A
S31508006FE010B5044638B94FF4A160064B00FB0430CF
S31508006FF01EF0B9FE10BD044A40F22A31034810F0CB
S315080070004FFDF0E7EC060020F0110308081403080A
S3150800701010B5044638B94FF4A160064B00FB04309E
S315080070201EF0B4FE10BD044A4FF44C71034810F02C
S3150800703037FDF0E7EC060020F0110308D413030827
S3150800704070B504460D4616464AB92A4621464FF4F7
S31508007050A160064B00FB06301EF0B6FE70BD044A62
S315080070604FF45271034810F01BFDEEE7EC060020C2
S31508007070F0110308B413030810B5044638B94FF4E1
S31508007080A160064B00FB04301EF0B0FE10BD044A9A
S3150800709040F24E31034810F003FDF0E7EC060020FD
S315080070A0F01103088C13030870B505460E4689B916
S315080070B0742406FB04F404F5E2640D4B1C44043402
S315080070C0294620461FF08DF83046FFF72BFC02288C
S315080070D007D070BD074A40F25531074810F0E0FC6A
S315080070E0E6E7002DF5D0204608F052FDF1E700BF8F
S315080070F0EC060020F01103087013030810B50446C7
S3150800710050B9742303FB04F000F5E260064B1844FB
S3150800711004301FF055F810BD044A40F25F310448A8
S3150800712010F0BEFCEDE700BFEC060020F0110308E6
S315080071305013030838B505460C4659B9742303FBA2
S3150800714004F404F5E264074B1C442946201D1FF08D
S3150800715051F838BD044A4FF45C71044810F0A0FC9D
S31508007160ECE700BFEC060020F01103082C13030817
S3150800717010B5044638B94FF4A160064B00FB04303D
S315080071801EF03DFE10BD044A40F27731034810F068
S3150800719087FCF0E7EC060020F0110308001303084B
S315080071A038B504460D4641B921464FF4A160064B51
S315080071B000FB05301EF0EDFD38BD044A40F27D3176
S315080071C0034810F06DFCEFE7EC060020F011030809
S315080071D0D812030810B5044638B94FF4A160064B17
S315080071E000FB04301EF0EAFD10BD044A40F2893166
S315080071F0034810F055FCF0E7EC060020F0110308F0
S31508007200B8120308F8B505460E4617461C465BB97C
S315080072104FF4A16303FB04F43B463246294606486D
S3150800722000590BF053FBF8BD044A40F28F3104486D
S3150800723010F036FCECE700BFEC060020F01103085E
S315080072409812030810B5044640B94FF4A16303FB2E
S3150800725004F4064B18591FF0BAFD10BD044A40F253
S315080072609531044810F01CFCEFE700BFEC0600203F
S31508007270F01103087412030808B54FF4A16C0CFB4F
S3150800728003FC13460A460146024850F80C001FF054
S315080072906DFD08BDEC06002008B54FF4A162034B4E
S315080072A002FB00301EF0A4FB08BD00BFEC06002060
S315080072B008B54FF4A162034B02FB00301EF09BFB9E
S315080072C008BD00BFEC06002008B54FF4A16303FB18
S315080072D000F0024B18580BF027FC08BDEC060020FE
S315080072E008B54FF4A16303FB00F0024B18580BF0E6
S315080072F085F808BDEC06002008B54FF4A162034BDB
S3150800730002FB00301EF0E2FD08BD00BFEC060020BF
S3150800731008B54FF4A162034B02FB00301EF078FD5E
S3150800732008BD00BFEC06002008B54FF4A162034B68
S3150800733002FB00301EF0ADFD08BD00BFEC060020C4
S3150800734008B54FF4A162034B02FB00301EF0B2FDF4
S3150800735008BD00BFEC06002008B54FF4A162034B38
S3150800736002FB00301EF0A9FD08BD00BFEC06002098
S3150800737008B54FF4A162034B02FB00301EF0A0FDD6
S3150800738008BD00BFEC06002008B54FF4A162034B08
S3150800739002FB00301EF097FD08BD00BFEC0600207A
S315080073A008B506491160064A1A60029B054A1A6022
S315080073B00CF04CF9039B186008BD00BF1B5002086F
S315080073C0C15002081F500208F0B585B00C46164693
S315080073D0074630B9631EDBB2062B08D9012005B073
S315080073E0F0BD164A8121164810F05AFBF2E70CF058
S315080073F02DF90025009501950295039507EB47039E
S3150800740007EB83030433DBB28DF800308DF8017087
S3150800741003228DF8082000EB0310437A23438DF8E6
S31508007420093022F08FFF304401902146054810F0BC
S3150800743091FB68460CF0E6F82846D0E7F0110308F9
S31508007440341903081C19030830B58DB0044690F8A2
S31508007450D03000EB03135B7803EB8303414A02EB5E
S3150800746043039B786BB194F8D03004EB0313597837
S3150800747001EB81023B4B03EB4203DB783BB90DB0D2
S3150800748030BD394ADF21394810F00AFBEBE705A879
S31508007490FFF750FE4FF45163ADF8103094F8D03032
S315080074A004EB03135878FFF79BFD70B3002594F897
S315080074B0D03004EB03135878FFF75AFE80BB002D33
S315080074C03DD194F8D03004EB03135B78254A03EBDF
S315080074D0830102EB4101097903EB830302EB4302C3
S315080074E053799942CBD022F031FF94F8D03004EB8F
S315080074F003146378039302900220019000220092FD
S31508007500134601210CF0EAFBB9E7194810F022FBF3
S31508007510184810F01FFB0D238DF810300125C6E71B
S31508007520154810F017FB134810F014FB05F130034B
S315080075306B44102203F8202C0135EDB2BFE722F088
S3150800754005FF94F8D03004EB03135B78039302909D
S3150800755000210191009504AB0A4603200CF0BEFBFE
S315080075608DE700BFD00F002054190308A41B030899
S31508007570EC1903081C1A0308241A030810B50C464C
S3150800758012491160124A1A60029B124A1A600CF0DC
S315080075905DF8039B1860002303B110BD0E4A03EB88
S315080075A0830102EB4100447002F811300021C170DA
S315080075B04FF0010C80F802C0017103EB830002EB67
S315080075C0400251716344DBB2E6E700BF7D770008ED
S315080075D04974000851760008D00F002030B585B0F0
S315080075E00D46044600BB04EB8402154B03EB42032D
S315080075F09B78FBB10023009301930293039304EB5A
S31508007600440304EB830305338DF800308DF80140FD
S3150800761003238DF8083022F095FE05440195684647
S315080076200BF0F0FF05B030BD064AC821064810F039
S3150800763037FAD8E7054AC921034810F031FAD9E7DD
S31508007640D00F0020F0110308281B0308601A03084E
S3150800765038B5044690F8D03000EB03135B7803EB9B
S315080076608303424A02EB43039B7863B194F8D03014
S3150800767004EB0313587800EB80023C4B03EB420300
S31508007680DB783BB938BD3A4A40F20111394810F067
S3150800769007FAEBE7FFF7A4FC002839D194F8D030B5
S315080076A004EB03135878FFF795FD054694F8D020A8
S315080076B004EB021253782D4903EB830001EB4000DB
S315080076C0407903EB830301EB43031871527802EB0D
S315080076D0820301EB43010B79AB4241D0002D3AD02E
S315080076E0012109200CF074FE94F8D03004EB031342
S315080076F000215878FFF772FF94F8D03004EB031492
S31508007700637803EB8303194A02EB43035D71B9E718
S3150800771094F8D03004EB03135878FFF729FD0028B6
S31508007720BCD194F8D03004EB03135878FFF7E6FC85
S315080077300028B3D194F8D03004EB0313597801200C
S31508007740FFF7B2FC94F8D03004EB031359780A48D3
S3150800775010F000FAA2E7002109200CF039FEC3E771
S3150800776082211046FFF73AFFC6E700BFD00F002078
S3150800777054190308D41B0308A01A030870B590F817
S315080077800A310D2B2FD190F8145100240CB1002585
S315080077902AE004EB8403154A12F81330AB4202D0F0
S315080077A00134E4B2F2E704EB840302EB430655B96D
S315080077B0F378CBB10BF04AFF90F8D03072789A4242
S315080077C00BD1012510E02A4609490A4810F0C2F9EA
S315080077D0094810F0BFF9254606E000212846FFF7BC
S315080077E0FDFE012500E00025284670BDD00F0020CB
S315080077F0701B0308D41A03081C1A030810B504469C
S3150800780038B904EB440304EB830005300BF0E0FEC3
S3150800781010BD034AD521034810F042F9F1E700BF2D
S31508007820F0110308001B030870B50D4616460446FA
S3150800783098B904EB8400144B03EB4003DB78AB42A6
S315080078400AD085B131462046FFF7C8FE04EB84040A
S315080078500D4B03EB4403DD7070BD0C4AB4210C4894
S3150800786010F01EF9E5E721460020FFF71DFC20462B
S31508007870FFF7C4FF04EB8402034B03EB4203002229
S315080078801A715A71E2E700BFD00F0020F011030801
S315080078904C1B030808B506491160064A1A60029B84
S315080078A0054A1A600BF0D2FE039B186008BD00BF9C
S315080078B09B5102083D5102083B51020830B585B07C
S315080078C00D460446C0B9002300930193029303931F
S315080078D004EB440304EB830303338DF800308DF87F
S315080078E0014003238DF8083001952046FFF71AF862
S315080078F0022807D005B030BD044A7E21044810F09E
S31508007900CFF8E0E768460BF07DFEF3E7F0110308D1
S31508007910041C030830B585B004460D4600200090C7
S3150800792001900290039004EB440304EB83030233B3
S315080079308DF800308DF8014003238DF808300521B5
S3150800794022F032FD01902046FFF7ACFA012810D14B
S31508007950019B2B4401930199491B002915DD2246F9
S315080079600F4810F0F7F868460BF04CFE90B905B0D2
S3150800797030BD2046FFF770FA0028E9D12046FFF708
S3150800798015F9019B03440193E5E72146054810F0E4
S31508007990E1F8E8E7044AF521044810F081F8E6E73B
S315080079A04C1C0308201C0308841C0308F81C030845
S315080079B010B584B0044690F8D03000EB031358781D
S315080079C0FEF7B0FF022820D094F8D03004EB03135A
S315080079D001215878FFF7D8FC22F0B8FC94F8D0308B
S315080079E004EB03135B780393029000210191009145
S315080079F00D4B0A4601200CF071F970B994F8D03095
S31508007A0004EB031300225A7205E0084810F0A2F8A6
S31508007A10074810F09FF804B010BD94F8D03004EB76
S31508007A20031401236372F6E7A97A0020BC1C030835
S31508007A301C1A030808B506491160064A1A60029B13
S31508007A40054A1A600BF002FE039B186008BD00BFCA
S31508007A50CF510208B1790008D351020810B504467F
S31508007A6060B90BF0F3FD04EB440304EB8303023324
S31508007A7000EB0310037A052B06D010BD064A8521B4
S31508007A80064810F00DF8ECE722F05CFC01462046AB
S31508007A90FFF740FFF1E700BFF0110308E01C0308F9
S31508007AA090F80A31013BDBB2012B01D9002070475F
S31508007AB090F81431C3EB4312C3EBC20206498A5C41
S31508007AC0012AF3D090F81111C3EB4312C3EBC2039A
S31508007AD0014AD154EAE700BFDC0F002010B504467E
S31508007AE090F8D03000EB03131B7A022B14D094F8CD
S31508007AF0D03004EB0312927A6AB104EB03135B7A73
S31508007B00012B0DD094F8D03004EB031462780021D1
S31508007B1003200CF05DFC10BD012009F021FCE6E70E
S31508007B200CF002FA0028EDD194F8D03004EB0313D8
S31508007B305A78C2EB4213C2EBC3030749CB5C012B4D
S31508007B4004D0012103200CF043FCE4E702210320C2
S31508007B500CF03EFCDFE700BFDC0F00202DE9F04308
S31508007B6085B0044690F8D03000EB03135A78314BB1
S31508007B70C2EB4211C2EBC1020021995490F8D02001
S31508007B8000EB02125278C2EB4211C2EBC102134457
S31508007B9093F8F45093F8F5605F1C93F8F38093F824
S31508007BA0F630ABB34FF0040922F0D0FB94F8D0308E
S31508007BB004EB03135B7803930290CDF80490CDF899
S31508007BC000803B463246294602200CF087F80146DB
S31508007BD018BB94F8D03004EB031301225A725B7871
S31508007BE0C3EB4311C3EBC101124A0A4492F8F520CC
S31508007BF08AB11149C3EB4312C3EBC2030D4A1344BE
S31508007C0093F8F4200D480FF0A5FF05B0BDE8F08302
S31508007C104FF00209C8E70A49ECE794F8D03004EBBC
S31508007C2003140023637207480FF094FF06480FF009
S31508007C3091FFEAE7DC0F0020181D0308301D030832
S31508007C40241D03084C1D03081C1A030808B5064919
S31508007C501160064A1A60029B054A1A600BF0F6FC88
S31508007C60039B186008BD00BFA17A00085D7B000869
S31508007C70DD7A00082DE9F04784B00F4616461D4602
S31508007C80DDF830809DF834909DF838A00446002829
S31508007C903BD100200090019002900390BAF1000FAA
S31508007CA039D103238DF80830B8F1000F39D0C4EB69
S31508007CB04413C4EBC3032348184480F8F3904A4698
S31508007CC04146013024F00DFBC4EB4413C4EBC30357
S31508007CD01C48184480F8F47080F8F56080F8F6506F
S31508007CE022F030FB0F9B184401908DF8014004EBFD
S31508007CF0440304EB830401348DF8004068460BF016
S31508007D0081FCC0B904B0BDE8F0870F4A95210F4839
S31508007D100FF0C6FEBDE702238DF8083009F020FBF8
S31508007D20C2E7C4EB4412C4EBC202064B134400225A
S31508007D3083F8F320C8E7064AB22104480FF0B0FEDC
S31508007D40E0E700BFDC0F0020F0110308C01D0308A0
S31508007D50881D030800230BB10020704703EB830C32
S31508007D60074A02EBCC021279824202D00133DBB217
S31508007D70F1E7034800EBCC0004300B70704700BFF6
S31508007D80D4100020CA2380F82730024B83610F23C2
S31508007D908375704740FA010008B50379D91C827DBE
S31508007DA00F2A28BF0F22914219DCC27822F001025D
S31508007DB0C2705A1CD2B20271C1184FF0000C81F879
S31508007DC005C0991CC9B2017102444FF0010C82F832
S31508007DD005C003330371084480F805C008BD03488D
S31508007DE00FF0B8FE02480FF0B5FEF7E7D81D0308F6
S31508007DF01C1A030810B5037903F1060E90F816C08D
S31508007E00BCF10F0F28BF4FF00F0CE6453DDC90F88C
S31508007E1003C02CF0040C80F803C003F1010C5FFAD0
S31508007E208CFC80F804C000EB030E02248EF8054093
S31508007E3003EB040E5FFA8EFE80F804E001F0010100
S31508007E4084448CF8051003F1030C5FFA8CFC80F867
S31508007E5004C086448EF805204FEA122E191DC9B2B1
S31508007E60017184448CF805E04FEA124E03F1050CC3
S31508007E705FFA8CFC80F804C0014481F805E0120E14
S31508007E80063303716044427110BD03480FF062FE69
S31508007E9002480FF05FFEF7E7D81D03081C1A03080F
S31508007EA010B5037903F1060E90F816C0BCF10F0F52
S31508007EB028BF4FF00F0CE64543DC90F803C02CF0C2
S31508007EC0020C80F803C003F1010E5FFA8EFE80F8FB
S31508007ED004E0C4184FF0010C84F805C003F1020C45
S31508007EE05FFA8CFC80F804C086448EF805100C0AEC
S31508007EF003F1030E5FFA8EFE80F804E084448CF8E2
S31508007F0005400C0C03F1040C5FFA8CFC80F804C0E5
S31508007F1086448EF80540090E03F1050E5FFA8EFEBB
S31508007F2080F804E084448CF80510120102F010026F
S31508007F30417D0633037101F00F0313437044437107
S31508007F4010BD03480FF006FE02480FF003FEF7E7E0
S31508007F50D81D03081C1A030808B50B46417D1A7973
S31508007F6002F00F02914212D1013101F00F01417561
S31508007F701A78597802EB0122997802EB0142DB78EC
S31508007F8002EB0363C2691A44C261002008BD0448B3
S31508007F900FF0E0FD03480FF0DDFD0120F6E700BF16
S31508007FA0081E03081C1A03082DE9F04780460F46E9
S31508007FB016469A464FF0000980F803904C4607E0AB
S31508007FC098F8033043F0010388F803300134E4B22B
S31508007FD0A64272D93D5D032D64D801A353F825F056
S31508007FE0C17F0008F17F0008458000087B800008F3
S31508007FF0631DB3421BDA611C39444046FFF7ACFFE8
S31508008000E8B9002388F814302D4AA2FB0A329209EF
S31508008010C8F82020012388F82530D8F81C100A440F
S3150800802028480FF097FD28480FF094FD07E02749E8
S3150800803027480FF08FFD24480FF08CFDA94606341B
S31508008040E4B2C5E7631CB3420DDA611C3944404605
S315080080501DF005F998F8033043F0040388F8033057
S315080080600234E4B2B4E7194919480FF073FD16480B
S315080080700FF070FD4FF00109F2E7631CB34207DA0F
S31508008080611C394440461DF0F1F80234E4B29FE71A
S315080080900E490F480FF05EFD0B480FF05BFD4FF0E1
S315080080A00109F2E70B490C480FF054FD06480FF09A
S315080080B051FD4FF0010900268AE74846BDE8F087DA
S315080080C0D34D6210381E03081C1A0308F82003084B
S315080080D07C1E030850200308901E030870B504464A
S315080080E022F030F9461D04EB8403264D05EBC30543
S315080080F000232B722879FEF7C3FCA876EB7913F0D8
S31508008100010F2DD104EB84021E4B03EBC203DB796E
S3150800811013F0040F29D104EB84021A4B03EBC203B4
S31508008120DB7913F0020F19D0164B43F8246003EBE2
S31508008130C2031B7E2BB1134B03EBC203002283F849
S315080081402820104804EB840300EBC303196A184679
S3150800815093F8282031440430FFF7A2FE304670BD5C
S3150800816028460430FFF718FECCE7064840F8246096
S3150800817000EBC200026A324400210430FFF73AFEDF
S31508008180C9E700BFD41000202DE9F04188B0047873
S315080081906CB92046FFF7A2FF064604EB84021D4B86
S315080081A003EBC2031D7A4DB908B0BDE8F0811A4A3F
S315080081B040F26B1119480FF073FCEAE7154F07EB0D
S315080081C0C2074FF0CA0887F82B802A4607F109012B
S315080081D004A824F086F83B7903934FF47A7306FBD8
S315080081E003F3029302230193009504AB012241464F
S315080081F004200BF073FD0028D6D13B7E0BB1013B62
S315080082003B7604EB8404034B03EBC403002283F898
S315080082102820C9E7D4100020B41E0308B02003089C
S3150800822030B585B00478002C3CD100230093019327
S315080082300293039304EB8402344B03EBC2035A798B
S315080082408DF8002003228DF808201A798DF8012070
S315080082509B792BB304EB84022C4B03EBC2031B7EE6
S315080082603BB304EB8402294B03EBC203DA7942F0F1
S315080082700202DA7104EB8402244B03EBC203DB79B6
S315080082803BB322F05FF80130019068460BF0BAF96B
S3150800829004EB84021D4B03EBC20393F829304BBB56
S315080082A005B030BD1A4A4FF4CC711A480FF0F8FBE6
S315080082B0BBE722F047F8154B53F82420801A04EB45
S315080082C0840203EBC203DB69C01A10F11E0FC8D57E
S315080082D0D0E70E4B53F8245004EB840203EBC20399
S315080082E0DB691D4414216FF01D001CF0D2FF054404
S315080082F00195CAE7054B03EBC202002182F8291053
S31508008300127906200CF064F8CAE700BFD4100020E2
S31508008310B41E03088C2003082DE9F04F83B00546E8
S315080083208946009201931A4CA4FB0134A4082346FB
S31508008330027818480FF00EFC2B780BBB2F7807EB4A
S315080083408708154E06EBC80808F1040B28220021F9
S31508008350584623F0BBFF114B009A1360104B019A45
S3150800836013600C9B0F4A1A600D9B1D6088F80590D8
S3150800837088F804405846FFF705FD03B0BDE8F08FBE
S31508008380094A4FF4AB7109480FF08AFBD6E700BFDC
S315080083904FECC44ED01E0308D41000202D850008CB
S315080083A08981000821820008201F0308D4200308B9
S315080083B02DE9F04782B005460E46174618461CF0CA
S315080083C05AFF30B100240B9B1C70204602B0BDE852
S315080083D0F08704460DF107012846FFF7BBFC8046E7
S315080083E00028F2D0ADBB90F80290B9F1000F48D042
S315080083F031780329E9D8244B13F801A087F800A09F
S31508008400524622480FF0A6FB21480FF0A3FB0D9B0E
S31508008410524631464046FFF7C7FD98F825300BBB54
S3150800842098F80330002BD0D09DF80700FFF756FECA
S3150800843098F804209DF830309A421BD898F8042002
S315080084400B9B1A7008F105010A9823F04AFF4C465F
S31508008450BBE72A460F4910480FF07CFB0C480FF083
S3150800846079FBB2E7002188F825102A4606200BF08A
S31508008470AFFFD5E7094A40F23A2106480FF010FB4C
S31508008480DCE74C46A1E700BFF4200308441F0308B5
S315080084901C1A030830200308D41A0308741F03089B
S315080084A030B587B00D46044648B904EB84021C4B28
S315080084B003EBC2039B794BB9012007B030BD194ABB
S315080084C040F2792118480FF0EBFAEEE70DF11701A3
S315080084D02046FFF73FFC08B380F82450C27842F0E4
S315080084E00202C27000240194029403940494427810
S315080084F08DF8042003788DF8053003238DF80C30A9
S3150800850021F020FF05460521012021F04DFF0544F5
S31508008510029501A80BF076F82046CEE70120CCE7B5
S31508008520D4100020F0110308F41F0308F0B583B037
S31508008530044690F80A011CF09EFE18B1002528464C
S3150800854003B0F0BD94F814510DF107012846FFF762
S3150800855001FC064600283ED04DBB8378002BEED0A2
S3150800856094F813316BBB94F80931002BE7D090F8D7
S315080085702630002BE3D194F8082190F827309A4248
S31508008580DDD1254615F8017B14480FF0E3FAD4F837
S3150800859000313A4629463046FFF706FD0BF056F8F5
S315080085A090F8D03072789A4210D10125C7E72A464A
S315080085B00B490C480FF0CEFA0B480FF0CBFA002502
S315080085C0BDE700212846FFF76BFFB8E70DF1070066
S315080085D0FFF726FEE9E70025B1E700BFA41F030859
S315080085E060200308D41A03081C1A030830B583B0A0
S315080085F00C46054680B90DF107012846FFF7AAFB88
S3150800860040B18278A24205D0847064B10021284620
S31508008610FFF746FF03B030BD054A4FF4127105480F
S315080086200FF03EFAE7E740780AF0D2FFF2E700BF1C
S31508008630F01103081420030830B583B00D4604462C
S3150800864060B90DF107012046FFF784FB044698B18F
S31508008650C36953B92B60012003B030BD074A40F205
S31508008660972107480FF01CFAEBE721F06BFEE36948
S31508008670184428600020EFE70120EDE7F011030811
S31508008680D01F030800232BB10020704704EB4310CA
S315080086900B700AE010B45A01054CA25C8242F5D070
S315080086A00133DBB2002BF6D000205DF8044B70478F
S315080086B000110020F0B585B00446002303778369CE
S315080086C013F0010F04D113F0040F24D105B0F0BD47
S315080086D00123037713480FF03DFAE57A002DF5D00C
S315080086E0A71C21F033FE0646A189002021F05CFE76
S315080086F023780393064402960220019000953B4690
S315080087000122CB210BF0EAFAA36923F00103A36146
S315080087100023E372DAE70423037703480FF01AFA13
S31508008720D4E700BF142103084021030800B585B02B
S315080087300023009301930293039343788DF8003046
S3150800874003788DF8013003238DF8083001916846C7
S315080087500AF058FF10B905B05DF804FB034A40F269
S31508008760FD1103480FF09CF9F5E700BF78210308CF
S31508008770DC2203082DE9F04F85B0064688461746E1
S315080087801846019300230F9A1370F37240F6B83314
S31508008790B381FEF775F9082814D94FF009090025A1
S315080087A02C46BC4280F01582234618F80410052989
S315080087B000F20782DFE811F00C00240063002E01A6
S315080087C0A301D6010198FEF75BF95FFA80F9E6E79F
S315080087D00134E4B2AB1C4B45E3DA6A1C7319002179
S315080087E09970AB1C56FA82F2042191700335EDB2EA
S315080087F056FA83F301229A70B3691343B361D0E73B
S315080088000134E4B205F1080ACA45CADA0FF0CCF910
S3150800881083460FF0CDF96B1C721901219170AA1CC1
S3150800882056FA83F39870010AEB1C56FA82F2917095
S31508008830010C2A1D56FA83F39970000E6B1D56FA21
S3150800884082F29070AA1D56FA83F383F802B04FEAB3
S315080088501B21EB1D56FA82F291704FEA1B4256FA1B
S3150800886083F39A704FEA1B6B0935EDB256FA8AFA0A
S315080088708AF802B0B36943F00103B36191E7221D98
S31508008880BA4248DA434493F801A09A780AEB022AD6
S31508008890DA780AEB024A1B790534E4B21AEB036A62
S315080088A009D101230F9A137000230E9A1370B36926
S315080088B023F00403B361BAF1FF3F35D00AF1FF3361
S315080088C013F1030F3FF66DAF019903A81CF028FDBD
S315080088D000287DD0039B53454DD32B1D4B45BFF632
S315080088E060AF691C721902209070281856FA81F137
S315080088F000228A70E91C56FA80F0827056FA81F1D5
S315080089008A700535EDB256FA83F39A70B36943F067
S315080089100103B36145E73946B0480FF01BF9B04883
S315080089200FF018F9012056E101230F9A13700E9AD9
S3150800893013702B1D4B4519DA691C731902229A709C
S31508008940AA1856FA81F1FF238B70E91C56FA82F2AF
S3150800895093702A1D56FA81F18B700535EDB256FAD9
S3150800896082F29370B36943F00103B361B36923F0EC
S315080089700403B361A2E7AAEB030A21F0E3FC50441F
S3150800898030612A1D4A451EDA6B1C7119022088704F
S31508008990291856FA83F383F802A04FEA1A20EB1C2B
S315080089A056FA81F188704FEA1A4156FA83F399709C
S315080089B04FEA1A630535EDB256FA82F29370B36937
S315080089C043F00103B361B36943F00403B361E8E616
S315080089D02B1D4B4518DA691C72190220907028184D
S315080089E056FA81F100228A70E91C56FA80F08270E4
S315080089F056FA81F18A700535EDB256FA83F39A7004
S31508008A00B36943F00103B361012202210198FEF71D
S31508008A10DBFCC6E6E21CBA4245DA434493F801A0F9
S31508008A209A780AEB022ADB780434E4B21AEB034A92
S31508008A3009D101230F9A137000230E9A1370B36994
S31508008A4023F00403B3616FF07F439A4534D00AF1EB
S31508008A50FF32644B9A423FF6A4AE21F073FC5044B1
S31508008A603061EB1C4B4519DA691C721903209070AA
S31508008A70AA1C56FA81F181F802A04FEA1A2156FA81
S31508008A8082F291704FEA1A4A0435EDB256FA83F328
S31508008A9083F802A0B36943F00103B361B36943F0F5
S31508008AA00403B3617DE639464C480FF053F84C4849
S31508008AB00FF050F801208EE001230F9A13700E9ADA
S31508008AC01370EB1C4B4515DA6B1C72190321917058
S31508008AD0A91C56FA83F3FF229A70EB1C56FA81F109
S31508008AE08A700435EDB256FA83F39A70B36943F087
S31508008AF00103B361B36923F00403B361A7E7013443
S31508008B00E4B221F061FC6B1C4B45BFF64AAE721904
S31508008B100421917005F1020A5FFA8AFA56FA83F37C
S31508008B209870032805D0B36943F00103B36155462D
S31508008B3037E60FF041F8EB1CB2448AF80200010A46
S31508008B402A1D56FA83F39970010C6B1D56FA82F2A8
S31508008B509170000E05F1060A5FFA8AFA56FA83F34F
S31508008B609870E0E7221DBA4222DA434458789A7888
S31508008B7000EB0220DA7800EB02401B7900EB036079
S31508008B8070610534E4B205F1010ACA45BFF609AEBB
S31508008B90731905229A700235EDB221F017FC56FAC0
S31508008BA08AFA8AF80200B36943F00103B361F8E56B
S31508008BB039460A480EF0CEFF09480EF0CBFF0120D1
S31508008BC009E009480EF0C6FF05480EF0C3FF01206C
S31508008BD001E0F572002005B0BDE8F08F8821030892
S31508008BE01C1A0308FDFFFF009C21030870B584B01A
S31508008BF0044690F814510DF10F012846FFF742FD7F
S31508008C0000284ED0064655B9437F2BB1B4F8082143
S31508008C1040F2CB139A420CD0284604B070BD2A46BF
S31508008C20214922480EF096FF21480EF093FF0025B1
S31508008C30F2E794F80A011CF043FB0028ECD1CB219B
S31508008C401C480EF087FF21460DF10E0301930DF126
S31508008C500D0300932B4611F8012B3046FFF78AFDCA
S31508008C6008B9B3695BB99DF80E307BB90AF0EEFC1A
S31508008C7090F8D03072789A420FD10125CCE721F0CE
S31508008C8061FB01463046FFF751FDECE72A469DF8A1
S31508008C900D1010200BF09CFBE8E730461CF01EFB7D
S31508008CA0EBE70025B8E700BFAC220308D41A03088F
S31508008CB01C1A0308CC2103082DE9F84305460C467F
S31508008CC017461E460378FBB92D784FEA4519DFF893
S31508008CD0608008EB451520220021284623F0F6FA85
S31508008CE00D4B3B600D4B3360089B0D4A1A60099B80
S31508008CF01D606C700B4BA3FB0434A40808F80940EC
S31508008D0001236B77BDE8F883074A40F20711074845
S31508008D100EF0C6FED8E700BFED8B0008B586000842
S31508008D20DD5202084FECC44E14220308EC22030855
S31508008D30001100202DE9F04784B004460D469146FF
S31508008D400D9F00233B700DF10F01FFF79BFC0028D8
S31508008D5069D080464CB9467F1EB1297805290ED9B7
S31508008D600026304604B0BDE8F08722462F49304831
S31508008D700EF0F0FE2F480EF0EDFE0026F1E72E4B22
S31508008D8013F801A089F800A052462C480EF0E2FE1E
S31508008D9028480EF0DFFE0DF10D0301930DF10E03C9
S31508008DA000932346524629464046FFF7E3FC20B97E
S31508008DB0D8F81830012B0DD013BB9DF80D3033BBF6
S31508008DC00AF044FC90F8D03098F801209A4225D150
S31508008DD00026C6E798F80B209DF838309A4208D83E
S31508008DE098F80B203A7008F102010C9823F079FAEA
S31508008DF0B7E7134A40F2C7110C480EF051FEEFE7E9
S31508008E0021F0A0FA01464046FFF790FCD5E7224636
S31508008E109DF80E1010200BF0DBFAD1E740461CF047
S31508008E205DFA00269DE700269BE700BF902203080F
S31508008E30D41A03081C1A0308102303082C22030853
S31508008E40582203080B460649096839B110B50C685B
S31508008E501CB1014602FB03F0A04710BD704700BFD6
S31508008E60201100200B460649096839B110B54C682F
S31508008E701CB1014602FB03F0A04710BD704700BFB6
S31508008E8020110020134BB3F8EA3000E00133421EEC
S31508008E909A4211DD104A92889A42F7DD0E4901F589
S31508008EA0805CBCF8E820013292B2ACF8E82003F501
S31508008EB0247C21F81C20E9E7074A92889A4203DDB8
S31508008EC0044BA3F8EA0070470132024BA3F8EA20E4
S31508008ED0704700BF202100202011002001460020F5
S31508008EE001E0013080B2074B9B88834208D900F520
S31508008EF02473044A32F813204B1C9A42F1D100E03D
S31508008F0000207047201100202DE9F84306469046B8
S31508008F100C46E9B101FB02F54B1E01FB03F3A5EB79
S31508008F206305EF106B4205F0070503F0070358BF0A
S31508008F305D4294B14FF00009A1450ED20022314698
S31508008F4048461CF019FA09F101091FFA89F9F3E7ED
S31508008F5000252F46EDE70134A4B2444511D20A4B49
S31508008F603B441A7BC5F107031A4102F00102314658
S31508008F7020461CF001FA0135082DECD101370025F1
S31508008F80E9E7BDE8F88300BF201100202DE9F0418C
S31508008F90074616460C4669B301FB02F54B1E01FB54
S31508008FA003F3A5EB63054FEAE5086B4205F00705F1
S31508008FB003F0070358BF5D4204E00135082D15D0BC
S31508008FC00134A4B2B44218D2394620461CF0CAF974
S31508008FD00028F2D10A4A4244117BC5F10700012351
S31508008FE08340DB435BB20B401373E6E708F10108E5
S31508008FF00025E5E70025A846E4E7BDE8F08100BFBF
S3150800900020110020F8B504460E461746154D41F2C4
S31508009010F0020021284623F059F92F60AC80AE7182
S31508009020002307E003F524710E4A012022F81100F7
S3150800903003449BB240F2DB529342F3D9002300E08B
S3150800904001330C2BFCD9002304E0064A1A44FF21FD
S315080090501173013340F213529342F6D9024BA3F827
S31508009060EC40F8BD20110020202100200048704760
S31508009070F88905002DE9F047F4B004468946BC2274
S31508009080002145A823F022F9F222002108A823F09E
S315080090901DF900230493059306938DF81C3000935D
S315080090A0019302938DF80C30974BA3F8E640B3F87A
S315080090B0EA30A34200F22081944B9B88A3420BD24C
S315080090C0914BB3F8E830642B2BD901208E4B83F8EB
S315080090D0EE0074B0BDE8F0878C4D611EAA7989B29E
S315080090E04846FFF7AFFE04F28F23002225F8132027
S315080090F02046FFF7C7FE05F58055B5F8E80020B904
S31508009100A5F580539B88A342E3D0804A93881B1B0E
S3150800911010FA83F302F58052A2F8EC304FF0FF30D4
S31508009120D7E72046FFF7AEFE784B998845AA601A1E
S315080091301CF07FF90024264608E00138012204A91C
S3150800914080B21CF019F906B9012601346F4B9B88C9
S31508009150A3421EDDA5B245A928461CF003F901283D
S31508009160F3D104F52473694A32F813000028E4D1D0
S31508009170002245A928461CF0FFF8644FBA7929460B
S3150800918008A8FFF76FFEBA7908A948461CF01AF92D
S31508009190DBE75D4BB3F8E81004A81CF07FF904463A
S315080091A076B35B4920461CF0DDF801282BD1574ED3
S315080091B006F58055B5F8E82021466846FFF7A4FE6F
S315080091C0B5F8E820694604A81CF00EF92046FFF712
S315080091D085FE0146B27908A8FFF744FEB27908A9C8
S315080091E048461CF0EFF8B5F8E850294604A81CF0E4
S315080091F068F9C8B9294604A81CF050F90446D0E70E
S315080092004FF0FF3065E7002383B1404B03F58052EA
S31508009210B2F8E8709B68F91AA2F8EC10BB426ED156
S31508009220012F6FD9023F51E00123EDE7374D05F5D0
S315080092308053B3F8E820214604A8FFF7A7FE204686
S31508009240FFF74CFE0146AA794846FFF7FBFD0122C7
S315080092502F4920461CF090F8AB680133AB60D4E781
S31508009260013CA7422BDA284EB6F8E8204146684664
S31508009270FFF74AFEA5B2B6F8E820294604A8FFF784
S3150800928043FE694628461CF06DF80128E8D1A6F584
S31508009290805606F58053B3F8E82004A968461CF002
S315080092A0A3F82846FFF71AFE0146B2794846FFF7A3
S315080092B0D9FDB279494608A81CF084F8D0E7134BC3
S315080092C09A79514608A8FFF7BDFD013F002F11DB2B
S315080092D01FFA87F84046FFF701FE82460B4CA27933
S315080092E0014608A8FFF7BEFD04F58054B4F8E84027
S315080092F0013CB6E70020ECE64FF0FF30E9E64FF018
S31508009300FF30E6E60020E4E62021002020110020B8
S31508009310F8210020054AD2F8E6C0D2F8EA10C0F8CB
S3150800932000C04160B2F8EE2002817047202100207B
S31508009330002333B100207047162202FB03400B704E
S315080093400CE010B4162203FB02F2064CA25C824221
S31508009350F2D00133DBB2002BF4D000205DF8044BC9
S31508009360704700BF102200202DE9F04385B003782E
S31508009370164A162101FB0322567C16B905B0BDE82C
S31508009380F08304468946DFF84480951C20F0DEFF0A
S315080093900746237809FB03835B8A4FF47A7103FB3C
S315080093A001F1002021F000F8237809FB03F318F8EF
S315080093B003300393074402970220019000962B4638
S315080093C00122C9210AF08AFCD8E700BF1022002032
S315080093D0F0B585B0044638B91E4B162202FB043395
S315080093E01B7D4BB105B0F0BD03461B4A40F2BD11CB
S315080093F01A480EF055FBEFE70026009601960296EE
S315080094000396144A162304FB03F3D11849788DF8FA
S315080094100010D35C8DF8013003278DF8087020F012
S3150800942091FF05463946304620F0BEFF05440195B2
S3150800943068460AF0E7F830B9064B162202FB0433F1
S3150800944001221A75CEE7064A40F2C71103480EF004
S3150800945027FBF1E71022002014220308DC25030865
S315080094607821030808B50278084B162101FB023358
S3150800947000221A75064B1B78012B00D808BD013B44
S31508009480034A13700078FFF7A3FFF7E710220020BE
S31508009490AA7A00202DE9F04F91B000900E461546A5
S315080094A09B469DF868300293AB4B1B78012B1FD95E
S315080094B0009B93F811800298FDF7E2FA0E281BD953
S315080094C00F2301930024AC4280F0A182274616F8A8
S315080094D00490B9F1080F00F28D82DFE819F0130045
S315080094E03400980079018B028B028B028B02B10142
S315080094F0002343744382DBE70298FDF7C1FAC3B23F
S315080095000193DFE70134E4B258461BF0EDFF00286B
S31508009510D9D108F10203019A9342D4DA08F101027B
S31508009520009800EB08030021997008F1020350FA2D
S3150800953082F20321917088445FFA88F850FA83F31F
S3150800954001229A70BFE7631CAB4258DA37447B782E
S31508009550C3F3410A03F0010303930234E4B27F4BD9
S3150800956003EB4A1909F1100704A8FFF7D3FE04987C
S31508009570059903C7BDF818303B80B9F81030B9F81B
S3150800958012209B1A9BB2039A1AB9B9F81620002A18
S3150800959099D008F1040201998A4294DA08F1010780
S315080095A0009901EB08004FF0010E80F802E008F17F
S315080095B0020051FA87F7BB70C3F3052308F10307C6
S315080095C043EA8A1351FA80F08370644800EB4A1024
S315080095D0B0F816C051FA87F383F802C0037E08F183
S315080095E005085FFA88F803EA0E030F4651FA82F275
S315080095F09370C37904330EFA03F1798263E7294637
S3150800960057480EF0A7FA57480EF0A4FAFBE104F102
S315080096100A03AB4206DA58461BF066FF60B10B3404
S31508009620E4B250E729464E480EF094FA4D480EF03B
S3150800963091FA4FF00109E6E1202200210DEB020024
S3150800964022F044FE2A46484948480EF083FA4FF06D
S3150800965000094B46A1461C4604E0315D44480EF01D
S3150800966079FA0134A54208D914F00F0FF5D1002C68
S31508009670F3D040480EF06EFAEFE74C463D480EF040
S3150800968069FA7B1CF35C03F00F028DF82120C3F303
S3150800969001138DF82230F0198178ADF82410C378BB
S315080096A041EA0321ADF8241002798DF82620053702
S315080096B0F35D03F007078DF82770C3F3C2038DF82F
S315080096C0283083798DF82930C3790B93077A03EB11
S315080096D007230B93477A03EB07430B93807A03EB35
S315080096E000630B930B34E4B223480EF033FA9DF86B
S315080096F0287007B10127BDF8243040F2DC529342A6
S3150800970003D89DF82620F22A1FD947F002079DF8AC
S31508009710223047EA8317FFB2032B01D947F0040723
S3150800972017F03F0F2AD008F10103019A9342BFF6BA
S31508009730CAAE009800EB08020221917088445FFACD
S3150800974088F850FA83F39F70BDE602FB03F9FFF72A
S315080097508DFC8145DBD9D8E7AA7A00203022002083
S31508009760882103081C1A0308182303082C23030856
S31508009770402303086C7D03084823030801228DF85B
S3150800978020206FF001020F924FEA4319DFF898E2A2
S315080097900EEB431C0DF1200ABAE80F004EF809003B
S315080097A0CCF80410CCF80820CCF80C30BAE80F0036
S315080097B0CCF81000CCF81410CCF81820CCF81C30D3
S315080097C0964A9DF82610BDF82400FFF71BFCAAE769
S315080097D0631CAB4206DA58461BF086FE60B10234BB
S315080097E0E4B270E629468E480EF0B4F98D480EF0BC
S315080097F0B1F94FF0010906E137447B7803F003031A
S315080098000234E4B25A0188498A5CA2B943F00403D7
S3150800981008F1010201998A42BFF655AE009F07EB8F
S3150800982008010320887008F102085FFA88F857FAD9
S3150800983082F2937047E65A017B4900208854E7E78D
S315080098403219537892F8029043EA0923C9F3911919
S31508009850C3F30D030393594674480EF07BF9724B14
S3150800986003EB49135B7813F0010F08D0BBF1090F1E
S3150800987043D0BBF1040F43D04FF0000A01E04FF08C
S31508009880000A13F0020F05D0BBF10A0F3BD0BBF15B
S31508009890050F3BD013F0040F05D0BBF10B0F38D0E2
S315080098A0BBF1060F38D013F0080F05D0BBF10C0F2B
S315080098B035D0BBF1070F35D058461BF015FE10B151
S315080098C0BAF1000F54D04FEA4913574AD35C2BB16B
S315080098D002EB4913DB6913F1020F26D0524B03EB57
S315080098E04913DB69002B29DB4F4B03EB49139B79A3
S315080098F02344DBB20333DCB2E5E54FF0010AC0E7E7
S315080099004FF0010ABDE74FF0010AC3E74FF0010A1D
S31508009910C0E74FF0010AC6E74FF0010AC3E74FF068
S31508009920010AC9E74FF0010AC6E702EB49134FF0EF
S31508009930FF32DA613E480EF00DF9CFE7B3F1FF3F8B
S3150800994019D0394B03EB4913DB69002B10DB002BCD
S315080099504CD138480EF0FEF8334B03EB4913D9695E
S31508009960FF29A8BFFF21029AC9B20B200AF030FDD1
S315080099702C44E4B2A7E52A462F4930480EF0EAF807
S315080099804FF0000A5346A2461C4604E0315D2C48B7
S315080099900EF0E0F80134A54208D914F00F0FF5D1FE
S315080099A0002CF3D027480EF0D5F8EFE754462548A3
S315080099B00EF0D0F8F91C31440398FFF75BFB1A4FF9
S315080099C007EB4917F86107F1100A04A8FFF7A2FC8C
S315080099D053460498059903C3BDF818201A807B8A54
S315080099E03A8A494618480EF0B5F8AAE717480EF01D
S315080099F0B1F8B1E7494616480EF0ACF809480EF03A
S31508009A00A9F84FF00109484611B0BDE8F08F009B50
S31508009A1083F811804FF00009F5E700BF28220020DF
S31508009A20882103081C1A0308302200206C23030827
S31508009A309823030838240308B42303082C230308AF
S31508009A40402303086C7D0308C42303085C24030829
S31508009A507824030870B584B090F814519DB904466B
S31508009A600DF10F012846FFF763FC0646A0B1437DBA
S31508009A7093B1B4F8082140F2C9139A420CD123785D
S31508009A806BB91D4608E02A46104911480EF062F8DF
S31508009A9010480EF05FF80025284604B070BDC921AD
S31508009AA00D480EF057F8009594F80A312278611C93
S31508009AB03046FFF7EFFC08B9737C0BB90125EBE7D5
S31508009AC09DF80F00FFF784FCF8E700BFA4250308FC
S31508009AD0D41A03081C1A0308AC240308F8B505466B
S31508009AE00C4617461E460378002B2FD195F800E042
S31508009AF0162303FB0EFE19480EEB00014FF0000C6F
S31508009B0040F80EC0C1F804C0C1F808C0C1F80CC0BE
S31508009B10C1F810C0A1F814C0114B3B60114B33605B
S31508009B20069B114A1A60079B1D604C700F4BA3FBDE
S31508009B300434A40800F80E4001234B750C4A0D495D
S31508009B4011600D4951600D4A1370F8BD0C4A4FF467
S31508009B5085710C480DF0A4FFC8E700BF102200204D
S31508009B60559A000869930008659400084FECC44E9E
S31508009B70282200201755020805550208AA7A00204F
S31508009B8014220308FC2503082DE9F04F85B00C467E
S31508009B900F9E00213170074678B9904699460DF117
S31508009BA00F01FFF7C5FB824600283ED0457D6DB103
S31508009BB0217803290ED9002508E002461E491F48C8
S31508009BC00DF0C8FF1E480DF0C5FF0025284605B054
S31508009BD0BDE8F08F1B4B13F801B088F800B05A4661
S31508009BE019480DF0B7FF16480DF0B4FF00974B461D
S31508009BF05A4621465046FFF74DFCC0B99AF811302F
S31508009C00BBB19DF84020934208D89AF811203270CB
S31508009C100AF102010E9822F064FBD7E70B4A4FF4CB
S31508009C20C97105480DF03CFFEFE70025CEE7002592
S31508009C30CCE70025CAE700BF70250308D41A030835
S31508009C401C1A030828260308FC2403082C250308E5
S31508009C5070B584B00478002C38D1002300930193A2
S31508009C600293039304EB04122E4B03EB02135A7967
S31508009C708DF8002003228DF8082018798DF8010048
S31508009C80FCF750FE022828D004EB0412254B03EB00
S31508009C9002139B79C3B1234B03EB02135B7B63BBB4
S31508009CA0204A52F8243004EB041402EB04125289B9
S31508009CB04FF47A7101FB02331B4AA2FB03239B096B
S31508009CC00193684609F09EFC04B070BD174A4FF42C
S31508009CD0BE7117480DF0E4FEBFE704EB0412114B02
S31508009CE003EB021393F80C31032BCDD10D4B03EB89
S31508009CF00213002283F80C21C6E70A4E56F82450B0
S31508009D0020F024FB2B1804EB041406EB0416F28946
S31508009D104FF47A7101FB0233034AA2FB03239B0922
S31508009D200193CEE7B0220020D34D62102C260308FB
S31508009D30B028030870B586B00478002C4BD120F003
S31508009D4005FB604B43F8240004EB041203EB0213F3
S31508009D505B7B002B46D104EB04125A4B03EB021330
S31508009D601879FCF7DFFD022807D004EB0412554BDF
S31508009D7003EB0213032283F80C2104EB0412514B64
S31508009D8003EB021393F80C31022B67D0032B00F078
S31508009D908380012B2ED04C4B059304EB0412494BC0
S31508009DA003EB02131B7B002B40F089800221454AF6
S31508009DB004EB041302EB03131B79039352F82430C4
S31508009DC0029301910423009305AB01221146062054
S31508009DD009F084FF2EE03D4A4FF49C713C480DF093
S31508009DE05FFEACE7374B03EB021300225A730CF005
S31508009DF0D9FAB0E7334D05EB0211087E021E18BFEB
S31508009E00012204EB04131B0110332B440933097B8D
S31508009E1011BB02262B4D04EB041105EB0111097940
S31508009E20039155F82410029101960090E02106202E
S31508009E3009F054FF70B904EB0412224B03EB02132A
S31508009E4093F80C31032B05D01E4B03EB02130022AB
S31508009E5083F80C2106B070BD0426DBE704EB041377
S31508009E601B0103F58473174A134404EB041502EB2C
S31508009E7005152979039152F82420029200260196A5
S31508009E8095F80D210092063332463146032009F033
S31508009E9025FF85F80D61CDE704EB0412094B03EBAA
S31508009EA002131879FCF73EFD0228D3D004EB0414FC
S31508009EB0044B03EB04131879FDF7D0FDCAE7042118
S31508009EC075E700BFB0220020111213142C260308D0
S31508009ED0882803082DE9F04786B09846DDF838A0AB
S31508009EE000238AF8003017461AB9384606B0BDE886
S31508009EF0F08781460D461646944995480DF02AFE88
S31508009F00002404E0295D93480DF024FE0134A6429E
S31508009F1008D914F00F0FF5D1002CF3D08E480DF0A8
S31508009F2019FEEFE78C480DF015FE2C787F2C00F211
S31508009F305083DFE814F08000A300B400C800E300F3
S31508009F4002012C013E0158019601BC014E034E0345
S31508009F504E034E034E034E034E034E034E034E036B
S31508009F604E034E034E034E034E034E034E034E035B
S31508009F704E034E034E03CA01E201FB014E034E0394
S31508009F804E034E034E034E034E034E034E034E033B
S31508009F904E034E034E034E034E034E034E034E032B
S31508009FA04E034E034E034E034E034E034E034E031B
S31508009FB04E034E034E0318024E032A024E03610255
S31508009FC04E034E034E034E034E034E034E034E03FB
S31508009FD04E034E034E034E034E03510259024E03DF
S31508009FE04E034E034E034E034E034E034E034E03DB
S31508009FF04E034E034E034E034E034E034E034E03CB
S3150800A0004E034E034E034E034E034E034E034E03BA
S3150800A0104E034E034E034E034E034E034E034E03AA
S3150800A0204E034E034E034E034E034E034E034E039A
S3150800A0306F02AD02C202012F18D19AF800305A1CDD
S3150800A0408AF80020002208F803209AF800305A1CE3
S3150800A0508AF80020062208F803209AF800305A1CCD
S3150800A0608AF80020012208F803203EE73B480DF055
S3150800A07071FD3B480DF06EFD274636E7012F07D0E8
S3150800A08036480DF067FD36480DF064FD00272CE7CD
S3150800A09034480DF05FFD20F04DF9002725E7012F24
S3150800A0A007D02E480DF056FD2D480DF053FD00271C
S3150800A0B01BE72D4C2079FCF74DFC21790020FCF795
S3150800A0C0C5FC032711E7022F10D16978022905D8A4
S3150800A0D099F800001EF0ADFD002706E723480DF0AD
S3150800A0E039FD1F480DF036FD0027FEE61B480DF02A
S3150800A0F031FD1B480DF02EFD0027F6E6022F14D180
S3150800A1006F785FB91A4B02AC0FCB84E80F00224672
S3150800A1100321154B18790BF027FEE6E6124B197941
S3150800A1200020FCF72FFC0027DFE60C480DF012FD97
S3150800A1300B480DF00FFD0027D7E6022F1FD16F78C9
S3150800A140C7B9022007F00CF9CFE600BF4826030876
S3150800A1502C230308402303086C7D030860260308A4
S3150800A1601C1A030878260308B02200208C26030848
S3150800A1702C270308012007F0F3F80027B5E6BE48A8
S3150800A1800DF0E8FCBD480DF0E5FC0027ADE6022F12
S3150800A19007D16A78BA4B33F81230A9F80630002787
S3150800A1A0A3E6B5480DF0D6FCB4480DF0D3FC00275D
S3150800A1B09BE6F22F0FD86B78012B03D0022B05D024
S3150800A1C0002792E6002789F808708EE6012389F8A9
S3150800A1D00830002789E6A8480DF0BCFCA7480DF012
S3150800A1E0B9FC002781E6F22F33D899F80000FCF76E
S3150800A1F047FC9AF80030C31A9E420BD27C1EE4B282
S3150800A2009AF800305A1C8AF80020082208F8032019
S3150800A21000221AE099F80000FCF732FCC7B29AF857
S3150800A2200030FF1AFFB2E9E7AB185B7801335942F1
S3150800A230DBB2C9B258BF4B429AF80010481C8AF8DC
S3150800A240000008F801300132D2B2A242ECD301274D
S3150800A2504BE689480DF07EFC88480DF07BFC00270C
S3150800A26043E6012F1BD19AF800305A1C8AF80020C1
S3150800A270092208F80320B9F804209AF80030591C76
S3150800A2808AF8001008F80320B9F804309AF8002074
S3150800A290511C8AF800101B0A08F8023025E6764891
S3150800A2A00DF058FC75480DF055FC00271DE6012FEA
S3150800A2B003D10027A9F8047017E66F480DF04AFC89
S3150800A2C06E480DF047FC00270FE6012F0DD199F8CF
S3150800A2D00931022B01D9002707E65A1C89F80921FA
S3150800A2E04B44022783F80A71FFE563480DF032FCF8
S3150800A2F062480DF02FFC0027F7E5012F0ED199F8DB
S3150800A3000931022B01D90027EFE55A1C89F80921E2
S3150800A3104B440D2283F80A210227E6E556480DF03C
S3150800A32019FC56480DF016FC0027DEE5022F07D06B
S3150800A33051480DF00FFC51480DF00CFC0027D4E5F0
S3150800A34099F800106878FCF72BFF99F80931022B69
S3150800A35001D90027C9E55A1C89F809214B4410225E
S3150800A36083F80A21C1E5022F07D16B78003B18BF95
S3150800A370012389F811300027B7E53F480DF0EAFBBD
S3150800A3803E480DF0E7FB0027AFE5022F1CD19AF8EF
S3150800A39000305A1C8AF80020432208F80320B9F82E
S3150800A3A012209AF80030591C8AF8001008F8032081
S3150800A3B0B9F812309AF80020511C8AF800101B0AC6
S3150800A3C008F80230012790E52B480DF0C3FB2B480F
S3150800A3D00DF0C0FB002788E52A480DF0BBFB27488F
S3150800A3E00DF0B8FB002780E527480DF0B3FB23489E
S3150800A3F00DF0B0FB002778E5012F03D10027A9F857
S3150800A400127072E51C480DF0A5FB1C480DF0A2FB66
S3150800A41000276AE5072F07D017480DF09BFB17485A
S3150800A4200DF098FB002760E5012389F80930AA7822
S3150800A4306B7803EB0223A9F80A306A792B791B0299
S3150800A44003EB0243EA781344642202FB03F3C9F8D8
S3150800A4500C3095F9063089F810300C4B1879FCF752
S3150800A46079FA0BF03BFE99F91010D9F80C000BF0AD
S3150800A4708BFE002739E500BF602603081C1A03086F
S3150800A480FC280308B0260308D0260308B0220020BB
S3150800A490012F07D061480DF05DFB61480DF05AFBAE
S3150800A4A0002722E5002789F8027099F80010384637
S3150800A4B0FCF7DEFC1FF03EFF17E5012F07D05748D3
S3150800A4C00DF048FB56480DF045FB00270DE599F8B9
S3150800A4D00000FCF7D5FA0C2801D8002705E59AF8FC
S3150800A4E000305A1C8AF800207F2208F8032099F8C1
S3150800A4F00000FCF705FD019099F80000FCF72CFD1B
S3150800A50002909AF800305A1C8AF80020042208F8AB
S3150800A51003209AF800305A1C8AF80020082208F806
S3150800A52003209AF800305A1C8AF80020002208F8FE
S3150800A53003209AF80030591C8AF8001008F80320FE
S3150800A5409AF800305A1C8AF800209DF8042008F86A
S3150800A55003209AF800305A1C8AF800209DF8052036
S3150800A56008F803209AF800305A1C8AF800209DF84B
S3150800A570062008F803209AF800305A1C8AF80020AA
S3150800A5809DF8072008F803209AF800305A1C8AF824
S3150800A59000209DF8082008F803209AF800305A1C75
S3150800A5A08AF800209DF8092008F803209AF8003058
S3150800A5B05A1C8AF800209DF80A2008F803209AF801
S3150800A5C000305A1C8AF800209DF80B2008F8032052
S3150800A5D08BE42246134914480DF0BCFA10480DF0D6
S3150800A5E0B9FA3246114912480DF0B4FA002404E0CB
S3150800A5F0295D10480DF0AEFA0134A64208D914F0C8
S3150800A6000F0FF5D1002CF3D00B480DF0A3FAEFE7A6
S3150800A61009480DF09FFA002767E400BF6026030883
S3150800A6201C1A030838280308F826030820270308F5
S3150800A6302C230308402303086C7D030870B588B0F3
S3150800A64090F81451002D42D10446FF238DF81F308F
S3150800A6502B46002B47D09DF81F20FF2A40D002EB3F
S3150800A66002117D4B03EB01139B79002B38D094F82C
S3150800A6701331002B45D194F80A310D2B59D094F893
S3150800A68011313BB994F8093153B394F80831002BCA
S3150800A69000F0DF80704B02EB021103EB0111098910
S3150800A6A002EB021203EB02134A1C1A8194F80931D1
S3150800A6B0B3B194F808519DB1294668480DF04AFA95
S3150800A6C094F80831E02B00F09380012508E02A462B
S3150800A6D0634964480DF03EFA63480DF03BFA0025DD
S3150800A6E0284608B070BD03EB03115B4A02EB011262
S3150800A6F01279AA4202D00133DBB2AAE78DF81F30DD
S3150800A700A9E708F0A3FF90F8D0109DF81F3003EBD7
S3150800A7100313514A02EB03135B798B4204D10121DF
S3150800A7202846FDF763FFDBE70DF11F00FFF790FAF8
S3150800A730F5E702EB0211484B03EB01135B7D0BB9FE
S3150800A7400125CDE70B011033434D2B4405EB0110D2
S3150800A750D4F80C11049194F81011039194F904118A
S3150800A760029194F9061101911A46083200920933AA
S3150800A7702278611C04301AF0E6FE9DF81F3003EBC0
S3150800A780031305EB03152A7E384939480DF0E2F91B
S3150800A79000240CE09DF81F3003EB03122E4B03EB4D
S3150800A7A002132344597E33480DF0D4F901349DF839
S3150800A7B01F3003EB0313284A02EB03131B7EA34245
S3150800A7C008D914F00F0FE5D1002CE3D02A480DF074
S3150800A7D0C1F9DFE728480DF0BDF99DF81F3003EBF6
S3150800A7E003131D4A02EB0313012583F80C5177E77F
S3150800A7F09DF81F5021462E0105EB05131B0110334A
S3150800A800154C234405EB051004EB001003F1080270
S3150800A8100092093311F8012B0430FFF75BFB73191B
S3150800A82004EB031383F80C0108F010FF90F8D0200E
S3150800A8309DF81F3003EB031304EB0314637993426B
S3150800A84001D101254CE70DF11F00FFF701FA01259B
S3150800A85046E71D4644E700BFB022002058270308F4
S3150800A86058280308D41A03081C1A030840270308A3
S3150800A8702C230308402303086C7D03082DE9F047C1
S3150800A88084B007460C46924699460378002B4DD16C
S3150800A8903D7805EB05133E4E06EB031606F1040854
S3150800A8A04FF488720021404621F010FD394BCAF852
S3150800A8B00030394BC9F800300C9B384A1A600D9B9A
S3150800A8C01F607471364BA3FB0434A4083471204608
S3150800A8D0FCF7E8FA003818BF0120B07160B3314FB1
S3150800A8E038460DF037F9304E30460DF033F905EBA2
S3150800A8F00512274B03EB021319792C480DF02AF998
S3150800A90030460DF027F938460DF024F930460DF09B
S3150800A91021F940461AF00FFE05EB05121C4B03EB16
S3150800A92002139B7993B904B0BDE8F087204AD42175
S3150800A93020480DF0B5F8ABE705EB0512144B03EB11
S3150800A940021319791C480DF005F9E2E720460DF0C7
S3150800A9508DF8002300930193029303930C4A05EBA9
S3150800A960051302EB03135B798DF8003005EB05132D
S3150800A97002EB031213798DF8013003238DF80830A2
S3150800A9801FF0E0FC0190684608F03CFECBE700BFEC
S3150800A990B02200203DA60008359D0008519C0008FD
S3150800A9A04FECC44E882703081C1A0308C827030857
S3150800A9B064270308D828030808280308002333B1A6
S3150800A9C0002070478A2202FB03400B700CE010B48B
S3150800A9D08A2203FB02F2064CA25C8242F2D00133C1
S3150800A9E0DBB2002BF4D000205DF8044B704700BFA3
S3150800A9F0C42300202DE9F04F91B006460F46904635
S3150800AA00994690F884B000241D9B1C7080F88440F9
S3150800AA10554956480DF09EF804E0395D54480DF046
S3150800AA2099F80134A04508D914F00F0FF5D1002C78
S3150800AA30F3D050480DF08EF8EFE74E480DF08AF83F
S3150800AA40002486F88940A2462546CDF814B015E0BC
S3150800AA500134E4B26B1C3544EA709246DDB215E067
S3150800AA6045480DF077F845480DF074F8012011B007
S3150800AA70BDE8F08F9DF81F302344DCB208F1FF33A0
S3150800AA80A34236DD3A5D3B57002BE1DB00238DF808
S3150800AA901E308DF81F300AF07F010429E0D896F899
S3150800AAA08930013386F88930354B53F821B01B9B22
S3150800AAB003931E2302936B44019308AB00934B4602
S3150800AAC00DF11F0239193078D8470028CED028460C
S3150800AAD09DF81E2053197C2BCCD81E2ACAD8304480
S3150800AAE008A9033021F0FDFB9DF81E302B44DDB28A
S3150800AAF0C0E7DDF814B096F88430022B20D096F81B
S3150800AB00840070B9474417F8013C03F0030386F83C
S3150800AB108330002386F885307D2386F8863086F8CC
S3150800AB20805096F8803086F881300BB900289ED080
S3150800AB3096F8823043F0010386F88230002096E7C3
S3150800AB4096F88930012B0AD186F8843096F8873032
S3150800AB5086F8853096F8883086F88630CFE786F806
S3150800AB6084B0002083E700BF142903082C230308B8
S3150800AB70402303086C7D0308242903081C1A0308CC
S3150800AB80F82A03082DE9F04387B004460F4616460F
S3150800AB9018461AF06CFD20B10025284607B0BDE816
S3150800ABA0F08380460DF103012046FFF707FF814633
S3150800ABB0002800F09780F4B98578002DEDD0397813
S3150800ABC04A480CF0C7FF4A480CF0C4FF3B78022BF2
S3150800ABD000F28A80474AD25C3270012B30D0022BB1
S3150800ABE05ED093B1397844480CF0B4FF40480CF075
S3150800ABF0B1FF4546D1E72246404941480CF0AAFF35
S3150800AC003B480CF0A7FF4546C7E78DF804308DF89A
S3150800AC10053001238DF8063003249DF840309C4208
S3150800AC2059D8224601A90E9821F05BFB0F9B1C7090
S3150800AC30317834480CF08EFF2D480CF08BFFACE7CA
S3150800AC4001238DF8043005238DF80530022723E00B
S3150800AC502D4B53F824300DF102020DF1010168461F
S3150800AC6098477A1C07F118036B449DF8001003F8FF
S3150800AC70141CBB1C06A951FA82F29DF8011002F8B1
S3150800AC80141C0337FFB206AA52FA83F39DF8022072
S3150800AC9003F8142C0134E4B2042CD9D93C46BCE799
S3150800ACA07A7889F88720BB7889F88830022189F86C
S3150800ACB0841099F880108A4202D3FF2189F88410FB
S3150800ACC09A4202D9FF2289F884207D2BA9D97D23AF
S3150800ACD089F88830A5E70D4A40F2F52107480CF0B7
S3150800ACE0DFFE9EE7454658E7454656E754290308DA
S3150800ACF01C1A0308202B030874290308782A03085A
S3150800AD00D41A0308D42903080C2B0308B02903080E
S3150800AD1090F8823013F0010F00D17047F0B5A5B056
S3150800AD2005460078FBF7ACFEC7B295F88410FF29F4
S3150800AD3029D0C0B2023895F88120904201DD012958
S3150800AD4038D1012385F88430033FFFB295F8863061
S3150800AD5095F885105B1A934228BF13469F4228BF71
S3150800AD601F46FFB202238DF810308DF811102944C2
S3150800AD703A4603310DF1120021F0B3FABB1CDBB2DF
S3150800AD8033B925B0F0BD02238DF810308DF81110B7
S3150800AD905E1CF6B295F8832090336B4403F8802C3A
S3150800ADA035480CF0D7FE3246344935480CF0D2FE09
S3150800ADB000240FE0E91C04A821F093FA95F88130E5
S3150800ADC0DEE704F190036B4413F8801C2D480CF061
S3150800ADD0C1FE0134A64208D914F00F0FF1D1002C98
S3150800ADE0EFD029480CF0B6FEEBE727480CF0B2FE88
S3150800ADF01FF0ACFA04464FF4FA6100201FF0D4FAAB
S3150800AE002B7803930444029402200190009604AB25
S3150800AE100122E12108F062FF0028B2D195F88430BA
S3150800AE20FF2B0AD095F88430012B0AD095F882308A
S3150800AE3023F0010385F88230A3E7002385F88430E0
S3150800AE40F0E795F885203A44D2B285F8852095F83A
S3150800AE508130DB1BDBB285F881301BB195F8863073
S3150800AE609A428ED3002385F8843095F8823023F0F1
S3150800AE70010385F8823084E7FC290308282A030899
S3150800AE802C230308402303086C7D030800B585B00E
S3150800AE900023009301930293039343788DF80030BF
S3150800AEA003788DF8013003238DF808300191684640
S3150800AEB008F0A8FB10B905B05DF804FB034A40F298
S3150800AEC01B2103480CF0ECFDF5E700BF78210308C9
S3150800AED0C42A030870B586B0044690F814510DF1DB
S3150800AEE017012846FFF76AFD002838D0064655B9E7
S3150800AEF083782BB1B4F8082140F2E1139A420CD0BA
S3150800AF00284606B070BD2A46164917480CF022FE98
S3150800AF1016480CF01FFE0025F2E7E12114480CF054
S3150800AF2019FE0DF1160303930DF115030293D4F8D8
S3150800AF3000310193009594F80A312278611C304655
S3150800AF40FFF758FD10B996F882300BB90125D7E7F7
S3150800AF501FF0F8F901463046FFF798FFF6E7002597
S3150800AF60CEE700BF942A0308D41A03081C1A03085C
S3150800AF70302A03082DE9F84305460C4690461F4635
S3150800AF8003781BBB2E788A2202FB06F6DFF864904C
S3150800AF9006EB09050021284621F098F90F4BC8F859
S3150800AFA000300F4B3B60089B0E4A1A60099B1D60D8
S3150800AFB06C700D4BA3FB0434A40809F80640012362
S3150800AFC0AB707F2385F88630BDE8F883074A4FF4CF
S3150800AFD0AE7107480CF064FDD4E700BFD5AE000893
S3150800AFE011AD00088B5602084FECC44E1422030814
S3150800AFF0D42A0308C4230020002333B10020704755
S3150800B0002C2202FB03400B700CE010B42C2203FB2D
S3150800B01002F2064CA25C8242F2D00133DBB2002B6C
S3150800B020F4D000205DF8044B704700BFD024002000
S3150800B030F0B585B004460678816A11F0010F1CD177
S3150800B04011F01E0F5BD111F4F07F40F0908011F4DF
S3150800B050F05F40F0C88011F4F03F7FD00025032D43
S3150800B06000F2FD8005F10D0321FA03F212F0010F3B
S3150800B07040F0EE800135EDB2F1E78F480CF06AFD3D
S3150800B080A27C8E498E480CF065FD002505E0631903
S3150800B090D9788C480CF05EFD0135A37CAB4208D903
S3150800B0A015F00F0FF3D1002DF1D087480CF052FDA3
S3150800B0B0EDE785480CF04EFDE61CA77C1FF046F927
S3150800B0C00546A18C00201FF06FF9237803930544E9
S3150800B0D0029502200190009733460122C82108F004
S3150800B0E0FDFD0023A374A36A23F00103A36235E0E0
S3150800B0F0012202FA03F321EA0303A3620CE0002506
S3150800B100032D08D86B1C21FA03F212F0010FEFD1B8
S3150800B1100135EDB2F4E70025002211463046FCF76A
S3150800B12083FB31460120FBF771FD684F07EB451796
S3150800B13033463A7FB9692846FBF7EAFD324629467F
S3150800B1400E2009F045F9BB693A7F294660480CF09C
S3150800B15001FD254400232B7501232B7705B0F0BD8F
S3150800B160012202FA03F321EA0303A3620CE0002595
S3150800B170032D08D86B1D21FA03F212F0010FEFD147
S3150800B1800135EDB2F4E70025294652480CF0E2FCF9
S3150800B19031462846FBF7E2FD254400232B7719465E
S3150800B1A003E00344DBB20131C9B203290CD80A46CD
S3150800B1B06018007F00B101200344D8B2A3181B7D94
S3150800B1C0002BEED00123ECE7002BC7D13246002135
S3150800B1D00C2009F0FDF8C1E7012202FA03F321EA7F
S3150800B1E00303A3620DE00025032D09D805F1090321
S3150800B1F021FA03F212F0010FEED10135EDB2F3E7B1
S3150800B20000253046FBF7E6FFD8B1304F07EB451768
S3150800B21000967B7F3A7FB9692846FBF7C1FD32461F
S3150800B22029460F2009F0D4F8BB693A7F29462A48EF
S3150800B2300CF090FC254400232B76012385F820305A
S3150800B2408CE726480CF086FC25480CF083FC85E73D
S3150800B250012202FA03F321EA0303A36200E00025B0
S3150800B260294620480CF076FC31462846FBF7C0FDF7
S3150800B2702544002385F82030194603E00344DBB251
S3150800B2800131C9B203290DD80A46601890F8200082
S3150800B29000B101200344D8B2A3181B7E002BEDD0C1
S3150800B2A00123EBE7002B7FF459AF324600210D202E
S3150800B2B009F08EF852E700BF242B0308642B030815
S3150800B2C02C230308402303086C7D03085024002020
S3150800B2D06C2B0308E42B0308102C0308882C03089E
S3150800B2E01C1A0308DC2C030870B584B004460E4605
S3150800B2F00023009301930293039343788DF800305B
S3150800B30003788DF8013003238DF808301FF01AF8FA
S3150800B3100546A36A3BB935440195684608F072F9B3
S3150800B32070B904B070BD08F091F9637800EB0310AA
S3150800B330436835449D4201D80195EEE70193ECE751
S3150800B340034A40F2333103480CF0AAFBE9E700BF91
S3150800B35078210308882F03082DE9F04182B00446B6
S3150800B36006780123C3743046FBF73AFE78B11EF01F
S3150800B370EDFF33466A4601A9FBF714FE0023E37482
S3150800B380E37C6BB900231F466FF0004511E001A965
S3150800B3903046FDF751F9003818BF0120E074EFE791
S3150800B3A0012202213046FCF70FF802B0BDE8F08111
S3150800B3B00133032B18DCE218127D002AF8D0724AF2
S3150800B3C002EB431212690199501AA842F0DADFF823
S3150800B3D0B8C10CEB431CDCF814C06244521A002AAC
S3150800B3E0E6DDDFB20546E3E76FF000439D4203D191
S3150800B3F0294600231F460FE025EAE575294620461B
S3150800B400FFF772FF002DD0D1A36A01370122BA4097
S3150800B4101343A362C9E70133032B10DCE218127F3A
S3150800B420002AF8D0584800EB4310026940690244E4
S3150800B4300198121A8A42EEDADFB21146EBE76FF08C
S3150800B4400043994202D100231F4614E021EAE1781D
S3150800B45041464E480CF07EFB41462046FFF744FF26
S3150800B460B8F1000FEFD1A36A05370122BA4013439A
S3150800B470A362E8E70133032B18DCE218127E002AE0
S3150800B480F8D0414A02EB431212690199501AA842B0
S3150800B490F0DADFF8F4C00CEB431CDCF814C06244A5
S3150800B4A0521A002AE6DDDFB20546E3E76FF00043ED
S3150800B4B09D4202D100231E4639E03046FBF78AFE3C
S3150800B4C0D8B13046FBF786FE08B9862D2CDD872DC8
S3150800B4D0B8BF8725873D29462D480CF03BFB2946F2
S3150800B4E02046FFF701FF002D7FF45FAFA36A0937F7
S3150800B4F00122BA401343A36257E7A846B5F5807FF1
