S02B00002F686F6D652F616E686E742F446576732F50726F6A656374732F646576732D726566642D6C6F7261F0
S3150800000000100020410700086D9500086D9500084E
S315080000106D9500086D9500086D9500086D950008AA
S315080000206D9500086D9500086D9500086D9500089A
S315080000306D9500086D9500086D9500086D9500088A
S315080000406D9500086D9500086D9500086D9500087A
S315080000506D9500086D9500086D9500086D9500086A
S315080000606D9500086D9500086D95000811720008D9
S315080000707FA500086D9500086D9500086D95000828
S315080000806D9500086D950008456F000845760008CF
S315080000906D9500086D950008811000086D9500089B
S315080000A06D9500086D9500088D0C00086D0C00080C
S315080000B06D9500086D9500086D9500086D9500080A
S315080000C06D9500086D9500086D9500086D950008FA
S315080000D06D9500086D9500086D9500086D950008EA
S315080000E06D9500086D9500086D9500086D950008DA
S315080000F06D950008879F00086D9500086D950008A6
S315080001006D9500086D9500086D9500086D950008B9
S315080001106D9500086D9500086D9500086D950008A9
S315080001206D9500086D9500086D9500086D95000899
S315080001306D9500086D9500086D9500086D95000889
S315080001406D9500086D9500086D9500086D95000879
S315080001506D9500086D9500086D9500086D95000869
S315080001606D9500086D9500086D9500086D95000859
S311080001706D9500086D9500086D95000857
S3150800017CF0B5114A114C124E00F00105E3695F0700
S3150800018C13D40DB9334213D103EA00078F4207D1B2
S3150800019C0B4A1A40002A0CBF00206FF00100F0BD74
S315080001AC013AEBD16FF00200F9E74FF0FF30F6E7B2
S315080001BC6FF00100F3E700BF80969800000003502B
S315080001CC020001000B4B70B5D96911F480310DD1C1
S315080001DC01244FF48072084E084DF46020462C64B6
S315080001EC1A61FFF7C5FF3464EC6070BD6FF001004F
S315080001FCFBE700BF0000035000100350002003501B
S3150800020CC0F30C0370B5054623B140F21A21114808
S3150800021C00F0A2F84FF480320F4B104C9A66E66940
S3150800022C41F6713316400122E3630D4B0021DA6067
S3150800023C0223656121202361FFF79AFF10B921205B
S3150800024CFFF796FF0122074BDA600EB10023E36332
S3150800025C70BD00BF81E100080090005000000350FB
S3150800026C001003500020035070B5134C6061E3690D
S3150800027C5B071ED40E4656F8043B8D18A361AE4296
S3150800028C0BD10423002121202361FFF771FF58B9F4
S3150800029CBDE870402120FFF76BBF08210846FFF721
S315080002AC67FF10B10423236170BD56F8043BA361A4
S315080002BCE5E74FF0FF30F7E7000003502DE9F84368
S315080002CC154682070F46064604D040F266211E489C
S315080002DC00F042F8AB0704D04FF41A711A4800F034
S315080002EC3BF84FF48032194BDFF868909A6603F5A1
S315080002FC1C33DA6902F4803841F67132DA6301226A
S3150800030C03F58053DA6065B928460122104BDA608A
S3150800031CB8F1000F03D00022A3F50053DA63BDE849
S3150800032CF88306F5005404EA0904A41BAC4228BF5A
S3150800033C2C46394622463046FFF796FF0028E4D16C
S3150800034C264427442D1BDEE781E100080090005067
S3150800035C0020035000E0FFFF5FF800F065950008E9
S31508000370013800D0FCE770470348044B834202D09B
S31508000380034B03B118477047542300205423002019
S3150800039000000000064B0749C91A891048BF0131F9
S315080003A0491003D0044B0BB101481847704700BFEA
S315080003B054230020542300200000000010B5064CEA
S315080003C0237843B9FFF7D8FF044B13B10448AFF3BA
S315080003D000800123237010BD461F00200000000086
S315080003E0F8FF000808B5054B1BB105490548AFF3EA
S315080003F00080BDE80840FFF7CDBF00BF0000000041
S3150800040068100020F8FF0008A3F5803A704700BF7F
S31508000410174B002B08BF134B9D46FFF7F5FF00212E
S315080004208B460F461348144A121A0CF052F90E4B13
S31508000430002B00D098470D4B002B00D09847002082
S31508000440002104000D000D48002802D00C48AFF327
S31508000450008008F081FA200029000BF07AFE08F0E7
S3150800046069FA00BF00000800000000000000000054
S3150800047000100020001000208C1F00200000000043
S31508000480000000000B4B02461B7883B10A4B1B7811
S31508000490834234BF00200120084B1B7833B1084B38
S315080004A01B78134113F0010F08BF00207047012085
S315080004B0F2E700BF3E2300203D230020471F00200F
S315080004C03C230020012208B5074B1A700022074B6F
S315080004D01A700422064B1A701F22064B1A7005F072
S315080004E02DF8054B186008BD3E230020471F002045
S315080004F03D2300203C2300208010002008B5044836
S315080005000DF044FA0AF001F8BDE8084000F008B812
S3150800051064E9000801480DF039BA00BF64E900082B
S315080005202DE9F04F544E97B0354609AC0FCD0FC4A0
S315080005302B6806F1140523600EAC0FCD0FC495E8A1
S315080005400F00DFF84C8184E80F004C480DF01EFAC6
S3150800055040460DF01BFA4FF48073494FADF83C3016
S31508000560484B38460B9309A90EAB0D9303F0C0FB15
S315080005700421B6F834B00DEB01000122ADF804B041
S3150800058000F02EFAB6F836A00022012102A8ADF82E
S3150800059008A000F025FAB6F838900122042103A82D
S315080005A0ADF80C9000F01CFA758F0122042104A8FE
S315080005B0354CADF8105000F013FA344B4FF4487030
S315080005C0C4F8F8344FF00213C4F8F434A3F58033B2
S315080005D0C4F8FC341C23C4F8E43406F0CFFC08A89D
S315080005E0ADF8205000F06CFA142006F0C7FC08A8F5
S315080005F0ADF8205000F036FA232006F0BFFC08A814
S31508000600ADF8205000F05CFAB921384609F064FCD0
S3150800061008A8ADF8205000F025FA002205A81146D2
S31508000620ADF814B000F0DCF9002206A81146ADF8C2
S3150800063018A000F0D5F90122002107A8ADF81C90F2
S3150800064000F0CEF90122002108A8ADF8205000F0EC
S31508000650C7F9384603F00AFA00234046C4F8E434DA
S31508000660C4F8F834C4F8F434C4F8FC340DF091F93D
S3150800067017B0BDE8F08F00BF88DB000864E9000802
S3150800068000000A50E070720000C003500200030028
S315080006906CE9000838B504460D4601B118B937218A
S315080006A0034808F05FFF23682B60256038BD00BF4C
S315080006B0C4DB000838B504460D4601B118B9452112
S315080006C0044808F04FFF236813B92B60256038BD2E
S315080006D01C46F8E7C4DB000810B5044618B95621CD
S315080006E0044808F03FFF206818B103682360002318
S315080006F0036010BDC4DB000838B504460D4601B1D9
S3150800070018B98B21064808F02DFF23682BB1AB4298
S3150800071004D12B68236000232B6038BD1C46F4E700
S31508000720C4DB00080348044A0449121A921008F068
S315080007301EBF00BF7C0100086C030008901F002044
S3150800074008B5154B83F30A8800F030F8FFF7EAFF7F
S31508000750124B13498B4212D30020124B12498B427B
S3150800076018D3FFF755FE186850F82240586840F825
S315080007702240013298688242F5D30C33EAE7002218
S31508000780F8E71C6844F8220001325C68A242F8D3F4
S315080007900833E4E70022F8E700000020000001081B
S315080007A00C0001080C0001080C0001084FF48041F8
S315080007B0124B134A70B59A60D3F88820114D42F44B
S315080007C07002C3F88820104A05F5005491664FF068
S315080007D0FF3222660D4A62660222C3F8D020BFF3B2
S315080007E04F8FBFF36F8F4FF44036002004F048FE5A
S315080007F00020E66004F0DCFD2E6170BD00ED00E02F
S315080008000000000800800044009000507FFF7F032E
S31508000810014B1860704700BF84210020054B186003
S31508000820054B1B6F03F00703032B01D10CF03EB8F1
S31508000830704700BF8C21002000800050002307B5B8
S31508000840294801930DF0A2F84FF4407301220421C0
S315080008506846ADF8003000F0C3F80122234B0520A6
S31508000860C3F8442401A90DF08CF8002839D1204B8F
S31508000870D3F8F02042F00102C3F8F020D3F8FC20A8
S3150800088042F08072C3F8FC201A4AA3F55D431A6049
S31508000890019B194A03F5D52303F2FC43B3FBF2F394
S315080008A0164A013B13610223C2F8F0304FF48073F5
S315080008B0C2F804334FF06043114AC3F8B02F114A07
S315080008C0C3F8802ED3F8002E42F48072C3F8002EA7
S315080008D0FF2283F82020D3F8002E22F48072C3F872
S315080008E0002E03B05DF804FB64E9000800D003504D
S315080008F000ED00E0FF030040F8590D00000004E099
S3150800090055CEACC5090001004FF06043D3F8802EE0
S3150800091030B5D20715D501240B4D8440D5F8FC20F7
S3150800092042F08072C5F8FC20D3F8002E2243C3F8A3
S31508000930002E53F82020002AF0D003F820100020BB
S3150800094030BD1120FCE700BF00ED00E02DE9F041C5
S3150800095004460C254FF00108124E0CB314F00100A2
S315080009600BD0002024F0010405FB00625768002F15
S31508000970F3D09168C0B2B847EFE722460130202885
S315080009804FEA520201D0D307F8D508FA00F20F2829
S3150800099024EA0204E8D9103805FB0062B432E5E718
S315080009A0BDE8F0818410002008B50C480CF0EEFF75
S315080009B01A2004F017FD28B11A2004F061FD1A2048
S315080009C004F0F6FC1B2004F00DFD28B11B2004F0F2
S315080009D057FD1B2004F0ECFC002008BD64E9000864
S315080009E02DE9F0410E461746044638B993211A48B0
S315080009F008F0B8FD22252846BDE8F0810F290CD855
S31508000A00037883B1013BDBB2022B06D8134A32F8CE
S31508000A1013306278D340DB0708D497210E4808F0D4
S31508000A20A1FD2125E7E747F6FF73F2E70C4BD3F85C
S31508000A3010532DB19B21084808F094FD0225DAE7EA
S31508000A400CF08EFF80463A462046314603F024FFD6
S31508000A5040460CF080FFCEE738DC0008B0DC000822
S31508000A6000C0035038B5044628B91348E42108F0F5
S31508000A7079FD222038BD037883B1013BDBB2022B16
S31508000A8006D80E4A32F813306278D340DB0708D40A
S31508000A900948E82108F066FD2120EBE747F6FF73D1
S31508000AA0F2E70CF05DFF054620460CF005F82846EF
S31508000AB00CF051FF0020DDE738DC0008B0DC000848
S31508000AC038B5044628B91448FC2108F04BFD222005
S31508000AD038BD03788BB1013BDBB2022B06D80F4A2F
S31508000AE032F813306278D340DB0709D40A484FF44A
S31508000AF0807108F037FD2120EAE747F6FF73F1E732
S31508000B000CF02EFF0546204603F062FE28460CF040
S31508000B1022FF0020DCE700BF38DC0008B0DC000854
S31508000B2070B50D46044600B131B9154840F22D118D
S31508000B3008F018FD222070BD03788BB1013BDBB2AB
S31508000B40022B06D80F4A32F813306278D340DB07F7
S31508000B5009D40B4840F2311108F004FD2120EAE7D8
S31508000B6047F6FF73F1E70CF0FBFE0646204603F056
S31508000B705BFE287030460CF0EEFE0020DBE700BF77
S31508000B8038DC0008B0DC00082DE9F0410D461646B1
S31508000B909846044600B139B92F484FF4E07108F079
S31508000BA0E1FC2220BDE8F0810378D3B15A1ED2B207
S31508000BB0022A08D9FF2B0DD04FF4E271264808F017
S31508000BC0D1FC2120EEE7254B33F812304278D3408A
S31508000BD0DA07F1D5022E08D9042E06D04FF4E471AF
S31508000BE0ECE747F6FF734278F1E70CF0B9FE237895
S31508000BF00746FF2B05D032462046296803F0B6FE85
S31508000C0028602B68013309D12378FF2B06D1144BB2
S31508000C106078D3F8241409F087F9286029684B1CF2
S31508000C2014D00C230F4A03FB0122069BC2F804804A
S31508000C3093602378FF2B04D001230B4A8B40C2F81C
S31508000C40243438460CF087FE0020ABE738460CF013
S31508000C5082FE2D20A6E700BF38DC0008B0DC0008BD
S31508000C6000C003508410002000D0035008B503F0DC
S31508000C7009FE054B00F0553020F0A040C3F82004CB
S31508000C80BDE80840FFF762BE00E0035008B503F070
S31508000C90F9FD054B00F0AA3020F02040C3F82004E7
S31508000CA0BDE80840FFF752BE00E0035013B50446FE
S31508000CB00A480CF06BFEA2780421B2FA82F2237875
S31508000CC052098DF8043063780DEB01008DF8053074
S31508000CD0FFF786FE002002B010BD00BF64E90008D9
S31508000CE02DE9F04F9A46564B85B01B7806460F46B7
S31508000CF01546DDF83C909DF844B0DDF85080002B91
S31508000D0000F09780072A00F296800E9B002B00F0D1
S31508000D109280B9F1000F00F08E80129BB3F5006F38
S31508000D2000F38980012803D1109B002B00F08380F3
S31508000D30444B03EB05131B7B002B7ED0424C102241
S31508000D40002168460BF0C5FC04EB45141022A7BB2E
S31508000D50394620460BF0BDFC43F210036380BBF115
S31508000D60000F03D1E37843F00303E370364A0E9B82
S31508000D7002EB451CCCE90193129B6901581E9DF8AC
S31508000D804C30C0F30A0003F003039B0643EA001E37
S31508000D9053582E48012E00EA03004EEA0003CDF808
S31508000DA000A0535017D0B8F1000F2ED19CF802308E
S31508000DB068F304138CF8023027E0002120460BF074
S31508000DC088FC4FF444736380BBF1000FCED1E378FF
S31508000DD043F03003C9E713230CF1100ECCF80C309E
S31508000DE09CE80F008EE80F006FF00301DCF81C206A
S31508000DF0109B61F39F02012FCCF81C20CCF814300D
S31508000E0003D1CCF81890CCF8043000270D4A2901F4
S31508000E1002EB051342F80180159A28465A6069467E
S31508000E2022469F605E7303F00FFB384605B0BDE8A7
S31508000E30F08F0748FAE70748F8E70748F6E700BFDC
S31508000E40481F0020EC120020EC1100200F80FFF351
S31508000E50028000F0018000F0078000F038B5124BE0
S31508000E6005461B78DBB1E0B10CF07AFD0F4A00238A
S31508000E701146147B54B92B6001251A0101EB0313A3
S31508000E801D738C500CF067FD204638BD0133082BC6
S31508000E9002F11002EDD10CF05EFD0548F5E70548B4
S31508000EA0F3E70548F1E700BF481F0020EC120020D1
S31508000EB0048000F0028000F0018000F038B50CF0E4
S31508000EC04FFD002305460B4A147B6CB90133082BEA
S31508000ED002F11002F8D103F039FA074B28461C70C4
S31508000EE00CF039FD204603E028460CF034FD034893
S31508000EF038BD00BFEC120020481F0020058000F016
S31508000F000D4B10B51B78044693B1072812D80CF080
S31508000F1027FD0A4B03EB04131A7B2AB100241C7322
S31508000F200CF019FD204610BD0CF015FD0448FAE733
S31508000F300448F8E70448F6E7481F0020EC120020AA
S31508000F40068000F0028000F0018000F0154B13B512
S31508000F501868002301908DF804300CF001FD124B3F
S31508000F601C7824B10CF0F7FC104802B010BD012221
S31508000F701A700CF0F0FC0E4B01A81C731C7783F852
S31508000F802C4083F83C4083F84C4083F85C4083F857
S31508000F906C4083F87C4008238DF8073003F00CFA80
S31508000FA02046E2E7B6DC0008481F0020038000F070
S31508000FB0EC120020F8B50D4D2D7885B1072810DC08
S31508000FC00B4D060105EB0014277B67B1AB510025D5
S31508000FD0069BA560636003F037FA2846F8BD054806
S31508000FE0FCE70548FAE70548F8E700BF481F002070
S31508000FF0EC120020028000F0018000F0078000F06B
S315080010000A4A08B512785AB107280BD8084A02EBDB
S3150800101000131B7B43B1002103F0AEF9002008BD85
S315080010200448FCE70448FAE70448F8E7481F0020A4
S31508001030EC120020028000F0018000F0078000F02A
S315080010400A4A08B512785AB107280BD8084A02EB9B
S3150800105000131B7B43B1012103F08EF9002008BD64
S315080010600448FCE70448FAE70448F8E7481F002064
S31508001070EC120020028000F0018000F0078000F0EA
S31508001080184B2DE9F0411F6D5B6D1F4000D5FEE73B
S3150800109001260025144CDFF85880374218D02368FB
S315080010A0C8F85060A3B1A168284601316268A160FA
S315080010B09847637B012B0BD150B90C4B03EB4513B7
S315080010C01A7B60F341021A731A7F60F341021A779A
S315080010D00135082D4FEA460604F11004DDD1BDE8B6
S315080010E0F08100BF00000450EC120020EC11002033
S315080010F0002004502DE9F04F144606460D469B463F
S31508001100C36B87B001225B6902A960689847F36BD5
S3150800111001225B6903A92846984702A808F0F8FC4B
S31508001120074648B10023A37563754FF0FF33A360E4
S31508001130002007B0BDE8F08F03A808F0F6FC0123ED
S31508001140A375237E04EBC303DD611F846368AB428A
S315080011500ED1206003A808F00AFD4FF0FF33207572
S31508001160A360237D043B022B26D80023A375DFE763
S3150800117023681A1A53425341A37503A808F0F7FCCB
S31508001180237D834218BFA77503A808F0D2FC07463B
S3150800119002A808F0CEFC874218BF002303A818BF90
S315080011A0A37508F0CEFC074602A808F0CAFC8742D9
S315080011B01CBF0023A375D4E703A808F0BAFC80B1C6
S315080011C0F36B022228465B6904A9984704A808F02D
S315080011D0BFFC0346207D032839D8DFE800F03838FD
S315080011E0040903A8F3E7CC22237E04EBC3031A847D
S315080011F000F01CFC109B187003A8277E08F08DFCD5
S3150800120004EBC70787F82200237E03A804EBC30371
S31508001210B3F8209093F8227008F08BFC804603A858
S3150800122008F08FFC8246B8F1000F15D0F36B022246
S3150800123028465B6904A9984704A808F04EFC60751F
S31508001240637D6BB90023A3754FF0000838E0227E52
S3150800125004EBC2021384CBE703A808F029FCEEE7E7
S3150800126094F81680B8F1000FEED0B9F1000F09D145
S31508001270DFB10123627EE375002A44D19F4218D16B
S31508001280677614E0736C05EB0A02594285EA020098
S3150800129008421CBF0021A175591E0A409B1A994590
S315080012A0D0D8A37D002BE3D1CEE7E37D43B94FF039
S315080012B000084B4652462946304608F02CFBA060EB
S315080012C0A27D12B123694B4423611449237E097810
S315080012D099421ED901332376BBF1000F1BD0D2B138
S315080012E0E37DC3B1B8F1000F15D1032F13D0A16860
S315080012F04B1C10D0109B2246009330460123FFF763
S31508001300F9FEA07507E0012FDAD0032F08BFA376F0
S31508001310CDE70023A375A07D0BE700BFDCDC000842
S315080013202DE9F04F0E46984600238BB004464FF041
S31508001330FF31104617468DF8133000F061FBB6F5FD
S31508001340801F3BD3B21C53D1E56A6B1C57D120468C
S31508001350616A08F026FA0546B31C18BF0123DFF8B0
S3150800136010910193636A626C0293236805A902FBD4
S31508001370053AE36B05225B695046984705A808F0CD
S3150800138036FC08F059FC504608F061FC4FF0000B9B
S31508001390824601464B1C05D0636C81EA0A025B4211
S315080013A0134232D02946204608F0FBF9029BAB428D
S315080013B04DD0BBF1000F4DD10546D3E7314605AAFE
S315080013C004F1080008F0F6FA0146481C10D0384621
S315080013D000F016FB0122394620460DF1130308F0EA
S315080013E0B9FA28B19DF8133088F80030002003E0D8
S315080013F0237C002BA8D12D200BB0BDE8F08F2368E5
S31508001400ED1A636CB5FBF3F5A6E7484600F0F8FA63
S315080014100DF1130349462046019A08F09BFA034644
S3150800142090B1B21C03D0D9F80020B2420CD19DF875
S31508001430132003930D4B88F8002049461A6838464E
S315080014400BF0AFF8039B9B46D9F80810A2E7BBF14F
S31508001450000FD0D0B6F5801FC8D2314698F80030B4
S315080014607A6804F1080000F065FABFE7D8DC0008DE
S31508001470E01900202DE9F3410446174698460E4622
S31508001480194D816AE36A8B422AD04B1C18E028461C
S3150800149000F0B6FA0122294620460DF1070308F0A6
S315080014A059FA30B14346294620469DF80720B847E1
S315080014B0B0B1A9684A1C05D0012E0AD0E36A994240
S315080014C0E5D10DE06968204608F0F8F9012E0146D5
S315080014D0D8D16B6881EA0302636C5B421A42D1D0A9
S315080014E002B0BDE8F08100BFB41900202DE9F04F25
S315080014F04FF0FF334FF6FF720025044600F1080649
S31508001500C0E909238BB0C3620562056330460F46FE
S3150800151008F03AFA204608F014F920BB2046394666
S3150800152008F08FF9204608F00CF920BB5E200BB0B6
S31508001530BDE8F08FE26B2368606CD2F814C000FB3C
S315080015400530052205A9E04705A808F050FB012843
S3150800155028D12946204608F045F9421C2946204646
S3150800156008F00EF90135E3699D42E3D3204608F0F9
S31508001570E8F80028D2D000254FF0FF394FF6FF7360
S31508001580CA46A846C4E90853E369984514D3A5EBA7
S315080015900905012D36D84FF6FF72636A934246D184
S315080015A06720C4E708F04DFB0028DBD02946204613
S315080015B008F018F90246D1E72368E26B606C5769B0
S315080015C000FB0830052205A9B84705A808F00FFB57
S315080015D0834605A808F0E2FA0746584608F02CFBA9
S315080015E068B1574538BFC4F82480B94528BFB946FD
S315080015F0BD4238BF3D46BA46236A0133236208F125
S315080016000108C1E74FF6FF7300256362E3699D424F
S31508001610C1D2676C2068E36B052207FB05005B698E
S3150800162005A9984705A808F0B9FA0135EEE7E26B6F
S31508001630676C2068694607FB030055690522A847B9
S31508001640684608F0ABFA626A2368606C504D00FB86
S31508001650023008F0FCFA4FF0FF33A062E3622A4634
S315080016606FF00101204605ABFFF75AFE00284FD15F
S31508001670AD6829462046E56208F03FF8206320B9A0
S315080016802046E16A08F01AF9E0622946204608F081
S3150800169015F90546A36A9D423CD16569626CE91C49
S315080016A0143AB1FBF2F14FF0000805EBC10503351A
S315080016B0B5FBF2F5C1460235E36999453CD3A84521
S315080016C05AD22046616A08F06CF80027064604F1EB
S315080016D0400AB84512D8626C2368694602FB063987
S315080016E0E36B05225B6948469847684608F056FA50
S315080016F0534602464946E06B08F0ABFA31462046A7
S3150800170008F04FF80137AF420646E2D364200EE7E9
S31508001710A56AAEE72946204607F0EFFF236B294660
S31508001720034407462363204608F0C8F80546002FF9
S31508001730B0D1C4E90B07ADE7636C2768052203FB44
S315080017400977E36B05A95B693846984705A808F049
S315080017504EFA08F071FA60B1384608F078FA014690
S31508001760204607F0CAFF636C143B984208BF08F18D
S31508001770010809F101099FE7304608F005F9002339
S3150800178020461946034AFFF775FE0020CFE600BF3C
S315080017900C1A0020439900082DE9F0410025634BF7
S315080017A00E46D3F8008004461D6018B92125284640
S315080017B0BDE8F08190F8347007B30A6803689A4266
S315080017C040F0AA804A6843689A4240F0A5808A6831
S315080017D083689A4240F0A080CA68C3689A4240F07B
S315080017E09B800A6943699A4240F096808A69C36B6E
S315080017F09A4240F091804B698361D8E7682239465E
S31508001800856B0AF066FFD6E90212336804F1080010
S3150800181023607368A5636360336963617369A36151
S3150800182008F0C4F8B36904F14000E3639B6898477D
S3150800183020B9676C17B16368B3FBF7F794F84330C0
S31508001840E761002BB2D00023656C2366002D6BD0B0
S31508001850002F69D02368B3FBF5F205FB1233002B82
S315080018605CD16768B7FBF5F605FB1676002E55D1F1
S31508001870204607F032FFA369043303449F424FD33F
S3150800188040F634726369CC3B93424BD8B5F5805F1A
S315080018904AD30321204607F049FFD4E90001E36B48
S315080018A01B6898470546E36B0220DB6898472DB10D
S315080018B084F83460E06B08F05FF878E74146204624
S315080018C0FFF714FE6428054604D141462046FFF773
S315080018D00DFE0546636C143BD5B9226A204602FB09
S315080018E003F607F0FAFEA369043303449E4203D2C3
S315080018F084F834505A25DDE70123D4E900010C4A5F
S3150800190084F8343013680133136008F0D0F8D1E74F
S31508001910002384F83430CDE75D2548E7592546E7A6
S315080019205A2544E75F2542E75B2540E77013002008
S315080019306C1300202DE9F043466886B3056898467F
S315080019404FF0000CA946AE4655F83C400CF1010C88
S31508001950C4F31307013401D0B94217D066450EF116
S31508001960080EF1D12F46002403E0A64207F1080726
S3150800197012D055F8343001340133F6D1C1F31301CE
S3150800198041EA0851C7E90012BDE8F08341EA085167
S31508001990CEE90012BDE8F083B8F1030F03D10123A5
S315080019A00372BDE8F083002303E09E4209F10809AB
S315080019B0F5D055F833400133C4F30754032CF4D15A
S315080019C0C1F3130343EA0853C9E90032BDE8F083BB
S315080019D0024B1968024B1868FFF7DEBE90210020FB
S315080019E0B021002008B50BF0B2FF014B186008BD06
S315080019F0381A0020014B18680BF0A4BF381A0020CB
S31508001A0038B5094B0D461A68002104460AF061FEEE
S31508001A1000234FF0FF322383C4E900252361A26027
S31508001A20E382A37638BD00BFD8DC00080138C0B20F
S31508001A3005289ABF014B185C01207047DDDC0008B9
S31508001A402DE9F0410746154600240E46596888B028
S31508001A50490A012922464FEA510104F10104F8D83E
S31508001A60DC78997824031B88C90201F4006104F420
S31508001A7080540C43C3F30A035203234492B24FF033
S31508001A8000089C18274B6FEA0444039325F0784313
S31508001A90ED4302A90DF107001B2202938DF807807A
S31508001AA008F0F1F89DF80720029B02A943EAC263F1
S31508001AB00DF107001B2225F07845049302958DF851
S31508001AC0078008F0E0F89DF80720029B6FEA1444A7
S31508001AD043EAC26305934FF0FF330794069307A9B9
S31508001AE0BB69012206F110009847BB6905A904469F
S31508001AF0012206F108009847BB69404518BF04460D
S31508001B0004A90122301D98470122404518BF044602
S31508001B10BB69304603A99847404508BF204608B028
S31508001B20BDE8F08101009AB238B50546B0B1B9B141
S31508001B30B2B1B2F5006F13DC0BF012FF95F84C301A
S31508001B4003F0FF041BB10BF006FF064838BD01235E
S31508001B5085F84C300BF0FFFE2046F7E70248F5E71C
S31508001B600248F3E7032000F0012000F0022000F00D
S31508001B70836D70B5002B054603DCCA210E4807F0B5
S31508001B80F1FC0BF0EDFEAC6D0646013CAC6574B994
S31508001B900BF0DDFE0546214601200BF02DF901204C
S31508001BA02146064A0BF0DCFA28460BF0CBFE3046F7
S31508001BB0BDE870400BF0CFBEE3DC00085BDD000833
S31508001BC070B504460BF0CCFEA36D054673B90BF051
S31508001BD0BEFE0121064608460BF00EF90121074A0A
S31508001BE008460BF0BDFA30460BF0ACFEA36D28464E
S31508001BF00133A365BDE870400BF0ADBE5BDD0008A0
S31508001C002DE9F04390460022436390F85C30044681
S31508001C10894687B080F85420C0F83C80002B37D11D
S31508001C204FF4406305686B614369092B03D905F1D5
S31508001C302C07443506E00BBF05F1200705F12407FC
S31508001C4038353C3566692046082E94BF002601269D
S31508001C50FFF7B6FF134B0494CDE902630123CDF8D1
S31508001C60048000934A463B46216BA06A07F006FDAE
S31508001C700023CDE90186CDE9033300932A46E16ABC
S31508001C80606A04F1180307F0DFFC07B0BDE8F083CB
S31508001C90012BFAD1006808F014F8256805F13C070D
S31508001CA0C7E700BFE79D00082DE9F0471646002262
S31508001CB0436390F85C300446894686B080F8542021
S31508001CC0C663002B38D14FF4406305686B614369DE
S31508001CD0092B03D905F12C08443506E00BBF05F19D
S31508001CE0200805F1240838353C3567694FF0000AA5
S31508001CF0082F94BF002701272046FFF761FF134BE3
S31508001D000494CDE902730196CDF800A04346216BF1
S31508001D1004F13802A06A07F0B1FC0123CDE903AA51
S31508001D20CDE9016700932A464B46E16A606A07F0E7
S31508001D308BFC06B0BDE8F087012BFAD1006807F0E6
S31508001D40C0FF256805F13C08C6E700BFE79D000807
S31508001D5001292DE9F04104D90239012926D9BDE81E
S31508001D60F081234B234E1C68234FDFF8A080803C6C
S31508001D7014F1800FF3D025680521284601F094FE5A
S31508001D801E4B9D420ED01E4B9D420DD01D4A1E482D
S31508001D90954218BF4046182108F044F8D4F8804008
S31508001DA0803CE5E73046F6E73846F4E7104B114D38
S31508001DB01C68114E154F803C14F1800FCFD0236854
S31508001DC00E4A93420FD00E4A93420ED00E4802F5A1
S31508001DD08042934218BF3846002108F023F8D4F809
S31508001DE08040803CE8E72846F6E73046F4E700BF3F
S31508001DF03C1A0020C4C40350E4C403500000015B2D
S31508001E0000000A5000400A5004C50350A4C40350F9
S31508001E102DE9F0410B688B4A8EB0934205460C4675
S31508001E200DF1180807D0884A934204D002F580427B
S31508001E30934240F0F1804746844ECDF814800FCE89
S31508001E400FC796E80F00103687E80F000FCE01AFD0
S31508001E500FC7002D00F0DE808422002128460AF0F4
S31508001E6038FC2368774A934219D0774A934200F0A0
S31508001E70A58002F58042934200F0A780744E754B08
S31508001E801B681BB97449754804F06EFE714805F164
S31508001E908001FEF7FFFB30460EB0BDE8F0814FF437
S31508001EA080124FF000086E486E492B6001232746C2
S31508001EB085F85C302E1DC5E90B1228650FCF0FC6B5
S31508001EC097E80F0086E80F00637E012B08BF8DF8A0
S31508001ED01D30A37E23B1012B7ED104238DF8123049
S31508001EE0227EE368012A4FF000027DD15E498DF813
S31508001EF011208B429CBF05238DF835305B4B5C481F
S31508001F0003930BF043FD2B6D98680BF03FFD236997
S31508001F10DA1F092AB2D8063B8DF81030237E2BB972
S31508001F20E37EB3FA83F35B098DF81C30012128465A
S31508001F3007F0D2FE06460028A1D1237A20794D4A19
S31508001F4040EA034002EB4811C1F8DC04667A60797E
S31508001F504FEA481340EA0640C1F8D404A67AA079A5
S31508001F6040EA0640C1F8D804E17E00293FD1E17A6B
S31508001F70E27903F1A04342EA014203F57033C3F85C
S31508001F80C8241D22C3F8C424206801A901F0B0FEA4
S31508001F900BF0E6FC384B1A7882BB01221A700BF05C
S31508001FA0DAFC04F043FFFEF7D1FF002105F1240017
S31508001FB0FEF754FF014620B3304E60E74FF488120F
S31508001FC04FF001082E482F496FE74FF490124FF053
S31508001FD002082D482D4968E7022B3FF47FAF032BF3
S31508001FE07FF44CAF062379E78DF8342087E71C2366
S31508001FF008F1260802EB48125360C5E70BF0ABFC64
S31508002000D1E705F12800FEF729FF064600283FF428
S3150800201036AFD1E71E4E32E746461E4F0FCF0FC6E4
S3150800202097E8070086E80700002D00F0D280842292
S31508002030002128460AF04DFB2368174A93422DD003
S31508002040034E28E70000015B00000A5064DD000823
S31508002050022000F03C1A0020B4210020401A00207B
S31508002060B4E90008010010003F4B4C0040420F0045
S3150800207064E9000800C00350491F0020092000F049
S31508002080A8E90008010011009CE9000801001200F7
S31508002090012000F098DD000800C005504E4A2E4683
S315080020A02A654FF4802227464C49C5E90B1246F8A3
S315080020B0043B0FCF0FC697E80F0086E80F00637E34
S315080020C0012B08BF8DF82630A37E2BB1012B67D1D3
S315080020D04FF40073ADF82830237E4148012B03BF27
S315080020E000238DF825304FF4E133E36808930BF0AD
S315080020F04DFC2B6D98680BF049FC23691A1F0C2AB6
S315080021009ED8033B414620688DF8243002F00AFB2E
S31508002110A36923F47F0323F47F432BB94FF480325A
S315080021202B6803F580539A60237A2079617940EA0F
S315080021300340637AA27941EA0341A37AE67E42EA3A
S315080021400342284BC3F8B007C3F8A817C3F8AC274F
S315080021508EBBE17AE27942EA0142C3F89C271D2246
S3150800216001212846C3F8982707F0B6FD0646002839
S315080021707FF491AE0BF0F4FB1B4B1A78EAB90122F7
S315080021801A700BF0E8FB04F051FEFEF7DFFE0021A3
S3150800219005F12400FEF762FE014688B1134E7AE681
S315080021A0022B02D14FF4807394E7032B7FF448AFD8
S315080021B04FF440738EE71C22D2E70BF0CCFBE4E722
S315080021C005F12800FEF74AFE064600283FF463AEEE
S315080021D0E4E7074E5FE600BF78E90008020004005E
S315080021E064E9000800C00350491F0020092000F0D8
S315080021F0012000F070B5037F0446012B0D461646F4
S315080022000DD0FFF791FC48B9324629462046054BC2
S31508002210FFF7F6FC204607F0D4FDA06C70BD024817
S31508002220FCE700BF79D90008082000F070B5037FE5
S315080022300446012B0D4616460DD0FFF775FC48B926
S31508002240324629462046054BFFF72EFD204607F065
S31508002250B8FDA06C70BD0248FCE700BF79D900083C
S31508002260082000F0034B5A6812B19A6A002AFAD17C
S31508002270704700BF0040065038B5456804466B1ED7
S31508002280B3F5004F23D2B5FA85F51549C5F11F05F3
S315080022904B680BB1FFF7E6FF0122124B5A604B68F9
S315080022A09B07FCD40120227A637843EA420343EA77
S315080022B00513627A8B60A37A43EA42034B620A4BA0
S315080022C05860237813B1FFF7CDFFC86038BD4121A8
S315080022D0064807F047F9002DD5D12025D5E700BFD8
S315080022E0004006500060065000500650B4DD000855
S315080022F010B50C4620B140F21D11064807F032F918
S31508002300054B9A6AD106FCD41C639A6AD206FCD499
S3150800231010BD00BFB4DD00080040065008B520B166
S3150800232040F23B11024807F01DF9024B186B08BD35
S31508002330B4DD00080040065008B5FFF793FF0223F6
S315080023400449CB6000230B62FFF78CFF0123CB60A7
S3150800235008BD00BF00400650044BD3F88420D206BF
S31508002360FBD4D3F88400C0F38110704700400050B6
S3150800237038B5104B0546D3F800310C4603F0030375
S31508002380022B0BD0032B0DD0012B0FD10AF0A8FA84
S31508002390032305B1286004B1236038BD0AF0F2FAB8
S315080023A00923F6E70AF0A2FA0823F2E70123002038
S315080023B0EFE700BF0080005038B5104B0546D3F84C
S315080023C040310C4603F00303022B0BD0032B0DD030
S315080023D0012B0FD10BF0CAFA0A2305B1286004B104
S315080023E0236038BD0AF0CEFA0923F6E70BF0C1FAE6
S315080023F00B23F2E701230020EFE700BF008000501F
S3150800240038B5104B0546D3F860310C4603F0030384
S31508002410022B0BD0032B0DD0012B0FD10BF0A6FAF4
S315080024200A2305B1286004B1236038BD0AF0AAFA68
S315080024300923F6E70BF09DFA0B23F2E701230020A8
S31508002440EFE700BF0080005038B5104B0546D3F8BB
S3150800245040320C4603F00303022B0BD0032B0DD09E
S31508002460012B0FD10BF082FA0A2305B1286004B1BB
S31508002470236038BD0AF086FA0923F6E70BF079FAE5
S315080024800B23F2E701230020EFE700BF008000508E
S3150800249038B5124B0546D3F880300C4603F00303D3
S315080024A0022B0BD0032B0DD0012B0FD10AF0DEF92E
S315080024B00D2305B1286004B1236038BD0AF01AFA65
S315080024C00723F6E70AF0CCF90623F2E7044841F2B7
S315080024D0142107F047F800231846EAE70080005061
S315080024E027DE000838B51A4B0546D3F820010C46F6
S315080024F000F00700062821D8DFE800F028040C14AD
S3150800250010181C000AF0ACF9052305B1286004B1BF
S31508002510236038BD0AF0E4F90323F6E70AF0EAF97E
S315080025200723F2E70AF0D8F90223EEE70AF098F94A
S315080025300623EAE70AF0D4F90423E6E7054841F258
S31508002540912107F00FF800231846DEE70123DCE7A0
S315080025500080005027DE000838B5194B0546D3F829
S3150800256028310C4603F00703013B052B20D8DFE88A
S3150800257003F003131B0F0B170AF072F9052305B1B5
S31508002580286004B1236038BD0AF06AF90623F6E725
S315080025900AF0B0F90723F2E70AF0A2F90323EEE7F7
S315080025A00AF09EF90423EAE70AF096F90223E6E719
S315080025B0044841F2990106F0D5FF00231846DEE7E4
S315080025C00080005027DE0008002337B50193194B19
S315080025D00546D3F820320C4603F00703042B1FD810
S315080025E0DFE803F025030F141900002101A8FFF7FF
S315080025F0B3FF11230DB1019A2A6004B1236003B019
S3150800260030BD0AF077F907230190F3E70BF0AEF92E
S315080026100A230190EEE70AF0B5F909230190E9E7E4
S3150800262041F25601044806F09DFF0023E2E7012324
S31508002630E0E700BF0080005027DE0008F7B5002756
S31508002640144B0197D3F88041064604F00304022C84
S315080026500D4614D0032C0DD0012C14D1394601A8EF
S31508002660FFF740FF0F240EB1019B336005B12C60C4
S3150800267003B0F0BD0AF03EF907240190F3E70AF02B
S315080026802BF90190EFE741F2E631034806F06AFFBD
S315080026903C46E8E70080005027DE000838B5164BB0
S315080026A00546D3F800020C4600F00700042819D89E
S315080026B0DFE800F020030B0F13000BF057F90A238D
S315080026C005B1286004B1236038BD0AF05BF9092317
S315080026D0F6E70BF04EF90B23F2E70AF0E7F80E23BC
S315080026E0800AEDE7054841F2A44106F03BFF0023C6
S315080026F01846E5E70123E3E70080005027DE0008D7
S3150800270038B5164B0546D3F808020C4600F0070004
S31508002710042819D8DFE800F020030B0F13000BF08C
S3150800272025F90A2305B1286004B1236038BD0AF0EB
S3150800273029F90923F6E70BF01CF90B23F2E70AF04F
S31508002740B5F80E23800AEDE7054841F2DC4106F0AC
S3150800275009FF00231846E5E70123E3E70080005058
S3150800276027DE000838B5124B0546D3F850320C461A
S3150800277003F00303022B0FD0032B05D0012B0FD137
S315080027800BF0F4F80A2302E00BF0F3F80B2305B17B
S31508002790286004B1236038BD0AF0F4F80923F6E787
S315080027A0044841F2C90106F0DDFE00231846EEE7AB
S315080027B00080005027DE0008002337B50193184B28
S315080027C00546D3F860320C4603F00703013B032B9A
S315080027D01FD8DFE803F0020E1914002101A8FFF73D
S315080027E081FE0F230DB1019A2A6004B1236003B05C
S315080027F030BD002101A8FFF7DFFD1023F2E70AF03C
S3150800280079F807230190EDE70AF066F802230190AC
S31508002810E8E741F2FD01034806F0A4FE0023E1E7DC
S315080028200080005027DE000873B500240F4B019482
S31508002830D3F87032064603F00303012B0D4607D082
S31508002840022B11D041F25B11094806F08BFE04E019
S31508002850214601A8FFF7B0FD10240EB1019B336095
S3150800286005B12C6002B070BD1424F6E70080005054
S3150800287027DE000838B50F4B0546D3F890320C46CC
S3150800288003F00303012B09D0022B0BD10AF032F80F
S31508002890072305B1286004B1236038BD0AF01CF887
S315080028A00223F6E7044841F2851106F05BFE002391
S315080028B01846EEE70080005027DE000808B5334BBF
S315080028C098424FD027D8324B984245D017D8314B2B
S315080028D098423ED00AD838B12F4B984239D041F2A7
S315080028E0BB312E4806F03EFE002034E02C4B9842C1
S315080028F02FD02C4B9842F2D12B4B586E2BE02B4BFA
S3150800290098422CD003F5371303F5D8639842E6D1DD
S31508002910254B986F1FE0264B98422FD00CD8254B95
S31508002920984223D0244B984224D0244B9842D6D19F
S315080029301D4BD3F884000EE0214B984222D003F5B4
S31508002940740303F510539842C9D1174BD3F898006E
S3150800295001E0154B986D08BD134B186FFBE7124B3A
S31508002960586FF8E7104BD3F88000F4E70E4BD3F80E
S315080029708800F0E70C4BD3F88C00ECE70A4BD3F849
S315080029809000E8E7084BD3F89400E4E780BA8C0196
S31508002990405DC60080841E0040420F0027DE000806
S315080029A000093D00C0CF6A000080E00F0024F40053
S315080029B0007E560380D54302006CDC020048E8011D
S315080029C00090D003B0F5207F10B52ED009D8B0F509
S315080029D0007F24D003D868B1B0F5C07F0AD00024A0
S315080029E01BE0B0F5607FFAD1124BD3F88040C4F3F0
S315080029F0011412E00F4B1C6F230B13F00E0FC4F3D8
S31508002A0003340AD0072C08D00F2C06D0032C04D088
S31508002A104FF42271084806F0A5FD601C10BD054B51
S31508002A20D3F89040C4F30464F7E7024B1C6FC4F371
S31508002A308024F2E70080005027DE00084FF4803239
S31508002A4038B5104B04469A6600200D46FFF7BAFFC4
S31508002A5041F671320C4B6043DC69DA635A6804F458
S31508002A60803422F440125DB90849884294BF002098
S31508002A700120000502435A600CB10022DA6338BD12
S31508002A800349F2E70090005000000350005A620222
S31508002A90002D310138B5430904460D460ED140F2E2
S31508002AA035310D4806F05EFD002304F01F0485B19C
S31508002AB003F580530122A2401A6038BD012B04D0C9
S31508002AC0022B04D040F24331EBE7044BEDE7044B0D
S31508002AD0EBE703F50053EDE727DE000864800050B6
S31508002AE0688000501FB50021B0F5807FCDE9001140
S31508002AF000F005816AD8002800F0D88020386028C0
S31508002B0078D8602876D8DFE810F0D100DF00D10049
S31508002B10DF00F000F000F000F000F000DF009300A6
S31508002B20E5000B011001E500DF00DF00DF0075009E
S31508002B307500750075007500750075000B01DF00DE
S31508002B40DF00DF0028019E00DF00750075007500B4
S31508002B5075007500750075007500750075007500BF
S31508002B6075001A01F000D100D100D1001501E50069
S31508002B70E5001F01BB00F500C600C600750075001C
S31508002B8075007500D1007500750075007500750033
S31508002B90750075007500750075007500750075007F
S31508002BA0750075007500750075007500750075006F
S31508002BB0750075007500750075007500750075005F
S31508002BC075007500750075007500CB00B0F5F06FDF
S31508002BD000F0C3803CD8B0F5806F00F086801DD821
S31508002BE0B0F5207F70D00BD8B0F5C07F5ED0B0F5B9
S31508002BF0007F5ED040F2A4415A4806F0B3FC52E08A
S31508002C00B0F5407F66D0B0F5607FF3D101A800210A
S31508002C10FFF73EFC4FF46070019C4FE0B0F5C06FC3
S31508002C207ED00AD8B0F5A06F64D0B0F5B06FE1D108
S31508002C3000216846FFF702FD35E0B0F5D06F74D085
S31508002C40B0F5E06FD6D100216846FFF7FDFB2AE014
S31508002C50B0F5206F78D00CD8B0F5106F6AD0B0F503
S31508002C60186F6CD0B0F5086FC4D16846FFF780FBC3
S31508002C7019E0B0F5306F6CD007D8B0F5286FB9D128
S31508002C8000216846FFF7D0FD0DE0B0F5386F47D054
S31508002C90B0F5406FAED100216846FFF75DFC02E053
S31508002CA009F0E4FD0090009804B010BD09F0FEFD9F
S31508002CB0F8E709F0DBFD04464FF40070FFF782FEE3
S31508002CC0B4FBF0F40094EEE709F0F0FD04464FF487
S31508002CD02070F3E709F0EAFD04464FF42070FFF789
S31508002CE071FEB4FBF0F46408ECE700216846FFF7D0
S31508002CF0F9FBD8E700216846FFF766FCD3E74FF0F3
S31508002D00E02302911B695B0705D509F0CFFD029008
S31508002D10029B0093C7E703A902A8FFF74DFBF7E755
S31508002D2000216846FFF748FBBDE700216846FFF724
S31508002D30B5FCB8E700216846FFF7E2FCB3E70021D7
S31508002D406846FFF70FFDAEE700216846FFF734FD3A
S31508002D50A9E76846FFF78EFDA5E700216846FFF755
S31508002D604FFBA0E727DE000808B58020FFF7BAFE6C
S31508002D70034B98429EBF4FF48032024B1A6708BD38
S31508002D80005A620200A000501FB503460020B3F5A2
S31508002D90607F019000F0FC807BD8582B68D8382BD0
S31508002DA005D8243B092B49D940F28951D1E0393B52
S31508002DB01F2BF9D801A252F823F000BF752F00087F
S31508002DC0A92D0008A92D0008A92D00087F2F0008A5
S31508002DD0A32F0008A92D0008A92D0008A92D000871
S31508002DE0A92D0008A92D0008A92D0008A92D00085D
S31508002DF0A92D0008A92D0008A92D0008A92D00084D
S31508002E00A92D0008A92D0008AD2F0008B72E000827
S31508002E10A92D0008A92D0008A92D0008FB2E0008D9
S31508002E20A92D0008A92D0008B72F0008C12F0008F2
S31508002E30992F00081D2F00081D2F0008092BB3D84D
S31508002E4001A252F823F000BFB72E0008B72E0008DB
S31508002E50B72E0008B72E0008B72E0008A92D0008BF
S31508002E605B2F0008A92D0008752F0008D52E00082D
S31508002E70802B58D0B3F5807F96D14FF0E02302908F
S31508002E801B695B0771D509F011FD0C230393039B9E
S31508002E9055E0B3F5086F77D021D8B3F5C06F69D080
S31508002EA00ED8B3F5A06F77D0B3F5B06F55D0B3F59C
S31508002EB0806F7FF479AF002001A9FFF713FB50E07C
S31508002EC0B3F5E06F6DD0B3F5F06F58D0B3F5D06FAA
S31508002ED07FF46AAF002001A9FFF7E0FB41E0B3F5F4
S31508002EE0286F6DD00ED8B3F5186F5FD0B3F5206F85
S31508002EF061D0B3F5106F7FF457AF002001A9FFF733
S31508002F00FFFB2EE0B3F5306F5FD0FFF44DAFB3F59E
S31508002F10386F2FD0B3F5406F7FF446AF002001A974
S31508002F20FFF71AFB1DE02B4B1B6F03F00703013B52
S31508002F30032B0CD8DFE803F00902050705230193E4
S31508002F400FE00323FBE70823F9E70223F7E740F23C
S31508002F50D641214806F006FB03E0002001A9FFF749
S31508002F606DFB019805B05DF804FB03A902A8FFF7FD
S31508002F7023FA8CE7002001A9FFF71EFAF1E70020E3
S31508002F8001A9FFF73DFAECE701A9FFF7F1F9E8E730
S31508002F9001A9FFF77DFAE4E7002001A9FFF714FB72
S31508002FA0DFE7002001A9FFF74FFADAE7002001A9B9
S31508002FB0FFF7D8FBD5E7002001A9FFF7FDFBD0E70F
S31508002FC0002001A9FFF730FCCBE701A9FFF752FC67
S31508002FD0C7E700BF0080005027DE00084FF48032A4
S31508002FE0074B0849586E03F580535A664B6A23F017
S31508002FF001034B62C3035CBF034B5A66704700BFAD
S315080030000080005000C0075000A00050F8B50368C3
S3150800301004460F2B04D940F68A31804806F0A2FAF6
S3150800302063680F2B04D940F68D317C4806F09AFA6E
S31508003030A3680F2B04D94FF43961784806F092FA41
S31508003040237B0F2B04D940F69331744806F08AFA8D
S31508003050637B0F2B04D940F69631704806F082FA46
S31508003060A37B3F2B04D940F699316C4806F07AFACF
S31508003070E37B3F2B04D940F69C31684806F072FA88
S315080030802369032B04D940F69F31644806F06AFA8F
S315080030906369032B04D940F6A231604806F062FA48
S315080030A0E369032B04D940F6A5315C4806F05AFAC1
S315080030B08020FFF769FE032800F08A804FF480120B
S315080030C0574B584D5A6645F60E034FF0A062C5F8A1
S315080030D08030554B9A624FF4803203F580539A62DA
S315080030E0AB6DDA03FCD4AE6D16F08046FBD1D4E99D
S315080030F000231B0543EA0263E27B4C481343227B09
S315080031004B4F43EA0243627B43EA0233A27B43EA1C
S3150800311082132B61AA69D4E904131B0643EA816367
S3150800312002F000421343A27E4FF440611343227E0D
S3150800313043EA0243627E43EA0223AB614FF400622C
S3150800314006F07FFE2B6AE17EE26923F00F0343EA6D
S315080031508103002A3DD12B6294F8243094F820107C
S31508003160AA6ADB0043EA41133A40134394F8212044
S31508003170304943EA021343F480332A4AAB62936D1B
S3150800318031EA0303FBD14FF0807127488162136946
S31508003190A56823F4700343EA055313614FF000430F
S315080031A0836194F822300BB9234B996294F8233043
S315080031B03BB94FF48032204B9A621A4A936D5B00F2
S315080031C0FCD494F825301BB1164B1C4AC3F8802052
S315080031D0F8BD134343F00803022A2B6208D12E6177
S315080031E04FF408524FF47F411548AE6106F029FEA8
S315080031F00C4994F822308A6A94F820001B063A4053
S3150800320043EA4013134394F8242043EAC20394F88C
S31508003210232043EA02438B62D3E700BF27DE000878
S31508003220009000500040005A0050005A3840005A9A
S31508003230C7FFFEFE030001000060005AF1A7FFFF6A
S315080032403440005A014B93F9000070473F23002091
S31508003250436810B5072B044604D940F6E6512A48B8
S3150800326006F080F9A368032B04D940F6E8512648EE
S3150800327006F078F92378032B04D940F6EA51224858
S3150800328006F070F994F90130002B04DA40F6EC5197
S315080032901D4806F067F94FF400011C4A6378516629
S315080032A04FF4D151022002F5B832516218494F2B1A
S315080032B048604FF0010028BF4F2301F58051486050
S315080032C01169C903FCD4217843EA01235361D4E97F
S315080032D001131B0143EA0123617B0B43217B43EA6C
S315080032E041039360E37BA17B1B0143EA4113617CA5
S315080032F00B43217C43EA41035360A37C13B16FF46B
S31508003300D153536210BD00BF27DE0008009000505D
S3150800331000100250014B1880704700BF3A23002066
S31508003320014B1880704700BF38230020B0F5207F76
S3150800333038B577D00ED8B0F5007F61D003D890B3F2
S31508003340B0F5C07F2FD04FF44671BDE838403D48F0
S3150800335006F008B9B0F5607FF5D13B4A4C1ED2F8A5
S31508003360FC5015F080751EBFD2F8FC3023F0807330
S31508003370C2F8FC30032C04D940F2F721314806F094
S31508003380F1F8324AD2F8803023F0300343EA0413C6
S31508003390C2F8803035B12C4AD2F8FC3043F080733D
S315080033A0C2F8FC3038BD4C1E012C0AD9102903D8A6
S315080033B0274BCB40DB0704D440F2CB21214806F04B
S315080033C0D1F806F04DFD06F059FD4FF48031214B3A
S315080033D01E4A1967136F23F4704343EA04331367CD
S315080033E009F064FA0446FEF7B7FFC0F10201204669
S315080033F006F03EFD00F048F8BDE83840FFF7B4BCDB
S315080034004C1E1F2C04D94FF443710E4806F0AAF837
S315080034100E4AD2F8903023F0F85343EA0463C2F810
S315080034209030BFE74C1E012C04D940F212310548F2
S3150800343006F098F8054A136F23F4806343EA842359
S315080034401367AFE727DE000800ED00E000800050B4
S31508003450100101000090005008B50121022000F07B
S31508003460CBF94FF42070FFF7ADFA054B187006F04C
S31508003470F7FC06F003FD4FF48032024B1A6708BDCD
S315080034804A1F00200090005008B54FF4C070FFF79F
S3150800349029FBBDE808400449884294BF012102215E
S315080034A04FF42070FFF742BF80F0FA0238B50446A1
S315080034B009F0FCF90546FEF74FFFC0F10201284660
S315080034C006F0D6FC0121002000F0EAF92CB1FFF73E
S315080034D0DBFFBDE83840FFF747BC034B4FF42070CD
S315080034E01978FFF723FFF4E74A1F00202DE9F0417A
S315080034F00546FFF7E3F9431E0333044604D940F6AD
S31508003500E2113B4806F02EF84FF4C022394B5A66B2
S3150800351003F598335A68012A04D137494A605A682C
S315080035209207FCD48020FFF72FFC052807D106F068
S3150800353097FC06F0A3FC4FF480322E4B1A672F4BEC
S3150800354024F040749D4239D02D4B9D4239D009F064
S3150800355087F98542064603D90121284600F0A0F9D5
S31508003560284FFB6813F0060FFBD1D7F80880BC601C
S31508003570BB68634013F4F81F26D12846FDF748F9BF
S315080035808020FFF701FC052814D109F08FF9A8421D
S31508003590044604D940F63B21154805F0E3FFFEF73B
S315080035A0DBFEC0F10201204606F062FCFFF76CFF65
S315080035B0FFF7DAFBAE4213D2BDE8F08144F000749F
S315080035C0C5E744F08074C2E740F62A21084805F0AA
S315080035D0C9FF8020C7F80880FFF7D6FB052805D065
S315080035E0BDE8F0410121002000F05AB93546CCE784
S315080035F027DE00080090005000E0015040420F000E
S3150800360080841E00000001504E4B70B59842054656
S3150800361073D041D8A3F5B703A3F55863984265D08C
S3150800362033D8494B494E984251D017D8002877D0FD
S3150800363041F2DE11464805F095FF40F6867144488A
S3150800364005F090FF4FF40022404B5A663E4B9D42D0
S3150800365076D000243F4A954236D05DE03D4B9842ED
S3150800366027D03D4B9842E3D13C4BD3F8A040621E8D
S31508003670033224F040744CD940F68671344805F07C
S3150800368071FF4FF400237366E4E7354B9842CFD1B8
S31508003690324BD3F8BC402CE0324B984231D0324BF7
S315080036A0984232D0314B9842C2D12C4BD3F8C840FD
S315080036B01FE02A4BD3F8A040621E033224F0407460
S315080036C0DAD84FF40023736644F0807424E0234B61
S315080036D0D3F8A040621E033224F040742AD84FF46F
S315080036E000237366234643F0007415E01B4BD3F89A
S315080036F0B840621E154E0332BBE7184BD3F8C040DC
S31508003700F7E7164BD3F8CC40F3E7144BD3F8D04081
S31508003710EFE74FF4002373664FF0B442946070BD30
S3150800372040F686710A4805F01DFF4FF400232C4623
S315080037307366F1E740F68671054805F013FFCEE794
S315080037400023D0E7C0EA210140420F000090005054
S3150800375027DE000880841E0000093D000080E00F77
S315080037600024F4000048E801005A620280BA8C017D
S31508003770024A536B0342FCD1704700BF0040095010
S31508003780044A4178536F23F4407343EA012353678D
S31508003790704700BF004000500E4A10B51369044632
S315080037A043F00403136109F0FFFD06F06CFB0A4BB6
S315080037B05B6E5B0142BF094B094AC3F8202430BF40
S315080037C006F062FB03F006FB1CB9BDE8104009F0E1
S315080037D06DB810BD00ED00E00080005000E0035019
S315080037E00000FF0F034A0179D36E23F030030B4321
S315080037F0D366704700400050F8B50446244BD3F80A
S315080038008420D006FBD4D3F88430C3F381139C42BA
S315080038103CD009F02BF8012C05460BD11D4B9842DC
S3150800382004D940F28F711C4805F09CFE01212846F8
S3150800383006F01EFB0AF08BF84FF00072174B07468E
S315080038405A66204606F023FB4FF48063104E621E2C
S3150800385093403367736E9A0103D4D6F884309B0677
S315080038600AD538460AF06EF8022C0FD12846BDE86C
S31508003870F840002106F0FCBAD6F884309906E9D556
S3150800388040F2A771044805F06DFEE3E7F8BD00BFF6
S3150800389000400050005A620298DE0008006000509E
S315080038A010B50C4608B908F0E1FF074B21461B780E
S315080038B03BB1064B984204D80120BDE81040FFF7FB
S315080038C09BBF0220F9E700BF4B1F0020005A620287
S315080038D00278034B012100201A70FFF7E1BF00BFF1
S315080038E04B1F00204FF0004238B5244B244C5A6633
S315080038F04AF6CD33656C014605F00105236428BBFD
S315080039000120FFF735FF6368DB0715D51D4B5860A7
S3150800391008461D4B226BD2070CD4984208D10724BF
S3150800392015B1174B194A1A6406F0B2FA204638BD83
S315080039300130EFE79842F2D00024F1E70132236B19
S3150800394013F0080305D08A42F8D1E8E700220E49A9
S31508003950F5E78A42E3D020210A4A91620121A2F5BD
S31508003960805251600649084A886A800603D4934201
S31508003970D5D00133F8E79342DDE700BF0090005049
S31508003980004009500060095040420F003254FFFFC2
S315080039904FF0004238B5164B01465A664AF6CD3303
S315080039A0144C154A656C236443780B205B0043F07E
S315080039B00103D363FFF7DCFE63688A7823F4F873A0
S315080039C043EA02136360CA784B7943EA0223A36089
S315080039D00A798B7943EA022323610878FFF782FF85
S315080039E0EB0744BF054B236406F052FA012038BDA5
S315080039F00090005000400950004000503254FFFF2C
S31508003A000F2870B5044605D940F66861124805F0D6
S31508003A10A9FD0F244FF00042104B11495D6E03F5C6
S31508003A2080535A664AF6CD334E6C80200B64FFF7F6
S31508003A309FFE0B6A23F00F0323430B62F30744BF71
S31508003A40084B0B64002DA2BF4FF00042064B5A6686
S31508003A5006F01EFA70BD00BF98DE00080080005010
S31508003A60004009503254FFFF00A0005010B506F080
S31508003A7014FA202341F2020203610023C360836023
S31508003A8042614FF4A02207498361426200F5005261
S31508003A90C36103628362C36243630365D1640363DC
S31508003AA010BD00BFFF3F0D0338B5194B04469842B9
S31508003AB00D460BD0174B984208D003F58043984221
S31508003AC004D040F26911144805F04CFD25B920468A
S31508003AD0BDE8384006F0E1B9012204F580535A6082
S31508003AE040F6FF71204605F00F0206F0D2F9A263F0
S31508003AF0782106F0CEF905F001036A0748BF43F0BE
S31508003B000203A26C02F003029A42FAD138BD00BF42
S31508003B100000015B00000A5009DF0008F8B50546F9
S31508003B200C46164622B940F227216D4805F01AFDC3
S31508003B306C4B9D4202D1BCB9562411E06A4B9D429A
S31508003B404FD003F580439D4247D040F22A2164486E
S31508003B5005F008FD44B940F27931614805F002FDE7
S31508003B602046FEF7BFFF0446AB68D90749D5B442DD
S31508003B7004D24FF40D715A4805F0F4FCB4FBF6F480
S31508003B806F68013CFF2C07F0010704D94FF40F7149
S31508003B90534805F0E7FC24066FB32821284606F0AB
S31508003BA078F9AB6C9A0720D1AB6CDB071FD4AE6CE7
S31508003BB016F002061DD140F24921494805F0D2FC0B
S31508003BC0284606F06AF92B69314623F07F432343DA
S31508003BD02B61BDE8F840FFF767BF002CC4D1582415
S31508003BE0BEE7002CC0D15724BAE70526E8E7092620
S31508003BF0E6E70626E4E72B6923F07F4323432B6198
S31508003C00F8BD6B68012B04D04FF41771344805F0E2
S31508003C10A9FCAB6803F0E003402B42D009D893B166
S31508003C20202B1AD040F29E21BDE8F8402C4805F01A
S31508003C3099BC602B42D0802BF4D106EB4603A342F5
S31508003C4047D801230DE0B6EB141F04D94FF42171B0
S31508003C50234805F087FC102303E0B6EBD40F1AD8E7
S31508003C60082373436401B4FBF3F4204F203CB7EBFD
S31508003C70C40F4FEAC40604D240F2A921184805F039
S31508003C8071FC28463E40012106F003F92E63BDE883
S31508003C90F84006F0FEB840F28921114805F062FCAA
S31508003CA0DEE70623B4FBF3F3B34201D30623D8E7D2
S31508003CB040F28E210A4805F055FCF7E7B6EB940F5B
S31508003CC001D80423CDE740F29321054805F04AFCC4
S31508003CD0F7E74FF42671024805F044FCB1E700BF48
S31508003CE009DF00080000015B00000A50F8FF7F00AA
S31508003CF0F8B5884B044698420E460AD0864B984239
S31508003D0007D003F58043984203D0E221834805F0A3
S31508003D1029FC1EB9E421814805F024FC727BB368AE
S31508003D207AB17F4A934203D9E6217C4805F01AFC0A
S31508003D303369C3B1DB7BB3B1E921784805F012FCDE
S31508003D4011E0784A934203D9EC21744805F00AFC3D
S31508003D50336943B11A7F32B1B168734A5B7F9142C6
S31508003D607DD9042B7DD86368356923B140F6FF7188
S31508003D70204606F08EF82046FFF778FE2269737B08
S31508003D80B17B22F087020B43134343F08003236180
S31508003D90002D68D02369297F23F0F80343EAC1136D
S31508003DA02978EA7B0B43297943EA4113697A43EA7E
S31508003DB0011343EA82132361E068D5E9053720F049
S31508003DC0F0403B4320F470200343287B697B43EA99
S31508003DD0802343EAC133E360A368F07B23F003033F
S31508003DE0034343F00103A3606B88A06803F4C04350
S31508003DF00343A360A368687943EA8023A360AB7989
S31508003E00EF79606A1B013F0203F0700307F4E0676D
S31508003E1020F4772020F4EE603B430343287A00031E
S31508003E2000F4E0400343687F000400F47020034375
S31508003E3063626369307B23F00F03034363616B8915
S31508003E40A361002934D1E2B1324B9C423AD0324BBD
S31508003E509C4258D003F580439C4247D011E0042B7E
S31508003E6081D8F32169E7A368F27B23F003031343A0
S31508003E7043F00103A3606369327B23F00F03134306
S31508003E806361D6E901122046FFF748FE0521204660
S31508003E90FFF70AFE2821204605F0FBFF3378A363C7
S31508003EA005F0F7FFA36CDB4313F4405FFAD1F8BDC6
S31508003EB0184B9C420CD1AB7B1C4903F00F034B6695
S31508003EC0002ADED02B7C194A03F00F031366D8E7C5
S31508003ED0114B9C4210D003F580439C42D1D1AB7B59
S31508003EE0124903F00F03CB67002ACAD02B7C0F4A6E
S31508003EF003F00F039367C4E7AB7B0C4903F00F038A
S31508003F000B67002ABDD02B7C084A03F00F03D36643
S31508003F10B7E700BF0000015B00000A5009DF000890
S31508003F20002D3101809698003F4B4C0000900350BD
S31508003F30436870B504460D4616461BB140F6FF7138
S31508003F4005F0A7FF2046FFF791FDE9896B7B6269BB
S31508003F500B43298A22F44C520B4322F00F021343D7
S31508003F606361A2682B7B297E22F0804222F0E2025E
S31508003F700B4313436A691343A360AB681BB9A36871
S31508003F8043F00043A360EB69002B72D0987A1A7A43
S31508003F904004A16840EA82505A4A0A4010439A8867
S31508003FA002F4C04210435A7840EA82005A7B40EA3B
S31508003FB0C2009A7B40EA02109A7840EA8220A06002
S31508003FC0D3E90421E0680A434F4901400A43997935
S31508003FD042EA8122D97942EA4122E2601A784B49BB
S31508003FE0012A12D1E26842F00402E2608C4265D0EE
S31508003FF0474A944264D002F5804294420CBF02229A
S315080040004FF0FF324349520113E0032A4ED1E268CA
S3150800401042F00402E2608C424CD03D4A94424BD0B6
S3150800402002F5804294420CBF02224FF0FF323A4911
S315080040305201114402224A605A7A04F580518A6272
S315080040401AB1E26842F40062E260DA7A5AB1E268CA
S3150800405042F40042E2602D4A944233D11A7B2F493A
S3150800406002F00F024A66626ADB7B22F00302134300
S3150800407063623EB196F8203004F58051002B33D0A8
S3150800408001230B6205212046FFF70EFDAA681AB127
S3150800409020466968FFF742FD20462978FFF704FDA8
S315080040A0A36CDB4313F4405FFAD170BD023A012AD0
S315080040B0B1D99BE70022BAE70122B8E70022A1E7B7
S315080040C001229FE7124A944205D11A7B134902F04E
S315080040D00F020A67C7E7124A944201BF1A7B0F49C3
S315080040E002F00F02CA67BEE7E26996F8223096F830
S315080040F0210022F009020343134343F00103CB6175
S31508004100C0E700BFE39BBDFFFFF9F0870000015B36
S3150800411000000A50C0E40350C0D403500090035076
S3150800412000400A5038B52B4B054698420C4642D1FA
S3150800413019B98C21284805F015FA5620FEF724FEF1
S3150800414020F00203092B05D00A2803D0A0F110039A
S31508004150012B39D8637B032B03D9AD211E4805F003
S3150800416001FA237B802B03D0AF211B4805F0FAF90F
S315080041706369B3F1804F03D0B121174805F0F2F90E
S31508004180238A23F400539BB2B3F5805F03D0B3218F
S31508004190114805F0E7F9A368013BB3F5165F03D3A9
S315080041A0B5210D4805F0DEF921462846BDE8384018
S315080041B00022FFF7BDBE8A21074805F0D3F91CB9CE
S315080041C08C21054805F0CEF99E21034805F0CAF969
S315080041D0C0E700BF0000015B09DF000838B5154BD2
S315080041E0044698420D460AD0134B984207D003F569
S315080041F08043984203D07021104805F0B3F91DB9E1
S3150800420072210E4805F0AEF92B7B802B03D176215F
S315080042100A4805F0A7F96B7B032B03D979210748D0
S3150800422005F0A0F929462046BDE838400022FFF7E8
S315080042307FBE00BF0000015B00000A5009DF0008CE
S31508004240032838B504460D4605D8094B33F810300F
S31508004250CB40DB0704D440F28541064805F082F9D5
S31508004260302301225C43044BAA401A5138BD00BFD3
S315080042707CE000087DDF000840D00350032838B5ED
S3150800428004460D4605D8094B33F81030CB40DB07FA
S3150800429004D440F25641064805F064F93023012259
S315080042A05C43044BAA401A5138BD00BF7CE00008A5
S315080042B07DDF000840E0035003282DE9F04104465D
S315080042C00D461746984605D81D4B33F81030CB4097
S315080042D0DB0704D44FF4B0711A4805F043F937B137
S315080042E029462046B8F1000F20D0FFF7A9FF0F2175
S315080042F0072D04EB440688BFA5F108034FEA061606
S31508004300114895BFAB009B0004360C3607FA03F23A
S315080043109940304405F0EAFD7FB929462046B8F1B0
S31508004320000F06D0BDE8F041FFF78ABFFFF7A6FFEA
S31508004330DDE7BDE8F041FFF7A1BFBDE8F08100BFAA
S315080043407CE0000809E0000830C0035010B51620CC
S3150800435001F010F80024FF22064B21465C65202058
S315080043609A625C60FEF796FB2146BDE81040212064
S31508004370FEF790BB00000450072838B504460D46E2
S3150800438003DD7721084805F0EDF81F2C03D99121A4
S31508004390064805F0E7F8064A064B002D08BF1346FF
S315080043A00122A2401A6038BD84E00008F6E0000841
S315080043B0401004504020045010B5044618B9912105
S315080043C01F4805F0CFF823781B0613F0604F03D07B
S315080043D092211B4805F0C6F8E3780F2B03D99521DF
S315080043E0174805F0BFF801212020FEF753FB0121ED
S315080043F02120FEF74FFB0122124B16205A60227825
S3150800440012069A606178A27842EA01429A61FF220E
S315080044109A6200229A631A644FF000425A654FF076
S31508004420FF3203F500531A6501F02AF81620E178E1
S3150800443001F034F8BDE81040162000F0B9BF00BFFF
S3150800444084E0000800000450F8B50126C3B2072826
S3150800445005460C46174606FA03F603DDDE21344800
S3150800446005F080F81CB9DF21314805F07BF8236890
S3150800447023F47C1323F00F031BB1E2212C4805F02B
S3150800448071F8A37A1B0413F47C0F03D0E72128489C
S3150800449005F068F8E37A1B0513F07E6F03D0E9216F
S315080044A0234805F05FF8237B5B0513F0FE5F03D016
S315080044B0EB211F4805F056F81E4B27F003071E652B
S315080044C0AB00226803F1A04303F588235A60302223
S315080044D002FB05F0637B00F1A04000F5802003662F
S315080044E0E37AA27A1B0543EA0243227B43EA425354
S315080044F0C365076709F034FA0F4B227A5E6502B185
S315080045001E64627A02B19E632279A37943EA024362
S31508004510084A93616179E37943EA014306498B6165
S31508004520064B56639E64BDE8F84009F014BA00BF0E
S3150800453084E00008002004500010045000000450D5
S3150800454010B50124C3B2072804FA03F404DD40F2C7
S315080045507B11074805F006F809F002FA054B5A6D73
S3150800456022EA04025A659C62BDE8104009F0F3B9D4
S3150800457084E000080000045010B50124C3B20728DF
S3150800458004FA03F404DD40F299110A4804F0EAFF3C
S3150800459009F0E6F9084BDA6A224208D15B6B9C43BC
S315080045A00CBF0124002409F0D6F9204610BD0024CA
S315080045B0F9E700BF84E000080000045070B5012543
S315080045C0C3B20728044605FA03F504DD4FF4E07183
S315080045D0094804F0C7FF09F0C3F93022074B5E6BA0
S315080045E002FB04335C6E09F0B6F935420ABFC4F320
S315080045F00A100020013070BD84E000080000045055
S315080046004FF48032054B9A6641F6713203F51C3336
S31508004610DA63012203F50053DA6070470090005010
S3150800462041F671320121064BDA6303F50052D16077
S315080046300022DA634FF48032A3F518339A6670477E
S31508004640000003504FF48032084B5A6603F5E62300
S315080046509B69C3F3461203F00F010A434280C3F372
S315080046600342C3F30333427003707047009000504F
S315080046700120034B9B680A3303F01F0398407047D9
S315080046800080E00F70B506460C46154622B940F282
S31508004690A6210C4804F066FF24B94FF42070FEF7F3
S315080046A021FA04466D00013CB4FBF5F4064B2502DD
S315080046B013EA042304D040F2CB21024804F052FF47
S315080046C0F56170BDF2E10008070080FF124B10B5D6
S315080046D09842044604D040F25E41104804F042FF76
S315080046E0012104F58053596040F6AA6341F2050298
S315080046F0636100230A48A360E365E26004F500529B
S315080047002361E361E36490640348A365844204BFBC
S3150800471023656365516010BD00C00550F2E10008CD
S31508004720FFFF010038B5284B044698420D4604D0D1
S3150800473040F28131254804F015FF2046FFF7C6FFF1
S31508004740012304F5805253602B8AA16843F00103C4
S315080047500B43A97B43EA8123A360A368297D43EA27
S315080047604173A360AB7C4BB1174B9C4202BFE97CFB
S31508004770A3F51033C3F8D4118023D3652B7B2046C9
S31508004780D5E9011243F48053E360FFF77BFF6B7BA7
S315080047900BB1102363616B7D1BB1A36843F48033AF
S315080047A0A360AB7D1BB1A36843F40043A360EB7D14
S315080047B02A7E1B07120503F0E04302F4E0021343C6
S315080047C0A3652B78636138BD00C00550F2E1000887
S315080047D010B5044620B940F23A21104804F0C2FE4A
S315080047E02378C3B1013BDBB2022B06D80C4A32F858
S315080047F013306278D340DB0704D440F23D210748E2
S3150800480004F0B0FE0122637821789A403023594398
S31508004810044B5A5010BD47F6FF73EAE765E20008F5
S315080048200AE4000840E0035010B5044620B940F2F7
S315080048306E21124804F096FE2378E3B1013BDBB201
S31508004840022B06D80E4A32F813306278D340DB07BB
S3150800485004D440F27121094804F084FE30222378FA
S31508004860534303F1A04303F57033186C6378D840BB
S3150800487000F0010010BD47F6FF73E6E765E20008A1
S315080048800AE40008034BD3F82424D3F82004104084
S31508004890704700BF00C003502DE9F0410378044675
S315080048A00D46164613B3013BDBB2022B06D82B4A3C
S315080048B032F813306278D340DB0703D45D212848E9
S315080048C004F050FE274BD3F810331BB1602124485F
S315080048D004F048FE0F2D0CD8DFE805F037323232E7
S315080048E032323232323232323232323247F6FF73B3
S315080048F0E0E7B4211A4804F035FE4FF000082046D8
S3150800490006B308F0D9F80F2167782378072F03EB49
S31508004910430388BF083F4FEA0313134895BFBF00F8
S31508004920BF0004330C3308FA07F2B940184405F0FF
S31508004930ECFA85B9204656B1BDE8F04108F0BCB896
S31508004940A846DCE7FFF744FFDDE7A846DBE7BDE856
S31508004950F041FFF73DBFBDE8F08100BF0AE400085B
S31508004960FAE2000800C0035030C003502DE9F047B2
S31508004970037806460C461546002B50D0013BDBB2A1
S31508004980022B06D84E4A32F813307278D340DA072B
S3150800499004D44FF49C714B4804F0E4FD022D06D96B
S315080049A0042D04D040F23911464804F0DBFD464F89
S315080049B0D7F8103323B14FF49D71424804F0D2FD65
S315080049C0002C2FDB73786340032B04D94FF49F71B7
S315080049D03C4804F0C7FD0127072C05F005094FF0F0
S315080049E00308327807FA04F705F0060526DC4FEACD
S315080049F0840A08FA0AF84146344802FA0AF205F027
S31508004A0084FA7278414602F00302314802FA0AF241
S31508004A1005F07BFAB9F1000F37D12E4B36E047F691
S31508004A20FF73B2E7631C06D1D7F82414707805F033
S31508004A307BFA041ECFDA2046BDE8F087A4F1080AFF
S31508004A404FEA8A0A08FA0AF84146234802FA0AF29D
S31508004A5005F05BFA7278414602F003021F4802FA33
S31508004A600AF205F052FAB9F1000F14D01F2C0CDD2A
S31508004A7074211B4804F076FD1A4BC3F8107495B9D7
S31508004A807421174804F06EFD03E0164BC3F8107442
S31508004A906DB9104B0CE01F2CBFDD7421104804F0D3
S31508004AA061FD0C4BE9E774210D4804F05BFD0D4BE5
S31508004AB0C3F814740123074AA340C2F82034BAE79E
S31508004AC00AE40008FAE2000800C0035000C40350D4
S31508004AD008C4035000E0035004C403500CC4035038
S31508004AE075E3000800D00350B0F1B24F10B5044684
S31508004AF003D0C021054804F035FD6368DB075EBFB7
S31508004B00012304F58054636010BD00BF10E400085B
S31508004B10B0F1B24F10B5044603D0D321054804F0CE
S31508004B2021FD6368DB0742BF012304F50054636077
S31508004B3010BD00BF10E40008B0F1B24F10B504462E
S31508004B4003D0E621044804F00DFDA3689A07FCD4B7
S31508004B5063689B07FCD410BD10E40008B0F1B24F9F
S31508004B6010B5044603D0FF21044804F0FBFC40F2CC
S31508004B70FD33226C1A42FCD110BD00BF10E40008B8
S31508004B80B0F1B24F38B504460D4603D05721174841
S31508004B9004F0E8FC2046FFF7A7FF2046FFF7DEFFF4
S31508004BA0AB782A789B0043EA02436A78E1681343A4
S31508004BB0EA78204643EA02132A7943EA02336A79F5
S31508004BC043EA4223AA7943EA0223EA7943EA8213AB
S31508004BD02A7A43EAC213064A0A401343E360FFF7F8
S31508004BE097FF2046BDE83840FFF7A6BFA8E40008AF
S31508004BF000ECF0FF054B9A689107FCD45A689207B7
S31508004C00F9D4DA69002AF6D1704700BF00800A5045
S31508004C1010B5074C6368DB0704D440F20F1105484A
S31508004C2004F0A0FC07F0A0FF0123236110BD00BF1C
S31508004C3000800A5026E5000810B5074C6368DB07B4
S31508004C4004D44FF49371054804F08CFC07F08CFFEC
S31508004C500223236110BD00BF00800A5026E5000824
S31508004C6008B5FFF7C7FF0122024B03F580514A60DA
S31508004C701A6108BD00800A50044B10B55C68012C07
S31508004C8003D1FFF7D9FF024B5C6010BD00800A50C4
S31508004C9000A00A5038B5074DFFF7ACFF6B6804460D
S31508004CA0012B03D1FFF7E8FFFFF7A4FF2378EB609A
S31508004CB038BD00BF00800A5038B505460C4607F0D7
S31508004CC05DFFBDB96268237812B1127843EAC20360
S31508004CD0627843EA4203A26812B1127843EA821361
S31508004CE0E27843EA8203226912B1127843EA422340
S31508004CF0014A936438BD00BF00800A50084B10B5BE
S31508004D009842044608D003F58043984204D04FF4ED
S31508004D109D71044804F026FC0023236210BD00BFE1
S31508004D200040005B3AE60008094B10B59842044675
S31508004D3008D003F58043984204D040F2491105484B
S31508004D4004F010FC636813B1636A002BFAD110BD36
S31508004D500040005B3AE60008084B10B59842044646
S31508004D6008D003F58043984204D040F2591104480C
S31508004D7004F0F8FB63689B07FCD410BD0040005B99
S31508004D803AE600080A4B10B59842044607D003F5E0
S31508004D908043984203D03E21064804F0E3FB63694A
S31508004DA0002BA2BF012304F58054636010BD00BF29
S31508004DB00040005BCFE600080B4B10B5984204464E
S31508004DC007D003F58043984203D04D21074804F0E5
S31508004DD0C9FB6369002B06DB2046FFF7A5FF012305
S31508004DE004F50054636010BD0040005BCFE6000880
S31508004DF00D4B10B59842044607D003F580439842F8
S31508004E0003D05E21094804F0ADFB6368DA070AD5CA
S31508004E1008F0A6FD636ADB075CBF0123E360BDE813
S31508004E20104008F098BD10BD0040005BCFE60008B2
S31508004E3038B5224B054698420C4607D003F5804301
S31508004E40984203D077211E4804F08CFB2846FFF7CA
S31508004E50B3FF2846FFF780FFA37821785B0043EA73
S31508004E6041136178AA680B43E17843EA8103217903
S31508004E7043EAC103617943EA0113A17943EA41236D
S31508004E80E17943EA8123217B43EA0123A17A43EAB4
S31508004E900163E17A43EA0173617A43EA0143094906
S31508004EA011400B43AB60237A3BB12846FFF726FF38
S31508004EB02846BDE83840FFF737BF38BD0040005BDD
S31508004EC0CFE60008C0F8F08C08B505F047F828B119
S31508004ED0BDE808405A21024804F044BB08BD00BF9B
S31508004EE04AE7000830B590488BB008F04FFD20B16E
S31508004EF040F236318D4804F035FB6C468C4D0FCDAB
S31508004F000FC42B688B4A2360FF238DF80130D2F833
S31508004F104C3113F4802340F0FB80D2F850218DF8F1
S31508004F2001309DF801306C46FF2B08BF2C236846DC
S31508004F30814D8DF80130FEF78BF93220FEF7EAF93C
S31508004F400FCD0FC40FCD0FC495E8030084E8030006
S31508004F50784BD3F84C21120340F1BE80A3F5FE43EB
S31508004F601C88B4F5807F28BF70248DF81940FEF799
S31508004F7069F9044484F3080470488DF81840FBF76F
S31508004F804DFC6846FEF742F83220FEF7C9F96C4830
S31508004F90FEF7ACFA6B48FEF737FB6B4808F0F6FCF1
S31508004FA020B140F2CB11614804F0DCFA674CFEF7F9
S31508004FB053FA236F002023F0070343F00303236704
S31508004FC0FEF774FA236F624923F474432367614B2F
S31508004FD0D3F8FC2012F0807240F08280D4F880303A
S31508004FE023F0030343F00103C4F88030C1F880209E
S31508004FF0564CD4F8203123F0070343F00203C4F8D3
S315080050002031D4F8283123F0070343F00203C4F80B
S315080050102831D4F8803123F0030343F00103C4F8A0
S315080050208031D4F8903223F0030343F00103C4F827
S315080050309032D4F8403123F0030343F00203C4F856
S315080050404031D4F8603123F0030343F00203C4F877
S315080050506031D4F8403223F0030343F00203C4F866
S315080050604032D4F8003223F0070343F00303C4F8B0
S315080050700032D4F8083223F0070343F00203C4F8D9
S315080050800832D4F8503223F0030343F00203C4F87D
S315080050905032D4F8703223F0030343F00103C4F806
S315080050A07032D4F8203223F0070343F00103C4F822
S315080050B02032FDF793FF4FF0E0220020136943F0FA
S315080050C004031361D4F8603223F0070343F00103A5
S315080050D0C4F860320BB030BDD3F85041E4B244E7AF
S315080050E0D3F8FC2022F08072C3F8FC20D4F8802084
S315080050F022F0030242F00102C4F880200022C1F81F
S315080051008020D3F8FC2042F08072C3F8FC206FE7B9
S315080051104FF07E6393F89C2093F99C30002BFFF6A2
S3150800512000AF8DF80120FCE658E9000874E800088D
S315080051300CE900080080E00F20E90008C0175302B8
S3150800514000B4C404C0EA21015CE9000800800050EC
S315080051500090005000ED00E007B5094B18689A88E2
S315080051609B7900906846ADF804208DF80630FEF766
S315080051700FFC0920FEF744FC002003B05DF804FB91
S3150800518048E9000870B501F051FE0446D8B908F0A0
S3150800519099FA4FF4167343430C4A03F5742303F242
S315080051A03F23B3FBF2F30A490A480B600A23026855
S315080051B0094D0E68013B45F8046B0E6813F0FF03B2
S315080051C03244F6D10260204670BD00BF40420F004F
S315080051D07C1A00204C1A0020501A0020012208B51B
S315080051E0034B1A7008F087FC024B186008BD00BF15
S315080051F04C1F0020481A0020F8B5224D2B7813B30F
S3150800520008F079FC204B214E1B68C01A30603368C1
S31508005210D3B13368336008F055FA4FF41673584320
S315080052201B4C00F5742000F23F20B0FBF4F4336801
S31508005230A34203D9C721174804F094F93368A34257
S3150800524004D900232B70F8BD0123E3E71248134C59
S315080052500378316854F82320114F511A3A68521AC4
S3150800526031683A6044F823100A210932B2FBF1F298
S315080052700C4C0133DBB22260B3FBF1F201FB1233B3
S315080052800370DEE74C1F0020481A0020781A002019
S3150800529040420F00CCE900084D1F0020501A00209C
S315080052A04C1A00207C1A0020014B1868704700BF72
S315080052B07C1A002038B503212D2000F0EFF84FF4B2
S315080052C08012094B094C0A4D5A6604F500535D676E
S315080052D02D201D6700F0D4F804F580542D2000F029
S315080052E067F8656738BD00BF009000500040005A57
S315080052F0010000A0054B064A996DC90701D511782A
S3150800530011B10028F8D17047012070470040005AB3
S315080053104E1F00200C4B10B51C6FE20707D5012263
S3150800532003F500531A67FFF767FF01F097FC14F0BF
S3150800533000521CBF054B1A67002CBEBF4FF0004237
S31508005340024B1A6710BD00BF0040005A0060005AA1
S315080053500028ABBF00F16040054B00F5614000F046
S315080053600F00ACBF90F80003185C0009704700BF37
S3150800537014ED00E04F2810B504460DD801220A495D
S31508005380630904F01F04A240203341F82320BFF329
S315080053904F8FBFF36F8F10BD40F22511034804F0FD
S315080053A0E1F8002CF7DBE9E700E100E055EA000840
S315080053B04F2810B5044608D801236109074A04F0A6
S315080053C01F04A34042F8213010BD4FF498710448D9
S315080053D004F0C8F8002CF7DBEEE700BF00E100E0B8
S315080053E055EA00084E2810B5044604D940F23B1188
S315080053F0064804F0B7F8064B621153F8220004F089
S315080054001F04E040C04300F0010010BD55EA000843
S3150800541000E100E000F10C035A2B10B5044604D94C
S3150800542040F24B11144804F09DF8EFF31083DB07A4
S3150800543002D50122104610BD2046FFF7D3FF0246CB
S315080054400028F6D160B2FFF783FF0146EFF3118318
S3150800545013B1B0EB131FECD2084B5B68C3F3080318
S31508005460002BE7D0103B58B2FFF772FF814234BFDA
S3150800547000220122DEE700BF55EA000800ED00E041
S31508005480002808DB01224309034900F01F00824077
S31508005490603341F82320704700E100E038B500F199
S315080054A010035F2B04460D4604D94FF4EF710E48DE
S315080054B004F058F80F2D04D940F2DF110A4804F019
S315080054C051F860B20028ACBF00F16040074B4FEAC4
S315080054D00515EDB2ABBF00F5614000F00F0080F88E
S315080054E000531D5438BD00BF55EA000814ED00E00E
