S01700006D61696E5F6C6374745F6365727469662E73333746
S3150800000000040020CDBA0008CB850108CB8501087D
S31508000010CB850108CB850108CB850108CB8501086E
S31508000020CB850108CB850108CB850108A1D5010838
S31508000030CB850108CB85010845D5010817D90108E4
S31508000040CB850108CB850108CB850108CB8501083E
S31508000050CB850108CB850108CB850108CB8501082E
S31508000060CB850108CB850108CB85010891050008D9
S31508000070994B0108CB850108CB850108CB8501087A
S31508000080CB850108CB850108C1360108CB85010857
S31508000090CB850108CB850108DDC40008CB8501089E
S315080000A0CB850108CB850108E9C00008C9C000084E
S315080000B0CB850108CB850108CB850108CB850108CE
S315080000C0CB850108CB850108CB850108CB850108BE
S315080000D0CB850108CB850108CB850108CB850108AE
S315080000E0CB850108CB850108CB850108CB8501089E
S315080000F0CB850108B1930108CB850108CB8501089A
S31508000100CB850108CB850108CB850108CB8501087D
S31508000110CB850108CB850108CB850108CB8501086D
S31508000120CB850108CB850108CB850108CB8501085D
S31508000130CB850108CB850108CB850108CB8501084D
S31508000140CB850108CB850108CB850108350F010849
S31508000150CB850108CB850108CB850108CB8501082D
S31508000160CB850108CB850108CB850108CB8501081D
S31108000170CB850108CB850108CB8501086A
S3150800017CF0B5114A114C124E00F00105E3695F0700
S3150800018C13D40DB9334213D103EA00078F4207D1B2
S3150800019C0B4A1A40002A0CBF00206FF00100F0BD74
S315080001AC013AEBD16FF00200F9E74FF0FF30F6E7B2
S315080001BC6FF00100F3E700BF80969800000003502B
S315080001CC020001000B4B70B5D96911F480310DD1C1
S315080001DC01244FF48072084E084DF46020462C64B6
S315080001EC1A61FFF7C5FF3464EC6070BD6FF001004F
S315080001FCFBE700BF0000035000100350002003501B
S3150800020CC0F30C0370B5054623B140F21A21114808
S3150800021C00F0A2F84FF480320F4B104C9A66E66940
S3150800022C41F6713316400122E3630D4B0021DA6067
S3150800023C0223656121202361FFF79AFF10B921205B
S3150800024CFFF796FF0122074BDA600EB10023E36332
S3150800025C70BD00BF823C020800900050000003509D
S3150800026C001003500020035070B5134C6061E3690D
S3150800027C5B071ED40E4656F8043B8D18A361AE4296
S3150800028C0BD10423002121202361FFF771FF58B9F4
S3150800029CBDE870402120FFF76BBF08210846FFF721
S315080002AC67FF10B10423236170BD56F8043BA361A4
S315080002BCE5E74FF0FF30F7E7000003502DE9F84368
S315080002CC154682070F46064604D040F266211E489C
S315080002DC00F042F8AB0704D04FF41A711A4800F034
S315080002EC3BF84FF48032194BDFF868909A6603F5A1
S315080002FC1C33DA6902F4803841F67132DA6301226A
S3150800030C03F58053DA6065B928460122104BDA608A
S3150800031CB8F1000F03D00022A3F50053DA63BDE849
S3150800032CF88306F5005404EA0904A41BAC4228BF5A
S3150800033C2C46394622463046FFF796FF0028E4D16C
S3150800034C264427442D1BDEE7823C02080090005009
S3150800035C0020035000E0FFFF5FF800F0E785010876
S31508000370013800D0FCE770470348044B834202D09B
S31508000380034B03B118477047D0470020D0470020D9
S3150800039000000000064B0749C91A891048BF0131F9
S315080003A0491003D0044B0BB101481847704700BFEA
S315080003B0D0470020D04700200000000010B5064CAA
S315080003C0237843B9FFF7D8FF044B13B10448AFF3BA
S315080003D000800123237010BD0C3F002000000000A0
S315080003E0C44B020808B5054B1BB105490548AFF3D0
S315080003F00080BDE80840FFF7CDBF00BF0000000041
S3150800040068040020C44B0208A3F5803A704700BF71
S31508000410174B002B08BF134B9D46FFF7F5FF00212E
S315080004208B460F461348144A121A19F07FFB0E4BD7
S31508000430002B00D098470D4B002B00D09847002082
S31508000440002104000D000D48002802D00C48AFF327
S31508000450008013F061FF2000290019F0BAF913F0A3
S3150800046069FD00BF00000800000000000000000051
S315080004700004002000040020E441002000000000E1
S3150800048000000000064B1B681A7A022A04D812B12B
S315080004901B68044A13607047032AF9D0704700BFE7
S315080004A0C84400208004002070B51F4DA2B00BACD4
S315080004B00FCD0FC495E80F0084E80F0000244FF411
S315080004C08013CDE902440494019313AD01AE0FCE17
S315080004D00FC5164BCDE9074409942B60144B18AD8C
S315080004E0069306AE0FCE0FC52022124B12482B607C
S315080004F0124B13A91D93124B2094CDE91E23114BC1
S315080005000BAA2193104B11F0E9FA044618B1BA2147
S315080005100E4818F068F800214FF4E13018F047F853
S31508000520204622B070BD00BF1CE301083C00015BF9
S31508000530010010004400015B0C0600200D3F00205E
S3150800054000010100DC44002084040020E8E20108E0
S3150800055029B9074B186803684BB112F081BA01290B
S3150800056005D1034B186803680BB119F013B8704727
S31508000570F044002008B50449044812F08DFEBDE891
S315080005800840FFF791BF00BFF4440020380600205A
S31508000590014811F0D9BB00BF0C06002008B5044875
S315080005A018F048F8BDE80840024818F043B800BFFC
S315080005B054E301083CE30108024B034918680CF0B0
S315080005C055BE00BF1C450020FC4400207FB50446EC
S315080005D015468DF80F1021B169210D4A0D4809F00D
S315080005E0D1F94FF4C47122464FF4A1649DF80F0067
S315080005F0094E41430DF10F0301F5A161CDE9005301
S3150800060004FB00600023314403F0E2FE04B070BD31
S315080006106CE3010844E70108C406002010B5044647
S3150800062020B18B21064A074809F0ACF94FF4A160BE
S31508000630054B00FB0430BDE8104014F067BE00BF50
S315080006406CE301082DE70108C40600202DE9F341F3
S3150800065005460C4621B19221164A174809F092F927
S315080006604FF4A160154F294600FB047014F051FEA3
S315080006700446D0B9012D10D10546DFF84880104E42
S315080006807368E9B20093062056F8083B38F8022B3F
S31508000690013504F015F8062DF2D1386815F067F91A
S315080006A0C0F10200C0B204F03DF8204602B0BDE831
S315080006B0F08100BF6CE3010816E70108C4060020B4
S315080006C058E7010888E701082DE9F0479DF82880D2
S315080006D004460D4616461F469DF82090DDF824A0D0
S315080006E0B8F1000F04D0C321094A0A4809F04AF9AB
S315080006F021464FF4A164084833462A4604FB0800FD
S31508000700CDE9099A0897BDE8F04703F067BB00BF33
S315080007106CE30108FDE60108C40600202DE9F04156
S3150800072005460E4617461C4623B1D421074A0848F3
S3150800073009F028F929464FF4A16506483B46324692
S3150800074005FB0400BDE8F04114F085BC6CE3010824
S31508000750DEE60108C406002038B505460C4621B178
S31508000760DA21074A074809F00DF94FF4A160064B4C
S31508000770294600FB0430BDE8384003F0E1BA00BF63
S315080007806CE30108CDE60108C406002010B504464E
S3150800079020B1E021064A074809F0F4F84FF4A160B1
S315080007A0054B00FB0430BDE8104014F051BC00BFF7
S315080007B06CE30108B8E60108C406002010B5044633
S315080007C020B1E621064A074809F0DCF84FF4A16093
S315080007D0054B00FB0430BDE8104014F07ABE00BF9C
S315080007E06CE301089AE60108C406002038B50546F8
S315080007F00C4621B1EC21074A074809F0C3F84FF423
S31508000800A160064B294600FB0430BDE8384014F0C9
S3150800081095BC00BF6CE301087EE60108C40600200B
S3150800082038B505460C4621B1F821074A074809F0AC
S31508000830A9F84FF4A1635C43054B29461859BDE84E
S31508000840384014F019BF00BF6CE3010864E60108DC
S31508000850C406002010B5044628B14FF48571064A2F
S31508000860064809F08FF84FF4A160054B00FB0430E9
S31508000870BDE8104003F0D6BB6CE3010850E601085A
S31508000880C406002010B5044628B14FF48E71064AF6
S31508000890064809F077F84FF4A160054B00FB0430D1
S315080008A0BDE8104014F029BD6CE3010830E60108E4
S315080008B0C406002038B505460C4629B14FF4917197
S315080008C0064A074809F05EF84FF4A160054B294629
S315080008D000FB0430BDE8384014F012BD6CE3010893
S315080008E010E60108C406002010B5044628B14FF4E6
S315080008F09471064A064809F045F84FF4A160054B7D
S3150800090000FB0430BDE8104014F0EBBC6CE30108B2
S31508000910E8E50108C406002038B505460C4629B1A5
S315080009204FF4A371064A074809F02CF821462846D1
S3150800093008F0D4FF003818BF0120404238BD00BF78
S315080009406CE30108D1E5010838B505460C4629B11E
S3150800095040F25D11064A074809F014F82146284670
S3150800096008F0D4FF003818BF0120404238BD00BF48
S315080009706CE30108B9E5010838B505460C4629B106
S315080009804FF4B471064A074808F0FCFF2246294688
S31508000990002016F01EFE003818BF0120404238BD60
S315080009A06CE30108A2E5010838B505460C4629B1ED
S315080009B040F27311064A074808F0E4FF2246294622
S315080009C0012016F006FE003818BF0120404238BD47
S315080009D06CE301088BE5010810B5044628B14FF40D
S315080009E0CE71064A064808F0CDFF4FF4A1635C4372
S315080009F0044B1859BDE8104014F0EFBE6CE301082B
S31508000A0058E50108C406002010B5044628B14FF47D
S31508000A10DA71064A064808F0B5FF4FF4A160054B9F
S31508000A2000FB0430BDE8104014F06DBC6CE301080F
S31508000A3032E50108C406002010B5044628B14FF473
S31508000A40E071064A064808F09DFF4FF4A160054B81
S31508000A5000FB0430BDE8104014F0DDBA6CE3010871
S31508000A6002E50108C406002010B5044628B14FF473
S31508000A702C71064A064808F085FF4FF4A160054B1D
S31508000A8000FB0430BDE8104014F05ABC6CE30108C2
S31508000A90D0E40108C40600204FF4A162024B02FB11
S31508000AA0003014F051BC00BFC406002038B5054616
S31508000AB00C4629B140F2D221064A074808F062FFDF
S31508000AC04FF4A160054B294600FB0430BDE83840C9
S31508000AD014F03DBC6CE30108ACE40108C406002030
S31508000AE010B5044628B14FF43671064A064808F090
S31508000AF049FF4FF4A160054B00FB0430BDE81040E8
S31508000B0014F02EBC6CE3010881E40108C406002039
S31508000B1010B5044628B140F2E921054A054808F00F
S31508000B2031FF4FF4A160044B00FB043010BD00BF39
S31508000B306CE3010867E40108C406002013B50446FF
S31508000B4028B140F21631074A074808F01BFF4FF450
S31508000B50A160064B00FB043002B0BDE8104014F05B
S31508000B6002BC00BF6CE301084AE40108C406002081
S31508000B7007B528B14FF44771044A054808F002FF43
S31508000B8003B05DF804EB14F005BF00BF6CE3010881
S31508000B901EE4010870B505460E4614462AB14FF400
S31508000BA05271074A074808F0EDFE4FF4A160064B5C
S31508000BB03246294600FB0430BDE8704014F0F3BB0A
S31508000BC06CE30108FFE30108C406002010B50446DB
S31508000BD028B140F24E31064A064808F0D3FE4FF4D3
S31508000BE0A160054B00FB0430BDE8104014F0EFBBD4
S31508000BF06CE30108D8E30108C406002010B50446D2
S31508000C0028B140F27731064A064808F0BBFE4FF491
S31508000C10A160054B00FB0430BDE8104014F0DEBBB4
S31508000C206CE30108AEE30108C406002038B50546A2
S31508000C300C4629B140F27D31064A074808F0A2FE63
S31508000C404FF4A160054B294600FB0430BDE8384047
S31508000C5014F098BB6CE3010888E30108C406002079
S31508000C6010B44FF4A1645C4313460A460146034890
S31508000C7000595DF8044B14F03FBE00BFC4060020BF
S31508000C804FF4A162024B02FB003014F0DBB900BF3F
S31508000C90C40600204FF4A162024B02FB003014F098
S31508000CA0D4B900BFC40600204FF4A162024B02FB70
S31508000CB0003014F0F0BB00BFC40600204FF4A16258
S31508000CC0024B02FB003014F090BB00BFC4060020A4
S31508000CD04FF4A162024B02FB003014F0C1BB00BF07
S31508000CE0C40600204FF4A162024B02FB003014F048
S31508000CF0C6BB00BFC40600204FF4A162024B02FB2C
S31508000D00003014F0BFBB00BFC40600204FF4A16238
S31508000D10024B02FB003014F0B8BB00BFC40600202B
S31508000D204FF4A162024B02FB003014F0B1BB00BFC6
S31508000D30C4060020064908B51160064A1A60029BD7
S31508000D40054A1A6005F08CF9039B186008BD00BFB8
S31508000D509D4B0108354C0108A14B0108064908B509
S31508000D601160064A1A60029B054A1A6005F078F96E
S31508000D70039B186008BD00BF0D4D0108B14C010862
S31508000D80AF4C010830B50D46044685B020B17E212A
S31508000D900F4A104808F0F6FD0E2200210DF1020058
S31508000DA018F0C4FEC4EBC40303338DF800300323E4
S31508000DB020468DF801408DF808300195FFF7E6FCCE
S31508000DC0022802D1684605F027F905B030BD00BFF4
S31508000DD06CE3010894E7010830B5044685B00E2295
S31508000DE00D460DF10200002118F0A0FEC4EBC40365
S31508000DF002338DF800300323052100208DF80830D2
S31508000E008DF8014017F05EFB01902046FFF768FE5B
S31508000E10012814D1019B2B44591B0029019319DC85
S31508000E2021460F4808F000FE684605F0F5F820B19F
S31508000E30F5210C4A0C4808F0A5FD05B030BD204642
S31508000E40FFF72AFE0028E5D12046FFF7DDFD019BC6
S31508000E500344E1E72246054808F0E6FDE4E700BF5B
S31508000E60ADE701080FE8010884E80108D9E7010899
S31508000E701FB590F87030044600EB03135878FFF757
S31508000E8085FC022808D1174808F0CEFD164804B09C
S31508000E90BDE8104008F0C8BD94F87030012104EB95
S31508000EA003135878FFF73CFF17F0EBFA002294F883
S31508000EB07030114604EB03135B78CDE90022CDE9C7
S31508000EC002030A4B012005F03FFC94F8703020B964
S31508000ED004EB0313587204B010BD04EB031401238A
S31508000EE06372F8E745E8010869E801082D3F002024
S31508000EF0064908B51160064A1A60029B054A1A6037
S31508000F0005F0AEF8039B186008BD00BF374D010811
S31508000F10710E00083B4D010810B5044620B1852125
S31508000F200B4A0C4808F02EFD05F09AF80723022212
S31508000F3013FB042300EB0310037A052B07D117F0E4
S31508000F409EFA01462046BDE81040FFF745BF10BD92
S31508000F506CE301086EE8010838B590F8703004466D
S31508000F6000EB03131B7A022B02D1012003F0DAFBF4
S31508000F7094F8703004EB03139A7AF2B15D7A012D76
S31508000F8014D105F0E3FC88B994F870300B4904EBEA
S31508000F900314F72362785343CB5C012B0CBF022161
S31508000FA02946BDE83840032005F0D4BE94F87030D1
S31508000FB0002104EB03146278F3E738BD2E3F0020C6
S31508000FC02DE9F04FF7264FF00108002790F870300A
S31508000FD02A4D00EB03135B78044606FB03F216FB67
S31508000FE00383A81803EB050B90F8F630AF54BB4201
S31508000FF00CBF0221042190F8F32087B090F8F490F2
S3150800100090F8F5A00592049117F03BFA94F8703021
S31508001010049904EB03135B78059ACDE90203019161
S315080010205B46494600920220524605F08DFB94F82D
S3150800103070300146A8B904EB031383F809805B787E
S315080010400F4906FB03550F4B95F8F50095F8F42064
S31508001050B84218BF19460C4807B0BDE8F04F08F06B
S31508001060E3BC04EB03140948677208F0DDFC084882
S3150800107007B0BDE8F04F08F0D7BC00BF2E3F0020F0
S31508001080ACE80108A3E80108B5E80108CEE80108BC
S3150800109069E8010890F80A31013B012B0AD8F721C3
S315080010A090F81431044A4B43D15C01291CBF90F8CF
S315080010B01111D154002070472E3F0020064908B56B
S315080010C01160064A1A60029B054A1A6004F0C8FFB6
S315080010D0039B186008BD00BF95100008C10F0008E3
S315080010E0590F00082DE9FF47DDF830908846174666
S315080010F01E4604469DF834A09DF8385020B1952127
S31508001100244A254808F03EFC10220021684618F0BB
S315080011100DFDADB3022300208DF8083003F002FB65
S31508001120F7201E4DB9F1000F2ED000FB04531846C8
S3150800113052464946013083F8F3A018F002FDF7231A
S3150800114003FB045585F8F48085F8F57085F8F66094
S3150800115017F095F90F9B8DF801401844C4EBC404A9
S315080011600190013468468DF8004004F055FF20B11F
S31508001170B2210B4A084808F005FC04B0BDE8F08720
S3150800118003238DF80830CBE700FB045080F8F39072
S31508001190D5E700BF6CE301083FE901082E3F0020B0
S315080011A009E90108F0B5057885B02DB14FF4BE718F
S315080011B01F4A204808F0E6FB4FF488740E220021E7
S315080011C00DF1020018F0B2FC03231B4F8DF808300E
S315080011D004FB0574A38820795BBAADF80030FFF7E5
S315080011E0D5FA022806D194F80C31032B04BF002344
S315080011F084F80C314FF4887606FB0576B3798BB103
S31508001200737B57F825404FF47A756BB117F039F9A7
S31508001210F38905FB03440444B4FBF5F568460195D8
S3150800122004F0FAFE05B0F0BD738905FB0344F3E745
S3150800123055E901083CEC0108540D0020F0B5067884
S3150800124087B02EB14FF49C713F4A404808F09AFB8C
S3150800125017F017F94FF488733D4C03FB06435A7B86
S3150800126044F826001AB100225A7307F03FFB4FF4E0
S3150800127088777743E5192879FFF788FA022811D085
S31508001280032385F80C314FF4887303FB0644207951
S31508001290FFF77CFA022843D0207907B0BDE8F04072
S315080012A0FFF73ABE95F80C31022B1AD0032BEAD079
S315080012B0012B297B36D1002918BF042029792A7EDB
S315080012C0039154F826100092003ACDE9010118BF9F
S315080012D00122E02107F119032344062005F034FA18
S315080012E013E007F5877300272A793946039254F8DD
S315080012F026200197029295F80D2103200092234497
S315080013003A4605F021FA85F80D7148B94FF4887305
S3150800131003FB064494F80C31032B18BF84F80C0120
S3150800132007B0F0BD002918BF04200A4B0122059317
S315080013302B791146039354F82630CDE9010304238B
S31508001340009305ABC9E700BF55E9010814EC01088D
S31508001350540D0020111213142DE9F04F90F8143192
S3150800136089B0804601935BB1AC481A46AC4908F08F
S315080013705BFBAC4808F058FB002009B0BDE8F08FCD
S31508001380A94E019B3279002A0CBF1F46FF27FF2F63
S315080013908DF80B70F0D04FF4887909FB07F906EB46
S315080013A00904A279002AE7D090F813515DB104F038
S315080013B057FE627990F870309A42DDD00DF10B0035
S315080013C0FFF7F0FED8E790F80A210D2A22D1637DAF
S315080013D08BB1227E9549964808F026FB09F1180933
S315080013E0944F4E44237EAB4207D8924808F01CFB24
S315080013F0012384F80C310120BFE72A0703D115B170
S31508001400384608F011FB16F8011F8B4808F00CFB4C
S315080014100135E7E790F8112190F80911002A39D12A
S315080014200029A9D090F80821002AA5D022890132DE
S31508001430228198F8081100299ED0804808F0F4FA0D
S3150800144098F80821E02AD6D14FF488724FF0000A9E
S3150800145002FB076298F8005082F818A0002D00F0E9
S315080014601C812A467649724808F0DEFAC146444687
S31508001470DFF8C0B114F8011F6F480AF1010A08F035
S31508001480D3FAAA450DD21AF00F0FF3D1584608F031
S31508001490CBFAEFE722890132228100293FF46CAFAB
S315080014A0C7E74FF488747C43624808F0BDFA98F899
S315080014B001B004F1190ABBF1220FB24427D8BBF1D7
S315080014C0220F36D8DFE81BF08900C800D000DC0000
S315080014D0FF001D01280136014A017D0198013500EA
S315080014E03500350035003500350035003500350046
S315080014F03500350035003500350035003500350036
S315080015003500350035003500A201B701C901BBF128
S31508001510530F00F0DE8132D8BBF1440F00F0DB81B7
S3150800152028D8BBF1400F00F0B181BBF1420F00F0A3
S31508001530B8815A464349444808F076FA394808F0CB
S3150800154073FA2A4641493A4808F06EFA0024DFF849
S31508001550E8A0DFF8E0B0504619F8011F013408F09A
S3150800156063FAAC4280F036822307F4D1584608F075
S315080015705BFAF0E7BBF1520FDBD1354847E0BBF128
S315080015807E0F00F0AF81BBF17F0F00F0BF81BBF18A
S315080015907D0FCED1072D39D1012234446273B8F8B4
S315080015A002203079E28198F8052098F80610120290
S315080015B002EB014298F804100A4464214A43226166
S315080015C098F807302375FFF7F9F807F065F894F9E6
S315080015D01410206907F0B2F85FE0012D16D14FF418
S315080015E0887303FB07631A7E511C197600210AF8D3
S315080015F002101A7E511C197606210AF802101A7E64
S31508001600511C19760AF80250012337E0114808F0F0
S315080016100BFA044808F008FA3FE000BF70E9010831
S31508001620E5EB010869E80108540D002099E901086D
S31508001630B0E901085F2C0208C3E901086D33020806
S31508001640C9E90108C8EB010873EA010898EA010824
S315080016502CEA0108DEE90108012DD7D1A64808F0D1
S31508001660E3F916F008FF18E0012DCFD13079FFF71E
S31508001670A5F800203179FFF71DF9032301930CE043
S31508001680022DC3D198F8021002291AD84FF488738C
S3150800169003FB0763187915F008FE4FF4887303FBFC
S315080016A00766019B86F80C3104F0DAFC727990F82B
S315080016B070309A423FF49FAE0DF10B00FFF772FDB2
S315080016C099E68E48A3E7022DA0D198F8023096F83D
S315080016D004C08BB904AC2246894B03F1100E25468B
S315080016E018685968083303C573452C46F7D1032192
S315080016F0604606F03FFED0E761460020FFF776F821
S31508001700CBE7022D82D198F802301BB9284603F0A0
S3150800171009F8C2E70120FAE7022D7FF477AF4FF404
S31508001720887298F8021002FB0762764B33F811307C
S315080017305381B2E7F22D3FF669AF98F802204FF4CD
S315080017408873012A04D1002203FB07631A73A4E7EE
S31508001750022AA2D1012203FB0763F7E7F22D3FF61F
S3150800176055AF4FF4887404FB07642079FFF7BCF87B
S31508001770227E801AA84205D82079FFF7B5F8227E7E
S31508001780851AEDB24FF4887202FB0762117E013D9D
S31508001790481C107608200AF801000021EDB208F16D
S315080017A00103C8B285427FF62FAF13F8010F147EE6
S315080017B0013004F1010C82F818C001310AF804005E
S315080017C0EFE7012D7FF422AF4FF4887303FB07631D
S315080017D01A7E511C197609210AF802101A7E1989EF
S315080017E0501C18760AF80210197E1A89481C120A23
S315080017F018760AF8012007E7012D7FF407AF4FF4A2
S315080018008873002203FB07631A8146E7012D7FF4DC
S31508001810FDAE4FF4887303FB076393F80D21022A84
S315080018203FF63BAF511C83F80D111344022283F88F
S315080018300E21022322E7012D7FF4E8AE4FF48873C8
S3150800184003FB076393F80D21022A3FF626AF511CC6
S3150800185083F80D1113440D22E9E7022D7FF4D6AE65
S315080018604FF4887404FB076498F802002179FFF79F
S31508001870DDF994F80D31022B3FF60FAF5A1C84F8A8
S315080018800D211C44102384F80E31D2E7022D7FF473
S31508001890BDAE98F802303444003B18BF0123637587
S315080018A0FBE6022D7FF4B2AE3444237E5A1C227620
S315080018B043220AF80320237EE28A591C21760AF875
S315080018C00320227EE38A511C1B0A21760AF802307D
S315080018D09AE60D489BE6012D7FF498AE0023344422
S315080018E0E382DAE6012D7FF491AE002034442179B3
S315080018F0A071FFF7DBF8B4E6F6E9010808EA010883
S31508001900A2EA010888EC01084BEA0108012D7FF4D8
S315080019107DAE34442079FEF7E7FF0C287FF6BDAE8E
S31508001920237E5A1C22760AF803B02079FFF706F9B7
S3150800193003902079FFF71CF9237E04905A1C22761F
S3150800194004220AF80320237E5A1C227608220AF863
S315080019500320237E5A1C227600220AF80320237EBF
S31508001960591C21760AF80320237E5A1C22769DF8F4
S315080019700C200AF80320237E5A1C22769DF80D2097
S315080019800AF80320237E5A1C22769DF80E200AF8B0
S315080019900320237E5A1C22769DF80F200AF803207E
S315080019A0237E5A1C22760AF80300237E5A1C2276C6
S315080019B0C0F307220AF80320237E5A1C2276C0F3B6
S315080019C007420AF80320237E000E5A1C22760AF8DC
S315080019D0030019E600481DE65F2C02082DE9FF47BB
S315080019E09846037806460F46924623B1D421334AD1
S315080019F0334807F0C7FF4FF4887296F80090314CC9
S31508001A0002FB09F5281D0021204418F08FF82E4BFB
S31508001A102E4ACAF800302E4B2544C8F800300C9BD5
S31508001A201A600D9B1E600726B7FBF6F630466F71E7
S31508001A302E71FFF755F8002814BF01230023AB7158
S31508001A4037D0244807F0F0FF234807F0EDFF29793F
S31508001A50224807F0E9FF204807F0E6FF1D4807F08F
S31508001A60E3FF1D4807F0E0FF4FF4887303FB0944C2
S31508001A700523002703256381A379277384F80C516E
S31508001A80A3B1304607F066FF0E2239460DF1020073
S31508001A9018F04CF8A3888DF808505BBAADF80030FA
S31508001AA016F0EDFC0190684604F0B6FA04B0BDE8FD
S31508001AB0F08729790A4807F0B7FFD5E7B3EA01089E
S31508001AC064EC0108540D002059130008A5110008FC
S31508001AD03D120008D6EA010869E8010814EB010876
S31508001AE051EB0108034630B9044A107910B99379C5
S31508001AF00B7070470B700120704700BF540D002013
S31508001B007FB5002835D11C4C2579002D31D1A37914
S31508001B108B422BD0194B1A482A46A17100290CBFB3
S31508001B2001461946174807F07FFF174807F07CFF5C
S31508001B302179A079FEF7BAFF052303266381A379E5
S31508001B40257384F80C618BB10E2229460DF102002B
S31508001B5017F0ECFFA3888DF808605BBAADF8003083
S31508001B6016F08DFC0190684604F056FA284604B033
S31508001B7070BD0125FAE700BF540D002080EB01086F
S31508001B8088EB010891EB010869E8010870B58C211A
S31508001B90044690F89854D0F8C00401FB0541D0F8E3
S31508001BA008311C31984728B14FF48371214A2248DD
S31508001BB007F0E8FE0221D4F8C00413F016F928B19C
S31508001BC040F207111D4A1C4807F0DCFED4F8C00491
S31508001BD004EB450204EB8503C66CB2F86A23D3F816
S31508001BE04C130068B04728B14FF48471144A124860
S31508001BF007F0C8FE182303FB0545D5F8E06216F082
S31508001C0040FC361A002EF8DC16F05FFC012016F0B0
S31508001C105BFCD4F8C0341A6A1868904728B14FF4A8
S31508001C208971084A044807F0ADFE16F02AFCC4F884
S31508001C306C0470BD9EEC010840000208EBEC01083C
S31508001C403BED0108A5ED0108F8B58C21044690F88E
S31508001C509854D0F8C00401FB0541D0F80831483142
S31508001C60984728B140F24D11194A1A4807F08AFEDA
S31508001C70CC21D4F8C00413F0B8F828B14FF4A771F2
S31508001C80154A144807F07EFE182707FB0547D7F8BC
S31508001C90E06216F0F6FB361A002EF8DC16F015FC94
S31508001CA0002016F011FC8C2202FB0545D4F8C0343E
S31508001CB0696F5A6A1868904728B14FF4AC71074A99
S31508001CC0044807F05FFE16F0DCFBC4F87004F8BDA4
S31508001CD0D8ED0108B6FF010825EE0108B8EE01089F
S31508001CE0F8B58C21044690F89854D0F8C00401FB46
S31508001CF00541D0F804314831984728B14FF4B171FD
S31508001D00194A1A4807F03EFE8C21D4F8C00413F08D
S31508001D106CF828B140F26311154A144807F032FEF0
S31508001D20182707FB0547D7F8E06216F0AAFB361A0C
S31508001D30002EF8DC16F0C9FB002016F0C5FB8C2235
S31508001D4002FB0545D4F8C034696F5A6A186890478B
S31508001D5028B140F26D11074A044807F013FE16F041
S31508001D6090FBC4F87004F8BD12EF010889FF01085A
S31508001D705FEF0108B8EE01082DE9F3418C2690F8CB
S31508001D809854D0F8C03415FB06F606F11C0707442C
S31508001D9004463946D3F8C8201868904728B14FF446
S31508001DA09871324A324807F0EDFD8C2303FB054350
S31508001DB0D4F8C0049A6AD0F8488093F930100068BD
S31508001DC0C04728B14FF499712A4A294807F0DAFD25
S31508001DD040F20241D4F8C00413F007F828B140F2E3
S31508001DE03511254A224807F0CDFD8C2303FB054310
S31508001DF004EB4501B1F86A13D4F8C0045B8E01916F
S31508001E0004EB8501D1F84C1306F18A020091D0F84B
S31508001E10CC60394600682244B04728B140F23711F1
S31508001E20164A134807F0AEFD182303FB0545D5F8F7
S31508001E30E06216F026FB361A002EF8DC16F045FB93
S31508001E40012016F041FBD4F8C0341A6A1868904786
S31508001E5028B14FF4A2710A4A054807F093FD16F017
S31508001E6010FBC4F86C0402B0BDE8F081DBEF010892
S31508001E70E3FF010849F00108FEF0010864F10108D2
S31508001E80A5ED010870B58C21044690F89854D0F851
S31508001E90C00401FB0541D0F804311C31984728B12C
S31508001EA040F21B11214A224807F06CFD0221D4F8A2
S31508001EB0C00412F09AFF28B14FF48E711D4A1C48CF
S31508001EC007F060FDD4F8C00404EB450204EB850373
S31508001ED0C66CB2F86A23D3F84C130068B04728B129
S31508001EE040F21D11144A124807F04CFD182303FB53
S31508001EF00545D5F8E06216F0C4FA361A002EF8DC65
S31508001F0016F0E3FA012016F0DFFAD4F8C0341A6A9C
S31508001F101868904728B14FF49371084A044807F0A7
S31508001F2031FD16F0AEFAC4F86C0470BD7BF20108F8
S31508001F3013000208EBEC01083BED0108A5ED0108CA
S31508001F401FB5044690F82D00002836D0072294F8CD
S31508001F50A50194F82E3018443D3094F804352044F1
S31508001F60CDE90203236A019300230093A36A94F838
S31508001F70331015F0CAF920B1F521114A114807F0B6
S31508001F8001FD94F8043506220293236A04F135000C
S31508001F90019300230093A36A94F8341015F0DDFA30
S31508001FA020B1FC21084A074807F0ECFC94F83430C5
S31508001FB0043384F8343004B010BD0622C9E700BFE4
S31508001FC0C8F201086D000208F0F20108F0B5BBB0CE
S31508001FD017AF04468C220021384617F0A7FD1822B1
S31508001FE0002600210DEB020017F0A0FD217B2068DA
S31508001FF0049603F0F5FC0546002840F09A8005ABE8
S31508002000217B20680DF10F0203F000FD29461422FA
S315080020100CA817F08BFDD4F8643320680F9313F0DF
S31508002020A3FCD4F8642394F90E10237B8DF84100A1
S31508002030206803F051FD9DF80F308DF840008DF8AB
S3150800204030309DF8143020688DF8313013F085FC57
S315080020509DF830209DF831108DF83200104612F0A8
S31508002060A4FE11468DF83300206813F043FC94F85B
S3150800207034308DF836508DF837300123ADF83400FA
S31508002080ADF8383018AD0CAE8DF85C300FCE0FC5F4
S3150800209033680CA92B60D4F870330DA8D3F8C03474
S315080020A0D3F8A430984702238DF81930864B04904C
S315080020B007932146D4F870030CAA05F083FC28B1CF
S315080020C040F2F311814A824807F05CFC9DF83030F3
S315080020D08DF81830049B0B93D4F8B433099394F80D
S315080020E0B833002B00F0EE8016F0F1F9099B1B1AA5
S315080020F00993002384F8B8338DF82230022384F834
S315080021006E33009794F83430D4F8700304F135022E
S3150800211006A905F071FC50B106236E489DF83010EB
S3150800212084F86E3307F080FC6B4807F07DFC3BB003
S31508002130F0BD012853D1217B206805AA03F07EFC57
S3150800214031462C220CA817F0F1FCD4F86423237B23
S3150800215094F90E102068149203F0BEFC8DF85A000C
S31508002160206803F0CBFC5D4B4FF47A72159340F26E
S31508002170FF13ADF8583094F834308DF84550ADF863
S315080021804630574B139010934FF48273ADF848308E
S315080021909DF814308DF85C60534346F2A8120C93F0
S315080021A0504B18ADCDE90D2304230CAE8DF83C3009
S315080021B00FCE0FC50FCE0FC596E80700D4F87033BB
S315080021C085E80700D3F8C0340CA9D3F8A83010A8BE
S315080021D09847032304908DF81930434B68E7022883
S315080021E069D10DF10F03217B20680DF10E0203F072
S315080021F037FC182231460CA817F098FCD4F864234B
S3150800220094F90E10237B206803F066FC9DF80E30C7
S315080022108DF8440020688DF835308DF8346003F069
S315080022204BFC01238DF838309DF80F308DF83600B9
S315080022309DF80E008DF8373003F02AFC8DF839002A
S31508002240206803F06DFCD4F864338DF840600F9372
S31508002250D4F870330C90D3F8C0340596D3F8DC5014
S31508002260186805AA0CA9A84728B140F2DB111F4A2D
S31508002270174807F087FB05990020013916F022F95F
S3150800228018ADADF846000CAE0FCE0FC596E80300A4
S31508002290D4F8703385E80300D3F8C00494F83420E2
S315080022A0D0F8D85004AB00680CA9A84704238DF8C9
S315080022B019300F4BFCE640F2ED110E4A044807F0C0
S315080022C061FBF6E6012317E78D1B0008B2EA010851
S315080022D06CFF0108BBF3010869E801080F1D21100E
S315080022E028000218A0860100851E000815F30108BB
S315080022F0791D00089EF301082DE9F04790F86CA3B4
S31508002300B4B004460F4600685146904603F068FB91
S315080023100DF1440905468C220021484617F006FCB3
S3150800232084F86D7357B1012F00F0B08040F2222176
S31508002330844A854807F026FB002601E0D4F868633E
S31508002340002D40F0A5800DF11703514620680DF1C8
S31508002350160203F05BFB29460E220DF11E0017F04C
S31508002360E5FB206813F000FBB4F880338DF82900EC
S3150800237020688DF82A30099613F0EFFA9DF8165062
S315080023809DF817108DF81A0028468DF818508DF804
S31508002390191012F00AFD012251468DF81B0020681B
S315080023A003F008FC0126053029468DF81F00206831
S315080023B08DF8216013F09EFA1DADADF81C008DF85E
S315080023C0446006AE0FCE0FC533682B60D4F8783359
S315080023D028932146D4F870030DF1170205F0F2FA96
S315080023E028B140F26D21594A574807F0CBFA122214
S315080023F000210DF11A0017F099FB9DF81730544A81
S315080024008DF818309DF8443006A9012B14BF012316
S3150800241000238DF819304F4B08BF13460793D4F89D
S315080024207C33CDF800900B9304F2ED32FF23D4F8F9
S315080024307003CDF8248005F0DFFA9DF817200028F0
S3150800244075D10423444884F86E33791C07F0ECFAF6
S315080024509DF84430012B414B62D153F827509DF823
S3150800246075203F4B206853F82290209E9DF8747083
S3150800247013F07AFA3346CDE901904246294639489F
S31508002480009707F0D1FA34B0BDE8F087666957E7D8
S31508002490012D3ED1514620680DF1170203F0CEFA00
S315080024A02022002109A817F041FB20680E9603F0A8
S315080024B025FB2D4B4FF47A720F9340F2FF13ADF8BC
S315080024C040302A4B8DF82D500A93FF23ADF82E3055
S315080024D04FF48273ADF830309DF817300D905343A2
S315080024E046F2A8120693224B1DADCDE90723042315
S315080024F08DF82430002306AE8DF844300FCE0FC574
S315080025000FCE0FC596E8070085E80700D4F87C3398
S315080025105EE740F26721174A0B4807F033FA58E797
S31508002520259A53F82710144807F07EFAABE70623D6
S315080025301146124884F86E3307F076FA104807F009
S3150800254073FAA0E7E7F301084FFF0108B2EA0108AA
S31508002550491C0008E11C0008FAF3010824010208D6
S31508002560EC00020818F401080F1D211028000218B3
S31508002570A0860100A1F3010853F40108BBF3010882
S3150800258069E8010873B5044601460DF10302D0F85F
S31508002590700305F017FA9DF80310D4F8700304F2D7
S315080025A0833301AA05F0FAFA94F883130A2900F28C
S315080025B0AC80DFE801F069AAAA061B6DAAAAAAAA36
S315080025C0A800019BC4F8843394F86E3394F88313F7
S315080025D0022B00F09E80042B00F0A4800A2940F00C
S315080025E0A380062384F86E3302B070BD8C21019B4C
S315080025F09DF80320C4F8EC34D4F8703301FB023399
S315080026001A7E012A26D1B3F88220B3F88030A4F8BE
S31508002610F024A4F8F2349DF80330D4F8702394F823
S31508002620ED1303F5D87332F81330490984F8EC33FF
S3150800263003D0D423CB40DB0719D5424807F0F4F979
S31508002640414807F0F1F9052384F88333002384F819
S31508002650EC33B9E722B9B3F88430A4F8F024D8E704
S3150800266040F2B621394A3A4807F08CF9D3E794F88C
S315080026708233022BA8D1D4F8EE13A26A8A42A3D0D9
S31508002680344807F0D1F9DBE7334807F0CDF99BE783
S3150800269094F86D33019D33BB667ED4F87C23D4F859
S315080026A084331344ED1AD4F8A833ED1A94F86C332E
S315080026B003F5E27334F91330ED1A15F008FF4FF4F9
S315080026C07A732D1A03FB165515F005FF2D1A002DE2
S315080026D00FDA94F86C3304EB4303B3F88823013A12
S315080026E0A3F8882370E7012B0ABF667E0026013609
S315080026F0D3E73FF469AF94F86C3304EB4303B3F8BC
S3150800270088230132ECE71548BFE7154807F08CF92E
S315080027105AE7032384F86E3394F883330A2B7FF43D
S3150800272063AF5EE70523F5E70E4807F07DF90E4827
S3150800273007F07AF94FF44571044A054807F022F97B
S31508002740EAE700BF65F40108AEF40108B2EA010839
S3150800275035FF010883F40108E5F40108FDF40108D2
S3150800276026F5010841F5010869E801082DE9F04355
S3150800277087B004460F4615F084FE80465FB1012FE8
S315080027805DD0414840F23A31404A07F0FBF8002054
S3150800279007B0BDE8F083217B227E206894F8199063
S315080027A002F02CFE4FF47A73014603FB09F9206800
S315080027B084F86C1303F014F9002847D194F86C13C5
S315080027C020680DF116030DF1150203F01FF915F037
S315080027D07EFE064615F07FFE94F86C134A4601F510
S315080027E0E27334F91350D4F8BC3335440026039306
S315080027F004F55E73019304F55F730093029605442E
S3150800280004F56073206813F0D4F804F56A7300932E
S31508002810B4F880336AB294F86C13206813F010F990
S31508002820D4F88453D4F8A8331D44A5EB080515EB52
S3150800283009051CD50523012084F86E33A8E74FF453
S315080028407A79637EA17C03FB0999B0E7012807D151
S3150800285094F86C1320680DF1170203F0EFF8B6E749
S3150800286040F253310A4A084807F08CF8AFE7394670
S31508002870204605EB0802FFF73FFD0648294607F004
S31508002880D3F8304684E700BF14FF0108E7F30108D0
S31508002890A1F301086DF5010800232DE9F04F044660
S315080028A087B080F8B13380F83F3380F8343184F844
S315080028B0953165E094F8341160290AD9BE4807F0C5
S315080028C0B3F8BE4807F0B0F84FF0FF3007B0BDE8E0
S315080028D0F08FE01890F8EC118D1E112D00F2A485EA
S315080028E0DFE815F0120039008401B0013C026902E4
S315080028F051038503E003A205A2056004A205A2050B
S31508002900A904DE04A2054F050233934208DB00231F
S3150800291084F8DE3294F8B133033384F8B1332FE008
S3150800292094F8DC23022AF5D10322234484F8DC2315
S3150800293093F8EC2190F8ED11A14807F075F894F892
S31508002940B133234493F8ED2184F8C02393F8EE318C
S3150800295084F8C133DEE70025EEB206EB8601471898
S3150800296097F8EC71032F05D105311944914205F109
S315080029700105F1DD66B9053384F8B13384F8DE6202
S3150800298094F8DE2294F8B1339A4293D800209DE752
S3150800299000258C4F2A4694F8B13302EB8202134481
S315080029A0234493F8F0210135029293F8EF21294642
S315080029B0019293F8EE213846009293F8ED313246AB
S315080029C007F032F8EBB29E42E4D800270725DFF875
S315080029D01892DFF8E8A194F8B13307EB870213449D
S315080029E0234493F8EF2193F8EEB193F8F0310BEB0B
S315080029F0022B1FFA8BFBC3F3021801375A464346CC
S31508002A003946714807F010F85A464146206802F0E0
S31508002A1057FD10F1020F834606D1484607F004F821
S31508002A20504607F001F80625FBB29E42D3D8BBF103
S31508002A30FF3F06D1654806F0F7FF604806F0F4FF49
S31508002A400625771E94F8B13307EB870727443B44DE
S31508002A5093F8ED8194F84A334FEA18192BB3B9F174
S31508002A600F0F07D05A4806F0DFFF544805F0050552
S31508002A7006F0DAFF08F00F08B8F10F0F07D055482F
S31508002A8006F0D2FF4D4805F0030506F0CDFF206895
S31508002A9002F04AFF013038D14F4805F0060506F026
S31508002AA0C3FF464806F0C0FF2FE0B9F10F0F06D066
S31508002AB001224946206802F093FD013013D094F8AC
S31508002AC0B1333B4493F8ED8108F00F08B8F10F0FC6
S31508002AD041D04146206803F0A9F901303BD13D4871
S31508002AE005F00305DBE73A4806F09EFF334806F093
S31508002AF09BFF94F8B13305F005053B4493F8ED8147
S31508002B0008F00F08B8F10F0FE3D194F8B13306EBCC
S31508002B108602134494F8DE22DBB29A4284F8B13373
S31508002B20FFF42EAF94F8343103EB4602602A3FF7E0
S31508002B3027AF00210327E2180131C8B2864282F87E
S31508002B40357182F8365102F10202F5D803EB4603D5
S31508002B5084F8343114E7072DD7D194F8B1332068B7
S31508002B601F4497F8F07102F07DFCB8F10F0F05D0FD
S31508002B704146A27E206802F05DFCA07307F00F07AD
S31508002B80012F4FF0010338BF0127B9F10F0F18BF06
S31508002B9084F80D90617B84F8B9331048E77306F022
S31508002BA043FF94F90E100E4806F03EFFE17B0D48F0
S31508002BB006F03AFFA9E700BF8BF5010869E80108A6
S31508002BC0B5F50108CFF5010802F6010862F6010815
S31508002BD085F60108A4F60108C2F60108F4F601080C
S31508002BE00BF701081CF701083FF60108591C91422A
S31508002BF006DB023384F8B133002384F8DE32BFE6FD
S31508002C00214491F8EC11B94806F00EFF94F8B13357
S31508002C10E21892F8ED21023302F00F02E26194F80D
S31508002C20DE22DBB29A4284F8B133FFF4A9AE94F8F7
S31508002C3034315F2B3FF6A4AE0421E21882F8351131
S31508002C40013385E7191D914201DB0533D2E721449B
S31508002C5091F8EC31009390F8EF3190F8EE2190F866
S31508002C60ED11A34806F0E0FE94F8B133206823443A
S31508002C7093F8ED61C6F30216314602F05DFC0130A9
S31508002C8057D19C4806F0D0FE9B4806F0CDFE062597
S31508002C9094F8B1332068234493F8ED8108F00F08BF
S31508002CA0414602F05DFC013007D1944806F0BCFEAF
S31508002CB0914805F0050506F0B7FE94F8B1132068AB
S31508002CC001F5F771214412F05DFE014607462068BA
S31508002CD002F0A2FF01302ED1894806F0A5FE8648EB
S31508002CE005F0030506F0A0FE94F8B13394F8DE2249
S31508002CF00533DBB29A4284F8B133FFF441AE94F857
S31508002D0034315E2B08D80521E218023382F83511D2
S31508002D1082F8365184F8343194F895310D2B3FF604
S31508002D202FAE0521E21882F8961182F897510233E0
S31508002D30BDE50725ACE7072DD6D13146714826767D
S31508002D4084F81280676106F06FFEA17C6E4806F073
S31508002D506BFE61696D4806F067FEC5E70DF117025F
S31508002D602146D4F8700304F02DFE694806F05CFE8F
S31508002D7094F8B13394F8DE220133DBB29A4284F830
S31508002D80B133FFF4FDAD94F834515D2D3FF6F8AD3F
S31508002D900623254485F8353115F09BFB85F8360161
S31508002DA094F83431B4F8F024E11802F03F0281F8BF
S31508002DB037210333CCE6591D914201DB063319E767
S31508002DC0214491F8EC31019390F8F031009390F892
S31508002DD0EF3190F8EE2190F8ED114E4806F024FEFA
S31508002DE0206812F0B2FD48B94B4806F01DFE42486D
S31508002DF006F01AFE94F8B13306338EE594F8B1332B
S31508002E002068234493F8ED61314602F05FFC0130F7
S31508002E1069D1424806F008FE374806F005FE002547
S31508002E2094F8B113206801F5F771214412F0AAFD50
S31508002E3001468146206802F005FF013007D138486F
S31508002E4006F0F2FD2C4805F0020506F0EDFD94F8B3
S31508002E50B1332068234493F8F17107F00F07394618
S31508002E6002F09EFB013007D12E4806F0DDFD224810
S31508002E7005F0010506F0D8FD94F8B133206823441F
S31508002E8093F8F1814FEA1818414602F089FB0130A0
S31508002E904ED1254806F0C8FD174806F0C5FD47453A
S31508002EA005F0010507D9214806F0BEFD124805F0D0
S31508002EB0010506F0B9FD94F8B13394F8DE2206331D
S31508002EC0DBB29A4284F8B133FFF45AAD94F8343140
S31508002ED05E2B3FF655AD0721E21882F8351182F8C8
S31508002EE03651023334E603259AE700BF2DF7010869
S31508002EF047F7010871F7010869E8010893F701081F
S31508002F00AFF70108D3F70108EEF7010803F801083F
S31508002F1019F8010833F801085DF801089AF801085C
S31508002F20BEF80108DEF80108FBF8010818F90108DF
S31508002F304745B8D8032DBED132464946206802F027
S31508002F4021FC32464946206802F036FC3A4643469A
S31508002F503146206802F052FC3246B9F1000F10D112
S31508002F604946206802F080FC3146206802F098FC49
S31508002F703B4602463146BC48CDF8008006F054FD73
S31508002F8099E70121EDE7591C9142BFF632AE21447B
S31508002F9091F8EC11B54806F047FD94F8B133E218FC
S31508002FA092F8ED21023302F00F02012A38BF0122FE
S31508002FB0627694F8DE22DBB29A4284F8B133FFF4E3
S31508002FC0DFAC94F834315F2B06D80821E2180133B8
S31508002FD082F8351184F8343194F895310E2B3FF682
S31508002FE0CFAC0821E21882F8961101335FE4591C28
S31508002FF09142BFF6FEAD21449D4891F8EC1106F0CA
S3150800300013FD206812F09EFC48B99A4806F00CFD9C
S31508003010994806F009FD94F8B13302337DE494F833
S31508003020B133964A234493F8ED11206801F00F0353
S31508003030D35C827A023BDBB2934228BF134694F9EB
S315080030400E20A3769342A8BF1346C1F30011A373BB
S3150800305012F092FC94F8B1332068234493F8ED11EA
S31508003060C1F3401112F08BFC94F8B13394F8DE22C8
S315080030700233DBB29A4284F8B133FFF481AC94F898
S3150800308034315F2B06D80921E218013382F835114D
S3150800309084F8343194F895310E2B3FF671AC09213A
S315080030A0E218A0E7191D9142BFF6CFAD214491F869
S315080030B0EC31009390F8EF3190F8EE2190F8ED118D
S315080030C06F4806F0B1FC206812F03FFC48B96D481D
S315080030D006F0AAFC684806F0A7FC94F8B133053355
S315080030E01BE494F8B1332068234493F8ED61314624
S315080030F002F0D6FB00283DD1634806F095FC5E48F1
S3150800310006F092FC012594F8B113206801F5F771D1
S31508003110214412F037FC01460746206802F07CFD80
S31508003120013029D1594805F0020506F07DFC5248C0
S3150800313006F07AFC94F8B13394F8DE220533DBB254
S315080031409A4284F8B133FFF41BAC94F834315E2B01
S3150800315008D80A21E218023382F8351182F8365166
S3150800316084F8343194F895310D2B3FF609AC0A21D1
S31508003170E218D8E50325C6E7032D11D132463946AC
S31508003180206802F019FB31460028206818BF002580
S3150800319002F0A8FB314602463D4806F045FCC6E764
S315080031A00125C7E7591D9142BFF608AE94F8DD23FD
S315080031B0022A7FF421AE0323214484F8DD3391F8F3
S315080031C0EC31019390F8F031009390F8EF3190F8D4
S315080031D0EE2190F8ED112F4806F026FC94F8B1334D
S315080031E02D48234493F8EF1193F8EE21090441EA98
S315080031F0022193F8ED21114393F8F02141EA026187
S31508003200C4F8C41393F8F1214FF47A735A43120A97
S31508003210C4F8C82306F008FC94F8B133063384F8DA
S31508003220B133D4F8D033C4F8CC3315F028F9C4F840
S31508003230D403FFF7A5BB94F8DE23022A10D1032393
S31508003240164884F8DE3306F0EFFB94F8B133013301
S3150800325084F8B13394F8E93384F8EA33FFF790BB7E
S315080032600133FFF75ABB00BF3EF9010872F901089E
S3150800327093F90108B3F9010869E801082C01020865
S31508003280F2F9010818FA01089AF80108BEF80108C7
S3150800329054FA01087EFA0108ABFA0108D6FA0108C1
S315080032A0191D9142BFF6D1AC214491F8EC31009337
S315080032B090F8EF3190F8EE2190F8ED115E4806F09F
S315080032C0B3FB94F8B113206801F2ED11214412F012
S315080032D059FB0746A8BB032594F8B1332068234455
S315080032E093F8F06106F00F06314602F039F901301D
S315080032F035D1524806F098FB514805F0010506F00D
S3150800330093FB94F8B13394F8DE220533DBB29A4284
S3150800331084F8B133FFF434AB94F834315E2B08D813
S315080033201121E218023382F8351182F8365184F8F1
S31508003330343194F895310D2B3FF622AB1121E21862
S31508003340F1E40146206802F067FC0130C3D13D482C
S3150800335006F06AFB3A4806F067FB0225BCE7032D30
S315080033600DD131463848C4F8E47384F8E86306F0AA
S315080033705BFBD4F8E413354806F056FBC1E7022593
S31508003380BFE7D91C914201DB043333E490F8F031EE
S315080033902144009391F8EC3190F8EE2190F8ED1164
S315080033A02B4806F041FB94F8B113206801F2ED11A1
S315080033B0214412F0E7FA054658B30146206802F0A0
S315080033C02BFC01301DD1234806F02EFB1C4806F0C5
S315080033D02BFB002194F8B13394F8DE220433DBB2D8
S315080033E09A4284F8B133FFF4CBAA94F834315E2BB1
S315080033F03FF6C6AA1320E21882F8350182F836117C
S315080034006FE5C4F8E0532946134806F00DFB012181
S31508003410E0E7C4F8E003256815F033F801462846C6
S3150800342002F0E8FB0546EEE700230C4884F8DE3296
S3150800343006F0FAFAFFF7A4BAE8FA010843FB01080E
S3150800344069E8010819FB010866FB010880FB010809
S315080034509BFB0108C5FB0108ECFB010803FC0108FE
S31508003460F0B5044687B090F8041504A806F05AFA91
S3150800347094F8041502A806F03DFA0822364937489A
S3150800348006F0D2FA0026364F02AD384615F8011B6B
S31508003490013606F0C9FA082EF7D1324806F0C4FA02
S315080034A0324631492D4806F0BFFA00262C4F04ADA6
S315080034B0384615F8011B013606F0B6FA082EF7D17C
S315080034C0284806F0B1FA4FF6FF72B4F8D431274807
S315080034D093421CBF0133A4F8D43194F80425B4F8F8
S315080034E0D41106F0A1FA002384F82F30012323749F
S315080034F0E373234694F8302006A902F0030203F882
S31508003500352F184604AA04F13D0511F8016D03F894
S31508003510016F12F8016DAB421E72F6D11321B4F891
S31508003520D43184F83410A4F8463001AA94F8043546
S3150800353013F053FF28B140F2B7510D4A0D4806F073
S3150800354021FA94F834300199E2180433C2F8351098
S3150800355084F8343007B0F0BD1EFC0108B0E9010854
S31508003560C3E901085F2C020825FC01082DFC0108A7
S3150800357049FC0108C0FE010873B50446B4F8F223F5
S3150800358094F8D761ADF8042094F8D821D0F8EE0362
S3150800359094F8D651120442EA06222A4300F47F43DD
S315080035A000F47F05C1B22B430B439A4200900BD11E
S315080035B011463B4806F038FA3A4806F035FA4FF015
S315080035C0FF35284602B070BDBDF80430B4F8D421E2
S315080035D00DF10301C4F8D601A4F8DA31684694F867
S315080035E0043513F020FF204611F002FC206801F094
S315080035F0A7FE94F8EC330D2B21D8D4F86423217B4D
S31508003600206801F04FFFD4F8F4332068A36294F8D9
S31508003610F833C3F3021103F00F03A37494F8F933D4
S31508003620217603F00F03012B38BF0123637601F0DF
S3150800363083FFB8B1217E1C4806F0F6F9BCE704F50D
S31508003640EE710A4604F2FA3304F20A4053F8045BB0
S31508003650834242F8045BF9D1206802F00BFB00288C
S31508003660CBD1D0E7A17C206801F07AFF054610B1DE
S31508003670A17C0E48E0E70223A16A84F882330C484D
S3150800368006F0D2F9217E0B4806F0CEF9A17C0A484D
S3150800369006F0CAF9617E094806F0C6F991E700BF47
S315080036A073FC010869E80108A7FC0108D7FC0108B2
S315080036B007FD010815FD010830FD010845FD010853
S315080036C070B50026017B8EB004460068029602F0AB
S315080036D087F9054600283FD10DF10703217B2068AD
S315080036E00DF1060202F092F9122229460DF10E009A
S315080036F016F01CFA9DF8063020688DF80C309DF8F7
S3150800370007308DF80D3012F028F99DF80C209DF839
S315080037100D108DF80E00104611F047FB0123ADF889
S31508003720143094F8343011468DF80F0020688DF85F
S31508003730133012F0DFF8D4F870338DF81250D3F83E
S31508003740C034ADF81000D3F8A43003A904A89847EC
S31508003750029002980EB070BD01283AD1217B2068EC
S315080037600DF1070202F06AF92C22314603A816F079
S31508003770DDF9D4F8643320680B9302F0BFF92C4BBB
S315080037804FF47A720C9340F2FF13ADF8343094F884
S3150800379034308DF82150ADF82230264B0A90079325
S315080037A04FF48273ADF824309DF8073003A95343CC
S315080037B046F2A8120393204B07A8CDE90423042355
S315080037C08DF81830D4F87033D3F8C034D3F8A8304D
S315080037D0BDE7022824D10DF10703217B20680DF1EE
S315080037E0060202F03DF93146182203A816F09EF9A2
S315080037F001239DF806008DF814308DF8110002F0AB
S3150800380047F9D4F870338DF81500D3F8C00494F846
S315080038103420D0F8D85002AB03A90068A84798E727
S3150800382040F27F61054A064806F0ACF891E700BF0A
S315080038300F1D211028000218A08601009EF301081A
S31508003840AEFE0108F7B5B0F8443304465BBAA0F8F3
S315080038504633002380F8B03390F88233012B23D106
S3150800386014F00DFE042384F84A33D4F85C33054675
S315080038700133C4F85C332046FFF722FF0A26B0FB63
S31508003880F6F0D4F86033284403F56163984220467D
S3150800389080F0CB80FFF714FFB0FBF6F02844C4F89D
S315080038A05803002384F88233D4F8402394F8461347
S315080038B08A42B4BF0023012384F84833237C012BB2
S315080038C000F2CE8001232374236A01320133236276
S315080038D0C4F8402394F84733D4F840230B449A425B
S315080038E023DB94F8B0332068032B40F0BF80617B5C
S315080038F001F0BAFE94F8A5310146009394F83320F6
S315080039000023206801F006FF78B904F10F0300933D
S3150800391094F84A13206804F10E0304F10D0211F01D
S315080039201EFF94F84633C4F84033D4F84033B4F84D
S315080039304C23934206DB2AB140F2DF41564A5748E8
S3150800394006F020F894F8343194F895219342C0F0A3
S315080039509780002B00F094801A4684F83F3304F2CF
S31508003960351104F2DF2016F0ECF8012384F8B033A1
S31508003970E37B2374002394F8821384F834310229F4
S3150800398094F8B03316D1032B00F0838004F2493340
S315080039900193637B04F24A320093206804F10C0316
S315080039A011F036FF013005D140F2FC413C4A3B4854
S315080039B005F0E8FF94F8B033012B6AD194F8A531E5
S315080039C004F2DF25009394F83F230023217B206827
S315080039D001F0A0FE78B10022217B206894F83F63AD
S315080039E002F0E8F8A0F1080231462846D2B200F003
S315080039F049FE84F83F03294694F83F2304F13E0024
S31508003A0016F09FF894F83F33204684F833300023A5
S31508003A1084F82D3040F20123E38511F070FA204630
S31508003A2003B0BDE8F040FEF78BBAFFF749FED4F8BD
S31508003A306033284403F51A43B03398424FF00C0715
S31508003A40204603D2FFF73CFE784325E7FFF738FE0A
S31508003A50052307FB005584F84A33C4F8585320E772
S31508003A600322013B84F8B023237433E704F10F03E0
S31508003A70009394F84A1304F10E0304F10D024EE77D
S31508003A8084F8A52104F5CB7104F5D37016F059F81E
S31508003A9070E703B0F0BD00BF57FD0108E1FE01085D
S31508003AA081FD010810B500680C461146012202F096
S31508003AB081F8421DD2B2A24206D20448214605F038
S31508003AC0B3FF4FF0FF3010BD0020FCE7ACFD010846
S31508003AD00023F0B504468BB090F8EC03099300F088
S31508003AE03BFD94F86C23054694F8EC132046FFF743
S31508003AF0D9FFC54240F0ED8004F2ED3630460DF1AF
S31508003B00210308AA0DF11F0100F03AFD0546002819
S31508003B1040F0DF809DF81F3094F8EC13012B36D166
S31508003B203246304694F8043513F066FC014638BB35
S31508003B30C4F8540314F0A3FC042594F8EC33C4F831
S31508003B405003043B84F8EC3300269DF81F30C4F874
S31508003B50406384F8B5319DF82030C4F8546384F87E
S31508003B60B6319DF8213084F8FE34099B636214F05F
S31508003B7086FC84F8A561C4F8500384F89561A9E029
S31508003B80684805F051FF684805F04EFFDCE7636AB0
S31508003B9004F2B917099304F2B713039304F2F54331
S31508003BA0029304F2F44304970193A36AADF8220042
S31508003BB0009330460DF1220304F5DC7200F006FD91
S31508003BC0002840F08680BDF8220009A900F038FDDB
S31508003BD000287ED1012594F8EC1394F804350439AD
S31508003BE0C9B284F8EC1303936318D3F8ED33009540
S31508003BF00293099B062201933046A36A13F065FCDB
S31508003C00002866D194F8B73125749A0641D4C3F3CF
S31508003C10001384F8F73494F86D33002B40D1D4F8A8
S31508003C206833C4F8F83494F86C3394F8B85184F8C7
S31508003C30FC3494F8F534002B67D094F8EC1394F818
S31508003C40F4340939491BC9B284F8EC13002B44D162
S31508003C50002D38D194F8043504F5F677CDE90273CA
S31508003C60099B0622019301230093A36A04F2F63006
S31508003C7013F0A9FB28B140F215412C4A2C4805F04F
S31508003C8081FE94F8EC23F22A15D92A4805F0CCFED1
S31508003C9079E794F82F20042A08BF84F8FD54B6E77C
S31508003CA0012B01D16369BCE740F2EE31224A204874
S31508003CB005F068FEB7E73946304684F8DE2215F087
S31508003CC040FF032540E71D4805F0AEFE164805F0FF
S31508003CD0ABFE002528460BB0F0BD94F8043505F276
S31508003CE0F630CDE90263099B07220193012300936D
S31508003CF0A36A204413F067FB28B140F233410B4A0C
S31508003D000B4805F03FFE94F8B8510DB901251BE79D
S31508003D102A46394604F5F67015F013FF84F8DE5284
S31508003D20022511E7C5FD010869E8010812FE010828
S31508003D30F6FE01083AFE0108FFFD010865FE0108C6
S31508003D4070B590F8B23304460E4643B1204805F0E4
S31508003D506BFE204805F068FE4FF0FF3070BD90F806
S31508003D60BA337BB9D0F8585314F089FB2D1A002DB5
S31508003D7008DD14F084FBD4F858230146164805F0EC
S31508003D8053FEE9E794F82C30012B04D1022384F87A
S31508003D9082330020E2E714F072FBC4F8B46301260C
S31508003DA0C4F8AC03054684F882632046FFF758FB3F
S31508003DB0206811F0CDFD6076206811F0CBFDD4F8AF
S31508003DC05C33A0740BB9C4F8605384F8B263E0E7B7
S31508003DD03C01020869E80108660102082DE9F34773
S31508003DE0B2F100089DF8287008BF00271E4690F813
S31508003DF0A531044600930D460023017B3A46006828
S31508003E009DF82CA001F086FC01300AD12C4805F05B
S31508003E100BFE2C4805F008FE4FF0FF3002B0BDE857
S31508003E20F087BAF1040F04D0BAF1020F01D0264880
S31508003E30EDE794F82C302BB994F88233022B01D095
S31508003E402248E4E794F8B2330BB12148DFE720466D
S31508003E5011F0E1F8814608B11E48D8E714F00FFBC7
S31508003E600C9BC4F8AC03C4F8B43384F82D5084F81A
S31508003E702E8084F82FA084F8FD94EEB184F8337070
S31508003E800DB194F8A55105EB08003D303A46314688
S31508003E90204415F056FE204611F031F82046FEF76C
S31508003EA04FF8E37B002023740123A4F8F40484F874
S31508003EB0F60484F8B233B1E784F83360EBE700BF61
S31508003EC09801020869E80108BD010208E80102082C
S31508003ED03C01020812020208002337B580F86E3347
S31508003EE080F8FF3490F8C8310446042B1CD14A48A0
S31508003EF005F09AFD2046FFF73FFB00286AD101230B
S31508003F0094F84B1384F8FF34237B84F8EC0384F885
S31508003F10F50484F84A132068637304F10F0211F05C
S31508003F20B1FB204611F04CF994F8C831023B012B3D
S31508003F3002D82046FEF7B0FC2046FFF783FC94F82B
S31508003F40DC3394F8C811022B04BF002384F8DC3351
S31508003F5094F8DD33022B04BF002384F8DD3394F88C
S31508003F60DE33022B04BF002384F8DE3349B94FF44D
S31508003F708C7204F57B7015F0D9FD94F8043584F835
S31508003F800035D4E90130984794F8B03303F0FD03BF
S31508003F90012B3CD104F111030093217B206804F521
S31508003FA05A7304F5597201F0EBF9D0B1002384F87D
S31508003FB0B23394F8B033032B07D1236A0133236253
S31508003FC0D4F840330133C4F84033002384F8C831A9
S31508003FD003B030BD114805F027FD114805F024FD52
S31508003FE0A2E784F8B00314F04CFA40F6B831054657
S31508003FF04FF47A7014F066FA04230544C4F8B453EF
S3150800400084F8B23314F03BFAC4F8AC03DDE70023B6
S3150800401084F8B233D9E700BF380202085002020812
S3150800402069E801082DE9F04F04468BB001460DF109
S315080040302502D0F8700303F0C5FC94F8B23393B1A7
S3150800404014F01DFAD4F8AC33C01AA0F596700028FF
S3150800405009DD94F8B233BE21AB4AAC4805F092FCB0
S31508004060062384F8B23394F86E33062B02D1204621
S31508004070FFF732FF94F8B233042B00F23D81DFE8F4
S3150800408013F011000B00D400FB000500A04805F052
S31508004090CBFC012384F8B23394F86E333BB1032B7F
S315080040A000F08D8094F8B2030BB0BDE8F08F0123C1
S315080040B0984884F86E3305F0B7FC94F804159648CA
S315080040C005F0B2FC954805F0AFFC217B206801F0AD
S315080040D087FC58BB217B20680DF127030DF12602CA
S315080040E001F094FC9DF827208D4B204653F822803A
S315080040F0D4F8B453D4F864639DF8267094F83490D1
S3150800410094F90EA0D4F820B0FFF7DAFA3B46CDE9C9
S3150800411003B032462946CDE9019A8248CDF8008097
S3150800412005F082FC2046FDF751FFBBE7012817D1B1
S315080041302046D4F8B453D4F8646394F8347094F9E8
S315080041400E80D4F82090FFF7BBFA3B46CDE90190E4
S31508004150324629467448CDF8008005F065FCE1E74B
S315080041600228DFD1217B20680DF127030DF12602F5
S3150800417001F076FC9DF826206C4BD4F8B41353F85E
S3150800418022809DF827206A4B204653F82290D4F8BF
S315080041906463277B94F834A094F90EB0256A0791D6
S315080041A0FFF78EFA3B46CDE904503246CDE902AB1D
S315080041B0CDE9008907995F4805F036FCB2E755480E
S315080041C005F032FC5C4805F02FFC544805F02CFC41
S315080041D0022384F8B233D4F884339DF82520C4F832
S315080041E0D031D4F8703303EB8203D3F8B423E369F0
S315080041F002FA03F39B1AC4F8CC3194F88233012BE4
S3150800420002D1204610F0DCFF204610F0D3FE94F8C9
S3150800421005351BB194F88233022B51D00021204674
S31508004220FEF7A4FA00283FF43DAF94F86E33052B49
S315080042307FF438AF94F88333042B45D10125204603
S3150800424084F8F654FFF744FC84F8C80168BB0323D6
S31508004250304884F8B23305F0E7FB94F8041537487C
S3150800426005F0E2FB2D4805F0DFFB01212046FEF7AD
S315080042707DFA00283FF416AF94F86E33052B7FF4C9
S3150800428011AF94F88333042B2FD10223204684F8E8
S31508004290F634FFF71DFC84F8C801F8B91D4805F087
S315080042A0C3FB94F80415264805E01A4805F0BCFB3C
S315080042B094F80415234805F0B7FB184805F0B4FB35
S315080042C02046FFF709FEEDE60323124884F8B233C9
S315080042D005F0AAFB94F804151B48C1E70D4805F03C
S315080042E0A3FB94F804151948E5E70A4805F09CFB72
S315080042F094F804151648DEE740F2BF11154A03483C
S3150800430005F040FBCEE600BF690202083E06020839
S315080043109302020896020208C4020208E40202088E
S31508004320100702080E03020861030208D8060208ED
S31508004330E8060208AA030208090402081204020889
S31508004340A00402085304020882040208CE040208E4
S31508004350FD0402081B05020810B504468AB024228B
S31508004360002101A815F0E2FB94F80415242301EBBB
S31508004370C101022001AA890014F09EF8202101A893
S3150800438000F0D0F8099B984215D10298BDF806307E
S31508004390C4F8D6010020A4F8D431BDF80C309DF835
S315080043A00F20A4F8DA319DF80E3084F8BB33236861
S315080043B01A700AB010BD044805F036FB034805F02C
S315080043C033FB4FF0FF30F4E73D05020869E80108C2
S315080043D02DE9F043044685B00F46DDE90C89002136
S315080043E015464FF4A1621E4615F0A0FB99F8003059
S315080043F020465A1C84F8742304F57B72A2600A22AC
S31508004400C4F8BC233D4A3146C4E9007884F804352B
S31508004410C4F8D82384F8003510F01DFD2046FFF7B0
S315080044209BFF60B92368187800F036FFC8B1236887
S315080044303348197805F0F8FA324805F0F5FA3248A3
S3150800444005F0F2FA2F4805F0EFFA204610F019FFAA
S315080044502046FFF781FF0122236820461A7010F0D4
S31508004460AFFE4FF41663294A94F87413A4F84C3334
S3150800447028462346C4F8705303F066FA2368204694
S31508004480197810F01AFD204610F01AFD206811F070
S3150800449069FA84F84503206811F062FA94F8BB3388
S315080044A094F80415012B08BF84F8BA3384F844033A
S315080044B0174805F0B9FAB4F8D411164805F0B4FA55
S315080044C094F8DB311448029394F8DA31019394F89E
S315080044D0D931009394F8D83194F8D72194F8D611A5
S315080044E005F0A2FA23680D481A780D4B53F82210E6
S315080044F005B0BDE8F04305F097BA00BF805101004A
S315080045007505020869E80108AF050208852500084F
S315080045103CFC0108E7050208F70502083006020810
S31508004520480702086FF0050330B50A4D01440A1A18
S31508004530002A02DCC3F1020030BD10F8012B5340FB
S31508004540082243F300042C40013A84EA5303F8D1C5
S31508004550EDE700BF2083B8ED0B28014608B508D85B
S31508004560054805F061FA054805F05EFA4FF0FF3098
S3150800457008BD0020FCE700BF5007020869E80108EB
S3150800458038B51D4603780C465B090B70007800F0B9
S31508004590030010700A7832B1072A03D8D423D3400F
S315080045A0D90700D438B1074805F03EFA064805F0A1
S315080045B03BFA4FF0FF3023785A1F534253412B7072
S315080045C038BD00BF7B07020869E801082DE9F843F2
S315080045D0154689460B9A4179D0F801601170C18851
S315080045E0089F19801278044602F00F02B7EB0608F6
S315080045F000F108012A700C9818BF4FF0FF3815F023
S31508004600A0FA2B78099903F10C029145D5BF00232E
S3150800461001221A46E418C8BF237AB7420B700A9BD0
S315080046201A7006D00448314605F0FEF9034805F02D
S31508004630FBF94046BDE8F8839707020869E80108D0
S315080046400A6810B594B2130C84424FEA034309D39F
S31508004650B2F1FF3F02D10860002010BD844203D9A1
S3150800466000F580301844F6E70146044805F0DCF901
S31508004670034805F0D9F94FF0FF30EEE7B90702080D
S3150800468069E801089142034628BF114670B5064DF0
S315080046901C1A8C4205DA1E78AE5D33441E1A964201
S315080046A0F6DDE0B270BD00BF09080208034B4FF4FF
S315080046B0F272181D0021186015F038BA680E00202D
S315080046C02DE9F041DFF858801E46D8F80030054637
S315080046D00C461746EBB1062804D99C210E4A0F480A
S315080046E005F050F9D8F80030A5425D7004D8A1212C
S315080046F0094A0A4805F046F95023D8F8002003FB72
S31508004700042304EB84049F81069B02EB0412566083
S315080047109360BDE8F08100BFB2EA010843080208C9
S31508004720680E0020054B1B6833B1022801D05A7861
S3150800473012B118700020704701207047680E0020DB
S31508004740034B1B680BB1187870470220704700BFEF
S31508004750680E00202DE9F743DFF8FC800446D8F8F8
S3150800476000300D46002B50D05A78002A4DD01B78C1
S31508004770022B4AD013F085FED8F80090074621464A
S3150800478048460DF1070210F009FF00283DD05022D7
S315080047909DF807604EF6602402FB0692137D1169A8
S315080047A02A4A012DB1FBF2F101FB12724FF03E01CC
S315080047B0B2FBF4F4B4FBF1F001FB10444FF01E0118
S315080047C003EB540404F0FF04B4FBF1F001FB1044BE
S315080047D01F498ABF6D08012501358A42E4B217D3FD
S315080047E0502000FB06903C220021163015F09EF959
S315080047F0282202FB0642D8F8003003EB4202D58293
S31508004800502202FB06331F611C7503B0BDE8F08316
S31508004810A3420FD02821002071430133DBB21E2B9F
S3150800482028BF0023CA18083209EB4202A342D080E7
S31508004830F3D1DDE7074B9A42DAD8282303FB064370
S3150800484009EB4303DB8A1D44D2E700BFC0D401004D
S3150800485080EE3600BFD40100680E00202DE9F84F1F
S31508004860DFF8D880D8F800307BB15B786BB113F0ED
S3150800487008FE00270646DFF8C890DFF8C8A0D8F873
S315080048800000F9B243788B4201D8BDE8F88F50256D
S315080048904D4300EB050CDCF810204EF66024B2FB05
S315080048A0F9F202FB19624FF03E0EB2FBF4F4B4FBC8
S315080048B0FEFB0EFB1B444FF01E0E9CF8143003EB58
S315080048C0540404F0FF04B4FBFEFB0EFB1B44DFF8A4
S315080048D078E0E4B272451BD24FF0280E4FF0000B79
S315080048E00EFB01FEA3421FD00133DBB21D2B03D9F9
S315080048F0E4B10123ACF816B09C4201D15245F1D976
S315080049000EEB0305083500EB4505A5F806B0E9E703
S3150800491005F1160318443C22002115F007F9D8F8CA
S3150800492000302B441E611C750137A8E75245FBD998
S31508004930502303FB0103DC82F6E700BF680E002064
S31508004940C0D40100BFD4010080EE3600114A0346E8
S31508004950126830B5DAB10078012818D15A78AAB1A8
S3150800496000245022204602FB01321432013032F86C
S31508004970025FC0B21E282C44F8D1502202FB013334
S3150800498005489B89B0FBF3F0A0EB440030BD01203D
S31508004990FCE700BF680E002080EE36000F4B13B50B
S315080049A01C68014614B9012002B010BD2378012BFA
S315080049B0F9D16378002BF6D020460DF1070210F0E6
S315080049C0EDFD0028EFD020469DF80710FFF7BEFF43
S315080049D00028D4BF00200120E6E700BF680E0020AB
S315080049E008B5094B1B685BB10378012B08D14278DF
S315080049F042B1FFF7ABFF0028D4BF0020012008BD55
S31508004A000120FCE71846FAE7680E00202DE9F04F6A
S31508004A10DFF8B8A10646DAF800300C468BB023B9A1
S31508004A20002630460BB0BDE8F08F1A78012AF7D178
S31508004A305B78002BF4D04FF0FF334FF0000806AF39
S31508004A4006930893BB80ADF824304546FFF706FF6A
S31508004A504FF0FF0B04EB8606A64213D1B8F1000F00
S31508004A6050D1002DDCD000242646DAF80080395DC6
S31508004A704046FFF76BFF0134E3B29D42A6EB000602
S31508004A80F5D8CEE7DAF8009054F8041B48460DF13D
S31508004A90170210F083FD98B39DF81710594527D0D3
S31508004AA04846FFF79DFF99F8012070B908AB5FFAF1
S31508004AB080FC94451ED308F128036B4408F10108CD
S31508004AC003F8081C5FFA88F812E0384600235FFAF4
S31508004AD083FC944507D305F128036B44013503F895
S31508004AE0101CEDB204E010F801CB01336145EED19C
S31508004AF08B46B1E713F801CB01306145D7D1F7E70B
S31508004B005946F5E7002DAED113F0BBFCDFF8C0908F
S31508004B104FF0FF36B0FBF9F309FB13038346A9EB05
S31508004B20030328480193502108AADAF80030525D99
S31508004B3001FB02310C690B7DB4FBF9F44EF66021DA
S31508004B4004FB19B4B4FBF1F43E21B4FBF1F701FB05
S31508004B5017441E2103EB540404F0FF04B4FBF1F7D9
S31508004B6001FB1744282100274A43E4B20292013484
S31508004B70E4B21E2C08BF00240299DAF8002021446A
S31508004B8002EB4102D28A7AB99C4218D00137FFB2A9
S31508004B901E2FECD940F2FF110B4A039304F0F2FEE4
S31508004BA0039B08489C42E2D1019B013509FB073764
S31508004BB0EBB2BE4228BF3E469845B4D831E71E2F11
S31508004BC0E8D8F1E71D080208B2EA0108680E0020D5
S31508004BD0C0D4010013B5044601460DF1030200686E
S31508004BE002F0F0FE0DF102039DF80310206801AAF9
S31508004BF002F0D4FF9DF80230062B04D1D4E9063022
S31508004C00984702B010BD072B04D1237D2BB1044869
S31508004C1004F00AFFD4E90A30F2E7D4E90830EFE7EE
S31508004C205A0802082DE9F347044690F8985413F0F9
S31508004C304CFC002013F048FC8C2303FB0543D4F8F6
S31508004C40C024197E966E1068B04720B16E21434A7B
S31508004C50434804F097FE8C2303FB0543D4F8C0248D
S31508004C60996E566E1068B04720B170213D4A3C488F
S31508004C7004F088FE8C2101FB0541D4F8C034483184
S31508004C801A6F1868904720B17221374A344804F0E1
S31508004C9079FED4F8C03400211A6E1868904720B1FE
S31508004CA07421324A2E4804F06DFED4F8C0344FF011
S31508004CB0FF315A6A1868904720B175212C4A28484E
S31508004CC004F060FE13F0DDFB0746861C13F0D9FBE3
S31508004CD0301A0028FADC4FF08C0813F0D2FB08FBD8
S31508004CE0054805F1DE09DFF88CA0C4F8700404EB6A
S31508004CF08909D4F8C0340DF10601D3F8A020186844
S31508004D00904720B152467F21154804F03BFED9F85A
S31508004D100430BDF90620596B1A8611445963996BFC
S31508004D2001319963B8F9883093420CDC072325448E
S31508004D30204685F8903312F02FFA204602F0CAFF73
S31508004D4002B0BDE8F087D8F87430FE1813F099FB66
S31508004D50331A002BCDDC06232544E9E7760802083A
S31508004D60120B0208CE080208320902089C0902083A
S31508004D70E90902083C0A02082DE9F74F1646DDE95B
S31508004D800D9BDDE90F8A0C9A04460D461F460192D3
S31508004D902BB1B9F1000F02D0B8F1000F04D13521BB
S31508004DA0144A154804F0EEFD019B3146C4E907395B
S31508004DB00023C4E90D332386237584F83C30052384
S31508004DC0A3604FF6B073A3810C4B28462361C4E950
S31508004DD009B825602671A761C4F82CA002F0D6FD93
S31508004DE0234631462846064A03B0BDE8F04F02F08E
S31508004DF0ABBD00BF810A0208320B0208400D030052
S31508004E00D54B00082DE9F0431F46836904460D4635
S31508004E109046B9B002751BB1036A0BB1836A23B910
S31508004E209A21354A354804F0ADFD0DF154098C2216
S31508004E300021484614F07AFE1822002104A814F02E
S31508004E4075FE202200210DA814F070FE01238DF8AE
S31508004E504130236912955A080A929A08CDE90B231C
S31508004E60042321AD8DF834300AAE0FCE0FC50FCE10
S31508004E700FC596E80700A36885E807002C93A38961
S31508004E802146ADF8C4300DF10F02206802F09AFDF4
S31508004E9020B1B4211A4A194804F074FD9DF80F3060
S31508004EA0409A8DF81030A3681A4409920C228DF89E
S31508004EB01120144A0592B8F1000F1BD0FF1A13F0FF
S31508004EC006FB00233F1A8DF81A300023CDF8009010
S31508004ED01A46206804A9079702F08EFD38B10A48D9
S31508004EE09DF80F1004F0A0FDD4E90A30984739B0B0
S31508004EF0BDE8F0830123E6E78F0A0208FA0A0208EA
S31508004F00AC0A0208254C0008DA0A020800280248FA
S31508004F1018BF0020704700BF501000204C4A4D4B68
S31508004F204D49C0E901234FF40153642283814B4B59
S31508004F3080F8282003614A4B4FF4905243610223BC
S31508004F40028603763422474BF0B5C0E907130521DC
S31508004F504FF0306480F83220434AC16442634FF60A
S31508004F60B071424AA0F850108263414A414902662C
S31508004F70414A41654266414A4149C0E90F42414AB0
S31508004F808165426440F2011240F201614FF44074B7
S31508004F90A0F848200022A0F85C103B49A3F5E723B7
S31508004FA081663A49A3F5EF63C16639494362A0F8B9
S31508004FB0744080F84A200167C0E91E3300F1B40343
S31508004FC0C0F8843000F1F403C0F8883000F5C273E5
S31508004FD0DFF8C0C0C0F88C3000F5C373C0F8903055
S31508004FE000F59A73C0F89C30DCF8003000F5AA7515
S31508004FF0C0F86C31DCF8043000F5B074C0F87031D4
S31508005000DCF8083000F5B677C0F874310B6800F59F
S31508005010BC76C0F878314B68C0F8A050C0F87C312F
S315080050208B68C0F8A440C0F880314FF00133C0F84F
S31508005030A870C0F8AC60C0F85431C0F85831C0F850
S315080050405C31C0F86021C0F86421C0F86821F0BD61
S315080050501010030205010E07C0557033470D0208EC
S315080050603B0D02088025DB33A00D02089C0D0208C3
S315080050707C0C0208400D03004C0C02080706FF0FC3
S31508005080AC0C02083F000C00A00C0208940C0208A5
S31508005090880C0208A30D02082DE9F84300250446EA
S315080050A0A84600F1B00600F5997700F5C27923798C
S315080050B0AB420DDC0025154E04F5C277A379E9B29B
S315080050C08B4214D84FF6FF73A4F88631BDE8F883EF
S315080050D046F8048FE9B200224846C6F8408010F028
S315080050E025FAB4F84430013527F8023FDFE756F8C9
S315080050F0212004EB8103C3F8B420C3F8F420384612
S31508005100012210F013FA0135D8E700BF900D020806
S315080051102DE9F04F002585B00E9E044635708A4667
S3150800512090461F46FFF79AFB04F5C27B23795FFA80
S3150800513085F94B450CD8317851BB254804F074FCE9
S31508005140244804F071FC4FF0FF3005B0BDE8F08F3D
S315080051504946584610F0CEF9012817D104EB8903C1
S31508005160D3F8B400FFF71AFC80B109F19A0051464A
S3150800517004EB400010F0EBF9012807D1337803F16E
S3150800518010026A44013302F8109C33700135CDE7EA
S315080051900139002013F096F93178B0FBF1F303FBDF
S315080051A0110202F110036B4413F8103C207998425F
S315080051B003D8094804F038FCC2E704EB8304D4F8A2
S315080051C0B4300020C8F80030D4F8F4303B60BCE7AF
S315080051D0400B020869E80108650B0208062808B5AD
S315080051E003460BD907280BD0A0F10802032A09D9D0
S315080051F040F22911044A054804F0C4FB002008BD02
S315080052000120FCE70220FAE7B20B0208190C020893
S31508005210062807D8064B1B5C0B70064B53F8203044
S315080052201370704740F23711034A044804F0AABBCA
S31508005230340D0208180D0208B2EA0108FA0B020832
S31508005240072802D132230B70704740F24311024AF5
S31508005250024804F097BB00BFB2EA0108DA0B02085D
S31508005260A0F10803032B08D8074B53F820300B701E
S31508005270064B53F82030137070474FF4A871044A50
S31508005280044804F07FBB00BFB80C0208E80C02080B
S31508005290B2EA0108B80B02080128014608B507D08A
S315080052A0044804F0C1FB044804F0BEFB012008BD15
S315080052B00020FCE7AF0D020869E8010838B5044686
S315080052C008460D46FFF7E8FF20B178210D4A0E483B
S315080052D004F058FB20468022002100F8045B14F0F5
S315080052E025FC012D07D12046FFF718FE94F8323029
S315080052F084F8B03038BDCC21024A034804F042FB9A
S31508005300F4E700BFB2EA0108DA15020810B5037817
S315080053100446012B09D1FFF7BFFE94F8803084F8C4
S31508005320B130002384F8B23010BD4FF48D71024AB3
S31508005330024804F027FBF0E7B2EA0108C91502089B
S315080053400378012B05D040F25711024A024804F0AF
S3150800535019BB7047B2EA0108B015020808B5037808
S31508005360012B07D0044840F27A21044A04F00AFBCC
S31508005370FF2008BD0020FCE787150208B2EA0108ED
S3150800538070B50578049C012D04D10494BDE87040DD
S31508005390FFF7BEBE4FF43271034A044804F0F2FA2E
S315080053A04FF0FF3070BD00BFB2EA01086C15020865
S315080053B070B50578059C012D05D104940978BDE8DA
S315080053C0704010F019B940F21731034A034804F047
S315080053D0D9FA4FF0FF3070BDB2EA01084C15020841
S315080053E00378012B05D040F25331024A024804F0F3
S315080053F0C9BA7047B2EA01082915020838B5054640
S3150800540090F8410095F8463000FB012213FB00F3A3
S31508005410D4B2DBB2A34205D840F26731034A044846
S3150800542004F0B0FA2B69185D38BD00BFB2EA01086E
S315080054300715020810B51446C27A8A4207D20748E9
S3150800544004F0F2FA064804F0EFFA60B210BDA4EBD5
S31508005450410464B224EAE470F8E700BFD40D0208F8
S3150800546069E801080378012B04D1C279D0E9230140
S3150800547014F067BB40F2BA31014A024804F082BA16
S31508005480B2EA0108EC1402080378012B05D040F2B1
S31508005490FA31024A024804F075BA7047B2EA0108BE
S315080054A0C21402080378012B05D040F23541024A9E
S315080054B0024804F067BA7047B2EA01089214020873
S315080054C008B50378012B03D1BDE8084010F096B85B
S315080054D040F27741034A044804F054FA6FF0020098
S315080054E008BD00BFB2EA01087514020870B5037852
S315080054F00446012B19D0BDE8704040F2FD410C4A24
