S01B00006D61696E5F706F7274696E675F74657374735F322E733337AF
S31508000000000400206D3E0008B5E50008B5E50008C7
S31508000010B5E50008B5E50008B5E50008B5E500084A
S31508000020B5E50008B5E50008B5E50008F12F0108B3
S31508000030B5E50008B5E50008952F01086133010804
S31508000040B5E50008B5E50008B5E50008B5E500081A
S31508000050B5E50008B5E50008B5E50008B5E500080A
S31508000060B5E50008B5E50008B5E5000891050008FE
S3150800007005C80008B5E50008B5E50008B5E50008B7
S31508000080B5E50008B5E50008DDB50008B5E50008E2
S31508000090B5E50008B5E5000859480008B5E50008C3
S315080000A0B5E50008B5E500086544000845440008BC
S315080000B0B5E50008B5E50008B5E50008B5E50008AA
S315080000C0B5E50008B5E50008B5E50008B5E500089A
S315080000D0B5E50008B5E50008B5E50008B5E500088A
S315080000E0B5E50008B5E50008B5E50008B5E500087A
S315080000F0B5E500085BF00008B5E50008B5E50008B9
S31508000100B5E50008B5E50008B5E50008B5E5000859
S31508000110B5E50008B5E50008B5E50008B5E5000849
S31508000120B5E50008B5E50008B5E50008B5E5000839
S31508000130B5E50008B5E50008B5E50008B5E5000829
S31508000140B5E50008B5E50008B5E50008B192000870
S31508000150B5E50008B5E50008B5E50008B5E5000809
S31508000160B5E50008B5E50008B5E50008B5E50008F9
S31108000170B5E50008B5E50008B5E500088F
S3150800017CF0B5114A114C124E00F00105E3695F0700
S3150800018C13D40DB9334213D103EA00078F4207D1B2
S3150800019C0B4A1A40002A0CBF00206FF00100F0BD74
S315080001AC013AEBD16FF00200F9E74FF0FF30F6E7B2
S315080001BC6FF00100F3E700BF80969800000003502B
S315080001CC020001000B4B70B5D96911F480310DD1C1
S315080001DC01244FF48072084E084DF46020462C64B6
S315080001EC1A61FFF7C5FF3464EC6070BD6FF001004F
S315080001FCFBE700BF0000035000100350002003501B
S3150800020CC0F30C0370B5054623B140F21A21114808
S3150800021C00F0A2F84FF480320F4B104C9A66E66940
S3150800022C41F6713316400122E3630D4B0021DA6067
S3150800023C0223656121202361FFF79AFF10B921205B
S3150800024CFFF796FF0122074BDA600EB10023E36332
S3150800025C70BD00BF9E560108009000500000035068
S3150800026C001003500020035070B5134C6061E3690D
S3150800027C5B071ED40E4656F8043B8D18A361AE4296
S3150800028C0BD10423002121202361FFF771FF58B9F4
S3150800029CBDE870402120FFF76BBF08210846FFF721
S315080002AC67FF10B10423236170BD56F8043BA361A4
S315080002BCE5E74FF0FF30F7E7000003502DE9F84368
S315080002CC154682070F46064604D040F266211E489C
S315080002DC00F042F8AB0704D04FF41A711A4800F034
S315080002EC3BF84FF48032194BDFF868909A6603F5A1
S315080002FC1C33DA6902F4803841F67132DA6301226A
S3150800030C03F58053DA6065B928460122104BDA608A
S3150800031CB8F1000F03D00022A3F50053DA63BDE849
S3150800032CF88306F5005404EA0904A41BAC4228BF5A
S3150800033C2C46394622463046FFF796FF0028E4D16C
S3150800034C264427442D1BDEE79E56010800900050D4
S3150800035C0020035000E0FFFF5FF800F0D1E500082D
S31508000370013800D0FCE770470348044B834202D09B
S31508000380034B03B118477047DC280020DC280020FF
S3150800039000000000064B0749C91A891048BF0131F9
S315080003A0491003D0044B0BB101481847704700BFEA
S315080003B0DC280020DC2800200000000010B5064CD0
S315080003C0237843B9FFF7D8FF044B13B10448AFF3BA
S315080003D000800123237010BDEC21002000000000DE
S315080003E0D865010808B5054B1BB105490548AFF3A3
S315080003F00080BDE80840FFF7CDBF00BF0000000041
S3150800040068040020D8650108A3F5803A704700BF44
S31508000410174B002B08BF134B9D46FFF7F5FF00212E
S315080004208B460F461348144A121A0FF013F90E4B4F
S31508000430002B00D098470D4B002B00D09847002082
S31508000440002104000D000D48002802D00C48AFF327
S3150800045000800BF093FE200029000EF0E8FF0BF059
S31508000460F7FC00BF000008000000000000000000C4
S315080004700004002000040020D8220020000000000C
S3150800048000000000064B1B681A7A022A04D812B12B
S315080004901B68044A13607047032AF9D0704700BFE7
S315080004A0C02500208004002030B5204DA3B00BAC39
S315080004B00FCD0FC495E80F0084E80F000023CDE99F
S315080004C002330493CDE90733CDE91F3309934FF47B
S315080004D0801313AC019301AD0FCD0FC4144B06ADB9
S315080004E02360144B18AC06930FCD0FC4124B134858
S315080004F02360134B0BAA1D9320231E9301238DF80B
S315080005007D30104B13A921930F4B09F0D5FB0446F8
S3150800051018B1BA210D480EF05BF800214FF4E1300E
S315080005200EF03AF8204623B030BD00BF7C3D0108E6
S315080005303C00015B010010004400015B0C06002032
S31508000540ED210020D425002084040020483D010820
S3150800055029B9074B186803684BB10AF06FBB012924
S3150800056005D1034B186803680BB10EF066BE7047D9
S31508000570E825002008B5044904480AF037FEBDE816
S315080005800840FFF791BF00BFEC2500203806002081
S31508000590014809F0C7BC00BF0C06002008B504488E
S315080005A00EF03DF8BDE8084002480EF038B800BF26
S315080005B0B43D01089C3D0108024B0349186805F043
S315080005C013B800BF14260020F42500202DE9F047B3
S315080005D0002406460F4625464FF0020A6FF001082A
S315080005E0DFF84C90214638460CF00EF9337809EBC3
S315080005F043011AFB030303F00F03337004FB08835C
S31508000600095C03F00E03601C01FA03F304F0070407
S315080006102B43072C9DB206D11346290A03F8021B61
S3150800062055701A46002528280446DBD1BDE8F08710
S315080006302041010830B5C57980792E4C012818BFAC
S31508000640342034F8154014BFB4FBF0F0E0086328F2
S31508000650088026D02FD83C2848D01ED81E2816D861
S31508000660092818D9244C24FA00F0C00713D5062007
S31508000670108023FA00F22148B3F5C07F825C4A80D5
S3150800068003F03F028A8006D20020CB8004E02328AC
S31508000690EDD02F28EBD0032030BD3E2826D0562893
S315080006A0F9D1062010801648DA09825C4A8003F0E0
S315080006B07F028A80E8E7B0F5C37F10D00BD8B92847
S315080006C001D0C628E7D1062010800E481A0A825C97
S315080006D04A80DAB2EDE740F29314A042DBD1062055
S315080006E010804FF484728B804A80CDE738201080C2
S315080006F09A09C0E7CC41010800044050C6410108E8
S31508000700C2410108C04101082DE9F04F0026ADF5A8
S315080007102B7D01900691144631464FF4177213A8A3
S31508000720B49D029312960EF095FF3146FF22029869
S315080007308BB2984200F2B98029464FF6FF73A64E4F
S3150800074042198A424FEA132440F0C38002994FF0B7
S31508000750020B6C54002188460E465370029BDFF844
S3150800076084A29C1CA4B2E70006379170BFB212AAF5
S315080007708BB29F4201F0070900F2B48004EB4404EF
S31508000780E4001234A4B2B9F1000F04D0330C13708C
S31508000790330A53709670FF22002128460EF05AFF3E
S315080007A0019B5F79032F2BD00DF1380A52468B4BEC
S315080007B003F1080C164618685968083303C66345DA
S315080007C03246F7D1186899889B79022FB37198BF7A
S315080007D0834B306098BF13F807904FF00007B1803D
S315080007E088BF4FF000093E46B846BC4200F29C80DE
S315080007F0B4B2224607322946D20812A80EF035FFAF
S31508000800019B0022597A722311FB03F193B25B43D1
S31508000810A342104602F10102F8DB4FF0000883B24A
S315080008205B009BB203938BB21E46C3464746C0F392
S315080008304E0207920FFA84F90493B9F1000F00F3F8
S315080008408A8000273C46049BDFF89CA1F61A029B87
S31508000850B6B28DF83030019BDA7919795B79DB000D
S3150800086003EB41130199897903EB8103019903EBA2
S31508000870D203097A03EB41038DF83130069B1B0935
S3150800088003EB42138DF83230069B1B018DF833308B
S31508000890019B5B7ABB4200F2A980A0190730C0F31E
S315080008A0CF000DF52B7DBDE8F08F635C5340180132
S315080008B040EA13136B54131183EA521383EAD203E3
S315080008C003F0010383EAD21343EA4203DAB20131A1
S315080008D02DE711F8010B1B02604036F810009BB299
S315080008E043402EE7284603910BF08EFF03990AEB47
S315080008F0480313F800C0CB431BFB080003F00703AB
S3150800090003EB43030CFA03FCB9F1070F00F03F08A9
S3150800091046EA0C0606D1330C13709670330A002685
S3150800092053700332013123E71AF808305BB13946B0
S3150800093012A80BF069FF06F1010B0246314628465C
S315080009400BF06BFF5E4608F10108C14508BF4FF082
S315080009500008013749E74B46302BA8BF30234FF034
S31508000960000A00223146284605930BF056FF00225E
S31508000970711C0BF052FFB31C0893089B394653446D
S3150800098012A809930BF040FF099B02461946284610
S315080009900BF043FF039B1F44BFB2BC420ED8079B14
S315080009A00BEB0307039BBFB2BB429FBF08F10108CD
S315080009B01FFA88F84746C34688BFBB46059B0AF117
S315080009C0010A5345D9DC1A460232A9F130093244E4
S315080009D00FFA89F996B230E7D03D0108E0410108DF
S315080009E0CC3D010840410108F84001089DF8332034
S315080009F0013BDB1B22F00C02DBB242EA83038DF8D3
S31508000A0033300022FF230CA911F8010B01324340B1
S31508000A1092B23148042AC35CF6D14FF000080EAAF8
S31508000A200CA90DF12F008DF83430CDE90E88ADF8FC
S31508000A3040808DF82F80FFF7C9FD0EAA0CA90DF18D
S31508000A402F00FFF7C3FD4246214628460BF0E5FE78
S31508000A504246611C0BF0E1FEDFF880B004F10208A3
S31508000A601BF8011B0EA80BF0CFFE4146024628468E
S31508000A700BF0D3FEDA4508F10108F1D1DFF8608002
S31508000A8004F14A0B08F1280918F8011F0EA80BF003
S31508000A90BBFE5946024628460BF0BFFEC1450BF180
S31508000AA0010BF1D14FF0000804F12A09019B4146D8
S31508000AB018680BF0A9FE09EB080B024659462846AA
S31508000AC008F101080BF0A9FEB8F1200FEED1723437
S31508000AD0A4B20137DCE600BFD03F0108D0400108C8
S31508000AE0F74001081FB51423ADF80830174B0C461C
S31508000AF01B880222ADF80C3000238DF80E30032334
S31508000B0002A9009303AB0DF023FCE8B99DF80C305D
S31508000B1003F001022270C3F340026270C3F380023D
S31508000B20A270C3F3C002E270C3F30012C3F340130A
S31508000B3063719DF80D3022715B425B10A3719DF8BD
S31508000B400E305B425B10E37104B010BD1C42010815
S31508000B501FB51423ADF80830104B0C461B8802222B
S31508000B60ADF80C3000238DF80E30032302A900934C
S31508000B7003AB0DF0EDFB70B99DF80C305B425B10D2
S31508000B8023709DF90D3002339B1063709DF80E306B
S31508000B905B425B10A37004B010BD00BF1C42010885
S31508000BA030B580B10023094A52F8335002EBC3042A
S31508000BB0854203D3002023790B7030BD0133152BF2
S31508000BC0F2D10220F9E70320F7E700BF1826002034
S31508000BD00A289ABF024B53F820000020704700BF2E
S31508000BE0F041010870B50B681F4C86B00546486889
S31508000BF0B4FBF3F40E460CF005FB8B238DF80C3092
S31508000C00230C8DF80D30338964BAADF81030030C17
S31508000C108DF81230030A8DF8133000238DF814006E
S31508000C2009222846009303A9ADF80E4000F0CAF839
S31508000C30C0B98DF80B00012340F6890128460DF14D
S31508000C400B020BF0A9FF68B99DF80B3040F6890135
S31508000C5043F004038DF80B30284601230DF10B02EF
S31508000C600BF089FF06B070BD0000093D13B50446B8
S31508000C70064B0322D3F80E005B8A0090694620468D
S31508000C80ADF804300CF0CCFB02B010BD1C420108D4
S31508000C9010B50446154B88B01868596805AA03C2EA
S31508000CA01989D3F80A001180D3F80E1002AA03C2D4
S31508000CB09B7C0321204613700CF047F8A0B9034625
S31508000CC000900A22204605A900F07CF860B9034680
S31508000CD000900922204602A900F074F820B90246BD
S31508000CE0014620460CF024F908B010BD3042010830
S31508000CF010B50146044607480EF0C4FC38B1214633
S31508000D0005480EF0BFFCB0FA80F0400910BD01207E
S31508000D10FCE700BF434201084A420108014B93F928
S31508000D20000070470D2200208878012815D191F916
S31508000D3006100F290DDC11F1110F0CDB1131C9B2A8
S31508000D40012A0CBF0F4A104A52F8212000201A60C7
S31508000D5070472021F4E70021F2E788B991F90610D7
S31508000D6016290BDC11F1090F01DB0931C8B2012A7A
S31508000D700CBF064A064A52F82020E7E71F20F6E786
S31508000D8002207047D843010854430108D442010899
S31508000D905442010810B50A4C22781AB1BDE8104031
S31508000DA00DF0CEBA0A21032000F0A0F90DF0C8FA1A
S31508000DB001220A21032000F099F90123237010BDAE
S31508000DC0CA28002070B50C4616461D46FFF7E2FFF6
S31508000DD000220A21032000F089F932462146002024
S31508000DE000F004FB2946BDF81020002000F0FEFAAA
S31508000DF001220A21032000F079F92378842B03D0F5
S31508000E00FFF7C8FF002070BD0022014B1A70F9E7F2
S31508000E10CA28002008B500220C21032000F066F934
S31508000E2005200DF0CFFA01220C21032000F05EF90F
S31508000E3005200DF0C7FA0122014B00201A7008BDE3
S31508000E40CA280020F22208B5002104480EF002FC48
S31508000E500023034A1370034A137008BDDA220020E0
S31508000E60D9220020D822002010B50A4C0121502092
S31508000E7005F0FCF907F05CFE236853B9064812F042
S31508000E802AFC206028B9BDE81040B82103480DF0B7
S31508000E909FBB10BDC4060020084501085C44010834
S31508000EA0032838B504460D4605D8094B33F81030E3
S31508000EB0CB40DB0704D440F2854106480DF088FB99
S31508000EC0302301225C43044BAA401A5138BD00BFA7
S31508000ED0724601081845010840D00350032838B562
S31508000EE004460D4605D8094B33F81030CB40DB07CE
S31508000EF004D440F2564106480DF06AFB302301221D
S31508000F005C43044BAA401A5138BD00BF724601081B
S31508000F101845010840E003507FB50446A0B90420EF
S31508000F2002F08EFE002865D0384C394920680EF04C
S31508000F30E1F80DF0DBFA0DF0DAFA3649206804B06C
S31508000F40BDE870400EF0D6B843780E2B15D90420AC
S31508000F5002F076FE00284DD02C4D2D4928680EF05B
S31508000F60C9F80DF0C3FA0DF0C2FA62782A49286862
S31508000F7004B0BDE870400EF0BDB88278012A3BD0B7
S31508000F80022A4FF000060CBF0225012501213A204E
S31508000F9005F06CF933462A466178207807F0EAF8B6
S31508000FA0A3683BB3E2782AB3012563781B4905FA9F
S31508000FB003F0C1F8240421788DF809308DF808105B
S31508000FC003930094164B03A902A803F0C9F9B0B11C
S31508000FD0042002F035FE68B10C4D0D4928680EF064
S31508000FE089F80DF083FA0DF082FA62780D492868BF
S31508000FF00EF080F804B070BD16460225C6E7637881
S315080010009D40094BC3F82454F4E700BFF0060020BE
S31508001010694501086E4501088245010800E003504C
S3150800102095E30008AA45010800D003500E2970B5BB
S3150800103005460C46164613D9042002F001FE20B3D5
S31508001040124D134928680EF055F80DF04FFA0DF0B9
S315080010504EFA224628680F49BDE870400EF04AB895
S3150800106001213A2005F002F92146284600230422E8
S3150800107007F080F8214628461EB1BDE87040FFF704
S315080010800FBFBDE87040FFF729BF70BDF00600200E
S3150800109069450108CD45010870B50446F8B182686E
S315080010A043782AB10E2B05D8BDE87040FFF734BF48
S315080010B00E2B14D9042002F0C3FD80B1084D09494E
S315080010C028680EF017F80DF011FA0DF010FA62788C
S315080010D028680F23BDE8704003490EF00BB870BDB1
S315080010E0F006002069450108F74501080E2938B5BC
S315080010F00C4613D9042002F0A3FDC0B10C4D0D49CE
S3150800110028680DF0F7FF0DF0F1F90DF0F0F9224619
S3150800111028680949BDE838400DF0ECBF1AB9BDE8A2
S315080011203840FFF7DBBEBDE83840FFF7B9BE38BD2B
S31508001130F0060020694501081D4601080E2938B544
S3150800114005460C4613D9042002F07AFD68B1134D02
S31508001150134928680DF0CEFF0DF0C8F90DF0C7F950
S315080011602246104928680DF0C5FF002038BD03281F
S3150800117005D80D4B33F81030CB40DB0704D440F2CA
S3150800118027410A480DF024FA1422302313FB0523BD
S31508001190074A9858E04000F00100E7E7F00600200B
S315080011A069450108474601087246010818450108BD
S315080011B030C003502DE9F041224D92B008AC80466C
S315080011C00F460FCD0FC40FCD0FC495E803000026B8
S315080011D0032384E8030001211B4C2A200291CDE950
S315080011E00366CDE905668DF80E30079605F03EF8DC
S315080011F0204607F083F802214FF4B06005F062FD3F
S3150800120032462046114907F00FF9334632468DF823
S3150800121019000090642120468DF8236007F036F9FE
S3150800122008AA0A9005A920468DF809808DF8087045
S3150800123007F066F9204602AA03A907F01DF812B0BE
S31508001240BDE8F0817C460108004000598096980068
S31508001250054B1B7823B1054A536823B11068184714
S315080012600122034B1A7070470F220020C80600207F
S315080012700E22002008B5002307481A4619460FF023
S3150800128003FD0346054A1060012023B1044B18707C
S315080012900020044B187008BD51120008D006002023
S315080012A00F2200200E22002038B5084B084D0446B0
S315080012B003C983E80300286808B112F03BF9214600
S315080012C02868BDE8384012F019B900BFC8060020E2
S315080012D0D0060020024B186808B112F02BB97047E7
S315080012E0D0060020012210B5064B074C1A70237849
S315080012F033B1064A53681BB1106898470023237018
S3150800130010BD00BF0F2200200E220020C8060020B4
S315080013100022014B1A7070470F22002030B587B0A3
S3150800132007F028FCC30701D5FFF78CFD6D461A4B5D
S3150800133003AC93E807000C3385E8070093E8070039
S3150800134084E8070001220A210320FFF76FFE2846DA
S31508001350FFF7E2FD2046FFF7DFFD01220C210320FF
S31508001360FFF764FE012204211046FFF75FFE0DF029
S3150800137017F800F091F80DF052F800F00FF8FFF7A3
S3150800138079FFFFF771FD01211020FFF713FF07B062
S31508001390BDE8304000F062B8A446010838B50AF046
S315080013A001FB044698B1042002F04AFC78B1084DC6
S315080013B0084928680DF09EFE0DF098F80DF097F88C
S315080013C0224628680449BDE838400DF093BE38BD6A
S315080013D0F006002069450108BC460108024B4FF09B
S315080013E0FF31186812F0B4B9D806002070B50B4E54
S315080013F00D463368144613B90024204670BDFFF71E
S31508001400EDFF29462246306804F0FCFA0546044BEF
S31508001410186812F0C2F9002DEED1EEE7D4060020C6
S31508001420D806002070B50B4E0D463368144613B91E
S315080014300024204670BDFFF7D1FF294622463068B2
S3150800144004F0C4FA0546044B186812F0A6F9002DF4
S31508001450EED1EEE7D4060020D8060020094B10B5D9
S315080014601A68094C094B1A60236853B9084812F0E0
S3150800147032F9206028B9BDE810407B2105480DF0F7
S31508001480A7B810BD14260020D8060020D4060020D0
S3150800149080470108D84601081FB50D220021684675
S315080014A00EF0D8F80C230C4C0C488DF8093011F0C6
S315080014B073FE6946204607F057FE204607F0FEFDF4
S315080014C06368DB0705D5204607F02EFE204607F0A1
S315080014D0C7FD04B010BD00BF0040005B085C0108F2
S315080014E010B5044C204607F01FFE2046BDE8104004
S315080014F007F0B6BD0040005B034B044AC3E9011080
S3150800150018461A60FFF7C8BDDC060020030B010168
S3150800151008B50CF0B6FF0122024B1860024B1A7090
S3150800152008BD00BFEC060020102200200146024834
S31508001530D0F80821104700BFC0260020024B0146FC
S315080015401A6E1868104700BFC0260020002373B51E
S31508001550ADF806300CF093FF0122544B544C18603A
S315080015602568544B28461A700DF10601636D984795
S31508001570002843D0042002F063FB60B14E4E4F4969
S3150800158030680DF0B7FD0CF0B1FF0CF0B0FF4C4918
S3150800159030680DF0AFFD042002F052FB60B1464EF4
S315080015A0464930680DF0A6FD0CF0A0FF0CF09FFF31
S315080015B0444930680DF09EFD042002F041FB60B1FD
S315080015C03D4E3E4930680DF095FD0CF08FFF0CF04E
S315080015D08EFF3D4930680DF08DFD042002F030FB8A
S315080015E060B1354E354930680DF084FD0CF07EFF4C
S315080015F00CF07DFF324930680DF07CFDBDF80630F1
S3150800160041F6FE711B0744BF0122304B284648BFEE
S315080016101A70A36D9847002843D0042002F010FBE7
S3150800162060B1254C254920680DF064FD0CF05EFF7D
S315080016300CF05DFF224920680DF05CFD042002F0E5
S31508001640FFFA60B11C4C1D4920680DF053FD0CF0E3
S315080016504DFF0CF04CFF1B4920680DF04BFD042094
S3150800166002F0EEFA60B1144C144920680DF042FD00
S315080016700CF03CFF0CF03BFF154920680DF03AFDD5
S31508001680042002F0DDFA60B10B4C0C4920680DF01D
S3150800169031FD0CF02BFF0CF02AFF094920680DF0EC
S315080016A029FD0CF00DFF02B070BD00BFE806002052
S315080016B0C026002012220020F006002069450108F5
S315080016C01752010890470108974701081122002080
S315080016D0BF47010873B5042002F0B2FA70B1854C11
S315080016E0854920680DF006FD0CF000FF0CF0FFFEA2
S315080016F0824B834A834920680DF0FCFC824B022505
S315080017009A68186890470024002001A90BF059FC34
S31508001710002840F086809DF80530002B45D104202E
S3150800172002F08EFA60B1734E734930680DF0E2FC30
S315080017300CF0DCFE0CF0DBFE714930680DF0DAFCCB
S31508001740042002F07DFA60B16A4E6B4930680DF0EC
S31508001750D1FC0CF0CBFE0CF0CAFE6C4930680DF0DB
S31508001760C9FC042002F06CFA60B1624E6249306826
S315080017700DF0C0FC0CF0BAFE0CF0B9FE64493068F6
S315080017800DF0B8FC042002F05BFA60B1594E5A49D4
S3150800179030680DF0AFFC0CF0A9FE0CF0A8FE584915
S315080017A030680DF0A7FC0134A4B2012D37D104200E
S315080017B0002C68D102F044FA60B14E4C4E492068BC
S315080017C00DF098FC0CF092FE0CF091FE4C49206846
S315080017D00DF090FC042002F033FA60B1454C4649FE
S315080017E020680DF087FC0CF081FE0CF080FE49495C
S315080017F020680DF07FFC042002F022FA60B13D4C0F
S315080018003D4920680DF076FC0CF070FE0CF06FFE7A
S315080018103B4920680DF06EFC012002B070BD012521
S3150800182072E7042002F00CFA60B1324E3249306891
S315080018300DF060FC0CF05AFE0CF059FE3049306889
S315080018400DF058FC042002F0FBF960B1294E2A4934
S3150800185030680DF04FFC0CF049FE0CF048FE2B49A1
S3150800186030680DF047FC042002F0EAF9002889D018
S31508001870204E214930680DF03DFC0CF037FE0CF087
S3150800188036FE25497BE702F0DBF960B1194D1A49A6
S3150800189028680DF02FFC0CF029FE0CF028FE1849DC
S315080018A028680DF027FC042002F0CAF970B1114D22
S315080018B0114928680DF01EFC0CF018FE0CF017FEF6
S315080018C002232246154928680DF014FC042002F06C
S315080018D0B7F960B1074C084920680DF00BFC0CF00D
S315080018E005FE0CF004FE064920680DF003FC0020F6
S315080018F093E700BFF006002069450108E94701089B
S315080019001752010827480108C026002090470108F9
S315080019102C48010880480108624801080750010858
S3150800192070B5474D2E68AB68304698473046EB6829
S3150800193098470446002845D0042002F081F960B192
S31508001940404C414920680DF0D5FB0CF0CFFD0CF05A
S31508001950CEFD3E4920680DF0CDFB042002F070F95B
S3150800196060B1384C384920680DF0C4FB0CF0BEFD58
S315080019700CF0BDFD364920680DF0BCFB042002F0D2
S315080019805FF960B12F4C304920680DF0B3FB0CF0BD
S31508001990ADFD0CF0ACFD2F4920680DF0ABFB042023
S315080019A002F04EF960B1274C274920680DF0A2FBDA
S315080019B00CF09CFD0CF09BFD244920680DF09AFB69
S315080019C0002070BD6B6901213046984705462046C0
S315080019D00CF074FD002D31D0042002F031F960B10D
S315080019E0184C194920680DF085FB0CF07FFD0CF0AA
S315080019F07EFD164920680DF07DFB042002F020F9D3
S31508001A0060B1104C104920680DF074FB0CF06EFDA7
S31508001A100CF06DFD0E4920680DF06CFB042002F0F9
S31508001A200FF90028BBD0074C074920680DF062FB68
S31508001A300CF05CFD0CF05BFD0749ADE70120C0E743
S31508001A40C0260020F0060020694501081752010843
S31508001A509047010886480108A3480108F8B50420FC
S31508001A6002F0EEF870B18F4C8F4920680DF042FBFA
S31508001A700CF03CFD0CF03BFD8C4B8D4A8D492068E3
S31508001A800DF038FB00248C4E8C4D8D4F3470BC7491
S31508001A902C70FFF745FF002851D021468948FFF7EB
S31508001AA02BFD0CF00CFD20460CF008FD3846FFF720
S31508001AB03DFD002846D0042002F0C2F860B1794CFA
S31508001AC0794920680DF016FB0CF010FD0CF00FFD9F
S31508001AD0774920680DF00EFB042002F0B1F860B1DA
S31508001AE0704C714920680DF005FB0CF0FFFC0CF0FA
S31508001AF0FEFC754920680DF0FDFA042002F0A0F8F6
S31508001B0060B1684C684920680DF0F4FA0CF0EEFCF8
S31508001B100CF0EDFC6D4920680DF0ECFA042002F09B
S31508001B208FF860B15F4C604920680DF0E3FA0CF05D
S31508001B30DDFC0CF0DCFC5E4920680DF0DBFA0124C4
S31508001B402046F8BDCC20FFF7F9FC002831D0042048
S31508001B5002F076F860B1534C534920680DF0CAFA82
S31508001B600CF0C4FC0CF0C3FC514920680DF0C2FA15
S31508001B70042002F065F860B14A4C4B4920680DF024
S31508001B80B9FA0CF0B3FC0CF0B2FC4F4920680DF022
S31508001B90B1FA042002F054F80028BFD0414C42495B
S31508001BA020680DF0A7FA0CF0A1FC0CF0A0FC48493F
S31508001BB0B1E7484B41F288315A6A1868904704469B
S31508001BC0002831D0042002F03BF860B1354C364984
S31508001BD020680DF08FFA0CF089FC0CF088FC34496B
S31508001BE020680DF087FA042002F02AF860B12D4C1F
S31508001BF02D4920680DF07EFA0CF078FC0CF077FC85
S31508001C00314920680DF076FA042002F019F8002808
S31508001C1084D0244C244920680DF06CFA0CF066FC3C
S31508001C200CF065FC2C4976E70CF029FC3378002B80
S31508001C30FCD02B78002B53D1042002F001F860B1B8
S31508001C40184C194920680DF055FA0CF04FFC0CF0A9
S31508001C504EFC174920680DF04DFA042001F0F0FFFC
S31508001C6060B1104C104920680DF044FA0CF03EFCA7
S31508001C700CF03DFC194920680DF03CFA042001F0EF
S31508001C80DFFF60B1074C084920680DF033FA0CF005
S31508001C902DFC0CF02CFC064920680DF02BFA0224CA
S31508001CA04EE700BFF006002069450108C64801084E
S31508001CB01752010827480108122200201122002085
S31508001CC0E82700204D15000890470108D04901086B
S31508001CD0F5490108C0260020214A0108DE48010806
S31508001CE0424B1D682D1A052D4FF0040047D101F00F
S31508001CF0A7FF60B13E4D3F4928680DF0FBF90CF08F
S31508001D00F5FB0CF0F4FB3C4928680DF0F3F90420C8
S31508001D1001F096FF60B1364D364928680DF0EAF9AC
S31508001D200CF0E4FB0CF0E3FB344928680DF0E2F90B
S31508001D30042001F085FF60B12D4D2E4928680DF06D
S31508001D40D9F90CF0D3FB0CF0D2FB2B4928680DF01F
S31508001D50D1F9042001F074FF00283FF4F1AE244DB8
S31508001D60244928680DF0C6F90CF0C0FB0CF0BFFB3F
S31508001D70052323491A4628680DF0BCF9E0E601F068
S31508001D805FFF60B11A4C1B4920680DF0B3F90CF0DF
S31508001D90ADFB0CF0ACFB184920680DF0ABF904203C
S31508001DA001F04EFF60B1124C124920680DF0A2F9FD
S31508001DB00CF09CFB0CF09BFB124920680DF09AF97D
S31508001DC0042001F03DFF00283FF4A8AE084C09495D
S31508001DD020680DF08FF90CF089FB0CF088FB2B4678
S31508001DE00522094920680DF085F997E6E8060020DE
S31508001DF0F0060020694501081752010880480108C5
S31508001E0024490108904701084F49010838B50420BC
S31508001E1001F016FF70B1A64CA64920680DF06AF9C4
S31508001E200CF064FB0CF063FBA34BA44AA44920689E
S31508001E300DF060F90024A34D2C70FFF771FD002802
S31508001E4051D02146A048FFF757FB0CF038FB204637
S31508001E500CF034FB9D48FFF769FB002846D00420A8
S31508001E6001F0EEFE60B1924C924920680DF042F9FD
S31508001E700CF03CFB0CF03BFB904920680DF03AF95E
S31508001E80042001F0DDFE60B1894C8A4920680DF016
S31508001E9031F90CF02BFB0CF02AFB8D4920680DF06C
S31508001EA029F9042001F0CCFE60B1814C81492068F3
S31508001EB00DF020F90CF01AFB0CF019FB8549206887
S31508001EC00DF018F9042001F0BBFE60B1784C794991
S31508001ED020680DF00FF90CF009FB0CF008FB7749A8
S31508001EE020680DF007F90024204638BDCC20FFF7FE
S31508001EF025FB002831D0042001F0A2FE60B16C4C0D
S31508001F006C4920680DF0F6F80CF0F0FA0CF0EFFAD0
S31508001F106A4920680DF0EEF8042001F091FE60B1E0
S31508001F20634C644920680DF0E5F80CF0DFFA0CF014
S31508001F30DEFA674920680DF0DDF8042001F080FE1E
S31508001F400028BFD05A4C5B4920680DF0D3F80CF036
S31508001F50CDFA0CF0CCFA6049B1E7604B4FF4FA7150
S31508001F605A6A18689047002831D0042001F068FEA4
S31508001F7060B14F4C4F4920680DF0BCF80CF0B6FA2A
S31508001F800CF0B5FA4D4920680DF0B4F8042001F0BC
S31508001F9057FE60B1464C474920680DF0ABF80CF087
S31508001FA0A5FA0CF0A4FA4A4920680DF0A3F8042013
S31508001FB001F046FE002885D03D4C3E4920680DF0CC
S31508001FC099F80CF093FA0CF092FA454977E74FF432
S31508001FD07A700CF0F7F92B78042003F0FF04002B35
S31508001FE034D001F02DFE60B1314D324928680DF02C
S31508001FF081F80CF07BFA0CF07AFA304928680DF073
S3150800200079F8042001F01CFE60B1294D2949286899
S315080020100DF070F80CF06AFA0CF069FA3149286884
S315080020200DF068F8042001F00BFE00283FF45CAFC1
S315080020301F4D204928680DF05DF80CF057FA0CF092
S3150800204056FA1E4928680DF055F84DE701F0F8FDD7
S3150800205060B1174C174920680DF04CF80CF046FA99
S315080020600CF045FA154920680DF044F8042001F0F3
S31508002070E7FD60B10E4C0F4920680DF03BF80CF0F7
S3150800208035FA0CF034FA124920680DF033F80420BA
S3150800209001F0D6FD00283FF415AF054C0549206828
S315080020A00DF028F80CF022FA0CF021FA0E4906E792
S315080020B0F0060020694501088B49010817520108F6
S315080020C02748010812220020BD210008E827002021
S315080020D090470108CF490108F4490108C0260020A5
S315080020E0204A010880480108404A010810B50CF04A
S315080020F0C8F90122294B41F6FE711860284B1A705F
S31508002100284B9A6D18689047002845D0042001F09E
S3150800211097FD60B1244C254920680CF0EBFF0CF0C4
S31508002120E5F90CF0E4F9224920680CF0E3FF0420F5
S3150800213001F086FD60B11C4C1C4920680CF0DAFFE2
S315080021400CF0D4F90CF0D3F91A4920680CF0D2FF38
S31508002150042001F075FD60B1134C144920680CF099
S31508002160C9FF0CF0C3F90CF0C2F9134920680CF04A
S31508002170C1FF042001F064FD70B10B4C0B492068C7
S315080021800CF0B8FF0CF0B2F90CF0B1F92068084968
S31508002190BDE810400CF0AEBF10BD00BFEC06002035
S315080021A012220020C0260020F006002069450108FA
S315080021B01752010890470108BF470108002373B565
S315080021C0ADF806300CF05DF90122544B544C1860FA
S315080021D02568544B28461A700DF10601636D984719
S315080021E0002843D0042001F02BFD60B14E4E4F4924
S315080021F030680CF07FFF0CF079F90CF078F94C494F
S3150800220030680CF077FF042001F01AFD60B1464EE5
S31508002210464930680CF06EFF0CF068F90CF067F967
S31508002220444930680CF066FF042001F009FD60B1EE
S315080022303D4E3E4930680CF05DFF0CF057F90CF046
S3150800224056F93D4930680CF055FF042001F0F8FCBA
S3150800225060B1354E354930680CF04CFF0CF046F944
S315080022600CF045F9324930680CF044FFBDF80630E9
S3150800227041F6FE711B0744BF0122304B284648BF72
S315080022801A70A36D9847002843D0042001F0D8FCA3
S3150800229060B1254C254920680CF02CFF0CF026F976
S315080022A00CF025F9224920680CF024FF042001F0DF
S315080022B0C7FC60B11C4C1D4920680CF01BFF0CF0D4
S315080022C015F90CF014F91B4920680CF013FF0420CB
S315080022D001F0B6FC60B1144C144920680CF00AFFF2
S315080022E00CF004F90CF003F9154920680CF002FF0C
S315080022F0042001F0A5FC60B10B4C0C4920680CF0D9
S31508002300F9FE0CF0F3F80CF0F2F8094920680CF025
S31508002310F1FE0CF0D5F802B070BD00BFEC06002047
S31508002320C026002012220020F00600206945010878
S315080023301752010890470108984701081122002002
S31508002340BF47010810B500210C4A0D4811F059F88D
S3150800235098B9042001F074FC70B10A4C0A49206847
S315080023600CF0C8FE0CF0C2F80CF0C1F8074B084A8E
S31508002370084920680CF0BEFEFEE710BD245201088D
S31508002380DFE40008F006002069450108634A0108F1
S3150800239017520108274801082DE9F04F91B0FEF7BA
S315080023A0BDFF042001F04CFC70B1B14CB149206866
S315080023B00CF0A0FE0CF09AF80CF099F8AE4BAF4A68
S315080023C0AF4920680CF096FEFFF784F9002801F063
S315080023D01D84FFF71BFD002801F01884042001F076
S315080023E02FFC70B1A24CA34920680CF083FE0CF0B8
S315080023F07DF80CF07CF8A34BA04AA14920680CF0A4
S3150800240079FEFFF72BFB012800F0A8810228F8D0F7
S31508002410974F9D4E042001F013FC68B19549386822
S315080024200CF068FE0CF062F80CF061F8974B934AD2
S31508002430934938680CF05EFE3E23954D0024AB7434
S3150800244040F20C73DFF8688234702B8088F80040FD
S31508002450FFF766FA002800F0818121468D48FFF7CC
S315080024604BF80CF02CF820460CF028F82846FFF715
S315080024705DF8002846D0042001F0E2FB60B17C4CF0
S315080024807C4920680CF036FE0CF030F80CF02FF87A
S315080024907A4920680CF02EFE042001F0D1FB60B1C9
S315080024A0734C744920680CF025FE0CF01FF80CF0EC
S315080024B01EF8794920680CF01DFE042001F0C0FBC7
S315080024C060B16B4C6B4920680CF014FE0CF00EF8EA
S315080024D00CF00DF8714920680CF00CFE042001F090
S315080024E0AFFB002800F03A81614C624920680CF085
S315080024F001FE0BF0FBFF0BF0FAFF604920680CF0B9
S31508002500F9FD2BE1CC20FFF719F8002831D004207B
S3150800251001F096FB60B1564C564920680CF0EAFD6E
S315080025200BF0E4FF0BF0E3FF544920680CF0E2FDE2
S31508002530042001F085FB60B14D4C4E4920680CF033
S31508002540D9FD0BF0D3FF0BF0D2FF534920680CF0EE
S31508002550D1FD042001F074FB0028BFD0444C454946
S3150800256020680CF0C7FD0BF0C1FF0BF0C0FF4C490B
S31508002570B1E70BF086FF451D0BF083FF8542FBD8BC
S31508002580484B00215A6A18689047002832D0042020
S3150800259001F056FB60B1364C364920680CF0AAFDAE
S315080025A00BF0A4FF0BF0A3FF344920680CF0A2FD42
S315080025B0042001F045FB60B12D4C2E4920680CF033
S315080025C099FD0BF093FF0BF092FF334920680CF04E
S315080025D091FD042001F034FB00283FF47FAF244C22
S315080025E0244920680CF086FD0BF080FF0BF07FFF76
S315080025F02D4970E73378002BFCD098F80030002B73
S3150800260058D1042001F01CFB60B1194C1949206807
S315080026100CF070FD0BF06AFF0BF069FF1749206894
S315080026200CF068FD042001F00BFB60B1104C114959
S3150800263020680CF05FFD0BF059FF0BF058FF1B49A3
S3150800264020680CF057FD042001F0FAFA00283FF440
S31508002650E1AE074C074920680CF04CFD0BF046FF2D
S315080026600BF045FF054920680CF044FDD2E600BF93
S31508002670F0060020694501087E4A0108175201083C
S3150800268027480108A54A010812220020E94A01083C
S31508002690E8270020BD21000890470108D049010815
S315080026A0F5490108C0260020214A0108DE4801082C
S315080026B011220020854B04201C68641BA4F2EF73CA
S315080026C05A1CC0F2C880012B00F3C58001F0B8FA85
S315080026D060B17F4D7F4928680CF00CFD0BF006FFB2
S315080026E00BF005FF7C4928680CF004FD042001F076
S315080026F0A7FA60B1764D774928680CF0FBFC0BF019
S31508002700F5FE0BF0F4FE754928680CF0F3FC04207E
S3150800271001F096FA60B16E4D6E4928680CF0EAFC35
S315080027200BF0E4FE0BF0E3FE6B4928680CF0E2FCC4
S31508002730042001F085FA88B1654D664928680CF0D1
S31508002740D9FC0BF0D3FE0BF0D2FE0123009340F226
S31508002750EF722346624928680CF0CCFC042001F08D
S315080027606FFA70B15A4C5B4920680CF0C3FC0BF049
S31508002770BDFE0BF0BCFE5B4B574A5B4920680CF06C
S31508002780B9FC0023594F3B700BF086FE0BF079FE1F
S31508002790451D0BF076FE8542FBD8002240F6B83080
S315080027A053490BF070FE41F287343B7823B90BF09E
S315080027B068FE401BA042F8D93B7803F0FF06002BC1
S315080027C040F09E80042001F03BFA60B1404C41493C
S315080027D020680CF08FFC0BF089FE0BF088FE3E4952
S315080027E020680CF087FC042001F02AFA60B1384C06
S315080027F0384920680CF07EFC0BF078FE0BF077FE6B
S315080028003C4920680CF076FC042001F019FA60B106
S315080028102F4C304920680CF06DFC0BF067FE0BF06E
S3150800282066FE354920680CF065FC042001F008FABC
S31508002830002801F0EB81264C264920680CF05AFC4A
S315080028400BF054FE0BF053FE2349206811B0BDE887
S31508002850F04F0CF04FBC01F0F3F960B11C4D1D4967
S3150800286028680CF047FC0BF041FE0BF040FE1A49B5
S3150800287028680CF03FFC042001F0E2F960B1144D21
S31508002880144928680CF036FC0BF030FE0BF02FFECE
S31508002890184928680CF02EFC042001F0D1F900280C
S315080028A03FF41CAE0A4D0B4928680CF023FC0BF0CC
S315080028B01DFE0BF01CFE0123009340F2EF72234627
S315080028C00E4928680CF016FC08E600BFEC06002046
S315080028D0F0060020694501081752010880480108DA
S315080028E0064B01088F4B01082748010810220020D3
S315080028F01115000890470108D34B01083A4B010807
S31508002900A64B04201C68641BA4F6B833022B00F2FD
S315080029100C8501F095F960B1A14DA24928680CF023
S31508002920E9FB0BF0E3FD0BF0E2FD9F4928680CF08C
S31508002930E1FB042001F084F960B1994D99492868B2
S315080029400CF0D8FB0BF0D2FD0BF0D1FD97492868A7
S315080029500CF0D0FB042001F073F960B1904D914959
S3150800296028680CF0C7FB0BF0C1FD0BF0C0FD8E49C3
S3150800297028680CF0BFFB042001F062F988B1884D85
S31508002980884928680CF0B6FB0BF0B0FD0BF0AFFDDC
S315080029900223009340F6B8322346854928680CF08E
S315080029A0A9FB042001F04CF970B17D4C7D492068E3
S315080029B00CF0A0FB0BF09AFD0BF099FD7D4B7A4AC3
S315080029C07D4920680CF096FB00224FF47A707B490B
S315080029D03A700BF058FD0BF054FD04460BF051FD10
S315080029E0031BB3F5FA7FF9D30BF056FD0BF049FD3F
S315080029F040F2DB5504460BF044FD031BAB42FAD903
S31508002A003B780420002B40F0CB8401F019F960B123
S31508002A10634C644920680CF06DFB0BF067FD0BF006
S31508002A2066FD614920680CF065FB042001F008F991
S31508002A3060B15B4C5B4920680CF05CFB0BF056FD03
S31508002A400BF055FD594920680CF054FB042001F0A1
S31508002A50F7F860B1524C534920680CF04BFB0BF069
S31508002A6045FD0BF044FD504920680CF043FB04205B
S31508002A7001F0E6F870B14A4C4A4920680CF03AFB76
S31508002A800BF034FD0BF033FD4D4B474A4A4920689D
S31508002A900CF030FB00243C700BF000FD224640F69B
S31508002AA0B83046490BF0EFFC0BF0EBFC04460BF094
S31508002AB0E8FC031BB3F57A6FF9D33B78002B00F0DB
S31508002AC0A284042001F0BCF860B1354C3549206871
S31508002AD00CF010FB0BF00AFD0BF009FD32492068DB
S31508002AE00CF008FB042001F0ABF860B12C4C2D4922
S31508002AF020680CF0FFFA0BF0F9FC0BF0F8FC3149F2
S31508002B0020680CF0F7FA042001F09AF860B1244C1A
S31508002B10244920680CF0EEFA0BF0E8FC0BF0E7FC11
S31508002B20294920680CF0E6FA042001F089F860B11A
S31508002B301B4C1C4920680CF0DDFA0BF0D7FC0BF097
S31508002B40D6FC194920680CF0D5FA0BF096FC04203F
S31508002B5001F076F870B1124C124920680CF0CAFAE6
S31508002B600BF0C4FC0BF0C3FC184B0F4A1249206843
S31508002B700CF0C0FA042001F063F858B3084C094970
S31508002B8020680CF0B7FA0BF0B1FC0BF0B0FC104B58
S31508002B90054A094920680CF0ADFA1BE0EC0600204E
S31508002BA0F006002069450108175201088048010807
S31508002BB0F64B0108814C0108274801081115000841
S31508002BC0F14C0108904701083E4D0108984D01084F
S31508002BD0DA4D01084FF0FF3100200BF06DFC4FF085
S31508002BE0FF31044600200BF067FC0546002C00F078
S31508002BF07F84002800F07C84844200F079840420D5
S31508002C0001F01EF860B1B74FB74938680CF072FA90
S31508002C100BF06CFC0BF06BFCB44938680CF06AFAE4
S31508002C20042001F00DF860B1AE4FAF4938680CF0DA
S31508002C3061FA0BF05BFC0BF05AFCAD4938680CF0F6
S31508002C4059FA042000F0FCFF60B1A64FA64938687F
S31508002C500CF050FA0BF04AFC0BF049FCA349386813
S31508002C600CF048FA042000F0EBFF70B19D4F9E4926
S31508002C7038680CF03FFA0BF039FC0BF038FC2B46A1
S31508002C8022469C4938680CF035FA042000F0D8FF33
S31508002C9070B1944C944920680CF02CFA0BF026FC81
S31508002CA00BF025FC944B914A944920680CF022FAC3
S31508002CB02A2101200BF000FC04462A2101200BF0F2
S31508002CC0FBFB631E292B054600F24A84431E292B6B
S31508002CD000F24684844200F04384042000F0B0FFEA
S31508002CE060B1804F804938680CF004FA0BF0FEFB9F
S31508002CF00BF0FDFB7D4938680CF0FCF9042000F068
S31508002D009FFF60B1774F784938680CF0F3F90BF0FC
S31508002D10EDFB0BF0ECFB764938680CF0EBF9042078
S31508002D2000F08EFF60B16F4F6F4938680CF0E2F91A
S31508002D300BF0DCFB0BF0DBFB6C4938680CF0DAF9BE
S31508002D40042000F07DFF98B1664F674938680CF09B
S31508002D50D1F90BF0CBFB0BF0CAFB01234FF02A0C81
S31508002D60CDE9003C22462B46654938680CF0C2F985
S31508002D70042000F065FF70B15A4C5B4920680CF0DE
S31508002D80B9F90BF0B3FB0BF0B2FB5E4B574A5B4944
S31508002D9020680CF0AFF92822002103A80CF05AFC91
S31508002DA04CF250340A2101200BF086FB10AB013897
S31508002DB003EB800050F8343C013C03F1010340F872
S31508002DC0343CEFD10125474C474FDFF820910DF1F0
S31508002DD00C0858F804ABCAF59C530833002BB8BF47
S31508002DE05B42FA2B38DD042000F02AFF58B1394639
S31508002DF020680CF07FF90BF079FB0BF078FB49465D
S31508002E0020680CF077F9042000F01AFF98B13946CB
S31508002E1020680CF06FF90BF069FB0BF068FB41F2C8
S31508002E208E2341F28241CDE900312A46534636497E
S31508002E3020680CF05FF9042000F002FF58B139460B
S31508002E4020680CF057F90BF051FB0BF050FB494684
S31508002E5020680CF04FF9002601350B2DB9D1042056
S31508002E60002E00F0B98300F0EBFE60B11D4C1E4940
S31508002E7020680CF03FF90BF039FB0BF038FB1B49C7
S31508002E8020680CF037F9042000F0DAFE60B1154C22
S31508002E90154920680CF02EF90BF028FB0BF027FBE0
S31508002EA0134920680CF026F9042000F0C9FE60B129
S31508002EB00C4C0D4920680CF01DF90BF017FB0BF0B4
S31508002EC016FB0A4920680CF015F9042000F0B8FE34
S31508002ED038B3044C044920680CF00CF90BF006FBD7
S31508002EE014E000BFF00600206945010817520108E2
S31508002EF080480108F24D0108114E010827480108CB
S31508002F002E4E01089D4E0108B34E01080BF0EFFA4C
S31508002F100A2300934CF250320123B64920680CF07C
S31508002F20E9F80BF0AAFA042000F08AFE70B1B24C58
S31508002F30B24920680CF0DEF80BF0D8FA0BF0D7FA95
S31508002F40AF4BB04AB04920680CF0D4F80024AF4F14
S31508002F503C70FEF7E5FC00285CD02146AC48FEF73D
S31508002F60CBFA4FF00208A146DFF8C4A287F8009012
S31508002F700BF087FA05460BF0A2FA00200BF09EFA32
S31508002F805046FEF7D3FA002800F04A83042000F0E2
S31508002F9057FE60B1984C994920680CF0ABF80BF0D5
S31508002FA0A5FA0BF0A4FA974920680CF0A3F80420B8
S31508002FB000F046FE60B1904C904920680CF09AF8F3
S31508002FC00BF094FA0BF093FA924920680CF092F8F9
S31508002FD0042000F035FE60B1874C884920680CF063
S31508002FE089F80BF083FA0BF082FA8B4920680CF00B
S31508002FF081F8042000F024FE60B17F4C7F492068E8
S315080030000CF078F80BF072FA0BF071FA7D4920682B
S315080030100CF070F8042000F013FE70B1764C774976
S3150800302020680CF067F80BF061FA0BF060FA7B4B3E
S31508003030744A754920680CF05DF800242E22214652
S3150800304004A803940CF006FB3C70FEF769FC002804
S315080030505DD021467248FEF74FFA0226A146DFF8F0
S31508003060D4A1DFF8D48187F800900BF00AFA054658
S315080030700BF025FA01200BF021FA5046FEF756FA16
S31508003080002800F0BA83042000F0DAFD60B15A4C3B
S315080030905A4920680CF02EF80BF028FA0BF027FA9C
S315080030A0584920680CF026F8042000F0C9FD60B1E4
S315080030B0514C524920680CF01DF80BF017FA0BF02A
S315080030C016FA544920680CF015F8042000F0B8FDEB
S315080030D060B1494C494920680CF00CF80BF006FA27
S315080030E00BF005FA4C4920680CF004F8042000F0AF
S315080030F0A7FD60B1404C414920680BF0FBFF0BF07F
S31508003100F5F90BF0F4F93F4920680BF0F3FF0420BA
S3150800311000F096FD70B1384C384920680BF0EAFF8C
S315080031200BF0E4F90BF0E3F93E4B364A36492068D2
S315080031300BF0E0FF0BF0A5F9441D0BF0A2F9844251
S31508003140FBD84FF4FA600BF041F90BF09AF9041B1F
S31508003150A4F5FA639A1C4FF00400C0F27B84022B94
S3150800316000F3788400F06CFD60B1234D234928688C
S315080031700BF0C0FF0BF0BAF90BF0B9F92149286832
S315080031800BF0B8FF042000F05BFD60B11A4D1B4937
S3150800319028680BF0AFFF0BF0A9F90BF0A8F9224944
S315080031A028680BF0A7FF042000F04AFD60B1124D15
S315080031B0124928680BF09EFF0BF098F90BF097F967
S315080031C0104928680BF096FF042000F039FD002806
S315080031D036D0094D094928680BF08CFF0BF086F9A3
S315080031E00BF085F9022300934FF4FA6223460F4940
S315080031F0286823E0464F0108F006002069450108C3
S315080032007C4F01081752010827480108122200209E
S31508003210BD21000890470108CF4901082050010840
S31508003220ED200008D1500108804801081351010813
S31508003230E8270020D4270020C02600200BF05AFFDC
S31508003240042000F0FDFC70B19C4C9D4920680BF0F1
S3150800325051FF0BF04BF90BF04AF99A4B9A4A9B49E6
S3150800326020680BF047FF0023994C23700BF014F9E4
S315080032700BF007F9451D0BF004F98542FBD800222F
S3150800328040F6B83093490BF0FEF84FF4FA500BF0BD
S315080032909DF82378002B40F01884042000F0D0FC19
S315080032A060B1864C864920680BF024FF0BF01EF9A6
S315080032B00BF01DF9844920680BF01CFF042000F070
S315080032C0BFFC60B17D4C7E4920680BF013FF0BF004
S315080032D00DF90BF00CF9804920680BF00BFF042060
S315080032E000F0AEFC60B1754C754920680BF002FF22
S315080032F00BF0FCF80BF0FBF8784920680BF0FAFEA7
S31508003300042000F09DFC002800F02F846B4C6C49CB
S3150800331020680BF0EFFE0BF0E9F80BF0E8F86A49C5
S3150800332020680BF0E7FE00F020BC00F089FC60B1D5
S31508003330624D634928680BF0DDFE0BF0D7F80BF0F9
S31508003340D6F8614928680BF0D5FE042000F078FC11
S3150800335060B15A4D5A4928680BF0CCFE0BF0C6F8F6
S315080033600BF0C5F85C4928680BF0C4FE042000F091
S3150800337067FC00283FF459AA504D514928680BF0BC
S31508003380B9FE0BF0B3F80BF0B2F80223009340F63F
S31508003390B8322346524928680BF0ACFEFFF745BA07
S315080033A000F04EFC60B1454C454920680BF0A2FE82
S315080033B00BF09CF80BF09BF8434920680BF09AFE3B
S315080033C0042000F03DFC60B13C4C3D4920680BF000
S315080033D091FE0BF08BF80BF08AF83F4920680BF04A
S315080033E089FE042000F02CFC00283FF42FAB334C58
S315080033F0334920680BF07EFE0BF078F80BF077F86F
S315080034003849FFF720BB0BF050F83B7804200BB384
S3150800341000F016FC60B1294C294920680BF06AFEB9
S315080034200BF064F80BF063F8274920680BF062FE8E
S31508003430042000F005FC00283FF476AB1F4C204919
S3150800344020680BF057FE0BF051F80BF050F82649A0
S31508003450FFF767BB00F0F4FB60B1184C1849206809
S315080034600BF048FE0BF042F80BF041F816492068BD
S315080034700BF040FE042000F0E3FB60B10F4C10494E
S3150800348020680BF037FE0BF031F80BF030F81249D4
S3150800349020680BF02FFE042000F0D2FB00283FF432
S315080034A043AB064C064920680BF024FE0BF01EF8C9
S315080034B00BF01DF80D49FFF734BB00BFF0060020DE
S315080034C0694501089A510108175201082748010859
S315080034D0102200201115000890470108D34B010857
S315080034E0334C0108C64C010880480108664D01089E
S315080034F0042000F0A5FB60B1A14EA24930680BF08C
S31508003500F9FD0AF0F3FF0AF0F2FF9F4930680BF065
S31508003510F1FD042000F094FB70B1994E994930688A
S315080035200BF0E8FD0AF0E2FF0AF0E1FF2B4622461F
S31508003530964930680BF0DEFD042000F081FB60B18F
S315080035408F4C904920680BF0D5FD0AF0CFFF0AF0A2
S31508003550CEFF8D4920680BF0CDFD0026FFF795BB01
S31508003560042000F06DFB60B1854E864930680BF08B
S31508003570C1FD0AF0BBFF0AF0BAFF834930680BF0B9
S31508003580B9FD042000F05CFB90B17D4E7D493068A2
S315080035900BF0B0FD0AF0AAFF0AF0A9FF01232A20C2
S315080035A0CDE9003022462B46794930680BF0A2FD5A
S315080035B0042000F045FB60B1714C724920680BF09D
S315080035C099FD0AF093FF0AF092FF6F4920680BF005
S315080035D091FD0026FFF7CCBB00F032FB60B1684CCA
S315080035E0684920680BF086FD0AF080FF0AF07FFF25
S315080035F0654920680BF07EFD042000F021FB0028B9
S315080036003FF452AC5E4C5F4920680BF073FD0AF03C
S315080036106DFF0AF06CFF5F4943E44FF00108A5E42B
S31508003620CC20FDF78BFF002832D0042000F008FBE1
S3150800363060B1534C534920680BF05CFD0AF056FF05
S315080036400AF055FF504920680BF054FD042000F09D
S31508003650F7FA60B14A4C4B4920680BF04BFD0AF06B
S3150800366045FF0AF044FF4C4920680BF043FD04204F
S3150800367000F0E6FA00283FF4BCAC414C414920680A
S315080036800BF038FD0AF032FF0AF031FF4349ADE48A
S315080036900AF0F7FE451B072D47D9042000F0D0FA9B
S315080036A060B1374E374930680BF024FD0AF01EFF2B
S315080036B00AF01DFF344930680BF01CFD042000F0A9
S315080036C0BFFA60B12E4E2F4930680BF013FD0AF091
S315080036D00DFF0AF00CFF304930680BF00BFD042093
S315080036E000F0AEFA70B1264E264930680BF002FD9E
S315080036F00AF0FCFE0AF0FBFE08232A462849306831
S315080037000BF0F8FC042000F09BFA60B11C4D1D4933
S3150800371028680BF0EFFC0AF0E9FE0AF0E8FE1A4901
S3150800372028680BF0E7FC0134A4B20AF0C9FEB8F128
S31508003730010F7FF472AF0420002C35D100F080FA17
S3150800374060B10F4C0F4920680BF0D4FC0AF0CEFE8E
S315080037500AF0CDFE0C4920680BF0CCFC042000F0E2
S315080037606FFA00283FF445AC054C064920680BF073
S31508003770C1FC0AF0BBFE0AF0BAFE0A4936E400BFED
S31508003780F00600206945010817520108EE4D0108A8
S31508003790604E0108FD4E010890470108F4490108EA
S315080037A0C54F01088048010800F04AFA60B1A04DEB
S315080037B0A04928680BF09EFC0AF098FE0AF097FECE
S315080037C09D4928680BF096FC042000F039FA002879
S315080037D03FF40FAC964D974928680BF08BFC0AF01E
S315080037E085FE0AF084FE02232246944928680BF0D7
S315080037F081FCFFF7FEBB012635E40220FDF79EFE9D
S31508003800002832D0042000F01BFA60B1884C8949A0
S3150800381020680BF06FFC0AF069FE0AF068FE86491C
S3150800382020680BF067FC042000F00AFA60B1804CAF
S31508003830804920680BF05EFC0AF058FE0AF057FE35
S315080038407F4920680BF056FC042000F0F9F900289F
S315080038503FF44CAC764C774920680BF04BFC0AF0E9
S3150800386045FE0AF044FE77493DE43222D8F84C304A
S31508003870D8F8000003A99847002832D0042000F0A1
S31508003880DFF960B16A4C6B4920680BF033FC0AF02B
S315080038902DFE0AF02CFE684920680BF02BFC04204C
S315080038A000F0CEF960B1624C624920680BF022FC48
S315080038B00AF01CFE0AF01BFE614920680BF01AFC90
S315080038C0042000F0BDF900283FF410AC584C5949C3
S315080038D020680BF00FFC0AF009FE0AF008FE5A49A8
S315080038E001E40AF0CEFD451B072D50D9042000F04F
S315080038F0A7F978B1DFF838B14E49DBF800000BF0CC
S31508003900F9FB0AF0F3FD0AF0F2FD4B49DBF800007B
S315080039100BF0F0FB042000F093F978B1DFF810B152
S315080039204449DBF800000BF0E5FB0AF0DFFD0AF07E
S31508003930DEFD4349DBF800000BF0DCFB042000F059
S315080039407FF988B1DFF8E8B03A49DBF800000BF0F8
S31508003950D1FB0AF0CBFD0AF0CAFD08232A463B49EB
S31508003960DBF800000BF0C6FB042000F069F960B133
S315080039702F4D304928680BF0BDFB0AF0B7FD0AF059
S31508003980B6FD2D4928680BF0B5FB0134A4B20AF040
S3150800399097FD012E7FF42FAF04200CBB00F050F9E1
S315080039A060B1234C234920680BF0A4FB0AF09EFD66
S315080039B00AF09DFD204920680BF09CFB042000F0CE
S315080039C03FF900283FF492AB194C1A4920680BF0CE
S315080039D091FB0AF08BFD0AF08AFD1D49FFF783BBB0
S315080039E000F02EF960B1124D124928680BF082FBDF
S315080039F00AF07CFD0AF07BFD0F4928680BF07AFB7C
S31508003A00042000F01DF900283FF470AB084D094961
S31508003A1028680BF06FFB0AF069FD0AF068FD0223BF
S31508003A202246064928680BF065FBFFF75FBB00BF17
S31508003A30F0060020694501081752010804500108DC
S31508003A4090470108F4490108695001089250010895
S31508003A508048010800F0F4F860B16E4D6E49286898
S31508003A600BF048FB0AF042FD0AF041FD6B49286855
S31508003A700BF040FB042000F0E3F888B1654D664979
S31508003A8028680BF037FB0AF031FD0AF030FD0223F7
S31508003A9000934FF4FA622346614928680BF02AFB23
S31508003AA0042000F0CDF800283FF4CAAB594C5A4917
S31508003AB020680BF01FFB0AF019FD0AF018FD57499C
S31508003AC020680BF017FBFFF7BBBB564B04201C689E
S31508003AD0641BA4F6B833022B5DD800F0B1F860B1C8
S31508003AE04C4D4D4928680BF005FB0AF0FFFC0AF01F
S31508003AF0FEFC4A4928680BF0FDFA042000F0A0F8FD
S31508003B0060B1444D444928680BF0F4FA0AF0EEFC1B
S31508003B100AF0EDFC444928680BF0ECFA042000F0A2
S31508003B208FF860B13B4D3C4928680BF0E3FA0AF080
S31508003B30DDFC0AF0DCFC394928680BF0DBFA0420C6
S31508003B4000F07EF888B1334D334928680BF0D2FA75
S31508003B500AF0CCFC0AF0CBFC0223009340F6B832FC
S31508003B602346324928680BF0C5FA042000F068F8A5
S31508003B7070B1284C284920680BF0BCFA0AF0B6FC4C
S31508003B800AF0B5FC2A4B254A2A4920680BF0B2FAF6
S31508003B900AF073FCFCE700F053F860B11D4D1E49AE
S31508003BA028680BF0A7FA0AF0A1FC0AF0A0FC1B494A
S31508003BB028680BF09FFA042000F042F860B1154D12
S31508003BC0154928680BF096FA0AF090FC0AF08FFC63
S31508003BD0194928680BF08EFA042000F031F80028FD
S31508003BE03FF48EAB0B4D0C4928680BF083FA0AF0AC
S31508003BF07DFC0AF07CFC0223009340F6B83223468B
S31508003C000E4928680BF076FAFFF77ABB11B0BDE8C3
S31508003C10F08F00BFF0060020694501081752010819
S31508003C204C510108EC06002080480108F64B0108B3
S31508003C30E85101082748010890470108334C010854
S31508003C400B4B02461B7883B10A4B1B78834234BF61
S31508003C5000200120084B1B7833B1084B1B78134111
S31508003C6013F0010F08BF002070470120F2E700BFDC
S31508003C70CD280020CC28002013220020CB280020A5
S31508003C80012208B5074B1A700022074B1A70042246
S31508003C90064B1A701F22064B1A7005F05BFF054B80
S31508003CA0186008BDCD28002013220020CC2800204B
S31508003CB0CB280020F006002008B504480FF06CFA5F
S31508003CC008F068FDBDE8084000F008B8185C01086F
S31508003CD001480FF061BA00BF185C01082DE9F04FE2
S31508003CE0544E97B0354609AC0FCD0FC42B6806F174
S31508003CF0140523600EAC0FCD0FC495E80F00DFF84E
S31508003D004C8184E80F004C480FF046FA40460FF005
S31508003D1043FA4FF48073494FADF83C30484B384668
S31508003D200B9309A90EAB0D9303F040FF0421B6F8D7
S31508003D3034B00DEB01000122ADF804B000F03CFAF6
S31508003D40B6F836A00022012102A8ADF808A000F0B6
S31508003D5033FAB6F838900122042103A8ADF80C907E
S31508003D6000F02AFA758F0122042104A8354CADF813
S31508003D70105000F021FA344B4FF44870C4F8F83468
S31508003D804FF00213C4F8F434A3F58033C4F8FC34B6
S31508003D901C23C4F8E43407F03DFC08A8ADF820500D
S31508003DA000F07AFA142007F035FC08A8ADF8205080
S31508003DB000F044FA232007F02DFC08A8ADF820509F
S31508003DC000F06AFAB92138460BF0BAF808A8ADF837
S31508003DD0205000F033FA002205A81146ADF814B0B9
S31508003DE000F0EAF9002206A81146ADF818A000F07E
S31508003DF0E3F90122002107A8ADF81C9000F0DCF9D0
S31508003E000122002108A8ADF8205000F0D5F938465F
S31508003E1003F08AFD00234046C4F8E434C4F8F834B5
S31508003E20C4F8F434C4F8FC340FF0B9F917B0BDE897
S31508003E30F08F00BF48520108185C010800000A50BC
S31508003E40E070720000C0035002000300205C010805
S31508003E500348044A0449121A92100AF0ACBB00BF80
S31508003E607C0100086C030008D023002008B5154B18
S31508003E7083F30A8800F030F8FFF7EAFF124B13497C
S31508003E808B4212D30020124B12498B4218D3FCF7EF
S31508003E90BFFA186850F82240586840F822400132A4
S31508003EA098688242F5D30C33EAE70022F8E71C68E3
S31508003EB044F8220001325C68A242F8D30833E4E7EA
S31508003EC00022F8E700000020E0650108EC6501081B
S31508003ED0EC650108EC6501084FF48041124B134A62
S31508003EE070B59A60D3F88820114D42F47002C3F871
S31508003EF08820104A05F5005491664FF0FF32226675
S31508003F000D4A62660222C3F8D020BFF34F8FBFF373
S31508003F106F8F4FF44036002005F094FD0020E660D0
S31508003F2005F028FD2E6170BD00ED00E000000008D8
S31508003F3000800044009000507FFF7F03014B18600B
S31508003F40704700BF00280020054B1860054B1B6F03
S31508003F5003F00703032B01D10BF09ABD704700BF8E
S31508003F60082800200080005038B504460D4601B1E7
S31508003F7018B9372103480AF02BFB23682B60256004
S31508003F8038BD00BF8452010838B504460D4601B154
S31508003F9018B9452104480AF01BFB236813B92B609E
S31508003FA0256038BD1C46F8E78452010810B504465A
S31508003FB018B9562104480AF00BFB206818B10368A3
S31508003FC023600023036010BD8452010838B50446F7
S31508003FD00D4601B118B98B2106480AF0F9FA23688B
S31508003FE02BB1AB4204D12B68236000232B6038BD6C
S31508003FF01C46F4E78452010840B1054A1378012BA0
S3150800400004D80370013300201370704701207047ED
S3150800401014220020002307B5294801930FF0BCF8A5
S315080040204FF44073012204216846ADF8003000F0D1
S31508004030C3F80122234B0520C3F8442401A90FF035
S31508004040A6F8002839D1204BD3F8F02042F0010217
S31508004050C3F8F020D3F8FC2042F08072C3F8FC20A5
S315080040601A4AA3F55D431A60019B194A03F5D5233D
S3150800407003F2FC43B3FBF2F3164A013B1361022336
S31508004080C2F8F0304FF48073C2F804334FF060433F
S31508004090114AC3F8B02F114AC3F8802ED3F8002E60
S315080040A042F48072C3F8002EFF2283F82020D3F84A
S315080040B0002E22F48072C3F8002E03B05DF804FBCC
S315080040C0185C010800D0035000ED00E0FF03004033
S315080040D0F8590D00000004E055CEACC509000100F2
S315080040E04FF06043D3F8802E30B5D20715D501249A
S315080040F00B4D8440D5F8FC2042F08072C5F8FC20B0
S31508004100D3F8002E2243C3F8002E53F82020002AA5
S31508004110F0D003F82010002030BD1120FCE700BFC6
S3150800412000ED00E02DE9F04104460C254FF00108AA
S31508004130124E0CB314F001000BD0002024F0010439
S3150800414005FB00625768002FF3D09168C0B2B847E4
S31508004150EFE72246013020284FEA520201D0D30762
S31508004160F8D508FA00F20F2824EA0204E8D910382C
S3150800417005FB0062B432E5E7BDE8F081F4060020ED
S3150800418008B50C480FF008F81A2005F00DFC28B100
S315080041901A2005F057FC1A2005F0ECFB1B2005F049
S315080041A003FC28B11B2005F04DFC1B2005F0E2FBA3
S315080041B0002008BD185C01082DE9F0410E46174697
S315080041C0044638B993211A480AF002FA22252846E5
S315080041D0BDE8F0810F290CD8037883B1013BDBB227
S315080041E0022B06D8134A32F813306278D340DB071D
S315080041F008D497210E480AF0EBF92125E7E747F698
S31508004200FF73F2E70C4BD3F810532DB19B210848E6
S315080042100AF0DEF90225DAE70EF03CFF80463A4658
S315080042202046314604F0DEFD40460EF02EFFCEE76E
S31508004230D65201082C53010800C0035038B504466D
S3150800424028B91348E4210AF0C3F9222038BD0378B7
S3150800425083B1013BDBB2022B06D80E4A32F8133083
S315080042606278D340DB0708D40948E8210AF0B0F998
S315080042702120EBE747F6FF73F2E70EF00BFF054642
S3150800428020460BF00BFD28460EF0FFFE0020DDE76A
S31508004290D65201082C53010838B5044628B91448E3
S315080042A0FC210AF095F9222038BD03788BB1013B31
S315080042B0DBB2022B06D80F4A32F813306278D340A5
S315080042C0DB0709D40A484FF480710AF081F92120E6
S315080042D0EAE747F6FF73F1E70EF0DCFE05462046EF
S315080042E004F01CFD28460EF0D0FE0020DCE700BFD7
S315080042F0D65201082C53010870B50D46044600B184
S3150800430031B9154840F22D110AF062F9222070BD24
S3150800431003788BB1013BDBB2022B06D80F4A32F881
S3150800432013306278D340DB0709D40B4840F23111C9
S315080043300AF04EF92120EAE747F6FF73F1E70EF097
S31508004340A9FE0646204604F015FD287030460EF0F4
S315080043509CFE0020DBE700BFD65201082C5301085B
S315080043602DE9F0410D4616469846044600B139B97E
S315080043702F484FF4E0710AF02BF92220BDE8F081AE
S315080043800378D3B15A1ED2B2022A08D9FF2B0DD010
S315080043904FF4E27126480AF01BF92120EEE7254B77
S315080043A033F812304278D340DA07F1D5022E08D90D
S315080043B0042E06D04FF4E471ECE747F6FF73427813
S315080043C0F1E70EF067FE23780746FF2B05D0324645
S315080043D02046296804F070FD28602B68013309D14E
S315080043E02378FF2B06D1144B6078D3F824140AF0EF
S315080043F0CFFD286029684B1C14D00C230F4A03FBF9
S315080044000122069BC2F8048093602378FF2B04D010
S3150800441001230B4A8B40C2F8243438460EF035FE89
S315080044200020ABE738460EF030FE2D20A6E700BF89
S31508004430D65201082C53010800C00350F406002088
S3150800444000D0035008B504F0C3FC054B00F0553006
S3150800445020F0A040C3F82004BDE80840FFF762BE7C
S3150800446000E0035008B504F0B3FC054B00F0AA3091
S3150800447020F02040C3F82004BDE80840FFF752BEEC
S3150800448000E0035013B504460A480EF085FEA278EC
S315080044900421B2FA82F2237852098DF8043063783F
S315080044A00DEB01008DF80530FFF786FE002002B0FF
S315080044B010BD00BF185C01082DE9F04F9A46564B0F
S315080044C085B01B7806460F461546DDF83C909DF8E4
S315080044D044B0DDF85080002B00F09780072A00F2E0
S315080044E096800E9B002B00F09280B9F1000F00F029
S315080044F08E80129BB3F5006F00F38980012803D1E3
S31508004500109B002B00F08380444B03EB05131B7BA9
S31508004510002B7ED0424C1022002168460BF09AF8F8
S3150800452004EB45141022A7BB394620460BF092F837
S3150800453043F210036380BBF1000F03D1E37843F025
S315080045400303E370364A0E9B02EB451CCCE9019344
S31508004550129B6901581E9DF84C30C0F30A0003F0FF
S3150800456003039B0643EA001E53582E48012E00EA11
S3150800457003004EEA0003CDF800A0535017D0B8F157
S31508004580000F2ED19CF8023068F304138CF8023021
S3150800459027E0002120460BF05DF84FF44473638052
S315080045A0BBF1000FCED1E37843F03003C9E71323FC
S315080045B00CF1100ECCF80C309CE80F008EE80F00BA
S315080045C06FF00301DCF81C20109B61F39F02012F9A
S315080045D0CCF81C20CCF8143003D1CCF81890CCF8C1
S315080045E0043000270D4A290102EB051342F8018021
S315080045F0159A28465A60694622469F605E7304F0FB
S31508004600BBF9384605B0BDE8F08F0748FAE7074812
S31508004610F8E70748F6E700BF152200205C090020E6
S315080046205C0800200F80FFF3028000F0018000F094
S31508004630078000F038B5124B05461B78DBB1E0B1B0
S315080046400EF028FD0F4A00231146147B54B92B603F
S3150800465001251A0101EB03131D738C500EF015FD8D
S31508004660204638BD0133082B02F11002EDD10EF0B9
S315080046700CFD0548F5E70548F3E70548F1E700BFEF
S31508004680152200205C090020048000F0028000F05A
S31508004690018000F038B50EF0FDFC002305460B4AF4
S315080046A0147B6CB90133082B02F11002F8D104F01F
S315080046B0E5F8074B28461C700EF0E7FC204603E099
S315080046C028460EF0E2FC034838BD00BF5C0900200E
S315080046D015220020058000F00D4B10B51B78044606
S315080046E093B1072812D80EF0D5FC0A4B03EB041336
S315080046F01A7B2AB100241C730EF0C7FC204610BD95
S315080047000EF0C3FC0448FAE70448F8E70448F6E75D
S31508004710152200205C090020068000F0028000F0C7
S31508004720018000F0154B13B51868002301908DF829
S3150800473004300EF0AFFC124B1C7824B10EF0A5FC29
S31508004740104802B010BD01221A700EF09EFC0E4BE6
S3150800475001A81C731C7783F82C4083F83C4083F827
S315080047604C4083F85C4083F86C4083F87C4008230F
S315080047708DF8073004F0B8F82046E2E7325301080E
S3150800478015220020038000F05C090020F8B50D4DC5
S315080047902D7885B1072810DC0B4D060105EB0014B2
S315080047A0277B67B1AB510025069BA560636004F0C3
S315080047B0E3F82846F8BD0548FCE70548FAE7054842
S315080047C0F8E700BF152200205C090020028000F0EF
S315080047D0018000F0078000F00A4A08B512785AB13D
S315080047E007280BD8084A02EB00131B7B43B10021AC
S315080047F004F05AF8002008BD0448FCE70448FAE724
S315080048000448F8E7152200205C090020028000F021
S31508004810018000F0078000F00A4A08B512785AB1FC
S3150800482007280BD8084A02EB00131B7B43B101216A
S3150800483004F03AF8002008BD0448FCE70448FAE703
S315080048400448F8E7152200205C090020028000F0E1
S31508004850018000F0078000F0184B2DE9F0411F6D2C
S315080048605B6D1F4000D5FEE701260025144CDFF8D6
S315080048705880374218D02368C8F85060A3B1A16899
S31508004880284601316268A1609847637B012B0BD1EA
S3150800489050B90C4B03EB45131A7B60F341021A73AC
S315080048A01A7F60F341021A770135082D4FEA46064A
S315080048B004F11004DDD1BDE8F08100BF000004500A
S315080048C05C0900205C080020002004502DE9F04F08
S315080048D0144606460D469B46C36B87B001225B69A4
S315080048E002A960689847F36B01225B6903A9284609
S315080048F0984702A80AF040F9074648B10023A3756D
S3150800490063754FF0FF33A360002007B0BDE8F08F52
S3150800491003A80AF03EF90123A375237E04EBC3031B
S31508004920DD611F846368AB420ED1206003A80AF0DC
S3150800493052F94FF0FF332075A360237D043B022B09
S3150800494026D80023A375DFE723681A1A5342534172
S31508004950A37503A80AF03FF9237D834218BFA775FC
S3150800496003A80AF01AF9074602A80AF016F98742B8
S3150800497018BF002303A818BFA3750AF016F907463F
S3150800498002A80AF012F987421CBF0023A375D4E7D0
S3150800499003A80AF002F980B1F36B022228465B6984
S315080049A004A9984704A80AF007F90346207D0328B6
S315080049B039D8DFE800F03838040903A8F3E7CC2231
S315080049C0237E04EBC3031A8400F01CFC109B1870AA
S315080049D003A8277E0AF0D5F804EBC70787F8220054
S315080049E0237E03A804EBC303B3F8209093F8227040
S315080049F00AF0D3F8804603A80AF0D7F88246B8F139
S31508004A00000F15D0F36B022228465B6904A9984764
S31508004A1004A80AF096F86075637D6BB90023A37540
S31508004A204FF0000838E0227E04EBC2021384CBE77D
S31508004A3003A80AF071F8EEE794F81680B8F1000FAB
S31508004A40EED0B9F1000F09D1DFB10123627EE3751B
S31508004A50002A44D19F4218D1677614E0736C05EB9F
S31508004A600A02594285EA020008421CBF0021A175C4
S31508004A70591E0A409B1A9945D0D8A37D002BE3D12D
S31508004A80CEE7E37D43B94FF000084B465246294628
S31508004A90304609F074FFA060A27D12B123694B4429
S31508004AA023611449237E097899421ED90133237656
S31508004AB0BBF1000F1BD0D2B1E37DC3B1B8F1000F33
S31508004AC015D1032F13D0A1684B1C10D0109B22467A
S31508004AD0009330460123FFF7F9FEA07507E0012F82
S31508004AE0DAD0032F08BFA376CDE70023A375A07DF0
S31508004AF00BE700BF585301082DE9F04F0E469846BC
S31508004B0000238BB004464FF0FF31104617468DF848
S31508004B10133000F061FBB6F5801F3BD3B21C53D1AE
S31508004B20E56A6B1C57D12046616A09F06EFE054698
S31508004B30B31C18BF0123DFF810910193636A626CF6
S31508004B400293236805A902FB053AE36B05225B6914
S31508004B505046984705A80AF07EF80AF0A1F850468C
S31508004B600AF0A9F84FF0000B824601464B1C05D007
S31508004B70636C81EA0A025B42134232D02946204618
S31508004B8009F043FE029BAB424DD0BBF1000F4DD15D
S31508004B900546D3E7314605AA04F1080009F03EFFA9
S31508004BA00146481C10D0384600F016FB012239464B
S31508004BB020460DF1130309F001FF28B19DF81330C3
S31508004BC088F80030002003E0237C002BA8D12D2094
S31508004BD00BB0BDE8F08F2368ED1A636CB5FBF3F5EF
S31508004BE0A6E7484600F0F8FA0DF1130349462046B1
S31508004BF0019A09F0E3FE034690B1B21C03D0D9F836
S31508004C000020B2420CD19DF8132003930D4B88F86F
S31508004C10002049461A6838460AF027FD039B9B463A
S31508004C20D9F80810A2E7BBF1000FD0D0B6F5801F5F
S31508004C30C8D2314698F800307A6804F1080000F0C6
S31508004C4065FABFE754530108501000202DE9F341D7
S31508004C500446174698460E46194D816AE36A8B4202
S31508004C602AD04B1C18E0284600F0B6FA012229463D
S31508004C7020460DF1070309F0A1FE30B14346294647
S31508004C8020469DF80720B847B0B1A9684A1C05D048
S31508004C90012E0AD0E36A9942E5D10DE069682046FB
S31508004CA009F040FE012E0146D8D16B6881EA03025D
S31508004CB0636C5B421A42D1D002B0BDE8F08100BFF6
S31508004CC0241000202DE9F04F4FF0FF334FF6FF7206
S31508004CD00025044600F10806C0E909238BB0C36223
S31508004CE00562056330460F4609F082FE204609F044
S31508004CF05CFD20BB2046394609F0D7FD204609F061
S31508004D0054FD20BB5E200BB0BDE8F08FE26B236834
S31508004D10606CD2F814C000FB0530052205A9E047EF
S31508004D2005A809F098FF012828D12946204609F048
S31508004D308DFD421C2946204609F056FD0135E369DA
S31508004D409D42E3D3204609F030FD0028D2D0002545
S31508004D504FF0FF394FF6FF73CA46A846C4E9085311
S31508004D60E369984514D3A5EB0905012D36D84FF606
S31508004D70FF72636A934246D16720C4E709F095FF3C
S31508004D800028DBD02946204609F060FD0246D1E717
S31508004D902368E26B606C576900FB0830052205A999
S31508004DA0B84705A809F057FF834605A809F02AFF62
S31508004DB00746584609F074FF68B1574538BFC4F826
S31508004DC02480B94528BFB946BD4238BF3D46BA46D4
S31508004DD0236A0133236208F10108C1E74FF6FF731E
S31508004DE000256362E3699D42C1D2676C2068E36B64
S31508004DF0052207FB05005B6905A9984705A809F080
S31508004E0001FF0135EEE7E26B676C2068694607FB30
S31508004E10030055690522A847684609F0F3FE626A49
S31508004E202368606C504D00FB023009F044FF4FF0D8
S31508004E30FF33A062E3622A466FF00101204605AB04
S31508004E40FFF75AFE00284FD1AD6829462046E5628D
S31508004E5009F087FC206320B92046E16A09F062FD63
S31508004E60E0622946204609F05DFD0546A36A9D4293
S31508004E703CD16569626CE91C143AB1FBF2F14FF05A
S31508004E80000805EBC1050335B5FBF2F5C146023549
S31508004E90E36999453CD3A8455AD22046616A09F088
S31508004EA0B4FC0027064604F1400AB84512D8626CDD
S31508004EB02368694602FB0639E36B05225B694846A7
S31508004EC09847684609F09EFE534602464946E06BF7
S31508004ED009F0F3FE3146204609F097FC0137AF4248
S31508004EE00646E2D364200EE7A56AAEE729462046C1
S31508004EF009F037FC236B29460344074623632046FB
S31508004F0009F010FD0546002FB0D1C4E90B07ADE73F
S31508004F10636C2768052203FB0977E36B05A95B69C0
S31508004F203846984705A809F096FE09F0B9FE60B11B
S31508004F30384609F0C0FE0146204609F012FC636CAB
S31508004F40143B984208BF08F1010809F101099FE7D7
S31508004F50304609F04DFD002320461946034AFFF75F
S31508004F6075FE0020CFE600BF7C100020ABE90008E4
S31508004F702DE9F0410025634B0E46D3F80080044620
S31508004F801D6018B921252846BDE8F08190F83470CF
S31508004F9007B30A6803689A4240F0AA804A684368D9
S31508004FA09A4240F0A5808A6883689A4240F0A080B9
S31508004FB0CA68C3689A4240F09B800A6943699A4264
S31508004FC040F096808A69C36B9A4240F091804B699B
S31508004FD08361D8E768223946856B0AF03BFBD6E938
S31508004FE00212336804F1080023607368A5636360DE
S31508004FF0336963617369A36109F00CFDB36904F150
S315080050004000E3639B68984720B9676C17B16368EB
S31508005010B3FBF7F794F84330E761002BB2D00023CF
S31508005020656C2366002D6BD0002F69D02368B3FB0F
S31508005030F5F205FB1233002B5CD16768B7FBF5F672
S3150800504005FB1676002E55D1204609F07AFBA36992
S31508005050043303449F424FD340F634726369CC3B12
S3150800506093424BD8B5F5805F4AD30321204609F011
S3150800507091FBD4E90001E36B1B6898470546E36B8F
S315080050800220DB6898472DB184F83460E06B09F09C
S31508005090A7FC78E741462046FFF714FE6428054634
S315080050A004D141462046FFF70DFE0546636C143BC6
S315080050B0D5B9226A204602FB03F609F042FBA3692A
S315080050C0043303449E4203D284F834505A25DDE75C
S315080050D00123D4E900010C4A84F8343013680133FB
S315080050E0136009F018FDD1E7002384F83430CDE7C2
S315080050F05D2548E7592546E75A2544E75F2542E7EF
S315080051005B2540E7E0090020DC0900202DE9F04393
S31508005110466886B3056898464FF0000CA946AE4621
S3150800512055F83C400CF1010CC4F31307013401D0C7
S31508005130B94217D066450EF1080EF1D12F46002464
S3150800514003E0A64207F1080712D055F834300134B7
S315080051500133F6D1C1F3130141EA0851C7E9001238
S31508005160BDE8F08341EA0851CEE90012BDE8F083B4
S31508005170B8F1030F03D101230372BDE8F0830023BE
S3150800518003E09E4209F10809F5D055F8334001338A
S31508005190C4F30754032CF4D1C1F3130343EA0853A9
S315080051A0C9E90032BDE8F083024B1968024B18685A
S315080051B0FFF7DEBE0C2800202C28002008B50DF0CD
S315080051C059FF014B186008BDA8100020014B18684C
S315080051D00DF04EBFA810002038B5094B0D461A68C9
S315080051E0002104460AF036FA00234FF0FF322383E3
S315080051F0C4E900252361A260E382A37638BD00BF17
S31508005200545301080138C0B205289ABF014B185CEF
S3150800521001207047595301082DE9F0410746154604
S3150800522000240E46596888B0490A012922464FEAE1
S31508005230510104F10104F8D8DC78997824031B8815
S31508005240C90201F4006104F480540C43C3F30A0351
S315080052505203234492B24FF000089C18274B6FEA7A
S315080052600444039325F07843ED4302A90DF10700A2
S315080052701B2202938DF8078009F039FD9DF8072057
S31508005280029B02A943EAC2630DF107001B2225F01F
S315080052907845049302958DF8078009F028FD9DF856
S315080052A00720029B6FEA144443EAC26305934FF052
S315080052B0FF330794069307A9BB69012206F110007C
S315080052C09847BB6905A90446012206F108009847D4
S315080052D0BB69404518BF044604A90122301D9847FA
S315080052E00122404518BF0446BB69304603A99847C2
S315080052F0404508BF204608B0BDE8F08101009AB2D3
S3150800530038B50546B0B1B9B1B2B1B2F5006F13DC24
S315080053100DF0C0FE95F84C3003F0FF041BB10DF0FC
S31508005320B4FE064838BD012385F84C300DF0ADFEB5
S315080053302046F7E70248F5E70248F3E7032000F0BE
S31508005340012000F0022000F0836D70B5002B0546A1
S3150800535003DCCA210E4809F03BF90DF09BFEAC6D43
S315080053600646013CAC6574B90DF084FE0546214637
S3150800537001200AF0D1FE01202146064A0BF06EF8FC
S3150800538028460DF075FE3046BDE870400DF07DBE2E
S315080053905F530108B553010870B504460DF07AFE4F
S315080053A0A36D054673B90DF065FE0121064608464C
S315080053B00AF0B2FE0121074A08460BF04FF83046BC
S315080053C00DF056FEA36D28460133A365BDE870406F
S315080053D00DF05BBEB55301082DE9F0439046002257
S315080053E0436390F85C300446894687B080F85420B9
S315080053F0C0F83C80002B37D14FF4406305686B61D9
S315080054004369092B03D905F12C07443506E00BBF80
S3150800541005F1200705F1240738353C35666920462D
S31508005420082E94BF00260126FFF7B6FF134B0494F7
S31508005430CDE902630123CDF8048000934A463B4632
S31508005440216BA06A09F04EF90023CDE90186CDE962
S31508005450033300932A46E16A606A04F1180309F0E7
S3150800546027F907B0BDE8F083012BFAD1006809F0E7
S315080054705CFC256805F13C07C7E700BF4FEE00084E
S315080054802DE9F04716460022436390F85C3004463F
S31508005490894686B080F85420C663002B38D14FF46D
S315080054A0406305686B614369092B03D905F12C082C
S315080054B0443506E00BBF05F1200805F12408383508
S315080054C03C3567694FF0000A082F94BF002701276B
S315080054D02046FFF761FF134B0494CDE9027301964A
S315080054E0CDF800A04346216B04F13802A06A09F002
S315080054F0F9F80123CDE903AACDE9016700932A4605
