S01D00006D61696E5F706572696F646963616C5F75706C696E6B2E733337C5
S315080000000004002089BE0008858901088589010841
S315080000108589010885890108858901088589010876
S31508000020858901088589010885890108DDD80108BF
S31508000030858901088589010881D8010853DC0108EA
S315080000408589010885890108858901088589010846
S315080000508589010885890108858901088589010836
S31508000060858901088589010885890108910500089F
S31508000070014F0108858901088589010885890108D4
S315080000808589010885890108293A010885890108B1
S31508000090858901088589010899C8000885890108A4
S315080000A08589010885890108A5C4000885C4000852
S315080000B085890108858901088589010885890108D6
S315080000C085890108858901088589010885890108C6
S315080000D085890108858901088589010885890108B6
S315080000E085890108858901088589010885890108A6
S315080000F0858901089D970108858901088589010870
S315080001008589010885890108858901088589010885
S315080001108589010885890108858901088589010875
S315080001208589010885890108858901088589010865
S315080001308589010885890108858901088589010855
S31508000140858901088589010885890108A51201089C
S315080001508589010885890108858901088589010835
S315080001608589010885890108858901088589010825
S3110800017085890108858901088589010830
S3150800017CF0B5114A114C124E00F00105E3695F0700
S3150800018C13D40DB9334213D103EA00078F4207D1B2
S3150800019C0B4A1A40002A0CBF00206FF00100F0BD74
S315080001AC013AEBD16FF00200F9E74FF0FF30F6E7B2
S315080001BC6FF00100F3E700BF80969800000003502B
S315080001CC020001000B4B70B5D96911F480310DD1C1
S315080001DC01244FF48072084E084DF46020462C64B6
S315080001EC1A61FFF7C5FF3464EC6070BD6FF001004F
S315080001FCFBE700BF0000035000100350002003501B
S3150800020CC0F30C0370B5054623B140F21A21114808
S3150800021C00F0A2F84FF480320F4B104C9A66E66940
S3150800022C41F6713316400122E3630D4B0021DA6067
S3150800023C0223656121202361FFF79AFF10B921205B
S3150800024CFFF796FF0122074BDA600EB10023E36332
S3150800025C70BD00BF424002080090005000000350D9
S3150800026C001003500020035070B5134C6061E3690D
S3150800027C5B071ED40E4656F8043B8D18A361AE4296
S3150800028C0BD10423002121202361FFF771FF58B9F4
S3150800029CBDE870402120FFF76BBF08210846FFF721
S315080002AC67FF10B10423236170BD56F8043BA361A4
S315080002BCE5E74FF0FF30F7E7000003502DE9F84368
S315080002CC154682070F46064604D040F266211E489C
S315080002DC00F042F8AB0704D04FF41A711A4800F034
S315080002EC3BF84FF48032194BDFF868909A6603F5A1
S315080002FC1C33DA6902F4803841F67132DA6301226A
S3150800030C03F58053DA6065B928460122104BDA608A
S3150800031CB8F1000F03D00022A3F50053DA63BDE849
S3150800032CF88306F5005404EA0904A41BAC4228BF5A
S3150800033C2C46394622463046FFF796FF0028E4D16C
S3150800034C264427442D1BDEE7424002080090005045
S3150800035C0020035000E0FFFF5FF800F0A1890108B8
S31508000370013800D0FCE770470348044B834202D09B
S31508000380034B03B118477047784700207847002089
S3150800039000000000064B0749C91A891048BF0131F9
S315080003A0491003D0044B0BB101481847704700BFEA
S315080003B078470020784700200000000010B5064C5A
S315080003C0237843B9FFF7D8FF044B13B10448AFF3BA
S315080003D000800123237010BDB03E002000000000FD
S315080003E05C4F020808B5054B1BB105490548AFF334
S315080003F00080BDE80840FFF7CDBF00BF0000000041
S31508000400680400205C4F0208A3F5803A704700BFD5
S31508000410174B002B08BF134B9D46FFF7F5FF00212E
S315080004208B460F461348144A121A19F085FD0E4BCF
S31508000430002B00D098470D4B002B00D09847002082
S31508000440002104000D000D48002802D00C48AFF327
S31508000450008014F015F92000290019F0C0FB13F0EC
S315080004601DFF00BF0000080000000000000000009B
S31508000470000400200004002088410020000000003D
S3150800048000000000064B1B681A7A022A04D812B12B
S315080004901B68044A13607047032AF9D0704700BFE7
S315080004A0704400208004002070B51F4DA2B00BAC2C
S315080004B00FCD0FC495E80F0084E80F0000244FF411
S315080004C08013CDE902440494019313AD01AE0FCE17
S315080004D00FC5164BCDE9074409942B60144B18AD8C
S315080004E0069306AE0FCE0FC52022124B12482B607C
S315080004F0124B13A91D93124B2094CDE91E23114BC1
S315080005000BAA2193104B11F0A1FC044618B1BA218D
S315080005100E4818F045FA00214FF4E13018F024FA95
S31508000520204622B070BD00BF5CE601083C00015BB6
S31508000530010010004400015B0C060020B13E0020BB
S3150800054000010100844400208404002028E60108F4
S3150800055029B9074B186803684BB112F041BC012949
S3150800056005D1034B186803680BB119F019BA70471F
S315080005709844002008B50449044813F055F8BDE826
S315080005800840FFF791BF00BF9C44002038060020B2
S31508000590014811F091BD00BF0C06002008B50448BB
S315080005A018F025FABDE80840024818F020BA00BF3E
S315080005B094E601087CE60108024B034918680DF029
S315080005C00DB800BFC4440020A44400207FB50446EB
S315080005D015468DF80F1021B169210D4A0D4809F00D
S315080005E0ABF94FF4C47122464FF4A1649DF80F008D
S315080005F0094E41430DF10F0301F5A161CDE9005301
S3150800060004FB00600023314403F004FF04B070BD0E
S31508000610ACE60108DFEA0108C406002010B5044666
S3150800062020B18B21064A074809F086F94FF4A160E4
S31508000630054B00FB0430BDE8104015F01BB800BFA1
S31508000640ACE60108C8EA0108C40600202DE9F34112
S3150800065005460C4621B19221164A174809F06CF94D
S315080006604FF4A160154F294600FB047015F005F8F4
S315080006700446D0B9012D10D10546DFF84880104E42
S315080006807368E9B20093062056F8083B38F8022B3F
S31508000690013504F037F8062DF2D1386815F042FB1B
S315080006A0C0F10200C0B204F05FF8204602B0BDE80F
S315080006B0F08100BFACE60108B1EA0108C4060020D3
S315080006C0F0EA010820EB01082DE9F0479DF828809B
S315080006D004460D4616461F469DF82090DDF824A0D0
S315080006E0B8F1000F04D0C321094A0A4809F024F9D1
S315080006F021464FF4A164084833462A4604FB0800FD
S31508000700CDE9099A0897BDE8F04703F089BB00BF11
S31508000710ACE6010898EA0108C40600202DE9F04174
S3150800072005460E4617461C4623B1D421074A0848F3
S3150800073009F002F929464FF4A16506483B463246B8
S3150800074005FB0400BDE8F04114F039BEACE601082B
S3150800075079EA0108C406002038B505460C4621B1D9
S31508000760DA21074A074809F0E7F84FF4A160064B73
S31508000770294600FB0430BDE8384003F003BB00BF40
S31508000780ACE6010868EA0108C406002010B504466C
S3150800079020B1E021064A074809F0CEF84FF4A160D7
S315080007A0054B00FB0430BDE8104014F005BE00BF41
S315080007B0ACE6010853EA0108C406002010B5044651
S315080007C020B1E621064A074809F0B6F84FF4A160B9
S315080007D0054B00FB0430BDE8104015F055B800BFC6
S315080007E0ACE6010835EA0108C406002038B5054616
S315080007F00C4621B1EC21074A074809F09DF84FF449
S31508000800A160064B294600FB0430BDE8384014F0C9
S3150800081049BE00BFACE6010819EA0108C406002073
S3150800082038B505460C4621B1F821074A074809F0AC
S3150800083083F84FF4A1635C43054B29461859BDE874
S31508000840384015F0F4B800BFACE60108FFE9010826
S31508000850C406002010B5044628B14FF48571064A2F
S31508000860064809F069F84FF4A160054B00FB04300F
S31508000870BDE8104003F0F8BBACE60108EBE9010857
S31508000880C406002010B5044628B14FF48E71064AF6
S31508000890064809F051F84FF4A160054B00FB0430F7
S315080008A0BDE8104014F0DDBEACE60108CBE901084E
S315080008B0C406002038B505460C4629B14FF4917197
S315080008C0064A074809F038F84FF4A160054B29464F
S315080008D000FB0430BDE8384014F0C6BEACE601089B
S315080008E0ABE90108C406002010B5044628B14FF448
S315080008F09471064A064809F01FF84FF4A160054BA3
S3150800090000FB0430BDE8104014F09FBEACE60108B9
S3150800091083E90108C406002038B505460C4629B106
S315080009204FF4A371064A074809F006F821462846F7
S3150800093008F0BAFF003818BF0120404238BD00BF92
S31508000940ACE601086CE9010838B505460C4629B13C
S3150800095040F25D11064A074808F0EEFF2146284690
S3150800096008F0BAFF003818BF0120404238BD00BF62
S31508000970ACE6010854E9010838B505460C4629B124
S315080009804FF4B471064A074808F0D6FF22462946AE
S31508000990002016F0FBFF003818BF0120404238BD82
S315080009A0ACE601083DE9010838B505460C4629B10B
S315080009B040F27311064A074808F0BEFF2246294648
S315080009C0012016F0E3FF003818BF0120404238BD69
S315080009D0ACE6010826E9010810B5044628B14FF42B
S315080009E0CE71064A064808F0A7FF4FF4A1635C4398
S315080009F0044B1859BDE8104015F0CAB8ACE6010812
S31508000A00F3E80108C406002010B5044628B14FF4DF
S31508000A10DA71064A064808F08FFF4FF4A160054BC5
S31508000A2000FB0430BDE8104014F021BEACE6010816
S31508000A30CDE80108C406002010B5044628B14FF4D5
S31508000A40E071064A064808F077FF4FF4A160054BA7
S31508000A5000FB0430BDE8104014F091BCACE6010878
S31508000A609DE80108C406002010B5044628B14FF4D5
S31508000A702C71064A064808F05FFF4FF4A160054B43
S31508000A8000FB0430BDE8104014F00EBEACE60108C9
S31508000A906BE80108C40600204FF4A162024B02FB72
S31508000AA0003014F005BE00BFC406002038B5054660
S31508000AB00C4629B140F2D221064A074808F03CFF05
S31508000AC04FF4A160054B294600FB0430BDE83840C9
S31508000AD014F0F1BDACE6010847E80108C406002099
S31508000AE010B5044628B14FF43671064A064808F090
S31508000AF023FF4FF4A160054B00FB0430BDE810400E
S31508000B0014F0E2BDACE601081CE80108C4060020A2
S31508000B1010B5044628B140F2E921054A054808F00F
S31508000B200BFF4FF4A160044B00FB043010BD00BF5F
S31508000B30ACE6010802E80108C406002013B504461D
S31508000B4028B140F21631074A074808F0F5FE4FF477
S31508000B50A160064B00FB043002B0BDE8104014F05B
S31508000B60B6BD00BFACE60108E5E70108C4060020EB
S31508000B7007B528B14FF44771044A054808F0DCFE6A
S31508000B8003B05DF804EB15F0E0B800BFACE6010869
S31508000B90B9E701082DE9F04105460E4617461C46F9
S31508000BA02BB140F22331084A084808F0C5FE294609
S31508000BB04FF4A16506483B46324605FB0400BDE8EE
S31508000BC0F04114F0A2BD00BFACE601088FE70108AA
S31508000BD0C406002010B5044628B14FF44C71064AE5
S31508000BE0064808F0A9FE4FF4A160054B00FB043047
S31508000BF0BDE8104014F09EBDACE601085EE70108AA
S31508000C00C406002070B505460E4614462AB14FF4B0
S31508000C105271074A074808F08FFE4FF4A160064B49
S31508000C203246294600FB0430BDE8704014F096BDF4
S31508000C30ACE601083FE70108C406002010B50446E3
S31508000C4028B140F24E31064A064808F075FE4FF4C0
S31508000C50A160054B00FB0430BDE8104014F092BDBE
S31508000C60ACE6010818E70108C406002010B50446DA
S31508000C7028B140F27731064A064808F05DFE4FF47F
S31508000C80A160054B00FB0430BDE8104014F081BD9F
S31508000C90ACE60108EEE60108C406002038B50546AC
S31508000CA00C4629B140F27D31064A074808F044FE51
S31508000CB04FF4A160054B294600FB0430BDE83840D7
S31508000CC014F03BBDACE60108C8E60108C4060020DE
S31508000CD010B44FF4A1645C4313460A460146034820
S31508000CE000595DF8044B14F0E2BF00BFC4060020AB
S31508000CF04FF4A162024B02FB003014F057BB00BF51
S31508000D00C40600204FF4A162024B02FB003014F027
S31508000D1050BB00BFC40600204FF4A162024B02FB81
S31508000D20003014F093BD00BFC40600204FF4A16242
S31508000D30024B02FB003014F033BD00BFC40600208E
S31508000D404FF4A162024B02FB003014F064BD00BFF1
S31508000D50C40600204FF4A162024B02FB003014F0D7
S31508000D6069BD00BFC40600204FF4A162024B02FB16
S31508000D70003014F062BD00BFC40600204FF4A16223
S31508000D80024B02FB003014F05BBD00BFC406002016
S31508000D904FF4A162024B02FB003014F054BD00BFB1
S31508000DA0C4060020064908B51160064A1A60029B67
S31508000DB0054A1A6005F02CF9039B186008BD00BFA8
S31508000DC0054F01089D4F0108094F0108F0B50D466A
S31508000DD01746044685B020B18121184A184808F0FC
S31508000DE0ABFD6B1E062B27D805F012F90646002127
S31508000DF00E220DF1020019F09FF80322C4EBC4037A
S31508000E000433DBB206EB03168DF80030737A8DF8DF
S31508000E1008202B438DF809308DF8014017F00CFD9A
S31508000E20384429460190074808F0D8FD684605F079
S31508000E30CBF8002005B0F0BD0120FBE7ACE60108C1
S31508000E4043EB01082CEB0108064908B51160064A70
S31508000E501A60029B054A1A6005F0DAF8039B1860C7
S31508000E6008BD00BF75500108195001081750010840
S31508000E7030B50D46044685B020B17E210F4A10488C
S31508000E8008F05AFD0E2200210DF1020019F054F85F
S31508000E90C4EBC40303338DF80030032320468DF8D2
S31508000EA001408DF808300195FFF770FC022802D141
S31508000EB0684605F089F805B030BD00BFACE6010804
S31508000EC060EB010830B5044685B00E220D460DF1DB
S31508000ED00200002119F030F8C4EBC40302338DF880
S31508000EE000300323052100208DF808308DF80140D5
S31508000EF017F0C5FC01902046FFF7F2FD012814D132
S31508000F00019B2B44591B0029019319DC21460F48E4
S31508000F1008F064FD684605F057F820B1F5210C4A3B
S31508000F200C4808F009FD05B030BD2046FFF7B4FDB2
S31508000F300028E5D12046FFF767FD019B0344E1E75A
S31508000F402246054808F04AFDE4E700BF79EB0108A8
S31508000F50DBEB010850EC0108A5EB01081FB590F87A
S31508000F607030044600EB03135878FFF70FFC02288D
S31508000F7008D1174808F032FD164804B0BDE81040FD
S31508000F8008F02CBD94F87030012104EB031358784F
S31508000F90FFF7FEFE17F052FC002294F87030114657
S31508000FA004EB03135B78CDE90022CDE902030A4B73
S31508000FB0012005F0A1FB94F8703020B904EB031367
S31508000FC0587204B010BD04EB031401236372F8E7EA
S31508000FD011EC010835EC0108D13E0020064908B598
S31508000FE01160064A1A60029B054A1A6005F010F855
S31508000FF0039B186008BD00BF9F5001085D0F0008DD
S31508001000A350010810B5044620B185210B4A0C48A7
S3150800101008F092FC04F0FCFF0723022213FB0423CA
S3150800102000EB0310037A052B07D117F005FC0146E0
S315080010302046BDE81040FFF745BF10BDACE60108E5
S315080010403AEC010838B590F87030044600EB031303
S315080010501B7A022B02D1012003F086FB94F870302C
S3150800106004EB03139A7AF2B15D7A012D14D105F0D7
S3150800107045FC88B994F870300B4904EB0314F72340
S3150800108062785343CB5C012B0CBF02212946BDE88D
S315080010903840032005F036BE94F87030002104EB82
S315080010A003146278F3E738BDD23E00202DE9F04FED
S315080010B0F7264FF00108002790F870302A4D00EB0C
S315080010C003135B78044606FB03F216FB0383A81892
S315080010D003EB050B90F8F630AF54BB420CBF022168
S315080010E0042190F8F32087B090F8F49090F8F5A0D2
S315080010F00592049117F0A2FB94F87030049904EB5A
S3150800110003135B78059ACDE9020301915B464946CC
S3150800111000920220524605F0EFFA94F87030014624
S31508001120A8B904EB031383F809805B780F4906FB1B
S3150800113003550F4B95F8F50095F8F420B84218BFFB
S3150800114019460C4807B0BDE8F04F08F047BC04EB59
S3150800115003140948677208F041FC084807B0BDE85F
S31508001160F04F08F03BBC00BFD23E002078EC0108E7
S315080011706FEC010881EC01089AEC010835EC0108CE
S3150800118090F80A31013B012B0AD8F72190F814315F
S31508001190044A4B43D15C01291CBF90F81111D15464
S315080011A000207047D23E0020064908B51160064A5D
S315080011B01A60029B054A1A6004F02AFF039B18600E
S315080011C008BD00BF81110008AD10000845100008D1
S315080011D02DE9FF47DDF83090884617461E46044637
S315080011E09DF834A09DF8385020B19521244A254809
S315080011F008F0A2FB10220021684618F09DFEADB348
S31508001200022300208DF8083003F0AEFAF7201E4DB1
S31508001210B9F1000F2ED000FB045318465246494632
S31508001220013083F8F3A018F092FEF72303FB045568
S3150800123085F8F48085F8F57085F8F66017F0FCFAFD
S315080012400F9B8DF801401844C4EBC4040190013487
S3150800125068468DF8004004F0B7FE20B1B2210B4A6B
S31508001260084808F069FB04B0BDE8F08703238DF849
S315080012700830CBE700FB045080F8F390D5E700BFB1
S31508001280ACE601080BED0108D23E0020D5EC0108BA
S31508001290F0B5057885B02DB14FF4BE711F4A2048C8
S315080012A008F04AFB4FF488740E2200210DF1020063
S315080012B018F042FE03231B4F8DF8083004FB057413
S315080012C0A38820795BBAADF80030FFF75FFA0228E9
S315080012D006D194F80C31032B04BF002384F80C3193
S315080012E04FF4887606FB0576B3798BB1737B57F88E
S315080012F025404FF47A756BB117F0A0FAF38905FB10
S3150800130003440444B4FBF5F56846019504F05CFE15
S3150800131005B0F0BD738905FB0344F3E721ED010829
S31508001320C0EF0108540D0020F0B5067887B02EB13D
S315080013304FF49C713F4A404808F0FEFA17F07EFACF
S315080013404FF488733D4C03FB06435A7B44F826004A
S315080013501AB100225A7307F0AFFA4FF48877774329
S31508001360E5192879FFF712FA022811D0032385F820
S315080013700C314FF4887303FB06442079FFF706FA0D
S31508001380022843D0207907B0BDE8F040FFF73ABEFF
S3150800139095F80C31022B1AD0032BEAD0012B297BA6
S315080013A036D1002918BF042029792A7E039154F8DA
S315080013B026100092003ACDE9010118BF0122E0216A
S315080013C007F119032344062005F096F913E007F5FB
S315080013D0877300272A793946039254F826200197FD
S315080013E0029295F80D210320009223443A4605F00F
S315080013F083F985F80D7148B94FF4887303FB0644E1
S3150800140094F80C31032B18BF84F80C0107B0F0BD13
S31508001410002918BF04200A4B012205932B7911468F
S31508001420039354F82630CDE901030423009305AB52
S31508001430C9E700BF21ED010898EF0108540D002007
S31508001440111213142DE9F04F90F8143189B0804623
S3150800145001935BB1AC481A46AC4908F0BFFAAC48F0
S3150800146008F0BCFA002009B0BDE8F08FA94E019B30
S315080014703279002A0CBF1F46FF27FF2F8DF80B7005
S31508001480F0D04FF4887909FB07F906EB0904A2792D
S31508001490002AE7D090F813515DB104F0B9FD6279DE
S315080014A090F870309A42DDD00DF10B00FFF7F0FE90
S315080014B0D8E790F80A210D2A22D1637D8BB1227EC6
S315080014C09549964808F08AFA09F11809944F4E4446
S315080014D0237EAB4207D8924808F080FA012384F8A5
S315080014E00C310120BFE72A0703D115B1384608F0A9
S315080014F075FA16F8011F8B4808F070FA0135E7E708
S3150800150090F8112190F80911002A39D10029A9D09B
S3150800151090F80821002AA5D022890132228198F85C
S31508001520081100299ED0804808F058FA98F8082132
S31508001530E02AD6D14FF488724FF0000A02FB076200
S3150800154098F8005082F818A0002D00F01C812A4651
S315080015507649724808F042FAC1464446DFF8C0B1F7
S3150800156014F8011F6F480AF1010A08F037FAAA456C
S315080015700DD21AF00F0FF3D1584608F02FFAEFE7FD
S3150800158022890132228100293FF46CAFC7E74FF464
S3150800159088747C43624808F021FA98F801B004F18F
S315080015A0190ABBF1220FB24427D8BBF1220F36D84D
S315080015B0DFE81BF08900C800D000DC00FF001D0131
S315080015C0280136014A017D019801350035003500AC
S315080015D03500350035003500350035003500350055
S315080015E03500350035003500350035003500350045
S315080015F035003500A201B701C901BBF1530F00F050
S31508001600DE8132D8BBF1440F00F0DB8128D8BBF16C
S31508001610400F00F0B181BBF1420F00F0B8815A4685
S315080016204349444808F0DAF9394808F0D7F92A4610
S3150800163041493A4808F0D2F90024DFF8E8A0DFF873
S31508001640E0B0504619F8011F013408F0C7F9AC425A
S3150800165080F036822307F4D1584608F0BFF9F0E740
S31508001660BBF1520FDBD1354847E0BBF17E0F00F0E6
S31508001670AF81BBF17F0F00F0BF81BBF17D0FCED1EB
S31508001680072D39D1012234446273B8F80220307923
S31508001690E28198F8052098F80610120202EB01423A
S315080016A098F804100A4464214A43226198F80730DE
S315080016B02375FFF783F806F0ABFF94F91410206939
S315080016C006F0F8FF5FE0012D16D14FF4887303FB8F
S315080016D007631A7E511C197600210AF802101A7E31
S315080016E0511C197606210AF802101A7E511C197621
S315080016F00AF80250012337E0114808F06FF9044848
S3150800170008F06CF93FE000BF3CED010869EF0108FD
S3150800171035EC0108540D002065ED01087CED010843
S315080017202B2F02088FED01083F36020895ED0108B8
S315080017304CEF01083FEE010864EE0108F8ED0108D8
S31508001740AAED0108012DD7D1A64808F047F917F0E8
S315080017506FF818E0012DCFD13079FFF72FF8002068
S315080017603179FFF7A7F8032301930CE0022DC3D1C3
S3150800177098F8021002291AD84FF4887303FB0763F6
S31508001780187915F08BFF4FF4887303FB0766019BE6
S3150800179086F80C3104F03CFC727990F870309A4265
S315080017A03FF49FAE0DF10B00FFF772FD99E68E48E8
S315080017B0A3E7022DA0D198F8023096F804C08BB999
S315080017C004AC2246894B03F1100E25461868596861
S315080017D0083303C573452C46F7D10321604606F046
S315080017E0A1FDD0E761460020FFF700F8CBE7022D00
S315080017F082D198F802301BB9284602F0B5FFC2E735
S315080018000120FAE7022D7FF477AF4FF4887298F833
S31508001810021002FB0762764B33F811305381B2E7A8
S31508001820F22D3FF669AF98F802204FF48873012A23
S3150800183004D1002203FB07631A73A4E7022AA2D184
S31508001840012203FB0763F7E7F22D3FF655AF4FF486
S31508001850887404FB07642079FFF746F8227E801A0D
S31508001860A84205D82079FFF73FF8227E851AEDB2FF
S315080018704FF4887202FB0762117E013D481C107600
S3150800188008200AF801000021EDB208F10103C8B2E8
S3150800189085427FF62FAF13F8010F147E013004F14D
S315080018A0010C82F818C001310AF80400EFE7012D8F
S315080018B07FF422AF4FF4887303FB07631A7E511C2B
S315080018C0197609210AF802101A7E1989501C187609
S315080018D00AF80210197E1A89481C120A18760AF89C
S315080018E0012007E7012D7FF407AF4FF48873002224
S315080018F003FB07631A8146E7012D7FF4FDAE4FF41B
S31508001900887303FB076393F80D21022A3FF63BAF62
S31508001910511C83F80D111344022283F80E21022369
S3150800192022E7012D7FF4E8AE4FF4887303FB0763C3
S3150800193093F80D21022A3FF626AF511C83F80D11A4
S3150800194013440D22E9E7022D7FF4D6AE4FF48874CE
S3150800195004FB076498F802002179FFF79FF994F8C9
S315080019600D31022B3FF60FAF5A1C84F80D211C448B
S31508001970102384F80E31D2E7022D7FF4BDAE98F815
S3150800198002303444003B18BF01236375FBE6022D81
S315080019907FF4B2AE3444237E5A1C227643220AF8D8
S315080019A00320237EE28A591C21760AF80320227E28
S315080019B0E38A511C1B0A21760AF802309AE60D487A
S315080019C09BE6012D7FF498AE00233444E382DAE6E1
S315080019D0012D7FF491AE002034442179A071FFF7E0
S315080019E065F8B4E6C2ED0108D4ED01086EEE01080B
S315080019F00CF0010817EE0108012D7FF47DAE344482
S31508001A002079FEF771FF0C287FF6BDAE237E5A1C9F
S31508001A1022760AF803B02079FFF790F80390207928
S31508001A20FFF7A6F8237E04905A1C227604220AF8A9
S31508001A300320237E5A1C227608220AF80320237ED6
S31508001A405A1C227600220AF80320237E591C217686
S31508001A500AF80320237E5A1C22769DF80C200AF8E1
S31508001A600320237E5A1C22769DF80D200AF80320AF
S31508001A70237E5A1C22769DF80E200AF80320237E20
S31508001A805A1C22769DF80F200AF80320237E5A1C3A
S31508001A9022760AF80300237E5A1C2276C0F3072210
S31508001AA00AF80320237E5A1C2276C0F307420AF856
S31508001AB00320237E000E5A1C22760AF8030019E634
S31508001AC000481DE62B2F02082DE9FF4798460378A4
S31508001AD006460F46924623B1D421334A334807F0C7
S31508001AE02BFF4FF4887296F80090314C02FB09F5EB
S31508001AF0281D0021204418F01FFA2E4B2E4ACAF83A
S31508001B0000302E4B2544C8F800300C9B1A600D9BFC
S31508001B101E600726B7FBF6F630466F712E71FEF784
S31508001B20DFFF002814BF01230023AB7137D02448F8
S31508001B3007F054FF234807F051FF2979224807F098
S31508001B404DFF204807F04AFF1D4807F047FF1D488C
S31508001B5007F044FF4FF4887303FB09440523002765
S31508001B6003256381A379277384F80C51A3B1304602
S31508001B7007F0CAFE0E2239460DF1020018F0DCF90C
S31508001B80A3888DF808505BBAADF8003016F054FEFD
S31508001B900190684604F018FA04B0BDE8F087297980
S31508001BA00A4807F01BFFD5E77FEE0108E8EF0108B2
S31508001BB0540D002045140008911200082913000846
S31508001BC0A2EE010835EC0108E0EE01081DEF010858
S31508001BD070B58C21044690F89854D0F8C00401FBDF
S31508001BE00541D0F808311C31984728B14FF4837164
S31508001BF0214A224807F0A0FE0221D4F8C00413F0B7
S31508001C00A8FA28B140F207111D4A1C4807F094FEAD
S31508001C10D4F8C00404EB450204EB8503C66CB2F89D
S31508001C206A23D3F84C130068B04728B14FF484717F
S31508001C30144A124807F080FE182303FB0545D5F819
S31508001C40E06216F0FBFD361A002EF8DC16F01AFED6
S31508001C50012016F016FED4F8C0341A6A18689047A0
S31508001C6028B14FF48971084A044807F065FE16F052
S31508001C70E5FDC4F86C0470BD22F00108C40302082F
S31508001C806FF00108BFF0010829F10108F8B58C21A9
S31508001C90044690F89854D0F8C00401FB0541D0F8E2
S31508001CA008314831984728B140F24D11194A1A4867
S31508001CB007F042FECC21D4F8C00413F04AFA28B142
S31508001CC04FF4A771154A144807F036FE182707FB84
S31508001CD00547D7F8E06216F0B1FD361A002EF8DC93
S31508001CE016F0D0FD002016F0CCFD8C2202FB05452F
S31508001CF0D4F8C034696F5A6A1868904728B14FF407
S31508001D00AC71074A044807F017FE16F097FDC4F8A9
S31508001D107004F8BD5CF101083A030208A9F101084C
S31508001D203CF20108F8B58C21044690F89854D0F88E
S31508001D30C00401FB0541D0F804314831984728B161
S31508001D404FF4B171194A1A4807F0F6FD8C21D4F8F8
S31508001D50C00413F0FEF928B140F26311154A14487D
S31508001D6007F0EAFD182707FB0547D7F8E06216F0E3
S31508001D7065FD361A002EF8DC16F084FD002016F0F4
S31508001D8080FD8C2202FB0545D4F8C034696F5A6A77
S31508001D901868904728B140F26D11074A044807F0C1
S31508001DA0CBFD16F04BFDC4F87004F8BD96F2010899
S31508001DB00D030208E3F201083CF201082DE9F3419C
S31508001DC08C2690F89854D0F8C03415FB06F606F120
S31508001DD01C07074404463946D3F8C82018689047B4
S31508001DE028B14FF49871324A324807F0A5FD8C2382
S31508001DF003FB0543D4F8C0049A6AD0F8488093F9DF
S31508001E0030100068C04728B14FF499712A4A29480A
S31508001E1007F092FD40F20241D4F8C00413F099F994
S31508001E2028B140F23511254A224807F085FD8C2352
S31508001E3003FB054304EB4501B1F86A13D4F8C00463
S31508001E405B8E019104EB8501D1F84C1306F18A02E9
S31508001E500091D0F8CC60394600682244B04728B1D2
S31508001E6040F23711164A134807F066FD182303FB9C
S31508001E700545D5F8E06216F0E1FC361A002EF8DCC6
S31508001E8016F000FD012016F0FCFCD4F8C0341A6ADE
S31508001E901868904728B14FF4A2710A4A054807F016
S31508001EA04BFD16F0CBFCC4F86C0402B0BDE8F0811B
S31508001EB05FF3010867030208CDF3010882F40108FD
S31508001EC0E8F4010829F1010870B58C21044690F858
S31508001ED09854D0F8C00401FB0541D0F804311C31F0
S31508001EE0984728B140F21B11214A224807F024FDE1
S31508001EF00221D4F8C00413F02CF928B14FF48E71DE
S31508001F001D4A1C4807F018FDD4F8C00404EB450226
S31508001F1004EB8503C66CB2F86A23D3F84C13006841
S31508001F20B04728B140F21D11144A124807F004FDC3
S31508001F30182303FB0545D5F8E06216F07FFC361A30
S31508001F40002EF8DC16F09EFC012016F09AFCD4F858
S31508001F50C0341A6A1868904728B14FF49371084A32
S31508001F60044807F0E9FC16F069FCC4F86C0470BD77
S31508001F70FFF50108970302086FF00108BFF0010892
S31508001F8029F101081FB5044690F82D00002836D01F
S31508001F90072294F8A50194F82E3018443D3094F899
S31508001FA004352044CDE90203236A019300230093F4
S31508001FB0A36A94F8331015F085FB20B1F521114A70
S31508001FC0114807F0B9FC94F8043506220293236AEF
S31508001FD004F13500019300230093A36A94F83410A2
S31508001FE015F098FC20B1FC21084A074807F0A4FC24
S31508001FF094F83430043384F8343004B010BD062223
S31508002000C9E700BF4CF60108F103020874F6010897
S31508002010F0B5BBB017AF04468C220021384617F03E
S315080020208BFF1822002600210DEB020017F084FF13
S31508002030217B2068049603F0F5FC0546002840F04D
S315080020409A8005AB217B20680DF10F0203F000FD95
S31508002050294614220CA817F06FFFD4F864332068B9
S315080020600F9313F05CFED4F8642394F90E10237BC7
S315080020708DF84100206803F051FD9DF80F308DF86A
S3150800208040008DF830309DF8143020688DF83130D6
S3150800209013F03EFE9DF830209DF831108DF8320081
S315080020A0104613F036F811468DF83300206813F001
S315080020B0FCFD94F834308DF836508DF8373001230E
S315080020C0ADF83400ADF8383018AD0CAE8DF85C308C
S315080020D00FCE0FC533680CA92B60D4F870330DA842
S315080020E0D3F8C034D3F8A430984702238DF81930B2
S315080020F0864B049007932146D4F870030CAA05F082
S3150800210039FC28B140F2F311814A824807F014FCE1
S315080021109DF830308DF81830049B0B93D4F8B433FF
S31508002120099394F8B833002B00F0EE8016F0ACFB58
S31508002130099B1B1A0993002384F8B8338DF82230BB
S31508002140022384F86E33009794F83430D4F8700379
S3150800215004F1350206A905F027FC50B106236E489E
S315080021609DF8301084F86E3307F038FC6B4807F09A
S3150800217035FC3BB0F0BD012853D1217B206805AA68
S3150800218003F07EFC31462C220CA817F0D5FED4F8B5
S315080021906423237B94F90E102068149203F0BEFC86
S315080021A08DF85A00206803F0CBFC5D4B4FF47A7229
S315080021B0159340F2FF13ADF8583094F834308DF883
S315080021C04550ADF84630574B139010934FF4827331
S315080021D0ADF848309DF814308DF85C60534346F2EC
S315080021E0A8120C93504B18ADCDE90D2304230CAE61
S315080021F08DF83C300FCE0FC50FCE0FC596E80700F9
S31508002200D4F8703385E80700D3F8C0340CA9D3F89E
S31508002210A83010A89847032304908DF81930434B2B
S3150800222068E7022869D10DF10F03217B20680DF1BB
S315080022300E0203F037FC182231460CA817F07CFE74
S31508002240D4F8642394F90E10237B206803F066FC07
S315080022509DF80E308DF8440020688DF835308DF8DD
S31508002260346003F04BFC01238DF838309DF80F30AD
S315080022708DF836009DF80E008DF8373003F02AFCED
S315080022808DF83900206803F06DFCD4F864338DF8B6
S3150800229040600F93D4F870330C90D3F8C034059689
S315080022A0D3F8DC50186805AA0CA9A84728B140F24B
S315080022B0DB111F4A174807F03FFB05990020013933
S315080022C016F0DDFA18ADADF846000CAE0FCE0FC508
S315080022D096E80300D4F8703385E80300D3F8C00401
S315080022E094F83420D0F8D85004AB00680CA9A84755
S315080022F004238DF819300F4BFCE640F2ED110E4A17
S31508002300044807F019FBF6E6012317E7D11B000876
S315080023107EEE0108F00202083FF7010835EC0108D5
S315080023200F1D211028000218A0860100C91E0008EA
S3150800233099F60108BD1D000822F701082DE9F047A6
S3150800234090F86CA3B4B004460F4600685146904610
S3150800235003F068FB0DF1440905468C220021484626
S3150800236017F0EAFD84F86D7357B1012F00F0B080BD
S3150800237040F22221844A854807F0DEFA002601E069
S31508002380D4F86863002D40F0A5800DF11703514677
S3150800239020680DF1160203F05BFB29460E220DF1AB
S315080023A01E0017F0C9FD206813F0B9FCB4F8803395
S315080023B08DF8290020688DF82A30099613F0A8FCB4
S315080023C09DF816509DF817108DF81A0028468DF8B6
S315080023D018508DF8191012F09CFE012251468DF8FE
S315080023E01B00206803F008FC0126053029468DF8F5
S315080023F01F0020688DF8216013F057FC1DADADF85D
S315080024001C008DF8446006AE0FCE0FC533682B60EE
S31508002410D4F8783328932146D4F870030DF11702BF
S3150800242005F0A8FA28B140F26D21594A574807F035
S3150800243083FA122200210DF11A0017F07DFD9DF88E
S315080024401730544A8DF818309DF8443006A9012BE8
S3150800245014BF012300238DF819304F4B08BF1346CC
S315080024600793D4F87C33CDF800900B9304F2ED3241
S31508002470FF23D4F87003CDF8248005F095FA9DF86B
S315080024801720002875D10423444884F86E33791C34
S3150800249007F0A4FA9DF84430012B414B62D153F85A
S315080024A027509DF875203F4B206853F82290209EB0
S315080024B09DF8747013F033FC3346CDE9019042461B
S315080024C029463948009707F089FA34B0BDE8F087FD
S315080024D0666957E7012D3ED1514620680DF117026E
S315080024E003F0CEFA2022002109A817F025FD20685E
S315080024F00E9603F025FB2D4B4FF47A720F9340F29C
S31508002500FF13ADF840302A4B8DF82D500A93FF2360
S31508002510ADF82E304FF48273ADF830309DF8173091
S315080025200D90534346F2A8120693224B1DADCDE9F2
S31508002530072304238DF82430002306AE8DF8443093
S315080025400FCE0FC50FCE0FC596E8070085E8070022
S31508002550D4F87C335EE740F26721174A0B4807F048
S31508002560EBF958E7259A53F82710144807F036FA76
S31508002570ABE706231146124884F86E3307F02EFAA5
S31508002580104807F02BFAA0E76BF70108D3020208F8
S315080025907EEE01088D1C0008251D00087EF701083F
S315080025A0A8040208700402089CF701080F1D2110F0
S315080025B028000218A086010025F70108D7F70108A8
S315080025C03FF7010835EC010873B5044601460DF1DD
S315080025D00302D0F8700305F0CDF99DF80310D4F87E
S315080025E0700304F2833301AA05F0B0FA94F8831352
S315080025F00A2900F2AC80DFE801F069AAAA061B6D79
S31508002600AAAAAAAAA800019BC4F8843394F86E3330
S3150800261094F88313022B00F09E80042B00F0A4800C
S315080026200A2940F0A380062384F86E3302B070BDF1
S315080026308C21019B9DF80320C4F8EC34D4F8703340
S3150800264001FB02331A7E012A26D1B3F88220B3F899
S315080026508030A4F8F024A4F8F2349DF80330D4F8B6
S31508002660702394F8ED1303F5D87332F8133049093B
S3150800267084F8EC3303D0D423CB40DB0719D5424882
S3150800268007F0ACF9414807F0A9F9052384F8833324
S31508002690002384F8EC33B9E722B9B3F88430A4F8F8
S315080026A0F024D8E740F2B621394A3A4807F044F907
S315080026B0D3E794F88233022BA8D1D4F8EE13A26A92
S315080026C08A42A3D0344807F089F9DBE7334807F094
S315080026D085F99BE794F86D33019D33BB667ED4F884
S315080026E07C23D4F884331344ED1AD4F8A833ED1AAE
S315080026F094F86C3303F5E27334F91330ED1A16F0D7
S31508002700C3F84FF47A732D1A03FB165516F0C0F862
S315080027102D1A002D0FDA94F86C3304EB4303B3F843
S315080027208823013AA3F8882370E7012B0ABF667E3F
S3150800273000260136D3E73FF469AF94F86C3304EB0F
S315080027404303B3F888230132ECE71548BFE7154879
S3150800275007F044F95AE7032384F86E3394F8833371
S315080027600A2B7FF463AF5EE70523F5E70E4807F00B
S3150800277035F90E4807F032F94FF44571044A054811
S3150800278007F0DAF8EAE700BFE9F7010832F80108C6
S315080027907EEE0108B902020807F8010869F801087F
S315080027A081F80108AAF80108C5F8010835EC0108FE
S315080027B02DE9F04387B004460F4616F03FF88046E9
S315080027C05FB1012F5DD0414840F23A31404A07F0E7
S315080027D0B3F8002007B0BDE8F083217B227E20688D
S315080027E094F8199002F02CFE4FF47A73014603FB15
S315080027F009F9206884F86C1303F014F9002847D106
S3150800280094F86C1320680DF116030DF1150203F008
S315080028101FF916F039F8064616F03AF894F86C13CC
S315080028204A4601F5E27334F91350D4F8BC333544FB
S315080028300026039304F55E73019304F55F73009312
S315080028400296054404F56073206813F08DFA04F5C2
S315080028506A730093B4F880336AB294F86C132068EC
S3150800286013F0C9FAD4F88453D4F8A8331D44A5EB59
S31508002870080515EB09051CD50523012084F86E33D8
S31508002880A8E74FF47A79637EA17C03FB0999B0E740
S31508002890012807D194F86C1320680DF1170203F08C
S315080028A0EFF8B6E740F253310A4A084807F044F809
S315080028B0AFE73946204605EB0802FFF73FFD064815
S315080028C0294607F08BF8304684E700BF98020208CD
S315080028D06BF7010825F70108F1F8010800232DE92F
S315080028E0F04F044687B080F8B13380F83F3380F85C
S315080028F0343184F8953165E094F8341160290AD9A1
S31508002900BE4807F06BF8BE4807F068F84FF0FF308E
S3150800291007B0BDE8F08FE01890F8EC118D1E112D68
S3150800292000F2A485DFE815F0120039008401B00131
S315080029303C02690251038503E003A205A20560046F
S31508002940A205A205A904DE04A2054F050233934297
S3150800295008DB002384F8DE3294F8B133033384F8B5
S31508002960B1332FE094F8DC23022AF5D1032223445D
S3150800297084F8DC2393F8EC2190F8ED11A14807F0D0
S315080029802DF894F8B133234493F8ED2184F8C02345
S3150800299093F8EE3184F8C133DEE70025EEB206EB94
S315080029A08601471897F8EC71032F05D105311944AC
S315080029B0914205F10105F1DD66B9053384F8B133B5
S315080029C084F8DE6294F8DE2294F8B1339A4293D8FA
S315080029D000209DE700258C4F2A4694F8B13302EB78
S315080029E082021344234493F8F0210135029293F8A6
S315080029F0EF212946019293F8EE213846009293F882
S31508002A00ED31324606F0EAFFEBB29E42E4D80027E3
S31508002A100725DFF81892DFF8E8A194F8B13307EB39
S31508002A2087021344234493F8EF2193F8EEB193F801
S31508002A30F0310BEB022B1FFA8BFBC3F3021801379D
S31508002A405A4643463946714806F0C8FF5A46414633
S31508002A50206802F057FD10F1020F834606D148465A
S31508002A6006F0BCFF504606F0B9FF0625FBB29E42AB
S31508002A70D3D8BBF1FF3F06D1654806F0AFFF6048E3
S31508002A8006F0ACFF0625771E94F8B13307EB8707E7
S31508002A9027443B4493F8ED8194F84A334FEA1819D2
S31508002AA02BB3B9F10F0F07D05A4806F097FF5448D1
S31508002AB005F0050506F092FF08F00F08B8F10F0FAC
S31508002AC007D0554806F08AFF4D4805F0030506F07D
S31508002AD085FF206802F04AFF013038D14F4805F0DB
S31508002AE0060506F07BFF464806F078FF2FE0B9F1A9
S31508002AF00F0F06D001224946206802F093FD0130E7
S31508002B0013D094F8B1333B4493F8ED8108F00F08DD
S31508002B10B8F10F0F41D04146206803F0A9F90130FA
S31508002B203BD13D4805F00305DBE73A4806F056FF7A
S31508002B30334806F053FF94F8B13305F005053B44D6
S31508002B4093F8ED8108F00F08B8F10F0FE3D194F868
S31508002B50B13306EB8602134494F8DE22DBB29A42BE
S31508002B6084F8B133FFF42EAF94F8343103EB460200
S31508002B70602A3FF727AF00210327E2180131C8B2C0
S31508002B80864282F8357182F8365102F10202F5D88A
S31508002B9003EB460384F8343114E7072DD7D194F8AC
S31508002BA0B13320681F4497F8F07102F07DFCB8F144
S31508002BB00F0F05D04146A27E206802F05DFCA07387
S31508002BC007F00F07012F4FF0010338BF0127B9F1AE
S31508002BD00F0F18BF84F80D90617B84F8B93310483D
S31508002BE0E77306F0FBFE94F90E100E4806F0F6FEA3
S31508002BF0E17B0D4806F0F2FEA9E700BF0FF90108D0
S31508002C0035EC010839F9010853F9010886F9010874
S31508002C10E6F9010809FA010828FA010846FA01083E
S31508002C2078FA01088FFA0108A0FA0108C3F9010821
S31508002C30591C914206DB023384F8B133002384F829
S31508002C40DE32BFE6214491F8EC11B94806F0C6FE1B
S31508002C5094F8B133E21892F8ED21023302F00F022C
S31508002C60E26194F8DE22DBB29A4284F8B133FFF4CB
S31508002C70A9AE94F834315F2B3FF6A4AE0421E218CE
S31508002C8082F83511013385E7191D914201DB0533B9
S31508002C90D2E7214491F8EC31009390F8EF3190F89F
S31508002CA0EE2190F8ED11A34806F098FE94F8B1339A
S31508002CB02068234493F8ED61C6F30216314602F004
S31508002CC05DFC013057D19C4806F088FE9B4806F00B
S31508002CD085FE062594F8B1332068234493F8ED81E0
S31508002CE008F00F08414602F05DFC013007D1944810
S31508002CF006F074FE914805F0050506F06FFE94F897
S31508002D00B113206801F5F771214413F016F801464E
S31508002D100746206802F0A2FF01302ED1894806F046
S31508002D205DFE864805F0030506F058FE94F8B133B3
S31508002D3094F8DE220533DBB29A4284F8B133FFF405
S31508002D4041AE94F834315E2B08D80521E2180233D7
S31508002D5082F8351182F8365184F8343194F8953171
S31508002D600D2B3FF62FAE0521E21882F8961182F850
S31508002D7097510233BDE50725ACE7072DD6D1314675
S31508002D807148267684F81280676106F027FEA17CD2
S31508002D906E4806F023FE61696D4806F01FFEC5E71A
S31508002DA00DF117022146D4F8700304F0E3FD6948D3
S31508002DB006F014FE94F8B13394F8DE220133DBB240
S31508002DC09A4284F8B133FFF4FDAD94F834515D2D81
S31508002DD03FF6F8AD0623254485F8353115F056FD3E
S31508002DE085F8360194F83431B4F8F024E11802F085
S31508002DF03F0281F837210333CCE6591D914201DBA6
S31508002E00063319E7214491F8EC31019390F8F03133
S31508002E10009390F8EF3190F8EE2190F8ED114E48B6
S31508002E2006F0DCFD206812F06BFF48B94B4806F047
S31508002E30D5FD424806F0D2FD94F8B13306338EE547
S31508002E4094F8B1332068234493F8ED61314602F0D3
S31508002E505FFC013069D1424806F0C0FD374806F0EC
S31508002E60BDFD002594F8B113206801F5F7712144DA
S31508002E7012F063FF01468146206802F005FF013023
S31508002E8007D1384806F0AAFD2C4805F0020506F0D9
S31508002E90A5FD94F8B1332068234493F8F17107F03F
S31508002EA00F07394602F09EFB013007D12E4806F07F
S31508002EB095FD224805F0010506F090FD94F8B1331A
S31508002EC02068234493F8F1814FEA1818414602F026
S31508002ED089FB01304ED1254806F080FD174806F0DB
S31508002EE07DFD474505F0010507D9214806F076FD21
S31508002EF0124805F0010506F071FD94F8B13394F80F
S31508002F00DE220633DBB29A4284F8B133FFF45AADB7
S31508002F1094F834315E2B3FF655AD0721E21882F856
S31508002F20351182F83651023334E603259AE700BF95
S31508002F30B1FA0108CBFA0108F5FA010835EC0108DF
S31508002F4017FB010833FB010857FB010872FB010850
S31508002F5087FB01089DFB0108B7FB0108E1FB010897
S31508002F601EFC010842FC010862FC01087FFC0108FE
S31508002F709CFC01084745B8D8032DBED132464946C0
S31508002F80206802F021FC32464946206802F036FCE9
S31508002F903A4643463146206802F052FC3246B9F1B9
S31508002FA0000F10D14946206802F080FC314620689F
S31508002FB002F098FC3B4602463146BC48CDF80080F4
S31508002FC006F00CFD99E70121EDE7591C9142BFF681
S31508002FD032AE214491F8EC11B54806F0FFFC94F89E
S31508002FE0B133E21892F8ED21023302F00F02012AFA
S31508002FF038BF0122627694F8DE22DBB29A4284F860
S31508003000B133FFF4DFAC94F834315F2B06D80821CE
S31508003010E218013382F8351184F8343194F8953181
S315080030200E2B3FF6CFAC0821E21882F89611013331
S315080030305FE4591C9142BFF6FEAD21449D4891F8C4
S31508003040EC1106F0CBFC206812F057FE48B99A48F6
S3150800305006F0C4FC994806F0C1FC94F8B133023373
S315080030607DE494F8B133964A234493F8ED11206829
S3150800307001F00F03D35C827A023BDBB2934228BF8E
S31508003080134694F90E20A3769342A8BF1346C1F3BC
S315080030900011A37312F04BFE94F8B1332068234451
S315080030A093F8ED11C1F3401112F044FE94F8B133D0
S315080030B094F8DE220233DBB29A4284F8B133FFF485
S315080030C081AC94F834315F2B06D80921E218013314
S315080030D082F8351184F8343194F895310E2B3FF681
S315080030E071AC0921E218A0E7191D9142BFF6CFADD0
S315080030F0214491F8EC31009390F8EF3190F8EE21E5
S3150800310090F8ED116F4806F069FC206812F0F8FD9A
S3150800311048B96D4806F062FC684806F05FFC94F80A
S31508003120B13305331BE494F8B1332068234493F88C
S31508003130ED61314602F0D6FB00283DD1634806F022
S315080031404DFC5E4806F04AFC012594F8B113206848
S3150800315001F5F771214412F0F0FD01460746206893
S3150800316002F07CFD013029D1594805F0020506F028
S3150800317035FC524806F032FC94F8B13394F8DE2256
S315080031800533DBB29A4284F8B133FFF41BAC94F8EA
S3150800319034315E2B08D80A21E218023382F8351139
S315080031A082F8365184F8343194F895310D2B3FF670
S315080031B009AC0A21E218D8E50325C6E7032D11D183
S315080031C032463946206802F019FB31460028206845
S315080031D018BF002502F0A8FB314602463D4806F016
S315080031E0FDFBC6E70125C7E7591D9142BFF608AEA4
S315080031F094F8DD23022A7FF421AE0323214484F8C0
S31508003200DD3391F8EC31019390F8F031009390F8A2
S31508003210EF3190F8EE2190F8ED112F4806F0DEFB1D
S3150800322094F8B1332D48234493F8EF1193F8EE211F
S31508003230090441EA022193F8ED21114393F8F0219C
S3150800324041EA0261C4F8C41393F8F1214FF47A7382
S315080032505A43120AC4F8C82306F0C0FB94F8B133DF
S31508003260063384F8B133D4F8D033C4F8CC3315F028
S31508003270E3FAC4F8D403FFF7A5BB94F8DE23022AC1
S3150800328010D10323164884F8DE3306F0A7FB94F81A
S31508003290B133013384F8B13394F8E93384F8EA3367
S315080032A0FFF790BB0133FFF75ABB00BFC2FC01080A
S315080032B0F6FC010817FD010837FD010835EC010881
S315080032C0B004020876FD01089CFD01081EFC0108F1
S315080032D042FC0108D8FD010802FE01082FFE01087C
S315080032E05AFE0108191D9142BFF6D1AC214491F846
S315080032F0EC31009390F8EF3190F8EE2190F8ED114B
S315080033005E4806F06BFB94F8B113206801F2ED11E4
S31508003310214412F012FD0746A8BB032594F8B133E1
S315080033202068234493F8F06106F00F06314602F050
S3150800333039F9013035D1524806F050FB514805F0AD
S31508003340010506F04BFB94F8B13394F8DE220533F9
S31508003350DBB29A4284F8B133FFF434AB94F83431D3
S315080033605E2B08D81121E218023382F8351182F84B
S31508003370365184F8343194F895310D2B3FF622AB4B
S315080033801121E218F1E40146206802F067FC0130D9
S31508003390C3D13D4806F022FB3A4806F01FFB02253A
S315080033A0BCE7032D0DD131463848C4F8E47384F8D8
S315080033B0E86306F013FBD4F8E413354806F00EFB71
S315080033C0C1E70225BFE7D91C914201DB043333E488
S315080033D090F8F0312144009391F8EC3190F8EE2101
S315080033E090F8ED112B4806F0F9FA94F8B113206815
S315080033F001F2ED11214412F0A0FC054658B301462E
S31508003400206802F02BFC01301DD1234806F0E6FAAD
S315080034101C4806F0E3FA002194F8B13394F8DE224A
S315080034200433DBB29A4284F8B133FFF4CBAA94F89A
S3150800343034315E2B3FF6C6AA1320E21882F835010E
S3150800344082F836116FE5C4F8E0532946134806F0AA
S31508003450C5FA0121E0E7C4F8E003256815F0EEF99E
S315080034600146284602F0E8FB0546EEE700230C482D
S3150800347084F8DE3206F0B2FAFFF7A4BA6CFE010849
S31508003480C7FE010835EC01089DFE0108EAFE0108A1
S3150800349004FF01081FFF010849FF010870FF010822
S315080034A087FF0108F0B5044687B090F8041504A80C
S315080034B006F01EFA94F8041502A806F001FA082286
S315080034C03649374806F08AFA0026364F02AD38469E
S315080034D015F8011B013606F081FA082EF7D1324895
S315080034E006F07CFA324631492D4806F077FA00266E
S315080034F02C4F04AD384615F8011B013606F06EFA56
S31508003500082EF7D1284806F069FA4FF6FF72B4F884
S31508003510D431274893421CBF0133A4F8D43194F818
S315080035200425B4F8D41106F059FA002384F82F308C
S3150800353001232374E373234694F8302006A902F086
S31508003540030203F8352F184604AA04F13D0511F8BD
S31508003550016D03F8016F12F8016DAB421E72F6D1C8
S315080035601321B4F8D43184F83410A4F8463001AAEB
S3150800357094F8043514F00EF928B140F2B7510D4A03
S315080035800D4806F0D9F994F834300199E218043355
S31508003590C2F8351084F8343007B0F0BDA2FF010830
S315080035A07CED01088FED01082B2F0208A9FF010801
S315080035B0B1FF0108CDFF01084402020873B50446AD
S315080035C0B4F8F22394F8D761ADF8042094F8D8211A
S315080035D0D0F8EE0394F8D651120442EA06222A439A
S315080035E000F47F4300F47F05C1B22B430B439A4294
S315080035F000900BD111463B4806F0F0F93A4806F020
S31508003600EDF94FF0FF35284602B070BDBDF804301D
S31508003610B4F8D4210DF10301C4F8D601A4F8DA31BF
S31508003620684694F8043514F0DBF8204611F094FD4A
S31508003630206801F0A7FE94F8EC330D2B21D8D4F8B6
S315080036406423217B206801F04FFFD4F8F433206807
S31508003650A36294F8F833C3F3021103F00F03A374BB
S3150800366094F8F933217603F00F03012B38BF0123B1
S31508003670637601F083FFB8B1217E1C4806F0AEF9E7
S31508003680BCE704F5EE710A4604F2FA3304F20A407E
S3150800369053F8045B834242F8045BF9D1206802F0D0
S315080036A00BFB0028CBD1D0E7A17C206801F07AFF7C
S315080036B0054610B1A17C0E48E0E70223A16A84F80A
S315080036C082330C4806F08AF9217E0B4806F086F903
S315080036D0A17C0A4806F082F9617E094806F07EF95F
S315080036E091E700BFF7FF010835EC01082B00020837
S315080036F05B0002088B00020899000208B400020861
S31508003700C900020870B50026017B8EB00446006821
S31508003710029602F087F9054600283FD10DF1070306
S31508003720217B20680DF1060202F092F91222294641
S315080037300DF10E0016F000FC9DF8063020688DF895
S315080037400C309DF807308DF80D3012F0E1FA9DF82F
S315080037500C209DF80D108DF80E00104611F0D9FCBE
S315080037600123ADF8143094F8343011468DF80F0063
S3150800377020688DF8133012F098FAD4F870338DF863
S315080037801250D3F8C034ADF81000D3F8A43003A90A
S3150800379004A89847029002980EB070BD01283AD145
S315080037A0217B20680DF1070202F06AF92C223146C6
S315080037B003A816F0C1FBD4F8643320680B9302F013
S315080037C0BFF92C4B4FF47A720C9340F2FF13ADF805
S315080037D0343094F834308DF82150ADF82230264B29
S315080037E00A9007934FF48273ADF824309DF807309A
S315080037F003A9534346F2A8120393204B07A8CDE921
S31508003800042304238DF81830D4F87033D3F8C03461
S31508003810D3F8A830BDE7022824D10DF10703217B90
S3150800382020680DF1060202F03DF93146182203A878
S3150800383016F082FB01239DF806008DF814308DF8EA
S31508003840110002F047F9D4F870338DF81500D3F853
S31508003850C00494F83420D0F8D85002AB03A9006805
S31508003860A84798E740F27F61054A064806F064F8DB
S3150800387091E700BF0F1D211028000218A08601003D
S3150800388022F7010832020208F7B5B0F844330446B5
S315080038905BBAA0F84633002380F8B03390F8823339
S315080038A0012B23D114F0C8FF042384F84A33D4F833
S315080038B05C3305460133C4F85C332046FFF722FF24
S315080038C00A26B0FBF6F0D4F86033284403F56163A2
S315080038D09842204680F0CB80FFF714FFB0FBF6F045
S315080038E02844C4F85803002384F88233D4F84023C4
S315080038F094F846138A42B4BF0023012384F8483358
S31508003900237C012B00F2CE8001232374236A013223
S3150800391001332362C4F8402394F84733D4F840238C
S315080039200B449A4223DB94F8B0332068032B40F00B
S31508003930BF80617B01F0BAFE94F8A5310146009379
S3150800394094F833200023206801F006FF78B904F1C3
S315080039500F03009394F84A13206804F10E0304F148
S315080039600D0212F0D7F894F84633C4F84033D4F869
S315080039704033B4F84C23934206DB2AB140F2DF41C8
S31508003980564A574805F0D8FF94F8343194F89521EB
S315080039909342C0F09780002B00F094801A4684F872
S315080039A03F3304F2351104F2DF2016F0D0FA012372
S315080039B084F8B033E37B2374002394F8821384F8E5
S315080039C03431022994F8B03316D1032B00F08380E2
S315080039D004F249330193637B04F24A320093206868
S315080039E004F10C0312F0EFF8013005D140F2FC4166
S315080039F03C4A3B4805F0A0FF94F8B033012B6AD146
S31508003A0094F8A53104F2DF25009394F83F230023A8
S31508003A10217B206801F0A0FE78B10022217B206876
S31508003A2094F83F6302F0E8F8A0F108023146284608
S31508003A30D2B200F049FE84F83F03294694F83F23A2
S31508003A4004F13E0016F083FA94F83F33204684F8D2
S31508003A503330002384F82D3040F20123E38511F03A
S31508003A6002FC204603B0BDE8F040FEF78BBAFFF72C
S31508003A7049FED4F86033284403F51A43B033984214
S31508003A804FF00C07204603D2FFF73CFE784325E7A4
S31508003A90FFF738FE052307FB005584F84A33C4F8B8
S31508003AA0585320E70322013B84F8B023237433E7F5
S31508003AB004F10F03009394F84A1304F10E0304F17A
S31508003AC00D024EE784F8A52104F5CB7104F5D370F1
S31508003AD016F03DFA70E703B0F0BD00BFDB00020840
S31508003AE0650202080501020810B500680C46114671
S31508003AF0012202F081F8421DD2B2A24206D204483F
S31508003B00214605F06BFF4FF0FF3010BD0020FCE7A3
S31508003B10300102080023F0B504468BB090F8EC0398
S31508003B20099300F03BFD94F86C23054694F8EC13D2
S31508003B302046FFF7D9FFC54240F0ED8004F2ED3686
S31508003B4030460DF1210308AA0DF11F0100F03AFDD8
S31508003B500546002840F0DF809DF81F3094F8EC13E6
S31508003B60012B36D13246304694F8043513F021FE3F
S31508003B70014638BBC4F8540314F05EFE042594F8D5
S31508003B80EC33C4F85003043B84F8EC3300269DF864
S31508003B901F30C4F8406384F8B5319DF82030C4F866
S31508003BA0546384F8B6319DF8213084F8FE34099BB5
S31508003BB0636214F041FE84F8A561C4F8500384F8E2
S31508003BC09561A9E0684805F009FF684805F006FF11
S31508003BD0DCE7636A04F2B917099304F2B71303938F
S31508003BE004F2F543029304F2F44304970193A36A9B
S31508003BF0ADF82200009330460DF1220304F5DC727D
S31508003C0000F006FD002840F08680BDF8220009A9CC
S31508003C1000F038FD00287ED1012594F8EC1394F8BD
S31508003C2004350439C9B284F8EC1303936318D3F83E
S31508003C30ED3300950293099B062201933046A36A49
S31508003C4013F020FE002866D194F8B73125749A0639
S31508003C5041D4C3F3001384F8F73494F86D33002B7A
S31508003C6040D1D4F86833C4F8F83494F86C3394F82F
S31508003C70B85184F8FC3494F8F534002B67D094F8DE
S31508003C80EC1394F8F4340939491BC9B284F8EC13D7
S31508003C90002B44D1002D38D194F8043504F5F67775
S31508003CA0CDE90273099B0622019301230093A36AB7
S31508003CB004F2F63013F064FD28B140F215412C4A9F
S31508003CC02C4805F039FE94F8EC23F22A15D92A482F
S31508003CD005F084FE79E794F82F20042A08BF84F8B3
S31508003CE0FD54B6E7012B01D16369BCE740F2EE311A
S31508003CF0224A204805F020FEB7E73946304684F8C0
S31508003D00DE2216F024F9032540E71D4805F066FE75
S31508003D10164805F063FE002528460BB0F0BD94F85A
S31508003D20043505F2F630CDE90263099B07220193B3
S31508003D3001230093A36A204413F022FD28B140F220
S31508003D4033410B4A0B4805F0F7FD94F8B8510DB905
S31508003D5001251BE72A46394604F5F67016F0F7F8EA
S31508003D6084F8DE52022511E74901020835EC0108FC
S31508003D70960102087A020208BE01020883010208B7
S31508003D80E901020870B590F8B23304460E4643B10D
S31508003D90204805F023FE204805F020FE4FF0FF30AE
S31508003DA070BD90F8BA337BB9D0F8585314F044FD77
S31508003DB02D1A002D08DD14F03FFDD4F858230146CE
S31508003DC0164805F00BFEE9E794F82C30012B04D1D0
S31508003DD0022384F882330020E2E714F02DFDC4F8AC
S31508003DE0B4630126C4F8AC03054684F8826320460A
S31508003DF0FFF758FB206811F086FF6076206811F0FF
S31508003E0084FFD4F85C33A0740BB9C4F8605384F803
S31508003E10B263E0E7C004020835EC0108EA040208C8
S31508003E202DE9F347B2F100089DF8287008BF00276E
S31508003E301E4690F8A531044600930D460023017BE3
S31508003E403A4600689DF82CA001F086FC01300AD19C
S31508003E502C4805F0C3FD2C4805F0C0FD4FF0FF3097
S31508003E6002B0BDE8F087BAF1040F04D0BAF1020F28
S31508003E7001D02648EDE794F82C302BB994F8823314
S31508003E80022B01D02248E4E794F8B2330BB121485B
S31508003E90DFE7204611F073FA814608B11E48D8E7D5
S31508003EA014F0CAFC0C9BC4F8AC03C4F8B43384F809
S31508003EB02D5084F82E8084F82FA084F8FD94EEB156
S31508003EC084F833700DB194F8A55105EB08003D3020
S31508003ED03A463146204416F03AF8204611F0C3F91E
S31508003EE02046FEF74FF8E37B002023740123A4F84D
S31508003EF0F40484F8F60484F8B233B1E784F833603E
S31508003F00EBE700BF1C05020835EC0108410502086D
S31508003F106C050208C004020896050208002337B596
S31508003F2080F86E3380F8FF3490F8C8310446042BC5
S31508003F301CD14A4805F052FD2046FFF73FFB0028F2
S31508003F406AD1012394F84B1384F8FF34237B84F851
S31508003F50EC0384F8F50484F84A132068637304F1C3
S31508003F600F0211F06AFD204611F0DEFA94F8C83106
S31508003F70023B012B02D82046FEF7B0FC2046FFF78D
S31508003F8083FC94F8DC3394F8C811022B04BF002391
S31508003F9084F8DC3394F8DD33022B04BF002384F85D
S31508003FA0DD3394F8DE33022B04BF002384F8DE33B6
S31508003FB049B94FF48C7204F57B7015F0BDFF94F87F
S31508003FC0043584F80035D4E90130984794F8B033BD
S31508003FD003F0FD03012B3CD104F111030093217B6F
S31508003FE0206804F55A7304F5597201F0EBF9D0B15B
S31508003FF0002384F8B23394F8B033032B07D1236A2D
S3150800400001332362D4F840330133C4F84033002324
S3150800401084F8C83103B030BD114805F0DFFC1148FB
S3150800402005F0DCFCA2E784F8B00314F007FC40F6C0
S31508004030B83105464FF47A7014F021FC0423054480
S31508004040C4F8B45384F8B23314F0F6FBC4F8AC03DE
S31508004050DDE7002384F8B233D9E700BFBC050208C0
S31508004060D405020835EC01082DE9F04F04468BB05B
S3150800407001460DF12502D0F8700303F07BFC94F895
S31508004080B23393B114F0D8FBD4F8AC33C01AA0F508
S315080040909670002809DD94F8B233BE21AB4AAC48C5
S315080040A005F04AFC062384F8B23394F86E33062BDF
S315080040B002D12046FFF732FF94F8B233042B00F200
S315080040C03D81DFE813F011000B00D400FB0005006A
S315080040D0A04805F083FC012384F8B23394F86E33C4
S315080040E03BB1032B00F08D8094F8B2030BB0BDE80A
S315080040F0F08F0123984884F86E3305F06FFC94F826
S315080041000415964805F06AFC954805F067FC217B7E
S31508004110206801F087FC58BB217B20680DF1270336
S315080041200DF1260201F094FC9DF827208D4B2046C0
S3150800413053F82280D4F8B453D4F864639DF82670F3
S3150800414094F8349094F90EA0D4F820B0FFF7DAFA70
S315080041503B46CDE903B032462946CDE9019A824865
S31508004160CDF8008005F03AFC2046FDF751FFBBE785
S31508004170012817D12046D4F8B453D4F8646394F8C8
S31508004180347094F90E80D4F82090FFF7BBFA3B46BA
S31508004190CDE90190324629467448CDF8008005F0ED
S315080041A01DFCE1E70228DFD1217B20680DF12703FA
S315080041B00DF1260201F076FC9DF826206C4BD4F80A
S315080041C0B41353F822809DF827206A4B204653F8EB
S315080041D02290D4F86463277B94F834A094F90EB03F
S315080041E0256A0791FFF78EFA3B46CDE90450324619
S315080041F0CDE902ABCDE9008907995F4805F0EEFBEA
S31508004200B2E7554805F0EAFB5C4805F0E7FB544879
S3150800421005F0E4FB022384F8B233D4F884339DF81E
S315080042202520C4F8D031D4F8703303EB8203D3F8D1
S31508004230B423E36902FA03F39B1AC4F8CC3194F861
S315080042408233012B02D1204611F06EF9204611F077
S3150800425065F894F805351BB194F88233022B51D0D2
S3150800426000212046FEF7A4FA00283FF43DAF94F853
S315080042706E33052B7FF438AF94F88333042B45D17E
S315080042800125204684F8F654FFF744FC84F8C80153
S3150800429068BB0323304884F8B23305F09FFB94F8D3
S315080042A00415374805F09AFB2D4805F097FB0121C0
S315080042B02046FEF77DFA00283FF416AF94F86E33D1
S315080042C0052B7FF411AF94F88333042B2FD10223E7
S315080042D0204684F8F634FFF71DFC84F8C801F8B9BF
S315080042E01D4805F07BFB94F80415264805E01A4896
S315080042F005F074FB94F80415234805F06FFB18487D
S3150800430005F06CFB2046FFF709FEEDE6032312488D
S3150800431084F8B23305F062FB94F804151B48C1E72C
S315080043200D4805F05BFB94F804151948E5E70A48BB
S3150800433005F054FB94F804151648DEE740F2BF1161
S31508004340154A034805F0F8FACEE600BFED0502085F
S31508004350C2090208170602081A06020848060208D1
S3150800436068060208940A020892060208E506020888
S315080043705C0A02086C0A02082E0702088D07020862
S315080043809607020824080208D70702080608020842
S3150800439052080208810802089F08020810B5044658
S315080043A08AB02422002101A815F0C6FD94F8041548
S315080043B0242301EBC101022001AA890014F059FA4D
S315080043C0202101A800F0D0F8099B984215D102983F
S315080043D0BDF80630C4F8D6010020A4F8D431BDF8DB
S315080043E00C309DF80F20A4F8DA319DF80E3084F8C9
S315080043F0BB3323681A700AB010BD044805F0EEFAFC
S31508004400034805F0EBFA4FF0FF30F4E7C10802085D
S3150800441035EC01082DE9F043044685B00F46DDE981
S315080044200C89002115464FF4A1621E4615F084FD3D
S3150800443099F8003020465A1C84F8742304F57B72D8
S31508004440A2600A22C4F8BC233D4A3146C4E9007872
S3150800445084F80435C4F8D82384F8003510F0AFFE84
S315080044602046FFF79BFF60B92368187800F036FFEF
S31508004470C8B123683348197805F0B0FA324805F010
S31508004480ADFA324805F0AAFA2F4805F0A7FA2046F1
S3150800449011F0ABF82046FFF781FF0122236820467A
S315080044A01A7011F041F84FF41663294A94F87413F8
S315080044B0A4F84C3328462346C4F8705303F01CFA74
S315080044C023682046197810F0ACFE204610F0ACFEA2
S315080044D0206811F022FC84F84503206811F01BFCC3
S315080044E094F8BB3394F80415012B08BF84F8BA3343
S315080044F084F84403174805F071FAB4F8D41116483D
S3150800450005F06CFA94F8DB311448029394F8DA3122
S31508004510019394F8D931009394F8D83194F8D721B7
S3150800452094F8D61105F05AFA23680D481A780D4BF7
S3150800453053F8221005B0BDE8F04305F04FBA00BFA6
S3150800454080510100F908020835EC01083309020810
S31508004550C9250008C0FF01086B0902087B09020883
S31508004560B4090208CC0A02086FF0050330B50A4DF3
S3150800457001440A1A002A02DCC3F1020030BD10F811
S31508004580012B5340082243F300042C40013A84EAE5
S315080045905303F8D1EDE700BF2083B8ED0B28014699
S315080045A008B508D8054805F019FA054805F016FAB9
S315080045B04FF0FF3008BD0020FCE700BFD40A020810
S315080045C035EC010838B51D4603780C465B090B70B7
S315080045D0007800F0030010700A7832B1072A03D871
S315080045E0D423D340D90700D438B1074805F0F6F9E3
S315080045F0064805F0F3F94FF0FF3023785A1F534267
S3150800460053412B7038BD00BFFF0A020835EC01087C
S315080046102DE9F843154689460B9A4179D0F8016089
S315080046201170C188089F19801278044602F00F029B
S31508004630B7EB060800F108012A700C9818BF4FF06E
S31508004640FF3815F084FC2B78099903F10C02914583
S31508004650D5BF002301221A46E418C8BF237AB742F9
S315080046600B700A9B1A7006D00448314605F0B6F955
S31508004670034805F0B3F94046BDE8F8831B0B02086A
S3150800468035EC01080A6810B594B2130C84424FEA57
S31508004690034309D3B2F1FF3F02D10860002010BDE1
S315080046A0844203D900F580301844F6E701460448E9
S315080046B005F094F9034805F091F94FF0FF30EEE75D
S315080046C03D0B020835EC01089142034628BF114606
S315080046D070B5064D1C1A8C4205DA1E78AE5D334459
S315080046E01E1A9642F6DDE0B270BD00BF8D0B0208B9
S315080046F0034B4FF4F272181D0021186015F01CBC0C
S31508004700680E00202DE9F041DFF858801E46D8F8DB
S31508004710003005460C461746EBB1062804D99C21FD
S315080047200E4A0F4805F008F9D8F80030A5425D7022
S3150800473004D8A121094A0A4805F0FEF85023D8F8FA
S31508004740002003FB042304EB84049F81069B02EBF1
S31508004750041256609360BDE8F08100BF7EEE010842
S31508004760C70B0208680E0020054B1B6833B10228E8
S3150800477001D05A7812B1187000207047012070478E
S31508004780680E0020034B1B680BB11878704702208F
S31508004790704700BF680E00202DE9F743DFF8FC805C
S315080047A00446D8F800300D46002B50D05A78002A17
S315080047B04DD01B78022B4AD014F040F8D8F8009058
S315080047C00746214648460DF1070211F0C2F80028AF
S315080047D03DD050229DF807604EF6602402FB0692F3
S315080047E0137D11692A4A012DB1FBF2F101FB127200
S315080047F04FF03E01B2FBF4F4B4FBF1F001FB1044B8
S315080048004FF01E0103EB540404F0FF04B4FBF1F06F
S3150800481001FB10441F498ABF6D08012501358A42EC
S31508004820E4B217D3502000FB06903C220021163034
S3150800483015F082FB282202FB0642D8F8003003EB6B
S315080048404202D582502202FB06331F611C7503B053
S31508004850BDE8F083A3420FD028210020714301331D
S31508004860DBB21E2B28BF0023CA18083209EB420206
S31508004870A342D080F3D1DDE7074B9A42DAD8282342
S3150800488003FB064309EB4303DB8A1D44D2E700BF5B
S31508004890C0D4010080EE3600BFD40100680E0020A7
S315080048A02DE9F84FDFF8D880D8F800307BB15B786F
S315080048B06BB113F0C3FF00270646DFF8C890DFF890
S315080048C0C8A0D8F80000F9B243788B4201D8BDE8F1
S315080048D0F88F50254D4300EB050CDCF810204EF6FA
S315080048E06024B2FBF9F202FB19624FF03E0EB2FBEE
S315080048F0F4F4B4FBFEFB0EFB1B444FF01E0E9CF8B3
S31508004900143003EB540404F0FF04B4FBFEFB0EFB67
S315080049101B44DFF878E0E4B272451BD24FF0280E4C
S315080049204FF0000B0EFB01FEA3421FD00133DBB292
S315080049301D2B03D9E4B10123ACF816B09C4201D172
S315080049405245F1D90EEB0305083500EB4505A5F8E8
S3150800495006B0E9E705F1160318443C22002115F0D4
S31508004960EBFAD8F800302B441E611C750137A8E70E
S315080049705245FBD9502303FB0103DC82F6E700BF4F
S31508004980680E0020C0D40100BFD4010080EE3600B6
S31508004990114A0346126830B5DAB10078012818D1F1
S315080049A05A78AAB100245022204602FB013214325A
S315080049B0013032F8025FC0B21E282C44F8D15022CA
S315080049C002FB013305489B89B0FBF3F0A0EB4400DA
S315080049D030BD0120FCE700BF680E002080EE3600DF
S315080049E00F4B13B51C68014614B9012002B010BD5F
S315080049F02378012BF9D16378002BF6D020460DF1E8
S31508004A00070210F0A6FF0028EFD020469DF80710F1
S31508004A10FFF7BEFF0028D4BF00200120E6E700BF4D
S31508004A20680E002008B5094B1B685BB10378012B9B
S31508004A3008D1427842B1FFF7ABFF0028D4BF002067
S31508004A40012008BD0120FCE71846FAE7680E002099
S31508004A502DE9F04FDFF8B8A10646DAF800300C4623
S31508004A608BB023B9002630460BB0BDE8F08F1A7814
S31508004A70012AF7D15B78002BF4D04FF0FF334FF0C3
S31508004A80000806AF06930893BB80ADF82430454668
S31508004A90FFF706FF4FF0FF0B04EB8606A64213D17D
S31508004AA0B8F1000F50D1002DDCD000242646DAF8E4
S31508004AB00080395D4046FFF76BFF0134E3B29D4243
S31508004AC0A6EB0006F5D8CEE7DAF8009054F8041BF2
S31508004AD048460DF1170210F03CFF98B39DF81710E1
S31508004AE0594527D04846FFF79DFF99F8012070B928
S31508004AF008AB5FFA80FC94451ED308F128036B4483
S31508004B0008F1010803F8081C5FFA88F812E038462D
S31508004B1000235FFA83FC944507D305F128036B4409
S31508004B20013503F8101CEDB204E010F801CB01338F
S31508004B306145EED18B46B1E713F801CB01306145EB
S31508004B40D7D1F7E75946F5E7002DAED113F076FE33
S31508004B50DFF8C0904FF0FF36B0FBF9F309FB1303FB
S31508004B608346A9EB030328480193502108AADAF8DB
S31508004B700030525D01FB02310C690B7DB4FBF9F480
S31508004B804EF6602104FB19B4B4FBF1F43E21B4FBE4
S31508004B90F1F701FB17441E2103EB540404F0FF044C
S31508004BA0B4FBF1F701FB1744282100274A43E4B276
S31508004BB002920134E4B21E2C08BF00240299DAF8E6
S31508004BC00020214402EB4102D28A7AB99C4218D0CD
S31508004BD00137FFB21E2FECD940F2FF110B4A03939F
S31508004BE004F0AAFE039B08489C42E2D1019B0135CA
S31508004BF009FB0737EBB2BE4228BF3E469845B4D8F4
S31508004C0031E71E2FE8D8F1E7A10B02087EEE01086E
S31508004C10680E0020C0D4010013B5044601460DF104
S31508004C200302006802F0A6FE0DF102039DF80310C8
S31508004C30206801AA02F08AFF9DF80230062B04D1EB
S31508004C40D4E90630984702B010BD072B04D1237D5E
S31508004C502BB1044804F0C2FED4E90A30F2E7D4E9DD
S31508004C600830EFE7DE0B02082DE9F347044690F813
S31508004C70985413F007FE002013F003FE8C2303FB61
S31508004C800543D4F8C024197E966E1068B04720B143
S31508004C906E21434A434804F04FFE8C2303FB054329
S31508004CA0D4F8C024996E566E1068B04720B17021AA
S31508004CB03D4A3C4804F040FE8C2101FB0541D4F8EE
S31508004CC0C03448311A6F1868904720B17221374AA4
S31508004CD0344804F031FED4F8C03400211A6E18683E
S31508004CE0904720B17421324A2E4804F025FED4F8A4
S31508004CF0C0344FF0FF315A6A1868904720B17521C1
S31508004D002C4A284804F018FE13F098FD0746861C1E
S31508004D1013F094FD301A0028FADC4FF08C0813F0D3
S31508004D208DFD08FB054805F1DE09DFF88CA0C4F8FF
S31508004D30700404EB8909D4F8C0340DF10601D3F8E0
S31508004D40A0201868904720B152467F21154804F0E4
S31508004D50F3FDD9F80430BDF90620596B1A861144BB
S31508004D605963996B01319963B8F9883093420CDC21
S31508004D7007232544204685F8903312F0E6FB2046A3
S31508004D8002F080FF02B0BDE8F087D8F87430FE184C
S31508004D9013F054FD331A002BCDDC06232544E9E72E
S31508004DA0FA0B0208960E0208520C0208B60C020804
S31508004DB0200D02086D0D0208C00D02082DE9F74FF7
S31508004DC01646DDE90D9BDDE90F8A0C9A04460D4669
S31508004DD01F4601922BB1B9F1000F02D0B8F1000FAE
S31508004DE004D13521144A154804F0A6FD019B314625
S31508004DF0C4E907390023C4E90D332386237584F8EB
S31508004E003C300523A3604FF6B073A3810C4B2846AC
S31508004E102361C4E909B825602671A761C4F82CA0E6
S31508004E2002F08CFD234631462846064A03B0BDE803
S31508004E30F04F02F061BD00BF050E0208B60E02086B
S31508004E40400D0300194C00082DE9F0431F468369FD
S31508004E5004460D469046B9B002751BB1036A0BB1FC
S31508004E60836A23B99A21354A354804F065FD0DF160
S31508004E7054098C220021484615F05EF818220021B4
S31508004E8004A815F059F8202200210DA815F054F8A9
S31508004E9001238DF84130236912955A080A929A0817
S31508004EA0CDE90B23042321AD8DF834300AAE0FCE9D
S31508004EB00FC50FCE0FC596E80700A36885E807005B
S31508004EC02C93A3892146ADF8C4300DF10F02206852
S31508004ED002F050FD20B1B4211A4A194804F02CFDFD
S31508004EE09DF80F30409A8DF81030A3681A4409923D
S31508004EF00C228DF81120144A0592B8F1000F1BD028
S31508004F00FF1A13F0C1FC00233F1A8DF81A3000234C
S31508004F10CDF800901A46206804A9079702F044FDC8
S31508004F2038B10A489DF80F1004F058FDD4E90A3044
S31508004F30984739B0BDE8F0830123E6E7130E020867
S31508004F407E0E0208300E0208694C00085E0E020842
S31508004F500028024818BF0020704700BF50100020E4
S31508004F604C4A4D4B4D49C0E901234FF40153642285
S31508004F7083814B4B80F8282003614A4B4FF49052AB
S31508004F8043610223028603763422474BF0B5C0E913
S31508004F90071305214FF0306480F83220434AC16474
S31508004FA042634FF6B071424AA0F850108263414AF4
S31508004FB041490266414A41654266414A4149C0E95A
S31508004FC00F42414A8165426440F2011240F2016192
S31508004FD04FF44074A0F848200022A0F85C103B4922
S31508004FE0A3F5E72381663A49A3F5EF63C166394914
S31508004FF04362A0F8744080F84A200167C0E91E336E
S3150800500000F1B403C0F8843000F1F403C0F8883026
S3150800501000F5C273DFF8C0C0C0F88C3000F5C37362
S31508005020C0F8903000F59A73C0F89C30DCF8003070
S3150800503000F5AA75C0F86C31DCF8043000F5B074D8
S31508005040C0F87031DCF8083000F5B677C0F874316E
S315080050500B6800F5BC76C0F878314B68C0F8A050EC
S31508005060C0F87C318B68C0F8A440C0F880314FF096
S315080050700133C0F8A870C0F8AC60C0F85431C0F865
S315080050805831C0F85C31C0F86021C0F86421C0F816
S315080050906821F0BD1010030205010E07C0557033D4
S315080050A0CB100208BF1002088025DB332411020842
S315080050B02011020800100208400D0300D00F020854
S315080050C00706FF0F301002083F000C0024100208E4
S315080050D0181002080C100208271102082DE9F843D7
S315080050E000250446A84600F1B00600F5997700F5B4
S315080050F0C2792379AB420DDC0025154E04F5C2773B
S31508005100A379E9B28B4214D84FF6FF73A4F8863117
S31508005110BDE8F88346F8048FE9B200224846C6F887
S31508005120408010F0DEFBB4F84430013527F8023F22
S31508005130DFE756F8212004EB8103C3F8B420C3F84F
S31508005140F4203846012210F0CCFB0135D8E700BF21
S31508005150141102082DE9F04F002585B00E9E04466D
S3150800516035708A4690461F46FFF79AFB04F5C27BC0
S3150800517023795FFA85F94B450CD8317851BB254818
S3150800518004F02CFC244804F029FC4FF0FF3005B04D
S31508005190BDE8F08F4946584610F087FB012817D11D
S315080051A004EB8903D3F8B400FFF71AFC80B109F1C0
S315080051B09A00514604EB400010F0A4FB012807D1E1
S315080051C0337803F110026A44013302F8109C3370F5
S315080051D00135CDE70139002013F051FB3178B0FBDA
S315080051E0F1F303FB110202F110036B4413F8103CB0
S315080051F02079984203D8094804F0F0FBC2E704EB8B
S315080052008304D4F8B4300020C8F80030D4F8F43059
S315080052103B60BCE7C40E020835EC0108E90E02083B
S31508005220062808B503460BD907280BD0A0F10802B3
S31508005230032A09D940F22911044A054804F07CFBDF
S31508005240002008BD0120FCE70220FAE7360F020815
S315080052509D0F0208062807D8064B1B5C0B70064BE9
S3150800526053F820301370704740F23711034A044848
S3150800527004F062BBB81002089C1002087EEE010812
S315080052807E0F0208072802D132230B70704740F2BE
S315080052904311024A024804F04FBB00BF7EEE0108E4
S315080052A05E0F0208A0F10803032B08D8074B53F832
S315080052B020300B70064B53F82030137070474FF4AC
S315080052C0A871044A044804F037BB00BF3C10020822
S315080052D06C1002087EEE01083C0F02080128014600
S315080052E008B507D0044804F079FB044804F076FBB7
S315080052F0012008BD0020FCE73311020835EC01083F
S3150800530038B5044608460D46FFF7E8FF20B1782170
S315080053100D4A0E4804F010FB20468022002100F8B2
S31508005320045B14F009FE012D07D12046FFF718FE8D
S3150800533094F8323084F8B03038BDCC21024A03489C
S3150800534004F0FAFAF4E700BF7EEE01085E190208D7
S3150800535010B503780446012B09D1FFF7BFFE94F870
S31508005360803084F8B130002384F8B23010BD4FF491
S315080053708D71024A024804F0DFFAF0E77EEE010872
S315080053804D1902080378012B05D040F25711024A3D
S31508005390024804F0D1BA70477EEE010834190208B3
S315080053A008B50378012B07D0044840F27A21044A4D
S315080053B004F0C2FAFF2008BD0020FCE70B1902081A
S315080053C07EEE010870B50578049C012D04D104947D
S315080053D0BDE87040FFF7BEBE4FF43271034A044879
S315080053E004F0AAFA4FF0FF3070BD00BF7EEE010848
S315080053F0F018020870B50578059C012D05D10494AE
S315080054000978BDE8704010F0D2BA40F21731034A65
S31508005410034804F091FA4FF0FF3070BD7EEE0108A4
S31508005420D01802080378012B05D040F25331024AFE
S31508005430024804F081BA70477EEE0108AD180208EA
S3150800544038B5054690F8410095F8463000FB01222C
S3150800545013FB00F3D4B2DBB2A34205D840F267319E
S31508005460034A044804F068FA2B69185D38BD00BF82
S315080054707EEE01088B18020810B51446C27A8A42D5
S3150800548007D2074804F0AAFA064804F0A7FA60B259
S3150800549010BDA4EB410464B224EAE470F8E700BF47
S315080054A05811020835EC01080378012B04D1C2799A
S315080054B0D0E9230114F04BBD40F2BA31014A024843
S315080054C004F03ABA7EEE0108701802080378012B38
S315080054D005D040F2FA31024A024804F02DBA704764
S315080054E07EEE0108461802080378012B05D040F223
S315080054F03541024A024804F01FBA70477EEE010899
