S01700006D61696E5F70696E675F706F6E675F332E73333786
S3150800000000040020291F0008C5C40008C5C400084C
S31508000010C5C40008C5C40008C5C40008C5C400088E
S31508000020C5C40008C5C40008C5C40008A10C010859
S31508000030C5C40008C5C40008450C0108E90F010835
S31508000040C5C40008C5C40008C5C40008C5C400085E
S31508000050C5C40008C5C40008C5C40008C5C400084E
S31508000060C5C40008C5C40008C5C400089105000831
S31508000070C5A70008C5C40008C5C40008C5C400084B
S31508000080C5C40008C5C40008C5950008C5C400084D
S31508000090C5C40008C5C4000815290008C5C4000859
S315080000A0C5C40008C5C400082125000801250008A4
S315080000B0C5C40008C5C40008C5C40008C5C40008EE
S315080000C0C5C40008C5C40008C5C40008C5C40008DE
S315080000D0C5C40008C5C40008C5C40008C5C40008CE
S315080000E0C5C40008C5C40008C5C40008C5C40008BE
S315080000F0C5C4000833CF0008C5C40008C5C4000835
S31508000100C5C40008C5C40008C5C40008C5C400089D
S31508000110C5C40008C5C40008C5C40008C5C400088D
S31508000120C5C40008C5C40008C5C40008C5C400087D
S31508000130C5C40008C5C40008C5C40008C5C400086D
S31508000140C5C40008C5C40008C5C400086D73000806
S31508000150C5C40008C5C40008C5C40008C5C400084D
S31508000160C5C40008C5C40008C5C40008C5C400083D
S31108000170C5C40008C5C40008C5C40008C2
S3150800017CF0B5114A114C124E00F00105E3695F0700
S3150800018C13D40DB9334213D103EA00078F4207D1B2
S3150800019C0B4A1A40002A0CBF00206FF00100F0BD74
S315080001AC013AEBD16FF00200F9E74FF0FF30F6E7B2
S315080001BC6FF00100F3E700BF80969800000003502B
S315080001CC020001000B4B70B5D96911F480310DD1C1
S315080001DC01244FF48072084E084DF46020462C64B6
S315080001EC1A61FFF7C5FF3464EC6070BD6FF001004F
S315080001FCFBE700BF0000035000100350002003501B
S3150800020CC0F30C0370B5054623B140F21A21114808
S3150800021C00F0A2F84FF480320F4B104C9A66E66940
S3150800022C41F6713316400122E3630D4B0021DA6067
S3150800023C0223656121202361FFF79AFF10B921205B
S3150800024CFFF796FF0122074BDA600EB10023E36332
S3150800025C70BD00BFB62D0108009000500000035079
S3150800026C001003500020035070B5134C6061E3690D
S3150800027C5B071ED40E4656F8043B8D18A361AE4296
S3150800028C0BD10423002121202361FFF771FF58B9F4
S3150800029CBDE870402120FFF76BBF08210846FFF721
S315080002AC67FF10B10423236170BD56F8043BA361A4
S315080002BCE5E74FF0FF30F7E7000003502DE9F84368
S315080002CC154682070F46064604D040F266211E489C
S315080002DC00F042F8AB0704D04FF41A711A4800F034
S315080002EC3BF84FF48032194BDFF868909A6603F5A1
S315080002FC1C33DA6902F4803841F67132DA6301226A
S3150800030C03F58053DA6065B928460122104BDA608A
S3150800031CB8F1000F03D00022A3F50053DA63BDE849
S3150800032CF88306F5005404EA0904A41BAC4228BF5A
S3150800033C2C46394622463046FFF796FF0028E4D16C
S3150800034C264427442D1BDEE7B62D010800900050E5
S3150800035C0020035000E0FFFF5FF800F0E1C400083E
S31508000370013800D0FCE770470348044B834202D09B
S31508000380034B03B118477047CC270020CC27002021
S3150800039000000000064B0749C91A891048BF0131F9
S315080003A0491003D0044B0BB101481847704700BFEA
S315080003B0CC270020CC2700200000000010B5064CF2
S315080003C0237843B9FFF7D8FF044B13B10448AFF3BA
S315080003D000800123237010BDEE21002000000000DC
S315080003E0783C010808B5054B1BB105490548AFF32C
S315080003F00080BDE80840FFF7CDBF00BF0000000041
S3150800040068040020783C0108A3F5803A704700BFCD
S31508000410174B002B08BF134B9D46FFF7F5FF00212E
S315080004208B460F461348144A121A0DF0D2F80E4B93
S31508000430002B00D098470D4B002B00D09847002082
S31508000440002104000D000D48002802D00C48AFF327
S31508000450008009F073FE200029000CF054FF09F013
S31508000460CFFC00BF000008000000000000000000EC
S315080004700004002000040020DC2200200000000008
S3150800048000000000064B1B681A7A022A04D812B12B
S315080004901B68044A13607047032AF9D0704700BFE7
S315080004A0C02500208004002030B5204DA3B00BAC39
S315080004B00FCD0FC495E80F0084E80F000023CDE99F
S315080004C002330493CDE90733CDE91F3309934FF47B
S315080004D0801313AC019301AD0FCD0FC4144B06ADB9
S315080004E02360144B18AC06930FCD0FC4124B134858
S315080004F02360134B0BAA1D9320231E9301238DF80B
S315080005007D30104B13A921930F4B07F0C9FB044606
S3150800051018B1BA210D480BF0E3FF00214FF4E13082
S315080005200BF0C2FF204623B030BD00BF1C190108DE
S315080005303C00015B010010004400015B0C06002032
S31508000540EF210020D425002084040020E8180108A3
S3150800055029B9074B186803684BB108F063BB012932
S3150800056005D1034B186803680BB10CF0D2BD704770
S31508000570E825002008B50449044808F02BFEBDE824
S315080005800840FFF791BF00BFEC2500203806002081
S31508000590014807F0BBBC00BF0C06002008B504489C
S315080005A00BF0C5FFBDE8084002480BF0C0BF00BF0E
S315080005B0541901083C190108024B0349186803F04D
S315080005C071B800BF14260020F42500202DE9F04755
S315080005D0002406460F4625464FF0020A6FF001082A
S315080005E0DFF84C90214638460AF0EEF8337809EBE6
S315080005F043011AFB030303F00F03337004FB08835C
S31508000600095C03F00E03601C01FA03F304F0070407
S315080006102B43072C9DB206D11346290A03F8021B61
S3150800062055701A46002528280446DBD1BDE8F08710
S31508000630C01C010830B5C57980792E4C012818BF31
S31508000640342034F8154014BFB4FBF0F0E0086328F2
S31508000650088026D02FD83C2848D01ED81E2816D861
S31508000660092818D9244C24FA00F0C00713D5062007
S31508000670108023FA00F22148B3F5C07F825C4A80D5
S3150800068003F03F028A8006D20020CB8004E02328AC
S31508000690EDD02F28EBD0032030BD3E2826D0562893
S315080006A0F9D1062010801648DA09825C4A8003F0E0
S315080006B07F028A80E8E7B0F5C37F10D00BD8B92847
S315080006C001D0C628E7D1062010800E481A0A825C97
S315080006D04A80DAB2EDE740F29314A042DBD1062055
S315080006E010804FF484728B804A80CDE738201080C2
S315080006F09A09C0E76C1D010800044050661D0108F0
S31508000700621D0108601D01082DE9F04F0026ADF5B0
S315080007102B7D01900691144631464FF4177213A8A3
S31508000720B49D029312960CF054FF3146FF220298AC
S315080007308BB2984200F2B98029464FF6FF73A64E4F
S3150800074042198A424FEA132440F0C38002994FF0B7
S31508000750020B6C54002188460E465370029BDFF844
S3150800076084A29C1CA4B2E70006379170BFB212AAF5
S315080007708BB29F4201F0070900F2B48004EB4404EF
S31508000780E4001234A4B2B9F1000F04D0330C13708C
S31508000790330A53709670FF22002128460CF019FF81
S315080007A0019B5F79032F2BD00DF1380A52468B4BEC
S315080007B003F1080C164618685968083303C66345DA
S315080007C03246F7D1186899889B79022FB37198BF7A
S315080007D0834B306098BF13F807904FF00007B1803D
S315080007E088BF4FF000093E46B846BC4200F29C80DE
S315080007F0B4B2224607322946D20812A80CF0F4FEF3
S31508000800019B0022597A722311FB03F193B25B43D1
S31508000810A342104602F10102F8DB4FF0000883B24A
S315080008205B009BB203938BB21E46C3464746C0F392
S315080008304E0207920FFA84F90493B9F1000F00F3F8
S315080008408A8000273C46049BDFF89CA1F61A029B87
S31508000850B6B28DF83030019BDA7919795B79DB000D
S3150800086003EB41130199897903EB8103019903EBA2
S31508000870D203097A03EB41038DF83130069B1B0935
S3150800088003EB42138DF83230069B1B018DF833308B
S31508000890019B5B7ABB4200F2A980A0190730C0F31E
S315080008A0CF000DF52B7DBDE8F08F635C5340180132
S315080008B040EA13136B54131183EA521383EAD203E3
S315080008C003F0010383EAD21343EA4203DAB20131A1
S315080008D02DE711F8010B1B02604036F810009BB299
S315080008E043402EE72846039109F06EFF03990AEB69
S315080008F0480313F800C0CB431BFB080003F00703AB
S3150800090003EB43030CFA03FCB9F1070F00F03F08A9
S3150800091046EA0C0606D1330C13709670330A002685
S3150800092053700332013123E71AF808305BB13946B0
S3150800093012A809F049FF06F1010B0246314628467E
S3150800094009F04BFF5E4608F10108C14508BF4FF0A4
S315080009500008013749E74B46302BA8BF30234FF034
S31508000960000A002231462846059309F036FF002280
S31508000970711C09F032FFB31C0893089B394653448F
S3150800098012A8099309F020FF099B02461946284632
S3150800099009F023FF039B1F44BFB2BC420ED8079B36
S315080009A00BEB0307039BBFB2BB429FBF08F10108CD
S315080009B01FFA88F84746C34688BFBB46059B0AF117
S315080009C0010A5345D9DC1A460232A9F130093244E4
S315080009D00FFA89F996B230E770190108801D0108E7
S315080009E06C190108E01C0108981C01089DF83320C1
S315080009F0013BDB1B22F00C02DBB242EA83038DF8D3
S31508000A0033300022FF230CA911F8010B01324340B1
S31508000A1092B23148042AC35CF6D14FF000080EAAF8
S31508000A200CA90DF12F008DF83430CDE90E88ADF8FC
S31508000A3040808DF82F80FFF7C9FD0EAA0CA90DF18D
S31508000A402F00FFF7C3FD42462146284609F0C5FE9A
S31508000A504246611C09F0C1FEDFF880B004F10208C5
S31508000A601BF8011B0EA809F0AFFE414602462846B0
S31508000A7009F0B3FEDA4508F10108F1D1DFF8608024
S31508000A8004F14A0B08F1280918F8011F0EA809F005
S31508000A909BFE59460246284609F09FFEC1450BF1C2
S31508000AA0010BF1D14FF0000804F12A09019B4146D8
S31508000AB0186809F089FE09EB080B024659462846CC
S31508000AC008F1010809F089FEB8F1200FEED1723459
S31508000AD0A4B20137DCE600BF701B0108701C0108D0
S31508000AE0971C01081FB51423ADF80830174B0C46A0
S31508000AF01B880222ADF80C3000238DF80E30032334
S31508000B0002A9009303AB0BF003FCE8B99DF80C307F
S31508000B1003F001022270C3F340026270C3F380023D
S31508000B20A270C3F3C002E270C3F30012C3F340130A
S31508000B3063719DF80D3022715B425B10A3719DF8BD
S31508000B400E305B425B10E37104B010BDBC1D01089A
S31508000B501FB51423ADF80830104B0C461B8802222B
S31508000B60ADF80C3000238DF80E30032302A900934C
S31508000B7003AB0BF0CDFB70B99DF80C305B425B10F4
S31508000B8023709DF90D3002339B1063709DF80E306B
S31508000B905B425B10A37004B010BD00BFBC1D01080A
S31508000BA030B580B10023094A52F8335002EBC3042A
S31508000BB0854203D3002023790B7030BD0133152BF2
S31508000BC0F2D10220F9E70320F7E700BF1826002034
S31508000BD00A289ABF024B53F820000020704700BF2E
S31508000BE0901D010870B50B681F4C86B0054648680D
S31508000BF0B4FBF3F40E460AF0E5FA8B238DF80C30B5
S31508000C00230C8DF80D30338964BAADF81030030C17
S31508000C108DF81230030A8DF8133000238DF814006E
S31508000C2009222846009303A9ADF80E4000F0CAF839
S31508000C30C0B98DF80B00012340F6890128460DF14D
S31508000C400B0209F089FF68B99DF80B3040F6890157
S31508000C5043F004038DF80B30284601230DF10B02EF
S31508000C6009F069FF06B070BD0000093D13B50446DA
S31508000C70064B0322D3F80E005B8A0090694620468D
S31508000C80ADF804300AF0ACFB02B010BDBC1D01087B
S31508000C9010B50446154B88B01868596805AA03C2EA
S31508000CA01989D3F80A001180D3F80E1002AA03C2D4
S31508000CB09B7C0321204613700AF027F8A0B9034647
S31508000CC000900A22204605A900F07CF860B9034680
S31508000CD000900922204602A900F074F820B90246BD
S31508000CE0014620460AF004F908B010BDD01D0108D7
S31508000CF010B50146044607480CF083FC38B1214676
S31508000D0005480CF07EFCB0FA80F0400910BD0120C1
S31508000D10FCE700BFE31D0108EA1D0108014B93F932
S31508000D20000070470F2200208878012815D191F914
S31508000D3006100F290DDC11F1110F0CDB1131C9B2A8
S31508000D40012A0CBF0F4A104A52F8212000201A60C7
S31508000D5070472021F4E70021F2E788B991F90610D7
S31508000D6016290BDC11F1090F01DB0931C8B2012A7A
S31508000D700CBF064A064A52F82020E7E71F20F6E786
S31508000D8002207047781F0108F41E0108741E010826
S31508000D90F41D010810B50A4C22781AB1BDE81040B6
S31508000DA00BF0AEBA0A21032000F0A0F90BF0A8FA5E
S31508000DB001220A21032000F099F90123237010BDAE
S31508000DC0BA27002070B50C4616461D46FFF7E2FF07
S31508000DD000220A21032000F089F932462146002024
S31508000DE000F0F0FA2946BDF81020002000F0EAFAD3
S31508000DF001220A21032000F079F92378842B03D0F5
S31508000E00FFF7C8FF002070BD0022014B1A70F9E7F2
S31508000E10BA27002008B500220C21032000F066F945
S31508000E2005200BF0A6FA01220C21032000F05EF93A
S31508000E3005200BF09EFA0122014B00201A7008BD0E
S31508000E40BA270020F22208B5002104480CF0C1FB9D
S31508000E500023034A1370034A137008BDDE220020DC
S31508000E60DD220020DC22002010B50A4C012150208A
S31508000E7003F05AFA05F0BAFE236853B9064810F08B
S31508000E8031FA206028B9BDE81040B82103480BF0B4
S31508000E9027BB10BDC4060020A8200108FC1F0108B6
S31508000EA0032838B504460D4605D8094B33F81030E3
S31508000EB0CB40DB0704D440F2854106480BF010FB13
S31508000EC0302301225C43044BAA401A5138BD00BFA7
S31508000ED03C220108B820010840D00350032838B541
S31508000EE004460D4605D8094B33F81030CB40DB07CE
S31508000EF004D440F2564106480BF0F2FA3023012298
S31508000F005C43044BAA401A5138BD00BF3C22010875
S31508000F10B820010840E003507FB50446A0B9042074
S31508000F2000F0ECFE002865D0384C394920680CF0F2
S31508000F304DF80BF063FA0BF062FA3649206804B0F4
S31508000F40BDE870400CF042B843780E2B15D9042042
S31508000F5000F0D4FE00284DD02C4D2D4928680CF001
S31508000F6035F80BF04BFA0BF04AFA62782A492868EA
S31508000F7004B0BDE870400CF029B88278012A3BD04D
S31508000F80022A4FF000060CBF0225012501213A204E
S31508000F9003F0CAF933462A466178207805F048F9FD
S31508000FA0A3683BB3E2782AB3012563781B4905FA9F
S31508000FB003F0C1F8240421788DF809308DF808105B
S31508000FC003930094164B03A902A801F027FAB0B1BF
S31508000FD0042000F093FE68B10C4D0D4928680BF00B
S31508000FE0F5FF0BF00BFA0BF00AFA62780D49286840
S31508000FF00BF0ECFF04B070BD16460225C6E7637811
S315080010009D40094BC3F82454F4E700BFF0060020BE
S31508001010092101080E2101082221010800E00350D8
S3150800102055C300084A21010800D003500E2970B59F
S3150800103005460C46164613D9042000F05FFE20B379
S31508001040124D134928680BF0C1FF0BF0D7F90BF0C6
S31508001050D6F9224628680F49BDE870400BF0B6BF9E
S3150800106001213A2003F060F921462846002304228C
S3150800107005F0DEF8214628461EB1BDE87040FFF7A8
S315080010800FBFBDE87040FFF729BF70BDF00600200E
S31508001090092101086D21010870B50446F8B1826876
S315080010A043782AB10E2B05D8BDE87040FFF734BF48
S315080010B00E2B14D9042000F021FE80B1084D0949F1
S315080010C028680BF083FF0BF099F90BF098F9627812
S315080010D028680F23BDE8704003490BF077BF70BD41
S315080010E0F006002009210108972101080E2938B5C4
S315080010F00C4613D9042000F001FEC0B10C4D0D4971
S3150800110028680BF063FF0BF079F90BF078F92246A3
S3150800111028680949BDE838400BF058BF1AB9BDE838
S315080011203840FFF7DBBEBDE83840FFF7B9BE38BD2B
S31508001130F006002009210108BD2101080E2938B54D
S3150800114005460C4613D9042000F0D8FD68B1134DA6
S31508001150134928680BF03AFF0BF050F90BF04FF9DA
S315080011602246104928680BF031FF002038BD0328B5
S3150800117005D80D4B33F81030CB40DB0704D440F2CA
S3150800118027410A480BF0ACF91422302313FB052338
S31508001190074A9858E04000F00100E7E7F00600200B
S315080011A009210108E72101083C220108B8200108A5
S315080011B030C003500E2838B5044613D9042000F071
S315080011C09DFDA0B10A4D0B4928680BF0FFFE0BF0F8
S315080011D015F90BF014F9224628680749BDE8384086
S315080011E00BF0F4BE0123054A8340C2F8203438BD0B
S315080011F0F0060020092101081122010800E0035029
S315080012002DE9F041224D92B008AC80460F460FCD2D
S315080012100FC40FCD0FC495E803000026032384E806
S31508001220030001211B4C2A200291CDE90366CDE972
S3150800123005668DF80E30079603F076F8204605F019
S31508001240BBF802214FF4B06003F09AFD32462046FF
S31508001250114905F047F9334632468DF819000090D2
S31508001260642120468DF8236005F06EF908AA0A90D5
S3150800127005A920468DF809808DF8087005F09EF9B5
S31508001280204602AA03A905F055F812B0BDE8F08178
S31508001290442201080040005980969800054B1B78A7
S315080012A023B1054A536823B1106818470122034B36
S315080012B01A70704711220020C8060020102200204C
S315080012C008B5002307481A4619460DF0C5FB03461C
S315080012D0054A1060012023B1044B18700020044B06
S315080012E0187008BD9D120008D006002011220020A3
S315080012F01022002030B587B005F09AFCC30701D547
S31508001300FFF7A0FD6D461A4B03AC93E807000C33B4
S3150800131085E8070093E8070084E8070001220A2108
S315080013200320FFF783FE2846FFF7F6FD2046FFF762
S31508001330F3FD01220C210320FFF778FE0122042188
S315080013401046FFF773FE0BF00BF800F091F80BF060
S3150800135016F800F00FF8FFF7B3FFFFF785FD012138
S315080013601020FFF74DFF07B0BDE8304000F062B827
S315080013706C22010838B508F0EDFA044698B1042045
S3150800138000F0BCFC78B1084D084928680BF01EFE31
S315080013900BF034F80BF033F8224628680449BDE808
S315080013A038400BF013BE38BDF006002009210108AD
S315080013B084220108024B4FF0FF3118680FF0CFBFA7
S315080013C0D806002070B50B4E0D463368144613B97F
S315080013D00024204670BDFFF7EDFF294622463068F7
S315080013E002F06EFB0546044B18680FF0DDFF002D72
S315080013F0EED1EEE7D4060020D806002070B50B4ED5
S315080014000D463368144613B90024204670BDFFF70D
S31508001410D1FF29462246306802F036FB0546044BC2
S3150800142018680FF0C1FF002DEED1EEE7D4060020B4
S31508001430D8060020094B10B51A68094C094B1A60E2
S31508001440236853B908480FF04DFF206028B9BDE856
S3150800145010407B2105480BF043B810BD1426002028
S31508001460D8060020D406002048230108A022010837
S315080014701FB50D22002168460CF0ABF80C230C4C66
S315080014800C488DF809300FF0CBFC6946204605F06C
S31508001490C9FE204605F070FE6368DB0705D52046C1
S315080014A005F0A0FE204605F039FE04B010BD00BFC9
S315080014B00040005BA832010810B5044C204605F030
S315080014C091FE2046BDE8104005F028BE0040005BAE
S315080014D0034B044AC3E9011018461A60FFF7DCBD3E
S315080014E0DC060020030B0101002210B540F6B831D6
S315080014F010460AF01BFA88B1042000F0FFFB60B121
S31508001500074C084920680BF061FD0AF077FF0AF0DE
S3150800151076FF054920680BF059FD012010BD00BF74
S31508001520F00600200921010858230108002313B5F5
S31508001530CDE90033244B1B78D3B1244B0021084650
S3150800154000930AF0B6F9A8B1042000F0D7FB60B101
S315080015501F4C204920680BF039FD0AF04FFF0AF0AE
S315080015604EFF1D4920680BF031FD012002B010BD69
S315080015701A4BE3E7082269460AF041FA78B10420D3
S3150800158000F0BCFB0028F0D0114C124920680BF083
S315080015901DFD0AF033FF0AF032FF1149E2E70AF0AF
S315080015A091F90028E2D0042000F0A8FB0028DCD03E
S315080015B0074C084920680BF009FD0AF01FFF0AF0DE
S315080015C01EFF0849CEE700BF1322002050494E47A8
S315080015D0F0060020092101088A230108504F4E47CA
S315080015E0B6230108E523010870B5064601250AF069
S315080015F0EEFE134B04461D70337873B92846FFF781
S31508001600D9FD104A1368E31A322B18D90E4B146009
S315080016101D70BDE87040FFF789BF012B0FD103206D
S31508001620FFF7C8FD094A1368E31A322B07D90021C8
S31508001630054B1460BDE870401970FFF755BF70BDC3
S3150800164012220020EC06002013220020E8060020C3
S3150800165007B500200DF10601ADF806000AF01CFBDF
S3150800166050B9074ABDF8063011880B439BB241F6BC
S31508001670FE7113800AF05FFB03B05DF804FB00BF40
S31508001680EC210020002110B508460AF012F990B1A5
S31508001690042000F033FB78B3184C194920680BF086
S315080016A095FC0AF0ABFE0AF0AAFE20681549BDE8CB
S315080016B010400BF08BBC01210AF0F6F8B8B10420F3
S315080016C000F01CFB60B10D4C0D4920680BF07EFC48
S315080016D00AF094FE0AF093FE0B4920680BF076FC9C
S315080016E0BDE8104040F2DD1108480AF0F9BE0120B5
S315080016F0BDE810400AF03DBE10BD00BFF006002050
S31508001700092101080B240108362401086024010870
S3150800171013B5964A002196480FF0B7FC98B90420ED
S3150800172000F0ECFA70B1934C934920680BF04EFC2C
S315080017300AF064FE0AF063FE904B914A91492068CC
S315080017400BF044FCFEE7042000F0D8FA60B1894C9F
S31508001750894920680BF03AFC0AF050FE0AF04FFE61
S31508001760894920680BF032FCFFF7C4FD8748FFF76C
S31508001770D3FB8748FFF7D0FB00200AF04CF800207F
S3150800178001A909F0FEFB58BB9DF80530002B38D19E
S31508001790042000F0B3FA60B1764C774920680BF064
S315080017A015FC0AF02BFE0AF02AFE7A4920680BF08F
S315080017B00DFC042000F0A2FA60B16E4C6E49206858
S315080017C00BF004FC0AF01AFE0AF019FE72492068AA
S315080017D00BF0FCFB40F2C11170480AF081FE10E0E4
S315080017E0042000F08BFA60B1624C634920680BF064
S315080017F0EDFB0AF003FE0AF002FE694920680BF0C9
S31508001800E5FB00200AF007F800200AF006F830B3D6
S31508001810042000F073FA60B1564C574920680BF063
S31508001820D5FB0AF0EBFD0AF0EAFD5E4920680BF0ED
S31508001830CDFB042000F062FA60B14E4C4E49206898
S315080018400BF0C4FB0AF0DAFD0AF0D9FD5649206808
S315080018500BF0BCFB4FF4E37150480AF041FE00213F
S315080018605248FFF735FE524A517813780C2908D8A2
S31508001870DFE801F050505050504D4A44443F440769
S31508001880440000234A494B48D3700AF076FC0028E6
S3150800189042D0042000F032FA60B1364C364920684E
S315080018A00BF094FB0AF0AAFD0AF0A9FD424920684C
S315080018B00BF08CFB042000F021FA60B12D4C2E4968
S315080018C020680BF083FB0AF099FD0AF098FD3B4966
S315080018D020680BF07BFB4FF4E77130480AF000FEF6
S315080018E0FFF7D0FE4FF47A7002B0BDE810400AF058
S315080018F044BDA3F10C014B424B41C3E70B3B012B03
S315080019008CBF00230123BDE70A3B022BF8E7093BFE
S31508001910032BF5E70123B5E741F6FE710AF016FA3F
S3150800192078B1042000F0EAF90028C3D0114C124916
S3150800193020680BF04BFB0AF061FD0AF060FD2049B8
S31508001940B5E7012109F0E4FF00283DD0042000F0A6
S31508001950D5F90028AED0074C074920680BF036FBAE
S315080019600AF04CFD0AF04BFD1649A0E728280108A5
S31508001970EFC30008F00600200921010874240108B5
S31508001980012501088F24010894240108CC2600208B
S31508001990C0260020C5240108262501086024010860
S315080019A00225010841250108652501085116000888
S315080019B0D82600204C28010882250108002701089E
S315080019C0AE250108E1250108042000F097F960B169
S315080019D0354C364920680BF0F9FA0AF00FFD0AF083
S315080019E00EFD334920680BF0F1FA324808F07CFB0B
S315080019F0314808F079FB314C23785BB30023237018
S31508001A002F4B04201B7843B300F078F960B1264CBD
S31508001A10264920680BF0DAFA0AF0F0FC0AF0EFFC27
S31508001A20284920680BF0D2FAFFF780FD00283FF41A
S31508001A3057AF042000F062F900283FF43BAF1A4C78
S31508001A401A4920680BF0C2FA0AF0D8FC0AF0D7FC4B
S31508001A501D492CE70AF0B9FCCEE700F04FF960B152
S31508001A60114C124920680BF0B1FA0AF0C7FC0AF0CB
S31508001A70C6FC164920680BF0A9FAFFF735FD0028C1
S31508001A803FF42EAF042000F039F900283FF412AFD6
S31508001A90054C064920680BF099FA0AF0AFFC0AF0E3
S31508001AA0AEFC0B4903E700BFF00600200921010838
S31508001AB0102601084026010858260108122200208F
S31508001AC013220020702601088C260108B826010872
S31508001AD0D426010830B57E4C85B00AF076FC2388FA
S31508001AE09BB2002B7CD0238813F0040F238856D092
S31508001AF0002023F004031B041B0C238008210DF18E
S31508001B00060302AACDE90200ADF8060009F089FF2E
S31508001B1078B3042000F0F2F860B16E4D6E4928687B
S31508001B200BF054FA0AF06AFC0AF069FC6B4928685B
S31508001B300BF04CFA208880B204280FD100F0DEF8AA
S31508001B4060B1644C644920680BF040FA0AF056FC10
S31508001B500AF055FC624920680BF038FAFFF792FD47
S31508001B604FF4FA700AF009FC05B0BDE83040FFF7FB
S31508001B70DDBC042000F0C2F80028DBD0554D5649DC
S31508001B8028680BF023FA0AF039FC0AF038FCBDF88D
S31508001B9006205449286802AB0BF018FACAE79D07D5
S31508001BA020D5042000F0AAF860B14A4D4A492868B1
S31508001BB00BF00CFA0AF022FC0AF021FC4A492868C4
S31508001BC00BF004FAFFF75EFD4FF4FA700AF0D5FB46
S31508001BD0FFF78AFC238823F002031B041B0C2380CF
S31508001BE005B030BD238818071CD5042000F086F8F8
S31508001BF060B1384D384928680BF0E8F90AF0FEFB61
S31508001C000AF0FDFB394928680BF0E0F9FFF73AFDC1
S31508001C104FF4FA700AF0B1FBFFF788FC238823F02B
S31508001C200803DAE72388590614D5042000F066F875
S31508001C3060B1284D284928680BF0C8F90AF0DEFB80
S31508001C400AF0DDFB2A4928680BF0C0F9238823F03F
S31508001C504003C2E723881A0614D5042000F04EF87C
S31508001C6060B11C4D1C4928680BF0B0F90AF0C6FB98
S31508001C700AF0C5FB1F4928680BF0A8F9238823F04A
S31508001C808003AAE7238813F0200F238802D023F0C5
S31508001C902003A2E7DB0603D5238823F010039CE77D
S31508001CA0042000F02BF800289AD00A4D0A49286823
S31508001CB00BF08CF90AF0A2FB0AF0A1FB22880E4968
S31508001CC0286892B205B0BDE830400BF07FB900BF76
S31508001CD0EC210020F006002009210108312701081F
S31508001CE07E27010860270108A0270108B0270108F8
S31508001CF0D2270108EB270108012801080B4B0246E9
S31508001D001B7883B10A4B1B78834234BF002001201D
S31508001D10084B1B7833B1084B1B78134113F0010F9E
S31508001D2008BF002070470120F2E700BFBF27002048
S31508001D30BE27002014220020BD270020012208B556
S31508001D40074B1A700022074B1A700422064B1A70AA
S31508001D501F22064B1A7005F0F1FE054B186008BDE8
S31508001D60BF27002014220020BE270020BD27002000
S31508001D70F006002008B504480FF052F808F0EAFC0F
S31508001D80BDE8084000F008B8B832010801480FF06D
S31508001D9047B800BFB83201082DE9F04F544E97B046
S31508001DA0354609AC0FCD0FC42B6806F11405236020
S31508001DB00EAC0FCD0FC495E80F00DFF84C8184E810
S31508001DC00F004C480FF02CF840460FF029F84FF456
S31508001DD08073494FADF83C30484B38460B9309A9F8
S31508001DE00EAB0D9303F040FF0421B6F834B00DEBAB
S31508001DF001000122ADF804B000F03CFAB6F836A0AE
S31508001E000022012102A8ADF808A000F033FAB6F8BE
S31508001E1038900122042103A8ADF80C9000F02AFAA4
S31508001E20758F0122042104A8354CADF8105000F036
S31508001E3021FA344B4FF44870C4F8F8344FF00213C3
S31508001E40C4F8F434A3F58033C4F8FC341C23C4F86E
S31508001E50E43407F0D3FB08A8ADF8205000F07AFA6E
S31508001E60142007F0CBFB08A8ADF8205000F044FA80
S31508001E70232007F0C3FB08A8ADF8205000F06AFA43
S31508001E80B92138460AF0E4FF08A8ADF8205000F05A
S31508001E9033FA002205A81146ADF814B000F0EAF9A5
S31508001EA0002206A81146ADF818A000F0E3F90122B1
S31508001EB0002107A8ADF81C9000F0DCF901220021EA
S31508001EC008A8ADF8205000F0D5F9384603F08AFD89
S31508001ED000234046C4F8E434C4F8F834C4F8F434AB
S31508001EE0C4F8FC340EF09FFF17B0BDE8F08F00BFB2
S31508001EF060290108B832010800000A50E070720033
S31508001F0000C0035002000300C03201080348044A17
S31508001F100449121A92100AF0D6BA00BF7C010008CA
S31508001F206C030008D023002008B5154B83F30A88F4
S31508001F3000F030F8FFF7EAFF124B13498B4212D331
S31508001F400020124B12498B4218D3FEF761FA186823
S31508001F5050F82240586840F8224001329868824278
S31508001F60F5D30C33EAE70022F8E71C6844F82200A8
S31508001F7001325C68A242F8D30833E4E70022F8E7A6
S31508001F8000000020803C01088C3C01088C3C0108BC
S31508001F908C3C01084FF48041124B134A70B59A6085
S31508001FA0D3F88820114D42F47002C3F88820104AED
S31508001FB005F5005491664FF0FF3222660D4A6266B7
S31508001FC00222C3F8D020BFF34F8FBFF36F8F4FF4B1
S31508001FD04036002005F02AFD0020E66005F0BEFC2C
S31508001FE02E6170BD00ED00E000000008008000448E
S31508001FF0009000507FFF7F03014B1860704700BFB9
S31508002000F0260020054B1860054B1B6F03F00703ED
S31508002010032B01D10BF0FABC704700BFF82600204D
S315080020200080005038B504460D4601B118B937216D
S3150800203003480AF055FA23682B60256038BD00BFAF
S315080020409C29010838B504460D4601B118B9452141
S3150800205004480AF045FA236813B92B60256038BD91
S315080020601C46F8E79C29010810B5044618B95621FC
S3150800207004480AF035FA206818B10368236000237B
S31508002080036010BD9C29010838B504460D4601B108
S3150800209018B98B2106480AF023FA23682BB1AB42FC
S315080020A004D12B68236000232B6038BD1C46F4E757
S315080020B09C29010840B1054A1378012B04D80370FE
S315080020C00133002013707047012070471522002045
S315080020D0002307B5294801930EF0A2FE4FF440737A
S315080020E0012204216846ADF8003000F0C3F8012249
S315080020F0234B0520C3F8442401A90EF08CFE0028C2
S3150800210039D1204BD3F8F02042F00102C3F8F02071
S31508002110D3F8FC2042F08072C3F8FC201A4AA3F5D3
S315080021205D431A60019B194A03F5D52303F2FC4364
S31508002130B3FBF2F3164A013B13610223C2F8F030EF
S315080021404FF48073C2F804334FF06043114AC3F862
S31508002150B02F114AC3F8802ED3F8002E42F48072AD
S31508002160C3F8002EFF2283F82020D3F8002E22F48D
S315080021708072C3F8002E03B05DF804FBB83201087C
S3150800218000D0035000ED00E0FF030040F8590D00B1
S31508002190000004E055CEACC5090001004FF06043CD
S315080021A0D3F8802E30B5D20715D501240B4D8440BF
S315080021B0D5F8FC2042F08072C5F8FC20D3F8002E32
S315080021C02243C3F8002E53F82020002AF0D003F843
S315080021D02010002030BD1120FCE700BF00ED00E014
S315080021E02DE9F04104460C254FF00108124E0CB3B8
S315080021F014F001000BD0002024F0010405FB006256
S315080022005768002FF3D09168C0B2B847EFE7224667
S31508002210013020284FEA520201D0D307F8D508FA30
S3150800222000F20F2824EA0204E8D9103805FB0062F8
S31508002230B432E5E7BDE8F081F406002008B50C489D
S315080022400EF0EEFD1A2005F0A3FB28B11A2005F0C2
S31508002250EDFB1A2005F082FB1B2005F099FB28B13F
S315080022601B2005F0E3FB1B2005F078FB002008BDCA
S31508002270B83201082DE9F0410E461746044638B92A
S3150800228093211A480AF02CF922252846BDE8F08140
S315080022900F290CD8037883B1013BDBB2022B06D891
S315080022A0134A32F813306278D340DB0708D49721F3
S315080022B00E480AF015F92125E7E747F6FF73F2E716
S315080022C00C4BD3F810532DB19B2108480AF008F996
S315080022D00225DAE70EF036FD80463A4620463146B4
S315080022E004F0DEFD40460EF028FDCEE7EE29010893
S315080022F0442A010800C0035038B5044628B91348D3
S31508002300E4210AF0EDF8222038BD037883B1013BB9
S31508002310DBB2022B06D80E4A32F813306278D34065
S31508002320DB0708D40948E8210AF0DAF82120EBE7A8
S3150800233047F6FF73F2E70EF005FD054620460BF05B
S315080023406BFC28460EF0F9FC0020DDE7EE290108B3
S31508002350442A010838B5044628B91448FC210AF06D
S31508002360BFF8222038BD03788BB1013BDBB2022BC4
S3150800237006D80F4A32F813306278D340DB0709D4FF
S315080023800A484FF480710AF0ABF82120EAE747F6CD
S31508002390FF73F1E70EF0D6FC0546204604F01CFD57
S315080023A028460EF0CAFC0020DCE700BFEE2901082B
S315080023B0442A010870B50D46044600B131B91548DE
S315080023C040F22D110AF08CF8222070BD03788BB1EB
S315080023D0013BDBB2022B06D80F4A32F8133062787B
S315080023E0D340DB0709D40B4840F231110AF078F8DC
S315080023F02120EAE747F6FF73F1E70EF0A3FC06464D
S31508002400204604F015FD287030460EF096FC002094
S31508002410DBE700BFEE290108442A01082DE9F0414F
S315080024200D4616469846044600B139B92F484FF46A
S31508002430E0710AF055F82220BDE8F0810378D3B19F
S315080024405A1ED2B2022A08D9FF2B0DD04FF4E271D8
S3150800245026480AF045F82120EEE7254B33F81230D6
S315080024604278D340DA07F1D5022E08D9042E06D0D1
S315080024704FF4E471ECE747F6FF734278F1E70EF0A4
S3150800248061FC23780746FF2B05D03246204629688B
S3150800249004F070FD28602B68013309D12378FF2BDF
S315080024A006D1144B6078D3F824140AF0F9FC286096
S315080024B029684B1C14D00C230F4A03FB0122069BE8
S315080024C0C2F8048093602378FF2B04D001230B4ABB
S315080024D08B40C2F8243438460EF02FFC0020ABE7B8
S315080024E038460EF02AFC2D20A6E700BFEE29010883
S315080024F0442A010800C00350F406002000D0035007
S3150800250008B504F0C3FC054B00F0553020F0A04098
S31508002510C3F82004BDE80840FFF762BE00E0035098
S3150800252008B504F0B3FC054B00F0AA3020F02040B3
S31508002530C3F82004BDE80840FFF752BE00E0035088
S3150800254013B504460A480EF06BFCA2780421B2FAC9
S3150800255082F2237852098DF8043063780DEB010076
S315080025608DF80530FFF786FE002002B010BD00BFCB
S31508002570B83201082DE9F04F9A46564B85B01B78BC
S3150800258006460F461546DDF83C909DF844B0DDF842
S315080025905080002B00F09780072A00F296800E9B49
S315080025A0002B00F09280B9F1000F00F08E80129B8C
S315080025B0B3F5006F00F38980012803D1109B002B27
S315080025C000F08380444B03EB05131B7B002B7ED066
S315080025D0424C1022002168460AF0FBFF04EB451422
S315080025E01022A7BB394620460AF0F3FF43F2100330
S315080025F06380BBF1000F03D1E37843F00303E37074
S31508002600364A0E9B02EB451CCCE90193129B6901E5
S31508002610581E9DF84C30C0F30A0003F003039B06CE
S3150800262043EA001E53582E48012E00EA03004EEADC
S315080026300003CDF800A0535017D0B8F1000F2ED1E3
S315080026409CF8023068F304138CF8023027E0002166
S3150800265020460AF0BEFF4FF444736380BBF1000FB7
S31508002660CED1E37843F03003C9E713230CF1100EFB
S31508002670CCF80C309CE80F008EE80F006FF00301D1
S31508002680DCF81C20109B61F39F02012FCCF81C205C
S31508002690CCF8143003D1CCF81890CCF804300027C5
S315080026A00D4A290102EB051342F80180159A2846BE
S315080026B05A60694622469F605E7304F0BBF9384645
S315080026C005B0BDE8F08F0748FAE70748F8E7074876
S315080026D0F6E700BF162200205C0900205C080020EF
S315080026E00F80FFF3028000F0018000F0078000F001
S315080026F038B5124B05461B78DBB1E0B10EF022FB6C
S315080027000F4A00231146147B54B92B6001251A0180
S3150800271001EB03131D738C500EF00FFB204638BDDA
S315080027200133082B02F11002EDD10EF006FB054825
S31508002730F5E70548F3E70548F1E700BF162200204C
S315080027405C090020048000F0028000F0018000F09F
S3150800275038B50EF0F7FA002305460B4A147B6CB918
S315080027600133082B02F11002F8D104F0E5F8074B03
S3150800277028461C700EF0E1FA204603E028460EF0C3
S31508002780DCFA034838BD00BF5C0900201622002089
S31508002790058000F00D4B10B51B78044693B1072849
S315080027A012D80EF0CFFA0A4B03EB04131A7B2AB1A0
S315080027B000241C730EF0C1FA204610BD0EF0BDFAB7
S315080027C00448FAE70448F8E70448F6E71622002022
S315080027D05C090020068000F0028000F0018000F00D
S315080027E0154B13B51868002301908DF804300EF0C8
S315080027F0A9FA124B1C7824B10EF09FFA104802B0C1
S3150800280010BD01221A700EF098FA0E4B01A81C731F
S315080028101C7783F82C4083F83C4083F84C4083F8B7
S315080028205C4083F86C4083F87C4008238DF80730B9
S3150800283004F0B8F82046E2E74A2A010816220020E2
S31508002840038000F05C090020F8B50D4D2D7885B1A0
S31508002850072810DC0B4D060105EB0014277B67B132
S31508002860AB510025069BA560636004F0E3F8284693
S31508002870F8BD0548FCE70548FAE70548F8E700BF4C
S31508002880162200205C090020028000F0018000F07A
S31508002890078000F00A4A08B512785AB107280BD8FB
S315080028A0084A02EB00131B7B43B1002104F05AF8D7
S315080028B0002008BD0448FCE70448FAE70448F8E79E
S315080028C0162200205C090020028000F0018000F03A
S315080028D0078000F00A4A08B512785AB107280BD8BB
S315080028E0084A02EB00131B7B43B1012104F03AF8B6
S315080028F0002008BD0448FCE70448FAE70448F8E75E
S31508002900162200205C090020028000F0018000F0F9
S31508002910078000F0184B2DE9F0411F6D5B6D1F40D5
S3150800292000D5FEE701260025144CDFF8588037420B
S3150800293018D02368C8F85060A3B1A16828460131A9
S315080029406268A1609847637B012B0BD150B90C4B89
S3150800295003EB45131A7B60F341021A731A7F60F37F
S3150800296041021A770135082D4FEA460604F110048C
S31508002970DDD1BDE8F08100BF000004505C090020ED
S315080029805C080020002004502DE9F04F1446064646
S315080029900D469B46C36B87B001225B6902A9606836
S315080029A09847F36B01225B6903A92846984702A852
S315080029B00AF06AF8074648B10023A37563754FF015
S315080029C0FF33A360002007B0BDE8F08F03A80AF024
S315080029D068F80123A375237E04EBC303DD611F8416
S315080029E06368AB420ED1206003A80AF07CF84FF06A
S315080029F0FF332075A360237D043B022B26D80023D2
S31508002A00A375DFE723681A1A53425341A37503A82F
S31508002A100AF069F8237D834218BFA77503A80AF050
S31508002A2044F8074602A80AF040F8874218BF002370
S31508002A3003A818BFA3750AF040F8074602A80AF0CB
S31508002A403CF887421CBF0023A375D4E703A80AF005
S31508002A502CF880B1F36B022228465B6904A99847D3
S31508002A6004A80AF031F80346207D032839D8DFE8A0
S31508002A7000F03838040903A8F3E7CC22237E04EBD8
S31508002A80C3031A8400F01CFC109B187003A8277E49
S31508002A9009F0FFFF04EBC70787F82200237E03A887
S31508002AA004EBC303B3F8209093F8227009F0FDFFF6
S31508002AB0804603A80AF001F88246B8F1000F15D03F
S31508002AC0F36B022228465B6904A9984704A809F013
S31508002AD0C0FF6075637D6BB90023A3754FF00008CE
S31508002AE038E0227E04EBC2021384CBE703A809F080
S31508002AF09BFFEEE794F81680B8F1000FEED0B9F117
S31508002B00000F09D1DFB10123627EE375002A44D1A3
S31508002B109F4218D1677614E0736C05EB0A02594296
S31508002B2085EA020008421CBF0021A175591E0A4009
S31508002B309B1A9945D0D8A37D002BE3D1CEE7E37D38
S31508002B4043B94FF000084B4652462946304609F02D
S31508002B509EFEA060A27D12B123694B4423611449ED
S31508002B60237E097899421ED901332376BBF1000FDB
S31508002B701BD0D2B1E37DC3B1B8F1000F15D1032F35
S31508002B8013D0A1684B1C10D0109B224600933046E8
S31508002B900123FFF7F9FEA07507E0012FDAD0032F0E
S31508002BA008BFA376CDE70023A375A07D0BE700BF7A
S31508002BB0702A01082DE9F04F0E46984600238BB07F
S31508002BC004464FF0FF31104617468DF8133000F0D3
S31508002BD061FBB6F5801F3BD3B21C53D1E56A6B1C6B
S31508002BE057D12046616A09F098FD0546B31C18BFFF
S31508002BF00123DFF810910193636A626C02932368DC
S31508002C0005A902FB053AE36B05225B69504698471E
S31508002C1005A809F0A8FF09F0CBFF504609F0D3FF35
S31508002C204FF0000B824601464B1C05D0636C81EAC7
S31508002C300A025B42134232D02946204609F06DFD4E
S31508002C40029BAB424DD0BBF1000F4DD10546D3E7F1
S31508002C50314605AA04F1080009F068FE0146481C39
S31508002C6010D0384600F016FB0122394620460DF1F1
S31508002C70130309F02BFE28B19DF8133088F80030AD
S31508002C80002003E0237C002BA8D12D200BB0BDE843
S31508002C90F08F2368ED1A636CB5FBF3F5A6E7484693
S31508002CA000F0F8FA0DF1130349462046019A09F097
S31508002CB00DFE034690B1B21C03D0D9F80020B242EB
S31508002CC00CD19DF8132003930D4B88F80020494634
S31508002CD01A6838460AF088FC039B9B46D9F8081000
S31508002CE0A2E7BBF1000FD0D0B6F5801FC8D2314697
S31508002CF098F800307A6804F1080000F065FABFE732
S31508002D006C2A0108501000202DE9F34104461746A5
S31508002D1098460E46194D816AE36A8B422AD04B1CA7
S31508002D2018E0284600F0B6FA0122294620460DF199
S31508002D30070309F0CBFD30B14346294620469DF8E6
S31508002D400720B847B0B1A9684A1C05D0012E0AD099
S31508002D50E36A9942E5D10DE06968204609F06AFD03
S31508002D60012E0146D8D16B6881EA0302636C5B4287
S31508002D701A42D1D002B0BDE8F08100BF241000206D
S31508002D802DE9F04F4FF0FF334FF6FF72002504464A
S31508002D9000F10806C0E909238BB0C3620562056322
S31508002DA030460F4609F0ACFD204609F086FC20BBEC
S31508002DB02046394609F001FD204609F07EFC20BB75
S31508002DC05E200BB0BDE8F08FE26B2368606CD2F82A
S31508002DD014C000FB0530052205A9E04705A809F03F
S31508002DE0C2FE012828D12946204609F0B7FC421C14
S31508002DF02946204609F080FC0135E3699D42E3D364
S31508002E00204609F05AFC0028D2D000254FF0FF3999
S31508002E104FF6FF73CA46A846C4E90853E3699845BE
S31508002E2014D3A5EB0905012D36D84FF6FF72636A50
S31508002E30934246D16720C4E709F0BFFE0028DBD0DD
S31508002E402946204609F08AFC0246D1E72368E26B48
S31508002E50606C576900FB0830052205A9B84705A824
S31508002E6009F081FE834605A809F054FE0746584630
S31508002E7009F09EFE68B1574538BFC4F82480B945A5
S31508002E8028BFB946BD4238BF3D46BA46236A013314
S31508002E90236208F10108C1E74FF6FF730025636254
S31508002EA0E3699D42C1D2676C2068E36B052207FB84
S31508002EB005005B6905A9984705A809F02BFE0135A9
S31508002EC0EEE7E26B676C2068694607FB0300556905
S31508002ED00522A847684609F01DFE626A2368606CE9
S31508002EE0504D00FB023009F06EFE4FF0FF33A06232
S31508002EF0E3622A466FF00101204605ABFFF75AFE4A
S31508002F0000284FD1AD6829462046E56209F0B1FB95
S31508002F10206320B92046E16A09F08CFCE062294664
S31508002F20204609F087FC0546A36A9D423CD165699F
S31508002F30626CE91C143AB1FBF2F14FF0000805EB9C
S31508002F40C1050335B5FBF2F5C1460235E369994576
S31508002F503CD3A8455AD22046616A09F0DEFB002711
S31508002F60064604F1400AB84512D8626C23686946D9
S31508002F7002FB0639E36B05225B69484698476846B3
S31508002F8009F0C8FD534602464946E06B09F01DFEA6
S31508002F903146204609F0C1FB0137AF420646E2D367
S31508002FA064200EE7A56AAEE72946204609F061FBCC
S31508002FB0236B2946034407462363204609F03AFC57
S31508002FC00546002FB0D1C4E90B07ADE7636C276847
S31508002FD0052203FB0977E36B05A95B693846984721
S31508002FE005A809F0C0FD09F0E3FD60B1384609F00F
S31508002FF0EAFD0146204609F03CFB636C143B984207
S3150800300008BF08F1010809F101099FE7304609F0F0
S3150800301077FC002320461946034AFFF775FE002071
S31508003020CFE600BF7C100020BBC800082DE9F041A0
S315080030300025634B0E46D3F8008004461D6018B978
S3150800304021252846BDE8F08190F8347007B30A6850
S3150800305003689A4240F0AA804A6843689A4240F058
S31508003060A5808A6883689A4240F0A080CA68C368C7
S315080030709A4240F09B800A6943699A4240F09680DA
S315080030808A69C36B9A4240F091804B698361D8E79D
S3150800309068223946856B0AF09CFAD6E9021233682B
S315080030A004F1080023607368A5636360336963618C
S315080030B07369A36109F036FCB36904F14000E36360
S315080030C09B68984720B9676C17B16368B3FBF7F735
S315080030D094F84330E761002BB2D00023656C236671
S315080030E0002D6BD0002F69D02368B3FBF5F205FBE2
S315080030F01233002B5CD16768B7FBF5F605FB16762D
S31508003100002E55D1204609F0A4FAA36904330344D6
S315080031109F424FD340F634726369CC3B93424BD8F7
S31508003120B5F5805F4AD30321204609F0BBFAD4E9F6
S315080031300001E36B1B6898470546E36B0220DB68D2
S3150800314098472DB184F83460E06B09F0D1FB78E735
S3150800315041462046FFF714FE6428054604D1414639
S315080031602046FFF70DFE0546636C143BD5B9226A67
S31508003170204602FB03F609F06CFAA36904330344FC
S315080031809E4203D284F834505A25DDE70123D4E958
S3150800319000010C4A84F8343013680133136009F0CF
S315080031A042FCD1E7002384F83430CDE75D2548E7B3
S315080031B0592546E75A2544E75F2542E75B2540E758
S315080031C0E0090020DC0900202DE9F043466886B3B3
S315080031D0056898464FF0000CA946AE4655F83C409F
S315080031E00CF1010CC4F31307013401D0B94217D00E
S315080031F066450EF1080EF1D12F46002403E0A642DB
S3150800320007F1080712D055F8343001340133F6D1E6
S31508003210C1F3130141EA0851C7E90012BDE8F0837A
S3150800322041EA0851CEE90012BDE8F083B8F1030F70
S3150800323003D101230372BDE8F083002303E09E4215
S3150800324009F10809F5D055F833400133C4F307549A
S31508003250032CF4D1C1F3130343EA0853C9E9003236
S31508003260BDE8F083024B1968024B1868FFF7DEBE0B
S31508003270FC2600201C27002008B50DF053FD014B45
S31508003280186008BDA8100020014B18680DF048BD4D
S31508003290A810002038B5094B0D461A6800210446C7
S315080032A00AF097F900234FF0FF322383C4E900257B
S315080032B02361A260E382A37638BD00BF6C2A0108A9
S315080032C00138C0B205289ABF014B185C0120704727
S315080032D0712A01082DE9F0410746154600240E46D5
S315080032E0596888B0490A012922464FEA510104F172
S315080032F00104F8D8DC78997824031B88C90201F4FC
S31508003300006104F480540C43C3F30A0352032344B4
S3150800331092B24FF000089C18274B6FEA04440393B7
S3150800332025F07843ED4302A90DF107001B2202930D
S315080033308DF8078009F063FC9DF80720029B02A917
S3150800334043EAC2630DF107001B2225F07845049372
S3150800335002958DF8078009F052FC9DF80720029B1C
S315080033606FEA144443EAC26305934FF0FF330794A8
S31508003370069307A9BB69012206F110009847BB69A5
S3150800338005A90446012206F108009847BB6940458D
S3150800339018BF044604A90122301D9847012240455A
S315080033A018BF0446BB69304603A99847404508BF7D
S315080033B0204608B0BDE8F08101009AB238B5054646
S315080033C0B0B1B9B1B2B1B2F5006F13DC0DF0BAFC09
S315080033D095F84C3003F0FF041BB10DF0AEFC06481F
S315080033E038BD012385F84C300DF0A7FC2046F7E7D9
S315080033F00248F5E70248F3E7032000F0012000F051
S31508003400022000F0836D70B5002B054603DCCA2147
S315080034100E4809F065F80DF095FCAC6D0646013CC2
S31508003420AC6574B90DF07EFC0546214601200AF00C
S315080034305BFD01202146064A0AF0F8FE28460DF0F3
S315080034406FFC3046BDE870400DF077BC772A01085E
S31508003450CD2A010870B504460DF074FCA36D054627
S3150800346073B90DF05FFC0121064608460AF03CFDDB
S315080034700121074A08460AF0D9FE30460DF050FCED
S31508003480A36D28460133A365BDE870400DF055BC11
S31508003490CD2A01082DE9F04390460022436390F8AF
S315080034A05C300446894687B080F85420C0F83C80D2
S315080034B0002B37D14FF4406305686B614369092BCC
S315080034C003D905F12C07443506E00BBF05F12007A3
S315080034D005F1240738353C3566692046082E94BF21
S315080034E000260126FFF7B6FF134B0494CDE90263C5
S315080034F00123CDF8048000934A463B46216BA06A17
S3150800350009F078F80023CDE90186CDE90333009365
S315080035102A46E16A606A04F1180309F051F807B00F
S31508003520BDE8F083012BFAD1006809F086FB25680F
S3150800353005F13C07C7E700BF5FCD00082DE9F04756
S3150800354016460022436390F85C300446894686B0E6
S3150800355080F85420C663002B38D14FF440630568C1
S315080035606B614369092B03D905F12C08443506E03C
S315080035700BBF05F1200805F1240838353C35676985
S315080035804FF0000A082F94BF002701272046FFF7AF
S3150800359061FF134B0494CDE902730196CDF800A0A0
S315080035A04346216B04F13802A06A09F023F8012387
S315080035B0CDE903AACDE9016700932A464B46E16A9D
S315080035C0606A08F0FDFF06B0BDE8F087012BFAD166
S315080035D0006809F032FB256805F13C08C6E700BF1C
S315080035E05FCD000801292DE9F04104D902390129E6
S315080035F026D9BDE8F081234B234E1C68234FDFF8FC
S31508003600A080803C14F1800FF3D025680521284658
S3150800361002F006FA1E4B9D420ED01E4B9D420DD05F
S315080036201D4A1E48954218BF4046182109F0B6FBA8
S31508003630D4F88040803CE5E73046F6E73846F4E7BC
S31508003640104B114D1C68114E154F803C14F1800F1C
S31508003650CFD023680E4A93420FD00E4A93420ED01B
S315080036600E4802F58042934218BF3846002109F0F9
S3150800367095FBD4F88040803CE8E72846F6E73046D4
S31508003680F4E700BFAC100020C4C40350E4C40350E0
S315080036900000015B00000A5000400A5004C50350B0
S315080036A0A4C403502DE9F0410B688B4A8EB09342AF
S315080036B005460C460DF1180807D0884A934204D0EF
S315080036C002F58042934240F0F1804746844ECDF899
S315080036D014800FCE0FC796E80F00103687E80F0044
S315080036E00FCE01AF0FC7002D00F0DE808422002127
S315080036F0284609F06EFF2368774A934219D0774A1D
S31508003700934200F0A58002F58042934200F0A7801C
S31508003710744E754B1B681BB97449754805F05AFDFC
S31508003720714805F18001FEF77DFC30460EB0BDE814
S31508003730F0814FF480124FF000086E486E492B60F6
S315080037400123274685F85C302E1DC5E90B1228652E
S315080037500FCF0FC697E80F0086E80F00637E012B90
S3150800376008BF8DF81D30A37E23B1012B7ED104231B
S315080037708DF81230227EE368012A4FF000027DD1CF
S315080037805E498DF811208B429CBF05238DF8353094
S315080037905B4B5C4803930DF043FB2B6D98680DF06B
S315080037A03FFB2369DA1F092AB2D8063B8DF8103089
S315080037B0237E2BB9E37EB3FA83F35B098DF81C30BD
S315080037C00121284609F044FA06460028A1D1237AA1
S315080037D020794D4A40EA034002EB4811C1F8DC045F
S315080037E0667A60794FEA481340EA0640C1F8D4047D
S315080037F0A67AA07940EA0640C1F8D804E17E0029F5
S315080038003FD1E17AE27903F1A04342EA014203F5A6
S315080038107033C3F8C8241D22C3F8C424206801A93C
S3150800382002F022FA0DF08EFA384B1A7882BB012282
S315080038301A700DF082FA05F055FEFEF7D1FF002149
S3150800384005F12400FEF754FF014620B3304E60E729
S315080038504FF488124FF001082E482F496FE74FF4AE
S3150800386090124FF002082D482D4968E7022B3FF4C5
S315080038707FAF032B7FF44CAF062379E78DF834200E
S3150800388087E71C2308F1260802EB48125360C5E7B0
S315080038900DF053FAD1E705F12800FEF729FF064691
S315080038A000283FF436AFD1E71E4E32E746461E4F94
S315080038B00FCF0FC697E8070086E80700002D00F02F
S315080038C0D28084220021284609F083FE2368174AFD
S315080038D093422DD0034E28E70000015B00000A50F2
S315080038E0D42A0108022000F0AC100020202700206E
S315080038F0B0100020F0320108010010003F4B4C00C8
S3150800390040420F00B832010800C0035017220020B9
S31508003910092000F0E432010801001100D83201083C
S3150800392001001200012000F0082B010800C0055014
S315080039304E4A2E462A654FF4802227464C49C5E949
S315080039400B1246F8043B0FCF0FC697E80F0086E820
S315080039500F00637E012B08BF8DF82630A37E2BB19E
S31508003960012B67D14FF40073ADF82830237E414808
S31508003970012B03BF00238DF825304FF4E133E368AC
S3150800398008930DF04DFA2B6D98680DF049FA2369E6
S315080039901A1F0C2A9ED8033B414620688DF824300E
S315080039A003F0C4F9A36923F47F0323F47F432BB9F7
S315080039B04FF480322B6803F580539A60237A207976
S315080039C0617940EA0340637AA27941EA0341A37A1E
S315080039D0E67E42EA0342284BC3F8B007C3F8A817A5
S315080039E0C3F8AC278EBBE17AE27942EA0142C3F812
S315080039F09C271D2201212846C3F8982709F028F993
S31508003A00064600287FF491AE0DF09CF91B4B1A78F8
S31508003A10EAB901221A700DF090F905F063FDFEF778
S31508003A20DFFE002105F12400FEF762FE014688B19B
S31508003A30134E7AE6022B02D14FF4807394E7032BD8
S31508003A407FF448AF4FF440738EE71C22D2E70DF09F
S31508003A5074F9E4E705F12800FEF74AFE0646002851
S31508003A603FF463AEE4E7074E5FE600BFCC320108D9
S31508003A7002000400B832010800C0035017220020D3
S31508003A80092000F0012000F070B5037F0446012BE1
S31508003A900D4616460DD0FFF791FC48B93246294621
S31508003AA02046054BFFF7F6FC204609F046F9A06CC0
S31508003AB070BD0248FCE700BF6B0D0108082000F046
S31508003AC070B5037F0446012B0D4616460DD0FFF749
S31508003AD075FC48B9324629462046054BFFF72EFDA8
S31508003AE0204609F02AF9A06C70BD0248FCE700BF21
S31508003AF06B0D0108082000F0034B5A6812B19A6A48
S31508003B00002AFAD1704700BF0040065038B545680C
S31508003B1004466B1EB3F5004F23D2B5FA85F5154951
S31508003B20C5F11F054B680BB1FFF7E6FF0122124BE3
S31508003B305A604B689B07FCD40120227A637843EAD3
S31508003B40420343EA0513627A8B60A37A43EA420387
S31508003B504B620A4B5860237813B1FFF7CDFFC86054
S31508003B6038BD4121064808F0BBFC002DD5D12025DB
S31508003B70D5E700BF004006500060065000500650CA
S31508003B80242B010810B50C4620B140F21D11064839
S31508003B9008F0A6FC054B9A6AD106FCD41C639A6AFF
S31508003BA0D206FCD410BD00BF242B010800400650E5
S31508003BB008B520B140F23B11024808F091FC024BCF
S31508003BC0186B08BD242B01080040065008B5FFF7FE
S31508003BD093FF02230449CB6000230B62FFF78CFF97
S31508003BE00123CB6008BD00BF00400650044BD3F844
S31508003BF08420D206FBD4D3F88400C0F38110704722
S31508003C000040005038B5104B0546D3F800310C4635
S31508003C1003F00303022B0BD0032B0DD0012B0FD17E
S31508003C2009F00EFF032305B1286004B1236038BDEF
S31508003C3009F058FF0923F6E709F008FF0823F2E719
S31508003C4001230020EFE700BF0080005038B5104B75
S31508003C500546D3F840310C4603F00303022B0BD07C
S31508003C60032B0DD0012B0FD10DF061F80A2305B1F6
S31508003C70286004B1236038BD09F034FF0923F6E74C
S31508003C800DF058F80B23F2E701230020EFE700BFF9
S31508003C900080005038B5104B0546D3F860310C4605
S31508003CA003F00303022B0BD0032B0DD0012B0FD1EE
S31508003CB00DF03DF80A2305B1286004B1236038BD2C
S31508003CC009F010FF0923F6E70DF034F80B23F2E7A5
S31508003CD001230020EFE700BF0080005038B5104BE5
S31508003CE00546D3F840320C4603F00303022B0BD0EB
S31508003CF0032B0DD0012B0FD10DF019F80A2305B1AE
S31508003D00286004B1236038BD09F0ECFE0923F6E704
S31508003D100DF010F80B23F2E701230020EFE700BFB0
S31508003D200080005038B5124B0546D3F880300C4653
S31508003D3003F00303022B0BD0032B0DD0012B0FD15D
S31508003D4009F044FE0D2305B1286004B1236038BD8F
S31508003D5009F080FE0723F6E709F032FE0623F2E7AC
S31508003D60044841F2142108F0BBFB00231846EAE791
S31508003D7000800050752B010838B51A4B0546D3F854
S31508003D8020010C4600F00700062821D8DFE800F0DD
S31508003D9028040C1410181C0009F012FE052305B19E
S31508003DA0286004B1236038BD09F04AFE0323F6E70C
S31508003DB009F050FE0723F2E709F03EFE0223EEE77C
S31508003DC009F0FEFD0623EAE709F03AFE0423E6E7D2
S31508003DD0054841F2912108F083FB00231846DEE7E7
S31508003DE00123DCE700800050752B010838B5194B14
S31508003DF00546D3F828310C4603F00703013B052B8B
S31508003E0020D8DFE803F003131B0F0B1709F0D8FDC2
S31508003E10052305B1286004B1236038BD09F0D0FD3B
S31508003E200623F6E709F016FE0723F2E709F008FE6F
S31508003E300323EEE709F004FE0423EAE709F0FCFD94
S31508003E400223E6E7044841F2990108F049FB0023FA
S31508003E501846DEE700800050752B0108002337B5A9
S31508003E600193194B0546D3F820320C4603F0070395
S31508003E70042B1FD8DFE803F025030F1419000021CF
S31508003E8001A8FFF7B3FF11230DB1019A2A6004B107
S31508003E90236003B030BD09F0DDFD07230190F3E789
S31508003EA00CF045FF0A230190EEE709F01BFE0923F3
S31508003EB00190E9E741F25601044808F011FB002396
S31508003EC0E2E70123E0E700BF00800050752B0108F8
S31508003ED0F7B50027144B0197D3F88041064604F03E
S31508003EE00304022C0D4614D0032C0DD0012C14D13A
S31508003EF0394601A8FFF740FF0F240EB1019B336036
S31508003F0005B12C6003B0F0BD09F0A4FD07240190AB
S31508003F10F3E709F091FD0190EFE741F2E631034836
S31508003F2008F0DEFA3C46E8E700800050752B0108E9
S31508003F3038B5164B0546D3F800020C4600F00700C4
S31508003F40042819D8DFE800F020030B0F13000CF043
S31508003F50EEFE0A2305B1286004B1236038BD09F0D6
S31508003F60C1FD0923F6E70CF0E5FE0B23F2E709F09D
S31508003F704DFD0E23800AEDE7054841F2A44108F0FD
S31508003F80AFFA00231846E5E70123E3E7008000506F
S31508003F90752B010838B5164B0546D3F808020C46AA
S31508003FA000F00700042819D8DFE800F020030B0FFB
S31508003FB013000CF0BCFE0A2305B1286004B1236087
S31508003FC038BD09F08FFD0923F6E70CF0B3FE0B2385
S31508003FD0F2E709F01BFD0E23800AEDE7054841F2DA
S31508003FE0DC4108F07DFA00231846E5E70123E3E7FC
S31508003FF000800050752B010838B5124B0546D3F8DA
S3150800400050320C4603F00303022B0FD0032B05D0C6
S31508004010012B0FD10CF08BFE0A2302E00CF08AFE6E
S315080040200B2305B1286004B1236038BD09F05AFD99
S315080040300923F6E7044841F2C90108F051FA0023BA
S315080040401846EEE700800050752B0108002337B5A7
S315080040500193184B0546D3F860320C4603F0070364
S31508004060013B032B1FD8DFE803F0020E19140021C9
S3150800407001A8FFF781FE0F230DB1019A2A6004B14A
S31508004080236003B030BD002101A8FFF7DFFD102330
S31508004090F2E709F0DFFC07230190EDE709F0CCFC15
S315080040A002230190E8E741F2FD01034808F018FAF7
S315080040B00023E1E700800050752B010873B5002442
S315080040C00F4B0194D3F87032064603F00303012B15
S315080040D00D4607D0022B11D041F25B11094808F0B2
S315080040E0FFF904E0214601A8FFF7B0FD10240EB140
S315080040F0019B336005B12C6002B070BD1424F6E74D
S3150800410000800050752B010838B50F4B0546D3F8CB
S3150800411090320C4603F00303012B09D0022B0BD176
S3150800412009F098FC072305B1286004B1236038BD5F
S3150800413009F082FC0223F6E7044841F2851108F0EB
S31508004140CFF900231846EEE700800050752B0108CA
S3150800415008B5334B98424FD027D8324B984245D0B2
S3150800416017D8314B98423ED00AD838B12F4B9842CF
S3150800417039D041F2BB312E4808F0B2F9002034E0BC
S315080041802C4B98422FD02C4B9842F2D12B4B586E81
S315080041902BE02B4B98422CD003F5371303F5D86345
S315080041A09842E6D1254B986F1FE0264B98422FD0B0
S315080041B00CD8254B984223D0244B984224D0244B24
S315080041C09842D6D11D4BD3F884000EE0214B984275
S315080041D022D003F5740303F510539842C9D1174B3F
S315080041E0D3F8980001E0154B986D08BD134B186F6E
S315080041F0FBE7124B586FF8E7104BD3F88000F4E74B
S315080042000E4BD3F88800F0E70C4BD3F88C00ECE79C
S315080042100A4BD3F89000E8E7084BD3F89400E4E794
S3150800422080BA8C01405DC60080841E0040420F00A3
S31508004230752B010800093D00C0CF6A000080E00F19
S315080042400024F400007E560380D54302006CDC028D
S315080042500048E8010090D003B0F5207F10B52ED0B5
S3150800426009D8B0F5007F24D003D868B1B0F5C07F6F
S315080042700AD000241BE0B0F5607FFAD1124BD3F8C0
S315080042808040C4F3011412E00F4B1C6F230B13F08C
S315080042900E0FC4F303340AD0072C08D00F2C06D00F
S315080042A0032C04D04FF42271084808F019F9601C51
S315080042B010BD054BD3F89040C4F30464F7E7024BEE
S315080042C01C6FC4F38024F2E700800050752B0108A8
S315080042D04FF4803238B5104B04469A6600200D46D6
S315080042E0FFF7BAFF41F671320C4B6043DC69DA63BB
S315080042F05A6804F4803422F440125DB908498842A9
S3150800430094BF00200120000502435A600CB1002228
S31508004310DA6338BD0349F2E7009000500000035005
S31508004320005A6202002D310138B5430904460D468C
S315080043300ED140F235310D4808F0D2F8002304F0CA
S315080043401F0485B103F580530122A2401A6038BDC7
S31508004350012B04D0022B04D040F24331EBE7044B87
S31508004360EDE7044BEBE703F50053EDE7752B010882
S3150800437064800050688000501FB50021B0F5807F2A
S31508004380CDE9001100F005816AD8002800F0D88030
S315080043902038602878D8602876D8DFE810F0D10071
S315080043A0DF00D100DF00F000F000F000F000F000C0
S315080043B0DF009300E5000B011001E500DF00DF00D8
S315080043C0DF007500750075007500750075007500CD
S315080043D00B01DF00DF00DF0028019E00DF0075000B
S315080043E07500750075007500750075007500750017
S315080043F07500750075001A01F000D100D100D100D2
S315080044001501E500E5001F01BB00F500C600C60062
S315080044107500750075007500D1007500750075008A
S3150800442075007500750075007500750075007500D6
S3150800443075007500750075007500750075007500C6
S3150800444075007500750075007500750075007500B6
S315080044507500750075007500750075007500CB0050
S31508004460B0F5F06F00F0C3803CD8B0F5806F00F06F
S3150800447086801DD8B0F5207F70D00BD8B0F5C07FE8
S315080044805ED0B0F5007F5ED040F2A4415A4808F0ED
S3150800449027F852E0B0F5407F66D0B0F5607FF3D1DB
S315080044A001A80021FFF73EFC4FF46070019C4FE025
S315080044B0B0F5C06F7ED00AD8B0F5A06F64D0B0F55D
S315080044C0B06FE1D100216846FFF702FD35E0B0F58F
S315080044D0D06F74D0B0F5E06FD6D100216846FFF7EB
S315080044E0FDFB2AE0B0F5206F78D00CD8B0F5106F38
S315080044F06AD0B0F5186F6CD0B0F5086FC4D16846AD
S31508004500FFF780FB19E0B0F5306F6CD007D8B0F52F
S31508004510286FB9D100216846FFF7D0FD0DE0B0F548
S31508004520386F47D0B0F5406FAED100216846FFF727
S315080045305DFC02E009F04AFA0090009804B010BD4C
S3150800454009F064FAF8E709F041FA04464FF40070F6
S31508004550FFF782FEB4FBF0F40094EEE709F056FA92
S3150800456004464FF42070F3E709F050FA04464FF476
S315080045702070FFF771FEB4FBF0F46408ECE7002145
S315080045806846FFF7F9FBD8E700216846FFF766FC9F
S31508004590D3E74FF0E02302911B695B0705D509F0C5
S315080045A035FA0290029B0093C7E703A902A8FFF712
S315080045B04DFBF7E700216846FFF748FBBDE70021FA
S315080045C06846FFF7B5FCB8E700216846FFF7E2FC46
S315080045D0B3E700216846FFF70FFDAEE700216846FE
S315080045E0FFF734FDA9E76846FFF78EFDA5E700212A
S315080045F06846FFF74FFBA0E7752B010808B5802032
S31508004600FFF7BAFE034B98429EBF4FF48032024B27
S315080046101A6708BD005A620200A000501FB503467B
S315080046200020B3F5607F019000F0FC807BD8582B02
S3150800463068D8382B05D8243B092B49D940F289512B
S31508004640D1E0393B1F2BF9D801A252F823F000BF5D
S31508004650094800083D4600083D4600083D46000852
S3150800466013480008374800083D4600083D4600083C
S315080046703D4600083D4600083D4600083D46000800
S315080046803D4600083D4600083D4600083D460008F0
S315080046903D4600083D4600083D46000841480008DA
S315080046A04B4700083D4600083D4600083D460008C1
S315080046B08F4700083D4600083D4600084B4800085D
S315080046C0554800082D480008B1470008B1470008BA
S315080046D0092BB3D801A252F823F000BF4B470008B4
S315080046E04B4700084B4700084B4700084B47000854
S315080046F03D460008EF4700083D46000809480008FF
S3150800470069470008802B58D0B3F5807F96D14FF0C3
S31508004710E02302901B695B0771D509F077F90C2332
S315080047200393039B55E0B3F5086F77D021D8B3F50B
S31508004730C06F69D00ED8B3F5A06F77D0B3F5B06F58
S3150800474055D0B3F5806F7FF479AF002001A9FFF744
S3150800475013FB50E0B3F5E06F6DD0B3F5F06F58D0AA
S31508004760B3F5D06F7FF46AAF002001A9FFF7E0FB2D
S3150800477041E0B3F5286F6DD00ED8B3F5186F5FD04A
S31508004780B3F5206F61D0B3F5106F7FF457AF0020F3
S3150800479001A9FFF7FFFB2EE0B3F5306F5FD0FFF4FA
S315080047A04DAFB3F5386F2FD0B3F5406F7FF446AFF2
S315080047B0002001A9FFF71AFB1DE02B4B1B6F03F026
S315080047C00703013B032B0CD8DFE803F009020507B2
S315080047D0052301930FE00323FBE70823F9E70223E8
S315080047E0F7E740F2D641214807F07AFE03E00020B9
S315080047F001A9FFF76DFB019805B05DF804FB03A955
S3150800480002A8FFF723FA8CE7002001A9FFF71EFA92
S31508004810F1E7002001A9FFF73DFAECE701A9FFF748
S31508004820F1F9E8E701A9FFF77DFAE4E7002001A915
S31508004830FFF714FBDFE7002001A9FFF74FFADAE7D5
S31508004840002001A9FFF7D8FBD5E7002001A9FFF74B
S31508004850FDFBD0E7002001A9FFF730FCCBE701A953
S31508004860FFF752FCC7E700BF00800050752B010810
S315080048704FF48032074B0849586E03F580535A6641
S315080048804B6A23F001034B62C3035CBF034B5A66B2
S31508004890704700BF0080005000C0075000A00050BD
S315080048A0F8B5036804460F2B04D940F68A318048C8
S315080048B007F016FE63680F2B04D940F68D317C4845
S315080048C007F00EFEA3680F2B04D94FF43961784818
S315080048D007F006FE237B0F2B04D940F69331744864
S315080048E007F0FEFD637B0F2B04D940F6963170481E
S315080048F007F0F6FDA37B3F2B04D940F699316C48A7
S3150800490007F0EEFDE37B3F2B04D940F69C3168485F
S3150800491007F0E6FD2369032B04D940F69F31644866
S3150800492007F0DEFD6369032B04D940F6A23160481F
S3150800493007F0D6FDE369032B04D940F6A5315C4898
S3150800494007F0CEFD8020FFF769FE032800F08A8075
S315080049504FF48012574B584D5A6645F60E034FF0E2
S31508004960A062C5F88030554B9A624FF4803203F541
S3150800497080539A62AB6DDA03FCD4AE6D16F08046AE
S31508004980FBD1D4E900231B0543EA0263E27B4C48CA
S315080049901343227B4B4F43EA0243627B43EA0233CB
S315080049A0A27B43EA82132B61AA69D4E904131B0686
S315080049B043EA816302F000421343A27E4FF440614A
S315080049C01343227E43EA0243627E43EA0223AB6133
S315080049D04FF4006208F0F1F92B6AE17EE26923F0F0
S315080049E00F0343EA8103002A3DD12B6294F8243051
S315080049F094F82010AA6ADB0043EA41133A401343AD
S31508004A0094F82120304943EA021343F480332A4AB2
S31508004A10AB62936D31EA0303FBD14FF080712748EF
S31508004A2081621369A56823F4700343EA0553136189
S31508004A304FF00043836194F822300BB9234B9962F7
S31508004A4094F823303BB94FF48032204B9A621A4AC5
S31508004A50936D5B00FCD494F825301BB1164B1C4AA9
S31508004A60C3F88020F8BD134343F00803022A2B62DB
S31508004A7008D12E614FF408524FF47F411548AE61B4
S31508004A8008F09BF90C4994F822308A6A94F82000B9
S31508004A901B063A4043EA4013134394F8242043EA9A
S31508004AA0C20394F8232043EA02438B62D3E700BF8C
S31508004AB0752B0108009000500040005A0050005A1B
S31508004AC03840005AC7FFFEFE030001000060005A86
S31508004AD0F1A7FFFF3440005A014B93F900007047D5
S31508004AE0C0270020436810B5072B044604D940F6B2
S31508004AF0E6512A4807F0F4FCA368032B04D940F6CC
S31508004B00E851264807F0ECFC2378032B04D940F635
S31508004B10EA51224807F0E4FC94F90130002B04DA44
S31508004B2040F6EC511D4807F0DBFC4FF400011C4A27
S31508004B30637851664FF4D151022002F5B8325162BA
S31508004B4018494F2B48604FF0010028BF4F2301F545
S31508004B50805148601169C903FCD4217843EA0123CE
S31508004B605361D4E901131B0143EA0123617B0B431B
S31508004B70217B43EA41039360E37BA17B1B0143EA64
S31508004B804113617C0B43217C43EA41035360A37CB8
S31508004B9013B16FF4D153536210BD00BF752B0108D2
S31508004BA00090005000100250014B1880704700BF5B
S31508004BB0B2270020014B1880704700BFB02700209D
S31508004BC0B0F5207F38B577D00ED8B0F5007F61D024
S31508004BD003D890B3B0F5C07F2FD04FF44671BDE827
S31508004BE038403D4807F07CBCB0F5607FF5D13B4ABC
S31508004BF04C1ED2F8FC5015F080751EBFD2F8FC305A
S31508004C0023F08073C2F8FC30032C04D940F2F72154
S31508004C10314807F065FC324AD2F8803023F0300379
S31508004C2043EA0413C2F8803035B12C4AD2F8FC3076
S31508004C3043F08073C2F8FC3038BD4C1E012C0AD9EB
S31508004C40102903D8274BCB40DB0704D440F2CB21ED
S31508004C50214807F045FC08F0BFF808F0CBF84FF4F8
S31508004C608031214B1E4A1967136F23F4704343EAB8
S31508004C700433136708F0CAFE0446FEF7B7FFC0F10F
S31508004C800201204608F0B0F800F048F8BDE83840C0
S31508004C90FFF7B4BC4C1E1F2C04D94FF443710E48C1
S31508004CA007F01EFC0E4AD2F8903023F0F85343EA78
S31508004CB00463C2F89030BFE74C1E012C04D940F2B9
S31508004CC01231054807F00CFC054A136F23F480637C
S31508004CD043EA84231367AFE7752B010800ED00E06C
S31508004CE000800050100101000090005008B5012115
S31508004CF0022000F03DFD4FF42070FFF7ADFA054B9A
S31508004D00187008F069F808F075F84FF48032024B0D
S31508004D101A6708BD182200200090005008B54FF405
S31508004D20C070FFF729FBBDE808400449884294BFD4
S31508004D30012102214FF42070FFF742BF80F0FA02EA
S31508004D4038B5044608F062FE0546FEF74FFFC0F187
S31508004D500201284608F048F80121002000F05CFD11
S31508004D602CB1FFF7DBFFBDE83840FFF747BC034B24
S31508004D704FF420701978FFF723FFF4E71822002074
S31508004D80B0F5607FF8B50C4600F05F8200F29180BE
S31508004D90582867D8382805D82438092848D940F625
S31508004DA05F119AE139381F28F9D801A353F820F082
S31508004DB0315100089F4D00089F4D00089F4D00087F
S31508004DC071510008475300089F4D00089F4D000881
S31508004DD09F4D00089F4D00089F4D00089F4D0008F5
S31508004DE09F4D00089F4D00089F4D00089F4D0008E5
S31508004DF09F4D00089F4D00089F4D000887530008E7
S31508004E00DF4E00089F4D00089F4D00089F4D000883
S31508004E105B4F00089F4D00089F4D0008B1530008DE
S31508004E2001540008ED5200089F4F00089F4F0008E4
S31508004E300928B4D801A353F820F000BFDF4E0008B4
S31508004E40DF4E0008DF4E0008DF4E0008DF4E000880
S31508004E509F4D0008695000089F4D00083151000811
S31508004E60114F0008802800F0A980B0F5807F96D100
S31508004E700C2900F0378100F22B81A1F10904022CDC
S31508004E8000F229814FF48032A14BA249586E03F5EE
S31508004E9080535A664B6A43F001034B62C1035CBFF9
S31508004EA09D4B5A664FF0E022136923F00403136101
S31508004EB0BCE0B0F5086F00F0A9813DD8B0F5C06F29
S31508004EC000F0368118D8B0F5A06F00F00F82B0F563
S31508004ED0B06F00F0C980B0F5806F7FF460AF013C19
S31508004EE0062C00F2EC80DFE814F0EF00E400F10095
S31508004EF0E800D800E600E200B0F5E06F00F0238293
S31508004F00B0F5F06F00F03481B0F5D06F7FF447AF9D
S31508004F10013C0D2C00F25A81DFE814F05D015801BE
S31508004F205801580158015801580158015F014A01B2
S31508004F305401580158015601B0F5286F00F06082F7
S31508004F401FD8B0F5186F00F01E82B0F5206F00F07C
S31508004F502F82B0F5106F7FF422AF013C0D2C00F2C2
S31508004F604C81DFE814F04F014A014A014A014A011F
S31508004F704A014A014A0151013C0146014A014A01D6
S31508004F804801B0F5306F00F05282FFF408AFB0F573
S31508004F90386F00F0CD80B0F5406F7FF400AF023C6B
S31508004FA0052C00F2C9815D4B195D594AD2F82831A2
S31508004FB023F007030B43C2F8283137E08B1E062B74
S31508004FC047D8DFE803F04334464E4646040000253A
S31508004FD004264FF480370121022000F0C9FB07F0B0
S31508004FE0FBFE07F007FF4E4B494A1F67136F23F076
S31508004FF007033343136708F009FD0646FEF7F6FD77
S31508005000C0F10201304607F0EFFE0121002000F052
S3150800501003FCFFF783FEFFF7F1FA3DB9032C05D130
S31508005020404B414A9F62936D5800FCD4F8BD4FF43B
S3150800503080123B4B0E465A664FF480323A4B9D6AB5
S3150800504003F58053C5F300659A62C2E70025012679
S31508005050BFE7002540F24A61344807F041FA2E4678
S31508005060B7E700250226B4E7072C12D00F2C12D07A
S31508005070022C05D040F293612C4807F031FA00243F
S31508005080234AD2F8803123F003032343C2F8803140
S31508005090CCE70324F4E70124F2E701231C49D1F8FD
S315080050A0202122F007021343C1F82031BEE704236A
S315080050B0F4E70323F2E70523F0E70623EEE740F2D9
S315080050C0D2611A4807F00CFA0023E7E70223E5E75E
S315080050D010293FF4D7AE40F2FA61BDE8F84013480C
S315080050E007F0FEB94FF48032094B0A49586E03F5AA
S315080050F080535A664B6A23F001034B62C3035CBFB5
S31508005100054B5A664FF0E022136943F00403CEE6D6
S315080051100080005000C0075000A00050C72B0108AF
S31508005120009000500060005A0040005A752B010894
S31508005130013C0A2C13D8DFE804F0171212121212D7
S315080051401212190610000122A449D1F8403123F0A1
S3150800515003031343C1F8403168E70322F4E740F23A
S315080051601A719F4807F0BCF90022EDE70222EBE727
S31508005170013C0A2C13D8DFE804F017121212121297
S3150800518012121906100001229449D1F8603123F051
S3150800519003031343C1F8603148E70322F4E740F2FA
S315080051A03C718F4807F09CF90022EDE70222EBE7F5
S315080051B001228A49D1F8003223F007031343C1F8C4
S315080051C0003233E70322F4E70422F2E740F289715A
S315080051D0834807F085F90022EBE70222E9E7012276
S315080051E07E49D1F8083223F007031343C1F8083281
S315080051F01CE70322F4E70422F2E740F2AD7178488F
S3150800520007F06EF90022EBE70222E9E74C1E082CAC
S3150800521012D8DFE804F0161105111111110F180044
S3150800522001226E49D1F8003123F003031343C1F874
S315080052300031FBE60322F4E740F2C971684807F03B
S315080052404FF90022EDE70222EBE7664A634BD2F8F4
S31508005250FC5015F080750AD1072929D1D3F880208A
S3150800526022F0030242F00202C3F88020DEE6D2F8FA
S31508005270FC10072C21F08071C2F8FC100FD1D3F86E
S31508005280802022F0030242F00202C3F88020554A29
S31508005290D2F8FC3043F08073C2F8FC30C6E60D2C19
S315080052A00FD1D3F8802022F0030242F00102ECE786
S315080052B00D2906D1D3F8802022F0030242F001021C
S315080052C0D2E7062C10D040F2FC71454807F008F9E1
S315080052D00021424AD2F8803023F003030B43C2F878
S315080052E08030002DD3D1A1E60321F2E7012C1FD08F
S315080052F0073C0A2C17D80A2C15D8DFE804F01B142B
S315080053001210141414141414060001223349D1F887
S31508005310203223F007031343C1F8203286E603221E
S31508005320F4E70422F2E740F659012D4807F0D8F8C9
S315080053300022EBE70222E9E740F68B01284807F04E
S31508005340CFF8002131E6013C0A2C13D8DFE804F037
S3150800535017121212121212121906100001221F49F0
S31508005360D1F8403223F003031343C1F840325DE617
S315080053700322F4E740F6C901194807F0B1F80022FC
S31508005380EDE70222EBE7093C022C0AD8164B195D19
S31508005390124AD2F8503223F003030B43C2F85032B4
S315080053A044E640F6E5010E4807F09AF80021EFE7D3
S315080053B00F2C1FD01AD8022C1ED0072C1ED040F650
S315080053C0FF01074807F08CF800220449D1F860323B
S315080053D023F007031343C1F8603227E60080005024
S315080053E0752B010800ED00E0C42B0108102CE6D14E
S315080053F00222EAE70122E8E70322E6E70422E4E7D5
S31508005400102C10D0142C10D040F62D11134807F08C
S3150800541067F800221249D1F8703223F003031343C8
S31508005420C1F8703202E60122F4E70222F2E7022905
S3150800543010D0072910D04FF41461084807F050F827
S3150800544000220749D1F8903223F003031343C1F829
S315080054509032EBE50122F4E70222F2E7752B010808
S31508005460008000502DE9F0410546FEF771FE431E07
S315080054700333044604D940F6E2113B4807F030F8F6
S315080054804FF4C022394B5A6603F598335A68012AF5
S3150800549004D137494A605A689207FCD48020FFF73E
S315080054A0BDF8052807D107F097FC07F0A3FC4FF4D1
S315080054B080322E4B1A672F4B24F040749D4239D008
S315080054C02D4B9D4239D008F07BFA8542064603D912
S315080054D00121284600F0A0F9284FFB6813F0060FB3
S315080054E0FBD1D7F80880BC60BB68634013F4F81F8B
S315080054F026D12846FCF780FD8020FFF78FF805287F
