S02B0000626F6F746C6F616465722D73746F726167652D696E7465726E616C2D73696E676C652D3531326B2EF0
S315080000000810002081010008911F000869200008D7
S31508000010911F0008911F0008911F0008911F0008F2
S31508000020911F0008911F0008DC270008911F00088F
S31508000030911F00088C270008911F0008911F0008CF
S31508000040911F0008911F0008911F0008911F0008C2
S31508000050911F0008911F0008911F0008911F0008B2
S31508000060911F0008911F0008911F0008911F0008A2
S31508000070911F0008911F0008911F0008911F000892
S31508000080911F0008911F0008911F0008911F000882
S31508000090911F0008911F0008911F0008911F000872
S315080000A0911F0008911F0008911F0008911F000862
S315080000B0911F0008911F0008911F0008911F000852
S315080000C0911F0008911F0008911F0008911F000842
S315080000D0911F0008911F0008911F0008911F000832
S315080000E0911F0008911F0008911F0008911F000822
S315080000F0911F0008911F0008911F0008911F000812
S31508000100911F0008911F0008911F0008911F000801
S31508000110911F0008911F0008911F0008911F0008F1
S31508000120911F0008911F0008911F0008911F0008E1
S31508000130911F0008911F0008911F0008911F0008D1
S31508000140911F0008911F0008911F0008911F0008C1
S31508000150911F0008911F0008911F0008911F0008B1
S31508000160911F0008911F0008911F0008911F0008A1
S31108000170911F0008911F0008911F00084D
S3150800018008B50B4B83F30A880A4B07A1D1E900018E
S31508000190C3E9000100F07EF800F008FA00F054F810
S315080001A000F066F801F064FFA5EDF5FEA5EDF5FE95
S315080001B008000020081000200348044B834202D0A0
S315080001C0034B03B118477047341000203410002041
S315080001D000000000064B0749C91A891048BF0131BB
S315080001E0491003D0044B0BB101481847704700BFAC
S315080001F034100020341000200000000010B5064C12
S31508000200237843B9FFF7D8FF044B13B10448AFF37B
S3150800021000800123237010BD281000200000000074
S315080002208829000808B5054B1BB105490548AFF3F1
S315080002300080BDE80840FFF7CDBF00BF0000000002
S315080002401010002088290008064B0748DA1C121AE5
S31508000250C11E22F00302994288BF0022034902F018
S31508000260C9B900BF341000202C10002094290008BA
S31508000270064B0748DA1C121AC11E22F003029942DD
S3150800028088BF0022002102F0ADB900BF2C10002063
S3150800029010100020044B054A9A60D3F8882042F4CF
S315080002A07002C3F88820704700ED00E000000008DF
S315080002B0B0F5762F70B50E46144619D2C0F57623DA
S315080002C000F10065934205F5004511D348B94FF092
S315080002D000639B6A074A5969914202D9186900F076
S315080002E075FA224631462846BDE8704001F051BEEF
S315080002F070BD00BF008000087FB56FF0006200F196
S3150800030078419142034619D26D460D4A02F110060C
S315080003102C4610685168083203C4B2422546F7D104
S315080003205A1E04A90F3311F8014D12F8010F844221
S3150800033004D19A42F7D1012004B070BD0020FBE732
S3150800034078270008F0B50368044603F16043B3F55F
S31508000350802F9FB032D84FF00067BA6A4368166993
S315080003609E422BD8B3F1016F28D8456B06F140039E
S31508000370AB4253D8B5F1016F50D82846FFF7BCFFFA
S3150800038000284BD0284601F037FE80B16B6973B15F
S31508000390022B0ED1AB69C4F1040119444FF0FF32A8
S315080003A0204600F05DFE1E4BC31A584258411FB046
S315080003B0F0BD7F6B3846FFF79FFF08B90020F6E7C8
S315080003C0A6F150039F42F9D8284603A901F01BFE5F
S315080003D00028F3D0039DAE42F0D8AC42EED8B5F172
S315080003E0016FEBD804A800F0FFFE21462A1B04A8DB
S315080003F001F09CFF04A801F09BFF00F005FF0446EE
S3150800040000F020FF23460090294605F1200204A8A3
S3150800041000F06AFEB0FA80F04009C8E70120C6E796
S31508000420E320BBDE70B54FF0FF3292B005460C46AE
S3150800043000F016FE1C4B984232D14FF480621B4BDB
S3150800044000219A6601A8202202F0CCF8184B29460A
S315080004506846043C009302F046F92146684602F0D5
S3150800046042F9684602F048F902F006F90646B8B9B4
S3150800047040F2022000F056F9202231460AA802F07E
S31508000480B1F80C4B294609A8099302F02CF909A8DA
S31508000490214602F028F909A802F02EF902F0ECF834
S315080004A0002012B070BD00BFE320BBDE0090004004
S315080004B001000543010006434FF4806230B5044647
S315080004C0154B93B09A660021202201A802F08AF8FB
S315080004D0124B21466846009302F005F9684602F079
S315080004E00BF902F0C9F8054698B940F2022000F067
S315080004F019F9202229460AA802F074F8084B09A817
S315080005002146099302F0EFF809A802F0F5F802F07F
S31508000510B3F8002013B030BD00900040000002433D
S31508000520000003434FF4806210B50F4B8CB00446AD
S315080005309A660021202204A802F054F80B4B009476
S315080005400393012301930A4B694603A8029302F019
S31508000550F0F803A802F0D0F802F08EF8B0FA80F0AE
S3150800056040090CB010BD00BF0090004000000843D1
S3150800057004000020004870470080000838B50C4683
S31508000580054680B179B100230B60074B036001F083
S31508000590CEFF01301EBF2B6843F4C0432B6023688F
S315080005A043F40003236038BD0C02000837B54FF446
S315080005B08042424B02219A664FF48053404C236690
S315080005C0404BC3F8D010BFF34F8FBFF36F8F012393
S315080005D04FF440313C48C0F88031E16003603B4845
S315080005E001613B498A668DF806308DF807304FF071
S315080005F04023D3F894305A060FD500F0D1F8A0F26C
S31508000600022080B2072808D8C923C340DB0742BFA7
S3150800061000238DF806308DF807302E4B5B680133C2
S3150800062008D14FF4027000F07DF800238DF80630EB
S315080006308DF807309DF807305BB12648FFF782FE34
S315080006408DF806009DF806301BB94FF4027000F0CD
S3150800065069F89DF8063073B300F056F808B100F053
S315080006604BF84FF480424FF0FF31144B9A6603F172
S31508000670806319666FF07C4159660021114BC3F8F7
S31508000680D010BFF34F8FBFF36F8F01250E4CC4F800
S315080006908050BFF34F8FBFF36F8F4FF44030084938
S315080006A00861C4F88051C8600A4801F17C418A662D
S315080006B0986001F0CFFC03B030BD00BF0090004049
S315080006C000A0004400ED00E000E100E000800044E6
S315080006D000A00040006000084CF23C32014B5A80F2
S315080006E0704700BF000000204AF6C032014B5A800E
S315080006F0704700BF000000204FF20F02014B5A80DE
S31508000700704700BF000000204AF6C030044B5B88E3
S3150800071023F00F039BB21B1A58425841704700BF7B
S3150800072000000020044A08B51080FFF7EDFF10B955
S315080007304FF20F03538008BD0000002008B5FFF7ED
S31508000740E3FF18B1024B588800F00F0008BD00BF40
S315080007500000002008B5FFF7D7FF48B1054A5388BF
S3150800076003F00F010F2914BF013323F00F03538041
S3150800077008BD00BF0000002008B5FFF7D3FFBFF390
S315080007804F8F0549054BCA6802F4E0621343CB60F4
S31508000790BFF34F8F00BFFDE700ED00E00400FA0548
S315080007A04FF20F01084B5A888A4201D118887047C0
S315080007B03AB91B8840F20220012B18BF4FF400708B
S315080007C070474FF400707047000000204FF48032E5
S315080007D008B5044B9A6601F0A9F9B0FA80F0400909
S315080007E008BD00BF00900040072BF8B506460F4627
S315080007F014461D4601D90020F8BD0121202001F02C
S3150800080027F90121212001F023F98CB144EA0603D6
S315080008109B07F0D14FF48032064B31469A6628463C
S3150800082023463A4601F0E6F9B0FA80F04009E3E7D4
S315080008300120E1E700900040134610B562B103437A
S315080008409B070BD14FF48034054B9C6601F096F953
S31508000850B0FA80F0400910BD0120FCE70020FAE755
S315080008600090004030B5024600230C25054905FBDB
S3150800087003F460180C59944203D001330C2BF6D1BB
S31508000880002030BD24280008F0B50023082787B0CB
S31508000890CDE9013315463B46009704AA044601F004
S315080008A0B3FC41F203039842064623D194F8433039
S315080008B053B13A46E06C04A901F038FD04AA3B4658
S315080008C01146A06C01F021FD059A049B6A6094F814
S315080008D043202B6052B9094A934207D0084A9342EB
S315080008E004D00822E06C04A901F020FD6B6823659A
S315080008F000236365304607B0F0BD00BFF70A0AF764
S31508000900FC0404FC2DE9F04799465B6804460F464B
S315080009109046002B3FD08B0740D14FF000639B6A6F
S31508000920006E1B6981181D1DA9421BD31C339842F2
S3150800093018D2A842024638BF2A46994294BFC2EB4B
S31508000940010AC2EB030A101A3E18C5F168001044E2
S3150800095031465246204401F04DFE5246FF213046AC
S3150800096001F040FE226E0F4B9A420BD80E4902EB5D
S315080009700800884206D39B1AFA58C4F880204FF01C
S31508000980FF32FA50D9E9003542463946206EA84763
S31508000990236E434423660020BDE8F08741F2020037
S315080009A0FAE700BF04800008088000082DE9F04136
S315080009B000254FF0FF3704468846164603F0200305
S315080009C080F842301822FF21C0E91855A0F8405097
S315080009D080F84350A0F8445080F84650C0F8887014
S315080009E0683001F0FFFD88222946C4E91286C4F85A
S315080009F08070C4F8847004F1900001F0F3FD074B91
S31508000A00C4F82071C4E9463584F8245116B1304635
S31508000A1000F0EAFB0020BDE8F08100BF00010101FB
S31508000A202DE9F04F9BB09946CDE9072300230446EC
S31508000A300E464FF00108249D09930999B8E094F8E9
S31508000A4046300C2B00F2B080062B7BD908FA03F24D
S31508000A5012F4286F40F0DF8112F4885F40F09E811F
S31508000A600A2B40F0A580DFF810B4636D072B00F25F
S31508000A704E814FF0080A38232046CDE90188CDF883
S31508000A8000A00CAA07A901F0BFFB41F20303984294
S31508000A9040F0A780337843F0040333700D9BB362AC
S31508000AA073785F071CD50020236DCDF828B0C4F8ED
S31508000AB0843094F84530606643F0020384F8453084
S31508000AC0EF686FB104222B680AA9B847606E2B68D5
S31508000AD05246EF680CA95044B847636E10336366F4
S31508000AE00B2384F84630C0E7A3F10E02052A00F26C
S31508000AF03F82DFE812F0AD020600F500EE01EE01D6
S31508000B00AB020027636D0F2B00F29A801023204654
S31508000B100093CDE9018740230AAA07A901F074FBCF
S31508000B2041F2030398425CD1D4F848A000F0A8FB30
S31508000B3080230221CDE900030BAA0123504600F0C9
S31508000B40A7FADFE7013B052B37D8DFE813F07B0070
S31508000B50750006006401D3002F010127636D072B7A
S31508000B6000F2D580082320460093CDE9017740237B
S31508000B700AAA07A901F048FB41F20303984230D1BB
S31508000B80337843F0020333700A9B7360236D083B86
S31508000B9073620B9BB3F1006F00F0E080132384F8B7
S31508000BA0463041F201001CE0A3F10D02062A9BD94A
S31508000BB04945FFF444AF002064E020460AAA07A985
S31508000BC0FFF762FE41F2030398420AD10B9B0A9A89
S31508000BD0236500236365A64B9A42DFD1022384F876
S31508000BE0463041F203030590059A9A423FF425AF31
S31508000BF047E0082320460093CDE9018740230AAA47
S31508000C0007A901F001FB41F203039842E9D10A9BC7
S31508000C1003F07F43B3F1407F05D0132341F2090067
S31508000C2084F84630DDE70B9BD80706D594F84230A2
S31508000C3043F0010384F842300027636D072BD8D9A7
S31508000C400123B0E020460AAA07A9FFF71DFE41F2D4
S31508000C5003039842074609D10A98FFF703FE02469E
S31508000C6098B9132341F2080784F8463041F2030382
S31508000C700597059A9A423FF4E0AE059B0BB100230F
S31508000C80F37005981BB0BDE8F08F437994F82411EA
S31508000C90994205D9132341F20E0784F84630E5E751
S31508000CA001687448814205D01189C90748BF0133D4
S31508000CB084F8243194F84230D8070DD5118994F870
S31508000CC04330890706D53BB1132341F2010784F85F
S31508000CD04630CBE7002BF7D0137984F84630C5E7C2
S31508000CE0226D0123A265002284F84330E26584F868
S31508000CF04630A2E600213C220BA80A91012701F002
S31508000D0071FCD4E91432934204D884F8467041F24F
S31508000D10030066E7009320464023CDE901770AAA37
S31508000D2007A901F071FA41F2030398427FF459AF1B
S31508000D300DF1280C06F108030DF1400E624603CAB0
S31508000D40724518605960944603F10803F6D1106895
S31508000D501860337843F001033370D2E7042384F82C
S31508000D60463094F8453043F0010384F845300023B3
S31508000D706366F3E6042320460093CDE90177402312
S31508000D800AAA07A901F040FA41F2030398427FF440
S31508000D9028AF226D0A9B042A01D923660127636DB1
S31508000DA0032BE7D9092384F84630B0E700236366A6
S31508000DB007239CE79F423ED89F4228BF1F464023F1
S31508000DC02046CDE9018800970AAA07A901F01CFA6E
S31508000DD041F2030398427FF404AF94F846B0BBF19E
S31508000DE0070F37D0042FC7F1040A88BF4FF0000A4F
S31508000DF00AAB5246FF21D81901F0F4FBBBF1090FE3
S31508000E00BA443BD12B46524620460AA9FFF77AFD3B
S31508000E1000287FF4E6AED4E914739F427FF610AF3C
S31508000E20FF1ADDE908329B1A94F84020032F134471
S31508000E30C0D9032B05D8204607A901F0C4F900201C
S31508000E40CFE6402F28BF40279F4228BF1F4627F0DE
S31508000E500307B4E7D5F808A0BAF1000FC2D02B688B
S31508000E603A46606E0AA9D047636E3B446366D2E78A
S31508000E70EB17A603F90707F9EB17A65EBBF1040FF4
S31508000E801DD173789807C6D5EB68002BC3D0626E60
S31508000E90042A0BD80AEB0203062B07D90BAB9B1ABD
S31508000EA01A68C4F884204FF0FF321A60EF682B687E
S31508000EB05246606E0AA9B847636E5344D6E7BBF13B
S31508000EC00B0FA8D173785907A5D5EF68002FEED177
S31508000ED0A1E74FF000618A6A496B1269503A91425C
S31508000EE03FF65FAE112B0AD194F81831002B7FF428
S31508000EF0A7AE132341F2060084F8463071E694F84B
S31508000F004430002B7FF49CAECDE9013340232046C4
S31508000F1000930AAA07A901F077F941F20303984258
S31508000F207FF45FAEE06C01F003FA94F818316BB108
S31508000F3004F1B4030093E06C04F1940312AA0AA91D
S31508000F4000F0D2F878B10023F370D2E7D4F84CA0B9
S31508000F5000F05AF9074600F075F93B46009012AAC8
S31508000F6050460AA9ECE70123F37084F8443067E693
S31508000F7000234FF00408CDE9013320464023CDF87D
S31508000F8000800AAA07A901F03FF941F20303984233
S31508000F9009D1D4F88820304B9A4206D0132341F25F
S31508000FA0050084F8463005906BE60123F37094F843
S31508000FB04530DA0707D5EF682FB1424640462B6819
S31508000FC004F18401B84794F845309B0707D5EF68C4
S31508000FD02FB104222B68104604F18401B847236E0A
S31508000FE06BB36F685FB34FF0FF3304F180080422D8
S31508000FF0414606A8069301F0E5FA20B104224146C7
S315080010002B681648B84704F168090422494606A819
S3150800101001F0D8FA98B14FF000639B6A1422D3F80E
S31508001020108004F16C0108F10800D5E90037B847CB
S31508001030D5E900370422494608EB0200B8470123E0
S31508001040B3700E23002084F84630ACE70023F37013
S3150800105041F2070016E600BFE320BBDE0480000865
S3150800106030B50824094B00255C66012403F5FE23E8
S315080010705C6001449D601A61DC60884201D1586A4F
S3150800108030BD10F8012B1A62F7E700BF0090004048
S315080010902DE9F04116464FF480621D46114B00F1CA
S315080010A0200804469A6640460F4601F06CFADDE9C8
S315080010B00612404601F06BFA002384F85870636400
S315080010C03368C4F859307368C4F85D30B368C4F837
S315080010D061302B0C6DBA84F86530A4F86650BDE80B
S315080010E0F08100BF009000402DE9F04315464FF40B
S315080010F080621C46364B9BB0DDF888900E46074644
S315080011009A66002861D000295FD0002D5DD0002C9A
S3150800111058D0304B304AB9F1000F14BF9846904664
S315080011202022002112A801F05DFA2C4B414611A895
S31508001130119301F0D8FA202111A801F0D4FA01225E
S31508001140274B029403920493CDF8149006920793C2
S3150800115054B1B9F1000F07D002A911A801F009FA94
S3150800116005A911A801F005FA089701271C4C08A93A
S3150800117011A809970A9401F0FCF90BA911A80B9676
S315080011800C970D940E950F97109401F0F2F90EA98D
S3150800119011A801F0EEF911A801F0AEFA114B01936E
S315080011A04FF098435A6CD202FCD55B6D40F204604E
S315080011B003F470230193019B002B08BF00201BB08A
S315080011C0BDE8F083DFF81080AAE740F20160F6E791
S315080011D0009000401F2400801F24FC8400000106A4
S315080011E020000020785634124FF4806210B5044669
S315080011F0044B9A6601F09FF82046BDE8104000218E
S3150800120001F09DB8009000404FF4806200B50B4B8A
S315080012109BB09A6600212822684601F0E3F940232C
S31508001220002168460AAA00F057FD20F010000128A0
S31508001230034818BF00201BB05DF804FB009000406F
S315080012404CE30F084FF4806200B50B4B9BB09A66CF
S3150800125000212822684601F0C5F940230021684686
S315080012600AAA00F039FD20F010000128034818BF2B
S3150800127000201BB05DF804FB009000406CE30F08EB
S315080012800048704786E20F082DE9F3471446DDE962
S315080012900A920D461F4600284DD14CB313683F2BC2
S315080012A02AD8516851B32549002F14BFB846884635
S315080012B003F03F061B19136022BF536801335360BE
S315080012C0FEB93F2C0ED9A3092A46009341463B4650
S315080012D0002000F083F824F03F031D4404F03F0487
S315080012E034B100262246294609EB060001F082F9A8
S315080012F0002002B0BDE8F087B846D9E7DFF83C80A1
S31508001300D6E7C6F1400A5445ECD32946524609EBBE
S31508001310060001F06FF90123264400934A463B462E
S3150800132041460020A6F1400400F058F83F2C5544E9
S31508001330D6D9B846C7E70248DBE700BFF428000855
S3150800134080AFFFFF2DE9F0411746146886B01E46A8
S31508001350E3008DF80F3063098DF80E30630B8DF8B6
S315080013600D30630D8DF80C3053680546DA0002EB34
S3150800137054728DF80B2004F03F045A09372C8DF867
S315080013800A204FEA53324FEA53538DF8092088460C
S3150800139094BFC4F13802C4F17802CDE900178DF87C
S315080013A008300D4903460020FFF76EFF08222B463A
S315080013B00020CDE900870DEB0201FFF765FF2846FF
S315080013C005F1200350F8042B984246F8042BF9D16E
S315080013D0002006B0BDE8F081B4280008F0B517462D
S315080013E04FF480621D46264B93B09A6624220E4619
S315080013F0044600210DEB020001F0F4F801204FF03D
S315080014000052009701900292039604900592069561
S3150800141007900892002C2FD1189C1A4BA40121463C
S3150800142009A8099301F05FF9029B03A91C430294DA
S31508001430059B09A843F020030593089B43F0200366
S31508001440089301F096F8694609A801F092F806A9EA
S3150800145009A801F06EF909A801F04EF94FF0984372
S315080014605A6CD202FCD55B6D13F4702F14BF6FF063
S315080014706F00002013B0F0BD6FF07100FAE700BFEF
S3150800148000900040000401032DE9F041A2B050226B
S3150800149004460D460EA8002101F0A4F834220021C6
S315080014A001A801F09FF801A800F02AFA049B012B75
S315080014B011D8002320466A1E9D424FEA82024FF049
S315080014C0FF0108BF1A4640F8043B01F08BF80020DC
S315080014D022B0BDE8F081AB425DD300F01FF9059B51
S315080014E00C220EA90646DF6800F0ECFF0028EFD1B3
S315080014F0DFF8AC800E9B434515D1109A0EA93046ED
S3150800150000F0E0FF4FF0FF3210990EA8FFF7A8FD94
S31508001510224B98422ED0FF212046AA0001F062F8FD
S3150800152040F20650D4E737440C2238460EA900F09C
S31508001530C9FF0028CCD10E9B434507D0FF21204682
S31508001540AA0001F04FF840F20550C1E70EA9384647
S31508001550109A00F0B7FF059B3046D96800F0E9FFFE
S315080015600028B5D13046109A0EA900F0BBFF002816
S31508001570C3D0ADE7109E11A9103EB608AE4228BFEB
S315080015802E46B7003A46204601F034F8AA1BFF213A
S315080015909200E01999E740F2045099E7E320BBDE90
S315080015A039528FE144222DE9F043A3B00C46814617
S315080015B000210DEB020001F015F8012350262E4AF2
S315080015C00021CDE90E2301A83422109601F00AF86D
S315080015D001A800F095F9049BA34249D3012B0AD828
S315080015E0D9F8003040F204500133022B38BF0020EE
S315080015F023B0BDE8F08300F091F8102C28BF102422
S31508001600059B4FEA8408DF68424649460744054673
S3150800161011A800F0EFFFC4F110040EAB08F10C009E
S315080016201844FF21A20000F0DDFF4C214FF0FF32E5
S315080016300EA8FFF715FDC043059B2190D9683846CB
S3150800164000F077FF0028D3D1324638460EA900F0BD
S3150800165049FF0028CCD1059B2846D96800F069FFC8
S315080016600028C5D1324628460EA900F03BFFBFE741
S3150800167040F20450BCE700BF39528FE110B5ADF512
S315080016800E7D4FF40D72002001A900F0DBFE40F23A
S315080016900124002101A800F0ACFEA042F9D040F2D6
S315080016A00323984204D040F205400DF50E7D10BD87
S315080016B09DF8043059070ED49DF804309A071AD4B9
S315080016C0DB07F0D5002204998A9800F07DF90028F6
S315080016D0E9D00020E9E70B9800F0A8FC0028EBD039
S315080016E08A9800F02FF90028E6D00B48FEF7E4FEAA
S315080016F00028E1D1D7E74FF00062926A0299926812
S315080017009142DDD98A9800F03BF90028CBD00A9996
S315080017100148FEF787FEC6E70080000800487047C4
S315080017200040040831B10A4B5A68824205D80023A2
S31508001730C1E9003340F201407047013053F83020C8
S3150800174003EBC0035B6800200A604B60704700BF6C
S315080017507829000870B40C4611461A460D4B5D6888
S31508001760854210D9013003EBC0056D68A618AE4254
S315080017700DD8A5420BD3954209D353F8300020441F
S3150800178070BC00F09FBE40F2014070BC704740F24A
S315080017900240FAE77829000830B5CA681B4B0446A8
S315080017A09A420D46A3B019D1FEF7E4FED4F82432C6
S315080017B0174A013352F83330D4F82C22134498428E
S315080017C008D38033984209D241F20D03C4F8303267
S315080017D023B030BD00F5C0309842F5D88023D4F840
S315080017E02C1202AAD4F82402FFF7B4FF802321465C
S315080017F0009502AA04F12C00FFF712F9D4F82C324E
S31508001800C4F830028033C4F82C32E1E7B10200088C
S315080018107829000870B50D46002186B00DF107033A
S3150800182002931C4B04461646116028461C22CDE935
S3150800183003338DF80710059300F0D4FE9DF80720B2
S3150800184032B9D4F830321BB9D4E98A31994219D35E
S315080018502378990744BF61683160DB0709D504F12D
S31508001860080304F1240153F8040B8B4245F8040BD2
S31508001870F9D162B9237840F20640002B18BF002040
S3150800188006B070BD204602A9FFF786FFD6E70020FE
S31508001890F6E700BFED23000870B40C4611461A4659
S315080018A00D4B5D68854210D9013003EBC0056D68A4
S315080018B0A618AE420DD8A5420BD3954209D353F8C4
S315080018C03000204470BC00F00DBE40F2014070BCF0
S315080018D0704740F20240FAE778290008074B5A6831
S315080018E0824207D9013003EBC002516853F8300031
S315080018F000F01FBE40F20140704700BF782900087B
S3150800190070B5054688B0C0B14FF4403200236C4626
S31508001910C0E900230A4B05F114061A785B680272BF
S31508001920C360684600F06EF80FCC0FC694E80F0047
S3150800193086E80F0005F114032B6108B070BD00BFDF
S315080019407829000800B5ADF5137D4FF40D7205A989
S3150800195000F078FD78B904238DF81530074BCDE9EA
S315080019600100039001A905A8049300F07FFD0DF579
S31508001970137D5DF804FB0020F9E700BFB1020008FB
S315080019804FF0006300B59B6AADF5137D9B688B42EB
S3150800199004D300200DF5137D5DF804FB4FF40D729A
S315080019A005A900F04FFD0028F3D102238DF8153064
S315080019B0044BCDE90100039001A905A8049300F0A2
S315080019C055FDE7E7B102000810B5ADF5127D05AC87
S315080019D04FF40D72214600F035FD70B901238DF8DC
S315080019E01530074B0490CDE9023001A92046019431
S315080019F000F03CFD0DF5127D10BD0020FAE700BF92
S31508001A00D71F000870B504460646044D0FCD0FC40F
S31508001A1095E80F0084E80F00304670BD5829000885
S31508001A204FF48032014B00209A66704700900040C0
S31508001A30024BD86900F00100704700BF0000034060
S31508001A404FF48032014B00209A66704700A0004090
S31508001A50430905D0012B0CD0022B084B18BF0023D5
S31508001A6000F01F0039B103F58053012282401A6045
S31508001A707047034BF4E703F50053F6E76880004028
S31508001A8064800040F0B5114A114C124E00F0010571
S31508001A90E3695F0713D40DB9334213D103EA00078C
S31508001AA08F4207D10B4A1A40002A0CBF00206FF05C
S31508001AB00100F0BD013AEBD16FF00200F9E74FF0F3
S31508001AC0FF30F6E76FF00100F3E700BF8096980055
S31508001AD0000003400200010070B5134C6061E36921
S31508001AE05B071ED40E4656F8043B8D18A361AE421A
S31508001AF00BD10423002121202361FFF7C3FF58B926
S31508001B00BDE870402120FFF7BDBF08210846FFF752
S31508001B10B9FF10B10423236170BD56F8043BA361D5
S31508001B20E5E74FF0FF30F7E7000003404FF4803257
S31508001B3038B50E4B0E4C9A66E56941F67133154079
S31508001B400122E3630B4B0021DA6002236061212046
S31508001B502361FFF797FF10B92120FFF793FF0122B2
S31508001B60054BDA600DB10023E36338BD00900040F1
S31508001B700000034000100340002003402DE9F8430D
S31508001B8015464FF48032184B89469A6603F51C337E
S31508001B90DF690646174041F67132DA63012203F51A
S31508001BA08053DFF84C80DA6055B9284601220F4B7E
S31508001BB0DA601FB10022A3F50053DA63BDE8F883A3
S31508001BC006F5005404EA0804A41BAC4228BF2C46B8
S31508001BD0494622463046FFF77FFF0028E6D12644CD
S31508001BE0A1442D1BE0E700BF009000400020034001
S31508001BF000E0FFFF2DE9F04F01264FF43025840061
S31508001C00DFF8C4C004F1402404F58024CCF804604D
S31508001C106560302500244FF48037DFF8B0E0DFF840
S31508001C20B09005FB00E5EC652C662C67214CDFF8C7
S31508001C30A4A0A76641F671341F4F06FA00F0D7F83C
S31508001C401C80FC631D4CE66043B901211C4A18F44C
S31508001C50803FD16029D10020BDE8F08F01F50054FE
S31508001C6004EA0904641A9C4228BF1C467961D7F81D
S31508001C701CB0A6081BF0040F19D1013E360146F028
S31508001C8060566E66AA66C5F86CA0CCF82400DEF825
S31508001C9034603042FBD00B4E214470630426CCF8E6
S31508001CA0280022443E611B1BCEE7FB63D3E74FF0B7
S31508001CB0FF30D1E7009000400000034000100340C9
S31508001CC000200340002004400010044000000440A7
S31508001CD000E0FFFF180003401FB5044660B35AB37F
S31508001CE0402B29D1930727D1042925D8DFE801F00D
S31508001CF0031A24221E004FF4807310490B432360F5
S31508001D000023C4E9013323620123019202930C4B99
S31508001D10204601A9039300F00CFD204600F08AFC3A
S31508001D2004B010BD4FF400730449E7E705494FF4C2
S31508001D308063E3E70149FAE72120F1E7010008FF9C
S31508001D4040000020000008FF2DE9F0410129054662
S31508001D500E4690461F4692B04AD8046824F04003BF
S31508001D60802B02D0B4F5807F45D1202200210AA815
S31508001D7000F038FC234A244B0121012E08BF1346E4
S31508001D8009932B1D0093E408204B44F0005401915D
S31508001D9009A80294CDF80C8004910593069707913B
S31508001DA06946089300F0E5FB03A909A800F0E1FBE2
S31508001DB006A909A800F0BDFC296809A8C90800F009
S31508001DC092FC102109A800F08EFC00F021FCA8B9AD
S31508001DD009A800F091FC4FF098435A6CD202FCD542
S31508001DE05C6D00F01FFC04F4702012B0BDE8F081B1
S31508001DF06FF02000F9E76FF07100F6E74FF0FF305B
S31508001E00F3E700BF000100040001010410000020F0
S31508001E102DE9F04F074689469846164699B082B18D
S31508001E2015683B6823F04002802A03D0B3F5807F0B
S31508001E3040F0A68000244C4505D306B13560002045
S31508001E407BE01546EDE75DB1239B229A1B5D525D4B
S31508001E5001355340249A05F00F0513550134EAE776
S31508001E60A9EB040ABAF10F0F0BD8239B03EB040A5C
S31508001E70249B1C44239B03EB090BDA4560D14C4693
S31508001E80D9E72022294610A800F0ACFB3E4B3A6859
S31508001E900F933B1D00930123D20842F00052019391
S31508001EA002923A4ACDF80C8004930592CDF8188030
S31508001EB007930892239A249922442AF00F0A099232
S31508001EC021444AF000520A930FA80B920C916946D6
S31508001ED00D930E9200F04DFB03A90FA800F049FBE5
S31508001EE009A90FA800F045FB0CA90FA800F021FCD2
S31508001EF006A90FA800F01DFC39680FA8C90800F04C
S31508001F00F2FB51460FA800F0EEFB00F081FB90B9FA
S31508001F100FA800F0F1FB4FF098435A6CD202FCD59B
S31508001F20586D544400F4702B00F07CFBBBF1000F95
S31508001F309BD0584601E04FF0FF3019B0BDE8F08F4E
S31508001F4055B1229A1AF8013B525D0135534004F8FF
S31508001F50013B05F00F0590E7424601213846229BD2
S31508001F60FFF7F2FE0028E8D108F1100212F8013D49
S31508001F700133DBB21370002BE3D19045F6D1E0E7CD
S31508001F806FF01F00D9E700BF03030004100000200C
S31508001F90FEE7C0F30C032DE9F04105460F46164649
S31508001FA00BB9FEF713FC05F5005424F4FF5424F08E
S31508001FB01F0405EB0608A04507D8324639462846C9
S31508001FC0BDE8F0410223FEF70FBC2046FEF7FEFBF4
S31508001FD004F50054EFE770B44FF00065AD6A0346A8
S31508001FE02E69864206D86C6913449C4202D370BC9B
S31508001FF0FFF7CFBF70BC7047036913F0FE0F0CBF25
S3150800200001200020704738B504460D46FEF774F9DE
S3150800201038B16369012B07D12046FFF7EDFF10B1F0
S31508002020A46901202C6038BD0020FCE74FF0FF337F
S3150800203013B5044601A80193FEF774FA20B1019B73
S31508002040A3422CBF0020012002B010BDFFF7E8BC58
S31508002050FFF7F6BC03461846016881F3088881F342
S31508002060098840688746FEE74FF40170FEF784BB8F
S315080020704FF04023D3F8842010B5110606D44FF448
S3150800208000621A67D3F88420D206FBD4FFF7DEFF76
S31508002090FEF73AFB08B9FEF71FFB00F0A5F9044660
S315080020A058B9FEF731FB08B1FEF726FB40F20120CE
S315080020B0FEF762FB4FF4017013E0FEF725FB08B943
S315080020C0FEF712FBFEF73AFB012802D9FEF704FBDE
S315080020D0FEE7FEF73FFB40F205439C42EAD140F299
S315080020E00320FEF749FB002010BDB1F50D7F10B5A2
S315080020F004460FD34FF40D72002100F073FA04F56D
S31508002100DE7204F5AA7104F12C000023BDE8104024
S31508002110FEF74CBC40F2052010BD13B504460091ED
S3150800212001462C30FEF77CFCC4F8300218B141F2A7
S315080021300703984204D1A37823B1E07800F202207D
S3150800214002B010BD40F20120FAE72DE9F04387B04E
S315080021500DF1080904460E46174600211022484686
S315080021601D46DDF8388000F03DFA00211C22C8F82B
S315080021700010284600F036FA32463B462146CDF88E
S31508002180009004F12C00FEF74BFC23789A0744BF15
S315080021906268C8F80020DB0709D504F1080304F1D2
S315080021A0240253F8041B934245F8041BF9D12378FB
S315080021B040F20640002B18BF002007B0BDE8F083A8
S315080021C04FF40D70704770B5D1E90152AA4205D295
S315080021D090F840302B449B1A402B10D9002012E06F
S315080021E00A6890F84040D65C90F8412001332244B2
S315080021F002F03F02013486548B6080F840408B68B9
S315080022009D42EDD8012070BD2DE9F84390F840C0F5
S3150800221017469E46D1E90123089DD21A6244954283
S3150800222004460E469DF824909DF828800AD9FFF7A3
S31508002230CAFF002867D1132341F2020084F846300A
S31508002240BDE8F883754555D8002394F840200AB1AF
S315080022509D4235D1D6E90121914201D29D4241D80C
S315080022609D424DD129463846D4F88820FEF7F8FE17
S31508002270C4F88800B9F1000F04D02A463946E06C44
S3150800228000F054F894F84330B8F1000F06D08BB13B
S315080022902B463A463946A06C00F037F894F8433096
S315080022A043B1E36DA26D2B449342E36524BF00233B
S315080022B084F84330636D41F203002B446365BFE73E
S315080022C094F84120A25CFA5494F841200133013273
S315080022D002F03F0284F8412094F84020013A84F83D
S315080022E04020B2E73268525CFA54B26801330132D0
S315080022F0B260AFE741F20100132384F846309FE746
S3150800230041F20200F8E700209AE71FB50C46194685
S3150800231000F14803CDE90142009300F1440200F1BF
S3150800232058032030FFF774FD04B010BD00F00CB858
S31508002330014600F016B86822002100F053B903469A
S315080023400020C3E90000704707B500F12803019093
S31508002350009300F108030020FEF796FF03B05DF82E
S3150800236004FB02460B4600F128010830FEF7EABFD7
S315080023703C2230B59FB0002105460DEB020000F067
S3150800238031F94FF0FF333422002101A80E9300F0F3
S3150800239029F901A8FFF7B4FA049C012C1ED9214695
S315080023A00EA8FFF771F818B140F2055398420ED1FE
S315080023B000230EAA52F8041B481C0AD11EAA02EBD7
S315080023C0830321460EA843F8405CFFF7EBF81FB0DD
S315080023D030BDA94205D001339C42EBD140F20250F0
S315080023E0F5E740F20350F2E7FFF748B901221A7001
S315080023F070471FB50023CDE90033CDE90213D0F8A5
S315080024003032044693B9D0E98A329A420ED26946E6
S31508002410FFF7C2F9D4F8300270B141F2070240F270
S315080024200123904208BF184604B010BDA37833B103
S31508002430E07800F20220F7E740F20120F4E740F2E4
S315080024400220F1E737B50C46054611462046FFF748
S315080024504CFE48B969462846FFF764F920B9019B3E
S31508002460C4F82452C4F8283203B030BD38B500F594
S31508002470DE7204460D46202300F5AA712C30FEF7BD
S3150800248095FAD4F830321BB9D4E98A329A4203D382
S31508002490A07800B1E07838BD29462046FFF77CF9D8
S315080024A0EFE7B1F5801F0BD800F17843B3F5801F2D
S315080024B006D80844B0F1016F8CBF00200120704790
S315080024C00020704738B50C4611460546FFF7E9FF68
S315080024D028B12946204600F08DF8002038BD40F284
S315080024E00240FBE738B50D4611460446FFF7D9FF0B
S315080024F080B940F2024038BDE158013114D10433A5
S315080025009A42F9D8AB0707D1022329462046FEF797
S315080025106BF905E00023F3E729462046FEF78CF918
S315080025200028E6D00020E6E740F20340E3E7022071
S31508002530704738B541EA0003C3F30C0304460D4659
S31508002540A3B9FFF7AEFF10B940F2024038BD2544E3
S31508002550204604F50054FEF739F9A54202D00028B2
S31508002560F6D1F1E70028EFD00020EFE740F204406B
S31508002570ECE7436813B9416070475B685A68012AFB
S31508002580FBD1596070472422002100F02BB870B5A2
S3150800259015460E4624220021044600F023F825F0AD
S315080025A04003802B02D0B5F5807F08D120463146FE
S315080025B040F8045BEA0800F01DF8002070BD6FF0D3
S315080025C01F00FBE70139024410B5904201D10020F3
S315080025D005E0037811F8014FA34201D0181B10BD7E
S315080025E00130F2E702440346934200D1704703F8EC
S315080025F0011BF9E70A44431E914200D1704710B502
S3150800260011F8014B914203F8014FF9D110BD0000B2
S315080026104FF48062024B9A66BFF34F8F00207047D3
S31508002620009000404FF48062014B00209A66704784
S3150800263000A0004008B5C0B14FF480620C4B9A6602
S31508002640BFF34F8F00F058F84FF098435A6CD202F8
S31508002650FCD54FF48062586D064B10F470209A66CC
S3150800266004D0BDE8084000F010B8212008BD00BF1E
S315080026700090004000A000404FF098435A6CD202E8
S31508002680FCD5586D00F470207047B0F5802F22D025
S3150800269010D8B0F5003F20D007D818B3B0F5803F62
S315080026A008BF482018BF01207047B0F5403F08BF53
S315080026B02C20F7E7B0F5302F11D007D8B0F5E02F6A
S315080026C00FD0B0F5202F08BF1020EBE7B0F57F0F2D
S315080026D008BF0620E6E74B2070472A2070471120DE
S315080026E0704721207047036A042B9FBF00EB8302C3
S315080026F00133D16003627047036A052B14D84FF083
S315080027009842116CC902FCD504339B001365016815
S31508002710103B11604168116050F8081F11604FF0B6
S3150800272098420344984200D1704750F8041F11603C
S31508002730F8E7836813B9816070475B685A68012AAD
S31508002740FBD159607047000000000000000000003F
S31508002750000000000000000000000000000000006B
S31508002760F8B500BFF8BC08BC9E467047F8B500BF70
S31508002770F8BC08BC9E467047B814B6F1E0CFF3AD76
S31508002780B7DD25C9FA79B7130000000013B779FA3F
S31508002790C925DDB7ADF3CFE0F1B614B801020000E4
S315080027A0000000009C290000400000000000010312
S315080027B0000000000000000000000000000000000B
S315080027C000000000000000000000000000000000FB
S315080027D000000000000000000000000007B0CD5E09
S315080027E00200000000000103A029000000600008A4
S315080027F000001008F00401004D20000851200008D0
S3150800280045030008EB2000081B21000814290008CE
S315080028104B210008C1210008000000007D050008C2
S3150800282075050008EB17A603020100000300000067
S31508002830FA0606FA0F04000003000000F40A0AF478
S315080028400505000001000000EB17A65E0A06000059
S3150800285001000000F50909F5030700000100000062
S31508002860F60808F60608000000000000FE0101FE52
S315080028700808000000000000FD0303FD0C08000026
S3150800288000000000F90707F910090000020000001F
S31508002890F30B0BF3110A000003000000F70A0AF70E
S315080028A0120B000003000000FC0404FC0D0C0000E1
S315080028B00300000080000000000000000000000087
S315080028C000000000000000000000000000000000FA
S315080028D000000000000000000000000000000000EA
S315080028E000000000000000000000000000000000DA
S315080028F0000000006A09E667BB67AE853C6EF372A6
S31508002900A54FF53A510E527F9B05688C1F83D9ABAC
S315080029105BE0CD1900010000011900082517000821
S315080029205517000899180008DD180008A5150008AD
S31508002930891400087123000845240008F3230008B9
S3150800294015180008311A0008C5240008E5240008EF
S31508002950332500082F250008100203002800000070
S315080029602800000000200000000010000000000001
S315080029700400000000000040010000000100000003
S30D080029800040040800000400F1
S31108002988942900082C1000200200000012
S30D0800299425020008FD010008F8
S7050800018170
