S01D00006D61696E5F706572696F646963616C5F75706C696E6B2E733337C5
S31508006000080400208D830108115C0208115C02084F
S31508006010115C0208115C0208115C0208115C020896
S31508006020115C0208115C0208115C0208F9AC02084E
S31508006030115C0208643203089DAC02086FB00208BE
S31508006040115C0208115C0208115C0208115C020866
S31508006050115C0208115C0208115C0208115C020856
S31508006060115C0208115C0208115C020891650008BF
S31508006070E11A0208115C0208115C0208115C0208A8
S31508006080115C0208115C020805060208115C020888
S31508006090115C0208115C020875940108115C02087B
S315080060A0115C0208115C02088190010861900108E0
S315080060B0115C0208115C0208115C0208115C0208F6
S315080060C0115C0208115C0208115C0208115C0208E6
S315080060D0115C0208115C0208115C0208115C0208D6
S315080060E0115C0208115C0208115C0208115C0208C6
S315080060F0115C0208B96B0208115C0208115C0208FF
S31508006100115C0208115C0208115C0208115C0208A5
S31508006110115C0208115C0208115C0208115C020895
S31508006120115C0208115C0208115C0208115C020885
S31508006130115C0208115C0208115C0208115C020875
S31508006140115C0208115C0208115C020881DE010874
S31508006150115C0208115C0208115C0208115C020855
S31508006160115C0208115C0208115C0208115C020845
S31108006170115C0208115C0208115C0208B0
S3150800617CF0B5114A114C124E00F00105E3695F07A0
S3150800618C13D40DB9334213D103EA00078F4207D152
S3150800619C0B4A1A40002A0CBF00206FF00100F0BD14
S315080061AC013AEBD16FF00200F9E74FF0FF30F6E752
S315080061BC6FF00100F3E700BF8096980000000350CB
S315080061CC020001000B4B70B5D96911F480310DD161
S315080061DC01244FF48072084E084DF46020462C6456
S315080061EC1A61FFF7C5FF3464EC6070BD6FF00100EF
S315080061FCFBE700BF000003500010035000200350BB
S3150800620CC0F30C0370B5054623B140F21A211148A8
S3150800621C00F0A2F84FF480320F4B104C9A66E669E0
S3150800622C41F6713316400122E3630D4B0021DA6007
S3150800623C0223656121202361FFF79AFF10B92120FB
S3150800624CFFF796FF0122074BDA600EB10023E363D2
S3150800625C70BD00BFCA3603080090005000000350FA
S3150800626C001003500020035070B5134C6061E369AD
S3150800627C5B071ED40E4656F8043B8D18A361AE4236
S3150800628C0BD10423002121202361FFF771FF58B994
S3150800629CBDE870402120FFF76BBF08210846FFF7C1
S315080062AC67FF10B10423236170BD56F8043BA36144
S315080062BCE5E74FF0FF30F7E7000003502DE9F84308
S315080062CC154682070F46064604D040F266211E483C
S315080062DC00F042F8AB0704D04FF41A711A4800F0D4
S315080062EC3BF84FF48032194BDFF868909A6603F541
S315080062FC1C33DA6902F4803841F67132DA6301220A
S3150800630C03F58053DA6065B928460122104BDA602A
S3150800631CB8F1000F03D00022A3F50053DA63BDE8E9
S3150800632CF88306F5005404EA0904A41BAC4228BFFA
S3150800633C2C46394622463046FFF796FF0028E4D10C
S3150800634C264427442D1BDEE7CA3603080090005066
S3150800635C0020035000E0FFFF5FF800F0BD5D020867
S31508006370013800D0FCE770470348044B834202D03B
S31508006380034B03B118477047F8800020F8800020B7
S3150800639000000000064B0749C91A891048BF013199
S315080063A0491003D0044B0BB101481847704700BF8A
S315080063B0F8800020F88000200000000010B5064C88
S315080063C0237843B9FFF7D8FF044B13B10448AFF35A
S315080063D000800123237010BD5A57002000000000DA
S315080063E0E445030808B5054B1BB105490548AFF355
S315080063F00080BDE80840FFF7CDBF00BF00000000E1
S3150800640070040020E4450308A3F5803A704700BFEE
S31508006410174B002B08BF134B9D46FFF7F5FF0021CE
S315080064208B460F461348144A121A20F093FF0E4B58
S31508006430002B00D098470D4B002B00D09847002022
S31508006440002104000D000D48002802D00C48AFF3C7
S3150800645000801AF003FF2000290020F0CEFD1AF074
S315080064600BFD00BF0000080000000000000000004F
S315080064700804002008040020CC7A00200000000050
S3150800648000000000064B1B681A7A022A04D812B1CB
S315080064901B68044A13607047032AF9D0704700BF87
S315080064A0B07D00208804002070B51F4DA2B00BAC4B
S315080064B00FCD0FC495E80F0084E80F0000244FF4B1
S315080064C08013CDE902440494019313AD01AE0FCEB7
S315080064D00FC5164BCDE9074409942B60144B18AD2C
S315080064E0069306AE0FCE0FC52022124B12482B601C
S315080064F0124B13A91D93124B2094CDE91E23114B61
S315080065000BAA2193104B18F08FFA044618B1BA213A
S315080065100E481FF053FC00214FF4E1301FF06AFBD0
S31508006520204622B070BD00BF7CBA02083C00015B61
S31508006530010010004400015B140600205B57002090
S3150800654000010100C47D00208C04002048BA02081E
S3150800655029B9074B186803684BB119F02FBA0129F6
S3150800656005D1034B186803680BB120F027BC7047A8
S31508006570D87D002008B50449044819F043FEBDE853
S315080065800840FFF791BF00BFDC7D002040060020D1
S31508006590014818F07FBB00BF1406002008B5044860
S315080065A01FF033FCBDE8084002481FF02EBC00BFB0
S315080065B0B4BA02089CBA0208024B0349186813F0D9
S315080065C0FBBD00BF047E0020E47D00202DE9F047D6
S315080065D088B0054616468DF81F1021B16921344A40
S315080065E034480FF009FA4FF4C4714FF4A1679DF8C7
S315080065F01F00314C41430DF11F0301F5A1612A46E5
S3150800660007FB0040CDE900632144002307F062FA46
S31508006610C4209DF81F104FF0980911FB00F000F6F2
S31508006620240800F50260204409F0BEFF84204FF4D8
S31508006630F16A9DF81F10214B00FB01400293CB1D08
S31508006640A04400F5D260DBB2424607FB0141CDE922
S315080066500306CDE90053042309F05CF99DF81F10E1
S31508006660174B19FB01A002930B1D2044DBB24246CF
S3150800667007FB0141CDE90306CDE90053042308F0E1
S31508006680DBFA74209DF81F20019619FB02A100FB76
S315080066900240531CDBB2009307FB02422B462144FF
S315080066A000F2147007F006FD08B0BDE8F08700BFD9
S315080066B0CCBA020867C10208CC060020A5F9000872
S315080066C0D1EC000810B5044620B18B21064A0748CC
S315080066D00FF092F94FF4A160054B00FB0430BDE8BA
S315080066E010401BF06EBE00BFCCBA020850C10208AB
S315080066F0CC0600202DE9F34105460C4621B192212E
S31508006700164A17480FF078F94FF4A160154F294635
S3150800671000FB04701BF058FE0446D0B9012D10D1B9
S315080067200546DFF84880104E7368E9B200930620E4
S3150800673056F8083B38F8022B013509F007FB062DF9
S31508006740F2D138681CF0DCFBC0F10200C0B209F0D7
S315080067502FFB204602B0BDE8F08100BFCCBA020884
S3150800676039C10208CC06002078C10208A8C102086F
S315080067702DE9F0479DF8288004460D4616461F4623
S315080067809DF82090DDF824A0B8F1000F04D0C321AD
S31508006790094A0A480FF030F921464FF4A16408481F
S315080067A033462A4604FB0800CDE9099A0897BDE84E
S315080067B0F04706F095BE00BFCCBA020820C1020811
S315080067C0CC0600202DE9F04105460E4617461C4624
S315080067D023B1D421074A08480FF00EF929464FF489
S315080067E0A16506483B46324605FB0400BDE8F04174
S315080067F01BF08CBCCCBA020801C10208CC060020EA
S3150800680038B505460C4621B1DA21074A07480FF084
S31508006810F3F84FF4A160064B294600FB0430BDE8A7
S31508006820384006F00FBE00BFCCBA0208F0C0020816
S31508006830CC06002010B5044620B1E021064A0748D8
S315080068400FF0DAF84FF4A160054B00FB0430BDE801
S3150800685010401BF058BC00BFCCBA0208DBC00208C7
S31508006860CC06002010B5044620B1E621064A0748A2
S315080068700FF0C2F84FF4A160054B00FB0430BDE8E9
S3150800688010401BF0AEBE00BFCCBA0208BDC002085D
S31508006890CC06002038B505460C4621B1EC21074A3E
S315080068A007480FF0A9F84FF4A160064B294600FBEC
S315080068B00430BDE838401BF09CBC00BFCCBA0208C7
S315080068C0A1C00208CC06002038B505460C4621B101
S315080068D0F821074A07480FF08FF84FF4A1635C4385
S315080068E0054B29461859BDE838401CF08BB900BF3E
S315080068F0CCBA020887C00208CC06002010B50446A8
S3150800690028B14FF48571064A06480FF075F84FF41A
S31508006910A160054B00FB0430BDE8104006F004BF3B
S31508006920CCBA020873C00208CC06002010B504468B
S3150800693028B14FF48E71064A06480FF05DF84FF4F9
S31508006940A160054B00FB0430BDE810401BF030BDCC
S31508006950CCBA020853C00208CC06002038B5054652
S315080069600C4629B14FF49171064A07480FF044F8CE
S315080069704FF4A160054B294600FB0430BDE83840BA
S315080069801BF019BDCCBA020833C00208CC06002099
S3150800699010B5044628B14FF49471064A06480FF01C
S315080069A02BF84FF4A160054B00FB0430BDE81040FE
S315080069B01BF0F2BCCCBA02080BC00208CC060020B9
S315080069C038B505460C4629B14FF4A371064A07485F
S315080069D00FF012F8214628460EF0C6FF003818BFF9
S315080069E00120404238BD00BFCCBA0208F4BF0208F5
S315080069F038B505460C4629B140F25D11064A0748E6
S31508006A000EF0FAFF214628460EF0C6FF003818BFDA
S31508006A100120404238BD00BFCCBA0208DCBF0208DC
S31508006A2038B505460C4629B14FF4B471064A0748ED
S31508006A300EF0E2FF2246294600201EF0C9F800386B
S31508006A4018BF0120404238BDCCBA0208C5BF0208AB
S31508006A5038B505460C4629B140F27311064A07486F
S31508006A600EF0CAFF2246294601201EF0B1F800386A
S31508006A7018BF0120404238BDCCBA0208AEBF020892
S31508006A8010B5044628B14FF4CE71064A06480EF0F2
S31508006A90B3FF4FF4A1635C43044B1859BDE810409B
S31508006AA01CF061B9CCBA02087BBF0208CC060020EC
S31508006AB010B5044628B14FF4DA71064A06480EF0B6
S31508006AC09BFF4FF4A160054B00FB0430BDE8104066
S31508006AD01BF074BCCCBA020855BF0208CC060020CD
S31508006AE010B5044628B14FF4E071064A06480EF080
S31508006AF083FF4FF4A160054B00FB0430BDE810404E
S31508006B001BF0E4BACCBA020825BF0208CC0600205E
S31508006B1070B506460D4629B140F2CD110C4A0D480E
S31508006B200EF06AFF4FF4D263842414FB05340A4B33
S31508006B3031461C4420461BF0CAFF2846FFF77AFE5A
S31508006B40022804D12046BDE870401BF01FBF70BD67
S31508006B50CCBA020809BF0208CC06002070B5054663
S31508006B600E4614462AB140F2F911084A08480EF0B2
S31508006B7043FF4FF40262C42313FB0423054832463D
S31508006B802946BDE8704018441BF0D7BFCCBA0208A6
S31508006B90E1BE0208CC0600202DE9F04106460F4664
S31508006BA090461C462BB140F21121094A09480EF0BD
S31508006BB023FFC4254FF4026315FB043406484346F5
S31508006BC03A4631462044BDE8F0411BF0CBBF00BF32
S31508006BD0CCBA0208B7BE0208CC06002070B5054636
S31508006BE00E4614462AB140F22A21084A08480EF0F1
S31508006BF003FF4FF40262C42313FB042305483246FD
S31508006C002946BDE87040184409F0F4BCCCBA02081D
S31508006C108FBE0208CC0600202DE9F0411D46044629
S31508006C200E4601460C4817460EF038FF2DB140F2C5
S31508006C304F210A4A0A480EF0DFFE4FF4D263842039
S31508006C4010FB05302146074C3B4632462044BDE83A
S31508006C50F0411BF0A2BE00BFE8BA0208CCBA02088F
S31508006C6069BE0208CC06002038B50D460446014622
S31508006C700A480EF013FF2DB140F25B21084A094875
S31508006C800EF0BAFE84234FF4D26213FB052306489E
S31508006C9021461844BDE838401BF0D5BE1CBB020887
S31508006CA0CCBA020844BE0208CC0600202DE9F047FB
S31508006CB09DF8209005460E4617469846B9F1000FEE
S31508006CC005D040F27F210A4A0A480EF095FE4FF495
S31508006CD0F163982414FB093407483B463246294693
S31508006CE0CDF820802044BDE8F0471BF0BFBD00BFAB
S31508006CF0CCBA02081EBE0208CC06002038B50546E6
S31508006D000C4629B140F28A21074A08480EF074FE5B
S31508006D1098234FF4F16213FB0423054829461844C7
S31508006D20BDE838401BF0DCBDCCBA0208F9BD020844
S31508006D30CC06002010B5044628B14FF42C71064A3B
S31508006D4006480EF059FE4FF4A160054B00FB0430CF
S31508006D50BDE810401BF04FBBCCBA0208C7BD0208FD
S31508006D60CC0600204FF4A162024B02FB00301BF058
S31508006D7046BB00BFCC06002038B505460C4629B1EF
S31508006D8040F2D221064A07480EF036FE4FF4A160BB
S31508006D90054B294600FB0430BDE838401BF032BBE2
S31508006DA0CCBA0208A3BD0208CC06002010B50446DA
S31508006DB028B14FF43671064A06480EF01DFE4FF408
S31508006DC0A160054B00FB0430BDE810401BF023BB57
S31508006DD0CCBA020878BD0208CC06002010B50446D5
S31508006DE028B140F2E921054A05480EF005FE4FF4A0
S31508006DF0A160044B00FB043010BD00BFCCBA0208EA
S31508006E005EBD0208CC06002013B5044628B140F240
S31508006E101631074A07480EF0EFFD4FF4A160064BFE
S31508006E2000FB043002B0BDE810401BF0F7BA00BF03
S31508006E30CCBA020841BD0208CC06002007B528B125
S31508006E404FF44771044A05480EF0D6FD03B05DF8C5
S31508006E5004EB1CF06BB800BFCCBA020815BD0208DB
S31508006E602DE9F04105460E4617461C462BB140F261
S31508006E702331084A08480EF0BFFD29464FF4A1659C
S31508006E8006483B46324605FB0400BDE8F0411BF0C8
S31508006E90E3BA00BFCCBA0208EBBC0208CC06002055
S31508006EA010B5044628B140F22A31064A06480EF0C3
S31508006EB0A3FD4FF4A160054B00FB0430BDE810406C
S31508006EC01BF0BBBACCBA0208D1BC0208CC0600201B
S31508006ED010B5044628B14FF44C71064A06480EF020
S31508006EE08BFD4FF4A160054B00FB0430BDE8104054
S31508006EF01BF0C7BACCBA0208A0BC0208CC06002010
S31508006F0070B505460E4614462AB14FF45271074A23
S31508006F1007480EF071FD4FF4A160064B324629462C
S31508006F2000FB0430BDE870401BF0C5BACCBA0208B5
S31508006F3081BC0208CC06002010B5044628B140F2F0
S31508006F404E31064A06480EF057FD4FF4A160054B30
S31508006F5000FB0430BDE810401BF0C1BACCBA0208E9
S31508006F605ABC0208CC06002070B506460D4629B163
S31508006F7040F255310D4A0E480EF03EFD40F21473AC
S31508006F80742414FB05340B4B31461C4420461BF075
S31508006F90C7FB2846FFF74EFC022805D126B1204636
S31508006FA0BDE8704007F0B4B870BD00BFCCBA02089F
S31508006FB03EBC0208CC06002010B5044628B140F2B3
S31508006FC05F31074A07480EF017FD742340F2147222
S31508006FD013FB0423BDE81040034818441BF08EBB7E
S31508006FE0CCBA02081EBC0208CC06002038B50546F5
S31508006FF00C4629B14FF45C71074A08480EF0FCFCB0
S31508007000742340F2147213FB0423054829461844D6
S31508007010BDE838401BF08CBBCCBA0208FCBB0208A2
S31508007020CC06002010B5044628B140F27731064A4E
S3150800703006480EF0E1FC4FF4A160054B00FB043056
S31508007040BDE810401BF052BACCBA0208D2BB0208FF
S31508007050CC06002038B505460C4629B140F27D31EC
S31508007060064A07480EF0C8FC4FF4A160054B2946AE
S3150800707000FB0430BDE838401BF006BACCBA02085B
S31508007080ACBB0208CC06002010B5044628B140F275
S315080070908931064A06480EF0AFFC4FF4A160054B4D
S315080070A000FB0430BDE810401BF0FFB9CCBA02085B
S315080070B08DBB0208CC0600202DE9F04105460E4698
S315080070C017461C462BB140F28F31084A08480EF085
S315080070D093FC4FF4A1635C4306483B463246294677
S315080070E00059BDE8F0410AF037B800BFCCBA02082B
S315080070F070BB0208CC06002010B5044628B140F241
S315080071009531064A06480EF077FC4FF4A1635C43B6
S31508007110044B1859BDE810401BF0E5BECCBA02086E
S315080071204FBB0208CC06002010B44FF4A1645C43A0
S3150800713013460A460146034800595DF8044B1BF0FE
S31508007140A1BE00BFCC0600204FF4A162024B02FB91
S3150800715000301AF0D2BF00BFCC0600204FF4A1625F
S31508007160024B02FB00301AF0CBBF00BFCC06002052
S315080071704FF4A1635843024B18580AF015B900BFDB
S31508007180CC0600204FF4A1635843024B185809F067
S315080071908DBD00BFCC0600204FF4A162024B02FB56
S315080071A000301BF000BA00BFCC0600204FF4A162E5
S315080071B0024B02FB00301BF0A0B900BFCC06002032
S315080071C04FF4A162024B02FB00301BF0D1B900BF9D
S315080071D0CC0600204FF4A162024B02FB00301BF0E4
S315080071E0D6B900BFCC0600204FF4A162024B02FBC1
S315080071F000301BF0CFB900BFCC0600204FF4A162C7
S31508007200024B02FB00301BF0C8B900BFCC060020B9
S315080072104FF4A162024B02FB00301BF0C1B900BF5C
S31508007220CC060020064908B51160064A1A60029B7A
S31508007230054A1A600AF036FC039B186008BD00BFB1
S31508007240E51A02087D1B0208E91A0208F0B50D4680
S315080072501746044685B020B18121194A19480EF00F
S31508007260CBFB6B1E062B29D80AF01CFC0646002110
S315080072700E220DF1020020F06DF8032204EB440300
S3150800728004EB83030433DBB206EB03168DF80030F8
S31508007290737A8DF808202B438DF809308DF8014054
S315080072A01EF00EFC38442946019007480EF0F6FBFE
S315080072B068460AF0D3FB002005B0F0BD0120FBE7C5
S315080072C0CCBA0208CBC10208B4C102080A22F0B53A
S315080072D090F8D030404D00EB03135B78044602FB70
S315080072E003539B788DB023B9DF213C4A3C480EF006
S315080072F083FB0A2794F8D03004EB0313597807FB6D
S315080073000153DB78002B63D005A8FFF76FFE4FF417
S315080073105163ADF8103094F8D03004EB0313587865
S31508007320FFF7BEFD20B394F8D03004EB031358786A
S31508007330FFF778FE064600284CD194F8D03004EBC7
S3150800734003135B7807FB03552A796B799A423FD07A
S315080073501EF0B8FB94F8D030324604EB0314637879
S315080073600121CDE9020302203346CDE900602DE074
S315080073701C480EF093FB1C480EF090FB0D238DF86D
S31508007380103094F8D030012504EB03135878FFF732
S3150800739049FE60B115480EF081FB13480EF07EFBDE
S315080073A0102205F130036B4403F8202C01351EF03A
S315080073B089FB002294F8D030114604EB03135B785E
S315080073C0CDE90052CDE90203032004AB0AF0E2FE40
S315080073D00DB0F0BD0025DDE77B570020E8C10208A7
S315080073E028C402087EC20208AEC20208B3C2020856
S315080073F010B50C460A4911600A4A1A60029B0A4AE5
S315080074001A600AF04FFB00220121039B1860074B04
S315080074105C701A70DA7099701A715A7110BD00BFD3
S3150800742095750008CD720008A17400087B570020E6
S3150800743030B50D46044685B020B1C821144A154812
S315080074400EF0DAFA0A22144B02FB04339B7823B9AE
S31508007450C921124A0F480EF0CFFA0E2200210DF16B
S3150800746002001FF077FF04EB440304EB83030533A4
S315080074708DF8003003238DF801408DF808301EF092
S315080074801FFB0544684601950AF0E8FA05B030BDC9
S31508007490CCBA0208AEC302087B570020EFC2020826
S315080074A00A2270B590F8D030364D00EB03135B789E
S315080074B0044602FB03539B782BB940F20111324A6A
S315080074C032480EF099FA94F8D03004EB0313587842
S315080074D00A2303FB0053DB78002B4CD0FFF7E0FCB4
S315080074E0F8B194F8D03004EB03135878FFF79AFDF7
S315080074F0B8B994F8D03004EB03135878FFF75CFD5D
S3150800750078B994F8D030012004EB03135978FFF7C3
S315080075102BFD94F8D0301E4804EB031359780EF06F
S31508007520BDFA94F8D03004EB03135878FFF7ACFD96
S3150800753094F8D030064604EB03135A780A2303FB63
S31508007540025359798142197118D0A8B1012109202D
S315080075500BF04AF9002194F8D03004EB031358785D
S31508007560FFF766FF0A2294F8D03004EB0314637819
S3150800757002FB03556E7170BD0146E8E7822110468D
S31508007580EEE700BF7B570020E8C1020855C4020891
S315080075902CC3020838B590F80A310D2B0ED1104DC0
S315080075A090F814312C789C4208D14CB10D482246EB
S315080075B00D490EF073FA0D480EF070FA002038BD2A
S315080075C0EB78002BFAD00AF06DFA6B7890F8D02099
S315080075D09A4203D021462046FFF72AFF0120EEE70C
S315080075E07B5700205EC30208F4C30208AEC2020835
S315080075F010B5044620B1D521064A07480EF0FCF915
S3150800760004EB440304EB83000530BDE810400AF0A0
S315080076100BBA00BFCCBA020887C302082DE9F041AD
S315080076200C469046054620B1B421104A10480EF083
S31508007630E3F90A260F4F06FB0576F378A34208D02E
S315080076404CB141462846FFF7F3FE0A2303FB0577AC
S31508007650FC70BDE8F08129462046FFF785FC2846E0
S31508007660FFF7C6FF34717471EFE700BFCCBA0208A2
S31508007670D2C302087B570020064908B51160064A9E
S315080076801A60029B054A1A600AF00CFA039B1860F6
S3150800769008BD00BF551C0208F91B0208F71B0208A3
S315080076A030B50D46044685B020B17E21104A1148F2
S315080076B00EF0A2F90E2200210DF102001FF04AFE7B
S315080076C004EB440304EB830303338DF800300323F0
S315080076D020468DF801408DF808300195FFF7AAF885
S315080076E0022802D168460AF0B9F905B030BD00BFD4
S315080076F0CCBA020882C4020830B5044685B00E2208
S315080077000D460DF1020000211FF024FE04EB440390
S3150800771004EB830302338DF8003003230521002090
S315080077208DF808308DF801401EF0EDF901902046DD
S31508007730FFF73CFB012814D101982844411B002976
S31508007740019019DC21460F480EF0A8F968460AF0A0
S3150800775085F920B1F5210C4A0C480EF04DF905B013
S3150800776030BD2046FFF7FEFA0028E5D12046FFF790
S315080077709FF9019B1844E1E7224605480EF08EF969
S31508007780E4E700BF9BC40208FDC402086DC50208F1
S31508007790C7C402081FB590F8D030044600EB03139F
S315080077A05878FFF747F8022808D117480EF076F9F7
S315080077B0164804B0BDE810400EF070B994F8D03001
S315080077C0012104EB03135878FFF722FD1EF07AF91E
S315080077D0002294F8D030114604EB03135B78CDE908
S315080077E00022CDE902030A4B01200AF0D3FC94F8E3
S315080077F0D03020B904EB0313587204B010BD04EB63
S31508007800031401236372F8E733C50208AEC20208FF
S3150800781085570020064908B51160064A1A60029B7A
S31508007820054A1A600AF03EF9039B186008BD00BFB6
S315080078307F1C020895770008831C020810B50446C9
S3150800784020B185210B4A0C480EF0D6F80AF02AF921
S315080078500D23022213FB042300EB0310037A052BE6
S3150800786007D11EF02DF901462046BDE81040FFF766
S3150800787043BF10BDCCBA020857C5020838B590F800
S31508007880D030044600EB03131B7A022B02D10120E9
S3150800789008F08EFA94F8D03004EB03139A7AF2B112
S315080078A05D7A012D14D10AF077FD88B994F8D030A5
S315080078B00B4904EB0314F72362785343CB5C012B83
S315080078C00CBF02212946BDE8384003200AF08CBFC8
S315080078D094F8D030002104EB03146278F3E738BD3E
S315080078E0865700202DE9F04FF7264FF001080027AC
S315080078F090F8D0302A4D00EB03135B78044606FB5C
S3150800790003F216FB0383A81803EB050B90F8F63071
S31508007910AF54BB420CBF0221042190F8F32087B074
S3150800792090F8F49090F8F5A0059204911EF0CAF824
S3150800793094F8D030049904EB03135B78059ACDE9E3
S31508007940020301915B4649460092022052460AF01C
S3150800795021FC94F8D0300146A8B904EB031383F848
S3150800796009805B780F4906FB03550F4B95F8F50020
S3150800797095F8F420B84218BF19460C4807B0BDE878
S31508007980F04F0EF08BB804EB0314094867720EF03B
S3150800799085F8084807B0BDE8F04F0EF07FB800BF7D
S315080079A08657002095C502088CC502089EC50208A0
S315080079B0B7C50208AEC2020890F80A31013B012B8E
S315080079C00AD8F72190F81431044A4B43D15C0129AF
S315080079D01CBF90F81111D15400207047865700201B
S315080079E0064908B51160064A1A60029B054A1A60DC
S315080079F00AF058F8039B186008BD00BFB97900085B
S31508007A00E57800087D7800082DE9FF47DDF8309015
S31508007A10884617461E4604469DF834A09DF83850F9
S31508007A2020B19521254A26480DF0E6FF10220021AF
S31508007A3068461FF08FFCBDB3022300208DF808307E
S31508007A4008F0B6F9F7201F4DB9F1000F30D000FB4A
S31508007A500453184652464946013083F8F3A01FF0EE
S31508007A6084FCF72303FB045585F8F48085F8F57044
S31508007A7085F8F6601EF024F80F9B8DF8014018442F
S31508007A8004EB440304EB83040190013468468DF843
S31508007A90004009F0E3FF20B1B2210B4A08480DF077
S31508007AA0ABFF04B0BDE8F08703238DF80830C9E7BB
S31508007AB000FB045080F8F390D3E700BFCCBA020865
S31508007AC028C6020886570020F2C50208044B1A7910
S31508007AD082424FF0000004BF0870181D704700BFAF
S31508007AE0B00F0020F0B5077885B02FB14FF4CC71F0
S31508007AF0244A25480DF080FF28260E2200210DF184
S31508007B0002001FF027FC0323204D8DF8083006FBE2
S31508007B100756B3885BBAADF80030B379E3B1337E64
S31508007B20E3B1282303FB0753DA7942F00202DA713C
S31508007B301DF0C6FF01300190684609F08FFF282323
S31508007B4003FB075595F8293033B1002106202A7919
S31508007B5085F829100AF048FE05B0F0BD1DF0B0FF03
S31508007B60F36955F827401C44C4F11E03C342D8D50F
S31508007B70F0790028DCD132211DF0C5FF1E3C2044D7
S31508007B80D9E700BF3EC60208DAC80208B00F0020CF
S31508007B902DE9F041064628241DF092FF4FF0000813
S31508007BA05C4F451D04FB0674207984F80880FEF7AF
S31508007BB0EFFEE279C0B2D307A0760DD50F2828BF0D
S31508007BC00F20237A03F1030C844545DD52480DF056
S31508007BD065FF52480DF062FF282303FB0673D87928
S31508007BE0410714D593F81AC01A7ABCF10F0F28BFAB
S31508007BF04FF00F0C196A941D644547F8265029441E
S31508007C003CDD45480DF04AFF44480DF047FF282360
S31508007C1003FB0673D9798A071BD51A7E47F82650BF
S31508007C2012B1002283F82820282000FB0670877EE0
S31508007C30037A0F2F28BF0F27026A9E1DBE4290F8AF
S31508007C4028402A4442DD34480DF028FF33480DF019
S31508007C5025FF2846BDE8F081012122F00102E271E4
S31508007C60E21882F809805A1C023354FA82F254FA4E
S31508007C7083F3517284F808C05972ADE74FF0020CCD
S31508007C8020F00400D871981880F809C04FF0000C4D
S31508007C90501C53FA80F080F809C0901C53FA80F003
S31508007CA04172D01C4FEA112C53FA80F080F809C0B3
S31508007CB0101D05324FEA114C53FA80F053FA82F23E
S31508007CC0090E80F809C01C725172A0E7012721F03D
S31508007CD00201C171C1184F72D91950FA81F14A725D
S31508007CE0991C170A50FA81F14F72D91C50FA81F182
S31508007CF0170C4F72191D120E50FA81F14A72427E04
S31508007D00053302F00F0250FA83F342EA04120672B0
S31508007D105A729EE7B00F00205AC60208AEC2020881
S31508007D202DE9F043057889B02DB140F26B111C4A54
S31508007D301C480DF061FE2846FFF72AFF28211A4C39
S31508007D40074601FB054696F80890B9F1000F23D0BF
S31508007D5031464FF0CA084A46093104A886F82B80EE
S31508007D601FF003FB3379012203934FF47A735F43C1
S31508007D7002234146CDE900930420029704AB0AF09A
S31508007D8009FA48B9337E0BB1013B3376282303FB46
S31508007D900544002384F8283009B0BDE8F08300BF05
S31508007DA03EC60208FCC80208B00F00202DE9F843B9
S31508007DB0002405460E46174698464FF08009C470BB
S31508007DC0BC4201D3BDE8F883335D032B58D8DFE8FE
S31508007DD003F002093646EB78013443F00103EB70F1
S31508007DE0E4B2EDE7631DBB4224DA631CF21812798C
S31508007DF0697D02F00F0291421AD1013101F00F019B
S31508007E006975F158EB694FF47A7219440023B8FB87
S31508007E10F2F22B7501231F482A62E96185F825309D
S31508007E200A440DF03BFE1C480DF038FE0634D7E731
S31508007E301A48F6E71A491B480DF030FEF3E7631CAB
S31508007E40BB4215DA33195B7803F00F0309FA03F31B
S31508007E50AB61EB7843F00403EB700234C0E7631CB4
S31508007E60BB4205DA33195B7803F007032B75F4E791
S31508007E700B490C480DF012FE07480DF00FFEECE713
S31508007E8009480A490DF00AFEBDE8F84302480DF014
S31508007E9005BE00BF88C60208AEC20208CAC60208E6
S31508007EA040C90208F9C602080BC70208A1C8020899
S31508007EB02DE9F84F0D26B1FBF6F60546924699468A
S31508007EC00278334618480F460DF0E8FD2B782BB19B
S31508007ED04FF4AB71154A16480DF08EFD4FF0280881
S31508007EE0042095F800B0134C18FB0B0042460021FD
S31508007EF020441FF02FFA104B104ACAF80030104BD6
S31508007F00C9F800300A9B1A600B9B08FB0B421D60E0
S31508007F10CA2382F82B300B4B5771D3610F23167186
S31508007F209376BDE8F88F00BF2CC7020879C7020808
S31508007F301EC90208B00F0020B1800008E57A0008C3
S31508007F40217D000840FA01002DE9F34790461A1FE3
S31508007F50032A05460E46DDF82C900DD9093B032B5E
S31508007F600AD90DF10701FFF7B1FD044640B900270C
S31508007F70384602B0BDE8F087002389F80030F6E7F6
S31508007F8045B12A46214922480DF088FD21480DF0C1
S31508007F9085FDECE78778002FE9D031780329E6D804
S31508007FA01D4B1E4813F801A0524688F800A00DF094
S31508007FB075FD18480DF072FD0D9B52463146204658
S31508007FC0FFF7F4FE94F8253033B12A4629460620F1
S31508007FD084F825500AF008FCE378002BC7D09DF8F2
S31508007FE00700FFF7D5FD22799DF830309A4205D96A
S31508007FF040F23A210A4A05480DF0FEFC22790A9811
S3150800800089F80020611D1FF0B0F9B1E784C802089D
S315080080105EC30208AEC202083CC902089DC7020830
S31508008020CDC7020830B50D46044687B028B140F2E0
S3150800803079211C4A1C480DF0DFFC28221B4B02FB49
S3150800804004339B7913B9012007B030BD20460DF1E2
S315080080500701FFF73BFD04460028F4D0C3780E223B
S3150800806043F002030021C37080F824500DF10A0082
S315080080701FF070F963788DF8083023788DF8093089
S3150800808003238DF810301DF01BFD05210446012041
S315080080901DF039FD044402A8039409F0DFFC002012
S315080080A0D2E700BFCCBA02084BC80208B00F0020BE
S315080080B0F7B590F80A3104461A1F032A14D9093B62
S315080080C0032B11D990F814610DF107013046FFF71B
S315080080D0FDFC054640B156B11E4832461E490DF014
S315080080E0DDFC1E480DF0DAFC002003B0F0BD8378F5
S315080080F0002BF9D094F8133123B131463046FFF7F7
S3150800810091FFF1E794F80931002BEDD090F826306D
S31508008110002BE9D194F8082190F827309A42E3D148
S31508008120264616F8017B0E480DF0B8FC3A46D4F8F8
S31508008130003131462846FFF739FE09F0B3FC6A7864
S3150800814090F8D0309A4203D00DF10700FFF7CAFC29
S315080081500120CAE75EC30208B1C80208AEC2020817
S31508008160FDC7020837B50D46044628B14FF412710B
S315080081700E4A0F480DF040FC20460DF10701FFF7A7
S31508008180A5FC88B18378AB420ED0857035B1002145
S31508008190204603B0BDE83040FFF744BF407803B03F
S315080081A0BDE8304009F040BC03B030BDCCBA020887
S315080081B068C8020837B50D46044628B140F297212B
S315080081C00B4A0C480DF018FC20460DF10701FFF785
S315080081D07DFC044610B1C3691BB92B60012003B0AE
S315080081E030BD1DF06DFCE36903442B600020F6E703
S315080081F0CCBA020827C802082DE9FF410026836980
S315080082000446DA07067725D50127077716480DF0BD
S3150800821045FC94F80B80B8F1000F18D01DF052FCFD
S31508008220A189054630461DF06EFC2346054402200A
S3150800823013F8022BCB210392CDE900803A4602952A
S3150800824009F0A8FFA369E67223F00103A36104B04D
S31508008250BDE8F0815B07FAD504230377034804B029
S31508008260BDE8F0410DF01ABC5AC9020885C90208D2
S315080082702DE9F04F002585B09B460E9B04461D70E0
S3150800828040F6B833C5728381284692460091FEF7B8
S315080082907FFB08280BD82846FEF77AFB5FFA80F999
S315080082A000252E46564505D30020E5726AE04FF0B4
S315080082B00909F5E7009B995D052900F2BD81DFE80C
S315080082C011F006001D0056001E016E019A01AB1C36
S315080082D001364B45F6B2E5DA0021621991700421A0
S315080082E06A1C54FA82F29170012254FA83F39A7046
S315080082F0A3690335EDB21343A361D3E705F1080873
S315080083000136C845F6B2CDDA0DF0F2FB07460DF098
S31508008310F3FB0121621991706A1854FA82F290707F
S31508008320AA1C54FA82F2010A9170EA1C54FA82F2E3
S31508008330010C91702A1D54FA82F2030E93706B1D7C
S3150800834054FA83F39F70AB1D3A0A54FA83F39A7072
S31508008350EB1D3A0C54FA83F30935A0443F0E9A7084
S31508008360EDB288F80270A36943F00103C4E7331D30
S3150800837053450ADB5146B1480DF090FBB0480DF065
S315080083808DFB012005B0BDE8F08F009B33449A7839
S3150800839093F80180053608EB0228DA781B7908EB92
S315080083A0024818EB0368F6B208D101230E9A137037
S315080083B08BF80080A36923F004039DE7B8F1FF3F1B
S315080083C005F104072AD00020FEF76AFD002849D1E6
S315080083D002A90190FFF7EEFE019B002849D04F4500
S315080083E016DA0221621991706A1C54FA82F29370A5
S315080083F06A1854FA82F29370EA1C54FA82F22744F5
S315080084009370BB70A369053543F00103EDB2A36110
S31508008410012202210020FEF719FF43E701230E9AE5
S315080084204F4513708BF80030C4DA022263199A702C
S315080084306B1C54FA83F383F80280AB18FF2254FAB4
S3150800844083F39A70EB1C54FA83F3053554FA87F7CD
S3150800845083F80280EDB287F80280A36943F001032E
S31508008460A361A7E71DF02EFB002303AA02A9FEF7C6
S31508008470F7FC029B98452AD9A8EB03081DF020FBB8
S315080084804F45404420611EDA022263199A706B1C1C
S3150800849054FA83F383F80280AB1854FA83F34FEA4D
S315080084A018229A70EB1C4FEA184254FA83F30535E2
S315080084B027444FEA18689A70EDB287F80280A369D4
S315080084C043F00103A361A36943F0040314E74F458E
S315080084D0BFF6E8AE022263199A7000236A1C54FAA2
S315080084E082F29370AA1C54FA82F29370EA1C54FA28
S315080084F082F2053527449370EDB2BB7033E7F31C5F
S315080085005345BFF637AF009B33449A785F78DB78DC
S3150800851007EB0227043617EB0347F6B205D101230A
S315080085200E9A13708BF8007044E76FF07F439F42F2
S3150800853005F103081AD101230E9AC14513708BF869
S3150800854000307FF737AF032263199A70FF236A1C3E
S3150800855054FA82F29370AA1C54FA82F2043554FA39
S3150800856088F89370EDB288F8023076E71DF0A8FA1D
S31508008570C14538442061A6DD032263199A706B1C35
S3150800858054FA83F39F70AB1C3A0A54FA83F3043502
S31508008590A0443F0C9A70EDB288F802708FE71DF080
S315080085A0BEFA6B1C01364B45F6B2BFF67BAE04210C
S315080085B06219AF1C234403289170FFB2987014D136
S315080085C00DF09EFAEB1C020A274454FA83F3B8709E
S315080085D09A70AF1D2B1D0535020C54FA83F354FA15
S315080085E085F5000E9A70FFB2A870A3693D4643F060
S315080085F00103A36156E6331D5345BFF6BBAE009B88
S315080086006F1C33449A785878053600EB0220DA78DE
S315080086101B7900EB024000EB03604F456061F6B240
S31508008620BFF640AE052263199A700DF06DFA023551
S315080086302744EDB2B87096E602489DE6BCC9020822
S31508008640AEC20208CEC902087FB505460E461446D4
S3150800865000210E220DF102001EF07CFE032368465F
S315080086608DF800608DF801508DF80830019409F0F6
S31508008670F5F928B140F2FD11024A03480DF0BCF99C
S3150800868004B070BDFEC9020815CB020830B5294DE5
S3150800869090F814312A7804469A4285B007D14AB12F
S315080086A0254826490DF0FAF925480DF0F7F9002076
S315080086B005B030BD6B7F002BF9D040F2CB13B0F874
S315080086C008219A42F3D190F80A311A1F032AEED9E3
S315080086D0093B032BEBD9CB211A480DF0DFF92146CC
S315080086E00DF10F030093284611F8012B0DF10E0327
S315080086F0FFF7BEFD40B9AB6933B11DF0E1F9697802
S3150800870002462878FFF7A0FF9DF80F302BB100220C
S3150800871010209DF80E100AF067F809F0C3F96A7878
S3150800872090F8D0309A4202D0024819F0E8FA0120AF
S31508008730BEE700BFDC0F00205EC30208E8CA0208D5
S31508008740AEC202080ECA02082DE9F8439846037815
S3150800875006460C4691462BB140F20711104A1148BD
S315080087600DF04AF93578104F202207EB45160021FF
S3150800877030461EF0EFFD0D4B0D4AC9F800300D4B83
S31508008780C8F80030089B1A600D22099B1E60747099
S31508008790B4FBF2F46B01FC5401237377BDE8F8834C
S315080087A054CA020822CB0208DC0F00208D86000876
S315080087B0FF1C0208F98100082DE9FF411346002233
S315080087C0DDF82C80304C88F8002022780D4682424D
S315080087D007D15AB12D482E490DF060F92D480DF0F4
S315080087E05DF90026304604B0BDE8F081667F002EAC
S315080087F0F7D009780529F4D8274A2848575C3A4615
S315080088001F700DF04BF923480DF048F90DF10F03D1
S3150800881000933A46294620460DF10E03FFF728FD38
S31508008820E8B9A369012B12D1E27A9DF830309A4251
S3150800883005D940F2C7111A4A15480DF0DDF8E27A53
S3150800884018490A9888F800201EF08FFDCAE733B148
S315080088501DF036F9617802462078FFF7F5FE9DF897
S315080088600F302BB1002210209DF80E1009F0BCFF26
S3150800887009F018F9627890F8D0309A42B1D00248D7
S3150800888019F03DFAADE700BFDC0F00205EC3020811
S31508008890CFCA0208AEC2020844CB02086CCA020854
S315080088A098CA0208DE0F00200B46074930B409684B
S315080088B039B10D682DB1014602FB03F02B4630BCD9
S315080088C0184730BC704700BFFC0F00200B4607490D
S315080088D030B4096839B14D682DB1014602FB03F081
S315080088E02B4630BC184730BC704700BFFC0F002031
S315080088F0F0B5144C002704F58055B5F8EA60B5F8CC
S31508008900E8203346A18800F1FF3C04F5A4649C45A1
S315080089100FDC831B013B864228BF002333440FB17B
S31508008920A5F8E8209942DCBF013188B2A5F8EA002B
S31508008930F0BD9942C1BF013292B224F81320012733
S315080089400133E4E7FC0F00200022084B30B5411C38
S315080089509C8803F21E5390B2844201D8002004E09A
S3150800896033F8025F01328D42F5D130BDFC0F00208D
S315080089702DE9F843804616460D4601B34FF0000927
S315080089804B1E4B4301FB02F4A4EB6304634203F062
S3150800899007034FEAE40704F0070458BF5C421FFACE
S315080089A089F00022414609F1010919F0DDF94D4522
S315080089B0F5D1DFF83890B54204D3BDE8F8830C4604
S315080089C00F46F6E709EB07031A7BC4F107031A41BA
S315080089D028460134414602F0010219F0C5F901356D
S315080089E0082C04BF00240137ADB2E4E7FC0F0020D1
S315080089F0114B70B504460D461646002141F2F002A9
S31508008A0018461EF0A7FC40F2DC520121066084805D
S31508008A10857100F21E53013A92B223F8021F002A0A
S31508008A20F9D140F21452FF2104481EF093FC044B7E
S31508008A30A3F8EC4070BD00BFFC0F00200810002012
S31508008A40FC1F002000487047F88905002DE9F04F03
S31508008A500446F7B0BC220D460AA800211EF07AFC8F
S31508008A60B94EF222002139A81EF074FC0D2200210D
S31508008A7002A81EF06FFC06F580570D22002106A8F5
S31508008A801EF068FCB7F8EA30A7F8E640A3421FD8FC
S31508008A90B388A3421FD3611E2846B27989B2FFF76D
S31508008AA003FF002204F28F23204626F81320FFF73F
S31508008AB01FFFB7F8E83033B9B288A24203D10020C5
S31508008AC077B0BDE8F08FB28813441B1BA7F8EC30CB
S31508008AD04FF0FF30F4E7B7F8E830642B03D90120EC
S31508008AE087F8EE00ECE72046FFF702FF0023012196
S31508008AF09846B6F80490A4EB090401FA03F202EAD0
S31508008B000902DA4001339044202B5FFA88F8F4D141
S31508008B1008F1FF33D3F1000848EB030840F2E933C4
S31508008B204FEAE902002101320AA85C434FF0000A25
S31508008B301EF010FC01344FEA690BC844DA4510D11F
S31508008B400024A246DFF80CB2B388A3421EDC00223A
S31508008B50B7F8E8401FFA82F844453AD84FF00008BB
S31508008B603FE084EA64139B0503F4800303EB640483
S31508008B7094FBF8F008FB10408145F2DD01220AA9B2
S31508008B8080B219F0F1F80AF1010AD7E71FFA84F959
S31508008B9048460AA919F0DEF8012880460FD13BF8A5
S31508008BA0142072B9484619F0DFF84946B27939A84F
S31508008BB0FFF78CFE2846B27939A919F0E3F8013493
S31508008BC0C2E7501E02A9424680B219F0CDF8C24645
S31508008BD0F5E7404602A919F0BDF8012802F101029D
S31508008BE0B8D1BAF1000F3FF473AF584C214640464E
S31508008BF019F0B0F80128B7F8E8A005D0B8F1000FC9
S31508008C0062D14446424670E05246414606A8FFF7FE
S31508008C10AFFE524606A902A819F0C1F84046FFF76A
S31508008C2093FEB279014639A8FFF750FEB279284675
S31508008C3039A919F0A7F80022B7F8E89090B281454B
S31508008C402AD8B7F8E830B4681A1B9C42A7F8EC2073
S31508008C507FF43EAF012C7FF632AFDFF8EC80023CA2
S31508008C601FFA84FB5846FFF76FFE98F80620014660
S31508008C70019039A8FFF72AFE354BB3F8E860013EA4
S31508008C80A64298F806A067DC5246019939A8FFF76C
S31508008C900BFE013CE4D212E702A919F05BF80128A1
S31508008CA002F10102CAD1002207E0404602A919F0E2
S31508008CB051F8012802F1010298D01FFA82F8C1453D
S31508008CC0F3D84FF0000891E708F1FF3308FB03F3E8
S31508008CD008FB0AF4A4EB6304634203F007034FEAB4
S31508008CE0E40204F0070458BF5C42C1464FF0010B8A
S31508008CF017E0484602A919F02DF840B9B318197BB0
S31508008D00C4F107000BFA00F021EA000119730134D7
S31508008D10082C08BF002409F1010908BF01321FFA0F
S31508008D2089F9D145E5D34046FFF70EFEB2790146EB
S31508008D302846FFF7B9FD01224046044919F014F800
S31508008D40B3680133B3607CE7FC0F0020D420002011
S31508008D50FC1F00201C150020144B5946B3F8E87078
S31508008D6006A83A461FFA86F9FFF702FE494602A800
S31508008D703A46FFF7FDFD484606A918F0EBFF01281D
S31508008D807FF47DAF3A4602A906A819F008F84846C6
S31508008D90FFF7DAFD524601462846FFF797FD2946B2
S31508008DA098F8062039A818F0EDFF68E7FC1F0020A0
S31508008DB0054AD2F8E6100160D2F8EA10B2F8EE20B9
S31508008DC041600281704700BFFC1F00202DE9F04377
S31508008DD016270678DFF85C80054607FB068393F8B6
S31508008DE0119085B0B9F1000F20D01CF06BFE4FF43E
S31508008DF07A712B78044607FB03835B8A0020594364
S31508008E001CF081FE024602202B7817FB06067B43E0
S31508008E1018F80330144403930122C921CDE901044B
S31508008E20CDF8009008EB060309F0B4F905B0BDE8E3
S31508008E30F08300BF445700202DE9FF41044630B1B6
S31508008E40034640F2BD11194A19480CF0D5FD1626FD
S31508008E506643184DAB191F7D2FBB4FF003080E2232
S31508008E6039460DF102001EF075FAAB5B8DF80880E5
S31508008E705BBAADF800301CF023FE4146064638467C
S31508008E801CF041FE06446846019608F0E7FD28B145
S31508008E9040F2C711084A06480CF0AEFD162303FB3C
S31508008EA0045501232B7504B0BDE8F08154CA0208A5
S31508008EB0F6CD020844570020FEC90208162102789A
S31508008EC0074B01FB023300221A75064A1378012B59
S31508008ED004D9013B00781370FFF7AEBF704700BF97
S31508008EE0445700207D5800202DE9F04F1F46B64B09
S31508008EF099B01B780646012B9EBF00234374438214
S31508008F00457C0020CDE90021FDF742FD0E280BD84F
S31508008F100020FDF73DFDC3B200240293009B9C424E
S31508008F2004D30020757437E00F23F5E7019BA046AC
S31508008F30195D082900F23382DFE811F009002200E2
S31508008F4080005A01310231023102310285010134B1
S31508008F503846E4B218F03DFF0028DFD1029AAB1C70
S31508008F609342DBDA0321721990706A1C56FA82F270
S31508008F70917001220D4456FA83F3EDB29A70CDE74B
S31508008F80009A631C93420ADB114690480CF086FD52
S31508008F908F480CF083FD012019B0BDE8F08F019BC6
S31508008FA0DFF844A223445B780CA8C3F341090AEB13
S31508008FB0491B0BF1100204930392FFF7F9FE0D9972
S31508008FC00C98039A049B03C2BDF838100234DB07D9
S31508008FD0E4B24FEA4918118003D4BBF81630002BC7
S31508008FE09CD0029B2A1D9A4298DAD044B8F81210EF
S31508008FF0B8F8103070195B1A0121817068189BB295
S3150800900056FA80F08370A81CC3F3052356FA80F03D
S3150800901043EA89138370B8F81600EB1C56FA83F3F3
S31508009020987098F8183032440B40937098F80730C7
S31508009030053504339940EDB271826FE7009A04F161
S315080090400A039342A0DA384618F0C3FE0B340146E9
S31508009050E4B200287FF462AF202210A81EF07AF945
S31508009060009A5C495C480CF019FD019B5B4819782D
S315080090700CF014FD4FF0010BDFF86091DFF860A1EA
S31508009080019B484613F80B100CF008FD009B0BF1EA
S31508009090010B5B4506D91BF00F0FF1D150460CF0BA
S315080090A0FDFCEDE74E480CF0F9FC019B4D48984451
S315080090B098F801B098F80310CBF301130A9398F8BF
S315080090C0053098F802200393C3F3C203049398F873
S315080090D0063098F80490059398F8073042EA012A72
S315080090E0069398F808304A46079398F80930514687
S315080090F0089398F80A3009930CF0D0FC40F2DC513A
S31508009100049B1A1E18BF01228A450A9B11D942EAF6
S31508009110831242F00208029A6B1C9342BFF6FEAE17
S315080091200221721933440D449170EDB283F802801E
S31508009130F4E6B9F1F20FEAD8CDE90A32FFF782FC74
S31508009140DDE90A3209FB0AF18142E0D842EA8318CE
S31508009150002AE0D101228DF84020039A089902F0EE
S3150800916007028DF84720049A0BF00F0B8DF848205C
S31508009170059A8DF841B08DF84920099A8DF8423044
S31508009180120602EB01420699ADF844A00A44079973
S315080091908DF8469002EB012213926FF001021792A6
S315080091A0114A0DF1400E02EB431CBEE80F00ACE875
S315080091B00F009EE80F008CE80F00494650460B4A00
S315080091C0FFF716FCA7E700BF7D580020BCC90208B8
S315080091D0AEC202084ACB02085BCB02086ECB020875
S315080091E06422030874CB0208F4200020EC20002037
S315080091F0009A631C9342BFF6C7AE384618F0E9FDDD
S315080092000234E4B200287FF489AE019B654998448C
S3150800921098F8013003F003035A0111F802C0BCF1B3
S31508009220000F0ED143F0040302996A1C8A42BFF666
S3150800923075AE03207119324402358870EDB2937009
S315080092406CE68854F0E7019BDFF8589123449A7836
S3150800925093F801A054484AEA022A0FFA8AFACAF38E
S31508009260813839460CF01AFC09EB48135B784FEA4B
S31508009270481BD80703D5092F12D0042F10D09907F9
S315080092800AD45A0726D41B0729D4384618F0A1FD54
S3150800929030B1009B1C441BE00A2F01D0052FF0D1EA
S315080092A019F80B2009EB0B0342B1DA69023205D132
S315080092B04FF0FF323D48DA610CF0F0FBD944D9F89B
S315080092C01C30002B10DB99F80630033453FA84F46B
S315080092D0E4B223E60B2FE3D0062FE1D0D3E70C2F19
S315080092E0DED0072FDCD0D0E701333DD1009A3049D4
S315080092F030480CF0D3FB4FF00009DFF8C0B0019BF3
S315080093002D4813F809100CF0C9FB009B09F1010957
S31508009310994506D219F00F0FF1D158460CF0BEFB4D
S31508009320EDE726480CF0BAFB019BE11C1944CAF389
S315080093300D00FFF78BFB1B4B03EB4819C9F81C0004
S3150800934009F1100A0CA8FFF733FD53460C980D993E
S3150800935003C3BDF8382041461A80B9F81230B9F867
S31508009360102017480CF09AFBDFF838904FEA481A95
S3150800937009EB4818D8F81C30002B8ADB0CBF1148BB
S315080093801148D1440CF08AFBD9F81C100022FF2999
S31508009390A8BFFF210B20C9B209F026FA79E70B48C6
S315080093A0F4E500BFF420002098CB0208C2CB0208DF
S315080093B0DECB02085BCB02086ECB020864220308E8
S315080093C0ECCB02085FCC020882CC02089BCC0208D0
S315080093D038B590F81421044632B9164D2B780BB9D6
S315080093E06B7D4BB9002038BD134914480CF056FB69
S315080093F013480CF053FBF5E740F2C913B0F80821FF
S315080094009A42EFD10378002BECD0C9210D480CF015
S3150800941045FB2146284694F80A3111F8012BFFF737
S3150800942063FD08B10120DEE76B7C002BFAD0FFF75D
S3150800943003FDF7E744570020BFCD02085EC30208C4
S31508009440AEC20208CECC02082DE9F0479946037849
S3150800945006460C4692462BB14FF48571154A1648B6
S315080094600CF0CAFA4FF016083578144F4246002118
S3150800947005FB08701DF06EFF114B124ACAF8003042
S31508009480114B08FB05F5C9F80030089B0F491A600F
S31508009490099B7A191E600D235470B4FBF3F401235B
S315080094A053750B4A7C5511600A4951600A4A137074
S315080094B0BDE8F08754CA020815CE020844570020B2
S315080094C0D1930008BD8E0008CD8D0008FB1D02084B
S315080094D0EC200020E91D02087D5800202DE9F843FC
S315080094E098460023DDF8249094460D46024689F8EE
S315080094F0003040B91D4C23780BB9667D5EB900264D
S315080095003046BDE8F8831A491A480CF0C7FA1A48D3
S315080095100CF0C4FAF3E709780329F0D8174B184872
S315080095205F5C3A468CF800700CF0B8FA12480CF0FA
S31508009530B5FA43463A4629462046FFF7D5FC0028A1
S31508009540DDD1637C002BDAD09DF82820934205D91B
S315080095504FF4C9710B4A06480CF04EFA627C0A4968
S31508009560089889F800201DF000FFC9E74457002035
S315080095708CCD02085EC30208AEC2020841CE0208BC
S315080095801ECD02084BCD020846570020F0B50578D7
S3150800959085B02DB14FF4BE711F4A20480CF02CFA45
S315080095A04FF488740E2200210DF102001DF0D2FE40
S315080095B003231B4F8DF8083004FB0574A388207914
S315080095C05BBAADF80030FDF735F9022806D194F8F4
S315080095D00C31032B04BF002384F80C314FF4887632
S315080095E006FB0576B3798BB1737B57F825404FF4A4
S315080095F07A756BB11CF066FAF38905FB03440444DB
S31508009600B4FBF5F56846019508F028FA05B0F0BDF3
S31508009610738905FB0344F3E745CE0208A2D0020886
S3150800962074210020F0B5067887B02EB14FF49C71EE
S315080096303F4A40480CF0E0F91CF044FA4FF48873AE
S315080096403D4C03FB06435A7B44F826001AB1002218
S315080096505A730AF0BFFE4FF488777743E5192879DD
S31508009660FDF7E8F8022811D0032385F80C314FF4EA
S31508009670887303FB06442079FDF7DCF8022843D0FB
S31508009680207907B0BDE8F040FEF7D8B895F80C3158
S31508009690022B1AD0032BEAD0012B297B36D10029BD
S315080096A018BF042029792A7E039154F826100092BF
S315080096B0003ACDE9010118BF0122E02107F119039B
S315080096C02344062008F066FD13E007F58773002794
S315080096D02A793946039254F826200197029295F87A
S315080096E00D210320009223443A4608F053FD85F8DD
S315080096F00D7148B94FF4887303FB064494F80C318E
S31508009700032B18BF84F80C0107B0F0BD002918BF59
S3150800971004200A4B012205932B791146039354F82A
S315080097202630CDE901030423009305ABC9E700BF42
S3150800973045CE02087AD002087421002011121314AB
S315080097402DE9F04F90F81481814691B0B8F1000FD9
S315080097500BD0A8484246A8490CF0A0F9A7480CF037
S315080097609DF9002011B0BDE8F08FA54D2B79002B8F
S315080097700CBF4446FF24FF2C8DF81E40F1D04FF451
S315080097808877674305EB070B9BF80620002AE8D085
S3150800979090F8132182B108F085F99BF8052090F816
S315080097A0D0309A4203D00DF11E00FFF7EFFE0121DB
S315080097B00020FEF7D7FCD4E790F80A210D2A40F0DE
S315080097C0CA809BF81520002A00F0B680B0F9063149
S315080097D09BF80410019390F9063100F101080293F1
S315080097E0B0F9043107F1190A039390F8103105EB23
S315080097F00A060093D0F80C3109A80493FDF7F6FB86
S315080098000D9A22B9BBF816200132ABF816204FF490
S315080098108873DFF8EC9108AA03FB0494009823796F
S315080098200DF11F01FDF748FC9DF81F10404604F096
S3150800983013FD9DF81F108346404618F083FF0590D8
S315080098402079FDF759FC049B4FF0010CB3FBF0F2AD
S31508009850412084F818C005F80A00207E009B00EB1A
S315080098600C05257606F800C0207EE58A844484F82F
S3150800987018C03554257EE08A05F1010C000A84F8E3
S3150800988018C07055207E1837451C25763254207E20
S315080098904F44451C2576150A3554207E120C451C66
S315080098A025763254227E0025501C2076B354227E1B
S315080098B0019B501C2076B354207E421C2276029BC4
S315080098C005991A123254227E039B501C2076B354F3
S315080098D0227E4FEA9B33501C2076B154227E4046A6
S315080098E0511C217606F802B0227E511C21764FEAD9
S315080098F01B21B154227E511C21764FEA1B41B154DB
S31508009900227E511C2176B354227E9DF81F103244C4
S3150800991005F002F9227E3B490732D2B23A4822764E
S315080099200CF0BCF8394E237EAB4207D837480CF00A
S31508009930B5F8012384F80C31012013E72A0703D16F
S3150800994015B130460CF0AAF817F8011F30480CF08C
S31508009950A5F80135E7E790F8112190F80911002AD2
S315080099603FD100293FF4FDAE90F80821002A3FF4C4
S31508009970F8AEBBF808200132ABF8082099F80811B0
S3150800998000293FF4EEAE23480CF088F899F8083120
S31508009990E02BD1D14FF488724FF0000A02FB045233
S315080099A099F8007082F818A0002F00F009814E4639
S315080099B03A4619491448DFF854B00CF06FF8CDF858
S315080099C0009016F8011F12480AF1010A0CF066F811
S315080099D0BA4523D21AF00F0FF3D158460CF05EF8A9
S315080099E0EFE7BBF808200132ABF8082000293FF45E
S315080099F0B8AEC3E75EC302084BD00208AEC202087F
S31508009A007421002060CE02085BCB0208642203089A
S31508009A106ECB0208862C030877CE02084FF48876A8
S31508009A2066439D480CF03AF899F801B006F1190A10
S31508009A30BBF1220FAA4427D8BBF1220F36D8DFE89C
S31508009A401BF08B00AC00B400D200E20000010B0151
S31508009A5018014501760191013500350035003500BC
S31508009A603500350035003500350035003500350040
S31508009A703500350035003500350035003500350030
S31508009A8035009B01B101C301BBF1530F00F0D8812A
S31508009A9034D8BBF1440F00F0D5812AD8BBF1400F6A
S31508009AA000F0AB81BBF1420F00F0B2815A467B4908
S31508009AB07B480BF0F3FF7B480BF0F0FF3A467A49F8
S31508009AC07A480BF0EBFF0026DFF8FC91DFF8C8A117
S31508009AD0009B484613F8011F013600930BF0DEFF82
S31508009AE0BE4280F024823307F2D150460BF0D6FFEF
S31508009AF0EEE7BBF1520FD9D16D4848E0BBF17E0FB6
S31508009B0000F0A781BBF17F0F00F0AD81BBF17D0F9F
S31508009B10CCD1072F3AD101232E447373B9F80230FA
S31508009B202879F38199F8053099F806201B0203EB8A
S31508009B30024399F80420134464225343336199F885
S31508009B4007303375FCF78EFE0AF0F0FA96F9141012
S31508009B5030690AF03DFB33E0012F17D14FF48872C4
S31508009B6002FB0452117E481C107600200AF80100F8
S31508009B70117E481C107606200AF80100117E481C42
S31508009B8010760AF801704FF0010819E049480BF001
S31508009B9085FF44480BF082FF12E0012FF6D14648B4
S31508009BA00BF07CFF1BF088FF0AE0012FEED1287925
S31508009BB0FCF758FE00202979FCF7D0FE4FF0030881
S31508009BC04FF4887303FB045585F80C8107F06AFF88
S31508009BD06A7990F8D0309A423FF4AEAE0DF11E0085
S31508009BE0FFF7D4FCA8E6022FD0D199F80210022973
S31508009BF007D84FF4887303FB045318791AF050FEFC
S31508009C00DEE72E48C3E7022FC0D199F8023095F84F
S31508009C1004C08BB909AE3246294B03F1100E3746FC
S31508009C2018685968083303C773453E46F7D10321B8
S31508009C3060460AF0E7F8C3E761460020FCF72AFE0B
S31508009C40BEE7022FA2D199F802201AB9384606F0C3
S31508009C50AFF8B5E70120FAE7022F97D14FF48873DA
S31508009C6099F8021003FB0453164A32F811205A8158
S31508009C70A6E7F22F8AD899F802204FF48873012AAA
S31508009C8004D1002203FB04531A7399E7022A97D1D9
S31508009C90012203FB0453F7E7642203082ED00208C7
S31508009CA021CF0208AEC2020846CF02085BCB0208E3
S31508009CB0DACE02088CCE0208A4CE0208B6CE020876
S31508009CC050CF0208EED002086ECB0208F22F3FF6FC
S31508009CD05DAF4FF4887606FB04563079FCF758FEDC
S31508009CE0327E801AB84205D83079FCF751FE337EA9
S31508009CF0C31ADFB24FF4887202FB0452117E7B1E30
S31508009D00481C107608200AF801000021DBB209F188
S31508009D100109C8B283427FF636AF19F8010F167EDD
S31508009D200130771C177601310AF80600F1E7012F92
S31508009D307FF42CAF4FF4887303FB04531A7E511C2F
S31508009D40197609210AF802101A7E1989501C187604
S31508009D500AF80210197E1A89481C120A18760AF897
S31508009D60012010E7012F7FF411AF4FF4887300220A
S31508009D7003FB04531A8123E7012F7FF407AF4FF43F
S31508009D80887303FB045393F80D21022A3FF618AF94
S31508009D90511C83F80D111344022283F80E214FF04B
S31508009DA002080DE7012F7FF4F1AE4FF4887303FB29
S31508009DB0045393F80D21022A3FF602AF511C83F88B
S31508009DC00D1113440D22E8E7022F7FF4DFAE4FF49E
S31508009DD0887606FB045699F802003179FDF73AF9B8
S31508009DE096F80D31022B3FF6EBAE5A1C86F80D217C
S31508009DF01E44102386F80E31D1E7022F7FF4C6AE33
S31508009E0099F802302E44003B18BF01237375D7E634
S31508009E10022F7FF4BBAE2E44337E5A1C3276432281
S31508009E200AF80320337EF28A591C31760AF8032091
S31508009E30327EF38A511C1B0A31760AF80230A2E6F2
S31508009E403C48A4E6012F7FF4A1AE00232E44F382FA
S31508009E50B6E6012F7FF49AAE00202E443179B07110
S31508009E60FCF78AFF9EE6012F7FF490AE2E443079E8
S31508009E70FCF78EFD0C287FF6A3AE337E5A1C32768D
S31508009E800AF803B03079FCF7BFFF08903079FCF781
S31508009E90D5FF337E09905A1C327604220AF803202D
S31508009EA0337E5A1C327608220AF80320337E5A1C5F
S31508009EB0327600220AF80320337E591C31760AF8D6
S31508009EC00320337E5A1C32769DF820200AF8032098
S31508009ED0337E5A1C32769DF821200AF80320337EF9
S31508009EE05A1C32769DF822200AF80320337E5A1C23
S31508009EF032769DF823200AF80320337E5A1C3276E0
S31508009F000AF80300337E5A1C3276C0F307220AF891
S31508009F100320337E5A1C3276C0F307420AF8032020
S31508009F20337E000E5A1C32760AF803002BE60248E6
S31508009F3030E600BFF9CE0208642203082DE9FF4780
S31508009F409846037806460F46924623B1D421334AEB
S31508009F5033480BF051FD4FF4887296F80090314C57
S31508009F6002FB09F5281D002120441DF0F3F92E4BAC
S31508009F702E4ACAF800302E4B2544C8F800300C9BF0
S31508009F801A600D9B1E600D26B7FBF6F630466F71FC
S31508009F902E71FCF70BFF002814BF01230023AB71B9
S31508009FA037D024480BF07AFD23480BF077FD297942
S31508009FB022480BF073FD20480BF070FD1D480BF08E
S31508009FC06DFD1D480BF06AFD4FF4887303FB0944C9
S31508009FD00523002703256381A379277384F80C5189
S31508009FE0A3B130460BF0F0FC0E2239460DF1020003
S31508009FF01DF0B0F9A3888DF808505BBAADF80030AB
S3150800A0001BF05EFD0190684607F028FD04B0BDE828
S3150800A010F08729790A480BF041FDD5E761CF020898
S3150800A020CAD0020874210020419700088D950008BF
S3150800A0302596000884CF0208AEC20208C2CF0208DD
S3150800A040FFCF02082DE9F04116461A1F032A0446D7
S3150800A0500F4686B00ED9093B032B0BD93D4D2A78FE
S3150800A060824207D162B13C483C490BF017FD3C4897
S3150800A0700BF014FD4FF00008404606B0BDE8F0812D
S3150800A08095F80280B8F1000FF4D0097835480BF03E
S3150800A09005FD33480BF002FD3B78022BEAD8324A1D
S3150800A0A0012BD25C327012D0022B2FD00123ADF8CF
S3150800A0B0044003248DF806309DF838309C423AD97E
S3150800A0C040F2F521294A25480BF096FC33E040F288
S3150800A0D001530224264FADF8043001AD57F8043B6E
S3150800A0E00DF103020DF102010DF1010098479DF8EB
S3150800A0F001300334AB709DF80230112CEB709DF8DB
S3150800A100033005F103056B70E8D1D5E7797895F842
S3150800A110800085F88710884298BFFF23BA78914255
S3150800A12088BFFF237D2A85F8882085F8843002D9E0
S3150800A1307D2385F88830224601A90C981DF015F96B
S3150800A1400D9B0C481C7031780BF0A8FC04480BF0EA
S3150800A150A5FC91E77E5800205EC302081DD20208BE
S3150800A160AEC2020804D10208C0D2020821D10208F0
S3150800A170ACD2020845D102082DE9F04F90F882309A
S3150800A1800446DA07A5B06FD50078FCF701FC94F809
S3150800A1908430C5B2FF2B40D14FF602730226ADF8C4
S3150800A1A0103006F19003771C0DEB030694F8833004
S3150800A1B04748FFB206F8803C0DF110090BF06EFC1B
S3150800A1C03A46444944480BF069FCC846002F62D118
S3150800A1D042480BF063FC1BF075FC4FF4FA61064627
S3150800A1E000201BF090FC06440220237801220393EA
S3150800A1F0E1214346CDE90070029607F0CBFF98BBF4
S3150800A20094F88430FF2B4CD184F8840094F882307B
S3150800A21023F0010384F8823026E094F88160AA1EB0
S3150800A220B24201DD012B22D194F8851094F88620DC
S3150800A2300123521AB24228BF3246033DEDB2AA4262
S3150800A24028BF2A4684F8843002238DF8111003317A
S3150800A25021440DF11200D5B28DF810301DF085F8A5
S3150800A260AE1CF6B2002E9CD125B0BDE8F08F324662
S3150800A270E11C04A81DF079F8F4E758460BF00EFC2B
S3150800A280504619F8011B01360BF008FCB7429FD956
S3150800A2903307F2D0F4E70026DFF844A0DFF83CB035
S3150800A2A0EEE7012BB2D194F8853094F881202B443F
S3150800A2B0521BDBB2D2B284F8853084F881201AB1F9
S3150800A2C094F886209A42CFD8002384F884309DE7F4
S3150800A2D06AD1020895D102085BCB020864220308FA
S3150800A2E06ECB02087FB505460E46144600210E229F
S3150800A2F00DF102001DF02EF8032368468DF8006064
S3150800A3008DF801508DF80830019407F0A7FB28B1A5
S3150800A31040F21B21024A03480BF06EFB04B070BDE5
S3150800A320FEC9020866D202082DE9F04FDFF8F4816B
S3150800A33090F8144198F800200546A24293B007D138
S3150800A34052B1714871490BF0A9FB71480BF0A6FB95
S3150800A350002013B0BDE8F08F98F80230002BF7D034
S3150800A36040F2E113B0F808219A42F1D12E46E121D4
S3150800A37068480BF093FB95F80A3116F8017B0493AD
S3150800A380D5F800313A46059398F88430624963480F
S3150800A390069388F884400BF081FB002F44D160486F
S3150800A3A00BF07CFB0023A146254688F889307B1EE6
S3150800A3B0DFF870810793079BA3423BDC594C94F85E
S3150800A3C08430022B40F08B8094F88930012B7ED1A3
S3150800A3D084F8843094F8873084F8853094F8883087
S3150800A3E084F8863094F8803084F8813094F8823086
S3150800A3F043F0010384F882301BF062FB6178024661
S3150800A4002078FFF76FFF2FE050460BF047FB4846D2
S3150800A41015F8011F0BF1010B0BF040FB5F45BED988
S3150800A4201BF00F0FF0D0F2E7A346DFF80491DFF830
S3150800A430F0A0ECE73257335D002A06DA99466A1C23
S3150800A44001344544EB70E4B2D5B2002309F07F012C
S3150800A45004298DF826308DF8273007D932480BF0B5
S3150800A4601DFB2B480BF01AFB012072E798F8893080
S3150800A4700DF1280A013388F88930059BCDF800A02C
S3150800A48003931E2302930DF126030193274B98F895
S3150800A490000053F821B00DF12702049B3119D84763
S3150800A4A00028E1D09DF8262005EB020BBBF17C0FB6
S3150800A4B008DC1E2A06D8E81C514640441CF055FF05
S3150800A4C05FFA8BF59DF827302344DCB273E7069BC9
S3150800A4D084F8843094F88230002BC5D08CE7002BA2
S3150800A4E080D13E4416F8012C84F885307D2302F08D
S3150800A4F0030284F8832084F8863084F8805084F830
S3150800A5008150002DE6D071E75EC3020839D20208F1
S3150800A510AEC202089DD10208E3D102085BCB02084D
S3150800A520642203087E580020F0D1020898D2020857
S3150800A5306ECB02082DE9F8439846037805460C4683
S3150800A54091462BB14FF4AE71134A14480BF054FAE6
S3150800A5508A272D78124E3A4605FB076300211846CE
S3150800A5601CF0F8FE0F4A1049C9F800200F4A7D432F
S3150800A570C8F80020089A73191160099A10600D220C
S3150800A5805C70B4FBF2F401229A707F22745583F84A
S3150800A5908620BDE8F88300BF54CA020873D20208B1
S3150800A5A07E58002029A30008291E020879A1000860
S3150800A5B0F0B5836A044613F00105067885B036D0EF
S3150800A5C09A480BF06BFA6FF00106A27C98499948F5
S3150800A5D00BF064FA984FA51C361BA27C73199A4295
S3150800A5E01FD896480BF05AFAA67C1BF06BFAA18C7A
S3150800A5F0054600201BF087FA23460544022013F877
S3150800A600032BC8210392CDE900600122029507F0C9
S3150800A610C1FD0023A374A36A23F00103A36205B056
S3150800A620F0BD384615F8011F0BF038FAD5E713F0D8
S3150800A6301E0FC3F343023AD113F4F07F4FEA5311C6
S3150800A640C3F343156BD0C8075ED51546052134E01C
S3150800A650691C23FA01F2D70728D501228A4023EA82
S3150800A6600203EDB2A3620022754F11463046FCF78D
S3150800A670D5FF07EB451731460120FCF749FA334663
S3150800A68028463A7FB969FCF7C7FA294632460E20AA
S3150800A69008F0AAF82946BB693A7F6A480BF0FEF922
S3150800A6A0002325442B7501232B77B8E70D46042D87
S3150800A6B0CED10025D7E70125062101228A4023EAC3
S3150800A6C00203A362294660480BF0E8F9314628469A
S3150800A6D0FCF7CAFA0021254404F113032977173435
S3150800A6E05A7A13F8010F02441144A342C9B2F7D1AA
S3150800A6F0002994D132460C2005B0BDE8F04008F098
S3150800A70073B802250721D8E75906D4D41A06F8D40F
S3150800A710DF05C3F30025D5D503250821CDE713F4B6
S3150800A720F05F4FEA5321C3F3432241D0C8072BD524
S3150800A730092101E001250A2101228A4023EA0203B0
S3150800A740A3623046FCF7A0FC48B33D4F009607EBE2
S3150800A75045177B7F28463A7FB969FCF7A7FA294649
S3150800A76032460F2008F040F82946BB693A7F374839
S3150800A7700BF094F9002325442B76012385F8203025
S3150800A7804DE702250B21D7E75905D3D41A05F8D486
S3150800A790DF04C3F30035D4D503250C21CCE72C48B8
S3150800A7A00BF07CF92B4805B0BDE8F0400BF076B904
S3150800A7B013F4F03F4FEA53313FF431AFCD0729D5B3
S3150800A7C015460D2101E001250E2101228A4023EAC2
S3150800A7D00203A362294620480BF060F93146284651
S3150800A7E0FCF78CFA0021254404F1170385F820109C
S3150800A7F01B345A7A13F8010F02441144A342C9B212
S3150800A800F7D100297FF40BAF32460D2074E70225F5
S3150800A8100F21DAE75804D6D41904F8D4DA03C3F3B7
S3150800A8200045D7D503251021CFE700BFC3D20208BC
S3150800A83001D302085BCB02086ECB02086422030828
S3150800A8408822002008D302087ED30208A9D302086A
S3150800A85020D40208AEC2020873D4020830B50546F1
S3150800A86085B00C460E2200210DF102001CF072FD87
S3150800A8702B885BBAADF8003003238DF808301BF03F
S3150800A8801FF9AB6A044443B107F00CF96B7800EB87
S3150800A890031043689C4228BF1C466846019407F08B
S3150800A8A0DDF828B140F23331024A03480BF0A4F828
S3150800A8B005B030BDFEC9020815D702082DE9F74FC5
S3150800A8C0012506780446C5743046FCF7E9FA0028DF
S3150800A8D03FD01BF0F7F83346694601AAFCF7C0FAE1
S3150800A8E00023E3740020DFF8F8B18046DC466FF0F9
S3150800A8F00045009904F1130E1EF8013F73B1DCF808
S3150800A9001030A3EB0109A94508DADCF81420134432
S3150800A9105B1A002BC4BF4D465FFA80F80130042845
S3150800A9200CF1200CE8D16FF000439D4223D020465D
S3150800A93025EAE571FFF792FF002D19DC08F10108F9
S3150800A9405FFA88F8012202FA08F2A36A1343A3629F
S3150800A9500EE069463046FDF72DFC002814BF01239A
S3150800A9600023E374BED02A4602213046FCF76EFC6B
S3150800A97003B0BDE8F08F0020A8468146584A04F186
S3150800A9801B0E1EF8013F43B1D2E904373B445B1A5C
S3150800A9904345BCBF98465FFA80F90130042802F1A6
S3150800A9A02002EED16FF00043984514D028EAE87AE1
S3150800A9B051464C480BF072F851462046FFF74EFFB9
S3150800A9C0B8F1000F07DC0122A36A09F1050902FAAA
S3150800A9D009F21343A362002080460099404A04F115
S3150800A9E0170E1EF8013F63B11369A3EB0109A945C8
S3150800A9F007DA57693B445B1A002BC4BF4D465FFA1A
S3150800AA0080F80130042802F12002EAD16FF00043F1
S3150800AA109D423AD03046FCF737FB8146A0B9B5F5DA
S3150800AA20807F2F46B8BF4FF48077A7F580773946E1
S3150800AA302D480BF033F831464846FCF769F80121F2
S3150800AA403046FAB2FCF7EAFD3046FCF71DFB50B972
S3150800AA50862D08DC1E2125480BF020F81E212046ED
S3150800AA60FFF7FCFE84E7872DB8BF8725873D294673
S3150800AA701E480BF013F829462046FFF7EFFE002D77
S3150800AA807FF476AF08F109085CE70022164604F160
S3150800AA901F0C1CF8013F3BB1DBE9043003445B1A89
S3150800AAA0AB42BCBF1D46D6B20132042A0BF1200BBD
S3150800AAB0EFD16FF000439D423FF45AAF25EAE577A0
S3150800AAC039462046FFF7CAFE394609480AF0E6FF26
S3150800AAD0002D3FF74DAF01220D36B24035E700BFD6
S3150800AAE0882200209ED40208B6D40208F7D40208A9
S3150800AAF02DD502082DE9F04F90461A1F8DB0032A6E
S3150800AB000646029147D9093B032B44D9002484748D
S3150800AB102046FBF73DFF0E280FD82046FBF738FFE7
S3150800AB20C3B2002425460393454508D38F482146DA
S3150800AB30B4740AF0B3FF00202EE00F23F1E7029B5E
S3150800AB40595D052900F28C82DFE811F006001B002A
S3150800AB507900DD001801CB01039AA31C0135934245
S3150800AB60EDB2E1DA00213219D1700221621C56FADF
S3150800AB7082F2D1700122033456FA83F3E4B2DA7012
S3150800AB80D2E76B1C43450ADB414679480AF086FF43
S3150800AB9078480AF083FF01200DB0BDE8F08F012246
S3150800ABA0029B754F2B445B7803F00F0A631C5FFA10
S3150800ABB083FB3319DA700023194618460234E4B2C7
S3150800ABC03A787AB34AFA03F20130D207C0B229D5E5
S3150800ABD0039A04F1050E964524D801229A400A43A1
S3150800ABE0D1B23219D3707A6804F1010C56FA8CFC8A
S3150800ABF08CF8032004F1020C4FEA122956FA8CFC51
S3150800AC008CF8039004F1040C033456FA84F44FEAE2
S3150800AC10124956FA8CFC120E84F803905FFA8EF4E9
S3150800AC208CF803200133042B07F12007C8D1B3445D
S3150800AC3041EA00118BF803100235EDB274E705F10D
S3150800AC401D034345A0DA029BDFF82CA12B44D878D4
S3150800AC509A785F7802EB0022187907F0030702EB6F
S3150800AC60004258790AEB471102EB00624A600DF17F
S3150800AC70200E9A1D03F11609F44610685168083229
S3150800AC80ACE803004A45E646F6D1DA7D997D0AEB3B
S3150800AC90471B01EB02211A7E4FEA471901EB0241D5
S3150800ACA05A7E1E3501EB0261CBF80810D87E9A7ED3
S3150800ACB0EDB202EB0022187F5B7F02EB004202EB4B
S3150800ACC0036238460023CBF80C20FBF765FF002209
S3150800ACD0DBF804103846FBF741FF0022384608A97E
S3150800ACE0FBF77CFF0123039A0AF80930E31893421D
S3150800ACF0BFF61AAF0221321956FA83F30C44D17003
S3150800AD00E4B2DF7010E76B1C4345BFF63DAF029B0C
S3150800AD10039A2B445878631C00F0030093421649A3
S3150800AD204FEA40120EDA4FF0030C371987F803C0C2
S3150800AD3056FA83F78B5C023483F0010340EA8303F7
S3150800AD40E4B2FB7000278B1806EB00095F6199F8DF
S3150800AD501C308F5489F81470002B3FF46DAF3946B8
S3150800AD60FBF782FF89F81C7066E700BFC7D50208A3
S3150800AD70BCC90208AEC202088822002005F10A03EF
S3150800AD804345BFF601AF0122029BDFF8E4A258193A
S3150800AD90C3788178477801EB0321037907F0030725
S3150800ADA001EB034143790AEB471C01EB0361CCF83D
S3150800ADB0101083794FF0000903F00F039A40CCF87E
S3150800ADC0142090F808E0C3794FEA471B03EB0E23DB
S3150800ADD090F809E003EB0E434FF0640E0EFB03F305
S3150800ADE0CCF81830807A00F00F008CF81C00009020
S3150800ADF09C480AF053FE4846CDF81C90FCF750F8DC
S3150800AE00002864D01AF05EFE4B4608AA07A9FCF78C
S3150800AE1027F80AEB0B09079BD9F81020D9F8181060
S3150800AE20002004931AF80BA00592FCF7A1F999F8EB
S3150800AE301C1083460020FCF7A5F9039B211D9942A7
S3150800AE40844680F20B81DDE904329A428CBF0023E6
S3150800AE50012304228AF001000CF1010E000140EAE8
S3150800AE604310DEF1000C0BF1010A4CEB0E0C3843D3
S3150800AE70DAF1000B4BEB0A0B40EA8C00331940EA77
S3150800AE80CB00DA70C0B2621CA31C56FA82F2874263
S3150800AE90DBB2D07017D1D9F8102007983344121AAC
S3150800AEA06FF07F40824228BF0246DA70E31C56FAEA
S3150800AEB083F3100A3144120CD870CA700122631D3C
S3150800AEC03744DBB23A750B351C46EDB22CE608A9B9
S3150800AED008900490FDF76EF9049B00B9089B079348
S3150800AEE097E705F10A034345BFF64EAE8022029B5B
S3150800AEF0DFF87CA15819C378817890F8019001EBA6
S3150800AF000321037909F0030901EB034143790AEBAD
S3150800AF10491701EB03614FEA49130493029B396110
S3150800AF2005F1060C13F80C3003F00F039A40029B48
S3150800AF307A6113F80CC0CCF3021C87F81DC090F890
S3150800AF4008E0C37903EB0E2390F809E003EB0E4300
S3150800AF504FF0640E0EFB03F3BB61807A00F00F001E
S3150800AF6038770027CDE9000C3F480AF097FD3846A8
S3150800AF700797FBF795FF8346002865D01AF0A2FDD0
S3150800AF803B4608AA07A9FBF76BFF049B00200AEBC0
S3150800AF90030B079BDBF818100593049BDBF810706E
S3150800AFA01AF803200492FCF7E3F89BF81C10824673
S3150800AFB00020FCF7E7F8039B211D994284464DDAE9
S3150800AFC0059B049A9F428CBF002001200CF10103C7
S3150800AFD082F001024001D3F1000C40EA02100AF1A6
S3150800AFE001024CEB030CD2F1000A4AEB020A0522D5
S3150800AFF040EA090040EA8C00331940EACA00DA70D0
S3150800B000C0B2621CA31C56FA82F28145DBB2D0702C
S3150800B0107FF459AFDBF8102007983344121A6FF003
S3150800B0207F40824228BF0246DA70E31C56FA83F351
S3150800B030100A3144120CD870CA700122631DB1443B
S3150800B040DBB289F818203EE708A90890FDF7B2F8A0
S3150800B05010B9089B079398E75B46FBE7234632E758
S3150800B060024893E545D502086DD5020899D5020828
S3150800B070882200202DE9F843284E90F814313578B7
S3150800B08004469D4208D155B125482A4625490AF065
S3150800B09005FD25480AF002FD0020BDE8F883B378CF
S3150800B0A0002BF9D0B0F80831B3F5E47FF4D1027873
S3150800B0B0002AF1D01D491E480AF0F0FC2746DFF8A1
S3150800B0C07480DFF874902378AB420ED819480AF0DA
S3150800B0D0E5FC214694F80A3111F8012B0F48FFF7D1
S3150800B0E009FD014670B10120D7E72B0703D115B139
S3150800B0F040460AF0D3FC484617F8011F0AF0CEFC72
S3150800B1000135E0E7B37C002BEDD00448FFF7A6FB3A
S3150800B110B36A43F00103B362E5E700BF08230020E2
S3150800B1205EC30208D5D60208AEC20208EBD50208ED
S3150800B1305BCB0208642203086ECB02082DE9F84FA0
S3150800B1409846DDE90ABA037805460C4691462BB1BE
S3150800B1504FF4AB71194A1A480AF04EFC2C222D7886
S3150800B160184F15FB02F6F319002118461CF0F2F8E1
S3150800B1702C2255430D2214497B19C9F8001013498E
S3150800B180C8F800101249CBF80010CAF800005C7025
S3150800B190B4FBF2F401227C55002406F11400214682
S3150800B1A09A7038441022DC741CF0D4F82146BDE8A5
S3150800B1B0F84F802207481CF0CDB800BF54CA0208D1
S3150800B1C03DD702080823002075B00008B1A500087D
S3150800B1D0BDA80008882200202DE9F84398460023D8
S3150800B1E0DDF82490224C89F80030944622780D46E2
S3150800B1F0824207D152B11F481F490AF04FFC1F4827
S3150800B2000AF04CFC00263046BDE8F883A678002EE6
S3150800B210F8D009780529F5D8194B1A485F5C3A46DB
S3150800B2208CF800700AF03AFC14480AF037FC4346DA
S3150800B2303A4629462046FFF75DFC0028E2D1A37C62
S3150800B240002BDFD09DF82820934205D940F2F32140
S3150800B2500D4A09480AF0D0FBA27C0C49089889F8DF
S3150800B26000201CF082F800210148FFF7F7FACAE728
S3150800B270082300205EC30208A9D60208AEC2020847
S3150800B28072D7020839D6020865D602080B230020B1
S3150800B29070B58C21044690F82857D0F85C0701FB56
S3150800B2A00541D0F808311C31984728B14FF483710D
S3150800B2B0214A22480AF0A0FB0221D4F85C0716F0BE
S3150800B2C0EFFD28B140F207111D4A1C480AF094FB0D
S3150800B2D0D4F85C0705F52D7205F5A773C66C34F826
S3150800B2E0122054F823100068B04728B14FF484712F
S3150800B2F0144A12480AF080FB182303FB0545D5F8C3
S3150800B30084641AF0DFFB361A002EF8DC1AF0FEFB0E
S3150800B31001201AF0FAFBD4F85C371A6A18689047C5
S3150800B32028B14FF48971084A04480AF065FB1AF0F7
S3150800B330C9FBC4F8F00670BD78D70208FFEA020810
S3150800B340C5D7020815D802087FD80208F8B58C2197
S3150800B350044690F82857D0F85C0701FB0541D0F859
S3150800B36008314831984728B140F24D11194A1A4810
S3150800B3700AF042FBCC21D4F85C0716F091FD28B1FF
S3150800B3804FF4A771154A14480AF036FB182707FB2D
S3150800B3900547D7F884641AF095FB361A002EF8DCB0
S3150800B3A01AF0B4FB00201AF0B0FB8C2202FB05450C
S3150800B3B0D4F85C37696F5A6A1868904728B14FF411
S3150800B3C0AC71074A04480AF017FB1AF07BFBC4F86D
S3150800B3D0F406F8BDB2D8020875EA0208FFD80208D2
S3150800B3E092D90208F8B58C21044690F82857D0F867
S3150800B3F05C0701FB0541D0F804314831984728B16C
S3150800B4004FF4B171194A1A480AF0F6FA8C21D4F8A1
S3150800B4105C0716F045FD28B140F26311154A144839
S3150800B4200AF0EAFA182707FB0547D7F884641AF0E2
S3150800B43049FB361A002EF8DC1AF068FB00201AF0D1
S3150800B44064FB8C2202FB0545D4F85C37696F5A6A9F
S3150800B4501868904728B140F26D11074A04480AF067
S3150800B460CBFA1AF02FFBC4F8F406F8BDECD902089B
S3150800B47048EA020839DA020892D902082DE9F341A6
S3150800B4808C2690F82857D0F85C3715FB06F606F197
S3150800B4901C07074404463946D3F8C820186890475D
S3150800B4A028B14FF49871324A32480AF0A5FA8C232B
S3150800B4B003FB0543D4F85C079A6AD0F8488093F9E9
S3150800B4C030100068C04728B14FF499712A4A2948B4
S3150800B4D00AF092FA40F20241D4F85C0716F0E0FC52
S3150800B4E028B140F23511254A22480AF085FA8C23FC
S3150800B4F003FB054305F52D7134F81110D4F85C07E4
