S01D00006D61696E5F706572696F646963616C5F75706C696E6B2E733337C5
S3150800000000040020C1DC0008A9BE0108A9BE010839
S31508000010A9BE0108A9BE0108A9BE0108A9BE010812
S31508000020A9BE0108A9BE0108A9BE0108F11802085F
S31508000030A9BE0108A9BE010895180208C31D020831
S31508000040A9BE0108A9BE0108A9BE0108A9BE0108E2
S31508000050A9BE0108A9BE0108A9BE0108A9BE0108D2
S31508000060A9BE0108A9BE0108A9BE010849060008DB
S3150800007039060008A9BE0108A9BE0108A9BE0108DB
S31508000080A9BE0108A9BE0108C5630108A9BE0108E1
S31508000090A9BE0108A9BE0108C5E70008A9BE01084E
S315080000A0A9BE0108A9BE010869E3000841E30008E2
S315080000B0A9BE0108A9BE0108A9BE0108A9BE010872
S315080000C0A9BE0108A9BE0108A9BE0108A9BE010862
S315080000D0A9BE0108A9BE0108A9BE0108A9BE010852
S315080000E0A9BE0108A9BE0108A9BE0108A9BE010842
S315080000F0A9BE01081BD20108A9BE0108A9BE0108AC
S31508000100A9BE0108A9BE0108A9BE0108A9BE010821
S31508000110A9BE0108A9BE0108A9BE0108A9BE010811
S31508000120A9BE0108A9BE0108A9BE0108A9BE010801
S31508000130A9BE0108A9BE0108A9BE0108A9BE0108F1
S31508000140A9BE0108A9BE0108A9BE010821380108EF
S31508000150A9BE0108A9BE0108A9BE0108A9BE0108D1
S31508000160A9BE0108A9BE0108A9BE0108A9BE0108C1
S31108000170A9BE0108A9BE0108A9BE010825
S3150800017C194A5AB3194BDB6913F0040F29D110B479
S3150800018C0AE003EA00048C4210D0013AB2B1134BD0
S3150800019CDB6913F0040F14D110F0010FF1D1104CD8
S315080001AC1C40002CEDD06FF001000CE00C4A1A40F4
S315080001BC0AB9002007E06FF0010004E06FF00200B6
S315080001CC01E04FF0FF305DF8044B70476FF002000A
S315080001DC70474FF0FF307047809698000000035028
S315080001EC020001000D4BDB6913F4803F12D170B588
S315080001FC0A4B03F580560124F46003F500552C646C
S3150800020C4FF480721A6100212046FFF7B1FF34645F
S3150800021CEC6070BD6FF00100704700BF0000035022
S3150800022C38B50446C0F30C03FBB9154B4FF48032B2
S3150800023C9A6603F51C33DD69154041F67132DA63AB
S3150800024C03F580520121D1605C6102221A610021FA
S3150800025C2120FFF78DFF70B10A4B0122DA601DB120
S3150800026CA3F500530022DA6338BD40F21A2106487A
S3150800027C00F096F8D9E700212120FFF779FFEBE784
S3150800028C0090005000200350C887020838B51A4B56
S3150800029C5861DB6913F0040F2AD10C4654F8041B79
S315080002AC154B9961151F06E0214651F8042B124B84
S315080002BC9A61043D0C465DB108210846FFF758FFC4
S315080002CC03460028F0D00C4A04211161184638BDA3
S315080002DC094B04221A6100212120FFF749FF034626
S315080002EC0028F3D100212120FFF742FF0346EDE752
S315080002FC4FF0FF33EAE700BF000003502DE9F04149
S3150800030C0F461646054610F0030F14D116F0030FC8
S3150800031C17D1204B4FF480329A6603F51C33DA69F1
S3150800032C02F4803841F67132DA6303F58053012200
S3150800033CDA6000230EE040F26621174800F030F828
S3150800034CE4E74FF41A71144800F02AF8E1E725445B
S3150800035C2744361B8EB105F5005424F4FF5424F0BB
S3150800036C1F04641BB44228BF344622463946284625
S3150800037CFFF78CFF03460028E9D0084A0121D16013
S3150800038CB8F1000F03D0A2F500520021D16318462C
S3150800039CBDE8F08100900050C88702080020035081
S30D080003AC5FF800F0BFBE01086E
S315080003C0013800D0FCE770470348044B834202D04B
S315080003D0034B03B118477047C4470020C4470020A1
S315080003E000000000064B0749C91A891048BF0131A9
S315080003F0491003D0044B0BB101481847704700BF9A
S31508000400C4470020C44700200000000010B5064C71
S31508000410237843B9FFF7D8FF044B13B10448AFF369
S3150800042000800123237010BD6041002000000000F9
S315080004305C97020808B5054B1BB105490548AFF39B
S315080004400080BDE80840FFF7CDBF00BF00000000F0
S31508000450680400205C970208A3F5803A704700BF3D
S31508000460174B002B08BF134B9D46FFF7F5FF0021DE
S315080004708B460F461348144A121A1DF04EFB0E4BB4
S31508000480002B00D098470D4B002B00D09847002032
S31508000490002104000D000D48002802D00C48AFF3D7
S315080004A0008016F057FE200029001DF052F916F0BC
S315080004B04FFC00BF0000080000000000000000001C
S315080004C000040020000400208C41002000000000E9
S315080004D0000000000023062073B1704754B224B907
S315080004E0013353B15DF8044B70470228F8D0086809
S315080004F00A4908601046F3E710B4094A52F823106F
S315080005000A7A022AEAD9032AEAD1441EE4B2012C5D
S31508000510E6D90868014908601046E1E7800400202A
S31508000520C044002010B5A2B00DF1680C284C0FCCC1
S31508000530ACE80F0094E80F008CE80F000021159135
S3150800054016911791189119914FF480131593214B11
S315080005501993109111911291139114911E4B1093A6
S315080005601E4B14933C2201A81DF0D7FA01AC0DF1DD
S31508000570540CBCE80F000FC4DCF80030236006AC4E
S315080005800DF1400CBCE80F000FC4DCF80030236006
S31508000590134B0B9320230C9301238DF835308DF8DC
S315080005A03630104B0F93104B1AAA01A90F4813F0B7
S315080005B0FFFF044638B900214FF4E1301BF062FC16
S315080005C0204622B010BDBA2109481BF078FCF2E794
S315080005D0002A02083C00015B010010004400015B90
S315080005E084040020D4440020A40400202C06002003
S315080005F0C829020808B531B9084B1868036823B139
S3150800060015F020F801E0012900D908BD034B186848
S315080006100368002BF9D01CF060FFF6E7E8440020D9
S3150800062008B50349034815F065FCFFF77BFF08BDCD
S31508000630EC4400205806002008B5024814F0E8F8F3
S3150800064008BD00BF2C06002008B5024814F0E0F8E3
S3150800065008BD00BF2C06002008B503481BF056FC51
S3150800066002481BF053FC08BD382A0208202A020853
S3150800067008B50349034B18680FF05AF908BD00BFBF
S31508000680FC4400201C45002070B584B0044615467D
S315080006908DF80F10CBB2BBB99DF80F004FF4C4719B
S315080006A000FB01F101F5A1610A4E0DF10F0301935B
S315080006B000950023224631444FF4A16404FB0060F0
S315080006C004F0BEFC04B070BD034A692103480AF071
S315080006D05FFDE1E7E4060020502A0208AC2E020876
S315080006E010B5044638B94FF4A160064B00FB043038
S315080006F017F0B2FD10BD044A8B2104480AF048FDE4
S31508000700F1E700BFE4060020502A0208942E0208EA
S3150800071030B583B004460D46C9B921464FF4A160E9
S315080007201C4B00FB053017F09AFD054660BB012CF3
S3150800073025D000242CBB4FF4A16304FB03F3154A10
S31508000740D05818F08AF910BB0134E4B2F2E7124A1D
S31508000750922112480AF01CFDDFE7114B03EBC40295
S315080007605268009253F834300E4A32F81420E1B237
S31508000770062004F055FE0134052CEEDDD9E70024E9
S31508000780FAE7022004F07AFE284603B030BD0120BD
S31508000790F8E700BFE4060020502A02087C2E02086B
S315080007A0C02E0208F02E02082DE9F04184B0044656
S315080007B00D4616461F469DF83080B8F1000F12D137
S315080007C00B9B02939DF828300193009733462A46DF
S315080007D021464FF4A164074804FB080004F0E0F83A
S315080007E004B0BDE8F081044AC32104480AF0D0FCED
S315080007F0E6E700BFE4060020502A0208602E020839
S31508000800F8B504460D4616461F4653B933462A46DA
S3150800081021464FF4A164064804FB070017F0A9FB1C
S31508000820F8BD044AD42104480AF0B2FCEEE700BF3A
S31508000830E4060020502A0208402E020838B504466D
S315080008400D4641B921464FF4A160064B00FB053021
S3150800085004F054F838BD044ADA2104480AF098FC32
S31508000860F0E700BFE4060020502A02082C2E0208F2
S3150800087010B5044638B94FF4A160064B00FB0430A6
S3150800088017F074FB10BD044AE02104480AF080FC06
S31508000890F1E700BFE4060020502A0208142E0208D9
S315080008A010B5044638B94FF4A160064B00FB043076
S315080008B017F0CAFD10BD044AE62104480AF068FC90
S315080008C0F1E700BFE4060020502A0208F42D0208CA
S315080008D038B504460D4641B921464FF4A160064B8A
S315080008E000FB053017F0C7FB38BD044AEC21044865
S315080008F00AF04EFCF0E700BFE4060020502A020882
S31508000900D82D020838B505460C4649B94FF4A163F7
S3150800091003FB04F42946054B185917F0D2FE38BDD7
S31508000920034AF82103480AF033FCEFE7E4060020FF
S31508000930502A0208BC2D020810B5044638B94FF4EF
S31508000940A160064B00FB043004F076F910BD044A9A
S315080009504FF4857103480AF01BFCF0E7E406002013
S31508000960502A0208A82D020810B5044638B94FF4D3
S31508000970A160064B00FB043017F065FC10BD044A65
S315080009804FF48E7103480AF003FCF0E7E4060020F2
S31508000990502A0208882D020838B504460D4641B982
S315080009A021464FF4A160064B00FB053017F04EFCBC
S315080009B038BD044A4FF4917103480AF0E9FBEFE7A2
S315080009C0E4060020502A0208682D020810B50446DD
S315080009D038B94FF4A160064B00FB043017F027FC2A
S315080009E010BD044A4FF4947103480AF0D1FBF0E7AE
S315080009F0E4060020502A0208402D020838B50446AD
S31508000A000D4629B9294620460AF078FB38B938BD7B
S31508000A10044A4FF4A37104480AF0BAFBF2E74FF010
S31508000A20FF30F4E7502A0208282D020838B5044694
S31508000A300D4629B9294620460AF078FB38B938BD4B
S31508000A40044A40F25D1104480AF0A2FBF2E74FF0AF
S31508000A50FF30F4E7502A0208102D020838B504467C
S31508000A600D4631B92A46214600201AF07AF838B9D7
S31508000A7038BD054A4FF4B47104480AF089FBF1E71A
S31508000A804FF0FF30F4E700BF502A0208F82C02089E
S31508000A9038B504460D4631B92A46214601201AF0D2
S31508000AA060F838B938BD054A40F2731104480AF0AF
S31508000AB06FFBF1E74FF0FF30F4E700BF502A02085A
S31508000AC0E02C020810B5044640B94FF4A16303FBB5
S31508000AD004F4064B185917F0E3FE10BD044A4FF408
S31508000AE0CE7104480AF054FBEFE700BFE406002085
S31508000AF0502A0208AC2C020810B5044638B94FF43F
S31508000B00A160064B00FB043017F0A3FB10BD044A96
S31508000B104FF4DA7103480AF03BFBF0E7E4060020DD
S31508000B20502A0208842C020810B5044638B94FF436
S31508000B30A160064B00FB043017F0E9F910BD044A22
S31508000B404FF4E07103480AF023FBF0E7E4060020BF
S31508000B50502A0208542C020810B5044638B94FF436
S31508000B60A160064B00FB043017F08FFB10BD044A4A
S31508000B704FF42C7103480AF00BFBF0E7E40600205B
S31508000B80502A0208202C020808B54FF4A162034B2C
S31508000B9002FB003017F07DFB08BD00BFE40600200D
S31508000BA038B504460D4641B921464FF4A160064BB7
S31508000BB000FB053017F070FB38BD044A40F2D2211D
S31508000BC003480AF0E5FAEFE7E4060020502A02088F
S31508000BD0FC2B020810B5044638B94FF4A160064B41
S31508000BE000FB043017F063FB10BD044A4FF436715E
S31508000BF003480AF0CDFAF0E7E4060020502A020876
S31508000C00D02B020810B5044628B94FF4A160054B4D
S31508000C1000FB043010BD044A40F2E92103480AF0FB
S31508000C20B7FAF2E7E4060020502A0208B42B0208B5
S31508000C3010B582B00446D0B94FF4A1600F4B00FB43
S31508000C40043004F0ABFA019000209DF8043063F3F9
S31508000C5007009DF8053063F30F209DF8063063F30F
S31508000C6017409DF8073063F31F6002B010BD044AB1
S31508000C7040F2163103480AF08BFADDE7E406002055
S31508000C80502A0208942B020800B583B0B0B906F0C2
S31508000C9083F8019000209DF8043063F307009DF85F
S31508000CA0053063F30F209DF8063063F317409DF86F
S31508000CB0073063F31F6003B05DF804FB034A4FF483
S31508000CC0477103480AF064FAE1E700BF502A0208B0
S31508000CD0682B0208F8B504460D4616461F4653B952
S31508000CE033462A4621464FF4A164064804FB07000A
S31508000CF004F06EFAF8BD044A40F2233103480AF0BC
S31508000D0047FAEDE7E4060020502A02083C2B0208C1
S31508000D1010B5044638B94FF4A160064B00FB043001
S31508000D2017F0DBFA10BD044A4FF44C7103480AF079
S31508000D302FFAF0E7E4060020502A0208082B0208DA
S31508000D4070B504460D4616464AB92A4621464FF45A
S31508000D50A160064B00FB063017F0D7FA70BD044AAF
S31508000D604FF4527103480AF013FAEEE7E40600203E
S31508000D70502A0208E82A020810B5044638B94FF482
S31508000D80A160064B00FB043017F0D1FA10BD044AE7
S31508000D9040F24E3103480AF0FBF9F0E7E40600207A
S31508000DA0502A0208C02A020810B5044638B94FF47A
S31508000DB0A160064B00FB043017F0C2FA10BD044AC6
S31508000DC040F2773103480AF0E3F9F0E7E406002039
S31508000DD0502A0208942A020838B504460D4641B935
S31508000DE021464FF4A160064B00FB053017F078FA50
S31508000DF038BD044A40F27D3103480AF0C9F9EFE7E5
S31508000E00E4060020502A02086C2A020808B54FF4A6
S31508000E10A16C0CFB03FC13460A460146024850F82F
S31508000E200C0017F0DFFD08BDE406002008B54FF4F6
S31508000E30A162034B02FB003017F081F808BD00BF22
S31508000E40E406002008B54FF4A162034B02FB00300C
S31508000E5017F078F808BD00BFE406002008B54FF47F
S31508000E60A162034B02FB003017F0D1FA08BD00BFA0
S31508000E70E406002008B54FF4A162034B02FB0030DC
S31508000E8017F067FA08BD00BFE406002008B54FF45E
S31508000E90A162034B02FB003017F09CFA08BD00BFA5
S31508000EA0E406002008B54FF4A162034B02FB0030AC
S31508000EB017F0A1FA08BD00BFE406002008B54FF4F4
S31508000EC0A162034B02FB003017F098FA08BD00BF79
S31508000ED0E406002008B54FF4A162034B02FB00307C
S31508000EE017F08FFA08BD00BFE406002008B54FF4D6
S31508000EF0A162034B02FB003017F086FA08BD00BF5B
S31508000F00E406002008B506491160064A1A60029BE5
S31508000F10054A1A6006F0DAF9039B186008BD00BF97
S31508000F20D77901087D7A0108DB790108F0B585B023
S31508000F300C461646074630B9631EDBB2062B08D99F
S31508000F40012005B0F0BD154A812115480AF020F99F
S31508000F50F2E706F0BBF90025009501950295039581
S31508000F60C7EBC7030433DBB28DF800308DF8017088
S31508000F7003228DF8082000EB0310437A23438DF8EB
S31508000F8009301AF006FF30440190214605480AF058
S31508000F9059F9684606F076F92846D2E7502A020833
S31508000FA0142F0208FC2E020808B506491160064AE5
S31508000FB01A60029B054A1A6006F088F9039B1860B6
S31508000FC008BD00BF577B0108F97A0108F77A0108BE
S31508000FD030B585B00D460446B0B900230093019399
S31508000FE002930393C4EBC40303338DF800308DF8E2
S31508000FF0014003238DF8083001952046FFF738FC99
S31508001000022807D005B030BD044A7E2104480AF0FC
S31508001010BFF8E2E7684606F035F9F3E7502A020812
S31508001020342F020830B585B004460D4600200090DE
S31508001030019002900390C4EBC40302338DF800308C
S315080010408DF8014003238DF8083005211AF0D3FEE8
S3150800105001902046FFF7BEFD012810D1019B2B44C5
S3150800106001930199491B002915DD22460F480AF00C
S31508001070E9F8684606F006F990B905B030BD20468D
S31508001080FFF782FD0028E9D12046FFF735FD019BD1
S3150800109003440193E5E7214605480AF0D3F8E8E753
S315080010A0044AF52104480AF073F8E6E77C2F02089B
S315080010B0502F0208B42F02083030020810B584B049
S315080010C0044690F8703000EB03135878FFF7D0FB0E
S315080010D0022820D094F8703004EB031301215878C5
S315080010E0FFF704FF1AF059FE94F8703004EB031367
S315080010F05B78039302900021019100910D4B0A46FB
S31508001100012006F029FC70B994F8703004EB03133B
S3150800111000225A7205E008480AF094F807480AF0CF
S3150800112091F804B010BD94F8703004EB0314012351
S315080011306372F6E761410020EC2F020810300208BE
S3150800114008B506491160064A1A60029B054A1A60E4
S3150800115006F0BCF8039B186008BD00BF8B7B01082E
S31508001160BD1000088F7B010810B5044650B906F07B
S31508001170ADF8C4EBC403023300EB0310037A052B66
S3150800118006D010BD064A852106480AF001F8EEE7A2
S315080011901AF0FFFD01462046FFF744FFF1E700BFBE
S315080011A0502A02081830020890F80A31013BDBB2CF
S315080011B0012B01D90020704790F81431C3EB431274
S315080011C0C3EBC20206498A5C012AF3D090F81111D2
S315080011D0C3EB4312C3EBC203014AD154EAE700BF8B
S315080011E0740D002010B5044690F8703000EB031318
S315080011F01B7A022B14D094F8703004EB0312927AFF
S315080012006AB104EB03135B7A012B0DD094F87030A6
S3150800121004EB031462780021032006F005FF10BDD5
S31508001220012004F02BF9E6E706F0BCFC0028EDD116
S3150800123094F8703004EB03135A78C2EB4213C2EBEE
S31508001240C3030749CB5C012B04D00121032006F018
S31508001250EBFEE4E70221032006F0E6FEDFE700BF27
S31508001260740D00202DE9F04385B0044690F87030DF
S3150800127000EB03135A78314BC2EB4211C2EBC102A1
S315080012800021995490F8702000EB02125278C2EBB4
S315080012904211C2EBC102134493F8F45093F8F56077
S315080012A05F1C93F8F38093F8F630ABB34FF004095C
S315080012B01AF073FD94F8703004EB03135B7803930C
S315080012C00290CDF80490CDF800803B463246294678
S315080012D0022006F041FB014618BB94F8703004EB77
S315080012E0031301225A725B78C3EB4311C3EBC101A6
S315080012F0124A0A4492F8F5208AB11149C3EB4312FF
S31508001300C3EBC2030D4A134493F8F4200D4809F0C1
S3150800131099FF05B0BDE8F0834FF00209C8E70A490E
S31508001320ECE794F8703004EB031400236372074863
S3150800133009F088FF064809F085FFEAE7740D0020E2
S3150800134050300208683002085C300208843002080F
S315080013501030020808B506491160064A1A60029B51
S31508001360054A1A6005F0B2FF039B186008BD00BF66
S31508001370A911000865120008E51100082DE9F047D3
S3150800138084B00F4616461D46DDF830809DF8349029
S315080013909DF838A00446002839D100200090019015
S315080013A002900390BAF1000F37D103238DF8083065
S315080013B0B8F1000F37D0C4EB4413C4EBC30322487B
S315080013C0184480F8F3904A46414601301CF0B0FBB9
S315080013D0C4EB4413C4EBC3031B48184480F8F470E9
S315080013E080F8F56080F8F6501AF0D3FC0F9B184485
S315080013F001908DF80140C4EBC40401348DF8004017
S31508001400684605F03FFFC0B904B0BDE8F0870F4A4B
S3150800141095210F4809F0BCFEBFE702238DF8083076
S3150800142004F02CF8C4E7C4EB4412C4EBC202064B22
S315080014301344002283F8F320CAE7064AB221044877
S3150800144009F0A6FEE0E700BF740D0020502A020846
S31508001450F8300208C030020870B584B00478002C51
S3150800146038D10023009301930293039304EB0412EB
S315080014702E4B03EB02135A798DF8002003228DF8C0
S31508001480082018798DF80100FFF7F2F9022828D00C
S3150800149004EB0412254B03EB02139B79C3B1234BD0
S315080014A003EB02135B7B63BB204A52F8243004EB40
S315080014B0041402EB041252894FF47A7101FB0233C9
S315080014C01B4AA2FB03239B090193684605F0DAFE33
S315080014D004B070BD174A4FF4BE71174809F058FE9C
S315080014E0BFE704EB0412114B03EB021393F80C311C
S315080014F0032BCDD10D4B03EB0213002283F80C21ED
S31508001500C6E70A4E56F824501AF047FC2B1804EB87
S31508001510041406EB0416F2894FF47A7101FB0233C0
S31508001520034AA2FB03239B090193CEE76C0E002016
S31508001530D34D621010310208DC33020870B586B04C
S315080015400478002C4BD11AF028FC604B43F8240091
S3150800155004EB041203EB02135B7B002B46D104EB6E
S3150800156004125A4B03EB02131879FFF781F9022884
S3150800157007D004EB0412554B03EB0213032283F83E
S315080015800C2104EB0412514B03EB021393F80C31B4
S31508001590022B67D0032B00F08380012B2ED04C4BF7
S315080015A0059304EB0412494B03EB02131B7B002B38
S315080015B040F089800221454A04EB041302EB031329
S315080015C01B79039352F82430029301910423009364
S315080015D005AB01221146062006F0BEF92EE03D4A6B
S315080015E04FF49C713C4809F0D3FDACE7374B03EB4D
S315080015F0021300225A7308F005FDB0E7334D05EBD8
S315080016000211087E021E18BF012204EB04131B01F7
S3150800161010332B440933097B11BB02262B4D04EBEF
S31508001620041105EB01110979039155F8241002916B
S3150800163001960090E021062006F08EF970B904EBB9
S315080016400412224B03EB021393F80C31032B05D03B
S315080016501E4B03EB0213002283F80C2106B070BD63
S315080016600426DBE704EB04131B0103F58473174A0E
S31508001670134404EB041502EB05152979039152F876
S31508001680242002920026019695F80D210092063331
S3150800169032463146032006F05FF985F80D61CDE73D
S315080016A004EB0412094B03EB02131879FFF7E0F871
S315080016B00228D3D004EB0414044B03EB0413187963
S315080016C0FFF752FDCAE7042175E700BF6C0E00203C
S315080016D01112131410310208B43302082DE9F04729
S315080016E086B09846DDF838A000238AF800301746F9
S315080016F01AB9384606B0BDE8F08781460D46164643
S315080017009449954809F09EFD002404E0295D934814
S3150800171009F098FD0134A64208D914F00F0FF5D147
S31508001720002CF3D08E4809F08DFDEFE78C4809F0C0
S3150800173089FD2C787F2C00F25083DFE814F08000B6
S31508001740A300B400C800E30002012C013E015801C1
S315080017509601BC014E034E034E034E034E034E0341
S315080017604E034E034E034E034E034E034E034E03E3
S315080017704E034E034E034E034E034E034E03CA0159
S31508001780E201FB014E034E034E034E034E034E0386
S315080017904E034E034E034E034E034E034E034E03B3
S315080017A04E034E034E034E034E034E034E034E03A3
S315080017B04E034E034E034E034E034E034E031802CA
S315080017C04E032A024E0361024E034E034E034E0396
S315080017D04E034E034E034E034E034E034E034E0373
S315080017E04E03510259024E034E034E034E034E0357
S315080017F04E034E034E034E034E034E034E034E0353
S315080018004E034E034E034E034E034E034E034E0342
S315080018104E034E034E034E034E034E034E034E0332
S315080018204E034E034E034E034E034E034E034E0322
S315080018304E034E034E034E036F02AD02C202012F42
S3150800184018D19AF800305A1C8AF80020002208F8A5
S3150800185003209AF800305A1C8AF80020062208F855
S3150800186003209AF800305A1C8AF80020012208F84A
S3150800187003203EE73B4809F0E5FC3B4809F0E2FC5B
S31508001880274636E7012F07D0364809F0DBFC3648ED
S3150800189009F0D8FC00272CE7344809F0D3FC1AF0E5
S315080018A070FA002725E7012F07D02E4809F0CAFC51
S315080018B02D4809F0C7FC00271BE72D4C2079FEF7B9
S315080018C0EFFF21790020FFF767F8032711E7022FBA
S315080018D010D16978022905D899F8000018F075FF23
S315080018E0002706E7234809F0ADFC1F4809F0AAFCC3
S315080018F00027FEE61B4809F0A5FC1B4809F0A2FCD8
S315080019000027F6E6022F14D16F785FB91A4B02AC9E
S315080019100FCB84E80F0022460321154B187908F0EF
S3150800192071F8E6E6124B19790020FEF7D1FF002779
S31508001930DFE60C4809F086FC0B4809F083FC002713
S31508001940D7E6022F1FD16F78C7B9022003F096FD9C
S31508001950CFE600BF2C31020844310208583102088C
S31508001960B87F020860310208103002087831020890
S315080019706C0E00208C3102082C320208012003F07C
S315080019807DFD0027B5E6BE4809F05CFCBD4809F0B8
S3150800199059FC0027ADE6022F07D16A78BA4B33F80F
S315080019A01230A9F806300027A3E6B54809F04AFC24
S315080019B0B44809F047FC00279BE6F22F0FD86B784E
S315080019C0012B03D0022B05D0002792E6002789F8C1
S315080019D008708EE6012389F80830002789E6A848AA
S315080019E009F030FCA74809F02DFC002781E6F22F04
S315080019F033D899F80000FEF7E9FF9AF80030C31AC1
S31508001A009E420BD27C1EE4B29AF800305A1C8AF821
S31508001A100020082208F8032000221AE099F800009E
S31508001A20FEF7D4FFC7B29AF80030FF1AFFB2E9E70B
S31508001A30AB185B7801335942DBB2C9B258BF4B4287
S31508001A409AF80010481C8AF8000008F8013001329C
S31508001A50D2B2A242ECD301274BE6894809F0F2FB41
S31508001A60884809F0EFFB002743E6012F1BD19AF8B7
S31508001A7000305A1C8AF80020092208F80320B9F811
S31508001A8004209AF80030591C8AF8001008F8032038
S31508001A90B9F804309AF80020511C8AF800101B0A7D
S31508001AA008F8023025E6764809F0CCFB754809F0B7
S31508001AB0C9FB00271DE6012F03D10027A9F80470EA
S31508001AC017E66F4809F0BEFB6E4809F0BBFB002716
S31508001AD00FE6012F0DD199F80931022B01D90027FC
S31508001AE007E65A1C89F809214B44022783F80A712C
S31508001AF0FFE5634809F0A6FB624809F0A3FB002747
S31508001B00F7E5012F0ED199F80931022B01D90027E3
S31508001B10EFE55A1C89F809214B440D2283F80A215E
S31508001B200227E6E5564809F08DFB564809F08AFB78
S31508001B300027DEE5022F07D0514809F083FB5148FC
S31508001B4009F080FB0027D4E599F800106878FFF7BC
S31508001B5043F999F80931022B01D90027C9E55A1C1E
S31508001B6089F809214B44102283F80A21C1E5022F7E
S31508001B7007D16B78003B18BF012389F8113000277D
S31508001B80B7E53F4809F05EFB3E4809F05BFB0027D6
S31508001B90AFE5022F1CD19AF800305A1C8AF80020AB
S31508001BA0432208F80320B9F812209AF80030591C85
S31508001BB08AF8001008F80320B9F812309AF80020BD
S31508001BC0511C8AF800101B0A08F80230012790E514
S31508001BD02B4809F037FB2B4809F034FB002788E52A
S31508001BE02A4809F02FFB274809F02CFB002780E537
S31508001BF0274809F027FB234809F024FB002778E546
S31508001C00012F03D10027A9F8127072E51C4809F0C4
S31508001C1019FB1C4809F016FB00276AE5072F07D0B1
S31508001C20174809F00FFB174809F00CFB002760E579
S31508001C30012389F80930AA786B7803EB0223A9F8FF
S31508001C400A306A792B791B0203EB0243EA781344BC
S31508001C50642202FB03F3C9F80C3095F9063089F8BB
S31508001C6010300C4B1879FEF71BFE08F067F899F947
S31508001C701010D9F80C0008F0B7F8002739E500BFAE
S31508001C80603102081030020828340208B031020810
S31508001C90D03102086C0E0020012F07D0614809F0E8
S31508001CA0D1FA614809F0CEFA002722E5002789F81B
S31508001CB0027099F800103846FEF772FF1AF061F8BC
S31508001CC017E5012F07D0574809F0BCFA564809F01E
S31508001CD0B9FA00270DE599F80000FEF777FE0C28FB
S31508001CE001D8002705E59AF800305A1C8AF8002022
S31508001CF07F2208F8032099F80000FEF799FF019063
S31508001D0099F80000FEF7C0FF02909AF800305A1CB6
S31508001D108AF80020042208F803209AF800305A1C92
S31508001D208AF80020082208F803209AF800305A1C7E
S31508001D308AF80020002208F803209AF80030591C77
S31508001D408AF8001008F803209AF800305A1C8AF816
S31508001D5000209DF8042008F803209AF800305A1C41
S31508001D608AF800209DF8052008F803209AF8003024
S31508001D705A1C8AF800209DF8062008F803209AF8CD
S31508001D8000305A1C8AF800209DF8072008F803201E
S31508001D909AF800305A1C8AF800209DF8082008F89E
S31508001DA003209AF800305A1C8AF800209DF809206A
S31508001DB008F803209AF800305A1C8AF800209DF883
S31508001DC00A2008F803209AF800305A1C8AF80020DE
S31508001DD09DF80B2008F803208BE422461349144883
S31508001DE009F030FA104809F02DFA3246114912481E
S31508001DF009F028FA002404E0295D104809F022FABF
S31508001E000134A64208D914F00F0FF5D1002CF3D0EF
S31508001E100B4809F017FAEFE7094809F013FA002703
S31508001E2067E400BF60310208103002086433020814
S31508001E30F8310208203202084431020858310208F3
S31508001E40B87F020870B584B090F81441002C41D1CF
S31508001E500546FF238DF80F302346002B46D09DF804
S31508001E600F30FF2B3FD003EB03116B4A02EB011235
S31508001E709279002A37D095F81321002A44D195F88B
S31508001E800A210D2A53D095F811213AB995F8092156
S31508001E904AB395F80821002A00F0BB805E4A03EB96
S31508001EA0031102EB0111098903EB031302EB031279
S31508001EB04B1C138195F80931ABB195F8084194B1DB
S31508001EC02146564809F0BEF995F80831E02B6FD03F
S31508001ED0012408E022465249524809F0B3F952480B
S31508001EE009F0B0F90024204604B070BD03EB0311D5
S31508001EF0494A02EB01121279A24202D00133DBB23F
S31508001F00ABE78DF80F30AAE705F0E0F990F8701006
S31508001F109DF80F3003EB03133F4A02EB03135B797B
S31508001F208B42E0D00DF10F00FFF796FADBE703EBE3
S31508001F300311394A02EB0112527D0AB90124D2E78C
S31508001F40354A02EB01131A7E3849394809F07AF9FD
S31508001F5000240CE09DF80F3003EB03122E4B03EB25
S31508001F6002132344597E334809F06CF901349DF86D
S31508001F700F3003EB0313284A02EB03131B7EA3421D
S31508001F8008D914F00F0FE5D1002CE3D02A4809F040
S31508001F9059F9DFE7284809F055F99DF80F3003EBA2
S31508001FA003131D4A02EB0313012483F80C419AE735
S31508001FB09DF80F602946350106EB06131B01103301
S31508001FC0154C234406EB061004EB001003F1080237
S31508001FD00092093311F8012B0430FFF77FFBAB1988
S31508001FE004EB031383F80C0105F070F990F87020E0
S31508001FF09DF80F3003EB031304EB03146379934244
S3150800200001D101246FE70DF10F00FFF725FA01242E
S3150800201069E7144667E700BF6C0E002084320208A1
S315080020208433020840320208103002086C32020873
S315080020304431020858310208B87F02082DE9F047F2
S3150800204084B004460D46924699460378002B51D132
S31508002050267806EB0613404F07EB031707F104082B
S315080020604FF48872002140461BF057FD3B4BCAF8D7
S3150800207000303B4BC9F800300C9B3A4A1A600D9B5E
S315080020801C607D71384CA4FB05342D1B04EB5504EC
S31508002090C4F387043C712046FEF79CFD003818BF40
S315080020A00120B87160B3314F384609F0CBF8304D8E
S315080020B0284609F0C7F806EB0612274B03EB02136E
S315080020C019792C4809F0BEF8284609F0BBF83846B5
S315080020D009F0B8F8284609F0B5F8404615F09DFD10
S315080020E006EB06121C4B03EB02139B7993B904B05B
S315080020F0BDE8F087204AD421204809F049F8A7E727
S3150800210006EB0612144B03EB021319791C4809F067
S3150800211099F8E2E7204609F021F800230093019395
S31508002120029303930C4A06EB061302EB03135B793F
S315080021308DF8003006EB061302EB031213798DF8BF
S31508002140013003238DF8083019F023FE0190684604
S3150800215005F098F8CBE700BF6C0E0020451E000876
S315080021603D1500085914000825499224B43202087E
S3150800217010300208F43202089032020804340208C9
S315080021803433020870B5064690F89854D0F8C0045F
S315080021908C2105FB01F118313144D0F8083104319E
S315080021A0984788BBD6F8C0341A6E0221186890473B
S315080021B088BBD6F8C00405F1D20306EB830305F500
S315080021C0DA7206EB4202C46C528859680068A04766
S315080021D040BB05EB450306EBC303D3F8E04219F011
S315080021E0DCFD241A002CF4DC19F00AFE012019F093
S315080021F006FED6F8C0341A6A18689047C8B919F0A6
S31508002200CCFDC6F86C0470BD0D4A4FF483710D48B9
S3150800221008F0BEFFC6E70C4A40F20711094808F065
S31508002220B7FFC6E7094A4FF48471064808F0B0FFBD
S31508002230CFE7074A4FF48971024808F0A9FFDEE79D
S3150800224040340208B448020890340208E034020810
S315080022504C35020870B5064690F89854D0F8C00474
S315080022608C2105FB01F118313144D0F804310431D1
S31508002270984788BBD6F8C0341A6E0221186890476A
S3150800228088BBD6F8C00405F1D20306EB830305F52F
S31508002290DA7206EB4202C46C528859680068A04795
S315080022A040BB05EB450306EBC303D3F8E04219F040
S315080022B074FD241A002CF4DC19F0A2FD012019F093
S315080022C09EFDD6F8C0341A6A18689047C8B919F03E
S315080022D064FDC6F86C0470BD0D4A40F21B110D482A
S315080022E008F056FFC6E70C4A4FF48E71094808F005
S315080022F04FFFC6E7094A40F21D11064808F048FF95
S31508002300CFE7074A4FF49371024808F041FFDEE72A
S31508002310803502088448020890340208E03402082E
S315080023204C350208F0B583B0054690F89864D0F8A5
S31508002330C0348C2406FB04F4183404440434D3F85B
S31508002340C820214618689047002850D1D5F8C004FF
S315080023508C2303FB0653876C9A6A93F9301000683E
S31508002360B84700284AD1D5F8C0341A6E40F202415F
S3150800237018689047002848D1D5F8C0048C2306FB76
S3150800238003F303F188022A442B445B8E06F1D2013B
S3150800239005EB8101D1F804C006F5DA7105EB4101B8
S315080023A04988D0F8CC7000680191CDF800C0023297
S315080023B02146B84780BB06EB460305EBC303D3F8B3
S315080023C0E04219F0EAFC241A002CF4DC19F018FD96
S315080023D0012019F014FDD5F8C0341A6A1868904718
S315080023E008BB19F0DAFCC5F86C0403B0F0BD114A55
S315080023F04FF49871104808F0CBFEA7E70F4A4FF440
S3150800240099710D4808F0C4FEADE70D4A40F2351142
S31508002410094808F0BDFEAFE70A4A40F237110648F8
S3150800242008F0B6FEC7E7084A4FF4A271024808F05A
S31508002430AFFED6E7D03502085448020840360208EF
S31508002440F8360208603702084C35020870B50646A9
S3150800245090F89854D0F8C0048C2105FB01F1483156
S31508002460D0F808313144984728BBD6F8C0341A6EDC
S31508002470CC211868904728BB05EB450306EBC30338
S31508002480D3F8E04219F089FC241A002CF4DC19F080
S31508002490B7FC002019F0B3FCD6F8C0348C2202FB36
S315080024A005655A6A696F1868904790B919F075FCFE
S315080024B0C6F8700470BD0A4A40F24D11094808F082
S315080024C067FED2E7084A4FF4A771064808F060FE8F
S315080024D0D2E7064A4FF4AC71024808F059FEE5E720
S315080024E07838020824480208C83802085C39020805
S315080024F070B5064690F89854D0F8C0048C2105FBB0
S3150800250001F14831D0F804313144984728BBD6F850
S31508002510C0341A6E8C211868904728BB05EB450312
S3150800252006EBC303D3F8E04219F037FC241A002C53
S31508002530F4DC19F065FC002019F061FCD6F8C0340B
S315080025408C2202FB05655A6A696F1868904790B92C
S3150800255019F023FCC6F8700470BD0A4A4FF4B1712D
S31508002560094808F015FED2E7084A40F26311064802
S3150800257008F00EFED2E7064A40F26D11024808F04E
S3150800258007FEE5E7B8390208F4470208083A0208E0
S315080025905C39020808B590F8ED13490904D0D4232C
S315080025A0CB4013F0010F05D0124808F04BFE4FF050
S315080025B0FF3004E090F88233022B01D0002008BDDA
S315080025C090F8EE1390F8EF3301EB032190F8F0330F
S315080025D001EB034190F8F13301EB0361826A8A4209
S315080025E001D10020EBE7044808F02CFE4FF0FF303D
S315080025F0E5E700BF843A0208A43A020810B5044683
S3150800260090F8B1339A1C90F8DE128A4208DB002350
S3150800261080F8DE3294F8B133033384F8B13310BD51
S3150800262090F8DC130229F5D1032180F8DC13013375
S315080026300344024492F8EC2193F8EC11084808F098
S3150800264001FE94F8B1335A1C224492F8EC2184F81E
S31508002650C0230233234493F8EC3184F8C133D9E715
S31508002660D03A020810B5044690F8B1335A1C90F8CF
S31508002670DE128A4206DB023380F8B133002380F883
S31508002680DE3210BD024492F8EC11104808F0DAFD6B
S3150800269094F8B1335A1C224492F8EC2102F00F0246
S315080026A0E2610233DBB284F8B13394F8DE22934256
S315080026B0E7D894F834315F2BE3D8E218042182F87E
S315080026C03511013384F83431DBE700BFEC3A0208F0
S315080026D010B5044690F8B1335A1C90F8DE128A42B7
S315080026E006DB023380F8B133002380F8DE3210BDF2
S315080026F0024492F8EC11174808F0A4FD94F8B13397
S315080027005A1C224492F8EC2102F00F0262760AB9AA
S31508002710012262760233DBB284F8B13394F8DE2202
S315080027209342E4D894F834315F2B06D8E21808218E
S3150800273082F83511013384F8343194F895310E2B2B
S31508002740D5D8E218082182F89611013384F8953114
S31508002750CDE700BF083B020810B582B0044690F8E2
S31508002760B1335A1D90F8DE128A420CDA90F8DD135E
S31508002770022911D04FF0FF3094F8B133063384F8AC
S31508002780B13302B010BD063380F8B133002380F8A8
S31508002790DE324FF0FF30F4E7032180F8DD13591CD1
S315080027A00144981C204403F1030CA4440433234435
S315080027B093F8EC31224492F8EC21019200939CF8AC
S315080027C0EC3190F8EC2191F8EC11194808F03AFD33
S315080027D094F8B1335A1C224492F8EC11C4F8C41385
S315080027E09A1C224492F8EC2141EA0221C4F8C41347
S315080027F0DA1C224492F8EC2141EA0241C4F8C413D7
S315080028001A1D224492F8EC2141EA0261C4F8C41365
S315080028100533234493F8EC214FF47A7303FB02F251
S31508002820120AC4F8C823034808F00CFD0020A3E7E1
S315080028302C3B02085C3B020810B5044690F8B133FD
S3150800284090F8DE2293420BD290F8DE33022B10D09A
S315080028504FF0FF3094F8B133013384F8B13310BD2B
S31508002860013380F8B133002380F8DE324FF0FF30B1
S31508002870F5E7032380F8DE33024808F0E3FC00207E
S31508002880E8E700BF883B02082DE9F04784B0044614
S31508002890002501E00135EDB294F8B1232E4605EB8B
S315080028A085031344234493F8EC31032B07D16B1C9F
S315080028B003EB8303134494F8DE128B42EADD1DB35F
S315080028C000218D4229D994F8B13301EB81021344D2
S315080028D0581C20449A1C224492F8ECC1DA1C224463
S315080028E092F8EC210433234493F8EC314F1C0293FD
S315080028F00192CDF800C090F8EC31324639468A4844
S3150800290008F0A0FCF9B2DCE7053284F8B12300230D
S3150800291084F8DE3204B0BDE8F0870027B8464FF0E9
S31508002920070901E00137FFB2BD422ED994F8B13349
S3150800293007EB870213449A1C224492F8EC81DA1CAE
S31508002940224492F8EC2108EB02281FFA88F804338F
S31508002950234493F8ECA1CAF3021A53464246791C5B
S31508002960724808F06FFC42465146206803F016FD8F
S31508002970804610F1020FD5D109F006096C4808F017
S3150800298061FC6C4808F05EFCCCE7B8F1FF3F31D03B
S3150800299094F8B133771E07EB87073B44013323448A
S315080029A093F8EC314FEA131803F00F0A94F84A33F8
S315080029B0002B43D0B8F10F0F25D1BAF10F0F2BD149
S315080029C0206803F031FFB0F1FF3F2ED094F8B13301
S315080029D005EB85021344DBB284F8B13394F8DE22A2
S315080029E0934297D894F8347107EB4606602E91DC2B
S315080029F0002291E009F006094F4808F023FC4D48EB
S31508002A0008F020FCC4E709F005094C4808F01AFC50
S31508002A10484808F017FCD0E709F00309484808F0C9
S31508002A2011FC444808F00EFCCAE709F006094548B7
S31508002A3008F008FC3F4808F005FCC7E7B8F10F0F97
S31508002A4036D194F8B1333B440133234493F8ECA1CF
S31508002A500AF00F0ABAF10F0F3BD194F8B1333B4491
S31508002A600433234493F8EC3103F00F07B9F1070F49
S31508002A70ACD1206803F052FCBAF10F0F39D107B96F
S31508002A800127E773B8F10F0F01D084F80D800123F1
S31508002A9084F8B933617B2C4808F0D4FB94F90E10FE
S31508002AA02A4808F0CFFBE17B294808F0CBFB8DE7E5
S31508002AB001224146206803F0FDFCB0F1FF3FC0D17A
S31508002AC009F005091D4808F0BDFB1A4808F0BAFBCD
S31508002AD0B7E75146206804F04BF9B0F1FF3FBCD187
S31508002AE009F00309164808F0ADFB124808F0AAFBDE
S31508002AF0B3E7A27E5146206803F0F8FBA073BEE751
S31508002B0007EB4203E118032081F83501013323441A
S31508002B1083F835910132D2B29542F1D807EB4507D1
S31508002B2084F83471F6E600BF9C3B0208D03B0208E5
S31508002B30103C020810300208343C0208583C0208CF
S31508002B40783C0208983C0208CC3C0208E43C02089F
S31508002B50F83C02082DE9F04182B0044690F8B133FA
S31508002B601A1D90F8DE128A4208DB053380F8B13365
S31508002B70002380F8DE3202B0BDE8F081591C01441A
S31508002B80981C204403332344224492F8EC210092F3
S31508002B9093F8EC3190F8EC2191F8EC11444808F0E0
S31508002BA051FB94F8B1330133234493F8EC61C6F32F
S31508002BB002163146206803F029FCB0F1FF3F4BD0DE
S31508002BC0072594F8B1330133234493F8EC8108F0D0
S31508002BD00F084146206803F02DFCB0F1FF3F43D0B3
S31508002BE094F8B11301F5F57121440431206815F004
S31508002BF03FFF07460146206803F08EFFB0F1FF3F0E
S31508002C003BD0072D42D094F8B1330533DBB284F8B4
S31508002C10B13394F8DE229342ADD894F834315E2B62
S31508002C200AD8E218052182F835115A1C224482F87E
S31508002C303551023384F8343194F895310D2B9AD8EE
S31508002C40E218052182F896115A1C224482F89651F8
S31508002C50023384F895318EE7164808F0F3FA1648D9
S31508002C6008F0F0FA0625ACE705F00505134808F064
S31508002C70E9FA114808F0E6FAB2E705F00305104844
S31508002C8008F0E0FA0C4808F0DDFABCE7267684F886
S31508002C901280676131460B4808F0D4FAA17C0A48CD
S31508002CA008F0D0FA6169094808F0CCFAABE700BF2A
S31508002CB00C3D0208383D0208103002085C3D020847
S31508002CC0783D02089C3D0208B83D0208D03D02083E
S31508002CD0F0B583B0044690F8B1331A1D90F8DE12A9
S31508002CE08A4207DB053380F8B133002380F8DE32E9
S31508002CF003B0F0BD591C0144981C204403332344F7
S31508002D00224492F8EC21009293F8EC3190F8EC21E9
S31508002D1091F8EC11384808F095FA94F8B11301F2D5
S31508002D20E91121440431206815F0A2FE0746D0BBFC
S31508002D30032594F8B1330433234493F8EC6106F081
S31508002D400F063146206803F075FBB0F1FF3F3BD014
S31508002D50032D42D094F8B1330533DBB284F8B1338E
S31508002D6094F8DE229342C3D894F834315E2B0AD8FD
S31508002D70E218112182F835115A1C224482F835517D
S31508002D80023384F8343194F895310D2BB0D8E21813
S31508002D90112182F896115A1C224482F89651023360
S31508002DA084F89531A4E70146206803F0B5FEB0F132
S31508002DB0FF3F01D00325BCE7104808F043FA104846
S31508002DC008F040FA0225B4E705F001050D4808F0B9
S31508002DD039FA0B4808F036FABCE7C4F8E47384F805
S31508002DE0E8633146084808F02DFAD4F8E413074892
S31508002DF008F028FAAEE700BFE83D02081C3E0208C4
S31508002E0010300208483E02086C3E0208883E020856
S31508002E1030B583B0044690F8B13390F8DE22934279
S31508002E2007D3013380F8B133002380F8DE3203B0CC
S31508002E3030BD0DF107020146D0F8700306F020F800
S31508002E40144808F0FFF994F8B1330133DBB284F87B
S31508002E50B13394F8DE229342E9D894F834315D2BE5
S31508002E60E5D8E218062182F835115D1C18F0CCFF6A
S31508002E70631983F83501B4F9F01494F834319A1CBF
S31508002E8001F03F01224482F83511033384F83431C6
S31508002E90CDE700BFA43E02082DE9F04383B00446FF
S31508002EA090F8B1335A1D90F8DE128A4208DB0633D1
S31508002EB080F8B133002380F8DE3203B0BDE8F08332
S31508002EC0591C0144981C204403F1030CA444043300
S31508002ED0234493F8EC31224492F8EC2101920093B2
S31508002EE09CF8EC3190F8EC2191F8EC11614808F067
S31508002EF0A9F9206815F09FFD00285AD094F8B13337
S31508002F000133234493F8EC713946206803F050FBEB
S31508002F10B0F1FF3F59D0032594F8B11301F5F571C7
S31508002F2021440431206815F0A3FD064601462068B1
S31508002F3003F008FEB0F1FF3F4FD094F8B1330533E4
S31508002F40234493F8EC8108F00F084146206803F003
S31508002F5091FAB0F1FF3F49D094F8B13305332344D1
S31508002F6093F8EC914FEA19194946206803F082FA5A
S31508002F70B0F1FF3F43D0C8454AD8032D51D094F845
S31508002F80B1330633DBB284F8B13394F8DE229342C8
S31508002F9093D894F834315E2B8FD8E218072182F83B
S31508002FA035115A1C224482F83551023384F83431DB
S31508002FB083E7314808F046F9304808F043F994F8B1
S31508002FC0B133063384F8B13377E72D4808F03AF978
S31508002FD02A4808F037F900259EE705F00205294832
S31508002FE008F030F9254808F02DF9A6E705F001059F
S31508002FF0254808F027F9214808F024F9ACE705F038
S315080030000105224808F01EF91C4808F01BF9B2E72A
S3150800301005F001051E4808F015F9184808F012F9D8
S31508003020ADE73A463146206803F024FB3A46314676
S31508003030206803F03DFB4B4642463946206803F0BC
S3150800304059FB8EB93A460021206803F087FB3946BA
S31508003050206803F0A5FB0246CDF8009043463946A2
S315080030600C4808F0EFF88AE73A460121206803F091
S3150800307075FBECE7C03E0208EC3E02081030020879
S315080030802C3F0208503F0208703F0208903F020892
S31508003090B03F0208D83F020810B5044690F8B1338D
S315080030A05A1C90F8DE128A4206DB023380F8B133E6
S315080030B0002380F8DE3210BD024492F8EC112E4847
S315080030C008F0C0F8206815F0B3FC002847D094F83B
S315080030D0B1330133234493F8EC1101F00F03274A67
S315080030E0D35C023BDBB22068827A934228BF134640
S315080030F0A37694F90E209342A8BF1346A373C1F38F
S31508003100001115F0AFFC94F8B1330133234493F85A
S31508003110EC11C1F34011206815F0A7FC94F8B133FF
S315080031200233DBB284F8B13394F8DE229342C2D874
S3150800313094F834315F2B06D8E218092182F8351144
S31508003140013384F8343194F895310E2BB3D8E2184C
S31508003150092182F89611013384F89531ABE70848BE
S3150800316008F070F8074808F06DF894F8B1330233A0
S3150800317084F8B1339FE700BF0C400208BC49020837
S315080031802C40020810300208F0B583B0044690F8C7
S31508003190B1331A1D90F8DE128A4207DB053380F830
S315080031A0B133002380F8DE3203B0F0BD591C014468
S315080031B0981C204403332344224492F8EC210092BD
S315080031C093F8EC3190F8EC2191F8EC11404808F0AE
S315080031D039F8206815F02FFC002848D094F8B13348
S315080031E00133234493F8EC713946206803F0D8FA82
S315080031F0002848D0032594F8B11301F5F571214448
S315080032000431206815F034FC06460146206803F0B0
S3150800321083FCB0F1FF3F3ED0032D45D094F8B1337F
S315080032200533DBB284F8B13394F8DE229342BBD877
S3150800323094F834315E2B0AD8E2180A2182F835113F
S315080032405A1C224482F83551023384F8343194F8F2
S3150800325095310D2BA8D8E2180A2182F896115A1C26
S31508003260224482F89651023384F895319CE719482E
S3150800327007F0E8FF184807F0E5FF94F8B13305337F
S3150800328084F8B13390E7154807F0DCFF124807F0D9
S31508003290D9FF0125AFE705F00205114807F0D2FF6F
S315080032A00D4807F0CFFFB9E73A463146206803F0E4
S315080032B0FFF900B100253946206803F093FA024663
S315080032C03946084807F0BEFF034807F0BBFFA5E7E5
S315080032D06C40020894400208103002082C3F02088D
S315080032E0503F0208D040020830B583B0044690F833
S315080032F0B133DA1C90F8DE128A4207DB043380F811
S31508003300B133002380F8DE3203B030BD591C0144C6
S31508003310981C204422440433234493F8EC31009348
S3150800332092F8EC3190F8EC2191F8EC11234807F06B
S3150800333089FF94F8B11301F2E91121440431206898
S3150800334015F096FB054608BBC4F8E0536DB329464D
S315080033501B4807F077FF012194F8B1330433DBB239
S3150800336084F8B13394F8DE229342CDD894F83431F8
S315080033705E2BC9D8E218132082F835015A1C22445C
S3150800338082F83511023384F83431BDE701462068E6
S3150800339003F0C2FBB0F1FF3FD6D10A4807F052FF4F
S315080033A0094807F04FFF0021D6E7256818F0F5FC15
S315080033B00146284603F09EFB0546C8E7FC4002087E
S315080033C050410208284102081030020810B584B09E
S315080033D0044690F82D307BB390F8A50173BB0622FE
S315080033E094F82E300833184430302044053094F8C9
S315080033F0043503930290236A019300230093A36A7A
S3150800340094F8331017F0AAFAD0B994F80435029351
S31508003410236A019300230093A36A062294F83410C2
S3150800342004F1350017F089FB80B994F83430043379
S3150800343084F8343004B010BD1846CFE70722CFE72A
S31508003440054AF521054807F0A3FEDEE7044AFC21F4
S31508003450024807F09DFEE8E768410208E4480208CA
S315080034609041020870B5BAB004468C22002117A80C
S315080034701AF053FB00231193129313931493159385
S3150800348016931093217B206803F028FA002839D078
S31508003490012800F09B80022800F00081C64A40F20D
S315080034A0ED11C64807F074FE0DF13F022146D4F827
S315080034B0700305F0E5FC002840F060819DF83F3078
S315080034C08DF84430109B1693D4F8B433149394F8BB
S315080034D0B833002B40F0598101238DF84E30022372
S315080034E084F86E3317AB009394F8343004F1350240
S315080034F011A9D4F8700305F0E1FC002840F05081CA
S315080035003AB070BD03AB0DF10B02217B206803F0C6
S31508003510F9F9002504950595069507950895D4F8B3
S3150800352064330793206815F095FA8DF82100237BFC
S31508003530D4F8642394F90E10206803F04BFA8DF83A
S3150800354020009DF80B308DF810309DF80C308DF862
S315080035501130206815F077FA8DF812009DF8106082
S315080035609DF81110304614F060FB8DF813003146B3
S31508003570206815F035FAADF814008DF8165094F851
S3150800358034308DF8173001238DF818308DF819501E
S315080035908DF85C300DF1600C0DF1100EBEE80F00D1
S315080035A0ACE80F00DEF80030CCF80030D4F8703301
S315080035B0D3F8C034D3F8A43004A905A898471090C6
S315080035C002238DF845307E4B12936DE703AA217BC3
S315080035D0206803F0ADF92C22002104A81AF09DFA00
S315080035E0D4F864230C92237B94F90E10206803F018
S315080035F0F1F98DF83A00206803F0FEF90B9040F2D5
S31508003600FF13ADF8383041F60F53ADF8343041F2B8
S315080036102103ADF8363001238DF8253094F834208F
S31508003620ADF826202822ADF8202002228DF8222087
S3150800363018228DF8232004228DF828208DF82930A9
S315080036409DF80C304FF47A7101FB03F3049346F2AC
S31508003650A81305935B4B06938DF81C2000238DF861
S315080036605C3018AD0DF1100CBCE80F000FC5BCE8B6
S315080036700F000FC59CE8070085E80700D4F87033EB
S31508003680D3F8C034D3F8A83004A908A898471090EE
S3150800369003238DF845304C4B129305E70DF10B03C8
S315080036A00DF10A02217B206803F058F900250495DC
S315080036B005950695079508950995237BD4F86423FF
S315080036C094F90E10206803F085F98DF824008DF81A
S315080036D014509DF80A308DF81530206803F068F903
S315080036E08DF8160001238DF818309DF80B308DF8EB
S315080036F017309DF80A0003F047F98DF8190020687D
S3150800370003F08CF90490D4F8643307938DF82050AD
S315080037100395D4F87033D3F8C034D3F8DC5003AA31
S3150800372004A91868A84710BB03990139002018F0A6
S3150800373062FBADF8260018AD0DF1100CBCE80F00C1
S315080037400FC59CE8030085E80300D4F87033D3F866
S31508003750C004D0F8D85010AB94F8342004A90068F7
S31508003760A84704238DF84530184B12939CE6184A4F
S3150800377040F2DB11114807F00BFDD5E7154A40F278
S31508003780F3110E4807F004FD98E618F03BFB149B6E
S315080037901B1A1493002384F8B8338DF84E309EE62E
S315080037A0062384F86E339DF83F100B4807F04AFD50
S315080037B00A4807F047FDA3E644420208D447020830
S315080037C085210008A0860100552200082523000847
S315080037D0B84102083C320208644202081030020866
S315080037E02DE9F043BBB004460D46174690F86C83A6
S315080037F04146006803F072F806468C22002117A895
S315080038001AF08BF984F86D5355B1012D5DD0994A9C
S3150800381040F22221984807F0BBFC4FF0000901E06E
S31508003820D4F86893002E53D0012E00F09F80934A57
S3150800383040F26721904807F0ABFC0DF15B02214688
S31508003840D4F8700305F01CFB002840F0E280002342
S315080038501093119312931393149315939DF85B3059
S315080038608DF840309DF85C30012B14BF01230023EE
S315080038708DF8413000F0D480814B11931397D4F81A
S315080038807C33159317AB0093FF2304F2ED3210A98E
S31508003890D4F8700305F012FB002840F0DD800423FD
S315080038A084F86E339DF85B20691C764807F0CAFCDD
S315080038B09DF85C30012B00F0B5802B9A724B53F8BB
S315080038C02510724807F0BEFCD1E0D4F81490A9E799
S315080038D00DF113030DF112024146206803F012F8A8
S315080038E005960696079608960996206815F0B2F882
S315080038F08DF82500B4F880338DF82630CDF8209061
S31508003900206815F0A0F88DF816009DF812008DF8BD
S3150800391014009DF813108DF8151014F086F98DF81B
S3150800392017008DF81A6001224146206803F0C0F896
S3150800393005308DF81B008DF81C6001268DF81D607A
S315080039409DF81410206815F04BF8ADF818008DF89E
S315080039505C600DF18C0C05AE0FCEACE80F00336839
S31508003960CCF80030D4F878332E9366E70DF11302BD
S315080039704146206802F0DCFF2C22002105A81AF037
S31508003980CCF8CDF83490206803F036F80C9040F265
S31508003990FF13ADF83C3041F60F53ADF8383041F21D
S315080039A02103ADF83A3001238DF82930FF22ADF80E
S315080039B02A202822ADF8242002228DF82620182253
S315080039C08DF8272004228DF82C208DF82D309DF8AF
S315080039D013304FF47A7101FB03F3059346F2A813EB
S315080039E006932B4B07938DF8202000238DF85C3027
S315080039F00DF18C0C05AE0FCEACE80F000FCEACE87F
S31508003A000F0096E807008CE80700D4F87C332E935D
S31508003A1013E7204A40F26D21174807F0B9FB16E76D
S31508003A201D4B2AE7184B53F82550269E9DF88C8087
S31508003A309DF88D20194B53F82290206815F00AF846
S31508003A400290CDF80490CDF8008033463A462946D0
S31508003A50134807F0F7FB0AE0062384F86E339DF84F
S31508003A605B10104807F0EEFB0F4807F0EBFB3BB086
S31508003A70BDE8F08390420208B4470208A44202084F
S31508003A80F1240008C0420208B44902081C4302088F
S31508003A90A08601003C3202084D2400087C49020831
S31508003AA0E0420208644202081030020830B583B0CA
S31508003AB004460DF103020146D0F8700305F0E0F95B
S31508003AC004F2833301AA9DF80310D4F8700305F0B5
S31508003AD0F3FA94F883130A2900F2AE80DFE801F0BE
S31508003AE066ACAC06236AACACACACA800019BC4F8C7
S31508003AF0843394F86E33022B00F0A280042B00F076
S31508003B00A88094F883130A2900F09D80554807F089
S31508003B1099FB554807F096FB544A4FF445715448AB
S31508003B2007F036FB8FE0019BC4F8EC34D4F8703309
S31508003B309DF803108C2202FB0132127E012A22D044
S31508003B406ABBA4F8F0248C2202FB0133B3F9843053
S31508003B50A4F8F234D4F870239DF8033003F5D8732B
S31508003B6012F8133084F8EC332046FEF713FD0028CC
S31508003B70BFD0404807F066FB052384F8833300234B
S31508003B8084F8EC33B5E78C2202FB0133B3F98220C3
S31508003B90A4F8F024B3F98030A4F8F234DAE7334A0B
S31508003BA040F2B621324807F0F3FAD3E7324807F075
S31508003BB049FB9EE7019D94F86D3343BB627ED4F8BA
S31508003BC084334FF47A7101FB0233D4F87C2313440F
S31508003BD0D4F8A8231344ED1A94F86C3303F5E2736A
S31508003BE034F91330ED1A18F00DF92D1A18F010F9EA
S31508003BF02D1A13D4002D7FF77CAF94F86C3303F598
S31508003C00E27334F81320013224F8132071E7012BEC
S31508003C1001D00022D3E7627E0132D0E794F86C33F4
S31508003C2003F5E27334F81320013A24F8132060E709
S31508003C30124807F007FB5CE7114807F003FB58E753
S31508003C40032384F86E3394F883330A2B05D003B024
S31508003C5030BD052384F86E33F5E7062384F86E3302
S31508003C60F5E700BFC8430208103002083C320208D4
S31508003C70984702083043020868430208804302084E
S31508003C80AC4302082DE9F04387B004460D4618F008
S31508003C9084F8074655B1012D1DD0444A40F23A3101
S31508003CA0434807F075FA0026B04609E0667E227E8C
S31508003CB0217B206802F0FCFA84F86C034FF00108B7
S31508003CC04FF47A7303FB06F6B8F1000F0BD14046A2
S31508003CD007B0BDE8F083667E0136A37C84F86C33B2
S31508003CE04FF00108ECE794F86C13206802F0F6FD33
S31508003CF000283DD0012845D02E4A40F253312C48A1
S31508003D0007F046FA18F07EF8814618F081F88144E3
S31508003D1094F86C1301F5E27334F913309944D4F826
S31508003D20BC3303930023029304F55E73019304F5F1
S31508003D305F73009304F560733246206803F08EF8CB
S31508003D4004F56A730093B4F880334FFA89F294F84D
S31508003D506C13206803F0DAF8D4F88433DB1B334499
S31508003D60D4F8A8239E1815D5052384F86E33AEE734
S31508003D700DF116030DF1150294F86C13206802F084
S31508003D80C1FDBFE70DF1170294F86C13206802F025
S31508003D90CFFDB7E7F21929462046FFF721FD314640
S31508003DA0054807F04FFA4FF0000890E790420208DE
S31508003DB074470208A4420208F443020810B50446F0
S31508003DC0002380F8B13380F83F3380F8343180F827
S31508003DD0953194F8DE2294F8B1339A4268D994F86A
S31508003DE03421602A10D8234493F8EC118B1E112B2A
S31508003DF057D8DFE803F012161A1E22262A2E325644
S31508003E0056365656444E56522A4807F01BFA2A4842
S31508003E1007F018FA4FF0FF304BE02046FEF7EEFBAE
S31508003E20D7E72046FEF730FDD3E72046FEF71AFC13
S31508003E30CFE72046FEF78EFECBE72046FEF7E8FFE3
S31508003E40C7E72046FFF728F8C3E72046FEF740FCF9
S31508003E50BFE72046FFF720F9BBE72046FFF794F9AE
S31508003E60B7E72046FEF778FC0028B2D1D4F8D0335D
S31508003E70C4F8CC3317F08DFFC4F8D403A9E720465D
S31508003E80FEF7DAFC0028A4D194F8E93384F8EA337B
S31508003E909FE72046FEF71CFF9BE72046FFF724FA1C
S31508003EA097E7002384F8DE32044807F0CBF990E759
S31508003EB0002010BD144402081030020840440208CD
S31508003EC030B587B0054690F8041502A807F03AF908
S31508003ED095F8041504A807F01DF90822474948482B
S31508003EE007F0B0F9002408E004F118036B4413F84E
S31508003EF0081C444807F0A6F90134072C08D814F022
S31508003F000F0FF1D1002CEFD03F4807F09BF9EBE7F4
S31508003F103D4807F097F908223C49394807F092F9D5
S31508003F20002408E004F118036B4413F8101C354804
S31508003F3007F088F90134072C08D814F00F0FF1D1CF
S31508003F40002CEFD0304807F07DF9EBE72E4807F054
S31508003F5079F9B5F8D4314FF6FF72934202D001339E
S31508003F60A5F8D43195F80425B5F8D411284807F0F2
S31508003F7069F9002485F82F4001232B74EB73284632
S31508003F8013F080FE234610E0C3F10702591C1832CD
S31508003F906A4412F8104C681880F83540093312F84C
S31508003FA0082C2B4483F835200B46072BECDDB5F897
S31508003FB0D43185F846301B0A85F84730132185F831
S31508003FC0341095F8043501AA05F1350016F03EFDC2
S31508003FD060B995F8343003F130022A440199C2F8E1
S31508003FE00510043385F8343007B030BD094A40F26D
S31508003FF0B751094807F0CCF8EBE700BF5C44020864
S315080040004431020858310208B87F0208644402089D
S315080040106C440208884402081847020830B583B081
S315080040200446D0F8EE030090B4F8F233ADF8043045
S3150800403094F8D62194F8D73142EA032294F8D83175
S3150800404042EA03429DF800109DF8013041EA032137
S315080040509DF8023041EA03418A4274D00098C4F8B8
S31508004060D601BDF80430A4F8DA3194F80435B4F86A
S31508004070D4210DF10301684616F011FD204613F010
S3150800408046FE206802F0ACF894F8EC330D2B15D9EF
S31508004090D4F8FA03D4F8FE13D4F80224D4F8063474
S315080040A0C4F8DC01C4F8E011C4F8E421C4F8E83126
S315080040B004F5EE71206802F05DFD28B1D4F864239A
S315080040C0217B206802F05AF994F8F43394F8F52322
S315080040D003EB022394F8F62303EB024394F8F72341
S315080040E003EB0263A36294F8F833C3F30211217653
S315080040F003F00F03A37494F8F93303F00F03637600
S315080041000BB901236376206802F080F920BBA17CF5
S31508004110206802F08FF9054640BB022384F88233F3
S31508004120A16A174807F08EF8217E164807F08AF824
S31508004130A17C154807F086F8617E144807F082F8D6
S31508004140284603B030BD124807F07CF8114807F03E
S3150800415079F84FF0FF35F3E7217E0F4807F072F83C
S315080041600C4807F06FF84FF0FF35E9E7A17C0B48DC
S3150800417007F068F8074807F065F84FF0FF35DFE7FE
S315080041804845020858450208744502088C45020845
S31508004190B444020810300208E84402081845020828
S315080041A070B58EB0044600230D93017B006802F0BB
S315080041B095FB68B101284BD0022800F095805E4A2D
S315080041C040F27F615D4806F0E3FF0D980EB070BDC2
S315080041D00DF107030DF10602217B206802F092FB20
S315080041E00025029503950495059506959DF80630D4
S315080041F08DF808309DF807308DF80930206814F0DE
S3150800420022FC8DF80A009DF808609DF809103046D2
S3150800421013F00BFD8DF80B0001238DF810308DF887
S31508004220115094F834308DF80F303146206814F068
S31508004230D7FBADF80C008DF80E50D4F87033D3F8D0
S31508004240C034D3F8A43002A903A898470D90BCE758
S315080042500DF10702217B206802F06AFB2C2200215F
S3150800426002A819F05AFCD4F864330A93206802F0BD
S31508004270C3FB099040F2FF13ADF8303041F60F53F7
S31508004280ADF82C3041F22103ADF82E3001238DF81C
S315080042901D3094F83420ADF81E202822ADF81820D9
S315080042A002228DF81A2018228DF81B2004228DF878
S315080042B020208DF821309DF807304FF47A7101FBE4
S315080042C003F3029346F2A81303931D4B04938DF848
S315080042D01420D4F87033D3F8C034D3F8A83002A920
S315080042E006A898470D9070E70DF107030DF1060231
S315080042F0217B206802F032FB002302930393049388
S315080043000593069307939DF806008DF80D00012383
S315080043108DF8103002F038FB8DF81100D4F87033A0
S31508004320D3F8C004D0F8D8500DAB94F8342002A9BD
S315080043300068A84749E700BF444202080447020844
S31508004340A086010070B582B0044690F8453380F81F
S31508004350463390F8443380F84733002380F8B03367
S3150800436090F88233012B57D0D4F8401394F846338B
S315080043709942C0F29E80012284F84823227C012AB1
S3150800438040F29B80032184F8B013013A2274D4F8D2
S31508004390402394F847130B449A4214DB94F8B0333D
S315080043A0032B00F09380234653F80F0B009304F178
S315080043B00E0304F10D0294F84A1314F032FA94F835
S315080043C04633C4F84033D4F84033B4F84C23934208
S315080043D002DB002A40F09C8094F8343194F8952149
S315080043E0934202D3002B40F09A8084F8A52104F565
S315080043F0CB7104F5D37019F09BFB002384F8343194
S3150800440094F88213022900F0998094F8B033012BAE
S3150800441000F0B08002B070BD17F0BBFC054604235F
S3150800442084F84A33D4F85C330133C4F85C33204645
S31508004430FFF7B6FE6C4AA2FB002305EBD303D4F8BC
S31508004440602302F5616293420DD22046FFF7A8FE6B
S31508004450654BA3FB002305EBD303C4F858330023AD
S3150800446084F8823380E72046FFF79AFE2844D4F87A
S31508004470603303F51A43B03398420DD22046FFF74E
S315080044808FFE00EB40039B00574AA2FB032305EB74
S31508004490D303C4F85833E2E72046FFF781FE00EB62
S315080044A0400005EB8005C4F85853052384F84A33C1
S315080044B0D5E7002284F8482360E701222274226A9D
S315080044C0013222620131C4F8401360E7617B20683B
S315080044D002F03AF8014694F8A5310093002394F8BF
S315080044E03320206802F08AF800287FF46CAF234650
S315080044F053F80F0B009304F10E0304F10D0294F820
S315080045004A1314F08EF994F84633C4F840335AE740
S31508004510364A40F2DF41364806F03AFE5CE784F850
S315080045203F331A4604F2351104F2DF2019F000FB76
S31508004530012384F8B033E37B23745EE794F8B03341
S31508004540032B3FF462AF04F249330193637B009374
S3150800455004F10C0304F24A32206814F0BEF9B0F1F3
S31508004560FF3F7FF452AF234A40F2FC41204806F051
S315080045700FFE4AE794F8A5310093002394F83F23E9
S31508004580217B206802F03AF8D8B9012384F82E3046
S3150800459094F83F2304F2DF2104F13E0019F0C8FA2B
S315080045A094F83F3384F83330002384F82D300223FF
S315080045B084F82F30204613F03EFC2046FEF706FF0F
S315080045C028E704F2DF2594F83F630022217B206860
S315080045D002F06EFAA0F10802D2B23146284600F07F
S315080045E0F9FE84F83F03D0E7CDCCCCCCA045020831
S315080045F03C470208CC45020810B50C461146012274
S31508004600006802F055FA421DD2B2A24201D3002038
S3150800461010BD2146024806F015FE4FF0FF30F7E7B9
S31508004620F84502082DE9F0438BB0044600230893A9
S3150800463090F8EC0300F016FE054694F86C2394F8FF
S31508004640EC132046FFF7D8FF2D1804D00026304675
S315080046500BB0BDE8F08304F2ED370DF125030DF13B
S3150800466026020DF12701384600F010FE451940F0E4
S3150800467034819DF82730012B22D00023ADF81E3057
S31508004680636A089304F2B918CDF8108004F2B713D8
S31508004690039304F2F543029304F2F4430193A36AE5
S315080046A000930DF11E0304F5DC7294F8EC133846FA
S315080046B000F018FE2D1843D0002D64D00026C6E75A
S315080046C094F804353A4694F8EC13384616F0CEF9C1
S315080046D0014668BB0023A4F85633A4F8543317F0F0
S315080046E058FBC4F8500394F8EC33043B84F8EC33D5
S315080046F00426002DABD19DF8273084F8B5319DF8F6
S31508004700263084F8B6319DF8253084F8FE34089BA7
S315080047106362C4F84053A4F85653A4F8545317F0E8
S3150800472038FBC4F8500384F8A55184F895518EE7F0
S315080047306B4806F087FD6B4806F084FD0026D8E72F
S3150800474008A9BDF81E0000F019FE05460028B5D1D7
S3150800475094F8EC130439C9B284F8EC1301F57A73AA
S315080047602344D3F8053094F8042503920293089B52
S31508004770019301230093A36A0622384616F0A7F987
S3150800478000289BD198E70123237494F8B73113F0D6
S31508004790200F03D094F82F20042A41D0C3F3001326
S315080047A084F8F73494F86D33002B3DD1D4F8683388
S315080047B0C4F8F83494F86C3384F8FC3494F8F53477
S315080047C0002B7BD094F8EC1394F8B891A1EB09016F
S315080047D00939C9B284F8EC1394F8F464002E46D16A
S315080047E0B9F1000F3CD104F5F67694F80435039335
S315080047F00296089B019301230093A36A062204F2FA
S31508004800F63016F013F9E0B994F8EC23F22A1FD91A
S31508004810354806F017FD334806F014FD4E4668E79E
S31508004820012284F8FD24B9E7012B03D16369C4F892
S31508004830F834BFE72D4A40F2EE312D4806F0A8FCC1
S31508004840B8E72C4A40F21541294806F0A1FCDBE7F7
S3150800485084F8DE223146384619F06AF9032648E715
S31508004860254806F0EFFC1F4806F0ECFCEFE609F2D7
S31508004870F130204494F8043503930297089B01937A
S3150800488001230093A36A0722053016F0CFF820B952
S3150800489094F8B86146B901262BE7164A40F2334127
S315080048A0134806F075FCF3E73246414604F5F67000
S315080048B019F03EF984F8DE6202261AE794F8B86120
S315080048C00EB9012615E73246414604F5F67019F089
S315080048D02FF984F8DE6202260BE70026B7E600BF4A
S315080048E014460208103002088C4602085046020890
S315080048F05447020864460208B846020870B590F89C
S31508004900B2333BBB04460E4690F8BA335BB394F811
S315080049102C30012B39D017F03CFA0546C4F8AC0305
S31508004920C4F8B463012384F882332046FFF7C8FA33
S31508004930206814F083F86076206814F081F8A07473
S31508004940D4F85C330BB9C4F86053012384F8B23346
S31508004950002070BD0F4806F075FC0F4806F072FC83
S315080049604FF0FF30F5E7D0F8585317F012FA2D1A22
S31508004970002DCCDD17F00DFA0146D4F85823074868
S3150800498006F060FC4FF0FF30E3E7022384F8823339
S315080049900020DEE7CC49020810300208F849020870
S315080049A02DE9F04782B004460F461E469DF828902A
S315080049B09DF82C8092460AB94FF0000994F8A53163
S315080049C0009300234A46217B206801F017FE05461E
S315080049D0B0F1FF3F45D0B8F1040F02D0B8F1020F8D
S315080049E046D194F82C301BB994F88233022B48D15F
S315080049F094F8B233002B4DD1204613F088FA0028DC
S31508004A0051D117F0C6F9C4F8AC030C9BC4F8B433FB
S31508004A1084F82D7084F82EA084F82F80002384F85B
S31508004A20FD34002E48D084F833904A463146204655
S31508004A3013F08BFA204613F0FEF92046FEF7C6FC63
S31508004A40002084F8F60484F8F40484F8F504E37B7B
S31508004A502374012384F8B2330546284602B0BDE81C
S31508004A60F087174806F0EEFB164806F0EBFBF4E76E
S31508004A70154806F0E7FB134806F0E4FB4FF0FF3550
S31508004A80EBE7124806F0DEFB0E4806F0DBFB4FF0BC
S31508004A90FF35E2E70E4806F0D5FB0A4806F0D2FBDA
S31508004AA04FF0FF35D9E70B4806F0CCFB054806F072
S31508004AB0C9FB4FF0FF35D0E7002384F83330B9E758
S31508004AC02C4A020810300208544A0208804A020892
S31508004AD0CC490208AC4A020830B583B00446002324
S31508004AE080F86E3380F8FF3490F8C831042B29D04B
S31508004AF094F8C831023BDBB2012B48D92046FFF7B0
S31508004B0021FC94F8DC33022B45D094F8DD33022BD4
S31508004B1045D094F8DE33022B45D094F8C831002BE3
S31508004B2045D06368A068984794F8B033012B4AD0FB
S31508004B30032B48D0002384F8B233002384F8C83105
S31508004B4003B030BD394806F07DFB2046FFF766FA0C
S31508004B50B0B9002384F8EC33012284F8FF2484F8E2
S31508004B60F53494F84B1384F84A13237B637322466F
S31508004B7052F80F0B13F0ADFD204613F0C2FAB7E753
S31508004B802B4806F05FFB2B4806F05CFBB0E7204697
S31508004B90FFF714F9B2E7002384F8DC33B5E70023FE
S31508004BA084F8DD33B5E7002384F8DE33B5E74FF440
S31508004BB08C72002104F57B7018F0AFFF94F8043569
S31508004BC084F80035ADE7234653F8110B009304F536
S31508004BD05A7304F55972217B01F024FB78B100233E
S31508004BE084F8B23394F8B033032BA6D1236A013381
S31508004BF02362D4F840330133C4F840339DE70023D9
S31508004C0084F8B03317F0C9F8054640F6B8314FF4C2
S31508004C107A7017F0F0F80544C4F8B453042384F8FE
S31508004C20B23317F0B6F8C4F8AC0386E7D44A0208DC
S31508004C30EC4A0208103002082DE9F04F8BB0044602
S31508004C400DF127020146D0F8700304F019F994F81B
S31508004C50B2337BB994F86E33062B1FD094F8B2336F
S31508004C60042B00F27F81DFE813F029002300F3000C
S31508004C7011011D0017F08DF8D4F8AC33C01AA0F551
S31508004C8096700028E6DD94F8B233BA4ABE21BA48CF
S31508004C9006F07EFA062384F8B233DBE72046FFF7F0
S31508004CA01BFFDBE7B54806F0CDFA012384F8B233DB
S31508004CB094F86E333BB1032B00F0978094F8B20357
S31508004CC00BB0BDE8F08F012384F86E33AC4806F0CC
S31508004CD0B9FA94F80415AB4806F0B4FAAA4806F0EF
S31508004CE0B1FA217B206801F0F9FD38B1012831D0ED
S31508004CF0022848D02046FEF7B5FBDFE70DF126036C
S31508004D000DF12502217B206801F0FCFDD4F8B4538F
S31508004D10D4F864639DF825709DF826209B4B53F8BC
S31508004D20228094F8349094F90EA0D4F820B0204646
S31508004D30FFF736FA0490CDF80CB0CDF808A0CDF8F8
S31508004D400490CDF800803B4632462946904806F046
S31508004D5079FACFE7D4F8B453D4F8646394F8347086
S31508004D6094F90E80D4F820902046FFF719FA02909D
S31508004D70CDF80490CDF800803B4632462946854852
S31508004D8006F060FAB6E70DF126030DF12502217B40
S31508004D90206801F0E3FDD4F8B4330793D4F86453DC
S31508004DA0267B9DF825207C4B53F822709DF82620FB
S31508004DB07A4B53F8228094F8349094F90EA0D4F8DC
S31508004DC020B02046FFF7ECF90590CDF810B0CDF8E5
S31508004DD00CA0CDF80890CDF80480009733462A46F3
S31508004DE007996F4806F02EFA84E7654806F02AFA0E
S31508004DF06C4806F027FA644806F024FA022384F879
S31508004E00B233D4F88433C4F8D031D4F870339DF86B
S31508004E102720EC3203EB82035A68E36902FA03F3AC
S31508004E209B1AC4F8CC3194F88233012B46D020461D
S31508004E3013F037F894F805351BB194F88233022B32
S31508004E4040D000212046FEF71DFF00283FF436AF6C
S31508004E5094F86E33052B7FF431AF94F88333042B23
S31508004E6034D0032384F8B233454806F0EBF994F8B6
S31508004E7004154D4806F0E6F9434806F0E3F9012122
S31508004E802046FEF7FFFE00283FF418AF94F86E336D
S31508004E90052B7FF413AF94F88333042B41D038489D
S31508004EA006F0D0F994F80415404806F0CBF93648D0
S31508004EB006F0C8F92046FFF70FFEFFE6204613F076
S31508004EC020F9B4E72046FFF707FEF7E6012384F842
S31508004ED0F6342046FFF7A6FB84F8C80190B90323E9
S31508004EE084F8B233264806F0ADF994F8041530482C
S31508004EF006F0A8F9244806F0A5F901212046FEF790
S31508004F00C1FEC0E71E4806F09DF994F80415294825
S31508004F1006F098F91C4806F095F92046FFF7DCFDDF
S31508004F20CCE6022384F8F6342046FFF77BFB84F8A8
S31508004F30C80158B9124806F085F994F804151E48B0
S31508004F4006F080F9104806F07DF9B3E70C4806F03C
S31508004F5079F994F80415194806F074F90A4806F020
S31508004F6071F9A7E7164A40F2BF11034806F010F98F
S31508004F70A4E600BF084B0208104F0208344B02088B
S31508004F80384B0208684B0208884B0208FC4F020897
S31508004F90B44B0208084C0208C44F0208D44F020852
S31508004FA0544C0208B44C0208344D0208B44D0208A9
S31508004FB0C04C0208044D0208544D0208844D0208EC
S31508004FC0D44D020830B58BB0044624252A46002164
S31508004FD001A818F0A2FD94F8041501EBC1012B46AF
S31508004FE001AA8900022016F0F6FE202101A800F089
S31508004FF00BF9099B984215D1BDF80630A4F8D431AF
S315080050000298C4F8D601BDF80C30A4F8DA319DF838
S315080050100E3084F8BB3323689DF80F201A700020E1
S315080050200BB030BD044806F00DF9044806F00AF93D
S315080050304FF0FF30F4E700BFF84D020810300208C1
S315080050402DE9F04184B004460F4615461E46DDF8A4
S315080050502C804FF4A162002118F05FFD98F800201B
S3150800506084F8042598F80030013384F874332760EF
S315080050700A9B636004F57B73A3600A23C4F8BC33F8
S315080050803C4BC4F8D83384F800253146204612F044
S3150800509075FE2046FFF796FF60B92368187801F079
S315080050A047F8C8B123681978334806F0CBF833486F
S315080050B006F0C8F8324806F0C5F8304806F0C2F8D7
S315080050C0204613F083F82046FFF77CFF2368012269
S315080050D01A70204613F015F8C4F870534FF4166387
S315080050E0A4F84C332346274A94F87413284603F049
S315080050F07FFE23681978204612F077FE204612F0C4
S3150800510079FE206813F0A4FC84F84503206813F0A0
S315080051109DFC84F8440394F8BB33012B26D094F8FD
S315080051200415194806F08EF8B4F8D411174806F095
S3150800513089F894F8D93194F8DA2194F8DB110291B8
S315080051400192009394F8D83194F8D72194F8D6119F
S315080051500F4806F077F823681A780E4B53F8221092
S315080051600D4806F06FF804B0BDE8F08184F8BA334C
S31508005170D5E700BF80510100304E02081030020802
S315080051806C4E0208AD3A0008A44E0208B44E020856
S31508005190C44E020834500208004F020882B00B4B76
S315080051A01B680093019300209DF8043063F3070001
S315080051B09DF8053063F30F209DF8063063F317401A
S315080051C09DF8073063F31F6002B070473C50020831
S315080051D038B5D0F8CC430C1BD0F8C8132144094C79
S315080051E0A4FB014E4FEA9E15D0F8C44304EB9E1467
S315080051F014604FF47A7202FB1511196013F05AF80D
S3150800520038BD00BFD34D62106FF00502002901F1C9
S31508005210FF3122DD10F8013B5A404FF0000CBCF17B
S31508005220070FF3DC00B542F3000E0D4B0EEA03033D
S3150800523083EA52020CF1010CBCF1070FF3DD0029D9
S3150800524001F1FF3105DD10F8013B5A404FF0000C23
S31508005250F2E7C2F102005DF804FBC2F102007047F2
S315080052602083B8ED0B2801D90020704708B5014600
S31508005270044805F0E7FF044805F0E4FF4FF0FF3067
S3150800528008BD00BF405002081030020838B50C4669
S315080052901D4603785B090B70017801F00301117054
S315080052A023783BB1072B0ED8D42222FA03F313F046
S315080052B0010F08D0094805F0C5FF094805F0C2FFE7
S315080052C04FF0FF3002E00029F4D100202378052BA7
S315080052D014BF002301232B7038BD00BF6C50020891
S315080052E0103002082DE9F04104460F461646099982
S315080052F04578827805EB0225C27805EB02450279E6
S3150800530005EB0265069A954223D14FF000086279AB
S315080053100A70A279E07902EB00221A800A7802F074
S315080053200F02327004F108010A9818F001FC33786C
S3150800533003F10C0297420FDD0833E35C079A1370FA
S315080053400123089A1370B8F1000F0BD14046BDE847
S31508005350F0814FF0FF38DAE70023079A1370089AAE
S315080053601370F0E72946034805F06CFF024805F07C
S3150800537069FFEBE7885002081030020808B50A688A
S315080053801FFA82FC130C1B0484450AD3B2F1FF3FB3
S3150800539007D084450FD9184400F5803008600020EE
S315080053A005E0B2F1FF3F03D018440860002008BDAD
S315080053B008600020FBE70146044805F043FF04485F
S315080053C005F040FF4FF0FF30F1E700BFAC50020890
S315080053D01030020810B50346A3EB000C96468A4225
S315080053E028BF8E46F44509DA93F800E0054C14F810
S315080053F00EE07344A3EB000E9645EDDD5FFA8CF0E4
S3150800540010BD00BFFC50020808B5044B181D1860F3
S315080054104FF4F272002118F080FB08BD800F0020BF
S31508005420F8B51E46124B1B68DBB105460C461746F7
S31508005430062817D80E4B1A6855701B685B78A34266
S3150800544000D923B90B4AA1210B4805F0A1FE084B48
S31508005450196804EB840001EB001087814660069BFF
S315080054608360F8BD034A9C21034805F091FEE1E7F5
S31508005470800F00203C32020838510208064B1B6890
S3150800548033B1022801D05A7822B11870002070472B
S315080054900120704701207047800F0020034B1B68CE
S315080054A00BB1187870470220704700BF800F0020A4
S315080054B0494B1B68002B00F08E80F0B583B004467C
S315080054C00E465A78002A71D01B78022B6ED016F039
S315080054D064FC05460DF1070221463F4B186813F098
S315080054E02AF8002862D03C4B19689DF8070000EBA3
S315080054F0800201EB0212137D1469384AA2FB047C70
