S01700006D61696E5F70696E675F706F6E675F332E73333786
S31508000000000400203D2300080DDB00080DDB000876
S315080000100DDB00080DDB00080DDB00080DDB000812
S315080000200DDB00080DDB00080DDB0008B12C01080C
S315080000300DDB00080DDB0008552C0108DB30010834
S315080000400DDB00080DDB00080DDB00080DDB0008E2
S315080000500DDB00080DDB00080DDB00080DDB0008D2
S315080000600DDB00080DDB00080DDB0008450600085F
S31508000070350600080DDB00080DDB00080DDB00085F
S315080000800DDB00080DDB00089DA400080DDB000849
S315080000900DDB00080DDB00081D2E00080DDB00082F
S315080000A00DDB00080DDB0008C129000899290008A6
S315080000B00DDB00080DDB00080DDB00080DDB000872
S315080000C00DDB00080DDB00080DDB00080DDB000862
S315080000D00DDB00080DDB00080DDB00080DDB000852
S315080000E00DDB00080DDB00080DDB00080DDB000842
S315080000F00DDB00080FEA00080DDB00080DDB000821
S315080001000DDB00080DDB00080DDB00080DDB000821
S315080001100DDB00080DDB00080DDB00080DDB000811
S315080001200DDB00080DDB00080DDB00080DDB000801
S315080001300DDB00080DDB00080DDB00080DDB0008F1
S315080001400DDB00080DDB00080DDB0008797E0008D2
S315080001500DDB00080DDB00080DDB00080DDB0008D1
S315080001600DDB00080DDB00080DDB00080DDB0008C1
S311080001700DDB00080DDB00080DDB0008A5
S3150800017C194A5AB3194BDB6913F0040F29D110B479
S3150800018C0AE003EA00048C4210D0013AB2B1134BD0
S3150800019CDB6913F0040F14D110F0010FF1D1104CD8
S315080001AC1C40002CEDD06FF001000CE00C4A1A40F4
S315080001BC0AB9002007E06FF0010004E06FF00200B6
S315080001CC01E04FF0FF305DF8044B70476FF002000A
S315080001DC70474FF0FF307047809698000000035028
S315080001EC020001000D4BDB6913F4803F12D170B588
S315080001FC0A4B03F580560124F46003F500552C646C
S3150800020C4FF480721A6100212046FFF7B1FF34645F
S3150800021CEC6070BD6FF00100704700BF0000035022
S3150800022C38B50446C0F30C03FBB9154B4FF48032B2
S3150800023C9A6603F51C33DD69154041F67132DA63AB
S3150800024C03F580520121D1605C6102221A610021FA
S3150800025C2120FFF78DFF70B10A4B0122DA601DB120
S3150800026CA3F500530022DA6338BD40F21A2106487A
S3150800027C00F096F8D9E700212120FFF779FFEBE784
S3150800028C00900050002003503051010838B51A4B25
S3150800029C5861DB6913F0040F2AD10C4654F8041B79
S315080002AC154B9961151F06E0214651F8042B124B84
S315080002BC9A61043D0C465DB108210846FFF758FFC4
S315080002CC03460028F0D00C4A04211161184638BDA3
S315080002DC094B04221A6100212120FFF749FF034626
S315080002EC0028F3D100212120FFF742FF0346EDE752
S315080002FC4FF0FF33EAE700BF000003502DE9F04149
S3150800030C0F461646054610F0030F14D116F0030FC8
S3150800031C17D1204B4FF480329A6603F51C33DA69F1
S3150800032C02F4803841F67132DA6303F58053012200
S3150800033CDA6000230EE040F26621174800F030F828
S3150800034CE4E74FF41A71144800F02AF8E1E725445B
S3150800035C2744361B8EB105F5005424F4FF5424F0BB
S3150800036C1F04641BB44228BF344622463946284625
S3150800037CFFF78CFF03460028E9D0084A0121D16013
S3150800038CB8F1000F03D0A2F500520021D16318462C
S3150800039CBDE8F08100900050305101080020035050
S30D080003AC5FF800F023DB0008EE
S315080003C0013800D0FCE770470348044B834202D04B
S315080003D0034B03B118477047242700202427002021
S315080003E000000000064B0749C91A891048BF0131A9
S315080003F0491003D0044B0BB101481847704700BF9A
S3150800040024270020242700200000000010B5064CF1
S31508000410237843B9FFF7D8FF044B13B10448AFF369
S3150800042000800123237010BDB222002000000000C6
S315080004306C60010808B5054B1BB105490548AFF3C3
S315080004400080BDE80840FFF7CDBF00BF00000000F0
S31508000450680400206C600108A3F5803A704700BF65
S31508000460174B002B08BF134B9D46FFF7F5FF0021DE
S315080004708B460F461348144A121A0EF0EDFE0E4B21
S31508000480002B00D098470D4B002B00D09847002032
S31508000490002104000D000D48002802D00C48AFF3D7
S315080004A000800AF049FE200029000EF020FD0AF01F
S315080004B09DFC00BF000008000000000000000000CE
S315080004C00004002000040020DC22002000000000B8
S315080004D0000000000023062073B1704754B224B907
S315080004E0013353B15DF8044B70470228F8D0086809
S315080004F00A4908601046F3E710B4094A52F823106F
S315080005000A7A022AEAD9032AEAD1441EE4B2012C5D
S31508000510E6D90868014908601046E1E7800400202A
S315080005201825002010B5A2B00DF1680C274C0FCC89
S31508000530ACE80F0094E80F008CE80F000021159135
S3150800054016911791189119914FF480131593204B12
S315080005501993109111911291139114911D4B1093A7
S315080005601D4B14933C2201A80EF076FE01AC0DF14A
S31508000570540CBCE80F000FC4DCF80030236006AC4E
S315080005800DF1400CBCE80F000FC4DCF80030236006
S31508000590124B0B9320230C9301238DF83530104B07
S315080005A00F93104B1AAA01A90F4808F0CDF9044673
S315080005B038B900214FF4E1300DF096FA204622B002
S315080005C010BDBA2109480DF0ACFAF2E7203C010843
S315080005D03C00015B010010004400015B840400201C
S315080005E02C250020A40400202C060020E83B010846
S315080005F008B531B9084B1868036823B109F0EEF954
S3150800060001E0012900D908BD034B18680368002BCF
S31508000610F9D00EF058FBF6E74025002008B5034947
S31508000620034809F0B1FCFFF77DFF08BD442500200B
S315080006305806002008B5024808F0B6FA08BD00BFFB
S315080006402C06002008B5024808F0AEFA08BD00BF1F
S315080006502C06002008B503480DF08AFA02480DF06A
S3150800066087FA08BD583C0108403C010808B503490B
S31508000670034B186803F088FC08BD00BF542500200A
S3150800068074250020844600234FF6FF708B4211D252
S3150800069010B41CF8032082EA1022074C34F8122002
S315080006A082EA002080B201339BB28B42F1D35DF817
S315080006B0044B7047704700BF703C0108844600230E
S315080006C0FF208B420CD210B41CF803204240054C84
S315080006D0A05C01339BB28B42F6D35DF8044B70479E
S315080006E0704700BF703E01082DE9F04707468A4665
S315080006F09146984600263546344603E00235ADB2A3
S315080007000134A4B24C4529D2214650460BF07DF857
S315080007103A78184B03EB42031B5C00EB420CDCF106
S3150800072000020CF00F0C02F00F0258BFC2F1000CC9
S3150800073087F800C0E243520002F00E0293403343AA
S315080007409EB204F00703072BD8D1320A434603F8B2
S31508000750022B88F8016098460026CFE714F0070FA9
S3150800076004D0330A88F8003088F801602846BDE8C6
S31508000770F08700BFC03F01082DE9F04707468A46C3
S315080007809146984600263546344603E00335ADB211
S315080007900134A4B24C452FD2214650460BF035F809
S315080007A039781D4B03EB41031A5C00EB410CDCF175
S315080007B000030CF03F0C03F03F0358BFC3F1000CD5
S315080007C087F800C0E34303F0070303EB430302FA89
S315080007D003F31E4304F00703072BD7D1C6F30743D9
S315080007E088F80030C6F3072388F8013088F80260D5
S315080007F008F103080026C9E714F0070F09D0C6F365
S31508000800074388F80030C6F3072388F8013088F8CC
S3150800081002602846BDE8F087E03F010810B48B1C4B
S31508000820DB009BB206339BB2417903290CD8DFE87B
S3150800083001F002363B3E03EB43035B0004331E49DB
S3150800084081FB0313C3F34F0303F12F011B4C84FBF6
S31508000850014CC917C1EBEC0190F809C0614411704D
S315080008601749A1FB0321490901EB810202EB820228
S31508000870520092B201EB4101A3EB01139BB21BB1EB
S315080008801A4492B2023292B2437AC3EBC30103EB23
S31508000890C10302EB430080B25DF8044B704703EBDB
S315080008A04303C3F34F03CFE75B009BB2CCE703EBED
S315080008B043039BB2C8E700BF67666666ABAAAA2A67
S315080008C0ABAAAAAA10B490F807C0474C34F81CC0C3
S315080008D0807901281CD04548A0FB0C0C4FEA1C1C4B
S315080008E0A1F800C0088863282ED03BD83E2829D80E
S315080008F0232814D21E2872D80A280ED33C4C24FA70
S3150800090000F010F0010F4DD103205DF8044B70473D
S315080009104FEADC0CA1F800C0E4E70320F5E723382A
S315080009201B285ED8DFE800F03E5D5D5D5D5D5D5DC0
S315080009305D5D5D5D3E5D5D5D5D5D5D5D5D5D5D5DF8
S315080009405D4D5D4D56280BD106201080DA092948E1
S31508000950825C4A8003F07F028A80CB800020D4E73D
S315080009600320D2E7B0F5C37F04D00AD940F2931426
S31508000970A04215D1062010804FF484724A808B80DD
S31508000980EBE7B92801D0C62808D1062010801A0A34
S315080009901948825C4A80DAB28A80DEE70320B4E727
S315080009A00320B2E70620108023FA00F21348825C7F
S315080009B04A8003F03F028A80B3F5C07FCDD3032077
S315080009C0A3E7382010809A090C48825C4A8003F015
S315080009D03F028A80B3F5C07FBFD3032095E7032083
S315080009E093E7032091E700BF704001084FECC44E1F
S315080009F0000440506440010860400108684001084E
S31508000A002DE9F04FADF5217D05460191174699462A
S31508000A10AA9C002608964FF41772314609A80EF0CC
S31508000A201BFC2246494638460AF0CBFE4946204674
S31508000A30FFF728FE030A04F8093009F10103E05418
S31508000A4009F10203E654D900063189B208AA2046FC
S31508000A500AF016FF8046FF22314620460EF0FCFBC0
S31508000A606F79032F3FD0624B02AE0FCB07C626F82D
S31508000A70023B1B0C3370012F0BD0022F0CD02FB169
S31508000A804FF0000A0027BB463E4618E04FF00F0A13
S31508000A90F8E74FF0060AF5E74FF0030AF2E70BF11D
S31508000AA001030093394608A80AF0AFFE02465946E4
S31508000AB020460AF0B7FEDDF800B006E00137B84573
S31508000AC008D902AB9B5D002BE9D10136B245F5D1B9
S31508000AD00026F3E71FFA8BF808F10702D210214621
S31508000AE008A80EF0C4FB6B7A722202FB03F32246B7
S31508000AF0414608A80AF0DDFE804606AB4A4601993B
S31508000B0028460AF036FF4FF0000AD1463AE007EBCE
S31508000B10060B384B995D02A80AF077FE02460BF1E0
S31508000B20020120460AF07EFE0136272EEFD900265E
S31508000B300FE007EB060B06F128032E4AD15C02A844
S31508000B400AF063FE02460BF14A0120460AF06AFEE5
S31508000B500136272EEDD900260CE007EB060B3146A9
S31508000B6028680AF052FE02460BF12A0120460AF0CE
S31508000B7059FE01361F2EF0D909F172091FFA89F9B3
S31508000B800AF1010A6B7A534525D9A3EB0A00C0B2CC
S31508000B90013806A9C0B20AF019FF042106A8FFF712
S31508000BA08DFD8DF81C00002602960396ADF81060A0
S31508000BB002AB0122282106A80AF048FE4F46324613
S31508000BC0494620460AF02EFE324609F10101204622
S31508000BD00AF028FEA9E7C14419F1070905D4C9F3A3
S31508000BE0CF000DF5217DBDE8F08F09F10709F6E77D
S31508000BF084400108703F010800B583B06A460AF0D0
S31508000C00FFFEBDF8020000027C30034BA3FB003058
S31508000C10C00803B05DF804FBD34D621010B584B06C
S31508000C200C461423ADF80C30174B1B88ADF808306A
S31508000C3000238DF80A300323009302AB022203A98E
S31508000C400CF04AFEE8B99DF8083003F0010222705C
S31508000C50C3F340026270C3F38002A270C3F3C002FA
S31508000C60E270C3F300122271C3F3401363719DF857
S31508000C7009305B425B10A3719DF80A305B425B103A
S31508000C80E37104B010BD00BF9440010810B584B0EC
S31508000C900C461423ADF80C300F4B1B88ADF8083002
S31508000CA000238DF80A300323009302AB022203A91E
S31508000CB00CF012FE70B99DF808305B425B10237089
S31508000CC09DF9093002339B1063709DF80A305B4228
S31508000CD05B10A37004B010BD94400108844650B15F
S31508000CE00023142B10D8094A52F83320624504D23F
S31508000CF00133DBB2F5E703207047044A02EBC3036E
S31508000D001B790B7000207047022070477825002059
S31508000D100A2807D8DFE800F0200B11171A1C1E0650
S31508000D20080E14000020704742F6B100704743F6DB
S31508000D300950704745F26110704747F61220704710
S31508000D404AF2C32070474FF2244070470448704760
S31508000D50044870470448704741F68460704700BFEE
S31508000D6048E8010090D0030020A107000849A1FB2C
S31508000D700032120B43F6095303FB120041F6846353
S31508000D8003EB8033A1FB03131B0B03EB8230704785
S31508000D9083DE1B4370B586B006460C460B68194DB4
S31508000DA0B5FBF3F54868FFF7E1FF8B238DF80C30A8
S31508000DB0C5F307438DF80D30C5F307238DF80E30BC
S31508000DC08DF80F50237A8DF81030637A8DF811302C
S31508000DD0C0F307438DF81230C0F307238DF813309C
S31508000DE08DF8140000230093092203A9304600F069
S31508000DF0D7F808B106B070BD0022114630460AF091
S31508000E0097FFF7E70000093D00B583B08446074B16
S31508000E1093E803000090ADF8041003226946604683
S31508000E200BF055FC03B05DF804FB00BFA4400108B5
S31508000E3010B588B004461B4B0DF1140C93E8070057
S31508000E40ACE80300ACF800200DF1080C0C3393E86D
S31508000E500700ACE803008CF80020032120460BF0BD
S31508000E6070F8034610B1184608B010BD0023009369
S31508000E700A2205A9204600F093F803460028F2D175
S31508000E8000230093092202A9204600F089F80346A8
S31508000E900028E8D10022114620460BF045F9034602
S31508000EA0E1E700BFAC40010810B504460146074813
S31508000EB00EF0EAF930B1214605480EF0E5F918B901
S31508000EC0012000E0012010BD0020FCE7C440010815
S31508000ED0CC400108014B93F900007047B32200206B
S31508000EE0887801280CD0002835D191F906101629E2
S31508000EF022DC11F1090F27DBC9B20931C9B21CE09E
S31508000F0091F906100F2906DC11F1110F0CDBC9B295
S31508000F101131C9B200E02021012A07D00F4A52F840
S31508000F2021201A60002070470021F5E70C4A52F884
S31508000F3021201A60002070471F21012A06D0094A7D
S31508000F4052F821201A6070470146F6E7064A52F819
S31508000F5021201A6070470220704700BFD44101085B
S31508000F6058420108D44001085441010808B50B4B02
S31508000F701B7813B10CF0A8FC08BD00220A21032037
S31508000F8000F0E0F90CF0A0FC01220A21032000F091
S31508000F90D9F9024B01221A70EEE700BF1427002088
S31508000FA070B50C4616461D46FFF7E0FF00220A21DB
S31508000FB0032000F0C7F932462146002000F014FB52
S31508000FC0BDF810202946002000F00EFB01220A2158
S31508000FD0032000F0B7F92378842B04D1034B0022B1
S31508000FE01A70002070BDFFF7C1FFFAE7142700202A
S31508000FF008B500220C21032000F0A4F905200CF006
S31508001000B1FC01220C21032000F09CF905200CF00C
S31508001010A9FC024B01221A70002008BD14270020E3
S3150800102008B50121502003F019FD06F02FFB084BE7
S315080010301B6803B108BD074812F0FFF9044B186096
S315080010400028F7D1B82104480CF06BFDF2E700BF81
S31508001050E406002088430108DC42010838B5044646
S315080010600D46032803D8DFE800F00C040609002320
S3150800107009E03F2307E040F6FF7304E04FF6FF73ED
S3150800108001E047F6FF73EB4013F0010F07D001228A
S31508001090AA4004EB44042401044B1A5138BD40F21B
S315080010A0854103480CF03DFDF1E700BF40D00350F1
S315080010B09843010838B504460D46032803D8DFE8E7
S315080010C000F00C040609002309E03F2307E040F678
S315080010D0FF7304E04FF6FF7301E047F6FF73EB403A
S315080010E013F0010F07D00122AA4004EB440424019F
S315080010F0044B1A5138BD40F2564103480CF011FD15
S31508001100F1E700BF40E003509843010838B50446AC
S315080011100D46032803D8DFE800F00C04060900236F
S3150800112009E03F2307E040F6FF7304E04FF6FF733C
S3150800113001E047F6FF73EB4013F0010F09D004EB0B
S31508001140440424011434064BE058E84000F001003A
S3150800115038BD40F2274103480CF0E3FCEFE700BF37
S3150800116030C003509843010870B584B0D0B1044626
S3150800117043780E2B29D88378012B3AD0022B3BD102
S315080011800026022501213A2003F068FC33462A4648
S315080011906178207805F008FDA3680BB1E37873BB86
S315080011A004B070BD042000F04FFF0028F8D02C4C86
S315080011B02C4920680DF08FFC0CF073FC0CF072FCC7
S315080011C0294920680DF087FCEAE7042000F03CFF77
S315080011D00028E5D0224D234928680DF07CFC0CF048
S315080011E060FC0CF05FFC6278204928680DF073FCFF
S315080011F0D6E701260225C5E700260125C2E762785B
S31508001200012393401A4AC2F8243423788DF808300B
S3150800121063788DF8093003930094164BE27803A996
S3150800122002A801F033FB30B9627801239340124AD1
S31508001230C2F82434B4E7042000F006FF0028AFD033
S31508001240074D084928680DF046FC0CF02AFC0CF0FE
S3150800125029FC6278094928680DF03DFCA0E700BF23
S3150800126010070020EC430108F4430108084401086C
S3150800127000E003501DD9000800D00350304401088F
S3150800128070B50C460E2911D80546164601213A2096
S3150800129003F0E4FB002304222146284605F084FCDB
S315080012A0C6B121462846FFF7D9FE70BD042000F0D6
S315080012B0CBFE0028F9D00A4D0A4928680DF00BFC28
S315080012C00CF0EFFB0CF0EEFB2246074928680DF000
S315080012D002FCEAE721462846FFF7ECFEE5E700BFF1
S315080012E010070020EC4301085444010810B338B530
S315080012F00446836813B143780E2B03D963780E2B03
S3150800130003D838BDFFF730FFFBE7042000F09CFE4A
S315080013100028F6D0084D094928680DF0DCFB0CF0CA
S31508001320C0FB0CF0BFFB0F236278054928680DF057
S31508001330D2FBE6E7704700BF10070020EC43010820
S315080013408044010838B50C460E2903D8B2B9FFF710
S31508001350B1FE38BD042000F077FE0028F9D0094D0B
S31508001360094928680DF0B7FB0CF09BFB0CF09AFBBB
S315080013702246064928680DF0AEFBEAE7FFF76EFE3F
S31508001380E7E700BF10070020EC430108A84401085E
S3150800139038B50C460E2902D8FFF7B8FE38BD04202A
S315080013A000F052FE08B90020F8E7074D07492868FB
S315080013B00DF091FB0CF075FB0CF074FB224604490A
S315080013C028680DF088FBEEE710070020EC430108BB
S315080013D0D444010838B504460E2805D801238340AD
S315080013E00B4AC2F8203438BD042000F02DFE002830
S315080013F0F9D0084D084928680DF06DFB0CF051FB33
S315080014000CF050FB2246054928680DF064FBEAE714
S3150800141000E0035010070020EC43010800450108CE
S31508001420F0B593B007460E4600250F951095119511
S315080014300DF1140C224C0FCCACE80F000FCCACE825
S315080014400F0094E803008CE8030003950495032332
S315080014508DF80E3001218DF808108DF809508DF899
S315080014600A508DF80B502A2003F0F8FA154C20463E
S3150800147005F082FC02214FF4B06004F0C9F82A4650
S315080014801149204605F020FD8DF841008DF81750CA
S3150800149000902B462A466421204605F043FD079016
S315080014A08DF809708DF8086005AA0FA9204605F081
S315080014B099FD02AA03A9204605F012FC13B0F0BD57
S315080014C02C450108004000598096980008B5074B3E
S315080014D01B7833B1064B5B6833B1054A10689847E9
S315080014E002E0044B01221A7008BD00BFB522002095
S315080014F0E8060020B422002008B500231A4619463B
S3150800150007480FF0A5F9074B186030B1064B0122C2
S315080015101A700020054B187008BD0120FCE700BFB3
S31508001520CD140008F0060020B5220020B4220020C1
S3150800153030B587B0124B03AD93E8070085E807007E
S315080015406C460C3393E8070084E8070001220A2159
S315080015500320FFF795FE2846FFF706FE2046FFF70D
S3150800156003FE01220C210320FFF78AFE0122042133
S315080015701046FFF785FE0CF0D9F907B030BD00BF5D
S315080015805445010838B50DF05DFD00B938BD04466F
S31508001590042000F059FD0028F8D0074D07492868AF
S315080015A00DF099FA0CF07DFA0CF07CFA2246044903
S315080015B028680DF090FAE9E710070020EC430108C7
S315080015C06C45010808B54FF0FF31024B186811F059
S315080015D07EFF08BDF806002008B5024B186811F012
S315080015E0A7FF08BDF806002038B50B4B1B687BB172
S315080015F00D461446FFF7E6FF22462946064B1868AD
S3150800160002F00CFD0546FFF7E7FF1DB9204638BD79
S315080016100020FCE70020FAE7F406002038B50B4B5B
S315080016201B687BB10D461446FFF7CCFF22462946B8
S31508001630064B186802F0D6FC0546FFF7CDFF1DB924
S31508001640204638BD0020FCE70020FAE7F406002013
S3150800165008B50A4B1A680A4B1A600A4B1B6803B18D
S3150800166008BD094811F0E9FE064B18600028F7D1B5
S315080016707B2106480CF055FAF2E700BF74250020D6
S31508001680F4060020F80600203446010888450108BB
S3150800169010B584B000230093019302938DF80C30A3
S315080016A00F238DF809300C238DF809300E4811F0F8
S315080016B0CFFB0E4C6946204606F054FB204606F042
S315080016C0F9FA636813F0010F01D104B010BD204682
S315080016D006F026FB054B5B68002BF6D0034B5B6ACE
S315080016E0002BF7D1F1E700BFC45501080040005BA5
S315080016F008B5054806F014FB034B5B681BB1024BA3
S315080017005B6A002BF8D108BD0040005B08B5074BA3
S315080017100B225A7003221A7001229A70DA709860A6
S3150800172059601846FFF7E2FD08BD00BFFC06002019
S3150800173000B583B00020ADF806000DF106010BF0E8
S31508001740FAFC10B103B05DF804FB064A13889BB295
S31508001750BDF806100B439BB2138041F6FE710BF0E1
S3150800176046FDEFE7B022002010B5002240F6B8315A
S3150800177010460BF098FA08B9002010BD042000F0B6
S3150800178063FC08B90120F8E7064C074920680DF004
S31508001790A2F90CF086F90CF085F9044920680DF0D9
S315080017A09AF9EFE710070020EC43010844460108C0
S315080017B010B500200BF0CAF900200BF0CBF908B9D8
S315080017C0002010BD042000F03FFC08B90120F8E70E
S315080017D0064C074920680DF07EF90CF062F90CF00A
S315080017E061F9044920680DF076F9EFE71007002043
S315080017F0EC4301087846010810B584B00020029031
S315080018000390ADF806000DF1060302AA08210BF0B5
S31508001810C7FA30B9042000F017FCB0B9002004B0AC
S3150800182010BD042000F010FC08B90120F7E7104CA1
S31508001830104920680DF04FF90CF033F90CF032F925
S315080018400D4920680DF047F9EFE7094C094920686A
S315080018500DF041F90CF025F90CF024F902ABBDF8AE
S315080018600620064920680DF036F90020D7E700BFA4
S3150800187010070020EC4301089C460108CC460108E5
S3150800188008B50348FFF770FC0248FFF76DFC08BD72
S31508001890302600202426002010B582B000230093AD
S315080018A001932B4B1B789BB12A4B009300210846CA
S315080018B00BF0ACF978B90822694600200BF05FFAFC
S315080018C0E8B900200BF0B1F968BB002002B010BDE2
S315080018D0214B0093EAE7042000F0B6FB08B9012083
S315080018E0F4E71E4C1E4920680DF0F5F80CF0D9F8FF
S315080018F00CF0D8F81B4920680DF0EDF8EFE7042046
S3150800190000F0A2FB08B90120E0E7144C144920684E
S315080019100DF0E1F80CF0C5F80CF0C4F8124920688F
S315080019200DF0D9F8EFE7042000F08EFB08B9012086
S31508001930CCE70A4C0A4920680DF0CDF80CF0B1F84E
S315080019400CF0B0F8094920680DF0C5F8EFE700BFBC
S31508001950B722002050494E47504F4E4710070020E7
S31508001960EC430108EC4601081847010848470108F6
S3150800197038B504460CF04EF80546144B01221A7089
S31508001980237813B1012B10D038BD1046FFF722FD7E
S315080019900F4B1B68EB1A322BF6D90E4B01221A7025
S315080019A00B4B1D60FFF778FFEEE70320FFF712FDEC
S315080019B0094B1B68EB1A322BE6D9064B00221A7024
S315080019C0054B1D60FFF7D0FEDEE700BFB6220020FC
S315080019D00C070020B72200200807002010B582B0A7
S315080019E000200BF0B3F801A900200AF0E4FBC8B9FF
S315080019F09DF8053013B1002002B010BD042000F098
S31508001A0023FB08B90120F7E7114C124920680DF0AD
S31508001A1062F80CF046F80CF045F80F4920680DF00E
S31508001A205AF8EFE7042000F00FFB08B90020E3E7B7
S31508001A30074C084920680DF04EF80CF032F80CF007
S31508001A4031F8064920680DF046F80020D4E700BFB3
S31508001A5010070020EC43010870470108B047010849
S31508001A6010B5674C617820780BF0E7FFE0702146E7
S31508001A7064480BF050FEB8B941F6FE7100200BF031
S31508001A80C0FB28BB012100200BF0F5F8002833D154
S31508001A90042000F0D9FA002842D15B4809F022FB5D
S31508001AA05A4809F01FFB4BE0042000F0CDFA08B9AC
S31508001AB0012010BD564C574920680DF00CF80BF064
S31508001AC0F0FF0BF0EFFF544920680DF004F8EFE73C
S31508001AD0042000F0B9FA08B90120EAE74C4C4D4950
S31508001AE020680CF0F8FF0BF0DCFF0BF0DBFF4B492E
S31508001AF020680CF0F0FFEFE7042000F0A5FA08B91B
S31508001B000120D6E7424C434920680CF0E4FF0BF06D
S31508001B10C8FF0BF0C7FF424920680CF0DCFFEFE76F
S31508001B203B4C3C4920680CF0D6FF0BF0BAFF0BF093
S31508001B30B9FF3C4920680CF0CEFFAEE70BF066FF14
S31508001B40394B1B78002BF9D0374B00221A70374BCC
S31508001B501B784BB3042000F077FA48B9FFF79CFED0
S31508001B600028A6D0042000F06FFA78B90120A0E773
S31508001B70274C284920680CF0AEFF0BF092FF0BF0BB
S31508001B8091FF2B4920680CF0A6FFE7E7204C214976
S31508001B9020680CF0A0FF0BF084FF0BF083FF2549AB
S31508001BA020680CF098FFE1E7042000F04DFA50B9E0
S31508001BB0FFF7DAFD00283FF47CAF042000F044FA72
S31508001BC078B9012075E7124C124920680CF083FF9A
S31508001BD00BF067FF0BF066FF174920680CF07BFFD8
S31508001BE0E6E70B4C0B4920680CF075FF0BF059FF24
S31508001BF00BF058FF114920680CF06DFFE1E700BFB4
S31508001C003C260020644B010894480108AC480108AA
S31508001C1010070020EC430108D447010800480108D2
S31508001C203448010864480108B6220020B72200207B
S31508001C30C4480108E04801080C4901082849010878
S31508001C4010B5002108460AF0E1FF48B90121002035
S31508001C500AF0D4FFC0B901200BF084FE002010BDA5
S31508001C60042000F0F1F908B90120F8E7134C1449EB
S31508001C7020680CF030FF0BF014FF0BF013FF11492E
S31508001C8020680CF028FFEFE7042000F0DDF930B9F2
S31508001C9040F2DD110C480BF044FF0120DFE7074C4A
S31508001CA0074920680CF017FF0BF0FBFE0BF0FAFE55
S31508001CB0064920680CF00FFFEAE700BF100700206E
S31508001CC0EC43010854490108AC4901088049010858
S31508001CD010B5042000F0B8F9C8B90BF02FFEFFF7CD
S31508001CE0CFFDFFF77BFE00BBFFF762FD002834D16E
S31508001CF000213248FFF70AFDFFF7B2FE002844D15B
S31508001D00FFF79EFF4FF47A700BF032FE10BD2C4C95
S31508001D102C4920680CF0DFFE0BF0C3FE0BF0C2FE68
S31508001D20294920680CF0D7FED7E7042000F08CF983
S31508001D3028B940F2C11125480BF0F3FED4E7204C30
S31508001D40204920680CF0C7FE0BF0ABFE0BF0AAFE8C
S31508001D501F4920680CF0BFFEEBE7042000F074F979
S31508001D6028B94FF4E37119480BF0DBFEC0E7144CB1
S31508001D70144920680CF0AFFE0BF093FE0BF092FEB0
S31508001D80144920680CF0A7FEEBE7042000F05CF984
S31508001D9028B94FF4E7710D480BF0C3FEB0E7084CBD
S31508001DA0084920680CF097FE0BF07BFE0BF07AFED4
S31508001DB0094920680CF08FFEEBE700BF31170008D1
S31508001DC010070020EC430108C0490108AC49010886
S31508001DD0F4490108104A0108304A010810B50F4AAB
S31508001DE000210F4811F0CAF910B1FFF771FF10BDB5
S31508001DF0042000F029F900B9FEE70A4C0A492068D0
S31508001E000CF069FE0BF04DFE0BF04CFE074B084A32
S31508001E10084920680CF05FFEEEE700BF404B01085A
S31508001E2095DA000810070020EC430108644A010807
S31508001E30AC470108804A010810B50BF0E7FD794B5D
S31508001E401B889BB2002B3DD0764B1B8813F0040FE2
S31508001E5023D1744B1B8813F0020F47D1714B1B8893
S31508001E6013F0080F64D16F4B1B8813F0400F40F036
S31508001E7081806C4B1B8813F0800F40F09580694B6E
S31508001E801B8813F0200F00F0A980664A13889BB2BE
S31508001E9023F020039BB2138014E0624C23889BB284
S31508001EA023F004039BB22380FFF7A6FC23889BB28A
S31508001EB0042B08D0FFF7C4FE4FF4FA700BF058FD58
S31508001EC0FFF7EAFC10BD042000F0BEF80028F1D0A8
S31508001ED0554C564920680CF0FEFD0BF0E2FD0BF060
S31508001EE0E1FD534920680CF0F6FDE3E7042000F015
S31508001EF0ABF878B9FFF7A4FE4FF4FA700BF038FD8B
S31508001F00FFF732FC474A13889BB223F002039BB2C1
S31508001F101380D7E7444C454920680CF0DCFD0BF0EC
S31508001F20C0FD0BF0BFFD434920680CF0D4FDE1E786
S31508001F30042000F089F878B9FFF782FE4FF4FA70AA
S31508001F400BF016FDFFF7A8FC364A13889BB223F060
S31508001F5008039BB21380B5E7334C344920680CF06C
S31508001F60BAFD0BF09EFD0BF09DFD334920680CF081
S31508001F70B2FDE1E7042000F067F838B9294A13886A
S31508001F809BB223F040039BB213809BE7264C27495C
S31508001F9020680CF0A0FD0BF084FD0BF083FD2749AB
S31508001FA020680CF098FDE9E7042000F04DF838B9F0
S31508001FB01C4A13889BB223F080039BB2138081E7E7
S31508001FC0194C1A4920680CF086FD0BF06AFD0BF0D7
S31508001FD069FD1B4920680CF07EFDE9E7114B1B885B
S31508001FE013F0100F07D00F4A13889BB223F0100383
S31508001FF09BB2138066E7042000F026F800283FF419
S3150800200061AF094C094920680CF065FD0BF049FDE4
S315080020100BF048FD034B1A8892B20A4920680CF067
S315080020205AFD4FE7B022002010070020EC430108B4
S31508002030884A0108AC4A0108BC4A0108E04A010876
S31508002040FC4A0108144B010803460B4A107828B1CC
S315080020500A4A12789A4202D2002000E00120084A71
S3150800206012783AB1074A127842FA03F313F0010FCD
S3150800207000D10020704700BF172700201627002030
S31508002080B82200201527002008B5084B01221A702F
S31508002090074B00221A70074B04221A70064B1F22A0
S315080020A01A7006F049FB054B186008BD1727002073
S315080020B0B822002016270020152700201007002028
S315080020C008B5044810F0C4FE09F03AFB00F07AF8A7
S315080020D008BD00BFD455010808B5024810F0B8FE7F
S315080020E008BD00BFD45501082DE9F04180460E46CB
S315080020F0082904D106F1090500273C460AE040F202
S31508002100631121480BF00DFDF4E75B21082000F070
S315080021105DFA0134AC4233D2052C1BD801A353F81F
S3150800212024F000BF0B2100083D210008712100089A
S3150800213045210008492100084D210008F3B204335F
S31508002140D9B2E3E78021E1E70021DFE77B1C3946C6
S31508002150DFB2DBE7B31DA3420CD0F31DA3420BD0BD
S3150800216006F10803A34209D0A31F18F80310CDE708
S31508002170D121CBE75A21C9E75A21C7E75D21C5E72F
S315080021800020BDE8F08100BF784C010800B583B097
S31508002190044B1B88ADF8043001A800F007FB03B018
S315080021A05DF804FBE04C010800B583B0044B1B88BE
S315080021B0ADF8043001A800F0C3FA03B05DF804FBDB
S315080021C0E04C01082DE9F04F97B04D4D09AC2E1D96
S315080021D00FCE0FC43368236001AC05F118060FCE85
S315080021E00FC496E80F0084E80F00464810F030FE4A
S315080021F0454810F02DFE01268DF8096000248DF85B
S315080022000840424B0B9301AB0D93414F09A9384641
S3150800221004F0FAFBB5F838B0ADF838B03246042108
S315080022200EA800F043FAB5F83CA0ADF83CA022464B
S3150800223031460FA800F03AFAB5F84090ADF840904C
S315080022403246042110A800F031FAB5F80080ADF83E
S3150800225044803246042111A800F028FA2D4D2E4B51
S31508002260C5F8F8344FF00213C5F8F434A3F58033F3
S31508002270C5F8FC341C23C5F8E4344FF4487008F05C
S3150800228023F9FFF783FF142008F01EF9FFF78CFFE8
S31508002290232008F019F9FFF779FFB92138460CF021
S315080022A0E4FAFFF781FFADF848B02246214612A8A6
S315080022B000F0FCF9ADF84CA02246214613A800F020
S315080022C0F5F9ADF850903246214614A800F0EEF91B
S315080022D0ADF854803246214615A800F0E7F938468D
S315080022E003F0CAFFC5F8E444C5F8F844C5F8F44451
S315080022F0C5F8FC44044810F0B0FD17B0BDE8F08FEF
S31508002300E04C0108D4550108DC550108E07072005C
S3150800231000000A5000C003500200030008B5044834
S31508002320044A121A921004490BF0F1FB08BD00BFCB
S315080023307C010008B4030008E022002008B5154B0C
S3150800234083F30A8800F030F8FFF7E8FF124A0AE03C
S315080023501068516850F8230041F82300013391684A
S315080023608B42F5D30C320D4B9A4201D20023F6E785
S315080023700B4A08E01168002041F823000133516830
S315080023808B42F7D30832074B9A4201D20023F6E76D
S31508002390FEF766F8000000207460010880600108F6
S315080023A0806001088060010870B5134B134A9A6073
S315080023B0D3F8882042F47002C3F88820104A4FF4F4
S315080023C0804191660F4D05F500544FF0FF322266A5
S315080023D00D4A62660222C3F8D020BFF34F8FBFF3BF
S315080023E06F8F002006F026F94FF44036E66000208D
S315080023F006F0BEF82E6170BD00ED00E00000000892
S3150800240000900050008000447FFF7F03014B186056
S31508002410704700BF5426002008B5064B1860064BC7
S315080024201B6F03F00703032B00D008BD0DF032F92C
S31508002430FBE700BF5C2600200080005038B5044644
S315080024400D4621B118B123682B60256038BD3721A8
S3150800245001480BF066FBF6E7244D010838B504463B
S315080024600D4601B128B9452105480BF05AFB00E095
S315080024701C462368002BFBD12B60256038BD00BFA6
S31508002480244D010810B5044630B1206818B1036818
S3150800249023600023036010BD562102480BF041FB60
S315080024A0F3E700BF244D010838B504460D4601B1CF
S315080024B028B98B2106480BF034FB00E01C4623683C
S315080024C02BB1AB42FAD12B68236000232B6038BDB1
S315080024D0244D010848B1074B1B78012B07D8037018
S315080024E00133044A13700020704701207047012009
S315080024F0704700BFB922002010B582B000240194AD
S315080025002A4810F0A5FC8DF8004003238DF8013009
S3150800251001220421684600F0C9F8254B0122C3F8B8
S31508002520442401A9052010F08CFC00283BD1214B3E
S31508002530D3F8F02042F00102C3F8F020D3F8FC20CB
S3150800254042F08072C3F8FC20A3F55D431A4A1A606C
S31508002550019B03F5D52303F2FC43DB08174AA2FBCC
S3150800256003239B0A013B164A13610223C2F8F03083
S315080025704FF48073C2F804334FF06043114AC3F82E
S31508002580B02F114AC3F8802ED3F8002E42F4807279
S31508002590C3F8002EFF2283F82020D3F8002E22F459
S315080025A08072C3F8002E02B010BD00BFD4550108D2
S315080025B000D0035000ED00E0FF03004017916502CC
S315080025C0000004E055CEACC5090001004FF0604399
S315080025D0D3F8803E13F0010F01D1112070470E4A3F
S315080025E0D2F8FC3043F08073C2F8FC304FF06043F9
S315080025F0D3F8002E4FF0010C0CFA00FC42EA0C024C
S31508002600C3F8002E53F82030002BE8D04FF0604373
S3150800261003F820100020704700ED00E010B50446CE
S315080026200FE00123834024EA03040F2814D800EBA3
S3150800263040020E4B03EB82035A6812B19968C0B286
S31508002640904794B1234600201F28EAD813F0010FBB
S31508002650E7D101305B08F7E7103800EB40039B0031
S31508002660B033024A13440433E6E710BD14070020CA
S3150800267008B50D4810F0ECFB1A2005F089FF28B9BB
S315080026801B2005F085FF40B9002008BD1A2005F07B
S31508002690D1FF1A2005F06CFFF2E71B2005F0CAFFF0
S315080026A01B2005F065FFEFE7D45501082DE9F04139
S315080026B070B10C46154606460F2930D803787BB10B
S315080026C0022B26D0032B27D0012B07D0002309E0A5
S315080026D0932119480BF025FA222717E03F2301E03A
S315080026E047F6FF737278D34013F0010F17D0134BD8
S315080026F0D3F81073CFB910F035FB80462A46214629
S31508002700304605F039F9404610F027FB3846BDE853
S31508002710F08140F6FF73E5E74FF6FF73E2E797218E
S3150800272005480BF0FEF92127F0E79B2102480BF03C
S31508002730F8F90227EAE700BF784D010800C0035000
S3150800274038B550B1044603787BB1022B1FD0032B52
S3150800275020D0012B07D0002309E0E42112480BF012
S31508002760E0F9222012E03F2301E047F6FF73627882
S31508002770D34013F0010F10D010F0F4FA05462046A6
S315080027800DF0C4F8284610F0E8FA002038BD40F6E7
S31508002790FF73ECE74FF6FF73E9E7E82102480BF011
S315080027A0C0F92120F2E700BF784D010838B550B1CD
S315080027B0044603787BB1022B1FD0032B20D0012BB4
S315080027C007D0002309E0FC2112480BF0AAF92220C1
S315080027D012E03F2301E047F6FF736278D34013F017
S315080027E0010F10D010F0BEFA0546204605F056F83F
S315080027F0284610F0B2FA002038BD40F6FF73ECE721
S315080028004FF6FF73E9E74FF4807102480BF089F938
S315080028102120F1E7784D010870B560B10C460646EF
S3150800282049B1037883B1022B21D0032B22D0012B87
S3150800283008D000230AE040F22D1113480BF071F975
S31508002840222013E03F2301E047F6FF737278D34056
S3150800285013F0010F11D010F085FA0546304605F041
S3150800286053F82070284610F078FA002070BD40F61C
S31508002870FF73EBE74FF6FF73E8E740F231110248C2
S315080028800BF04FF92120F1E7784D01082DE9F041C9
S3150800289070B10C4615461F46064649B1037883B102
S315080028A0022B45D0032B46D0012B08D000220AE084
S315080028B04FF4E07134480BF034F9222036E03F2219
S315080028C001E047F6FF727178CA4012F0010F01D194
S315080028D0FF2B33D1022D01D9042D36D110F042FA3F
S315080028E080463378FF2B37D12368B3F1FF3F3AD0C0
S315080028F02268B2F1FF3F41D0244B02EB420203EBC0
S3150800290082025760226802EB420203EB8203069AB0
S315080029109A603378FF2B05D02268012393401C4A1E
S31508002920C2F82434404610F018FA0020BDE8F081B9
S3150800293040F6FF72C7E74FF6FF72C4E74FF4E2713D
S3150800294011480BF0EEF82120F0E74FF4E4710E4839
S315080029500BF0E7F82120E9E72A462168304605F01A
S315080029608DF82060C0E73378FF2BC1D1094BD3F827
S31508002970241470780BF098FF2060B9E7404610F0F1
S31508002980ECF92D20D2E700BF784D01081407002086
S3150800299000D0035000C0035008B5084BD3F82404F0
S315080029A0D3F82024104000F0553020F0A04003F55D
S315080029B00053C3F82004FFF731FE08BD00C00350DA
S315080029C008B5084BD3F82404D3F82024104000F0A7
S315080029D0AA3020F0204003F50053C3F82004FFF77F
S315080029E01DFE08BD00C0035010B582B004460A4853
S315080029F010F02EFA23788DF8043063788DF80530B8
S31508002A00A278B2FA82F2520904210DEB0100FFF70F
S31508002A104DFE002002B010BDD4550108F0B585B0B2
S31508002A200C4694469DF83410664A1278002A00F03F
S31508002A30BD800546BCF1070F00F2BA800A9A002A43
S31508002A4000F0B8800B9A002A00F0B6800E9AB2F50C
S31508002A50006F00F3B38001285BD05B4A02EB0C12CF
S31508002A60127B002A00F0AC800022009201920292AA
S31508002A700392564A02EB4C1E002C4FD14FEA4C16D5
S31508002A8000209051CEF80400CEF80800CEF80C00CD
S31508002A909EF8020040F010008EF802009EF803002F
S31508002AA040F030008EF8030021B9C1B241F00301AD
S31508002AB08EF8031000930E9B013B444A4FEA4C10D4
S31508002AC002EB4C11165A63F30E1616520A9B8B60CC
S31508002AD00B9B4B60CB789DF83C2062F38303CB704D
S31508002AE0012D36D0109B002B56D0374A4FEA0C11D1
S31508002AF002EB0C1310985050119A5A6000249C60EF
S31508002B005D7372466946604604F0DAFC204605B0F5
S31508002B10F0BD0C9A002AA0D12D48F8E72B4F4FEAB2
S31508002B204C1607EB4C120020B85150609060D060EC
S31508002B30907840F010009070D07840F00300D07084
S31508002B400029B7D107EB4C12C1B241F03001D17060
S31508002B50B0E70E460A7B42F001020A73D2B242F08F
S31508002B6002020A73CA68042161F39F02F26006F141
S31508002B70100796E80F0087E80F00F2696FF0030167
S31508002B8061F39F02F2610C9B7361012CAAD10B9A27
S31508002B90B2610C9A7260A5E7002DA6D10B4B03EB28
S31508002BA04C139A786FF304129A709EE70948AEE7B9
S31508002BB00748ACE70648AAE70548A8E70448A6E791
S31508002BC00548A4E7BA2200207C0900207C080020DA
S31508002BD0018000F0028000F0078000F0134B1B789C
S31508002BE0FBB110B50446F0B110F0BCF80023072B72
S31508002BF013D80F4A02EB0312127B0AB10133F6E728
S31508002C0023600B4A190102EB031301241C730024E9
S31508002C10545010F0A2F8204602E010F09EF805483D
S31508002C2010BD054870470548FAE700BFBA220020DC
S31508002C307C090020048000F0028000F0018000F08A
S31508002C4038B510F08FF804460023072B06DC0C4A2B
S31508002C5002EB0312127B12B90133F6E7002222B106
S31508002C60204610F07AF8074838BD04F0B3FB002573
S31508002C70054B1D70204610F070F82846F4E700BF93
S31508002C807C090020058000F0BA2200200F4B1B7833
S31508002C90BBB110B50446072815D810F063F80C4BDD
S31508002CA003EB04131B7B1BB910F057F809480BE01C
S31508002CB0074B03EB041300241C7310F04EF8204650
S31508002CC002E005487047054810BD00BFBA2200203B
S31508002CD07C090020068000F0028000F0018000F0E8
S31508002CE000B583B0134B1B68019300238DF804309D
S31508002CF010F038F8104B1B7833B90F4B01221A70B5
S31508002D0010F02BF8002309E010F027F80B480EE026
S31508002D100B4A02EB0312002111730133072BF7DD6F
S31508002D2008238DF8073001A804F080FB002003B0C3
S31508002D305DF804FBD04D0108BA220020038000F09C
S31508002D407C09002010B5104C2478BCB1072817DC84
S31508002D500E4C04EB0014247BA4B10C4C4FEA001E65
S31508002D6004EB001C44F80E30029BCCF80430002417
S31508002D70CCF8084004F0A4FB204610BD0448FCE744
S31508002D800448FAE70448F8E7BA2200207C0900203C
S31508002D90028000F0018000F0078000F008B50A4BB9
S31508002DA01B785BB107280BD8084B03EB00131B7B7A
S31508002DB043B1002104F024FB002008BD0448FCE7C9
S31508002DC00448FAE70448F8E7BA2200207C090020FC
S31508002DD0028000F0018000F0078000F008B50A4B79
S31508002DE01B785BB107280BD8084B03EB00131B7B3A
S31508002DF043B1012104F004FB002008BD0448FCE7A8
S31508002E000448FAE70448F8E7BA2200207C090020BB
S31508002E10028000F0018000F0078000F0F8B5194B39
S31508002E201F6D5B6D1F4002D40125002402E0FEE7FA
S31508002E3001346D00072C24D83D42F9D0124B1D658C
S31508002E402301124AD358002BF2D002EB0416B168BC
S31508002E500131B16072682046984780F00100C0B21F
S31508002E60737B012BE4D10028E2D0094B03EB441312
S31508002E701A7B6FF341021A731A7F6FF341021A77AE
S31508002E80D6E7F8BD00000450002004507C09002055
S31508002E907C0800202DE9F04F89B005460E461446F9
S31508002EA09846C36B5B69012207A960689847EB6B74
S31508002EB05B69012206A93046984707A80BF053FA22
S31508002EC048B10027A77567754FF0FF33A3603846EA
S31508002ED009B0BDE8F08F074606A80BF054FA01239F
S31508002EE0A375237E033304EBC3035E6000221A81B5
S31508002EF06368B3422AD02368834201D00023A375AE
S31508002F0006A80BF065FA237D984201D00023A37525
S31508002F1006A80BF03CFA814607A80BF038FA81455B
S31508002F2001D00023A37506A80BF039FA814607A835
S31508002F300BF035FA814501D00023A375237D043BA8
S31508002F40DBB2022B0BD80023A375C0E7206006A8C6
S31508002F500BF03EFA20754FF0FF33A360EEE706A8A4
S31508002F600BF015FA80B1EB6B5B69022204A93046B7
S31508002F70984704A80BF01EFA0346207D032867D855
S31508002F80DFE800F0605A070D06A80BF013FA0346AF
S31508002F90F3E7237E033304EBC303CC221A810BF039
S31508002FA01BFA129B187094F8189006A80BF0E2F911
S31508002FB009F1030904EBC90989F80A00237E0333DA
S31508002FC004EBC303B3F808A093F80AB006A80BF0FD
S31508002FD0DEF9814606A80BF0E2F90390B9F1000F75
S31508002FE03CD0EB6B5B69022204A93046984704A8DB
S31508002FF00BF09CF96075637D03B9A375A37DA3B136
S31508003000BAF1000F11D0039BF1186B6C5B4286EA8C
S3150800301001021A4201D00023A3756B6C5A1E0A409E
S315080030209B1A9A4501D90023A375A37D8BB3BBF1DF
S31508003030000F18D1E77D2DE0227E033204EBC20291
S315080030401381ACE7227E033204EBC2021381A6E7A2
S31508003050227E033204EBC2021381A0E706A80BF016
S315080030604EF96075C7E70122E275627E42B9BBF187
S31508003070010F01D01F460DE001216176174609E0D0
S31508003080BBF1010F37D0BBF1030F03D10122A276A2
S3150800309000E01F4653B117B1BBF1010F06D95346DD
S315080030A0039A314628460AF0CBFFA060A37D13B1E8
S315080030B0236953442361237E114A127893421CD212
S315080030C001332376B8F1000F13D0A37D8BB1E37DCE
S315080030D07BB177B9BBF1030F0BD0A168B1F1FF3F04
S315080030E007D0129B0093012322462846FFF7D2FEFB
S315080030F0A075A77DEBE61746CCE70023A375E1E7A5
S31508003100F44D01082DE9F04F89B005460F46924661
S315080031109B4600238DF80B304FF0FF31104600F028
S31508003120E9FAB7F5801F1DD30023009317F1020FA4
S3150800313007D0009B002B40F09E802B7C002B00F0D4
S315080031408C80EB6AB3F1FF3F2CD02A689B1A6A6C15
S31508003150B3FBF2F917F1020818BF4FF00108002374
S3150800316001935DE00DF10A02394605F1080000F009
S315080031703DFA0146B0F1FF3F11D0504600F0BAFAC9
S315080031800DF10B030122514628460AF0A4FF0090D0
S315080031900028CBD09DF80B308BF80030C6E700230B
S315080031A00093C3E7696A28460AF06BFE8146D1E7B1
S315080031B00123019337E09DF80B308BF80030324B32
S315080031C01A68324950460CF052F800942F4B996809
S315080031D0B1F1FF3F1BD06B6C5B4281EA06021A42D3
S315080031E015D12A4C204600F085FA0DF10B0342460C
S315080031F0214628460AF06FFF04460028E6D017F154
S31508003200020FD8D0214B1B68BB42DFD1D3E7494612
S3150800321028460AF036FE8146019BCBB9009BBBB90E
S315080032206B6A4B45C4D02C686B6C03FB0944EB6B8B
S315080032305B69052203A92046984703A80BF042F9C3
S315080032400BF067F920460BF070F906460146BFE712
S31508003250009BA3B1B7F5801F03D3009B8BB1002059
S315080032600AE09BF80030DAF80420394605F1080030
S3150800327000F0DAF9F1E7002009B0BDE8F08F2D205B
S31508003280FAE72D20F8E700BFF04D0108701000207E
S3150800329070B582B004464FF0FF33C3620DF10703E1
S315080032A01A4A6FF00101FFF72DFF20BB174B9B68E9
S315080032B0E362E56A294620460AF010FD2063E8B174
S315080032C0294620460AF0ACFE0546A36AAB421BD047
S315080032D0294620460AF002FD0646236B034423636B
S315080032E0294620460AF09CFE0546002EEDD100230D
S315080032F02363E062E9E7A36AE362DAE7E16A204664
S315080033000AF08EFEE062DBE702B070BD9C1000207A
S315080033102DE9F04182B004460E4690461F46816A62
S3150800332006E01A4B9968B1F1FF3F1FD0012E23D052
S31508003330E06A884217D0B1F1FF3F14D0134D2846F2
S3150800334000F0D8F90DF107030122294620460AF0B4
S31508003350C2FE0028E5D03B469DF8072029462046B0
S31508003360C0470028DDD102B0BDE8F0815968204683
S315080033700AF056FE0146D9E7044B5A68636C5B426D
S315080033804A401A42D4D04FF0FF31D1E7441000200A
S3150800339010B50446083000F011F90023024A194610
S315080033A02046FFF7B5FF10BDC5E00008F8B56E4B1F
S315080033B01E6800221A60002800F0B6800D460446F2
S315080033C090F8343013B30A6803689A4240F0AE8026
S315080033D04A6843689A4240F0AC808A6883689A4291
S315080033E040F0A980CA68C3689A4240F0A6800A6974
S315080033F043699A4240F0A3808A69C36B9A4201D016
S315080034005D2594E04B698361002590E0876B68220F
S3150800341000210BF021FFA7632B6823606B686360AC
S315080034202B6963616B69A361EA68A96804F10800FE
S3150800343000F0D6F8AB69E3639B6804F1400098474F
S3150800344030B9636C23B16268B2FBF3F2E26101E062
S315080034500023E36194F84330002B72D000232366DF
S31508003460656C002D6FD0E369002B6ED02368B3FB23
S31508003470F5F205FB1233002B69D16768B7FBF5F344
S3150800348005FB1373002B64D120460AF017FCA369C9
S31508003490034404339F425ED36369B3F5805F5CD807
S315080034A0CB2B5CD9B5F5805F5BD3032120460AF0A8
S315080034B035FCE36B1B686168206898470546E36B33
S315080034C0DB6802209847EDB1636C143B5DB9266A48
S315080034D003FB06F620460AF0F1FBA369034404330E
S315080034E09E4200D25A25B5FA85F35B0984F8343032
S315080034F01BB11E4A13680133136085B120460AF0D2
S315080035007BFE14E0314620460AF0F9FD054664289C
S31508003510DAD1314620460AF0F2FD0546D4E761685D
S3150800352020680AF0E6FEE9E7212500E05D25284641
S31508003530F8BD5D25FBE75D25F9E75D25F7E75D2520
S31508003540F5E72125F3E75B25F1E75B25EFE7592545
S31508003550EDE75925EBE75A25E9E75F25E7E75F2514
S31508003560E5E75B25E3E700BF000A0020FC09002029
S31508003570036853F83100C0F313007047036853F823
S315080035803100C0F307507047006850F831301B0D02
S315080035901B05134340F83130704700BF006850F8E8
S315080035A03130C3F3130343EA025340F8313070470E
S315080035B0036803EBC1035A60704700BF002309E0A4
S315080035C002684FF0FF3142F83310026802EBC3027B
S315080035D05160013342689A42F2D800230372704759
S315080035E008B501604260FFF7E9FF08BD10B5002382
S315080035F000E0013344689C4212D904684FEAC30EBE
S3150800360054F83340B4F1FF3FF3D0C4F3130C6145CB
S31508003610EFD1C4F30754147003687344586801E083
S315080036204FF0FF3010BD00BF2DE9F047456806464C
S315080036307DB30F46914698460024D0F800A05AF864
S315080036403430013305D021463046FFF791FFB842A2
S3150800365010D00134A542F2D1002402E00134A5427B
S3150800366014D05AF834300133F8D13A462146304658
S31508003670FFF78AFF424621463046FFF78FFF4A4644
S3150800368021463046BDE8F047FFF792BFB8F1030F71
S3150800369003D101233372BDE8F087002402E0013428
S315080036A0A542F6D021463046FFF768FF0328F6D133
S315080036B03A4621463046FFF767FFDBE708B5034B76
S315080036C01968034B1868FFF771FE08BD60260020CD
S315080036D08026002008B50FF035FB014B186008BDA1
S315080036E0C810002008B5024B18680FF027FB08BD64
S315080036F0C810002038B504460D46094B1A68002143
S315080037000BF0AAFD4FF0FF32226065600023A37517
S315080037102361A260E3756376A376237638BD00BF7E
S31508003720F04D01082DE9F04186B006460D461746CC
S31508003730984658680AF05EFE4403A4B298F8033027
S315080037401B0303F480531C4498F80230DB0203F48D
S3150800375000631C44B8F80030C3F30A031C441B4B2F
S315080037600193002138460AF04FFE0290012138469F
S315080037700AF04AFE03904FF0FF3304936FEA0444BD
S315080037806FEA14440594B369012205A905F11000EE
S3150800379098470446B369012203A905F1080098472A
S315080037A0074600B92746B369012202A9281D98478A
S315080037B0044600B93C46B369012201A92846984740
S315080037C000B9204606B0BDE8F08100BF01009AB2F4
S315080037D0B0B110B50446A9B1B2B1B2F5006F15DCA7
S315080037E00FF0C0FA94F84C3033B9012384F84C3002
S315080037F00FF0B3FA002010BD0FF0AFFA0448FAE74D
S31508003800044870470448F6E70348F4E70248F2E735
S31508003810032000F0012000F0022000F0F8B505466C
S315080038200F4614460FF08EFA064645B12B685C40E3
S315080038303C405C402C6030460FF080FAF8BD4FF4EF
S315080038409C7102480AF06DF9F0E700BF004E0108C6
S3150800385010B504680521204602F02CFD0B4B9C424E
S315080038600FD00B4B9C420ED003F580439C4206D0EA
S31508003870084818221146FFF7D1FF002010BD064858
S31508003880F7E70648F5E70648F3E700BF0000015BDF
S3150800389000000A50A4C4035004C50350C4C403500E
S315080038A0E4C4035008B503680B4A93420FD00B4A89
S315080038B093420ED002F58042934206D00848002271
S315080038C01821FFF7ABFF002008BD0648F7E70648B2
S315080038D0F5E70648F3E700BF0000015B00000A5061
S315080038E0A4C4035004C50350C4C40350E4C403501D
S315080038F038B50D46012904D9023DEDB2012D0ED980
S3150800390038BD0E4B1C68803C05E02046FFF7A0FF3B
S31508003910D4F88040803C14F1800FF6D1ECE7074BD1
S315080039201C68803C05E02046FFF7BCFFD4F88040C1
S31508003930803C14F1800FF6D1E2E700BFCC100020DE
S3150800394038B50446836D002B0ADD0FF00BFA0546E1
S31508003950A36D013BA36543B128460FF0FEF938BDB8
S31508003960CA2104480AF0DDF8EFE701200BF0BAFF98
S31508003970F2E700BF504E010870B58EB006460C46F9
S31508003980904D0DF1180CAE46BEE80F00ACE80F00DE
S315080039909EE80F008CE80F000DF1040E05F1200CCF
S315080039A0BCE80F00AEE80F00DCF80030CEF80030B7
S315080039B006AB0593002E00F0F7803546002C00F084
S315080039C0F5808422002130460BF046FC30460AF08A
S315080039D000FE23687C4A934210D07C4A934200F04A
S315080039E0A9807B4A934240F0E4807A4B33657A4B50
S315080039F0F3624FF490133363022607E0774B33657F
S31508003A00774BF3624FF480133363002623682B60E9
S31508003A10012385F85C3005F1040CA646BEE80F00C4
S31508003A20ACE80F009EE80F008CE80F00637E012BC0
S31508003A3000F08980A37E002B40F088808DF8123034
S31508003A40237E012B00F0938000238DF83430E36841
S31508003A50039364480FF0FCF92B6D98680FF0F8F99A
S31508003A602369DA1F092A00F2A880063B8DF8103070
S31508003A70237E2BB9E37EB3FA83F35B098DF81C30FA
S31508003A80012128460AF0E4FD002840F090802179BB
S31508003A90227A334641EA0241720102F1A04202F556
S31508003AA07032C2F8DC146179607A41EA0041C2F8E2
S31508003AB0D414A179A07A41EA0041C2F8D814E27E6A
S31508003AC052B9E279E17A42EA01422636760106F1EE
S31508003AD0A04606F57036B260E27E002A58D1263333
S31508003AE05B0103F1A04303F570331D225A6001A957
S31508003AF0206802F089FF0FF035F93B4B1B78002B45
S31508003B004FD1394B01221A700FF027F906F028FC1D
S31508003B10FFF7E6F8002105F12400FFF75FF8002813
S31508003B204DD1002105F12800FFF758F800283ED0AE
S31508003B302E483CE02E4B33652E4BF3624FF4881328
S31508003B403363012662E78DF81D3073E7012B07D032
S31508003B50022B09D0032B2ED106238DF812306FE7DE
S31508003B6004238DF812306BE78DF8123068E7E268A7
S31508003B70214B9A4208D9059B04225A7700238DF8CF
S31508003B8011301E4B039364E7059B05225A77F5E728
S31508003B9026335B0103F1A04303F570331C225A60F8
S31508003BA0A5E70FF0DAF8B3E7154800E015480EB0B8
S31508003BB070BD1448FBE71348F9E71248F7E70B48C6
S31508003BC0F5E700BFA84E01080000015B00000A5097
S31508003BD000400A50F4550108010012000C5601086D
S31508003BE001001000D4550108BB220020092000F06E
S31508003BF000560108010011003F4B4C0040420F00DF
S31508003C00012000F0022000F070B588B006460C4688
S31508003C100DF1040C744D0FCDACE80F0095E80700C4
S31508003C208CE80700002E00F0D1803546002C00F005
S31508003C30CF808422002130460BF00EFB30460AF076
S31508003C40C8FC2268694B9A4240F0C480684B3365C9
S31508003C50684BF3624FF48023336323683360002391
S31508003C6086F85C3006F1040CA646BEE80F00ACE800
S31508003C700F009EE80F008CE80F00637E012B6CD0C6
S31508003C80A37E002B6CD1ADF81430237E012B7CD09B
S31508003C90E368039358480FF0DBF82B6D98680FF02C
S31508003CA0D7F823691A1F0C2A00F29980033B8DF86E
S31508003CB0103001A9206803F095FDA36923F47F035A
S31508003CC023F47F432BB92B6803F580534FF48032D6
S31508003CD09A60E37E002B5FD12279237A42EA034277
S31508003CE0464BC3F8B0276279617A42EA0142C3F8C3
S31508003CF0A827A279A17A42EA0142C3F8AC27E27959
S31508003D00E17A42EA0142C3F89C271D22C3F89827A4
S31508003D10012128460AF09CFC00285CD10FF022F805
S31508003D20374B1B78002B4ED1354B01221A700FF0FA
S31508003D3014F806F015FBFEF7D3FF002105F1240061
S31508003D40FEF74CFF00284CD1002105F12800FEF7AC
S31508003D5045FF00283FD02B483DE08DF812308FE70D
S31508003D60012B08D0022B0BD0032B36D14FF440730E
S31508003D70ADF8143089E74FF40073ADF8143084E7D2
S31508003D804FF48073ADF814307FE700238DF81130B7
S31508003D904FF4E13303937DE72279237A42EA03421B
S31508003DA0164BC3F8B0276279617A42EA0142C3F832
S31508003DB0A827A279A17A42EA0142C3F8AC271C22B5
S31508003DC0C3F89827A4E70EF0C8FFB4E70E4802E048
S31508003DD00E4800E00D4808B070BD0C48FBE70B48DC
S31508003DE0F9E70848F7E700BFDC4E010800C00550B0
S31508003DF0E855010802000400D455010800C0035024
S31508003E00BB220020092000F0012000F0022000F06B
S31508003E102DE9F04387B004460F461546002084F87E
S31508003E205400E263636394F85C30002B3DD1236849
S31508003E304FF440625A616369092B2AD9266806F14C
S31508003E402C0944366369082B39D94FF001082046F6
S31508003E500AF0ADFB04941B4B0393CDF8088001953B
S31508003E60012300934B463A46216BA06A09F0EDFE02
S31508003E70002304930393CDF808800195009304F179
S31508003E8018033246E16A606A09F0C4FE07B0BDE865
S31508003E90F083092B04D0266806F124093C36D1E7BD
S31508003EA0266806F120093836CCE7012BEED12068C2
S31508003EB00AF0A4FB266806F13C094436C2E74FF02F
S31508003EC00008C4E711E600082DE9F04786B0044665
S31508003ED00E461546002280F85420C563436390F8C1
S31508003EE05C30002B41D103684FF440625A61436944
S31508003EF0092B2ED9076807F12C0A44376369082B62
S31508003F003DD94FF0010920460AF051FB04941D4B98
S31508003F100393CDF8089001954FF00008CDF800807E
S31508003F20534604F13802216BA06A09F08EFECDF8DB
S31508003F301080CDF80C80CDF80890019501230093E8
S31508003F4033463A46E16A606A09F064FE06B0BDE89F
S31508003F50F087092B04D0076807F1240A3C37CDE718
S31508003F60076807F1200A3837C8E7012BEED1006841
S31508003F700AF044FB276807F13C0A4437BEE74FF0CE
S31508003F800009C0E711E6000838B504460B68104A70
S31508003F9093420BD00F4A934208D002F580429342CF
S31508003FA004D0FFF731FE0546284638BD2046FFF700
S31508003FB0E3FC0546084B1B682BB104F18001064853
S31508003FC0FEF73CFAF0E70549054805F0DDFFF4E79A
S31508003FD00000015B00000A50CC1000208426002057
S31508003FE0D0100020037F012B12D070B504460D4671
S31508003FF01646FFF7EDFB00B170BD064B3246294663
S315080040002046FFF705FF20460AF0BBFBA06CF3E746
S31508004010014870478F2D0108082000F0037F012B07
S3150800402012D070B504460D461646FFF7D1FB00B10F
S3150800403070BD064B324629462046FFF745FF204607
S315080040400AF09FFBA06CF3E7014870478F2D010823
S31508004050082000F010B50446431EB3F5004F04D2FD
S31508004060B4FA84F0C0F11F0010BD4121034809F0DD
S3150800407058FD002CF4D12020F4E700BFF84E0108C3
S3150800408010B504464068FFF7E5FF02461E4B5B681D
S3150800409033B11D4B5B681BB11B4B9B6A002BF8D1D8
S315080040A01A4B01215960184B5B6813F00203FAD1C9
S315080040B01201217A09B302210A436178F9B1012173
S315080040C00A4311498A60627ADAB10222A17A01B1F9
S315080040D001231A430C4B5A6203F5805301225A6096
S315080040E023784BB1084B5B681BB1074B9B6A002BC7
S315080040F0F8D1054B0122DA6010BD1946DCE71946EE
S31508004100DEE71A46E2E700BF0040065000600650A8
S3150800411010B50C4660B9094B9B6A13F0100FFAD11B
S31508004120064B1C63054B9B6A13F0100FFAD110BDA2
S3150800413040F21D11024809F0F4FCECE70040065075
S31508004140F84E010808B510B9044B186B08BD40F2C3
S315080041503B11034809F0E5FCF6E700BF00400650AE
S31508004160F84E01080B4B5B681BB10A4B9B6A002B88
S31508004170F8D1084B0222DA6000221A62054B5B6806
S315080041801BB1044B9B6A002BF8D1024B0122DA6063
S31508004190704700BF00400650024B4FF480321A6742
S315080041A0704700BF0090005070B504460D4616468D
S315080041B01F2906D856B104F580540123AB40236065
S315080041C070BD9121034809F0ACFCF3E704F50054EF
S315080041D0F3E700BF004E010838B505460C46114BFB
S315080041E0D3F8803003F00303022B13D0032B15D02A
S315080041F0012B07D041F214210B4809F092FC002349
S31508004200184602E00BF026FA0D2305B1286004B122
S31508004210236038BD0BF062FA0723F6E70BF014FAB1
S315080042200623F2E7008000504C4F010838B50546D2
S315080042300C46194BD3F8200100F0070006281DD8B4
S31508004240DFE800F0240408100C1418000BF0FCF941
S3150800425005231CE00BF038FA032318E00BF03EFAAE
S31508004260072314E00BF02CFA022310E00BF0ECF90C
S3150800427006230CE00BF028FA042308E041F291210A
S31508004280064809F04EFC0023184600E0012305B154
S31508004290286004B1236038BD008000504C4F0108E7
S315080042A038B505460C46184BD3F8283103F00703F2
S315080042B0013B052B20D8DFE803F003131B0F0B1770
S315080042C00BF0C2F9052305B1286004B1236038BD97
S315080042D00BF0BAF90623F6E70BF000FA0723F2E724
S315080042E00BF0F2F90323EEE70BF0EEF90423EAE705
S315080042F00BF0E6F90223E6E741F29901034809F0D3
S3150800430010FC00231846DEE7008000504C4F0108D9
S3150800431030B583B005460C4600230193174BD3F8F6
S31508004320203203F00703042B19D8DFE803F01F0334
S31508004330090E1300002101A8FFF7B2FF112316E0AA
S315080043400BF0CCF90190072311E00EF000FD019067
S315080043500A230CE00BF00CFA0190092307E041F25E
S315080043605601074809F0DDFB002300E001230DB1E3
S31508004370019A2A6004B1236003B030BD0080005062
S315080043804C4F010870B582B006460D4600230193CE
S31508004390134BD3F8804104F00304022C1BD0032CE2
S315080043A014D0012C06D041F2E6310E4809F0B9FBCB
S315080043B0002404E0002101A8FFF738FF0F240EB1FE
S315080043C0019B336005B12C6002B070BD0BF086F915
S315080043D001900724F3E70BF073F90190EFE700BFAC
S315080043E0008000504C4F010838B505460C46124B64
S315080043F0D3F8400100F0030003280FD8DFE800F0E7
S315080044001602060A0EF0A3FC0A2310E00BF0B0F918
S3150800441009230CE00EF09EFC0B2308E041F2C321B1
S31508004420064809F07EFB0023184600E0012305B183
S31508004430286004B1236038BD008000504C4F010845
S3150800444038B505460C46154BD3F8000200F00700B0
S31508004450042815D8DFE800F01C03070B0F000EF040
S3150800446076FC0A2315E00BF083F9092311E00EF018
S3150800447071FC0B230DE00BF00DF9800A0E2308E002
S3150800448041F2A441064809F04CFB0023184600E017
S31508004490012305B1286004B1236038BD00800050AF
S315080044A04C4F010838B505460C46154BD3F808029B
S315080044B000F00700042815D8DFE800F01C03070BF6
S315080044C00F000EF044FC0A2315E00BF051F90923FE
S315080044D011E00EF03FFC0B230DE00BF0DBF8800A31
S315080044E00E2308E041F2DC41064809F01AFB0023D6
S315080044F0184600E0012305B1286004B1236038BDE1
S31508004500008000504C4F010838B505460C46124B42
S31508004510D3F8400200F0030003280FD8DFE800F0C4
S315080045201602060A0EF013FC0A2310E00BF020F917
S3150800453009230CE00EF00EFC0B2308E041F2634160
S31508004540064809F0EEFA0023184600E0012305B1F3
S31508004550286004B1236038BD008000504C4F010824
S3150800456038B505460C46114BD3F8503203F0030311
S31508004570022B17D0032B09D0012B0FD041F2C9010A
S315080045800B4809F0CEFA0023184602E00EF0E2FBCB
S315080045900B2305B1286004B1236038BD0EF0D7FBA4
S315080045A00A23F6E70BF0E4F80923F2E70080005047
S315080045B04C4F010830B583B005460C4600230193DD
S315080045C0174BD3F8603203F00703013B032B1FD8C0
S315080045D0DFE803F0020E1914002101A8FFF726FEF2
S315080045E00F230DB1019A2A6004B1236003B030BDD0
S315080045F0002101A8FFF7F8FE1023F2E70BF06EF88A
S3150800460001900723EDE70BF05BF801900223E8E73A
S3150800461041F2FD01034809F084FA0023E1E700BFEF
S31508004620008000504C4F010830B583B005460C4653
S31508004630002301930E4BD3F8703203F00303012BCA
S3150800464008D0022B0CD041F25B110A4809F069FA2E
S31508004650002306E0002101A8FFF7C6FE102300E0AC
S3150800466014230DB1019A2A6004B1236003B030BD4A
S31508004670008000504C4F010838B505460C460E4BD5
S31508004680D3F8903203F00303012B09D0022B0BD188
S315080046900BF024F8072305B1286004B1236038BD60
S315080046A00BF00EF80223F6E741F28511034809F0EC
S315080046B038FA00231846EEE7008000504C4F0108F0
S315080046C038B505460C46124BD3F8600100F00300D6
S315080046D003280FD8DFE800F01602060A0EF037FBAB
S315080046E00A2310E00BF044F809230CE00EF032FB25
S315080046F00B2308E041F2F521064809F012FA0023D7
S31508004700184600E0012305B1286004B1236038BDCE
S31508004710008000504C4F010838B505460C46124B30
S31508004720D3F8000100F0030003280FD8DFE800F0F3
S315080047301602060A0AF0C8FF032310E00BF018F861
S3150800474009230CE00AF0C6FF082308E041F24A21D3
S31508004750064809F0E6F90023184600E0012305B1EA
S31508004760286004B1236038BD008000504C4F010812
S3150800477008B5344B98424DD010D9334B984251D096
S3150800478031D9324B984251D003F5740303F51053CF
S3150800479098424FD12E4BD3F898001DE02D4B9842E6
S315080047A032D00BD92C4B984231D003F5371303F589
S315080047B0D86398423ED1264B986F0DE0274B984216
S315080047C00ED008D9264B98420AD0264B984231D1AA
S315080047D01F4B586E00E000B908BD234B984229D1FB
S315080047E01B4B986DF8E7214B984217D0204B9842FF
S315080047F003D1174BD3F88C00EEE71E4B984219D11C
S31508004800134BD3F88400E7E7114B186FE4E7104B16
S31508004810586FE1E70E4BD3F88000DDE70C4BD3F871
S315080048208800D9E70A4BD3F89000D5E7084BD3F8A8
S315080048309400D1E741F2BB310F4809F072F9002024
S31508004840CAE700BF80BA8C01007E56030090D003E9
S315080048500080E00F405DC6000024F40080841E003E
S3150800486000093D00C0CF6A0040420F0080D54302D0
S31508004870006CDC020048E8014C4F0108F8B5054613
S315080048800F4614460EF05EFA064645B12B685C40A4
S315080048903C405C402C6030460EF050FAF8BD4FF4B0
S315080048A09C71024809F03DF9F0E700BF004E010887
S315080048B008B5234B984233D01DD8A3F5B703A3F503
S315080048C05863984228D006D91E4B984230D11E4BC1
S315080048D0D3F8BC000EE01D4B984206D009D91C4BF4
S315080048E0984202D01B4B984222D1174BD3F8A0000E
S315080048F000E0E8B908BD184B984215D0174B984206
S3150800490003D1114BD3F8D000F4E7154B98420FD1D9
S315080049100D4BD3F8C800EDE70B4BD3F8B800E9E721
S31508004920094BD3F8C000E5E7074BD3F8CC00E1E71D
S3150800493041F2DE110B4809F0F4F80020DAE700BF6F
S31508004940C0EA21010024F4000080E00F40420F0075
S3150800495080841E0000093D000048E801005A6202F2
S3150800496080BA8C014C4F010810B5B0F5207F2FD0C6
S315080049701DD8B0F5007F25D02FD810B1B0F5C07F6F
S3150800498013D1174B1C6F230BC4F3033413F00E0F0C
S3150800499024D048F28803E34013F0010F1ED14FF4E8
S315080049A02271104809F0BDF818E0002416E0B0F5A9
S315080049B0607F05D10A4BD3F88040C4F301140DE09B
S315080049C000240BE0064BD3F89040C4F3046405E0DA
S315080049D0034B1C6FC4F3802400E00024601C10BD48
S315080049E0008000504C4F010838B505460C46174B59
S315080049F04FF480329A660020FFF7B6FF05FB00F0F9
S31508004A00134BDA6902F4803241F67131D9635B6877
S31508004A1023F440136CB90F49884207D800210B4389
S31508004A200B494B600AB10022CA6338BD4FF48011A6
S31508004A30F5E7002C07DD0849884201D80021EEE792
S31508004A404FF48011EBE74FF44011E8E7009000506F
S31508004A5000000350005A6202002D310138B50446A1
S31508004A600D46430905D0012B16D0022B0DD10B4854
S31508004A7005E040F235310A4809F053F800202A4685
S31508004A8004F01F01FFF790FB38BD40F2433104489C
S31508004A9009F047F80020F2E70248F0E7688000507E
S31508004AA04C4F01086480005010B582B00023019372
S31508004AB00093B0F5807F00F20781B0F5807F00F2A1
S31508004AC0D381DFE810F08901D101D101D101D101EB
S31508004AD0D101D101D101D101D101D101D101D10138
S31508004AE0D101D101D101D101D101D101D101D10128
S31508004AF0D101D101D101D101D101D101D101D10118
S31508004B00D101D101D10189018D0189018D01A4014C
S31508004B10A401A401A401A4018D0163019801B301B4
S31508004B20B80198018D018D018D01D101D101D10105
S31508004B30D101D101D101D101B3018D018D018D01C1
S31508004B40CC012F018D01D101D101D101D101D101B2
S31508004B50D101D101D101D101D101D101D1016E011A
S31508004B60A401890189018901BD0198019801C20141
S31508004B707E01A90118011801D101D101D101D10184
S31508004B808901D101D101D101D101D101D101D101CF
S31508004B90D101D101D101D101D101D101D101D10177
S31508004BA0D101D101D101D101D101D101D101D10167
S31508004BB0D101D101D101D101D101D101D101D10157
S31508004BC0D101D101D1018301D101D101D101D10195
S31508004BD0D101D101D101D101D101D101D101D10137
S31508004BE0D101D101D101D101D101D101D101D10127
S31508004BF0D101D101D101D101D101D101D101D10117
S31508004C00D101D101D101D101D101D101D101D10106
S31508004C10D101D101D101D101D101D101D101D101F6
S31508004C20D101D101D101D101D101D101D101D101E6
S31508004C30D101D101D101D101D101D101D101D101D6
S31508004C40D101D101D101D101D101D101D101D101C6
S31508004C50D101D101D101D101D101D101D101D101B6
S31508004C60D101D101D101D101D101D101D101D101A6
S31508004C70D101D101D101D101D101D101D101D10196
S31508004C80D101D101D101D101D101D101D101D10186
S31508004C90D101D101D101D101D101D101D101D10176
S31508004CA0D101D101D101D101D101D101D101D10166
S31508004CB0D101D101D101D101D101D101D101D10156
S31508004CC0D101D101D101AE01B0F5F06F00F0C78076
S31508004CD016D9B0F5206F00F0B8805CD9B0F5306F02
S31508004CE000F0B8806AD9B0F5386F00F09F80B0F54B
S31508004CF0406F40F0B980002101A8FFF7D1FA68E0BB
S31508004D00B0F5806F00F0838011D9B0F5C06F00F060
S31508004D108D8035D9B0F5D06F00F08D80B0F5E06F95
S31508004D2040F0A280002101A8FFF7EEFB51E0B0F5A4
S31508004D30207F55D013D9B0F5407F5CD0B0F5607FA1
S31508004D4040F0928000216846FFF746FA009C4FF42F
S31508004D506070FFF709FEB4FBF0F4019439E0B0F592
S31508004D60C07F39D0B0F5007F7ED10AF073FC0446C7
S31508004D704FF40070FFF7F8FDB4FBF0F4019428E057
S31508004D80B0F5A06F48D0B0F5B06F6DD1002101A87D
S31508004D90FFF7F8FA1DE0B0F5106F51D0B0F5186FAF
S31508004DA004D1002101A8FFF7DBFB12E0B0F5086F7C
S31508004DB05AD1002101A8FFF7AFFC0AE0B0F5286F29
S31508004DC052D1002101A8FFF72FFC02E00AF042FCAD
S31508004DD00190019802B010BD0AF05CFC0190F8E75A
S31508004DE00AF058FC04464FF42070FFF7BDFDB4FBEB
S31508004DF0F0F40194EDE70AF04DFC04464FF42070F8
S31508004E00FFF7B2FDB4FBF0F464080194E1E7002172
S31508004E1001A8FFF70BFADCE7002101A8FFF778FAEB
S31508004E20D7E7002101A809F0BEFCD2E7002101A8B6
S31508004E30FFF7DAFACDE7002101A8FFF701FBC8E77B
S31508004E40002101A8FFF72EFBC3E7002101A8FFF701
S31508004E50B1FBBEE7002101A8FFF70EFCB9E7002168
S31508004E6001A8FFF72DFCB4E740F2A441014808F079
S31508004E7058FEAEE74C4F010808B58020FFF714FE30
S31508004E80034B984203D8034B4FF480321A6708BD88
S31508004E90005A620200A0005000B583B000230193B7
S31508004EA0B0F5607F00F0C88042D8802837D824281B
S31508004EB0C0F0DB8024385C2800F2D780DFE800F0F9
S31508004EC06969696969D55ED5B271D5D5D5D5D5D59E
S31508004ED0D5D5D5D5D5B2D5D5D553C6D5D5D5D5D528
S31508004EE0D5D5D5D5D5D5D5D5CB69D5D5D584D5D52B
S31508004EF07CD0C19090D5D5D5D5D5D5D5D5D5D5D550
S31508004F00D5D5D5D5D5D5D5D5D5D5D5D5D5D5D5D543
S31508004F10D5D5D5D5D5D5D5D5D5D5D5D59500B0F54D
S31508004F20807F40F0A28001A9002009F03CFC29E01E
S31508004F30B0F5086F7BD00CD9B0F5286F00F09080DB
S31508004F4034D9B0F5306F44D101A90020FFF794FB9E
S31508004F5018E0B0F5C06F65D00AD9B0F5E06F75D026
S31508004F60B0F5F06F1AD101A90020FFF7A9FB09E0F7
S31508004F70B0F5A06F65D0B0F5B06F07D101A90020D4
S31508004F80FFF700FA019803B05DF804FBB0F5806FEF
S31508004F906BD101A90020FFF749F9F3E7B0F5D06F07
S31508004FA063D101A90020FFF74BFAEBE7B0F5186FBC
S31508004FB051D0B0F5206F04D101A90020FFF7FAFA05
S31508004FC0E0E7B0F5106F50D101A90020FFF76AFAA3
S31508004FD0D8E74AD3B0F5386F24D0B0F5406F44D13E
S31508004FE001A90020FFF75CF9CCE7234B1B6F03F000
S31508004FF00703013B032B0FD8DFE803F00B02050874
S3150800500005230193BEE703230193BBE70823019316
S31508005010B8E702230193B5E740F2D641174808F0EE
S3150800502080FDAFE701A90020FFF7DEF9AAE701A98D
S315080050300020FFF771FBA5E701A90020FFF7CCF8D0
S31508005040A0E701A90020FFF763F99BE701A9002063
S31508005050FFF75AFA96E701A90020FFF781FA91E7C8
S3150800506001A90020FFF7E0FA8CE740F289510348CE
S3150800507008F057FD86E700BF008000504C4F010836
S31508005080094B596E03F580534FF480325A66074A26
S31508005090536A23F00103536211F4803F03D1044B92
S315080050A04FF480325A6670470080005000C007509F
S315080050B000A0005038B5044603680F2B00F2C180E3
S315080050C063680F2B00F2C380A3680F2B00F2C5801C
S315080050D0237B0F2B00F2C780637B0F2B00F2C9805E
S315080050E0A37B3F2B00F2CB80E37B3F2B00F2CD80E6
S315080050F02369032B00F2CF806369032B00F2D1806A
S31508005100E369032B00F2D3808020FFF7C5FE03284E
S3150800511000F0F3807F4B4FF480125A667E4B45F6BB
S315080051200E02C3F8802003F580524FF0A061916209
S3150800513003F500534FF480329A62774B9B6D13F454
S31508005140803FFAD1744B9B6D13F0804FFAD12268D9
S3150800515063681B0543EA0263227B43EA0243627BD8
S3150800516043EA0233A27B43EA8213E27B13436A4D86
S315080051702B61AB6903F00043226943EA82636269E3
S3150800518043EA0263227E43EA0243627E43EA02233B
S31508005190A27E1343AB614FF400624FF440615F484F
S315080051A0FFF76CFB2B6A23F00F03E269002A40F035
S315080051B0848011460B43E17E43EA81031A43564B2A
S315080051C01A62E369002B7AD1534A916A544B0B4011
S315080051D094F8201043EA411394F8211043EA011386
S315080051E094F8241043EAC10343F4803393624A4B8C
S315080051F09A6D4C4B9343FAD1474A02F580514FF0CA
S3150800520080738B62136923F47003A06843EA005322
S3150800521013614FF000438B6194F822301BB9424B5F
S315080052204FF080729A6294F82330002B5ED13E4B81
S315080052304FF480329A62384B9B6D13F0804FFAD147
S3150800524054E040F68A31394808F06BFC38E740F6F6
S315080052508D31364808F065FC36E74FF43961334836
S3150800526008F05FFC34E740F69331304808F059FC03
S3150800527032E740F696312D4808F053FC30E740F601
S3150800528099312A4808F04DFC2EE740F69C3127480C
S3150800529008F047FC2CE740F69F31244808F041FC0B
S315080052A02AE740F6A231214808F03BFC28E740F6F9
S315080052B0A5311E4808F035FC26E708217AE7022BB7
S315080052C01CD0154A916A164B0B4094F8201043EAF5
S315080052D0411394F8221043EA016394F8241043EA30
S315080052E0C10394F8231043EA0143936294F82530E6
S315080052F01BB1094B0E4AC3F8802038BD064B002265
S315080053001A619A614FF408524FF47F410948FFF732
S31508005310B5FAD6E7009000500040005A3840005AC7
S31508005320C7FFFEFE030001000060005A4C4F01084B
S31508005330F1A7FFFF3440005A014B93F9000070476C
S315080053401827002010B504464368072B46D8A368DB
S31508005350032B49D82378032B4CD894F90130002B1A
S315080053604EDB63784F2B28BF4F231A46274B4FF443
S315080053700001596603F5B8334FF4D151596203F564
S3150800538080510220486003F5005301215960204BE3
S315080053901B6913F4803FFAD1237842EA03231C4A97
S315080053A053616168A3681B0143EA0123217B43EA31
S315080053B04103617B0B439360A17BE37B1B0143EABB
S315080053C04113217C43EA4103617C0B435360A37C70
S315080053D01BB113466FF4D1525A6210BD40F6E6511E
S315080053E00C4808F09EFBB2E740F6E851094808F079
S315080053F098FBAFE740F6EA51064808F092FBACE79F
S3150800540040F6EC51034808F08CFBAAE700900050E0
S31508005410000002504C4F0108014B1880704700BF2E
S3150800542012270020014B1880704700BF1027002064
S3150800543038B5B0F5207F7BD03BD8B0F5007F64D077
S3150800544000F2878018B1B0F5C07F40F082804C1E0C
S31508005450012C0BD9102904D8414BCB4013F0010F6E
S3150800546004D140F2CB213F4808F05BFB09F0B9F9BB
S3150800547009F0C9F9FEF790FE3B4A136F23F470430F
S3150800548043EA043313670AF005F9384BD3F8843036
S3150800549013F0100FF9D1354BD3F88410C1F38111ED
S315080054A0C1F1020109F0A4F900F078F8FFF7E4FC6D
S315080054B038BDB0F5607F4CD12D4BD3F8FC5015F0B4
S315080054C0807506D01A46D3F8FC3023F08073C2F8EC
S315080054D0FC304C1E032C12D8234AD2F8803023F015
S315080054E0300343EA0413C2F88030002DE0D0204A86
S315080054F0D2F8FC3043F08073C2F8FC30D8E740F2AB
S31508005500F721184808F00DFBE6E74C1E1F2C09D8B2
