S01700006D61696E5F6C6374745F6365727469662E73333746
S3150800000000040020ADD8000817BB010817BB01087B
S3150800001017BB010817BB010817BB010817BB010866
S3150800002017BB010817BB010817BB01081D160208F4
S3150800003017BB010817BB0108C1150208871A020871
S3150800004017BB010817BB010817BB010817BB010836
S3150800005017BB010817BB010817BB010817BB010826
S3150800006017BB010817BB010817BB0108490600089A
S315080000703906000817BB010817BB010817BB01089A
S3150800008017BB010817BB01082D60010817BB01083B
S3150800009017BB010817BB0108B1E3000817BB010825
S315080000A017BB010817BB010855DF00082DDF00083C
S315080000B017BB010817BB010817BB010817BB0108C6
S315080000C017BB010817BB010817BB010817BB0108B6
S315080000D017BB010817BB010817BB010817BB0108A6
S315080000E017BB010817BB010817BB010817BB010896
S315080000F017BB010889CE010817BB010817BB010801
S3150800010017BB010817BB010817BB010817BB010875
S3150800011017BB010817BB010817BB010817BB010865
S3150800012017BB010817BB010817BB010817BB010855
S3150800013017BB010817BB010817BB010817BB010845
S3150800014017BB010817BB010817BB01080D340108C6
S3150800015017BB010817BB010817BB010817BB010825
S3150800016017BB010817BB010817BB010817BB010815
S3110800017017BB010817BB010817BB0108E4
S3150800017C194A5AB3194BDB6913F0040F29D110B479
S3150800018C0AE003EA00048C4210D0013AB2B1134BD0
S3150800019CDB6913F0040F14D110F0010FF1D1104CD8
S315080001AC1C40002CEDD06FF001000CE00C4A1A40F4
S315080001BC0AB9002007E06FF0010004E06FF00200B6
S315080001CC01E04FF0FF305DF8044B70476FF002000A
S315080001DC70474FF0FF307047809698000000035028
S315080001EC020001000D4BDB6913F4803F12D170B588
S315080001FC0A4B03F580560124F46003F500552C646C
S3150800020C4FF480721A6100212046FFF7B1FF34645F
S3150800021CEC6070BD6FF00100704700BF0000035022
S3150800022C38B50446C0F30C03FBB9154B4FF48032B2
S3150800023C9A6603F51C33DD69154041F67132DA63AB
S3150800024C03F580520121D1605C6102221A610021FA
S3150800025C2120FFF78DFF70B10A4B0122DA601DB120
S3150800026CA3F500530022DA6338BD40F21A2106487A
S3150800027C00F096F8D9E700212120FFF779FFEBE784
S3150800028C00900050002003500C84020838B51A4B15
S3150800029C5861DB6913F0040F2AD10C4654F8041B79
S315080002AC154B9961151F06E0214651F8042B124B84
S315080002BC9A61043D0C465DB108210846FFF758FFC4
S315080002CC03460028F0D00C4A04211161184638BDA3
S315080002DC094B04221A6100212120FFF749FF034626
S315080002EC0028F3D100212120FFF742FF0346EDE752
S315080002FC4FF0FF33EAE700BF000003502DE9F04149
S3150800030C0F461646054610F0030F14D116F0030FC8
S3150800031C17D1204B4FF480329A6603F51C33DA69F1
S3150800032C02F4803841F67132DA6303F58053012200
S3150800033CDA6000230EE040F26621174800F030F828
S3150800034CE4E74FF41A71144800F02AF8E1E725445B
S3150800035C2744361B8EB105F5005424F4FF5424F0BB
S3150800036C1F04641BB44228BF344622463946284625
S3150800037CFFF78CFF03460028E9D0084A0121D16013
S3150800038CB8F1000F03D0A2F500520021D16318462C
S3150800039CBDE8F081009000500C8402080020035040
S30D080003AC5FF800F02DBB010803
S315080003C0013800D0FCE770470348044B834202D04B
S315080003D0034B03B1184770472448002024480020DF
S315080003E000000000064B0749C91A891048BF0131A9
S315080003F0491003D0044B0BB101481847704700BF9A
S3150800040024480020244800200000000010B5064CAF
S31508000410237843B9FFF7D8FF044B13B10448AFF369
S3150800042000800123237010BDBC410020000000009D
S31508000430CC93020808B5054B1BB105490548AFF32F
S315080004400080BDE80840FFF7CDBF00BF00000000F0
S3150800045068040020CC930208A3F5803A704700BFD1
S31508000460174B002B08BF134B9D46FFF7F5FF0021DE
S315080004708B460F461348144A121A1DF085F90E4B7F
S31508000480002B00D098470D4B002B00D09847002032
S31508000490002104000D000D48002802D00C48AFF3D7
S315080004A0008016F08BFC200029001CF089FF16F04E
S315080004B083FA00BF000008000000000000000000EA
S315080004C00004002000040020EC4100200000000089
S315080004D0000000000023062073B1704754B224B907
S315080004E0013353B15DF8044B70470228F8D0086809
S315080004F00A4908601046F3E710B4094A52F823106F
S315080005000A7A022AEAD9032AEAD1441EE4B2012C5D
S31508000510E6D90868014908601046E1E7800400202A
S315080005202045002010B5A2B00DF1680C284C0FCC60
S31508000530ACE80F0094E80F008CE80F000021159135
S3150800054016911791189119914FF480131593214B11
S315080005501993109111911291139114911E4B1093A6
S315080005601E4B14933C2201A81DF00EF901AC0DF1A7
S31508000570540CBCE80F000FC4DCF80030236006AC4E
S315080005800DF1400CBCE80F000FC4DCF80030236006
S31508000590134B0B9320230C9301238DF835308DF8DC
S315080005A03630104B0F93104B1AAA01A90F4813F0B7
S315080005B0F5FD044638B900214FF4E1301BF099FAED
S315080005C0204622B010BDBA2109481BF0AFFAF2E75F
S315080005D0C02602083C00015B010010004400015BD4
S315080005E08404002034450020A40400202C060020A2
S315080005F08826020808B531B9084B1868036823B17C
S3150800060014F016FE01E0012900D908BD034B18684D
S315080006100368002BF9D01CF097FDF6E74845002043
S3150800062008B50349034815F05BFAFFF77BFF08BDD9
S315080006304C4500205806002008B5024813F0DEFE97
S3150800064008BD00BF2C06002008B5024813F0D6FEE8
S3150800065008BD00BF2C06002008B503481BF08DFA1C
S3150800066002481BF08AFA08BDF8260208E0260208A6
S3150800067008B50349034B18680EF050FF08BD00BFC4
S315080006805C4500207C45002070B584B004461546BC
S315080006908DF80F10CBB2BBB99DF80F004FF4C4719B
S315080006A000FB01F101F5A1610A4E0DF10F0301935B
S315080006B000950023224631444FF4A16404FB0060F0
S315080006C004F0AEFC04B070BD034A692103480AF081
S315080006D07FFDE1E7E4060020102702080C2B02083C
S315080006E010B5044638B94FF4A160064B00FB043038
S315080006F017F0FBFB10BD044A8B2104480AF068FD7D
S31508000700F1E700BFE406002010270208F42A0208D1
S3150800071030B583B004460D46C9B921464FF4A160E9
S315080007201C4B00FB053017F0E3FB054660BB012CAC
S3150800073025D000242CBB4FF4A16304FB03F3154A10
S31508000740D05817F0BDFF10BB0134E4B2F2E7124AE5
S31508000750922112480AF03CFDDFE7114B03EBC40275
S315080007605268009253F834300E4A32F81420E1B237
S31508000770062004F029FE0134052CEEDDD9E7002415
S31508000780FAE7022004F04EFE284603B030BD0120E9
S31508000790F8E700BFE406002010270208DC2A020852
S315080007A0202B0208502B02082DE9F04184B004469C
S315080007B00D4616461F469DF83080B8F1000F12D137
S315080007C00B9B02939DF828300193009733462A46DF
S315080007D021464FF4A164074804FB080004F0D0F84A
S315080007E004B0BDE8F081044AC32104480AF0F0FCCD
S315080007F0E6E700BFE406002010270208C02A020820
S31508000800F8B504460D4616461F4653B933462A46DA
S3150800081021464FF4A164064804FB070017F0F2F9D5
S31508000820F8BD044AD42104480AF0D2FCEEE700BF1A
S31508000830E406002010270208A02A020838B5044654
S315080008400D4641B921464FF4A160064B00FB053021
S3150800085004F044F838BD044ADA2104480AF0B8FC22
S31508000860F0E700BFE4060020102702088C2A0208D9
S3150800087010B5044638B94FF4A160064B00FB0430A6
S3150800088017F0BDF910BD044AE02104480AF0A0FC9F
S31508000890F1E700BFE406002010270208742A0208C0
S315080008A010B5044638B94FF4A160064B00FB043076
S315080008B017F0FDFB10BD044AE62104480AF088FC3F
S315080008C0F1E700BFE406002010270208542A0208B0
S315080008D038B504460D4641B921464FF4A160064B8A
S315080008E000FB053017F010FA38BD044AEC2104481D
S315080008F00AF06EFCF0E700BFE406002010270208A5
S31508000900382A020838B505460C4649B94FF4A1639A
S3150800091003FB04F42946054B185917F005FD38BDA5
S31508000920034AF82103480AF053FCEFE7E4060020DF
S31508000930102702081C2A020810B5044638B94FF4D5
S31508000940A160064B00FB043004F066F910BD044AAA
S315080009504FF4857103480AF03BFCF0E7E4060020F3
S3150800096010270208082A020810B5044638B94FF4B9
S31508000970A160064B00FB043017F0AEFA10BD044A1E
S315080009804FF48E7103480AF023FCF0E7E4060020D2
S3150800099010270208E829020838B504460D4641B969
S315080009A021464FF4A160064B00FB053017F097FA75
S315080009B038BD044A4FF4917103480AF009FCEFE781
S315080009C0E406002010270208C829020810B50446C4
S315080009D038B94FF4A160064B00FB043017F070FAE3
S315080009E010BD044A4FF4947103480AF0F1FBF0E78E
S315080009F0E406002010270208A029020838B5044694
S31508000A000D4629B9294620460AF08CFB38B938BD67
S31508000A10044A4FF4A37104480AF0DAFBF2E74FF0F0
S31508000A20FF30F4E7102702088829020838B504467B
S31508000A300D4629B9294620460AF08CFB38B938BD37
S31508000A40044A40F25D1104480AF0C2FBF2E74FF08F
S31508000A50FF30F4E7102702087029020838B5044663
S31508000A600D4631B92A462146002019F0B1FE38B99B
S31508000A7038BD054A4FF4B47104480AF0A9FBF1E7FA
S31508000A804FF0FF30F4E700BF102702085829020884
S31508000A9038B504460D4631B92A462146012019F0D3
S31508000AA097FE38B938BD054A40F2731104480AF072
S31508000AB08FFBF1E74FF0FF30F4E700BF102702087D
S31508000AC04029020810B5044640B94FF4A16303FB58
S31508000AD004F4064B185917F016FD10BD044A4FF4D6
S31508000AE0CE7104480AF074FBEFE700BFE406002065
S31508000AF0102702080C29020810B5044638B94FF425
S31508000B00A160064B00FB043017F0ECF910BD044A4F
S31508000B104FF4DA7103480AF05BFBF0E7E4060020BD
S31508000B2010270208E428020810B5044638B94FF41D
S31508000B30A160064B00FB043017F032F810BD044ADA
S31508000B404FF4E07103480AF043FBF0E7E40600209F
S31508000B5010270208B428020810B5044638B94FF41D
S31508000B60A160064B00FB043017F0D8F910BD044A03
S31508000B704FF42C7103480AF02BFBF0E7E40600203B
S31508000B80102702088028020808B54FF4A162034B13
S31508000B9002FB003017F0C6F908BD00BFE4060020C6
S31508000BA038B504460D4641B921464FF4A160064BB7
S31508000BB000FB053017F0B9F938BD044A40F2D221D6
S31508000BC003480AF005FBEFE7E406002010270208B1
S31508000BD05C28020810B5044638B94FF4A160064BE4
S31508000BE000FB043017F0ACF910BD044A4FF4367117
S31508000BF003480AF0EDFAF0E7E40600201027020899
S31508000C003028020810B5044628B94FF4A160054BF0
S31508000C1000FB043010BD044A40F2E92103480AF0FB
S31508000C20D7FAF2E7E406002010270208142802087B
S31508000C3010B582B00446D0B94FF4A1600F4B00FB43
S31508000C40043004F09BFA019000209DF8043063F309
S31508000C5007009DF8053063F30F209DF8063063F30F
S31508000C6017409DF8073063F31F6002B010BD044AB1
S31508000C7040F2163103480AF0ABFADDE7E406002035
S31508000C8010270208F427020800B583B0B0B906F0A9
S31508000C9057F8019000209DF8043063F307009DF88B
S31508000CA0053063F30F209DF8063063F317409DF86F
S31508000CB0073063F31F6003B05DF804FB034A4FF483
S31508000CC0477103480AF084FAE1E700BF10270208D3
S31508000CD0C827020870B504460D4616464AB92A467C
S31508000CE021464FF4A160064B00FB063017F040F989
S31508000CF070BD044A4FF4527103480AF069FAEEE7E8
S31508000D00E406002010270208A827020810B50446A2
S31508000D1038B94FF4A160064B00FB043017F03AF9D6
S31508000D2010BD044A40F24E3103480AF051FAF0E782
S31508000D30E4060020102702088027020810B504469A
S31508000D4038B94FF4A160064B00FB043017F02BF9B5
S31508000D5010BD044A40F2773103480AF039FAF0E741
S31508000D60E4060020102702085427020838B504466E
S31508000D700D4641B921464FF4A160064B00FB0530EC
S31508000D8017F0E1F838BD044A40F27D3103480AF00D
S31508000D901FFAEFE7E4060020102702082C270208AE
S31508000DA008B54FF4A16C0CFB03FC13460A46014632
S31508000DB0024850F80C0017F048FC08BDE40600206D
S31508000DC008B54FF4A162034B02FB003016F000FF92
S31508000DD008BD00BFE406002008B54FF4A162034B26
S31508000DE002FB003016F0F7FE08BD00BFE40600203F
S31508000DF008B54FF4A162034B02FB003017F03AF92D
S31508000E0008BD00BFE406002008B54FF4A162034BF5
S31508000E1002FB003017F0D0F808BD00BFE40600203A
S31508000E2008B54FF4A162034B02FB003017F005F931
S31508000E3008BD00BFE406002008B54FF4A162034BC5
S31508000E4002FB003017F00AF908BD00BFE4060020CF
S31508000E5008B54FF4A162034B02FB003017F001F905
S31508000E6008BD00BFE406002008B54FF4A162034B95
S31508000E7002FB003017F0F8F808BD00BFE4060020B2
S31508000E8008B54FF4A162034B02FB003017F0EFF8E8
S31508000E9008BD00BFE406002008B506491160064AE9
S31508000EA01A60029B054A1A6006F034FA039B18601A
S31508000EB008BD00BF3F760108E576010843760108BC
S31508000EC008B506491160064A1A60029B054A1A6067
S31508000ED006F020FA039B186008BD00BFBF7701081B
S31508000EE0617701085F77010830B585B00D4604467D
S31508000EF0B0B900230093019302930393C4EBC40390
S31508000F0003338DF800308DF8014003238DF808303F
S31508000F1001952046FFF7ACFC022807D005B030BD86
S31508000F20044A7E2104480AF053F9E2E7684606F0C7
S31508000F30CDF9F3E7102702085C2B020830B585B017
S31508000F4004460D4600200090019002900390C4EBE1
S31508000F50C40302338DF800308DF8014003238DF861
S31508000F60083005211AF07EFD01902046FFF732FE73
S31508000F70012810D1019B2B4401930199491B002993
S31508000F8015DD22460F480AF07DF9684606F09EF9F7
S31508000F9090B905B030BD2046FFF7F6FD0028E9D127
S31508000FA02046FFF7A9FD019B03440193E5E7214687
S31508000FB005480AF067F9E8E7044AF52104480AF003
S31508000FC007F9E6E7A42B0208782B0208DC2B0208AF
S31508000FD0582C020810B584B0044690F8703000EB1F
S31508000FE003135878FFF744FC022820D094F8703091
S31508000FF004EB031301215878FFF742FF1AF004FDAA
S3150800100094F8703004EB03135B7803930290002185
S31508001010019100910D4B0A46012006F0C1FC70B9FA
S3150800102094F8703004EB031300225A7205E008485E
S315080010300AF028F907480AF025F904B010BD94F813
S31508001040703004EB031401236372F6E7BD410020F8
S31508001050142C0208382C020808B506491160064AFD
S315080010601A60029B054A1A6006F054F9039B186039
S3150800107008BD00BFF3770108D50F0008F777010808
S3150800108010B5044650B906F045F9C4EBC40302335B
S3150800109000EB0310037A052B06D010BD064A8521FE
S315080010A006480AF095F8EEE71AF0AAFC014620462B
S315080010B0FFF744FFF1E700BF10270208402C02089B
S315080010C090F80A31013BDBB2012B01D900207047A9
S315080010D090F81431C3EB4312C3EBC20206498A5C8B
S315080010E0012AF3D090F81111C3EB4312C3EBC203E4
S315080010F0014AD154EAE700BF740D002010B5044632
S3150800110090F8703000EB03131B7A022B14D094F876
S31508001110703004EB0312927A6AB104EB03135B7A1C
S31508001120012B0DD094F8703004EB0314627800217B
S31508001130032006F09DFF10BD012004F073F9E6E7D1
S3150800114006F054FD0028EDD194F8703004EB031333
S315080011505A78C2EB4213C2EBC3030749CB5C012B97
S3150800116004D00121032006F083FFE4E702210320CF
S3150800117006F07EFFDFE700BF740D00202DE9F0437F
S3150800118085B0044690F8703000EB03135A78314B5B
S31508001190C2EB4211C2EBC1020021995490F87020AB
S315080011A000EB02125278C2EB4211C2EBC1021344A1
S315080011B093F8F45093F8F5605F1C93F8F38093F86E
S315080011C0F630ABB34FF004091AF01EFC94F87030F1
S315080011D004EB03135B7803930290CDF80490CDF8E3
S315080011E000803B4632462946022006F0D9FB0146D6
S315080011F018BB94F8703004EB031301225A725B781B
S31508001200C3EB4311C3EBC101124A0A4492F8F52015
S315080012108AB11149C3EB4312C3EBC2030D4A134407
S3150800122093F8F4200D480AF02DF805B0BDE8F083D0
S315080012304FF00209C8E70A49ECE794F8703004EB66
S3150800124003140023637207480AF01CF806480AF0DC
S3150800125019F8EAE7740D0020782C0208902C020889
S31508001260842C0208AC2C0208382C020808B506495A
S315080012701160064A1A60029B054A1A6006F04AF887
S31508001280039B186008BD00BFC11000087D11000847
S31508001290FD1000082DE9F04784B00F4616461D4696
S315080012A0DDF830809DF834909DF838A00446002873
S315080012B039D100200090019002900390BAF1000FF6
S315080012C037D103238DF80830B8F1000F37D0C4EBB7
S315080012D04413C4EBC3032248184480F8F3904A46E3
S315080012E0414601301CF05BFAC4EB4413C4EBC3035C
S315080012F01B48184480F8F47080F8F56080F8F650BA
S315080013001AF07EFB0F9B184401908DF80140C4EB40
S31508001310C40401348DF80040684605F0D7FFC0B90B
S3150800132004B0BDE8F0870F4A95210F4809F050FF31
S31508001330BFE702238DF8083004F074F8C4E7C4EB5D
S315080013404412C4EBC202064B1344002283F8F3206E
S31508001350CAE7064AB221044809F03AFFE0E700BFA7
S31508001360740D002010270208202D0208E82C020818
S3150800137000230BB10020704703EB031C074A02EB5E
S315080013800C121279824202D00133DBB2F1E703482C
S3150800139000EB0C1004300B70704700BF6C0E002079
S315080013A070B584B00478002C38D1002300930193DB
S315080013B00293039304EB04122E4B03EB02135A79A0
S315080013C08DF8002003228DF8082018798DF8010081
S315080013D0FFF74EFA022828D004EB0412254B03EB3C
S315080013E002139B79C3B1234B03EB02135B7B63BBED
S315080013F0204A52F8243004EB041402EB04125289F2
S315080014004FF47A7101FB02331B4AA2FB03239B09A3
S315080014100193684605F05AFF04B070BD174A4FF4A9
S31508001420BE71174809F0D4FEBFE704EB0412114B4E
S3150800143003EB021393F80C31032BCDD10D4B03EBC1
S315080014400213002283F80C21C6E70A4E56F82450E8
S315080014501AF0DAFA2B1804EB041406EB0416F289D0
S315080014604FF47A7101FB0233034AA2FB03239B095B
S315080014700193CEE76C0E0020D34D6210382D02087A
S315080014805030020870B586B00478002C4BD11AF09B
S31508001490BBFA604B43F8240004EB041203EB021377
S315080014A05B7B002B46D104EB04125A4B03EB021369
S315080014B01879FFF7DDF9022807D004EB0412554B1B
S315080014C003EB0213032283F80C2104EB0412514B9D
S315080014D003EB021393F80C31022B67D0032B00F0B1
S315080014E08380012B2ED04C4B059304EB0412494BF9
S315080014F003EB02131B7B002B40F089800221454A2F
S3150800150004EB041302EB03131B79039352F82430FC
S31508001510029301910423009305AB0122114606208C
S3150800152006F03EFA2EE03D4A4FF49C713C4809F01D
S315080015304FFEACE7374B03EB021300225A7308F051
S3150800154075FDB0E7334D05EB0211087E021E18BF84
S31508001550012204EB04131B0110332B440933097BC6
S3150800156011BB02262B4D04EB041105EB0111097979
S31508001570039155F82410029101960090E021062067
S3150800158006F00EFA70B904EB0412224B03EB0213B1
S3150800159093F80C31032B05D01E4B03EB02130022E4
S315080015A083F80C2106B070BD0426DBE704EB0413B0
S315080015B01B0103F58473174A134404EB041502EB65
S315080015C005152979039152F82420029200260196DE
S315080015D095F80D210092063332463146032006F06F
S315080015E0DFF985F80D61CDE704EB0412094B03EB2F
S315080015F002131879FFF73CF90228D3D004EB041438
S31508001600044B03EB04131879FFF73AFDCAE70421E4
S3150800161075E700BF6C0E002011121314382D02084E
S31508001620283002082DE9F04786B09846DDF838A03C
S3150800163000238AF8003017461AB9384606B0BDE8BE
S31508001640F08781460D4616469449954809F01AFED4
S31508001650002404E0295D934809F014FE0134A642EB
S3150800166008D914F00F0FF5D1002CF3D08E4809F0E5
S3150800167009FEEFE78C4809F005FE2C787F2C00F26E
S315080016805083DFE814F08000A300B400C800E3002C
S3150800169002012C013E0158019601BC014E034E037E
S315080016A04E034E034E034E034E034E034E034E03A4
S315080016B04E034E034E034E034E034E034E034E0394
S315080016C04E034E034E03CA01E201FB014E034E03CD
S315080016D04E034E034E034E034E034E034E034E0374
S315080016E04E034E034E034E034E034E034E034E0364
S315080016F04E034E034E034E034E034E034E034E0354
S315080017004E034E034E0318024E032A024E0361028D
S315080017104E034E034E034E034E034E034E034E0333
S315080017204E034E034E034E034E03510259024E0317
S315080017304E034E034E034E034E034E034E034E0313
S315080017404E034E034E034E034E034E034E034E0303
S315080017504E034E034E034E034E034E034E034E03F3
S315080017604E034E034E034E034E034E034E034E03E3
S315080017704E034E034E034E034E034E034E034E03D3
S315080017806F02AD02C202012F18D19AF800305A1C16
S315080017908AF80020002208F803209AF800305A1C1C
S315080017A08AF80020062208F803209AF800305A1C06
S315080017B08AF80020012208F803203EE73B4809F092
S315080017C061FD3B4809F05EFD274636E7012F07D045
S315080017D0364809F057FD364809F054FD00272CE72E
S315080017E0344809F04FFD1AF003F9002725E7012FC1
S315080017F007D02E4809F046FD2D4809F043FD00277D
S315080018001BE72D4C2079FFF74BF821790020FFF7CD
S31508001810C3F8032711E7022F10D16978022905D8E2
S3150800182099F8000018F0ECFD002706E7234809F0B0
S3150800183029FD1F4809F026FD0027FEE61B4809F08A
S3150800184021FD1B4809F01EFD0027F6E6022F14D1DC
S315080018506F785FB91A4B02AC0FCB84E80F002246AB
S315080018600321154B187908F0F1F8E6E6124B1979B9
S315080018700020FFF72DF80027DFE60C4809F002FDE7
S315080018800B4809F0FFFC0027D7E6022F1FD16F7817
S31508001890C7B9022003F0C6FDCFE600BF542D0208E3
S315080018A06C2D0208802D0208BC550208882D0208F6
S315080018B0382C0208A02D02086C0E0020B42D020850
S315080018C0542E0208012003F0ADFD0027B5E6BE48F8
S315080018D009F0D8FCBD4809F0D5FC0027ADE6022F73
S315080018E007D16A78BA4B33F81230A9F806300027C0
S315080018F0A3E6B54809F0C6FCB44809F0C3FC0027BE
S315080019009BE6F22F0FD86B78012B03D0022B05D05C
S31508001910002792E6002789F808708EE6012389F8E1
S315080019200830002789E6A84809F0ACFCA74809F062
S31508001930A9FC002781E6F22F33D899F80000FFF7B3
S3150800194045F89AF80030C31A9E420BD27C1EE4B2C0
S315080019509AF800305A1C8AF80020082208F8032052
S3150800196000221AE099F80000FFF730F8C7B29AF893
S315080019700030FF1AFFB2E9E7AB185B78013359422A
S31508001980DBB2C9B258BF4B429AF80010481C8AF815
S31508001990000008F801300132D2B2A242ECD3012786
S315080019A04BE6894809F06EFC884809F06BFC00276D
S315080019B043E6012F1BD19AF800305A1C8AF80020FA
S315080019C0092208F80320B9F804209AF80030591CAF
S315080019D08AF8001008F80320B9F804309AF80020AD
S315080019E0511C8AF800101B0A08F8023025E67648CA
S315080019F009F048FC754809F045FC00271DE6012F4B
S31508001A0003D10027A9F8047017E66F4809F03AFCD5
S31508001A106E4809F037FC00270FE6012F0DD199F81B
S31508001A200931022B01D9002707E65A1C89F8092132
S31508001A304B44022783F80A71FFE5634809F022FC44
S31508001A40624809F01FFC0027F7E5012F0ED199F827
S31508001A500931022B01D90027EFE55A1C89F809211B
S31508001A604B440D2283F80A210227E6E5564809F079
S31508001A7009FC564809F006FC0027DEE5022F07D0C8
S31508001A80514809F0FFFB514809F0FCFB0027D4E553
S31508001A9099F800106878FFF769F999F80931022B67
S31508001AA001D90027C9E55A1C89F809214B44102297
S31508001AB083F80A21C1E5022F07D16B78003B18BFCE
S31508001AC0012389F811300027B7E53F4809F0DAFB0A
S31508001AD03E4809F0D7FB0027AFE5022F1CD19AF83C
S31508001AE000305A1C8AF80020432208F80320B9F867
S31508001AF012209AF80030591C8AF8001008F80320BA
S31508001B00B9F812309AF80020511C8AF800101B0AFE
S31508001B1008F80230012790E52B4809F0B3FB2B485B
S31508001B2009F0B0FB002788E52A4809F0ABFB2748EF
S31508001B3009F0A8FB002780E5274809F0A3FB2348FE
S31508001B4009F0A0FB002778E5012F03D10027A9F8A3
S31508001B50127072E51C4809F095FB1C4809F092FBC7
S31508001B6000276AE5072F07D0174809F08BFB1748A7
S31508001B7009F088FB002760E5012389F80930AA786F
S31508001B806B7803EB0223A9F80A306A792B791B02D2
S31508001B9003EB0243EA781344642202FB03F3C9F811
S31508001BA00C3095F9063089F810300C4B1879FEF789
S31508001BB077FE08F001F999F91010D9F80C0008F029
S31508001BC051F9002739E500BF882D0208382C02088C
S31508001BD09C300208D82D0208F82D02086C0E002049
S31508001BE0012F07D0614809F04DFB614809F04AFB0F
S31508001BF0002722E5002789F8027099F80010384670
S31508001C00FEF7CEFF19F0F4FE17E5012F07D0574867
S31508001C1009F038FB564809F035FB00270DE599F819
S31508001C200000FEF7D3FE0C2801D8002705E59AF830
S31508001C3000305A1C8AF800207F2208F8032099F8F9
S31508001C400000FEF7F5FF019099F80000FFF71CF871
S31508001C5002909AF800305A1C8AF80020042208F8E4
S31508001C6003209AF800305A1C8AF80020082208F83F
S31508001C7003209AF800305A1C8AF80020002208F837
S31508001C8003209AF80030591C8AF8001008F8032037
S31508001C909AF800305A1C8AF800209DF8042008F8A3
S31508001CA003209AF800305A1C8AF800209DF805206F
S31508001CB008F803209AF800305A1C8AF800209DF884
S31508001CC0062008F803209AF800305A1C8AF80020E3
S31508001CD09DF8072008F803209AF800305A1C8AF85D
S31508001CE000209DF8082008F803209AF800305A1CAE
S31508001CF08AF800209DF8092008F803209AF8003091
S31508001D005A1C8AF800209DF80A2008F803209AF839
S31508001D1000305A1C8AF800209DF80B2008F803208A
S31508001D208BE422461349144809F0ACFA104809F026
S31508001D30A9FA32461149124809F0A4FA002404E027
S31508001D40295D104809F09EFA0134A64208D914F014
S31508001D500F0FF5D1002CF3D00B4809F093FAEFE7F3
S31508001D60094809F08FFA002767E400BF882D0208A2
S31508001D70382C0208D82F0208202E0208482E0208FE
S31508001D806C2D0208802D0208BC55020870B584B077
S31508001D9090F81441002C41D10546FF238DF80F30E9
S31508001DA02346002B46D09DF80F30FF2B3FD003EB80
S31508001DB003116B4A02EB01129279002A37D095F883
S31508001DC01321002A44D195F80A210D2A53D095F8F3
S31508001DD011213AB995F809214AB395F80821002A3C
S31508001DE000F0BB805E4A03EB031102EB011109897F
S31508001DF003EB031302EB03124B1C138195F809310D
S31508001E00ABB195F8084194B12146564809F03AFA1B
S31508001E1095F80831E02B6FD0012408E02246524994
S31508001E20524809F02FFA524809F02CFA00242046A5
S31508001E3004B070BD03EB0311494A02EB0112127993
S31508001E40A24202D00133DBB2ABE78DF80F30AAE726
S31508001E5005F060FA90F870109DF80F3003EB031345
S31508001E603F4A02EB03135B798B42E0D00DF10F007A
S31508001E70FFF796FADBE703EB0311394A02EB011287
S31508001E80527D0AB90124D2E7354A02EB01131A7EBC
S31508001E903849394809F0F6F900240CE09DF80F3066
S31508001EA003EB03122E4B03EB02132344597E3348EC
S31508001EB009F0E8F901349DF80F3003EB0313284ABB
S31508001EC002EB03131B7EA34208D914F00F0FE5D1CA
S31508001ED0002CE3D02A4809F0D5F9DFE7284809F0AD
S31508001EE0D1F99DF80F3003EB03131D4A02EB0313D8
S31508001EF0012483F80C419AE79DF80F6029463501BD
S31508001F0006EB06131B011033154C234406EB06108B
S31508001F1004EB001003F108020092093311F8012BB3
S31508001F200430FFF77FFBAB1904EB031383F80C01AE
S31508001F3005F0F0F990F870209DF80F3003EB0313C5
S31508001F4004EB03146379934201D101246FE70DF181
S31508001F500F00FFF725FA012469E7144667E700BF73
S31508001F606C0E0020AC2E0208F82F0208682E020814
S31508001F70382C0208942E02086C2D0208802D0208BF
S31508001F80BC5502082DE9F04784B004460D46924632
S31508001F9099460378002B51D1267806EB0613404F55
S31508001FA007EB031707F104084FF48872002140462F
S31508001FB01BF0EAFB3B4BCAF800303B4BC9F8003034
S31508001FC00C9B3A4A1A600D9B1C607D71384CA4FB29
S31508001FD005342D1B04EB5504C4F387043C712046D5
S31508001FE0FEF7F8FD003818BF0120B87160B3314F0D
S31508001FF0384609F047F9304D284609F043F906EB0B
S315080020000612274B03EB021319792C4809F03AF903
S31508002010284609F037F9384609F034F9284609F010
S3150800202031F9404615F02DFC06EB06121C4B03EB66
S3150800203002139B7993B904B0BDE8F087204AD421EE
S31508002040204809F0C5F8A7E706EB0612144B03EB80
S31508002050021319791C4809F015F9E2E7204609F038
S315080020609DF8002300930193029303930C4A06EB11
S31508002070061302EB03135B798DF8003006EB0613A3
S3150800208002EB031213798DF8013003238DF808301B
S3150800209019F0B6FC0190684605F018F9CBE700BFC1
S315080020A06C0E00208D1D000885140008A113000879
S315080020B025499224DC2E0208382C02081C2F020817
S315080020C0B82E0208783002085C2F020808B10120F1
S315080020D0704770B586B00C4605460DF11701FFF737
S315080020E047F90646002830D08378A3422FD084705B
S315080020F09CB118493278184809F0C4F8174809F00D
S31508002100C1F83178B078FEF74BFD304615F0B9FBCB
S31508002110B37823B9284606B070BD1149EAE700230B
S31508002120019302930393049373788DF804303378FC
S315080021308DF8053003238DF80C3019F061FC0290F8
S3150800214001A805F0C3F82846E5E70120E3E7284695
S31508002150E1E700BF8C2F0208A02F0208382C0208DE
S31508002160942F020870B5064690F89854D0F8C00423
S315080021708C2105FB01F118313144D0F808310431BE
S31508002180984788BBD6F8C0341A6E0221186890475B
S3150800219088BBD6F8C00405F1D20306EB830305F520
S315080021A0DA7206EB4202C46C528859680068A04786
S315080021B040BB05EB450306EBC303D3F8E04219F031
S315080021C023FC241A002CF4DC19F051FC012019F028
S315080021D04DFCD6F8C0341A6A18689047C8B919F081
S315080021E013FCC6F86C0470BD0D4A4FF483710D4894
S315080021F008F0EEFFC6E70C4A40F20711094808F056
S31508002200E7FFC6E7094A4FF48471064808F0E0FF7D
S31508002210CFE7074A4FF48971024808F0D9FFDEE78D
S31508002220B43002082845020804310208543102086D
S31508002230C031020870B5064690F89854D0F8C00424
S315080022408C2105FB01F118313144D0F804310431F1
S31508002250984788BBD6F8C0341A6E0221186890478A
S3150800226088BBD6F8C00405F1D20306EB830305F54F
S31508002270DA7206EB4202C46C528859680068A047B5
S3150800228040BB05EB450306EBC303D3F8E04219F060
S31508002290BBFB241A002CF4DC19F0E9FB012019F029
S315080022A0E5FBD6F8C0341A6A18689047C8B919F019
S315080022B0ABFBC6F86C0470BD0D4A40F21B110D4805
S315080022C008F086FFC6E70C4A4FF48E71094808F0F5
S315080022D07FFFC6E7094A40F21D11064808F078FF55
S315080022E0CFE7074A4FF49371024808F071FFDEE71B
S315080022F0F4310208F844020804310208543102088D
S31508002300C0310208F0B583B0054690F89864D0F855
S31508002310C0348C2406FB04F4183404440434D3F87B
S31508002320C820214618689047002850D1D5F8C0041F
S315080023308C2303FB0653876C9A6A93F9301000685E
S31508002340B84700284AD1D5F8C0341A6E40F202417F
S3150800235018689047002848D1D5F8C0048C2306FB96
S3150800236003F303F188022A442B445B8E06F1D2015B
S3150800237005EB8101D1F804C006F5DA7105EB4101D8
S315080023804988D0F8CC7000680191CDF800C00232B7
S315080023902146B84780BB06EB460305EBC303D3F8D3
S315080023A0E04219F031FB241A002CF4DC19F05FFB2B
S315080023B0012019F05BFBD5F8C0341A6A18689047F3
S315080023C008BB19F021FBC5F86C0403B0F0BD114A2F
S315080023D04FF49871104808F0FBFEA7E70F4A4FF430
S315080023E099710D4808F0F4FEADE70D4A40F2351133
S315080023F0094808F0EDFEAFE70A4A40F237110648E9
S3150800240008F0E6FEC7E7084A4FF4A271024808F04A
S31508002410DFFED6E744320208C8440208B43202088E
S315080024206C330208D4330208C031020870B5064678
S3150800243090F89854D0F8C0048C2105FB01F1483176
S31508002440D0F808313144984728BBD6F8C0341A6EFC
S31508002450CC211868904728BB05EB450306EBC30358
S31508002460D3F8E04219F0D0FA241A002CF4DC19F05B
S31508002470FEFA002019F0FAFAD6F8C0348C2202FBCC
S3150800248005655A6A696F1868904790B919F0BCFAD9
S31508002490C6F8700470BD0A4A40F24D11094808F0A2
S315080024A097FED2E7084A4FF4A771064808F090FE4F
S315080024B0D2E7064A4FF4AC71024808F089FEE5E710
S315080024C0EC340208984402083C350208D035020864
S315080024D070B5064690F89854D0F8C0048C2105FBD0
S315080024E001F14831D0F804313144984728BBD6F871
S315080024F0C0341A6E8C211868904728BB05EB450333
S3150800250006EBC303D3F8E04219F07EFA241A002C2E
S31508002510F4DC19F0ACFA002019F0A8FAD6F8C034A1
S315080025208C2202FB05655A6A696F1868904790B94C
S3150800253019F06AFAC6F8700470BD0A4A4FF4B17108
S31508002540094808F045FED2E7084A40F263110648F2
S3150800255008F03EFED2E7064A40F26D11024808F03E
S3150800256037FEE5E72C360208684402087C3602087E
S31508002570D035020808B590F8ED13490904D0D423DC
S31508002580CB4013F0010F05D0124808F07BFE4FF040
S31508002590FF3004E090F88233022B01D0002008BDFA
S315080025A090F8EE1390F8EF3301EB032190F8F0332F
S315080025B001EB034190F8F13301EB0361826A8A4229
S315080025C001D10020EBE7044808F05CFE4FF0FF302D
S315080025D0E5E700BFF83602081837020810B50446C2
S315080025E090F8B1339A1C90F8DE128A4208DB002371
S315080025F080F8DE3294F8B133033384F8B13310BD72
S3150800260090F8DC130229F5D1032180F8DC13013395
S315080026100344024492F8EC2193F8EC11084808F0B8
S3150800262031FE94F8B1335A1C224492F8EC2184F80E
S31508002630C0230233234493F8EC3184F8C133D9E735
S315080026404437020810B5044690F8B1335A1C90F87E
S31508002650DE128A4206DB023380F8B133002380F8A3
S31508002660DE3210BD024492F8EC11104808F00AFE5A
S3150800267094F8B1335A1C224492F8EC2102F00F0266
S31508002680E2610233DBB284F8B13394F8DE22934276
S31508002690E7D894F834315F2BE3D8E218042182F89E
S315080026A03511013384F83431DBE700BF603702089F
S315080026B010B5044690F8B1335A1C90F8DE128A42D7
S315080026C006DB023380F8B133002380F8DE3210BD12
S315080026D0024492F8EC11174808F0D4FD94F8B13387
S315080026E05A1C224492F8EC2102F00F0262760AB9CB
S315080026F0012262760233DBB284F8B13394F8DE2223
S315080027009342E4D894F834315F2B06D8E2180821AE
S3150800271082F83511013384F8343194F895310E2B4B
S31508002720D5D8E218082182F89611013384F8953134
S31508002730CDE700BF7C37020810B582B0044690F892
S31508002740B1335A1D90F8DE128A420CDA90F8DD137E
S31508002750022911D04FF0FF3094F8B133063384F8CC
S31508002760B13302B010BD063380F8B133002380F8C8
S31508002770DE324FF0FF30F4E7032180F8DD13591CF1
S315080027800144981C204403F1030CA4440433234455
S3150800279093F8EC31224492F8EC21019200939CF8CC
S315080027A0EC3190F8EC2191F8EC11194808F06AFD23
S315080027B094F8B1335A1C224492F8EC11C4F8C413A5
S315080027C09A1C224492F8EC2141EA0221C4F8C41367
S315080027D0DA1C224492F8EC2141EA0241C4F8C413F7
S315080027E01A1D224492F8EC2141EA0261C4F8C41386
S315080027F00533234493F8EC214FF47A7303FB02F272
S31508002800120AC4F8C823034808F03CFD0020A3E7D1
S31508002810A0370208D037020810B5044690F8B1333D
S3150800282090F8DE2293420BD290F8DE33022B10D0BA
S315080028304FF0FF3094F8B133013384F8B13310BD4B
S31508002840013380F8B133002380F8DE324FF0FF30D1
S31508002850F5E7032380F8DE33024808F013FD00206D
S31508002860E8E700BFFC3702082DE9F04784B00446C4
S31508002870002501E00135EDB294F8B1232E4605EBAB
S3150800288085031344234493F8EC31032B07D16B1CBF
S3150800289003EB8303134494F8DE128B42EADD1DB37F
S315080028A000218D4229D994F8B13301EB81021344F2
S315080028B0581C20449A1C224492F8ECC1DA1C224483
S315080028C092F8EC210433234493F8EC314F1C02931D
S315080028D00192CDF800C090F8EC31324639468A4864
S315080028E008F0D0FCF9B2DCE7053284F8B1230023FE
S315080028F084F8DE3204B0BDE8F0870027B8464FF00A
S31508002900070901E00137FFB2BD422ED994F8B13369
S3150800291007EB870213449A1C224492F8EC81DA1CCE
S31508002920224492F8EC2108EB02281FFA88F80433AF
S31508002930234493F8ECA1CAF3021A53464246791C7B
S31508002940724808F09FFC42465146206803F0FAFC9C
S31508002950804610F1020FD5D109F006096C4808F037
S3150800296091FC6C4808F08EFCCCE7B8F1FF3F31D0FB
S3150800297094F8B133771E07EB87073B4401332344AA
S3150800298093F8EC314FEA131803F00F0A94F84A3318
S31508002990002B43D0B8F10F0F25D1BAF10F0F2BD169
S315080029A0206803F015FFB0F1FF3F2ED094F8B1333D
S315080029B005EB85021344DBB284F8B13394F8DE22C2
S315080029C0934297D894F8347107EB4606602E91DC4B
S315080029D0002291E009F006094F4808F053FC4D48DB
S315080029E008F050FCC4E709F005094C4808F04AFC11
S315080029F0484808F047FCD0E709F00309484808F0BA
S31508002A0041FC444808F03EFCCAE709F00609454877
S31508002A1008F038FC3F4808F035FCC7E7B8F10F0F57
S31508002A2036D194F8B1333B440133234493F8ECA1EF
S31508002A300AF00F0ABAF10F0F3BD194F8B1333B44B1
S31508002A400433234493F8EC3103F00F07B9F1070F69
S31508002A50ACD1206803F036FCBAF10F0F39D107B9AB
S31508002A600127E773B8F10F0F01D084F80D80012311
S31508002A7084F8B933617B2C4808F004FC94F90E10ED
S31508002A802A4808F0FFFBE17B294808F0FBFB8DE7A5
S31508002A9001224146206803F0E1FCB0F1FF3FC0D1B6
S31508002AA009F005091D4808F0EDFB1A4808F0EAFB8D
S31508002AB0B7E75146206804F02FF9B0F1FF3FBCD1C3
S31508002AC009F00309164808F0DDFB124808F0DAFB9E
S31508002AD0B3E7A27E5146206803F0DCFBA073BEE78D
S31508002AE007EB4203E118032081F83501013323443B
S31508002AF083F835910132D2B29542F1D807EB4507F2
S31508002B0084F83471F6E600BF103802084438020823
S31508002B1084380208382C0208A8380208CC3802087B
S31508002B20EC3802080C3902084039020858390208FC
S31508002B306C3902082DE9F04182B0044690F8B133A9
S31508002B401A1D90F8DE128A4208DB053380F8B13385
S31508002B50002380F8DE3202B0BDE8F081591C01443A
S31508002B60981C204403332344224492F8EC21009213
S31508002B7093F8EC3190F8EC2191F8EC11444808F000
S31508002B8081FB94F8B1330133234493F8EC61C6F31F
S31508002B9002163146206803F00DFCB0F1FF3F4BD01A
S31508002BA0072594F8B1330133234493F8EC8108F0F0
S31508002BB00F084146206803F011FCB0F1FF3F43D0EF
S31508002BC094F8B11301F5F57121440431206815F024
S31508002BD082FD07460146206803F072FFB0F1FF3F09
S31508002BE03BD0072D42D094F8B1330533DBB284F8D5
S31508002BF0B13394F8DE229342ADD894F834315E2B83
S31508002C000AD8E218052182F835115A1C224482F89E
S31508002C103551023384F8343194F895310D2B9AD80E
S31508002C20E218052182F896115A1C224482F8965118
S31508002C30023384F895318EE7164808F023FB1648C8
S31508002C4008F020FB0625ACE705F00505134808F053
S31508002C5019FB114808F016FBB2E705F00305104802
S31508002C6008F010FB0C4808F00DFBBCE7267684F844
S31508002C701280676131460B4808F004FBA17C0A48BC
S31508002C8008F000FB6169094808F0FCFAABE700BFE9
S31508002C9080390208AC390208382C0208D0390208F3
S31508002CA0EC390208103A02082C3A0208443A02089B
S31508002CB0F0B583B0044690F8B1331A1D90F8DE12C9
S31508002CC08A4207DB053380F8B133002380F8DE3209
S31508002CD003B0F0BD591C0144981C20440333234417
S31508002CE0224492F8EC21009293F8EC3190F8EC210A
S31508002CF091F8EC11384808F0C5FA94F8B11301F2C6
S31508002D00E91121440431206815F0E5FC0746D0BBDB
S31508002D10032594F8B1330433234493F8EC6106F0A1
S31508002D200F063146206803F059FBB0F1FF3F3BD050
S31508002D30032D42D094F8B1330533DBB284F8B133AE
S31508002D4094F8DE229342C3D894F834315E2B0AD81D
S31508002D50E218112182F835115A1C224482F835519D
S31508002D60023384F8343194F895310D2BB0D8E21833
S31508002D70112182F896115A1C224482F89651023380
S31508002D8084F89531A4E70146206803F099FEB0F16E
S31508002D90FF3F01D00325BCE7104808F073FA104836
S31508002DA008F070FA0225B4E705F001050D4808F0A9
S31508002DB069FA0B4808F066FABCE7C4F8E47384F8C5
S31508002DC0E8633146084808F05DFAD4F8E413074882
S31508002DD008F058FAAEE700BF5C3A0208903A0208D3
S31508002DE0382C0208BC3A0208E03A0208FC3A020803
S31508002DF030B583B0044690F8B13390F8DE2293429A
S31508002E0007D3013380F8B133002380F8DE3203B0EC
S31508002E1030BD0DF107020146D0F8700306F054F8EC
S31508002E20144808F02FFA94F8B1330133DBB284F86A
S31508002E30B13394F8DE229342E9D894F834315D2B05
S31508002E40E5D8E218062182F835115D1C18F013FE44
S31508002E50631983F83501B4F9F01494F834319A1CDF
S31508002E6001F03F01224482F83511033384F83431E6
S31508002E70CDE700BF183B02082DE9F04383B00446AE
S31508002E8090F8B1335A1D90F8DE128A4208DB0633F1
S31508002E9080F8B133002380F8DE3203B0BDE8F08352
S31508002EA0591C0144981C204403F1030CA444043320
S31508002EB0234493F8EC31224492F8EC2101920093D2
S31508002EC09CF8EC3190F8EC2191F8EC11614808F087
S31508002ED0D9F9206815F0E2FB00285AD094F8B133E6
S31508002EE00133234493F8EC713946206803F034FB28
S31508002EF0B0F1FF3F59D0032594F8B11301F5F571E8
S31508002F0021440431206815F0E6FB06460146206890
S31508002F1003F0ECFDB0F1FF3F4FD094F8B133053321
S31508002F20234493F8EC8108F00F084146206803F023
S31508002F3075FAB0F1FF3F49D094F8B133053323440D
S31508002F4093F8EC914FEA19194946206803F066FA96
S31508002F50B0F1FF3F43D0C8454AD8032D51D094F865
S31508002F60B1330633DBB284F8B13394F8DE229342E8
S31508002F7093D894F834315E2B8FD8E218072182F85B
S31508002F8035115A1C224482F83551023384F83431FB
S31508002F9083E7314808F076F9304808F073F994F871
S31508002FA0B133063384F8B13377E72D4808F06AF968
S31508002FB02A4808F067F900259EE705F00205294822
S31508002FC008F060F9254808F05DF9A6E705F001055F
S31508002FD0254808F057F9214808F054F9ACE705F0F8
S31508002FE00105224808F04EF91C4808F04BF9B2E7EB
S31508002FF005F001051E4808F045F9184808F042F999
S31508003000ADE73A463146206803F008FB3A463146B2
S31508003010206803F021FB4B4642463946206803F0F8
S315080030203DFB8EB93A460021206803F06BFB394612
S31508003030206803F089FB0246CDF8009043463946DE
S315080030400C4808F01FF98AE73A460121206803F080
S3150800305059FBECE7343B0208603B0208382C0208AF
S31508003060A03B0208C43B0208E43B0208043C0208F1
S31508003070243C02084C3C020810B5044690F8B133CB
S315080030805A1C90F8DE128A4206DB023380F8B13306
S31508003090002380F8DE3210BD024492F8EC112E4867
S315080030A008F0F0F8206815F0F6FA002847D094F8EA
S315080030B0B1330133234493F8EC1101F00F03274A87
S315080030C0D35C023BDBB22068827A934228BF134660
S315080030D0A37694F90E209342A8BF1346A373C1F3AF
S315080030E0001115F0F2FA94F8B1330133234493F83A
S315080030F0EC11C1F34011206815F0EAFA94F8B133DF
S315080031000233DBB284F8B13394F8DE229342C2D894
S3150800311094F834315F2B06D8E218092182F8351164
S31508003120013384F8343194F895310E2BB3D8E2186C
S31508003130092182F89611013384F89531ABE70848DE
S3150800314008F0A0F8074808F09DF894F8B133023360
S3150800315084F8B1339FE700BF803C02083046020876
S31508003160A03C0208382C0208F0B583B0044690F853
S31508003170B1331A1D90F8DE128A4207DB053380F850
S31508003180B133002380F8DE3203B0F0BD591C014488
S31508003190981C204403332344224492F8EC210092DD
S315080031A093F8EC3190F8EC2191F8EC11404808F0CE
S315080031B069F8206815F072FA002848D094F8B133F7
S315080031C00133234493F8EC713946206803F0BCFABE
S315080031D0002848D0032594F8B11301F5F571214468
S315080031E00431206815F077FA06460146206803F090
S315080031F067FCB0F1FF3F3ED0032D45D094F8B133BC
S315080032000533DBB284F8B13394F8DE229342BBD897
S3150800321094F834315E2B0AD8E2180A2182F835115F
S315080032205A1C224482F83551023384F8343194F812
S3150800323095310D2BA8D8E2180A2182F896115A1C46
S31508003240224482F89651023384F895319CE719484E
S3150800325008F018F8184808F015F894F8B13305334B
S3150800326084F8B13390E7154808F00CF8124808F0CE
S3150800327009F80125AFE705F00205114808F002F83C
S315080032800D4807F0FFFFB9E73A463146206803F0D4
S31508003290E3F900B100253946206803F077FA0246BB
S315080032A03946084807F0EEFF034807F0EBFFA5E7A5
S315080032B0E03C0208083D0208382C0208A03B020838
S315080032C0C43B0208443D020830B583B0044690F872
S315080032D0B133DA1C90F8DE128A4207DB043380F831
S315080032E0B133002380F8DE3203B030BD591C0144E7
S315080032F0981C204422440433234493F8EC31009369
S3150800330092F8EC3190F8EC2191F8EC11234807F08B
S31508003310B9FF94F8B11301F2E91121440431206888
S3150800332015F0D9F9054608BBC4F8E0536DB329462C
S315080033301B4807F0A7FF012194F8B1330433DBB229
S3150800334084F8B13394F8DE229342CDD894F8343118
S315080033505E2BC9D8E218132082F835015A1C22447C
S3150800336082F83511023384F83431BDE70146206806
S3150800337003F0A6FBB0F1FF3FD6D10A4807F082FF5B
S31508003380094807F07FFF0021D6E7256818F03CFBBF
S315080033900146284603F082FB0546C8E7703D020849
S315080033A0C43D02089C3D0208382C020810B584B0BA
S315080033B0044690F82D307BB390F8A50173BB06221E
S315080033C094F82E300833184430302044053094F8E9
S315080033D0043503930290236A019300230093A36A9A
S315080033E094F8331017F0F1F8D0B994F8043502932D
S315080033F0236A019300230093A36A062294F83410E3
S3150800340004F1350017F0D0F980B994F83430043354
S3150800341084F8343004B010BD1846CFE70722CFE74A
S31508003420054AF521054807F0D3FEDEE7044AFC21E4
S31508003430024807F0CDFEE8E7DC3D020858450208D9
S31508003440043E020870B5BAB004468C22002117A8BB
S315080034501AF09AF900231193129313931493159360
S3150800346016931093217B206803F00CFA002839D0B4
S31508003470012800F09B80022800F00081C64A40F22D
S31508003480ED11C64807F0A4FE0DF13F022146D4F817
S31508003490700305F019FD002840F060819DF83F3063
S315080034A08DF84430109B1693D4F8B433149394F8DB
S315080034B0B833002B40F0598101238DF84E30022392
S315080034C084F86E3317AB009394F8343004F1350260
S315080034D011A9D4F8700305F015FD002840F05081B5
S315080034E03AB070BD03AB0DF10B02217B206803F0E7
S315080034F0DDF9002504950595069507950895D4F8F0
S3150800350064330793206815F0D8F88DF82100237BDB
S31508003510D4F8642394F90E10206803F02FFA8DF876
S3150800352020009DF80B308DF810309DF80C308DF882
S315080035301130206815F0BAF88DF812009DF8106061
S315080035409DF81110304614F0B9F98DF8130031467C
S31508003550206815F078F8ADF814008DF8165094F830
S3150800356034308DF8173001238DF818308DF819503E
S315080035708DF85C300DF1600C0DF1100EBEE80F00F1
S31508003580ACE80F00DEF80030CCF80030D4F8703321
S31508003590D3F8C034D3F8A43004A905A898471090E6
S315080035A002238DF845307E4B12936DE703AA217BE3
S315080035B0206803F091F92C22002104A81AF0E4F8F7
S315080035C0D4F864230C92237B94F90E10206803F038
S315080035D0D5F98DF83A00206803F0E2F90B9040F22D
S315080035E0FF13ADF8383041F60F53ADF8343041F2D9
S315080035F02103ADF8363001238DF8253094F83420B0
S31508003600ADF826202822ADF8202002228DF82220A7
S3150800361018228DF8232004228DF828208DF82930C9
S315080036209DF80C304FF47A7101FB03F3049346F2CC
S31508003630A81305935B4B06938DF81C2000238DF881
S315080036405C3018AD0DF1100CBCE80F000FC5BCE8D6
S315080036500F000FC59CE8070085E80700D4F870330B
S31508003660D3F8C034D3F8A83004A908A8984710900E
S3150800367003238DF845304C4B129305E70DF10B03E8
S315080036800DF10A02217B206803F03CF90025049518
S3150800369005950695079508950995237BD4F864231F
S315080036A094F90E10206803F069F98DF824008DF856
S315080036B014509DF80A308DF81530206803F04CF93F
S315080036C08DF8160001238DF818309DF80B308DF80B
S315080036D017309DF80A0003F02BF98DF819002068B9
S315080036E003F070F90490D4F8643307938DF82050EA
S315080036F00395D4F87033D3F8C034D3F8DC5003AA52
S3150800370004A91868A84710BB03990139002018F0C6
S31508003710A9F9ADF8260018AD0DF1100CBCE80F009C
S315080037200FC59CE8030085E80300D4F87033D3F886
S31508003730C004D0F8D85010AB94F8342004A9006817
S31508003740A84704238DF84530184B12939CE6184A6F
S3150800375040F2DB11114807F03BFDD5E7154A40F268
S31508003760F3110E4807F034FD98E618F082F9149B19
S315080037701B1A1493002384F8B8338DF84E309EE64E
S31508003780062384F86E339DF83F100B4807F07AFD40
S315080037900A4807F077FDA3E6B83E0208484402083F
S315080037A065210008A08601003522000805230008C7
S315080037B02C3E0208642E0208D83E0208382C02085D
S315080037C02DE9F043BBB004460D46174690F86C83C6
S315080037D04146006803F056F806468C22002117A8D1
S315080037E019F0D2FF84F86D5355B1012D5DD0994A71
S315080037F040F22221984807F0EBFC4FF0000901E05F
S31508003800D4F86893002E53D0012E00F09F80934A77
S3150800381040F26721904807F0DBFC0DF15B02214678
S31508003820D4F8700305F050FB002840F0E28000232E
S315080038301093119312931393149315939DF85B3079
S315080038408DF840309DF85C30012B14BF012300230E
S315080038508DF8413000F0D480814B11931397D4F83A
S315080038607C33159317AB0093FF2304F2ED3210A9AE
S31508003870D4F8700305F046FB002840F0DD800423E9
S3150800388084F86E339DF85B20691C764807F0FAFCCD
S315080038909DF85C30012B00F0B5802B9A724B53F8DB
S315080038A02510724807F0EEFCD1E0D4F81490A9E789
S315080038B00DF113030DF112024146206802F0F6FFDE
S315080038C005960696079608960996206814F0F5FE5A
S315080038D08DF82500B4F880338DF82630CDF8209081
S315080038E0206814F0E3FE8DF816009DF812008DF896
S315080038F014009DF813108DF8151013F0DFFF8DF8DE
S3150800390017008DF81A6001224146206803F0A4F8D2
S3150800391005308DF81B008DF81C6001268DF81D609A
S315080039209DF81410206814F08EFEADF818008DF876
S315080039305C600DF18C0C05AE0FCEACE80F00336859
S31508003940CCF80030D4F878332E9366E70DF11302DD
S315080039504146206802F0C0FF2C22002105A819F074
S3150800396013FFCDF83490206803F01AF80C9040F253
S31508003970FF13ADF83C3041F60F53ADF8383041F23D
S315080039802103ADF83A3001238DF82930FF22ADF82E
S315080039902A202822ADF8242002228DF82620182273
S315080039A08DF8272004228DF82C208DF82D309DF8CF
S315080039B013304FF47A7101FB03F3059346F2A8130B
S315080039C006932B4B07938DF8202000238DF85C3047
S315080039D00DF18C0C05AE0FCEACE80F000FCEACE89F
S315080039E00F0096E807008CE80700D4F87C332E937E
S315080039F013E7204A40F26D21174807F0E9FB16E75E
S31508003A001D4B2AE7184B53F82550269E9DF88C80A7
S31508003A109DF88D20194B53F82290206814F04DFE1E
S31508003A200290CDF80490CDF8008033463A462946F0
S31508003A30134807F027FC0AE0062384F86E339DF83E
S31508003A405B10104807F01EFC0F4807F01BFC3BB044
S31508003A50BDE8F083043F020828440208183F02081C
S31508003A60D1240008343F020828460208903F02087D
S31508003A70A0860100642E02082D240008F0450208DD
S31508003A80543F0208D83E0208382C020830B583B0E5
S31508003A9004460DF103020146D0F8700305F014FA46
S31508003AA004F2833301AA9DF80310D4F8700305F0D5
S31508003AB027FB94F883130A2900F2AE80DFE801F0A9
S31508003AC066ACAC06236AACACACACA800019BC4F8E7
S31508003AD0843394F86E33022B00F0A280042B00F096
S31508003AE0A88094F883130A2900F09D80554807F0AA
S31508003AF0C9FB554807F0C6FB544A4FF4457154486C
S31508003B0007F066FB8FE0019BC4F8EC34D4F87033F9
S31508003B109DF803108C2202FB0132127E012A22D064
S31508003B206ABBA4F8F0248C2202FB0133B3F9843073
S31508003B30A4F8F234D4F870239DF8033003F5D8734B
S31508003B4012F8133084F8EC332046FEF713FD0028EC
S31508003B50BFD0404807F096FB052384F8833300233B
S31508003B6084F8EC33B5E78C2202FB0133B3F98220E3
S31508003B70A4F8F024B3F98030A4F8F234DAE7334A2B
S31508003B8040F2B621324807F023FBD3E7324807F064
S31508003B9079FB9EE7019D94F86D3343BB627ED4F8AA
S31508003BA084334FF47A7101FB0233D4F87C2313442F
S31508003BB0D4F8A8231344ED1A94F86C3303F5E2738A
S31508003BC034F91330ED1A17F054FF2D1A17F057FF72
S31508003BD02D1A13D4002D7FF77CAF94F86C3303F5B8
S31508003BE0E27334F81320013224F8132071E7012B0D
S31508003BF001D00022D3E7627E0132D0E794F86C3315
S31508003C0003F5E27334F81320013A24F8132060E729
S31508003C10124807F037FB5CE7114807F033FB58E713
S31508003C20032384F86E3394F883330A2B05D003B044
S31508003C3030BD052384F86E33F5E7062384F86E3322
S31508003C40F5E700BF3C400208382C0208642E02083B
S31508003C500C440208A43F0208DC3F0208F43F0208AD
S31508003C60204002082DE9F04387B004460D4617F0B8
S31508003C70CBFE074655B1012D1DD0444A40F23A31D4
S31508003C80434807F0A5FA0026B04609E0667E227E7C
S31508003C90217B206802F0E0FA84F86C034FF00108F3
S31508003CA04FF47A7303FB06F6B8F1000F0BD14046C2
S31508003CB007B0BDE8F083667E0136A37C84F86C33D2
S31508003CC04FF00108ECE794F86C13206802F0DAFD6F
S31508003CD000283DD0012845D02E4A40F253312C48C1
S31508003CE007F076FA17F0C5FE814617F0C8FE81443C
S31508003CF094F86C1301F5E27334F913309944D4F847
S31508003D00BC3303930023029304F55E73019304F511
S31508003D105F73009304F560733246206803F072F807
S31508003D2004F56A730093B4F880334FFA89F294F86D
S31508003D306C13206803F0BEF8D4F88433DB1B3344D5
S31508003D40D4F8A8239E1815D5052384F86E33AEE754
S31508003D500DF116030DF1150294F86C13206802F0A4
S31508003D60A5FDBFE70DF1170294F86C13206802F061
S31508003D70B3FDB7E7F21929462046FFF721FD31467C
S31508003D80054807F07FFA4FF0000890E7043F02085D
S31508003D90E8430208183F02086840020810B50446BE
S31508003DA0002380F8B13380F83F3380F8343180F847
S31508003DB0953194F8DE2294F8B1339A4268D994F88A
S31508003DC03421602A10D8234493F8EC118B1E112B4A
S31508003DD057D8DFE803F012161A1E22262A2E325664
S31508003DE056365656444E56522A4807F04BFA2A4833
S31508003DF007F048FA4FF0FF304BE02046FEF7EEFB9F
S31508003E00D7E72046FEF730FDD3E72046FEF71AFC33
S31508003E10CFE72046FEF78EFECBE72046FEF7E8FF03
S31508003E20C7E72046FFF728F8C3E72046FEF740FC19
S31508003E30BFE72046FFF720F9BBE72046FFF794F9CE
S31508003E40B7E72046FEF778FC0028B2D1D4F8D0337D
S31508003E50C4F8CC3317F0D4FDC4F8D403A9E7204638
S31508003E60FEF7DAFC0028A4D194F8E93384F8EA339B
S31508003E709FE72046FEF71CFF9BE72046FFF724FA3C
S31508003E8097E7002384F8DE32044807F0FBF990E749
S31508003E90002010BD88400208382C0208B4400208E9
S31508003EA030B587B0054690F8041502A807F05EF904
S31508003EB095F8041504A807F041F908224749484827
S31508003EC007F0E0F9002408E004F118036B4413F83E
S31508003ED0081C444807F0D6F90134072C08D814F012
S31508003EE00F0FF1D1002CEFD03F4807F0CBF9EBE7E5
S31508003EF03D4807F0C7F908223C49394807F0C2F996
S31508003F00002408E004F118036B4413F8101C354824
S31508003F1007F0B8F90134072C08D814F00F0FF1D1BF
S31508003F20002CEFD0304807F0ADF9EBE72E4807F044
S31508003F30A9F9B5F8D4314FF6FF72934202D001338E
S31508003F40A5F8D43195F80425B5F8D411284807F012
S31508003F5099F9002485F82F4001232B74EB73284622
S31508003F6013F0D9FC234610E0C3F10702591C183296
S31508003F706A4412F8104C681880F83540093312F86C
S31508003F80082C2B4483F835200B46072BECDDB5F8B7
S31508003F90D43185F846301B0A85F84730132185F851
S31508003FA0341095F8043501AA05F1350016F085FB9D
S31508003FB060B995F8343003F130022A440199C2F801
S31508003FC00510043385F8343007B030BD094A40F28D
S31508003FD0B751094807F0FCF8EBE700BFD0400208E4
S31508003FE06C2D0208802D0208BC550208D84002082C
S31508003FF0E0400208FC4002088C43020830B583B052
S315080040000446D0F8EE030090B4F8F233ADF8043065
S3150800401094F8D62194F8D73142EA032294F8D83195
S3150800402042EA03429DF800109DF8013041EA032157
S315080040309DF8023041EA03418A4274D00098C4F8D8
S31508004040D601BDF80430A4F8DA3194F80435B4F88A
S31508004050D4210DF10301684616F058FB204613F0EB
S315080040609FFC206802F090F894F8EC330D2B15D9D4
S31508004070D4F8FA03D4F8FE13D4F80224D4F8063494
S31508004080C4F8DC01C4F8E011C4F8E421C4F8E83146
S3150800409004F5EE71206802F041FD28B1D4F86423D6
S315080040A0217B206802F03EF994F8F43394F8F5235E
S315080040B003EB022394F8F62303EB024394F8F72361
S315080040C003EB0263A36294F8F833C3F30211217673
S315080040D003F00F03A37494F8F93303F00F03637620
S315080040E00BB901236376206802F064F920BBA17C32
S315080040F0206802F073F9054640BB022384F8823330
S31508004100A16A174807F0BEF8217E164807F0BAF8E4
S31508004110A17C154807F0B6F8617E144807F0B2F896
S31508004120284603B030BD124807F0ACF8114807F02E
S31508004130A9F84FF0FF35F3E7217E0F4807F0A2F8FC
S315080041400C4807F09FF84FF0FF35E9E7A17C0B48CC
S3150800415007F098F8074807F095F84FF0FF35DFE7BE
S31508004160BC410208CC410208E841020800420208A4
S3150800417028410208382C02085C4102088C410208D2
S3150800418070B58EB0044600230D93017B006802F0DB
S3150800419079FB68B101284BD0022800F095805E4A69
S315080041A040F27F615D4807F013F80D980EB070BDB8
S315080041B00DF107030DF10602217B206802F076FB5C
S315080041C00025029503950495059506959DF80630F4
S315080041D08DF808309DF807308DF80930206814F0FE
S315080041E065FA8DF80A009DF808609DF809103046B2
S315080041F013F064FB8DF80B0001238DF810308DF851
S31508004200115094F834308DF80F303146206814F088
S315080042101AFAADF80C008DF80E50D4F87033D3F8AE
S31508004220C034D3F8A43002A903A898470D90BCE778
S315080042300DF10702217B206802F04EFB2C2200219B
S3150800424002A819F0A1FAD4F864330A93206802F098
S31508004250A7FB099040F2FF13ADF8303041F60F5333
S31508004260ADF82C3041F22103ADF82E3001238DF83C
S315080042701D3094F83420ADF81E202822ADF81820F9
S3150800428002228DF81A2018228DF81B2004228DF898
S3150800429020208DF821309DF807304FF47A7101FB04
S315080042A003F3029346F2A81303931D4B04938DF868
S315080042B01420D4F87033D3F8C034D3F8A83002A940
S315080042C006A898470D9070E70DF107030DF1060251
S315080042D0217B206802F016FB0023029303930493C4
S315080042E00593069307939DF806008DF80D000123A4
S315080042F08DF8103002F01CFB8DF81100D4F87033DD
S31508004300D3F8C004D0F8D8500DAB94F8342002A9DD
S315080043100068A84749E700BFB83E02087843020884
S31508004320A086010070B582B0044690F8453380F83F
S31508004330463390F8443380F84733002380F8B03387
S3150800434090F88233012B57D0D4F8401394F84633AB
S315080043509942C0F29E80012284F84823227C012AD1
S3150800436040F29B80032184F8B013013A2274D4F8F2
S31508004370402394F847130B449A4214DB94F8B0335D
S31508004380032B00F09380234653F80F0B009304F198
S315080043900E0304F10D0294F84A1314F075F894F814
S315080043A04633C4F84033D4F84033B4F84C23934228
S315080043B002DB002A40F09C8094F8343194F8952169
S315080043C0934202D3002B40F09A8084F8A52104F585
S315080043D0CB7104F5D37019F0E2F9002384F834316F
S315080043E094F88213022900F0998094F8B033012BCF
S315080043F000F0B08002B070BD17F002FB054604233A
S3150800440084F84A33D4F85C330133C4F85C33204665
S31508004410FFF7B6FE6C4AA2FB002305EBD303D4F8DC
S31508004420602302F5616293420DD22046FFF7A8FE8B
S31508004430654BA3FB002305EBD303C4F858330023CD
S3150800444084F8823380E72046FFF79AFE2844D4F89A
S31508004450603303F51A43B03398420DD22046FFF76E
S315080044608FFE00EB40039B00574AA2FB032305EB94
S31508004470D303C4F85833E2E72046FFF781FE00EB82
S31508004480400005EB8005C4F85853052384F84A33E1
S31508004490D5E7002284F8482360E701222274226ABD
S315080044A0013222620131C4F8401360E7617B20685B
S315080044B002F01EF8014694F8A5310093002394F8FB
S315080044C03320206802F06EF800287FF46CAF23468C
S315080044D053F80F0B009304F10E0304F10D0294F840
S315080044E04A1313F0D1FF94F84633C4F840335AE719
S315080044F0364A40F2DF41364806F06AFE5CE784F841
S315080045003F331A4604F2351104F2DF2019F047F951
S31508004510012384F8B033E37B23745EE794F8B03361
S31508004520032B3FF462AF04F249330193637B009394
S3150800453004F10C0304F24A32206814F001F8B0F1D1
S31508004540FF3F7FF452AF234A40F2FC41204806F071
S315080045503FFE4AE794F8A5310093002394F83F23D9
S31508004560217B206802F01EF8D8B9012384F82E3082
S3150800457094F83F2304F2DF2104F13E0019F00FF905
S3150800458094F83F3384F83330002384F82D3002231F
S3150800459084F82F30204613F097FA2046FEF706FFD8
S315080045A028E704F2DF2594F83F630022217B206880
S315080045B002F052FAA0F10802D2B23146284600F0BB
S315080045C0DDFE84F83F03D0E7CDCCCCCC14420208FC
S315080045D0B04302084042020810B50C4611460122B3
S315080045E0006802F039FA421DD2B2A24201D3002075
S315080045F010BD2146024806F045FE4FF0FF30F7E7AA
S315080046006C4202082DE9F0438BB004460023089358
S3150800461090F8EC0300F0FAFD054694F86C2394F83C
S31508004620EC132046FFF7D8FF2D1804D00026304695
S315080046300BB0BDE8F08304F2ED370DF125030DF15B
S3150800464026020DF12701384600F0F4FD451940F021
S3150800465034819DF82730012B22D00023ADF81E3077
S31508004660636A089304F2B918CDF8108004F2B713F8
S31508004670039304F2F543029304F2F4430193A36A05
S3150800468000930DF11E0304F5DC7294F8EC1338461A
S3150800469000F0FCFD2D1843D0002D64D00026C6E797
S315080046A094F804353A4694F8EC13384616F015F89B
S315080046B0014668BB0023A4F85633A4F8543317F010
S315080046C09FF9C4F8500394F8EC33043B84F8EC33B0
S315080046D00426002DABD19DF8273084F8B5319DF816
S315080046E0263084F8B6319DF8253084F8FE34089BC8
S315080046F06362C4F84053A4F85653A4F8545317F009
S315080047007FF9C4F8500384F8A55184F895518EE7CB
S315080047106B4806F0B7FD6B4806F0B4FD0026D8E7EF
S3150800472008A9BDF81E0000F0FDFD05460028B5D114
S3150800473094F8EC130439C9B284F8EC1301F57A73CA
S315080047402344D3F8053094F8042503920293089B72
S31508004750019301230093A36A0622384615F0EEFF5B
S3150800476000289BD198E70123237494F8B73113F0F6
S31508004770200F03D094F82F20042A41D0C3F3001346
S3150800478084F8F73494F86D33002B3DD1D4F86833A8
S31508004790C4F8F83494F86C3384F8FC3494F8F53497
S315080047A0002B7BD094F8EC1394F8B891A1EB09018F
S315080047B00939C9B284F8EC1394F8F464002E46D18A
S315080047C0B9F1000F3CD104F5F67694F80435039355
S315080047D00296089B019301230093A36A062204F21A
S315080047E0F63015F05AFFE0B994F8EC23F22A1FD9EF
S315080047F0354806F047FD334806F044FD4E4668E75F
S31508004800012284F8FD24B9E7012B03D16369C4F8B2
S31508004810F834BFE72D4A40F2EE312D4806F0D8FCB1
S31508004820B8E72C4A40F21541294806F0D1FCDBE7E7
S3150800483084F8DE223146384618F0B1FF032648E7E9
S31508004840254806F01FFD1F4806F01CFDEFE609F295
S31508004850F130204494F8043503930297089B01939A
S3150800486001230093A36A0722053015F016FF20B925
S3150800487094F8B86146B901262BE7164A40F2334147
S31508004880134806F0A5FCF3E73246414604F5F670F0
S3150800489018F085FF84F8DE6202261AE794F8B861F4
S315080048A00EB9012615E73246414604F5F67018F0AA
S315080048B076FF84F8DE6202260BE70026B7E600BF1D
S315080048C088420208382C020800430208C44202083B
S315080048D0C8430208D84202082C43020870B590F86B
S315080048E0B2333BBB04460E4690F8BA335BB394F832
S315080048F02C30012B39D017F083F80546C4F8AC03E1
S31508004900C4F8B463012384F882332046FFF7C8FA53
S31508004910206813F0C6FE6076206813F0C4FEA07403
S31508004920D4F85C330BB9C4F86053012384F8B23366
S31508004930002070BD0F4806F0A5FC0F4806F0A2FC43
S315080049404FF0FF30F5E7D0F8585317F059F82D1AFD
S31508004950002DCCDD17F054F80146D4F85823074843
S3150800496006F090FC4FF0FF30E3E7022384F8823329
S315080049700020DEE740460208382C02086C4602088A
S315080049802DE9F04782B004460F461E469DF828904A
S315080049909DF82C8092460AB94FF0000994F8A53183
S315080049A0009300234A46217B206801F0FBFD05465B
S315080049B0B0F1FF3F45D0B8F1040F02D0B8F1020FAD
S315080049C046D194F82C301BB994F88233022B48D17F
S315080049D094F8B233002B4DD1204613F0E1F80028A5
S315080049E051D117F00DF8C4F8AC030C9BC4F8B433D6
S315080049F084F82D7084F82EA084F82F80002384F87C
S31508004A00FD34002E48D084F833904A463146204675
S31508004A1013F0E4F8204613F057F82046FEF7C6FCD4
S31508004A20002084F8F60484F8F40484F8F504E37B9B
S31508004A302374012384F8B2330546284602B0BDE83C
S31508004A40F087174806F01EFC164806F01BFCF4E72C
S31508004A50154806F017FC134806F014FC4FF0FF350E
S31508004A60EBE7124806F00EFC0E4806F00BFC4FF07A
S31508004A70FF35E2E70E4806F005FC0A4806F002FC98
S31508004A804FF0FF35D9E70B4806F0FCFB054806F062
S31508004A90F9FB4FF0FF35D0E7002384F83330B9E748
S31508004AA0A0460208382C0208C8460208F44602083E
S31508004AB0404602082047020830B583B00446002362
S31508004AC080F86E3380F8FF3490F8C831042B29D06B
S31508004AD094F8C831023BDBB2012B48D92046FFF7D0
S31508004AE021FC94F8DC33022B45D094F8DD33022BF5
S31508004AF045D094F8DE33022B45D094F8C831002B04
S31508004B0045D06368A068984794F8B033012B4AD01B
S31508004B10032B48D0002384F8B233002384F8C83125
S31508004B2003B030BD394806F0ADFB2046FFF766FAFC
S31508004B30B0B9002384F8EC33012284F8FF2484F802
S31508004B40F53494F84B1384F84A13237B637322468F
S31508004B5052F80F0B13F0F0FB204613F01BF9B7E7DA
S31508004B602B4806F08FFB2B4806F08CFBB0E7204657
S31508004B70FFF714F9B2E7002384F8DC33B5E700231E
S31508004B8084F8DD33B5E7002384F8DE33B5E74FF460
S31508004B908C72002104F57B7018F0F6FD94F8043544
S31508004BA084F80035ADE7234653F8110B009304F556
S31508004BB05A7304F55972217B01F008FB78B100237A
S31508004BC084F8B23394F8B033032BA6D1236A0133A1
S31508004BD02362D4F840330133C4F840339DE70023F9
S31508004BE084F8B03316F010FF054640F6B8314FF496
S31508004BF07A7016F037FF0544C4F8B453042384F8D2
S31508004C00B23316F0FDFEC4F8AC0386E7484702083F
S31508004C1060470208382C02082DE9F04F8BB004468D
S31508004C200DF127020146D0F8700304F04DF994F807
S31508004C30B2337BB994F86E33062B1FD094F8B2338F
S31508004C40042B00F27F81DFE813F029002300F3002C
S31508004C5011011D0016F0D4FED4F8AC33C01AA0F525
S31508004C6096700028E6DD94F8B233BA4ABE21BA48EF
S31508004C7006F0AEFA062384F8B233DBE72046FFF7E0
S31508004C801BFFDBE7B54806F0FDFA012384F8B233CB
S31508004C9094F86E333BB1032B00F0978094F8B20377
S31508004CA00BB0BDE8F08F012384F86E33AC4806F0EC
S31508004CB0E9FA94F80415AB4806F0E4FAAA4806F0AF
S31508004CC0E1FA217B206801F0DDFD38B1012831D0F9
S31508004CD0022848D02046FEF7B5FBDFE70DF126038C
S31508004CE00DF12502217B206801F0E0FDD4F8B453CC
S31508004CF0D4F864639DF825709DF826209B4B53F8DD
S31508004D00228094F8349094F90EA0D4F820B0204666
S31508004D10FFF736FA0490CDF80CB0CDF808A0CDF818
S31508004D200490CDF800803B4632462946904806F066
S31508004D30A9FACFE7D4F8B453D4F8646394F8347076
S31508004D4094F90E80D4F820902046FFF719FA0290BD
S31508004D50CDF80490CDF800803B4632462946854872
S31508004D6006F090FAB6E70DF126030DF12502217B30
S31508004D70206801F0C7FDD4F8B4330793D4F8645318
S31508004D80267B9DF825207C4B53F822709DF826201B
S31508004D907A4B53F8228094F8349094F90EA0D4F8FC
S31508004DA020B02046FFF7ECF90590CDF810B0CDF805
S31508004DB00CA0CDF80890CDF80480009733462A4613
S31508004DC007996F4806F05EFA84E7654806F05AFACE
S31508004DD06C4806F057FA644806F054FA022384F839
S31508004DE0B233D4F88433C4F8D031D4F870339DF88C
S31508004DF02720EC3203EB82035A68E36902FA03F3CD
S31508004E009B1AC4F8CC3194F88233012B46D020463D
S31508004E1012F090FE94F805351BB194F88233022BF4
S31508004E2040D000212046FEF71DFF00283FF436AF8C
S31508004E3094F86E33052B7FF431AF94F88333042B43
S31508004E4034D0032384F8B233454806F01BFA94F8A5
S31508004E5004154D4806F016FA434806F013FA0121E0
S31508004E602046FEF7FFFE00283FF418AF94F86E338D
S31508004E70052B7FF413AF94F88333042B41D03848BD
S31508004E8006F000FA94F80415404806F0FBF936488F
S31508004E9006F0F8F92046FFF70FFEFFE6204612F067
S31508004EA079FFB4E72046FFF707FEF7E6012384F803
S31508004EB0F6342046FFF7A6FB84F8C80190B9032309
S31508004EC084F8B233264806F0DDF994F8041530481C
S31508004ED006F0D8F9244806F0D5F901212046FEF750
S31508004EE0C1FEC0E71E4806F0CDF994F80415294816
S31508004EF006F0C8F91C4806F0C5F92046FFF7DCFDA0
S31508004F00CCE6022384F8F6342046FFF77BFB84F8C8
S31508004F10C80158B9124806F0B5F994F804151E48A0
S31508004F2006F0B0F9104806F0ADF9B3E70C4806F0FC
S31508004F30A9F994F80415194806F0A4F90A4806F0E0
S31508004F40A1F9A7E7164A40F2BF11034806F040F94F
S31508004F50A4E600BF7C470208844B0208A84702085B
S31508004F60AC470208DC470208FC470208704C0208F6
S31508004F70284802087C480208384C0208484C0208AF
S31508004F80C848020828490208A8490208284A020807
S31508004F903449020878490208C8490208F84902084B
S31508004FA0484A020830B58BB0044624252A46002113
S31508004FB001A818F0E9FB94F8041501EBC1012B468A
S31508004FC001AA8900022016F03DFD202101A800F063
S31508004FD0EFF8099B984215D1BDF80630A4F8D431EC
S31508004FE00298C4F8D601BDF80C30A4F8DA319DF859
S31508004FF00E3084F8BB3323689DF80F201A70002002
S315080050000BB030BD044806F03DF9044806F03AF9FD
S315080050104FF0FF30F4E700BF6C4A0208382C02084C
S315080050202DE9F04184B004460F4615461E46DDF8C4
S315080050302C804FF4A162002118F0A6FB98F80020F6
S3150800504084F8042598F80030013384F8743327600F
S315080050500A9B636004F57B73A3600A23C4F8BC3318
S315080050603C4BC4F8D83384F800253146204612F064
S31508005070CEFC2046FFF796FF60B92368187801F042
S315080050802BF8C8B123681978334806F0FBF833487B
S3150800509006F0F8F8324806F0F5F8304806F0F2F867
S315080050A0204612F0DCFE2046FFF77CFF236801222B
S315080050B01A70204612F06EFEC4F870534FF4166349
S315080050C0A4F84C332346274A94F87413284603F069
S315080050D0B3FE23681978204612F0D0FC204612F059
S315080050E0D2FC206813F0E7FA84F84503206813F029
S315080050F0E0FA84F8440394F8BB33012B26D094F8DD
S315080051000415194806F0BEF8B4F8D411174806F085
S31508005110B9F894F8D93194F8DA2194F8DB110291A8
S315080051200192009394F8D83194F8D72194F8D611BF
S315080051300F4806F0A7F823681A780E4B53F8221082
S315080051400D4806F09FF804B0BDE8F08184F8BA333C
S31508005150D5E700BF80510100A44A0208382C02088E
S31508005160E04A02088D3A0008184B0208284B020844
S31508005170384B0208A84C0208744B020882B00B4B45
S315080051801B680093019300209DF8043063F3070021
S315080051909DF8053063F30F209DF8063063F317403A
S315080051A09DF8073063F31F6002B07047B04C0208E1
S315080051B06FF00502002901F1FF3122DD10F8013BED
S315080051C05A404FF0000CBCF1070FF3DC00B542F370
S315080051D0000E0D4B0EEA030383EA52020CF1010C92
S315080051E0BCF1070FF3DD002901F1FF3105DD10F8E9
S315080051F0013B5A404FF0000CF2E7C2F102005DF89D
S3150800520004FBC2F1020070472083B8ED0B2801D9D0
S315080052100020704708B50146044806F033F80448EC
S3150800522006F030F84FF0FF3008BD00BFB44C020856
S31508005230382C020838B50C461D4603785B090B70F6
S31508005240017801F00301117023783BB1072B0ED8C2
S31508005250D42222FA03F313F0010F08D0094806F006
S3150800526011F8094806F00EF84FF0FF3002E0002961
S31508005270F4D100202378052B14BF002301232B70BB
S3150800528038BD00BFE04C0208382C02082DE9F04171
S3150800529004460F46164609994578827805EB022595
S315080052A0C27805EB0245027905EB0265069A954236
S315080052B023D14FF0000862790A70A279E07902EBEF
S315080052C000221A800A7802F00F02327004F10801EF
S315080052D00A9818F064FA337803F10C0297420FDD46
S315080052E00833E35C079A13700123089A1370B8F120
S315080052F0000F0BD14046BDE8F0814FF0FF38DAE7E2
S315080053000023079A1370089A1370F0E72946034892
S3150800531005F0B8FF024805F0B5FFEBE7FC4C0208BC
S31508005320382C020808B50A681FFA82FC130C1B04FD
S3150800533084450AD3B2F1FF3F07D084450FD91844F4
S3150800534000F580300860002005E0B2F1FF3F03D089
S3150800535018440860002008BD08600020FBE70146E5
S31508005360044805F08FFF044805F08CFF4FF0FF3026
S31508005370F1E700BF204D0208382C020810B5034695
S31508005380A3EB000C96468A4228BF8E46F44509DAF6
S3150800539093F800E0054C14F80EE07344A3EB000EF6
S315080053A09645EDDD5FFA8CF010BD00BF704D020822
S315080053B008B5044B181D18604FF4F272002118F056
S315080053C0E3F908BD800F0020F8B51E46124B1B688E
S315080053D0DBB105460C461746062817D80E4B1A6841
S315080053E055701B685B78A34200D923B90B4AA121E3
S315080053F00B4805F0EDFE084B196804EB840001EB39
S31508005400001087814660069B8360F8BD034A9C218D
S31508005410034805F0DDFEE1E7800F0020642E020850
S31508005420AC4D0208064B1B6833B1022801D05A78E6
S3150800543022B118700020704701207047012070477C
S31508005440800F0020034B1B680BB1187870470220A9
S31508005450704700BF800F0020494B1B68002B00F0E7
S315080054608E80F0B583B004460E465A78002A71D06D
S315080054701B78022B6ED016F0C7FA05460DF1070207
S3150800548021463F4B186812F089FE002862D03C4B33
S3150800549019689DF8070000EB800201EB0212137DE4
S315080054A01469384AA2FB047C4FEADC3C364F07FBFA
S315080054B01C4CACEB040CAC44A2FB0C24E20B334FA3
S315080054C0A7FB02721209C2EB42125200C2EB9432D7
S315080054D0C2F347041C44E4B22D4AA2FB047202F04C
S315080054E0F00EAEEB1212A4EB4204E4B2012E13D96D
S315080054F076080136274A944510D2A34237D1264A60
S31508005500944534D800EB800304EBC303083301EB5E
