S01B00006D61696E5F706F7274696E675F74657374735F322E733337AF
S31508000000000400200D4900083702010837020108DC
S3150800001037020108370201083702010837020108CA
S31508000020370201083702010837020108DD560108C0
S31508000030370201083702010881560108415B0108A9
S31508000040370201083702010837020108370201089A
S31508000050370201083702010837020108370201088A
S315080000603702010837020108370201084506000869
S315080000703506000837020108370201083702010869
S31508000080370201083702010849CB00083702010880
S315080000903702010837020108ED5300083702010844
S315080000A03702010837020108914F0008694F000816
S315080000B0370201083702010837020108370201082A
S315080000C0370201083702010837020108370201081A
S315080000D0370201083702010837020108370201080A
S315080000E037020108370201083702010837020108FA
S315080000F037020108B311010837020108370201085F
S3150800010037020108370201083702010837020108D9
S3150800011037020108370201083702010837020108C9
S3150800012037020108370201083702010837020108B9
S3150800013037020108370201083702010837020108A9
S3150800014037020108370201083702010849A40008E6
S315080001503702010837020108370201083702010889
S315080001603702010837020108370201083702010879
S31108000170370201083702010837020108AF
S3150800017C194A5AB3194BDB6913F0040F29D110B479
S3150800018C0AE003EA00048C4210D0013AB2B1134BD0
S3150800019CDB6913F0040F14D110F0010FF1D1104CD8
S315080001AC1C40002CEDD06FF001000CE00C4A1A40F4
S315080001BC0AB9002007E06FF0010004E06FF00200B6
S315080001CC01E04FF0FF305DF8044B70476FF002000A
S315080001DC70474FF0FF307047809698000000035028
S315080001EC020001000D4BDB6913F4803F12D170B588
S315080001FC0A4B03F580560124F46003F500552C646C
S3150800020C4FF480721A6100212046FFF7B1FF34645F
S3150800021CEC6070BD6FF00100704700BF0000035022
S3150800022C38B50446C0F30C03FBB9154B4FF48032B2
S3150800023C9A6603F51C33DD69154041F67132DA63AB
S3150800024C03F580520121D1605C6102221A610021FA
S3150800025C2120FFF78DFF70B10A4B0122DA601DB120
S3150800026CA3F500530022DA6338BD40F21A2106487A
S3150800027C00F096F8D9E700212120FFF779FFEBE784
S3150800028C0090005000200350F481010838B51A4B31
S3150800029C5861DB6913F0040F2AD10C4654F8041B79
S315080002AC154B9961151F06E0214651F8042B124B84
S315080002BC9A61043D0C465DB108210846FFF758FFC4
S315080002CC03460028F0D00C4A04211161184638BDA3
S315080002DC094B04221A6100212120FFF749FF034626
S315080002EC0028F3D100212120FFF742FF0346EDE752
S315080002FC4FF0FF33EAE700BF000003502DE9F04149
S3150800030C0F461646054610F0030F14D116F0030FC8
S3150800031C17D1204B4FF480329A6603F51C33DA69F1
S3150800032C02F4803841F67132DA6303F58053012200
S3150800033CDA6000230EE040F26621174800F030F828
S3150800034CE4E74FF41A71144800F02AF8E1E725445B
S3150800035C2744361B8EB105F5005424F4FF5424F0BB
S3150800036C1F04641BB44228BF344622463946284625
S3150800037CFFF78CFF03460028E9D0084A0121D16013
S3150800038CB8F1000F03D0A2F500520021D16318462C
S3150800039CBDE8F08100900050F4810108002003505C
S30D080003AC5FF800F04D0201089C
S315080003C0013800D0FCE770470348044B834202D04B
S315080003D0034B03B118477047302800203028002007
S315080003E000000000064B0749C91A891048BF0131A9
S315080003F0491003D0044B0BB101481847704700BF9A
S3150800040030280020302800200000000010B5064CD7
S31508000410237843B9FFF7D8FF044B13B10448AFF369
S3150800042000800123237010BDB022002000000000C8
S31508000430AC91010808B5054B1BB105490548AFF352
S315080004400080BDE80840FFF7CDBF00BF00000000F0
S3150800045068040020AC910108A3F5803A704700BFF4
S31508000460174B002B08BF134B9D46FFF7F5FF0021DE
S315080004708B460F461348144A121A11F06EFA0E4BA1
S31508000480002B00D098470D4B002B00D09847002032
S31508000490002104000D000D48002802D00C48AFF3D7
S315080004A000800DF0B5F92000290011F0F2F80DF0E2
S315080004B011F800BF0000080000000000000000005E
S315080004C00004002000040020DC22002000000000B8
S315080004D0000000000023062073B1704754B224B907
S315080004E0013353B15DF8044B70470228F8D0086809
S315080004F00A4908601046F3E710B4094A52F823106F
S315080005000A7A022AEAD9032AEAD1441EE4B2012C5D
S31508000510E6D90868014908601046E1E7800400202A
S315080005201825002010B5A2B00DF1680C274C0FCC89
S31508000530ACE80F0094E80F008CE80F000021159135
S3150800054016911791189119914FF480131593204B12
S315080005501993109111911291139114911D4B1093A7
S315080005601D4B14933C2201A811F0F7F901AC0DF1CB
S31508000570540CBCE80F000FC4DCF80030236006AC4E
S315080005800DF1400CBCE80F000FC4DCF80030236006
S31508000590124B0B9320230C9301238DF83530104B07
S315080005A00F93104B1AAA01A90F480AF023FD044617
S315080005B038B900214FF4E1300FF02BFE204622B067
S315080005C010BDBA2109480FF041FEF2E7806701081D
S315080005D03C00015B010010004400015B840400201C
S315080005E02C250020A40400202C06002048670108BA
S315080005F008B531B9084B1868036823B10BF044FDF8
S3150800060001E0012900D908BD034B18680368002BCF
S31508000610F9D010F02AFFF6E74025002008B503496F
S3150800062003480CF007F8FFF77DFF08BD44250020B6
S315080006305806002008B502480AF00CFE08BD00BF9F
S315080006402C06002008B502480AF004FE08BD00BFC3
S315080006502C06002008B503480FF01FFE02480FF0CD
S315080006601CFE08BDB8670108A067010808B503495C
S31508000670034B186805F070FF08BD00BF542500201D
S3150800068074250020844600234FF6FF708B4211D252
S3150800069010B41CF8032082EA1022074C34F8122002
S315080006A082EA002080B201339BB28B42F1D35DF817
S315080006B0044B7047704700BFD06701088446002383
S315080006C0FF208B420CD210B41CF803204240054C84
S315080006D0A05C01339BB28B42F6D35DF8044B70479E
S315080006E0704700BFD06901082DE9F04707468A46DA
S315080006F09146984600263546344603E00235ADB2A3
S315080007000134A4B24C4529D2214650460DF0E9FBE6
S315080007103A78184B03EB42031B5C00EB420CDCF106
S3150800072000020CF00F0C02F00F0258BFC2F1000CC9
S3150800073087F800C0E243520002F00E0293403343AA
S315080007409EB204F00703072BD8D1320A434603F8B2
S31508000750022B88F8016098460026CFE714F0070FA9
S3150800076004D0330A88F8003088F801602846BDE8C6
S31508000770F08700BF206B01082DE9F04707468A4637
S315080007809146984600263546344603E00335ADB211
S315080007900134A4B24C452FD2214650460DF0A1FB98
S315080007A039781D4B03EB41031A5C00EB410CDCF175
S315080007B000030CF03F0C03F03F0358BFC3F1000CD5
S315080007C087F800C0E34303F0070303EB430302FA89
S315080007D003F31E4304F00703072BD7D1C6F30743D9
S315080007E088F80030C6F3072388F8013088F80260D5
S315080007F008F103080026C9E714F0070F09D0C6F365
S31508000800074388F80030C6F3072388F8013088F8CC
S3150800081002602846BDE8F087406B010810B48B1CBF
S31508000820DB009BB206339BB2417903290CD8DFE87B
S3150800083001F002363B3E03EB43035B0004331E49DB
S3150800084081FB0313C3F34F0303F12F011B4C84FBF6
S31508000850014CC917C1EBEC0190F809C0614411704D
S315080008601749A1FB0321490901EB810202EB820228
S31508000870520092B201EB4101A3EB01139BB21BB1EB
S315080008801A4492B2023292B2437AC3EBC30103EB23
S31508000890C10302EB430080B25DF8044B704703EBDB
S315080008A04303C3F34F03CFE75B009BB2CCE703EBED
S315080008B043039BB2C8E700BF67666666ABAAAA2A67
S315080008C0ABAAAAAA10B490F807C0474C34F81CC0C3
S315080008D0807901281CD04548A0FB0C0C4FEA1C1C4B
S315080008E0A1F800C0088863282ED03BD83E2829D80E
S315080008F0232814D21E2872D80A280ED33C4C24FA70
S3150800090000F010F0010F4DD103205DF8044B70473D
S315080009104FEADC0CA1F800C0E4E70320F5E723382A
S315080009201B285ED8DFE800F03E5D5D5D5D5D5D5DC0
S315080009305D5D5D5D3E5D5D5D5D5D5D5D5D5D5D5DF8
S315080009405D4D5D4D56280BD106201080DA092948E1
S31508000950825C4A8003F07F028A80CB800020D4E73D
S315080009600320D2E7B0F5C37F04D00AD940F2931426
S31508000970A04215D1062010804FF484724A808B80DD
S31508000980EBE7B92801D0C62808D1062010801A0A34
S315080009901948825C4A80DAB28A80DEE70320B4E727
S315080009A00320B2E70620108023FA00F21348825C7F
S315080009B04A8003F03F028A80B3F5C07FCDD3032077
S315080009C0A3E7382010809A090C48825C4A8003F015
S315080009D03F028A80B3F5C07FBFD3032095E7032083
S315080009E093E7032091E700BFD06B01084FECC44E94
S315080009F000044050C46B0108C06B0108C86B0108AD
S31508000A002DE9F04FADF5217D05460191174699462A
S31508000A10AA9C002608964FF41772314609A810F0CA
S31508000A209CFF2246494638460DF037FA4946204685
S31508000A30FFF728FE030A04F8093009F10103E05418
S31508000A4009F10203E654D900063189B208AA2046FC
S31508000A500DF082FA8046FF223146204610F07DFFCF
S31508000A606F79032F3FD0624B02AE0FCB07C626F82D
S31508000A70023B1B0C3370012F0BD0022F0CD02FB169
S31508000A804FF0000A0027BB463E4618E04FF00F0A13
S31508000A90F8E74FF0060AF5E74FF0030AF2E70BF11D
S31508000AA001030093394608A80DF01BFA0246594679
S31508000AB020460DF023FADDF800B006E00137B84508
S31508000AC008D902AB9B5D002BE9D10136B245F5D1B9
S31508000AD00026F3E71FFA8BF808F10702D210214621
S31508000AE008A810F045FF6B7A722202FB03F3224630
S31508000AF0414608A80DF049FA804606AB4A460199D0
S31508000B0028460DF0A2FA4FF0000AD1463AE007EB64
S31508000B10060B384B995D02A80DF0E3F902460BF176
S31508000B20020120460DF0EAF90136272EEFD90026F4
S31508000B300FE007EB060B06F128032E4AD15C02A844
S31508000B400DF0CFF902460BF14A0120460DF0D6F911
S31508000B500136272EEDD900260CE007EB060B3146A9
S31508000B6028680DF0BEF902460BF12A0120460DF061
S31508000B70C5F901361F2EF0D909F172091FFA89F94C
S31508000B800AF1010A6B7A534525D9A3EB0A00C0B2CC
S31508000B90013806A9C0B20DF085FA042106A8FFF7A8
S31508000BA08DFD8DF81C00002602960396ADF81060A0
S31508000BB002AB0122282106A80DF0B4F94F463246A9
S31508000BC0494620460DF09AF9324609F101012046B8
S31508000BD00DF094F9A9E7C14419F1070905D4C9F339
S31508000BE0CF000DF5217DBDE8F08F09F10709F6E77D
S31508000BF0E46B0108D06A010800B583B06A460DF0B7
S31508000C006BFABDF8020000027C30034BA3FB0030F0
S31508000C10C00803B05DF804FBD34D621010B584B06C
S31508000C200C461423ADF80C30174B1B88ADF808306A
S31508000C3000238DF80A300323009302AB022203A98E
S31508000C400FF0B6F9E8B99DF8083003F001022270F2
S31508000C50C3F340026270C3F38002A270C3F3C002FA
S31508000C60E270C3F300122271C3F3401363719DF857
S31508000C7009305B425B10A3719DF80A305B425B103A
S31508000C80E37104B010BD00BFF46B010810B584B061
S31508000C900C461423ADF80C300F4B1B88ADF8083002
S31508000CA000238DF80A300323009302AB022203A91E
S31508000CB00FF07EF970B99DF808305B425B1023701F
S31508000CC09DF9093002339B1063709DF80A305B4228
S31508000CD05B10A37004B010BDF46B0108844650B1D4
S31508000CE00023142B10D8094A52F83320624504D23F
S31508000CF00133DBB2F5E703207047044A02EBC3036E
S31508000D001B790B7000207047022070477825002059
S31508000D100A2807D8DFE800F0200B11171A1C1E0650
S31508000D20080E14000020704742F6B100704743F6DB
S31508000D300950704745F26110704747F61220704710
S31508000D404AF2C32070474FF2244070470448704760
S31508000D50044870470448704741F68460704700BFEE
S31508000D6048E8010090D0030020A107000849A1FB2C
S31508000D700032120B43F6095303FB120041F6846353
S31508000D8003EB8033A1FB03131B0B03EB8230704785
S31508000D9083DE1B4370B586B006460C460B68194DB4
S31508000DA0B5FBF3F54868FFF7E1FF8B238DF80C30A8
S31508000DB0C5F307438DF80D30C5F307238DF80E30BC
S31508000DC08DF80F50237A8DF81030637A8DF811302C
S31508000DD0C0F307438DF81230C0F307238DF813309C
S31508000DE08DF8140000230093092203A9304600F069
S31508000DF0D7F808B106B070BD0022114630460DF08E
S31508000E0003FBF7E70000093D00B583B08446074BAE
S31508000E1093E803000090ADF8041003226946604683
S31508000E200DF0C1FF03B05DF804FB00BF046C0108B8
S31508000E3010B588B004461B4B0DF1140C93E8070057
S31508000E40ACE80300ACF800200DF1080C0C3393E86D
S31508000E500700ACE803008CF80020032120460DF0BB
S31508000E60DCFB034610B1184608B010BD00230093FA
S31508000E700A2205A9204600F093F803460028F2D175
S31508000E8000230093092202A9204600F089F80346A8
S31508000E900028E8D10022114620460DF0B1FC034691
S31508000EA0E1E700BF0C6C010810B504460146074887
S31508000EB010F06BFD30B12146054810F066FD18B9F3
S31508000EC0012000E0012010BD0020FCE7246C010889
S31508000ED02C6C0108014B93F900007047B1220020E1
S31508000EE0887801280CD0002835D191F906101629E2
S31508000EF022DC11F1090F27DBC9B20931C9B21CE09E
S31508000F0091F906100F2906DC11F1110F0CDBC9B295
S31508000F101131C9B200E02021012A07D00F4A52F840
S31508000F2021201A60002070470021F5E70C4A52F884
S31508000F3021201A60002070471F21012A06D0094A7D
S31508000F4052F821201A6070470146F6E7064A52F819
S31508000F5021201A6070470220704700BF346D0108CF
S31508000F60B86D0108346C0108B46C010808B50B4B60
S31508000F701B7813B10FF014F808BD00220A210320CC
S31508000F8000F0E0F90FF00CF801220A21032000F026
S31508000F90D9F9024B01221A70EEE700BF202800207B
S31508000FA070B50C4616461D46FFF7E0FF00220A21DB
S31508000FB0032000F0C7F932462146002000F036FB30
S31508000FC0BDF810202946002000F030FB01220A2136
S31508000FD0032000F0B7F92378842B04D1034B0022B1
S31508000FE01A70002070BDFFF7C1FFFAE7202800201D
S31508000FF008B500220C21032000F0A4F905200FF003
S3150800100025F801220C21032000F09CF905200FF099
S315080010101DF8024B01221A70002008BD2028002066
S3150800102008B50121502006F001F808F017FE084B14
S315080010301B6803B108BD074814F076FF044B186017
S315080010400028F7D1B82104480FF000F9F2E700BFED
S31508001050E4060020E86E01083C6E010838B504462F
S315080010600D46032803D8DFE800F00C040609002320
S3150800107009E03F2307E040F6FF7304E04FF6FF73ED
S3150800108001E047F6FF73EB4013F0010F07D001228A
S31508001090AA4004EB44042401044B1A5138BD40F21B
S315080010A0854103480FF0D2F8F1E700BF40D003505E
S315080010B0F86E010838B504460D46032803D8DFE85C
S315080010C000F00C040609002309E03F2307E040F678
S315080010D0FF7304E04FF6FF7301E047F6FF73EB403A
S315080010E013F0010F07D00122AA4004EB440424019F
S315080010F0044B1A5138BD40F2564103480FF0A6F882
S31508001100F1E700BF40E00350F86E010838B5044621
S315080011100D46032803D8DFE800F00C04060900236F
S3150800112009E03F2307E040F6FF7304E04FF6FF733C
S3150800113001E047F6FF73EB4013F0010F09D004EB0B
S31508001140440424011434064BE058E84000F001003A
S3150800115038BD40F2274103480FF078F8EFE700BFA3
S3150800116030C00350F86E010870B584B0D0B104469B
S3150800117043780E2B29D88378012B3AD0022B3BD102
S315080011800026022501213A2005F050FF33462A465B
S315080011906178207807F0F0FFA3680BB1E37873BB9A
S315080011A004B070BD042003F037FA0028F8D02C4CA0
S315080011B02C49206810F061F80FF008F80FF007F8CE
S315080011C02949206810F059F8EAE7042003F024FAC0
S315080011D00028E5D0224D2349286810F04EF80EF075
S315080011E0F5FF0EF0F4FF62782049286810F045F8FC
S315080011F0D6E701260225C5E700260125C2E762785B
S31508001200012393401A4AC2F8243423788DF808300B
S3150800121063788DF8093003930094164BE27803A996
S3150800122002A803F01BFE30B9627801239340124AE4
S31508001230C2F82434B4E7042003F0EEF90028AFD04E
S31508001240074D0849286810F018F80EF0BFFF0EF091
S31508001250BEFF62780949286810F00FF8A0E700BFBA
S31508001260100700204C6F0108546F0108686F0108C9
S3150800127000E00350F5FF000800D00350906F010806
S3150800128070B50C460E2911D80546164601213A2096
S3150800129005F0CCFE002304222146284607F06CFF01
S315080012A0C6B121462846FFF7D9FE70BD042003F0D3
S315080012B0B3F90028F9D00A4D0A4928680FF0DDFF6E
S315080012C00EF084FF0EF083FF2246074928680FF0C8
S315080012D0D4FFEAE721462846FFF7ECFEE5E700BF1C
S315080012E0100700204C6F0108B46F010810B338B519
S315080012F00446836813B143780E2B03D963780E2B03
S3150800130003D838BDFFF730FFFBE7042003F084F964
S315080013100028F6D0084D094928680FF0AEFF0EF0F0
S3150800132055FF0EF054FF0F236278054928680FF021
S31508001330A4FFE6E7704700BF100700204C6F0108BE
S31508001340E06F010838B50C460E2903D8B2B9FFF785
S31508001350B1FE38BD042003F05FF90028F9D0094D25
S31508001360094928680FF089FF0EF030FF0EF02FFFAD
S315080013702246064928680FF080FFEAE7FFF76EFE67
S31508001380E7E700BF100700204C6F01080870010846
S3150800139038B50C460E2902D8FFF7B8FE38BD04202A
S315080013A003F03AF908B90020F8E7074D0749286815
S315080013B00FF063FF0EF00AFF0EF009FF22460449FC
S315080013C028680FF05AFFEEE7100700204C6F010857
S315080013D034700108F0B593B007460E4600250F9500
S315080013E0109511950DF1140C224C0FCCACE80F009A
S315080013F00FCCACE80F0094E803008CE803000395D3
S31508001400049503238DF80E3001218DF808108DF808
S3150800141009508DF80A508DF80B502A2005F006FE63
S31508001420154C204607F090FF02214FF4B06006F0F5
S31508001430D7FB2A461149204608F02EF88DF84100B8
S315080014408DF8175000902B462A466421204608F04E
S3150800145051F807908DF809708DF8086005AA0FA94C
S31508001460204608F0A7F802AA03A9204607F020FF9D
S3150800147013B0F0BD607001080040005980969800CE
S3150800148008B5074B1B7833B1064B5B6833B1054A81
S315080014901068984702E0044B01221A7008BD00BF85
S315080014A0B3220020E8060020B222002008B5002357
S315080014B01A461946074811F031FE074B186030B135
S315080014C0064B01221A700020054B187008BD012032
S315080014D0FCE700BF81140008F0060020B3220020B4
S315080014E0B222002010B50446074B03C983E803005F
S315080014F0064B186808B114F024FC2146034B1868FB
S3150800150014F0FEFB10BD00BFE8060020F006002020
S3150800151008B5034B186808B114F013FC08BD00BFE2
S31508001520F006002008B5084B01221A70074B1B78F5
S3150800153043B1074B5B682BB1054A10689847034BC4
S3150800154000221A7008BD00BFB3220020B222002074
S31508001550E8060020014B00221A707047B3220020CB
S3150800156030B587B0124B03AD93E8070085E807004E
S315080015706C460C3393E8070084E8070001220A2129
S315080015800320FFF77DFE2846FFF7EEFD2046FFF70E
S31508001590EBFD01220C210320FFF772FE0122042134
S315080015A01046FFF76DFE0EF02DFD07B030BD00BFEB
S315080015B08870010838B510F01BF900B938BD044623
S315080015C0042003F029F80028F8D0074D07492868B1
S315080015D00FF053FE0EF0FAFD0EF0F9FD224604490F
S315080015E028680FF04AFEE9E7100700204C6F01084B
S315080015F0A070010808B50EF065FD024BA3FB00308C
S31508001600800908BDD34D621008B54FF0FF31024B73
S31508001610186814F0D3FC08BDF806002008B5024B7C
S31508001620186814F0FCFC08BDF806002038B50B4B0A
S315080016301B687BB10D461446FFF7E6FF224629468E
S31508001640064B186804F0D2FF0546FFF7E7FF1DB9F9
S31508001650204638BD0020FCE70020FAE7F406002003
S3150800166038B50B4B1B687BB10D461446FFF7CCFF0C
S3150800167022462946064B186804F09CFF0546FFF7E4
S31508001680CDFF1DB9204638BD0020FCE70020FAE74B
S31508001690F406002008B50A4B1A680A4B1A600A4B6A
S315080016A01B6803B108BD094814F03EFC064B1860D8
S315080016B00028F7D17B2106480EF0C8FDF2E700BFE7
S315080016C074250020F4060020F80600206871010839
S315080016D0BC70010810B584B00023009301930293EF
S315080016E08DF80C300F238DF809300C238DF809304E
S315080016F00E4814F0E0F80E4C6946204608F01AFE2B
S31508001700204608F0BFFD636813F0010F01D104B04D
S3150800171010BD204608F0ECFD054B5B68002BF6D0A3
S31508001720034B5B6A002BF7D1F1E700BF048701087A
S315080017300040005B08B5054808F0DAFD034B5B6816
S315080017401BB1024B5B6A002BF8D108BD0040005B59
S3150800175008B5074B0B225A7003221A7001229A7099
S31508001760DA70986059601846FFF7C0FD08BD00BFDB
S31508001770FC06002070B582B0042002F04DFF30B997
S315080017809C4B9A6818689047002425465FE09A4C57
S315080017909A4920680FF071FD0EF018FD0EF017FD3E
S315080017A0974B984A984920680FF067FDE8E7924EEC
S315080017B0924930680FF061FD0EF008FD0EF007FD46
S315080017C0904930680FF059FD52E08B4E8B493068CE
S315080017D00FF053FD0EF0FAFC0EF0F9FC8B49306859
S315080017E00FF04BFD49E0844E844930680FF045FD03
S315080017F00EF0ECFC0EF0EBFC854930680FF03DFD71
S3150800180040E07D4E7D4930680FF037FD0EF0DEFC76
S315080018100EF0DDFC7B4930680FF02FFD37E0042021
S3150800182002F0FAFE002835D1042002F0F5FE002861
S315080018303ED1042002F0F0FE002847D1042002F031
S31508001840EBFE002850D10135ADB20134A4B2012C0B
S3150800185058D801A900200DF01AF80028DFD19DF804
S315080018600530002BF1D1042002F0D6FE00289ED1C7
S31508001870042002F0D1FE0028A7D1042002F0CCFEF5
S315080018800028B0D1042002F0C7FE0028B9D10135DE
S31508001890ADB2DAE7584E594930680FF0EEFC0EF053
S315080018A095FC0EF094FC574930680FF0E6FCBBE750
S315080018B0514E524930680FF0E0FC0EF087FC0EF0EE
S315080018C086FC524930680FF0D8FCB2E74A4E4B49BD
S315080018D030680FF0D2FC0EF079FC0EF078FC4D491A
S315080018E030680FF0CAFCA9E7434E444930680FF048
S315080018F0C4FC0EF06BFC0EF06AFC424930680FF02F
S31508001900BCFCA0E7002D3AD1042002F085FE60B9A0
S31508001910042002F081FEB0B9042002F07DFE0446E0
S31508001920F8B90124204602B070BD334C334920680B
S315080019300FF0A3FC0EF04AFC0EF049FC3149206872
S315080019400FF09BFCE4E72C4C2C4920680FF095FC23
S315080019500EF03CFC0EF03BFC2F4920680FF08DFC86
S31508001960DAE7254D254928680FF087FC0EF02EFC8E
S315080019700EF02DFC234928680FF07FFCD2E70420DF
S3150800198002F04AFE48B9042002F046FE98B904203F
S3150800199002F042FEF8B90024C4E7174C174920683C
S315080019A00FF06BFC0EF012FC0EF011FC15492068C6
S315080019B00FF063FCE7E7104C104920680FF05DFC58
S315080019C00EF004FC0EF003FC02232A461349206895
S315080019D00FF053FCDBE7084C084920680FF04DFC74
S315080019E00EF0F4FB0EF0F3FB064920680FF045FCF9
S315080019F0D1E700BF20260020100700204C6F010801
S31508001A00787101083C7B0108B8710108C0710108AA
S31508001A10C8710108007201082072010828720108BD
S31508001A2038B5554CA368256828469847E36828467C
S31508001A30984760B9504B5B69012128469847044688
S31508001A4000200EF0AAFB002C4BD1012038BD042043
S31508001A5002F0E2FD68B9042002F0DEFDB8B9042000
S31508001A6002F0DAFD08BB042002F0D6FD58BB0020C0
S31508001A70ECE7424C424920680FF0FFFB0EF0A6FB4C
S31508001A800EF0A5FB3F4920680FF0F7FBE3E73B4C58
S31508001A903B4920680FF0F1FB0EF098FB0EF097FB20
S31508001AA0394920680FF0E9FBD9E7344C34492068F6
S31508001AB00FF0E3FB0EF08AFB0EF089FB3349206832
S31508001AC00FF0DBFBCFE72D4C2D4920680FF0D5FB37
S31508001AD00EF07CFB0EF07BFB2A4920680FF0CDFB4D
S31508001AE0C5E7042002F098FD68B9042002F094FDC9
S31508001AF0B8B9042002F090FD08BB042002F08CFD62
S31508001B0058BB0020A2E71D4C1D4920680FF0B5FB05
S31508001B100EF05CFB0EF05BFB1A4920680FF0ADFB7C
S31508001B20E3E7164C164920680FF0A7FB0EF04EFBAC
S31508001B300EF04DFB144920680FF09FFBD9E70F4CB8
S31508001B400F4920680FF099FB0EF040FB0EF03FFBA3
S31508001B500F4920680FF091FBCFE7084C0849206829
S31508001B600FF08BFB0EF032FB0EF031FB05492068B7
S31508001B700FF083FBC5E700BF2026002010070020D2
S31508001B804C6F01083C7B0108C071010844720108CA
S31508001B906472010838B5042002F03EFD40B9A94B2D
S31508001BA000221A70FFF73CFF044688B9204638BD64
S31508001BB0A54CA64920680FF060FB0EF007FB0EF057
S31508001BC006FBA34BA34AA44920680FF056FBE6E799
S31508001BD00021A248FFF7BCFD0EF0E0FA00200EF047
S31508001BE0DCFA9F48D0F808319E49984700283CD12E
S31508001BF09B4B1A6E1C68CC212046904700287ED144
S31508001C00974B5B6A4FF4FA7120469847002840F0D4
S31508001C10C0804FF47A700EF019FA8A4B1B7803F0DD
S31508001C20FF04002B00F03681042002F0F5FC0028A2
S31508001C3040F0F980042002F0EFFC002840F01C81F7
S31508001C40042002F0E9FC05460028AFD07E4C7F4907
S31508001C5020680FF012FB0EF0B9FA0EF0B8FA7D49BB
S31508001C6020680FF00AFB2C46A0E7042002F0D4FCFB
S31508001C7068B9042002F0D0FCB8B9042002F0CCFC04
S31508001C8008BB042002F0C8FC58BB00248EE76E4C43
S31508001C906E4920680FF0F1FA0EF098FA0EF097FAEE
S31508001CA06C4920680FF0E9FAE3E7674C6749206852
S31508001CB00FF0E3FA0EF08AFA0EF089FA6A492068FC
S31508001CC00FF0DBFAD9E7604C604920680FF0D5FAC7
S31508001CD00EF07CFA0EF07BFA644920680FF0CDFA14
S31508001CE0CFE7594C594920680FF0C7FA0EF06EFA3B
S31508001CF00EF06DFA574920680FF0BFFAC5E70420C1
S31508001D0002F08AFC68B9042002F086FCB8B90420FF
S31508001D1002F082FC08BB042002F07EFC58BB0024BB
S31508001D2044E7494C494920680FF0A7FA0EF04EFAE5
S31508001D300EF04DFA474920680FF09FFAE3E7424C48
S31508001D40424920680FF099FA0EF040FA0EF03FFA71
S31508001D50454920680FF091FAD9E73B4C3B49206882
S31508001D600FF08BFA0EF032FA0EF031FA404920687D
S31508001D700FF083FACFE7344C344920680FF07DFA28
S31508001D800EF024FA0EF023FA324920680FF075FA9D
S31508001D90C5E7042002F040FC68B9042002F03CFCC8
S31508001DA0B8B9042002F038FC08BB042002F034FC61
S31508001DB058BB0024FAE6244C244920680FF05DFA43
S31508001DC00EF004FA0EF003FA224920680FF055FACD
S31508001DD0E3E71D4C1D4920680FF04FFA0EF0F6F99F
S31508001DE00EF0F5F9204920680FF047FAD9E7164CA6
S31508001DF0164920680FF041FA0EF0E8F90EF0E7F9F7
S31508001E001C4920680FF039FACFE70F4C0F492068B4
S31508001E100FF033FA0EF0DAF90EF0D9F90D49206809
S31508001E200FF02BFAC5E7084D084928680FF025FA80
S31508001E300EF0CCF90EF0CBF9064928680FF01DFA1A
S31508001E40F8E600BFB6220020100700204C6F0108F4
S31508001E50887201083C7B0108B8710108D52400087E
S31508001E602026002048270020C0710108CC720108EE
S31508001E70F4720108207301082B4D2C4928680FF0CD
S31508001E80FCF90EF0A3F90EF0A2F9294928680FF01B
S31508001E90F4F9D5E6042002F0BFFBD8B9042002F015
S31508001EA0BBFB28BB042002F0B7FB78BB042002F07A
S31508001EB0B3FB00283FF47AAE1B4D1C4928680FF087
S31508001EC0DCF90EF083F90EF082F91A4928680FF04A
S31508001ED0D4F96BE6144D154928680FF0CEF90EF0C3
S31508001EE075F90EF074F9134928680FF0C6F9D5E7A5
S31508001EF00D4D0E4928680FF0C0F90EF067F90EF07F
S31508001F0066F90D4928680FF0B8F9CBE7064D074979
S31508001F1028680FF0B2F90EF059F90EF058F907498A
S31508001F2028680FF0AAF9C1E7100700204C6F0108CE
S31508001F30207201083C7B0108C07101084073010842
S31508001F4070B582B0042002F067FB90B90023AB4A53
S31508001F501370AB4A1370AB4B3E229A740C221A705C
S31508001F6007225A70FFF75CFD98B90125284602B08A
S31508001F7070BDA54CA54920680FF07FF90EF026F92B
S31508001F800EF025F9A24BA34AA34920680FF075F96C
S31508001F90DCE70021A148FFF7DBFB0EF0FFF8002085
S31508001FA00EF0FBF89E48D0F8083196499847002865
S31508001FB046D19B4B1A6E1D68CC21284690470028AF
S31508001FC040F088800EF0C7F8441D0EF0C4F8A04211
S31508001FD0FBD3934B5B6A00212846984705460028A1
S31508001FE040F0C280854A1278002AFBD0844B1B78C1
S31508001FF0002B00F021818B4B1B681C1BA4F2EF738E
S31508002000B3F1FF3F02DB012B40F34E81042002F0BF
S3150800201003FB002840F09881042002F0FDFA00280E
S3150800202040F0A081042002F0F7FA002840F0A881C9
S31508002030042002F0F1FA002840F0B581012595E761
S31508002040042002F0E9FA68B9042002F0E5FAB8B902
S31508002050042002F0E1FA08BB042002F0DDFA58BBBE
S31508002060012583E7684C694920680FF006F90EF0E8
S31508002070ADF80EF0ACF8674920680FF0FEF8E3E714
S31508002080614C624920680FF0F8F80EF09FF80EF0E0
S315080020909EF8654920680FF0F0F8D9E75A4C5B4975
S315080020A020680FF0EAF80EF091F80EF090F85F4904
S315080020B020680FF0E2F8CFE7534C544920680FF038
S315080020C0DCF80EF083F80EF082F8524920680FF01B
S315080020D0D4F8C5E7042002F09FFA68B9042002F094
S315080020E09BFAB8B9042002F097FA08BB042002F05C
S315080020F093FA58BB012539E7434C444920680FF049
S31508002100BCF80EF063F80EF062F8424920680FF04A
S31508002110B4F8E3E73C4C3D4920680FF0AEF80EF002
S3150800212055F80EF054F8404920680FF0A6F8D9E79C
S31508002130354C364920680FF0A0F80EF047F80EF037
S3150800214046F83B4920680FF098F8CFE72E4C2F4900
S3150800215020680FF092F80EF039F80EF038F82D498D
S3150800216020680FF08AF8C5E7042002F055FA68B926
S31508002170042002F051FAB8B9042002F04DFA08BB5F
S31508002180042002F049FA58BB0125EFE61E4C1F4908
S3150800219020680FF072F80EF019F80EF018F81D49BD
S315080021A020680FF06AF8E3E7174C184920680FF023
S315080021B064F80EF00BF80EF00AF81B4920680FF0C9
S315080021C05CF8D9E7104C114920680FF056F80DF065
S315080021D0FDFF0DF0FCFF174920680FF04EF8CFE71A
S315080021E0094C0A4920680FF048F80DF0EFFF0DF08A
S315080021F0EEFF084920680FF040F8C5E7B622002030
S31508002200B522002048270020100700204C6F01083F
S31508002210647301083C7B0108B8710108D5240008DD
S31508002220202600200C070020C071010884730108CD
S31508002230A8730108D4730108042002F0EDF948B91F
S31508002240042002F0E9F998B9042002F0E5F9E8B9A2
S3150800225002258BE65B4C5C4920680FF00EF80DF002
S31508002260B5FF0DF0B4FF594920680FF006F8E7E707
S31508002270544C554920680FF000F80DF0A7FF0DF0F3
S31508002280A6FF534920680EF0F8FFDDE74D4C4E498E
S3150800229020680EF0F2FF0DF099FF0DF098FF4B49FC
S315080022A020680EF0EAFFD3E7042002F0B5F908BB70
S315080022B0042002F0B1F958BB042002F0ADF9002859
S315080022C034D1042002F0A8F900283FF44FAE3D4E61
S315080022D03D4930680EF0D1FF0DF078FF0DF077FF1D
S315080022E001230093234640F2EF723A4930680EF014
S315080022F0C4FF3BE6334E344930680EF0BEFF0DF09E
S3150800230065FF0DF064FF314930680EF0B6FFCFE780
S315080023102C4E2D4930680EF0B0FF0DF057FF0DF02A
S3150800232056FF2D4930680EF0A8FFC5E7254E264909
S3150800233030680EF0A2FF0DF049FF0DF048FF234963
S3150800234030680EF09AFFBCE71E4D1F4928680EF04C
S3150800235094FF0DF03BFF0DF03AFF1C4928680EF07C
S315080023608CFF59E6174D184928680EF086FF0DF0C0
S315080023702DFF0DF02CFF194928680EF07EFF51E657
S31508002380104D114928680EF078FF0DF01FFF0DF06B
S315080023901EFF01230093234640F2EF721049286876
S315080023A00EF06BFF44E6074C074920680EF065FF00
S315080023B00DF00CFF0DF00BFF044920680EF05DFFD1
S315080023C03CE600BF100700204C6F01083C7B010863
S315080023D0F47301083C74010820720108C0710108F1
S315080023E07074010808B50DF0B6FE034B1860034B70
S315080023F001221A7008BD00BF0C070020B422002075
S3150800240010B50DF0A8FE2B4B18602B4B01221A7045
S315080024102A4B9A6D41F6FE711868904700B910BDAF
S31508002420042002F0F9F8D0B9042002F0F5F820BB30
S31508002430042002F0F1F870BB042002F0EDF8002841
S31508002440EDD01F4C1F4920680EF017FF0DF0BEFE99
S315080024500DF0BDFE1C4920680EF00FFFDFE7184C93
S31508002460184920680EF009FF0DF0B0FE0DF0AFFE1A
S31508002470154920680EF001FFD6E7114C114920686E
S315080024800EF0FBFE0DF0A2FE0DF0A1FE0F4920682E
S315080024900EF0F3FECCE70A4C0A4920680EF0EDFE72
S315080024A00DF094FE0DF093FE094920680EF0E5FE46
S315080024B0C2E700BF0C070020B62200202026002015
S315080024C0100700204C6F01083C7B0108C071010809
S315080024D0C874010830B583B00023ADF806300DF096
S315080024E03AFE594B1860594B01221A70584B5A6DCF
S315080024F01C680DF106012046904798B9BDF80630CC
S3150800250013F0080F02D0534B01221A70504B9B6DE3
S3150800251041F6FE712046984700284CD10DF03FFE43
S3150800252003B030BD042002F077F8D0B9042002F0D9
S3150800253073F820BB042002F06FF870BB042002F089
S315080025406BF80028DAD0444D444928680EF095FE09
S315080025500DF03CFE0DF03BFE414928680EF08DFE5D
S31508002560CCE73D4D3D4928680EF087FE0DF02EFE5E
S315080025700DF02DFE3A4928680EF07FFED6E7364D57
S31508002580364928680EF079FE0DF020FE0DF01FFE84
S31508002590344928680EF071FECCE72F4D2F4928687C
S315080025A00EF06BFE0DF012FE0DF011FE2E49286896
S315080025B00EF063FEC2E7042002F02EF8D0B904201C
S315080025C002F02AF820BB042002F026F870BB04208B
S315080025D002F022F80028A1D01F4C204920680EF0EE
S315080025E04CFE0DF0F3FD0DF0F2FD1D4920680EF0CE
S315080025F044FE93E7184C194920680EF03EFE0DF08C
S31508002600E5FD0DF0E4FD164920680EF036FED6E726
S31508002610114C124920680EF030FE0DF0D7FD0DF072
S31508002620D6FD104920680EF028FECCE70A4C0B4967
S3150800263020680EF022FE0DF0C9FD0DF0C8FD0B490D
S3150800264020680EF01AFEC2E70C070020B62200200A
S3150800265020260020B5220020100700204C6F010814
S315080026603C7B0108C0710108F4740108C8740108AC
S315080026702DE9F041042001F0CFFF48B9AE4B002206
S315080026801A70FFF7CDF9074690B93846BDE8F081CC
S31508002690AA4CAB4920680EF0F0FD0DF097FD0DF041
S315080026A096FDA84BA84AA94920680EF0E6FDE5E77D
S315080026B00021A748FFF74CF80024A046C7E00420ED
S315080026C001F0AAFF68B9042001F0A6FFB8B90420F2
S315080026D001F0A2FF08BB042001F09EFF58BB0027AB
S315080026E0D3E7964C964920680EF0C7FD0DF06EFDAF
S315080026F00DF06DFD944920680EF0BFFDE3E78F4CA1
S315080027008F4920680EF0B9FD0DF060FD0DF05FFDF4
S31508002710904920680EF0B1FDD9E7884C88492068B1
S315080027200EF0ABFD0DF052FD0DF051FD8A49206803
S315080027300EF0A3FDCFE7814C814920680EF09DFD80
S315080027400DF044FD0DF043FD7F4920680EF095FD20
S31508002750C5E7042001F060FF68B9042001F05CFFBA
S31508002760B8B9042001F058FF08BB042001F054FF53
S3150800277058BB002789E7714C714920680EF07DFD2A
S315080027800DF024FD0DF023FD6F4920680EF075FD50
S31508002790E3E76A4C6A4920680EF06FFD0DF016FDF6
S315080027A00DF015FD6B4920680EF067FDD9E7634CFF
S315080027B0634920680EF061FD0DF008FD0DF007FD78
S315080027C0664920680EF059FDCFE75C4C5C492068E5
S315080027D00EF053FD0DF0FAFC0DF0F9FC5A4920688D
S315080027E00EF04BFDC5E7554E554930680EF045FDD0
S315080027F00DF0ECFC0DF0EBFC534930680EF03DFD96
S315080028004CE04E4E4E4930680EF037FD0DF0DEFCBA
S315080028100DF0DDFC4F4930680EF02FFD43E0474EC2
S31508002820474930680EF029FD0DF0D0FC0DF0CFFCBD
S3150800283008232A464A4930680EF01FFD38E008F199
S3150800284001081FFA88F80DF0AAFC0134A4B2012C7D
S3150800285041D80026384B1E700DF07DFC05460DF05C
S315080028609DFC30460DF099FC3E48D0F808313E49AB
S31508002870984700287FF423AF3A4B1A6ECC21186884
S31508002880904700287FF465AF0DF065FC451B072DC2
S31508002890D9D9042001F0C0FE0028A4D1042001F0F3
S315080028A0BBFE0028ADD1042001F0B6FE0028B6D143
S315080028B0042001F0B1FE0028C1D0204D2049286827
S315080028C00EF0DBFC0DF082FC0DF081FC1E49286839
S315080028D00EF0D3FCB3E7B8F1000F55D1042001F090
S315080028E09BFED0B9042001F097FE00283ED10420B3
S315080028F001F092FE044600283FF4C7AE0F4D10497A
S3150800290028680EF0BAFC0DF061FC0DF060FC0E496B
S3150800291028680EF0B2FC2746B7E6084C0849206836
S315080029200EF0ABFC0DF052FC0DF051FC0649206888
S315080029300EF0A3FCD6E700BFB62200201007002041
S315080029404C6F01081C7501083C7B0108B871010829
S31508002950D5240008C0710108CC720108F472010878
S31508002960687501082026002048270020244C2549A0
S3150800297020680EF082FC0DF029FC0DF028FC224997
S3150800298020680EF07AFCB2E7042001F045FEC8B9CB
S31508002990042001F041FE18BB042001F03DFE044668
S315080029A000283FF472AE164D164928680EF065FCED
S315080029B00DF00CFC0DF00BFC144928680EF05DFCBC
S315080029C0274662E60E4C0F4920680EF056FC0DF0BD
S315080029D0FDFB0DF0FCFB0D4920680EF04EFCD7E719
S315080029E0074C084920680EF048FC0DF0EFFB0DF087
S315080029F0EEFB02234246064920680EF03EFCCBE772
S31508002A00100700204C6F0108207201083C7B010862
S31508002A10A87501082DE9F0418EB0042001F0FCFDEF
S31508002A2080B9002401942E22214602A80EF095FFB3
S31508002A30944B1C70FEF7F4FF074698B938460EB05B
S31508002A40BDE8F081904C914920680EF016FC0DF017
S31508002A50BDFB0DF0BCFB8E4B8E4A8F4920680EF0ED
S31508002A600CFCDEE721468D48FEF772FEA04629E1FA
S31508002A70042001F0D1FD68B9042001F0CDFDB8B9F4
S31508002A80042001F0C9FD08BB042001F0C5FD58BBB0
S31508002A900027D3E77C4C7D4920680EF0EEFB0DF04D
S31508002AA095FB0DF094FB7B4920680EF0E6FBE3E707
S31508002AB0754C764920680EF0E0FB0DF087FB0DF0AB
S31508002AC086FB774920680EF0D8FBD9E76E4C6F492C
S31508002AD020680EF0D2FB0DF079FB0DF078FB7149FA
S31508002AE020680EF0CAFBCFE7674C684920680EF0ED
S31508002AF0C4FB0DF06BFB0DF06AFB664920680EF00F
S31508002B00BCFBC5E7042001F087FD68B9042001F085
S31508002B1083FDB8B9042001F07FFD08BB042001F04D
S31508002B207BFD58BB002789E7574C584920680EF0AB
S31508002B30A4FB0DF04BFB0DF04AFB564920680EF03E
S31508002B409CFBE3E7504C514920680EF096FB0DF0CC
S31508002B503DFB0DF03CFB524920680EF08EFBD9E791
S31508002B60494C4A4920680EF088FB0DF02FFB0DF002
S31508002B702EFB4D4920680EF080FBCFE7424C4349B7
S31508002B8020680EF07AFB0DF021FB0DF020FB414981
S31508002B9020680EF072FBC5E7042001F03DFD68B918
S31508002BA0042001F039FDB8B9042001F035FD08BB51
S31508002BB0042001F031FD58BB00273FE7324C33496A
S31508002BC020680EF05AFB0DF001FB0DF000FB3149B1
S31508002BD020680EF052FBE3E72B4C2C4920680EF0D8
S31508002BE04CFB0DF0F3FA0DF0F2FA2D4920680EF0C1
S31508002BF044FBD9E7244C254920680EF03EFB0DF02E
S31508002C00E5FA0DF0E4FA294920680EF036FBCFE71D
S31508002C101D4C1E4920680EF030FB0DF0D7FA0DF05A
S31508002C20D6FA1C4920680EF028FBC5E7164E174948
S31508002C3030680EF022FB0DF0C9FA0DF0C8FA1549F6
S31508002C4030680EF01AFB6EE00F4E104930680EF031
S31508002C5014FB0DF0BBFA0DF0BAFA114930680EF004
S31508002C600CFB65E0084E094930680EF006FB0DF0CE
S31508002C70ADFA0DF0ACFA08232A460D4930680EF075
S31508002C80FCFA5AE0B6220020100700204C6F010813
S31508002C90C47501083C7B0108B871010801240008C5
S31508002CA0C0710108CC720108F47201081076010897
S31508002CB03C76010808F101081FFA88F80DF06FFA4A
S31508002CC00134A4B2012C4BD8624B00221A700DF0C5
S31508002CD042FA05460DF062FA01200DF05EFA5E48EA
S31508002CE0D0F808315D49984700287FF4C1AE5A4BA1
S31508002CF01A6E1E6802213046904700287FF402AFFC
S31508002D00554BDB6C322201A93046984700287FF4E0
S31508002D1043AF0DF020FA451B072DCFD9042001F04B
S31508002D207BFC002882D1042001F076FC00288BD198
S31508002D30042001F071FC002894D1042001F06CFCF9
S31508002D400028B7D0464D474928680EF096FA0DF088
S31508002D503DFA0DF03CFA444928680EF08EFAA9E7C8
S31508002D60B8F1000F39D1042001F056FCC8B9042087
S31508002D7001F052FC18BB042001F04EFC0446002862
S31508002D803FF45CAE364D374928680EF076FA0DF0FA
S31508002D901DFA0DF01CFA344928680EF06EFA27461B
S31508002DA04CE62F4C2F4920680EF067FA0DF00EFA04
S31508002DB00DF00DFA2C4920680EF05FFAD7E7284C7B
S31508002DC0284920680EF059FA0DF000FA0DF0FFF9BF
S31508002DD0264920680EF051FACDE7042001F01CFCC4
S31508002DE0C8B9042001F018FC18BB042001F014FC33
S31508002DF0044600283FF422AE194D1A4928680EF0F9
S31508002E003CFA0DF0E3F90DF0E2F9174928680EF0DF
S31508002E1034FA274612E6124C124920680EF02DFAAB
S31508002E200DF0D4F90DF0D3F90F4920680EF025FA04
S31508002E30D7E70B4C0B4920680EF01FFA0DF0C6F9C0
S31508002E400DF0C5F902234246094920680EF015FA25
S31508002E50CBE700BFB622002020260020342700201A
S31508002E60100700204C6F01083C7B010820720108FE
S31508002E70A875010870B5042001F0CEFB60B90023DF
S31508002E80AA4A1370AA4A1370AA4A9374FEF7C8FD91
S31508002E9090B90124204670BDA74CA84920680EF0B9
S31508002EA0ECF90DF093F90DF092F9A54BA54AA64950
S31508002EB020680EF0E2F9E2E70021A448FEF748FC94
S31508002EC00DF06CF900200DF068F9A148D0F808312A
S31508002ED09849984700284AD19D4B1A6E1C68CC2100
S31508002EE020469047002840F08C80994B5B6A41F257
S31508002EF08831204698470446002840F0CC800DF0DB
S31508002F0026F98A4A1278002AFBD0894B1B78002BAF
S31508002F1000F02C818F4B1D682D1A052D40F08881F5
S31508002F20042001F079FB002840F05881042001F0C4
S31508002F3073FB002840F06081042001F06DFB002837
S31508002F4040F06881042001F067FB0028A2D07A4E81
S31508002F507A4930680EF091F90DF038F90DF037F925
S31508002F602B4605227C4930680EF087F992E7042043
S31508002F7001F052FB68B9042001F04EFBB8B90420F1
S31508002F8001F04AFB08BB042001F046FB58BB0124AC
S31508002F9080E7694C694920680EF06FF90DF016F95B
S31508002FA00DF015F9674920680EF067F9E3E7624CFA
S31508002FB0624920680EF061F90DF008F90DF007F97D
S31508002FC0664920680EF059F9D9E75B4C5B492068D9
S31508002FD00EF053F90DF0FAF80DF0F9F8604920688B
S31508002FE00EF04BF9CFE7544C544920680EF045F9DA
S31508002FF00DF0ECF80DF0EBF8524920680EF03DF9AB
S31508003000C5E7042001F008FB68B9042001F004FBB9
S31508003010B8B9042001F000FB08BB042001F0FCFA53
S3150800302058BB012436E7444C444920680EF025F97C
S315080030300DF0CCF80DF0CBF8424920680EF01DF9DA
S31508003040E3E73D4C3D4920680EF017F90DF0BEF850
S315080030500DF0BDF8414920680EF00FF9D9E7364C56
S31508003060364920680EF009F90DF0B0F80DF0AFF802
S315080030703C4920680EF001F9CFE72F4C2F4920680C
S315080030800EF0FBF80DF0A2F80DF0A1F82D49206816
S315080030900EF0F3F8C5E7042001F0BEFA68B904207B
S315080030A001F0BAFAB8B9042001F0B6FA08BB042050
S315080030B001F0B2FA58BB0124ECE61F4C1F49206800
S315080030C00EF0DBF80DF082F80DF081F81D49206846
S315080030D00EF0D3F8E3E7184C184920680EF0CDF83F
S315080030E00DF074F80DF073F81C4920680EF0C5F859
S315080030F0D9E7114C114920680EF0BFF80DF066F8B3
S315080031000DF065F8184920680EF0B7F8CFE70A4CB5
S315080031100A4920680EF0B1F80DF058F80DF057F886
S31508003120084920680EF0A9F8C5E700BFB6220020B6
S31508003130B522002048270020100700204C6F010800
S315080031407C7601083C7B0108B87101084933000800
S31508003150202600200807002094760108C07101087F
S3150800316084730108A8730108D4730108042001F0C8
S3150800317053FA48B9042001F04FFA98B9042001F02F
S315080031804BFAE8B9022485E64F4C504920680EF000
S3150800319074F80DF01BF80DF01AF84D4920680EF07A
S315080031A06CF8E7E7484C494920680EF066F80DF0D8
S315080031B00DF80DF00CF8474920680EF05EF8DDE7CB
S315080031C0414C424920680EF058F80CF0FFFF0CF00D
S315080031D0FEFF3F4920680EF050F8D3E73A4E3B49C8
S315080031E030680EF04AF80CF0F1FF0CF0F0FF3849A1
S315080031F030680EF042F899E6334E344930680EF0DE
S315080032003CF80CF0E3FF0CF0E2FF334930680EF0AF
S3150800321034F891E62C4E2D4930680EF02EF80CF055
S31508003220D5FF0CF0D4FF2A4930680EF026F889E657
S31508003230042001F0F1F968B9042001F0EDF9B8B9F4
S31508003240042001F0E9F908BB042001F0E5F968BBA0
S3150800325001241FE61C4C1D4920680EF00EF80CF0E0
S31508003260B5FF0CF0B4FF1A4920680EF006F8E3E73C
S31508003270154C164920680EF000F80CF0A7FF0CF064
S31508003280A6FF164920680DF0F8FFD9E70E4C0F493E
S3150800329020680DF0F2FF0CF099FF0CF098FF2B4612
S315080032A005220F4920680DF0E8FFCDE7064C0749CF
S315080032B020680DF0E2FF0CF089FF0CF088FF044946
S315080032C020680DF0DAFFC3E7100700204C6F0108ED
S315080032D03C7B0108F473010820720108C0710108DB
S315080032E0C076010810B5042001F096F968B9FFF711
S315080032F0C1FD012819D00228F9D0FEF721FE0128C0
S3150800330015D00228F9D0012010E00A4C0A49206895
S315080033100DF0B3FF0CF05AFF0CF059FF074B084AA3
S31508003320084920680DF0A9FFE1E7002010BD00203C
S31508003330FCE700BF100700204C6F0108FC76010867
S315080033403C7B0108B871010830B583B00023ADF89D
S3150800335006300CF0FCFE594B1860594B01221A70C6
S31508003360584B5A6D1C680DF106012046904798B9CE
S31508003370BDF8063013F0080F02D0534B01221A701D
S31508003380504B9B6D41F6FE712046984700284CD15C
S315080033900CF005FF03B030BD042001F03DF9D0B9AB
S315080033A0042001F039F920BB042001F035F970BB7F
S315080033B0042001F031F90028DAD0444D4449286840
S315080033C00DF05BFF0CF002FF0CF001FF4149286885
S315080033D00DF053FFCCE73D4D3D4928680DF04DFFF4
S315080033E00CF0F4FE0CF0F3FE3A4928680DF045FFA0
S315080033F0D6E7364D364928680DF03FFF0CF0E6FE55
S315080034000CF0E5FE344928680DF037FFCCE72F4D60
S315080034102F4928680DF031FF0CF0D8FE0CF0D7FEC6
S315080034202E4928680DF029FFC2E7042001F0F4F8B8
S31508003430D0B9042001F0F0F820BB042001F0ECF824
S3150800344070BB042001F0E8F80028A1D01F4C2049E1
S3150800345020680DF012FF0CF0B9FE0CF0B8FE1D49FD
S3150800346020680DF00AFF93E7184C194920680DF0FB
S3150800347004FF0CF0ABFE0CF0AAFE164920680DF00E
S31508003480FCFED6E7114C124920680DF0F6FE0CF04A
S315080034909DFE0CF09CFE104920680DF0EEFECCE770
S315080034A00A4C0B4920680DF0E8FE0CF08FFE0CF074
S315080034B08EFE0B4920680DF0E0FEC2E708070020E3
S315080034C0B622002020260020B52200201007002062
S315080034D04C6F01083C7B0108C07101084077010860
S315080034E0C874010870B582B0042001F095F8002868
S315080034F048D1984B00221A700CF03BFE0CF02BFEBC
S31508003500441D0CF028FEA042FBD30022924940F647
S31508003510B8300CF024FE8F4B1B7833B90CF01BFE29
S31508003520001B41F287339842F5D98A4B1B7803F082
S31508003530FF05002B36D0894B1B681C1B40F6B7339A
S315080035409C4203D940F6BA339C4274D9042001F050
S3150800355063F8002840F0C080042001F05DF80028D8
S3150800356040F0C880042001F057F8002840F0D080C9
S31508003570042001F051F8002840F0DD800025284697
S3150800358002B070BD764C774920680DF076FE0CF0D7
S315080035901DFE0CF01CFE744B744A754920680DF02C
S315080035A06CFEA6E7042001F037F8D0B9042001F034
S315080035B033F820BB042001F02FF870BB042001F07B
S315080035C02BF80028DBD0664C664920680DF055FEBE
S315080035D00CF0FCFD0CF0FBFD644920680DF04DFE77
S315080035E0CDE75F4C5F4920680DF047FE0CF0EEFD15
S315080035F00CF0EDFD5D4920680DF03FFED6E7584C0E
S31508003600584920680DF039FE0CF0E0FD0CF0DFFD9E
S31508003610584920680DF031FECCE7514C51492068D5
S315080036200DF02BFE0CF0D2FD0CF0D1FD52492068AE
S315080036300DF023FEC2E7042000F0EEFF10BB0420C5
S3150800364000F0EAFF60BB042000F0E6FF002835D151
S31508003650042000F0E1FF0646002890D0404D41497D
S3150800366028680DF00AFE0CF0B1FD0CF0B0FD02233F
S315080036700093234640F6B832404928680DF0FDFD10
S3150800368035467CE7364E374930680DF0F6FD0CF0C6
S315080036909DFD0CF09CFD354930680DF0EEFDCEE73A
S315080036A02F4E304930680DF0E8FD0CF08FFD0CF018
S315080036B08EFD334930680DF0E0FDC4E7284E2949F0
S315080036C030680DF0DAFD0CF081FD0CF080FD27491D
S315080036D030680DF0D2FDBBE7214D224928680DF070
S315080036E0CCFD0CF073FD0CF072FD204928680DF036
S315080036F0C4FD31E71A4D1B4928680DF0BEFD0CF0D4
S3150800370065FD0CF064FD1B4928680DF0B6FD29E738
S31508003710134D144928680DF0B0FD0CF057FD0CF058
S3150800372056FD02230093234640F6B8321549286809
S315080037300DF0A3FD1CE70A4C0A4920680DF09DFD13
S315080037400CF044FD0CF043FD084920680DF095FD8A
S3150800375014E700BFB4220020E52300080C07002068
S31508003760100700204C6F0108687701083C7B0108A8
S31508003770B8710108C0710108AC770108D077010853
S31508003780207201081078010838B5042000F044FFBB
S3150800379080BB0022594B1A7059494FF47A700CF0C5
S315080037A0DEFC0CF0D8FC04460CF0D5FC001BB0F58A
S315080037B0FA7FF9D30CF0DDFC0CF0CDFC04460CF0D6
S315080037C0CAFC001B40F2DB539842F8D94B4B1B78D6
S315080037D0002B49D1042000F01FFFD8B9042000F0BF
S315080037E01BFF28BB042000F017FF044670BB01240A
S315080037F0204638BD434C444920680DF03EFD0CF088
S31508003800E5FC0CF0E4FC414B414A424920680DF0C6
S3150800381034FDBEE73B4C3C4920680DF02EFD0CF00C
S31508003820D5FC0CF0D4FC3A4920680DF026FDD5E706
S31508003830344C354920680DF020FD0CF0C7FC0CF01F
S31508003840C6FC354920680DF018FDCBE72D4D2E49ED
S3150800385028680DF012FD0CF0B9FC0CF0B8FC2C49E8
S3150800386028680DF00AFDC3E7042000F0D5FE68B904
S31508003870042000F0D1FEB8B9042000F0CDFE08BB44
S31508003880042000F0C9FE58BB0024B1E71D4C1E49B0
S3150800389020680DF0F2FC0CF099FC0CF098FC1C4921
S315080038A020680DF0EAFCE3E7164C174920680DF08E
S315080038B0E4FC0CF08BFC0CF08AFC184920680DF02F
S315080038C0DCFCD9E70F4C104920680DF0D6FC0CF04B
S315080038D07DFC0CF07CFC124920680DF0CEFCCFE78D
S315080038E0084C094920680DF0C8FC0CF06FFC0CF078
S315080038F06EFC074920680DF0C0FCC5E7B42200201D
S31508003900E5230008100700204C6F010860780108BD
S315080039103C7B0108B871010820720108C0710108D2
S31508003920A878010838B5042000F076FE00283ED1B4
S3150800393000247F4B1C700CF020FC22467D4940F683
S31508003940B8300CF00CFC0CF006FC04460CF003FC3A
S31508003950001BB0F57A6FF9D3754B1B78002B36D15F
S315080039600CF011FC724B1B7803F0FF04002B00F0DF
S315080039709580042000F050FE002873D1042000F042
S315080039804BFE00287CD1042000F046FE054678B39D
S31508003990694C6A4920680DF070FC0CF017FC0CF0B5
S315080039A016FC674920680DF068FC2C4620E0624C3E
S315080039B0624920680DF061FC0CF008FC0CF007FC6D
S315080039C0604B5F4A604920680DF057FCB0E7042059
S315080039D000F022FE70B9042000F01EFEC0B90420D3
S315080039E000F01AFE10BB042000F016FE60BB00248F
S315080039F0204638BD504C514920680DF03EFC0CF06D
S31508003A00E5FB0CF0E4FB4E4920680DF036FCE2E7D6
S31508003A10494C4A4920680DF030FC0CF0D7FB0CF0F5
S31508003A20D6FB4A4920680DF028FCD8E7424C4349A2
S31508003A3020680DF022FC0CF0C9FB0CF0C8FB4449C9
S31508003A4020680DF01AFCCEE73B4C3C4920680DF087
S31508003A5014FC0CF0BBFB0CF0BAFB394920680DF0DE
S31508003A600CFCC4E7344D354928680DF006FC0CF00B
S31508003A70ADFB0CF0ACFB324928680DF0FEFB7DE788
S31508003A802D4D2E4928680DF0F8FB0CF09FFB0CF025
S31508003A909EFB304928680DF0F0FB74E7042000F01F
S31508003AA0BBFDD0B9042000F0B7FD20BB042000F010
S31508003AB0B3FD70BB042000F0AFFD002898D01E4D62
S31508003AC01E4928680DF0D9FB0CF080FB0CF07FFB33
S31508003AD01B4928680DF0D1FB8AE7174D1749286856
S31508003AE00DF0CBFB0CF072FB0CF071FB1449286847
S31508003AF00DF0C3FBD6E7104D104928680DF0BDFB45
S31508003B000CF064FB0CF063FB104928680DF0B5FB5C
S31508003B10CCE7094D094928680DF0AFFB0CF056FBB8
S31508003B200CF055FB0C4928680DF0A7FBC2E700BF4F
S31508003B30B4220020E5230008100700204C6F010876
S31508003B403C7B0108D4780108B8710108C0710108E6
S31508003B5024790108207201084C790108F0B58DB066
S31508003B60042000F059FD002860D1042000F054FD1F
S31508003B7000286BD14FF0FF3100200CF00AFB0446F9
S31508003B804FF0FF3100200CF004FB064614B108B1D3
S31508003B90A0426BD1042000F03FFD002840F0B3801E
S31508003BA0042000F039FD002840F0BB80042000F016
S31508003BB033FD0546002840F0C480042000F02CFDA3
S31508003BC0002840F0CD802A2101200CF0E2FA0446B4
S31508003BD02A2101200CF0DDFA06463CB12A2C05D82C
S31508003BE020B12A2802D8A04240F0CA80042000F05A
S31508003BF013FD002840F01581042000F00DFD002873
S31508003C0040F01D81042000F007FD0546002840F01D
S31508003C102A81042000F000FD002840F03381282284
S31508003C20002102A80DF099FE002449E1AE4CAF49E7
S31508003C3020680DF022FB0CF0C9FA0CF0C8FAAC4B60
S31508003C40AC4AAD4920680DF018FB8EE7A64CA7498B
S31508003C5020680DF012FB0CF0B9FA0CF0B8FAA74B75
S31508003C60A44AA54920680DF008FB83E7042000F064
S31508003C70D3FC70B9042000F0CFFCC0B9042000F0D2
S31508003C80CBFC10BB042000F0C7FC054658BB012539
S31508003C9093E7954D954928680DF0EFFA0CF096FADA
S31508003CA00CF095FA934928680DF0E7FAE2E78E4D8D
S31508003CB08E4928680DF0E1FA0CF088FA0CF087FABC
S31508003CC08F4928680DF0D9FAD8E7874D87492868BB
S31508003CD00DF0D3FA0CF07AFA0CF079FA85492868CF
S31508003CE00DF0CBFACEE7804F804938680DF0C5FA5B
S31508003CF00CF06CFA0CF06BFA3346224681493868A8
S31508003D000DF0BBFA59E7784D784928680DF0B5FAF1
S31508003D100CF05CFA0CF05BFA764928680DF0ADFAFF
S31508003D203EE7714D714928680DF0A7FA0CF04EFA76
S31508003D300CF04DFA33462246734928680DF09DFA71
S31508003D4034E7694C694920680DF097FA0CF03EFA99
S31508003D500CF03DFA674920680DF08FFA00252CE72C
S31508003D60614C624920680DF088FA0CF02FFA0CF0C5
S31508003D702EFA664B5F4A604920680DF07EFA22E704
S31508003D80042000F049FC10BB042000F045FC60BB91
S31508003D90042000F041FC002835D1042000F03CFC4A
S31508003DA000283FF436AF504F504938680DF065FA91
S31508003DB00CF00CFA0CF00BFA2A230193012300935A
S31508003DC033462246524938680DF057FA21E7464FDE
S31508003DD0464938680DF051FA0CF0F8F90CF0F7F985
S31508003DE0444938680DF049FACEE73F4F3F493868ED
S31508003DF00DF043FA0CF0EAF90CF0E9F94049386895
S31508003E000DF03BFAC4E7384F384938680DF035FAF3
S31508003E100CF0DCF90CF0DBF9364938680DF02DFAB0
S31508003E20BBE7314D314928680DF027FA0CF0CEF979
S31508003E300CF0CDF92F4928680DF01FFADCE62A4D5B
S31508003E402A4928680DF019FA0CF0C0F90CF0BFF9E8
S31508003E502A23019301230093334622462D492868D5
S31508003E600DF00BFACEE6204C204920680DF005FA35
S31508003E700CF0ACF90CF0ABF91E4920680DF0FDF911
S31508003E800025C6E6184C194920680DF0F6F90CF01D
S31508003E909DF90CF09CF9204B164A174920680DF03D
S31508003EA0ECF9BCE60A2101200CF073F901380CABD9
S31508003EB003EB800050F8283C013340F8283C0134D5
S31508003EC04CF24F339C42EDD900243FE0064D07499A
S31508003ED028680DF0D2F90CF079F90CF078F9054953
S31508003EE028680DF0CAF946E0100700204C6F010853
S31508003EF0807901083C7B0108B8710108C47901087A
S31508003F0020720108DC790108D8790108FC790108D2
S31508003F101C7A0108507A0108907A0108684D6949A7
S31508003F2028680DF0AAF90CF051F90CF050F941F295
S31508003F308243019341F28E23009333467A1C6249E9
S31508003F4028680DF09AF91BE00134A4B2092C2CD884
S31508003F5027460CAB03EB840353F8286CC6F59C5331
S31508003F600833002BB8BF5B42FA2BEDDD042000F0C6
S31508003F7053FB0028AAD1042000F04EFB0028CDD11F
S31508003F80042000F049FB05460028DDD04C4D4D497C
S31508003F9028680DF072F90CF019F90CF018F94B496C
S31508003FA028680DF06AF90025CEE7002D3DD00420DB
S31508003FB000F032FB78B9042000F02EFBC8B90420C3
S31508003FC000F02AFB18BB042000F026FB002863D16A
S31508003FD028460DB0F0BD3A4C3A4920680DF04DF927
S31508003FE00CF0F4F80CF0F3F8384920680DF045F9B0
S31508003FF0E1E7334C334920680DF03FF90CF0E6F859
S315080040000CF0E5F8324920680DF037F9D7E72C4C63
S315080040102C4920680DF031F90CF0D8F80CF0D7F8D7
S315080040202A4920680DF029F9CDE7042000F0F4FAB2
S31508004030B0B9042000F0F0FA00BB042000F0ECFA56
S315080040400028C0D01E4C1F4920680DF016F90CF048
S31508004050BDF80CF0BCF81D4920680DF00EF9B2E762
S31508004060174C184920680DF008F90CF0AFF80CF059
S31508004070AEF8164920680DF000F9DAE7104C114938
S3150800408020680DF0FAF80CF0A1F80CF0A0F8114928
S3150800409020680DF0F2F8D0E7094C0A4920680DF0BF
S315080040A0ECF80CF093F80CF092F80A23009301232D
S315080040B04CF25032084920680DF0DFF888E700BF57
S315080040C0100700204C6F0108A87A01083C7B0108FC
S315080040D020720108F47A0108407B010830B583B0E4
S315080040E0042000F099FA38BB0CF035F8441D0CF0A2
S315080040F032F8A042FBD34FF4FA600BF0ADFF0CF098
S315080041002AF8041BA4F5FA6313F1020F01DB022B4C
S3150800411022DD042000F080FA00286CD1042000F08B
S315080041207BFA002875D1042000F076FA002840F0C2
S315080041308380012003B030BD464C474920680DF006
S315080041409CF80CF043F80CF042F8444B444A4549B5
S3150800415020680DF092F8C7E7042000F05DFA00BB6E
S31508004160042000F059FA50BB042000F055FA002844
S3150800417033D1042000F050FA0028DAD0354D3649FC
S3150800418028680DF07AF80CF021F80CF020F80223D4
S31508004190009323464FF4FA62334928680DF06DF808
S315080041A0C7E72C4D2C4928680DF067F80CF00EF877
S315080041B00CF00DF82A4928680DF05FF8D0E7254D70
S315080041C0254928680DF059F80CF000F80BF0FFFFA8
S315080041D0264928680DF051F8C6E71E4D1E4928687D
S315080041E00DF04BF80BF0F2FF0BF0F1FF1C492868B5
S315080041F00DF043F8BDE7174D174928680DF03DF84F
S315080042000BF0E4FF0BF0E3FF154928680DF035F8CD
S3150800421084E7104D104928680DF02FF80BF0D6FFEB
S315080042200BF0D5FF0223009323464FF4FA62104998
S3150800423028680DF022F876E7064C074920680DF045
S315080042401CF80BF0C3FF0BF0C2FF054920680DF000
S3150800425014F86EE7100700204C6F0108787B0108F8
S315080042603C7B0108B8710108BC7B01082072010873
S31508004270F87B010870B582B0042000F0CDF900285B
S3150800428042D1954B00221A700BF073FF0BF063FFB7
S31508004290441D0BF060FFA042FBD300228F4940F675
S315080042A0B8300BF05CFF4FF4FA500BF0D5FE8A4B92
S315080042B01B7803F0FF05002B36D0894B1B681C1BA7
S315080042C040F6B7339C4203D940F6BA339C4274D9B8
S315080042D0042000F0A1F9002840F0C080042000F076
S315080042E09BF9002840F0C880042000F095F90028C2
S315080042F040F0D080042000F08FF9002840F0DD80DF
S315080043000025284602B070BD764C774920680CF027
S31508004310B4FF0BF05BFF0BF05AFF744B744A7549F8
S3150800432020680CF0AAFFACE7042000F075F9D0B9B4
S31508004330042000F071F920BB042000F06DF970BB71
S31508004340042000F069F90028DBD0664C664920682D
S315080043500CF093FF0BF03AFF0BF039FF6449206825
S315080043600CF08BFFCDE75F4C5F4920680CF085FFAA
S315080043700BF02CFF0BF02BFF5D4920680CF07DFF3E
S31508004380D6E7584C584920680CF077FF0BF01EFF0B
S315080043900BF01DFF584920680CF06FFFCCE7514C15
S315080043A0514920680CF069FF0BF010FF0BF00FFF66
S315080043B0524920680CF061FFC2E7042000F02CF98E
S315080043C010BB042000F028F960BB042000F024F993
S315080043D0002835D1042000F01FF90646002890D0A1
S315080043E0404D414928680CF048FF0BF0EFFE0BF0F2
S315080043F0EEFE02230093234640F6B8324049286869
S315080044000CF03BFF35467CE7364E374930680CF0F2
S3150800441034FF0BF0DBFE0BF0DAFE354930680CF0A2
S315080044202CFFCEE72F4E304930680CF026FF0BF0F4
S31508004430CDFE0BF0CCFE334930680CF01EFFC4E706
S31508004440284E294930680CF018FF0BF0BFFE0BF018
S31508004450BEFE274930680CF010FFBBE7214D224904
S3150800446028680CF00AFF0BF0B1FE0BF0B0FE2049ED
S3150800447028680CF002FF31E71A4D1B4928680CF032
S31508004480FCFE0BF0A3FE0BF0A2FE1B4928680CF0FD
S31508004490F4FE29E7134D144928680CF0EEFE0BF0DC
S315080044A095FE0BF094FE02230093234640F6B8329D
S315080044B0154928680CF0E1FE1CE70A4C0A492068F1
S315080044C00CF0DBFE0BF082FE0BF081FE084920683B
S315080044D00CF0D3FE14E700BFB4220020E523000841
S315080044E00C070020100700204C6F0108487C0108C3
S315080044F03C7B0108B8710108C0710108AC77010856
S31508004500D0770108207201081078010810B50E4A04
S3150800451000210E4811F065FB00B110BD042000F023
S315080045207BF800B9FEE70A4C0A4920680CF0A5FE9C
S315080045300BF04CFE0BF04BFE074B084A0849206867
S315080045400CF09BFEEEE700BF187D0108BF010108CD
S31508004550100700204C6F0108987C01083C7B010875
S31508004560B871010810B50BF05DFD042000F054F891
S3150800457018B9FDF7FFF880B910BD214C214920680C
S315080045800CF07BFE0BF022FE0BF021FE1E4B1F4AA1
S315080045901F4920680CF071FEEBE7FDF7FBFA0028CF
S315080045A0EAD0FEF79FFEFEF79DFF0028E4D0FFF74E
S315080045B0EBF8FFF7B7F90BF0C6FDFFF7CFFA0BF0EC
S315080045C0C2FDFEF755F8FEF725FAFFF787FDFFF758
S315080045D051FE042000F020F810B90BF0B4FDFCE7FA
S315080045E0074C084920680CF048FE0BF0EFFD0BF06D
S315080045F0EEFD084B054A064920680CF03EFEECE73E
S31508004600100700204C6F0108B47C01083C7B0108A8
S31508004610B8710108DC7C010803460B4A107828B1FA
S315080046200A4A12789A4202D2002000E00120084A7B
S3150800463012783AB1074A127842FA03F313F0010FD7
S3150800464000D10020704700BF232800202228002020
S31508004650B72200202128002008B5084B01221A702D
S31508004660074B00221A70074B04221A70064B1F22AA
S315080046701A7006F0B7FB054B186008BD2328002002
S31508004680B722002022280020212800201007002019
S3150800469008B5044811F00FF909F0BEFB00F07AF8E6
S315080046A008BD00BF1487010808B5024811F003F9D0
S315080046B008BD00BF148701082DE9F04180460E4663
S315080046C0082904D106F1090500273C460AE040F20C
S315080046D0631121480BF0BAFDF4E75B21082000F0CE
S315080046E05DFA0134AC4233D2052C1BD801A353F82A
S315080046F024F000BFDB4600080D47000841470008C4
S3150800470015470008194700081D470008F3B2043387
S31508004710D9B2E3E78021E1E70021DFE77B1C3946D0
S31508004720DFB2DBE7B31DA3420CD0F31DA3420BD0C7
S3150800473006F10803A34209D0A31F18F80310CDE712
S31508004740D121CBE75A21C9E75A21C7E75D21C5E739
S315080047500020BDE8F08100BF3C7D010800B583B0AC
S31508004760044B1B88ADF8043001A800F007FB03B022
S315080047705DF804FBA47D010800B583B0044B1B88D3
S31508004780ADF8043001A800F0C3FA03B05DF804FBE5
S31508004790A47D01082DE9F04F97B04D4D09AC2E1DAB
S315080047A00FCE0FC43368236001AC05F118060FCE8F
S315080047B00FC496E80F0084E80F00464811F07BF80E
S315080047C0454811F078F801268DF8096000248DF81F
S315080047D00840424B0B9301AB0D93414F09A938464C
S315080047E004F0FAFBB5F838B0ADF838B03246042113
S315080047F00EA800F043FAB5F83CA0ADF83CA0224656
S3150800480031460FA800F03AFAB5F84090ADF8409056
S315080048103246042110A800F031FAB5F80080ADF848
S3150800482044803246042111A800F028FA2D4D2E4B5B
S31508004830C5F8F8344FF00213C5F8F434A3F58033FD
S31508004840C5F8FC341C23C5F8E4344FF4487008F066
S3150800485091F9FFF783FF142008F08CF9FFF78CFF16
S31508004860232008F087F9FFF779FFB92138460CF0BD
S3150800487091FBFFF781FFADF848B02246214612A802
S3150800488000F0FCF9ADF84CA02246214613A800F02A
S31508004890F5F9ADF850903246214614A800F0EEF925
S315080048A0ADF854803246214615A800F0E7F9384697
S315080048B003F0CAFFC5F8E444C5F8F844C5F8F4445B
S315080048C0C5F8FC44044810F0FBFF17B0BDE8F08FAC
S315080048D0A47D0108148701081C870108E07072008E
S315080048E000000A5000C003500200030008B504483F
S315080048F0044A121A921004490BF09EFC08BD00BF28
S315080049007C010008B4030008E022002008B5154B16
S3150800491083F30A8800F030F8FFF7E8FF124A0AE046
S315080049201068516850F8230041F823000133916854
S315080049308B42F5D30C320D4B9A4201D20023F6E78F
S315080049400B4A08E01168002041F82300013351683A
S315080049508B42F7D30832074B9A4201D20023F6E777
S31508004960FBF77EFD00000020B4910108C091010804
S31508004970C0910108C091010870B5134B134A9A609B
S31508004980D3F8882042F47002C3F88820104A4FF4FE
S31508004990804191660F4D05F500544FF0FF322266AF
S315080049A00D4A62660222C3F8D020BFF34F8FBFF3C9
S315080049B06F8F002006F094F94FF44036E660002029
S315080049C006F02CF92E6170BD00ED00E0000000082D
S315080049D000900050008000447FFF7F03014B186061
S315080049E0704700BF6027002008B5064B1860064BC5
S315080049F01B6F03F00703032B00D008BD0DF0CAF99F
S31508004A00FBE700BF682700200080005038B5044641
S31508004A100D4621B118B123682B60256038BD3721B2
S31508004A2001480BF013FCF6E7E87D010838B50446A3
S31508004A300D4601B128B9452105480BF007FC00E0F1
S31508004A401C462368002BFBD12B60256038BD00BFB0
S31508004A50E87D010810B5044630B1206818B103682E
S31508004A6023600023036010BD562102480BF0EEFBBD
S31508004A70F3E700BFE87D010838B504460D4601B1E5
S31508004A8028B98B2106480BF0E1FB00E01C46236899
S31508004A902BB1AB42FAD12B68236000232B6038BDBB
S31508004AA0E87D010848B1074B1B78012B07D803702E
S31508004AB00133044A13700020704701207047012013
S31508004AC0704700BFB822002010B582B000240194B8
S31508004AD02A4810F0F0FE8DF8004003238DF80130C7
S31508004AE001220421684600F0C9F8254B0122C3F8C3
S31508004AF0442401A9052010F0D7FE00283BD1214BFC
S31508004B00D3F8F02042F00102C3F8F020D3F8FC20D5
S31508004B1042F08072C3F8FC20A3F55D431A4A1A6076
S31508004B20019B03F5D52303F2FC43DB08174AA2FBD6
S31508004B3003239B0A013B164A13610223C2F8F0308D
S31508004B404FF48073C2F804334FF06043114AC3F838
S31508004B50B02F114AC3F8802ED3F8002E42F4807283
S31508004B60C3F8002EFF2283F82020D3F8002E22F463
S31508004B708072C3F8002E02B010BD00BF148701086A
S31508004B8000D0035000ED00E0FF03004017916502D6
S31508004B90000004E055CEACC5090001004FF06043A3
S31508004BA0D3F8803E13F0010F01D1112070470E4A49
S31508004BB0D2F8FC3043F08073C2F8FC304FF0604303
S31508004BC0D3F8002E4FF0010C0CFA00FC42EA0C0256
S31508004BD0C3F8002E53F82030002BE8D04FF060437E
S31508004BE003F820100020704700ED00E010B50446D9
S31508004BF00FE00123834024EA03040F2814D800EBAE
S31508004C0040020E4B03EB82035A6812B19968C0B290
S31508004C10904794B1234600201F28EAD813F0010FC5
S31508004C20E7D101305B08F7E7103800EB40039B003B
S31508004C30B033024A13440433E6E710BD14070020D4
S31508004C4008B50D4810F037FE1A2005F0F7FF28B909
S31508004C501B2005F0F3FF40B9002008BD1A2006F016
S31508004C603FF81A2005F0DAFFF2E71B2006F038F8BD
S31508004C701B2005F0D3FFEFE7148701082DE9F04163
S31508004C8070B10C46154606460F2930D803787BB115
S31508004C90022B26D0032B27D0012B07D0002309E0AF
S31508004CA0932119480BF0D2FA222717E03F2301E097
S31508004CB047F6FF737278D34013F0010F17D0134BE2
S31508004CC0D3F81073CFB910F063FD80462A46214603
S31508004CD0304605F039F9404610F055FD3846BDE82E
S31508004CE0F08140F6FF73E5E74FF6FF73E2E7972199
S31508004CF005480BF0ABFA2127F0E79B2102480BF099
S31508004D00A5FA0227EAE700BF3C7E010800C0035067
S31508004D1038B550B1044603787BB1022B1FD0032B5C
S31508004D2020D0012B07D0002309E0E42112480BF01C
S31508004D308DFA222012E03F2301E047F6FF736278DE
S31508004D40D34013F0010F10D010F022FD054620467F
S31508004D500DF05CF9284610F016FD002038BD40F627
S31508004D60FF73ECE74FF6FF73E9E7E82102480BF01B
S31508004D706DFA2120F2E700BF3C7E010838B550B134
S31508004D80044603787BB1022B1FD0032B20D0012BBE
S31508004D9007D0002309E0FC2112480BF057FA22201D
S31508004DA012E03F2301E047F6FF736278D34013F021
S31508004DB0010F10D010F0ECFC0546204605F056F819
S31508004DC0284610F0E0FC002038BD40F6FF73ECE7FB
S31508004DD04FF6FF73E9E74FF4807102480BF036FA95
S31508004DE02120F1E73C7E010870B560B10C46064605
S31508004DF049B1037883B1022B21D0032B22D0012B92
S31508004E0008D000230AE040F22D1113480BF01EFAD1
S31508004E10222013E03F2301E047F6FF737278D34060
S31508004E2013F0010F11D010F0B3FC0546304605F01B
S31508004E3053F82070284610F0A6FC002070BD40F6F6
S31508004E40FF73EBE74FF6FF73E8E740F231110248CC
S31508004E500BF0FCF92120F1E73C7E01082DE9F04131
S31508004E6070B10C4615461F46064649B1037883B10C
S31508004E70022B45D0032B46D0012B08D000220AE08E
S31508004E804FF4E07134480BF0E1F9222036E03F2276
S31508004E9001E047F6FF727178CA4012F0010F01D19E
S31508004EA0FF2B33D1022D01D9042D36D110F070FC19
S31508004EB080463378FF2B37D12368B3F1FF3F3AD0CA
S31508004EC02268B2F1FF3F41D0244B02EB420203EBCA
S31508004ED082025760226802EB420203EB8203069ABB
S31508004EE09A603378FF2B05D02268012393401C4A29
S31508004EF0C2F82434404610F046FC0020BDE8F08194
S31508004F0040F6FF72C7E74FF6FF72C4E74FF4E27147
S31508004F1011480BF09BF92120F0E74FF4E4710E4895
S31508004F200BF094F92120E9E72A462168304605F076
S31508004F308DF82060C0E73378FF2BC1D1094BD3F831
S31508004F40241470780CF045F82060B9E7404610F054
S31508004F501AFC2D20D2E700BF3C7E0108140700206A
S31508004F6000D0035000C0035008B5084BD3F82404FA
S31508004F70D3F82024104000F0553020F0A04003F567
S31508004F800053C3F82004FFF731FE08BD00C00350E4
S31508004F9008B5084BD3F82404D3F82024104000F0B1
S31508004FA0AA3020F0204003F50053C3F82004FFF789
S31508004FB01DFE08BD00C0035010B582B004460A485D
S31508004FC010F079FC23788DF8043063788DF8053075
S31508004FD0A278B2FA82F2520904210DEB0100FFF71A
S31508004FE04DFE002002B010BD14870108F0B585B04B
S31508004FF00C4694469DF83410664A1278002A00F04A
S31508005000BD800546BCF1070F00F2BA800A9A002A4D
S3150800501000F0B8800B9A002A00F0B6800E9AB2F516
S31508005020006F00F3B38001285BD05B4A02EB0C12D9
S31508005030127B002A00F0AC800022009201920292B4
S315080050400392564A02EB4C1E002C4FD14FEA4C16DF
S3150800505000209051CEF80400CEF80800CEF80C00D7
S315080050609EF8020040F010008EF802009EF8030039
S3150800507040F030008EF8030021B9C1B241F00301B7
S315080050808EF8031000930E9B013B444A4FEA4C10DE
S3150800509002EB4C11165A63F30E1616520A9B8B60D6
S315080050A00B9B4B60CB789DF83C2062F38303CB7057
S315080050B0012D36D0109B002B56D0374A4FEA0C11DB
S315080050C002EB0C1310985050119A5A6000249C60F9
S315080050D05D7372466946604604F0DAFC204605B000
S315080050E0F0BD0C9A002AA0D12D48F8E72B4F4FEABD
S315080050F04C1607EB4C120020B85150609060D060F7
S31508005100907840F010009070D07840F00300D0708E
S315080051100029B7D107EB4C12C1B241F03001D1706A
S31508005120B0E70E460A7B42F001020A73D2B242F099
S3150800513002020A73CA68042161F39F02F26006F14B
S31508005140100796E80F0087E80F00F2696FF0030171
S3150800515061F39F02F2610C9B7361012CAAD10B9A31
S31508005160B2610C9A7260A5E7002DA6D10B4B03EB32
S315080051704C139A786FF304129A709EE70948AEE7C3
S315080051800748ACE70648AAE70548A8E70448A6E79B
S315080051900548A4E7B92200207C0900207C080020E5
S315080051A0018000F0028000F0078000F0134B1B78A6
S315080051B0FBB110B50446F0B110F0EAFA0023072B4C
S315080051C013D80F4A02EB0312127B0AB10133F6E732
S315080051D023600B4A190102EB031301241C730024F4
S315080051E0545010F0D0FA204602E010F0CCFA0548E8
S315080051F010BD054870470548FAE700BFB9220020E8
S315080052007C090020048000F0028000F0018000F094
S3150800521038B510F0BDFA04460023072B06DC0C4A05
S3150800522002EB0312127B12B90133F6E7002222B110
S31508005230204610F0A8FA074838BD04F0B3FB00254D
S31508005240054B1D70204610F09EFA2846F4E700BF6D
S315080052507C090020058000F0B92200200F4B1B783E
S31508005260BBB110B50446072815D810F091FA0C4BB7
S3150800527003EB04131B7B1BB910F085FA09480BE0F6
S31508005280074B03EB041300241C7310F07CFA20462A
S3150800529002E005487047054810BD00BFB922002046
S315080052A07C090020068000F0028000F0018000F0F2
S315080052B000B583B0134B1B68019300238DF80430A7
S315080052C010F066FA104B1B7833B90F4B01221A708F
S315080052D010F059FA002309E010F055FA0B480EE0D1
S315080052E00B4A02EB0312002111730133072BF7DD7A
S315080052F008238DF8073001A804F080FB002003B0CE
S315080053005DF804FB947E0108B9220020038000F0B2
S315080053107C09002010B5104C2478BCB1072817DC8E
S315080053200E4C04EB0014247BA4B10C4C4FEA001E6F
S3150800533004EB001C44F80E30029BCCF80430002421
S31508005340CCF8084004F0A4FB204610BD0448FCE74E
S315080053500448FAE70448F8E7B92200207C09002047
S31508005360028000F0018000F0078000F008B50A4BC3
S315080053701B785BB107280BD8084B03EB00131B7B84
S3150800538043B1002104F024FB002008BD0448FCE7D3
S315080053900448FAE70448F8E7B92200207C09002007
S315080053A0028000F0018000F0078000F008B50A4B83
S315080053B01B785BB107280BD8084B03EB00131B7B44
S315080053C043B1012104F004FB002008BD0448FCE7B2
S315080053D00448FAE70448F8E7B92200207C090020C7
S315080053E0028000F0018000F0078000F0F8B5194B44
S315080053F01F6D5B6D1F4002D40125002402E0FEE705
S3150800540001346D00072C24D83D42F9D0124B1D6596
S315080054102301124AD358002BF2D002EB0416B168C6
S315080054200131B16072682046984780F00100C0B229
S31508005430737B012BE4D10028E2D0094B03EB44131C
S315080054401A7B6FF341021A731A7F6FF341021A77B8
S31508005450D6E7F8BD00000450002004507C0900205F
S315080054607C0800202DE9F04F89B005460E46144603
S315080054709846C36B5B69012207A960689847EB6B7E
S315080054805B69012206A93046984707A80BF000FB7E
S3150800549048B10027A77567754FF0FF33A3603846F4
S315080054A009B0BDE8F08F074606A80BF001FB0123FB
S315080054B0A375237E033304EBC3035E6000221A81BF
S315080054C06368B3422AD02368834201D00023A375B8
S315080054D006A80BF012FB237D984201D00023A37582
S315080054E006A80BF0E9FA814607A80BF0E5FA81450C
S315080054F001D00023A37506A80BF0E6FA814607A893
